:020000040800F2
:10400000E0BB002041B905087DC005087DC005085A
:104010007DC005087DC005087DC005087DC0050878
:104020007DC005087DC005087DC005087DC0050868
:104030007DC005087DC005087DC005087DC0050858
:104040007DC005087DC005087DC005087DC0050848
:104050007DC005087DC005087DC005087DC0050838
:104060007DC005087DC005087DC005087DC0050828
:104070007DC005087DC005087DC005087DC0050818
:104080007DC005087DC005087DC005087DC0050808
:104090007DC005087DC005087DC005087DC00508F8
:1040A0007DC005087DC005087DC005087DC00508E8
:1040B0007DC005087DC005087DC005087DC00508D8
:1040C0007DC005087DC005087DC005087DC00508C8
:1040D0007DC005087DC005087DC005087DC00508B8
:1040E0007DC005087DC005087DC005087DC00508A8
:1040F0007DC005087DC005087DC005087DC0050898
:104100007DC005087DC005087DC005087DC0050887
:104110007DC005087DC005087DC005087DC0050877
:104120007DC005087DC005087DC005087DC0050867
:104130007DC005087DC005087DC005087DC0050857
:104140007DC005087DC005087DC005087DC0050847
:104150007DC005087DC005087DC005087DC0050837
:104160007DC005087DC005087DC005087DC0050827
:104170007DC005087DC005087DC005087DC0050817
:104180007DC005087DC0050838B5094D7146284633
:10419000744658F02DFA074B074AD86B01680B6834
:1041A000116898472846214658F034FA002038BD57
:1041B00089410008286F0020F058002070B5064D96
:1041C000744671460646284658F012FA284621469B
:1041D00058F020FA304670BDBD41000870B50D4C56
:1041E000064671460C48754658F002FA2068036886
:1041F0001A6A0EB1094900E0094990472068016830
:104200000B6A0849984704482946BDE8704058F0B1
:1042100001BA00BFF0580020DD410008A89408084A
:1042200066920808AB940808F8B50A4D06460F4692
:1042300028467146744658F0DBF996F83630284621
:1042400067F38203214686F83630BDE8F84058F01F
:10425000E1B900BF29420008F8B5084D06460F46EF
:1042600028467146744658F0C3F92846214686F818
:104270005170BDE8F84058F0CDB900BF5942000870
:1042800070B5064D744671460646284658F0B0F99A
:104290002846214658F0BEF9304670BD81420008DC
:1042A000F8B5084D06460F4628467146744658F044
:1042B0009FF92846214686F87871BDE8F84058F005
:1042C000A9B900BFA1420008F8B5044671460E48DE
:1042D00004F13206754658F08BF93046676CFFF7EB
:1042E000CFFF01783846FFF7B7FFA46B34B13046F3
:1042F000FFF7C6FF01782046FFF7D2FF02482946A4
:10430000BDE8F84058F086B9C9420008F8B5094D33
:1043100006460F4628467146744658F069F93046FD
:10432000B763FFF7D1FF28462146BDE8F84058F0B3
:1043300071B900BF0D43000838B5094D71462846D4
:10434000744658F055F9074B186801680A6A06491F
:10435000904728462146BDE8384058F05BB900BF79
:1043600039430008F0580020B2940808F8B5084D09
:1043700007460E4628467146744658F039F9B81972
:104380002146467B284658F045F93046F8BD00BF27
:104390006D43000870B50B4E0446714630467546B5
:1043A00058F026F9236820461969884701462046B7
:1043B000FFF7DCFF29460446304658F02BF920462B
:1043C00070BD00BF9543000870B5064D7446714638
:1043D0000646284658F00CF92846214658F01AF9A6
:1043E000304670BDC9430008F8B50A4D06460F4671
:1043F00028467146744658F0FBF80C2303FB07600F
:104400002C30FFF7E1FF21460646284658F002F916
:104410003046F8BDE943000870B50B4E04467146BE
:104420003046754658F0E4F82368204619698847F5
:1044300001462046FFF7D8FF29460446304658F08B
:10444000E9F8204670BD00BF19440008F8B5084DD2
:10445000744606460F462846714658F0C9F8284665
:10446000214658F0D7F80C2303FB07601030F8BD45
:104470004D44000870B50B4E0446714630467546F3
:1044800058F0B6F823682046196988470146204647
:10449000FFF7DCFF29460446304658F0BBF82046BB
:1044A00070BD00BF7544000870B50B4D71460646DF
:1044B0002846744658F09CF806F11600FFF7E0FE17
:1044C00090F90000061C18BF01262846214658F026
:1044D000A1F8304670BD00BFA944000870B5094D71
:1044E000714606462846744658F082F8064B986B8B
:1044F0000268B1B25368984728462146BDE870402B
:1045000058F088B8DD440008286F002070B5094DC8
:1045100071462846744658F06BF8074B986B016853
:104520008A68904721460646284658F073F8304678
:1045300070BD00BF0D450008286F0020F8B5084D7C
:10454000744606460F462846714658F051F82846EC
:10455000214658F05FF80C2303FB07601C30F8BDC0
:104560003D45000870B50B4E044671463046754611
:1045700058F03EF823682046596C8847014620468B
:10458000FFF7DCFF29460446304658F043F8204642
:1045900070BD00BF65450008F8B5084D7446064675
:1045A0000F462846714658F023F82846214658F011
:1045B00031F80C2303FB07600430F8BD994500086F
:1045C00070B50B4E044671463046754658F010F8EB
:1045D00023682046196C884701462046FFF7DCFF18
:1045E00029460446304658F015F8204670BD00BFF5
:1045F000C1450008F8B5084D06460F4628467146E5
:10460000744657F0F5FF06EBC7002146C6682846FA
:1046100058F000F83046F8BDF545000870B50A4D71
:10462000064671462846744657F0E2FF96F8901009
:10463000304601F00301FFF7DDFF2146064628461C
:1046400057F0E8FF304670BD1D460008F8B5084D2C
:10465000744606460F462846714657F0C9FF28465D
:10466000214657F0D7FF382303FB07602230F8BDFF
:104670004D46000870B50A4D0646714628467446F8
:1046800057F0B6FF96F89010304601F00301FFF79F
:10469000DDFF21460646284657F0BCFF304670BD78
:1046A00075460008F8B5094D06460F46284671467E
:1046B0007446013757F09CFF382303FB07602146FF
:1046C0008678284657F0A6FF3046F8BDA546000874
:1046D00070B50A4D064671462846744657F088FF65
:1046E00096F89010304601F00301FFF7DBFF2146FA
:1046F0000646284657F08EFF304670BDD14600086A
:1047000070B571462148754657F072FF204B1C6BFF
:104710002068C6681F48FFF751FD01784A1ED1B2D4
:104720002046B0476FF46173C418A1B240F2125230
:1047300091421BD8A0F2CF439CB2812C18D96FF4C0
:10474000AA61421893B2812B14D9A0F2D354A1B21A
:10475000812911D9A0F2556293B2802B0ED940F273
:10476000D564A0428CBF0524002408E0FF2406E0A5
:10477000012404E0022402E0032400E004240348AE
:10478000294657F047FF204670BD00BF014700088B
:10479000286F002005110020F0B5174E044687B0A1
:1047A00030467146754657F023FF144B67791868F9
:1047B00022880168A3780097B4F80370019794F8F1
:1047C00007E0A77994F808C047EA0E2747EA0C47A4
:1047D00047F317070297D4F809700397D4F80D40F0
:1047E00004940C6A0649A0473046294607B0BDE844
:1047F000F04057F00FBF00BF99470008F058002065
:10480000C794080870B5064D74467146064628469A
:1048100057F0EEFE2846214657F0FCFE304670BDAC
:104820000548000870B5094D71460646284674468D
:1048300057F0DEFE06F10800FFF7E4FF0688214688
:10484000284657F0E7FE304670BD00BF25480008F7
:10485000F8B5084E0F46044671463046754657F087
:10486000C7FE3B8830462380294657F0D3FE2046BA
:10487000F8BD00BF5148000870B5064D744671463A
:104880000646284657F0B4FE2846214657F0C2FE99
:10489000304670BD7948000838B5104D714628463D
:1048A000744657F0A5FE0E4A0E4B11685068926888
:1048B000196058609A600C4B0C4A0D480B21197016
:1048C0001368196801605A6842609B6821468360DA
:1048D0002846BDE8384057F09DBE00BF9948000803
:1048E000B00E0020B05B00207009002004560020AC
:1048F000E458002070B5084D0646714628467446B7
:1049000057F076FE96F836002146C0F3401628464A
:1049100057F080FE304670BDF548000870B5064D72
:10492000744671460646284657F062FE28462146E0
:1049300057F070FE304670BD1D49000870B5074D38
:10494000064671462846744657F052FEB67A284607
:10495000214657F05FFE304670BD00BF3D4900085C
:1049600070B504460D461A487146764657F040FE2B
:1049700023680B2D20D8DFE805F0061F0F130A1F50
:104980001F1F1F1F171B5A691249204602E05A6950
:1049900011492046904714E05A6910492046F9E72A
:1049A0005A690F492046F5E75A690E492046F1E752
:1049B0005A690D492046EDE71B6A0C4920462A46F4
:1049C000984703483146BDE8704057F023BE00BF0A
:1049D0006149000803950808F0A008080A9508082E
:1049E000139508081C9508082195080825950808BE
:1049F00038B5094D71462846744657F0F9FD074B06
:104A0000186801680A6A064990472846214657F007
:104A100001FE002038BD00BFF1490008F058002019
:104A20002E95080838B5094D71462846744657F04A
:104A3000DFFD074B986B0168CA6B00219047284641
:104A4000214657F0E7FD002038BD00BF254A000889
:104A5000286F002038B571461148754657F0C8FDDB
:104A6000104B186801680A6A0F49904700240F48E4
:104A7000406A03682146013400225B69A4B298476A
:104A8000B4F5805FF3D10749086809490268136AE1
:104A9000984703482946BDE8384057F0BBBD00BFE2
:104AA000554A0008F0580020BA950808286F0020E1
:104AB000CB95080838B510487146744657F098FDF4
:104AC0000E4B186801680A6A0D4990470B48006848
:104AD00005682B699847431CF8D0792801D05928DC
:104AE00003D1FFF7B7FF002500E0FF25024821466C
:104AF00057F090FD68B238BDB54A0008F058002064
:104B0000D1950808F8B5084D06460F462846714667
:104B1000744657F06DFD3B78284621463370BDE85A
:104B2000F84057F077BD00BF054B0008F8B5084DB9
:104B300006460F4628467146744657F059FD3B8895
:104B4000284621463380BDE8F84057F063BD00BFDA
:104B50002D4B0008F8B5084D06460F46284671460D
:104B6000744657F045FD3B68284621463360BDE852
:104B7000F84057F04FBD00BF554B0008F8B5084D41
:104B800006460F4628467146744657F031FD3B688D
:104B9000284621463360BDE8F84057F03BBD00BFD2
:104BA0007D4B000870B5064D744671460646284692
:104BB00057F01EFD2846214657F02CFD304670BDAB
:104BC000A54B000870B5064D74467146064628464A
:104BD00057F00EFD2846214657F01CFD304670BDAB
:104BE000C54B000870B5064D74467146064628460A
:104BF00057F0FEFC2846214657F00CFD304670BDAC
:104C0000E54B00082DE9FF4BDFF824827C4D7D4CFD
:104C100071464046774657F0EBFC2E6820683368B3
:104C20000A30D3F82090FFF7EDFDB0F9002020689E
:104C300002920C30FFF7E6FDB0F900B02068724C2C
:104C40000E30FFF7DFFDB0F90000029A00905B46DE
:104C500030466E49C8472E68316804F16800D1F8C3
:104C60002090FFF7CFFDB0F9003004F16A00029305
:104C7000FFF7C8FDB0F900B004F16C00FFF7C2FD0A
:104C8000B0F90020624900925B46029A3046C8475C
:104C9000D5F800905F4ED9F80000D0F820B0306809
:104CA0000A30FFF7AFFDB0F90010306802910C3008
:104CB000FFF7A8FDB0F90030306803930E30FFF71E
:104CC000A1FDB0F90020039B00924846029A524988
:104CD000D8472E683068D0F8209004F1A800FFF77C
:104CE00091FDB0F9001004F1AA000291FFF78AFDCE
:104CF000B0F900B004F1AC00FFF784FDB0F900306A
:104D00004649009330465B46029AC8472E6832688F
:104D100004F1C800D2F82090FFF774FDB0F900103C
:104D200004F1CA000291FFF76DFDB0F900B004F183
:104D3000CC00FFF767FDB0F900003949029A0090F6
:104D40005B463046C8472E68336804F1E800D3F864
:104D50002090FFF757FDB0F9002004F1EA0002921D
:104D6000FFF750FDB0F900B004F1EC00FFF74AFD89
:104D7000B0F90010029A00915B462A493046C847B4
:104D80002E683068D0F8209004F58470FFF73AFD63
:104D9000B0F9003004F585700293FFF733FDB0F9E8
:104DA00000B004F58670FFF72DFDB0F900201E4914
:104DB00000925B46029A3046C8472D68296804F580
:104DC00094700E6AFFF71EFDB0F900B004F59570FF
:104DD000FFF718FDB0F9009004F59670FFF712FD8B
:104DE000B0F90000114900905A4628464B46B0479A
:104DF0004046394604B0BDE8F04B57F00BBC00BF4D
:104E0000F05800203C560020E80E00202C960808A0
:104E10003F9608080856002052960808659608082C
:104E2000789608088B9608089E960808B196080898
:104E3000054C000870B5084D714606462846744674
:104E400057F0D6FB3046FFF7B9F9067821462846D9
:104E500057F0E0FB70B270BD354E000870B50B4DD9
:104E60002DED028B714606462846744657F0C0FB6E
:104E70003046FFF7B7FE90ED008A2146284657F0EE
:104E8000C9FBB0EE480ABDEC028B70BD5D4E000858
:104E900070B50B4D2DED028B7146064628467446C3
:104EA00057F0A6FB301DFFF79DFE90ED008A2146CE
:104EB000284657F0AFFBB0EE480ABDEC028B70BD40
:104EC000914E000870B50C4D2DED028B71460646D3
:104ED0002846744657F08CFB06F10800FFF782FE67
:104EE00090ED008A2146284657F094FBB0EE480A20
:104EF000BDEC028B70BD00BFC54E000870B5094DFA
:104F0000714606462846744657F072FB06F10C00BF
:104F1000FFF748FE06882146284657F07BFB30B253
:104F200070BD00BFFD4E00082DE9F04B2DED028B4A
:104F3000214F86B0714604463846764657F058FBF6
:104F40001E4BD3F80080D8F80000D0F820902046FF
:104F5000FFF784FF204610EE105AFFF799FF204616
:104F6000F0EE408AFFF7AEFF2046B0EE408AFFF732
:104F7000C5FF8346284683F0FBF8044618EE900AE6
:104F80000D4683F0F5F8CDE9000118EE100A83F024
:104F9000EFF8CDF810B0CDE90201224640460849AD
:104FA0002B46C8473846314606B0BDEC028BBDE8FB
:104FB000F04B57F02FBB00BF294F0008F0580020DE
:104FC000C4960808F8B5084E0F46044671463046A8
:104FD000754657F00DFB3B7830462370294657F055
:104FE00019FB2046F8BD00BFC54F000870B50E4E36
:104FF0002DED048B04467546B0EE409AF0EE608AC3
:10500000B0EE418A7146304657F0F2FA304684EDF0
:10501000009AC4ED018A84ED028A294657F0FAFA13
:105020002046BDEC048B70BDED4F000870B5074EF7
:10503000044671463046754657F0DAFA044B30465E
:105040002360294657F0E6FA204670BD2D5000082F
:1050500008940808F8B50A4E04460F4630467146D3
:10506000754657F0C5FA2046FFF7E0FF054B30467E
:1050700084E88800294657F0CDFA2046F8BD00BFE5
:105080005550000898E2080870B51E4C1E4871463D
:10509000754657F0ADFA206830F80C6BFFF7B2FB9D
:1050A0000388F01A06B2642E02DD18490A220A703B
:1050B000206830F80C4BFFF7A5FB03881349E01A72
:1050C00002B212F1640401DAF6240C700B7858B2C3
:1050D000002802DD0D4A591E11700C4C2378190668
:1050E00001D5581C2070247861B2012903D0B1F198
:1050F000FF3F18BF00240448294657F08BFA60B2DE
:1051000070BD00BF3C56002089500008BC0E002036
:1051100038B5094D71462846744657F069FA074B71
:10512000186801680A6A0649904728462146BDE882
:10513000384057F06FBA00BF11510008F0580020F6
:10514000EA96080870B5074D06467146284674462B
:1051500057F04EFA36782846214657F05BFA30462B
:1051600070BD00BF4551000870B5074D0646714639
:105170002846744657F03CFA36782846214657F0C0
:1051800049FA304670BD00BF6951000870B5074D3F
:10519000064671462846744657F02AFA367828465D
:1051A000214657F037FA304670BD00BF8D510008D8
:1051B00070B5074D064671462846744657F018FAF2
:1051C00036782846214657F025FA304670BD00BF94
:1051D000B151000870B5074D064671462846744621
:1051E00057F006FA36782846214657F013FA30462B
:1051F00070BD00BFD551000870B5074D0646714619
:105200002846744657F0F4F936782846214657F078
:1052100001FA304670BD00BFF951000870B5074D66
:10522000064671462846744657F0E2F93678284615
:10523000214657F0EFF9304670BD00BF1D520008FF
:1052400070B5074D064671462846744657F0D0F9AA
:1052500036782846214657F0DDF9304670BD00BF4C
:105260004152000870B5074D0646714628467446FF
:1052700057F0BEF936782846214657F0CBF930462C
:1052800070BD00BF65520008F8B50E46074671466E
:105290000D481446754657F0ABF90C4B0C481C8072
:1052A000066000241C2101FB0460FFF74BFF10B1D6
:1052B0000134A4B2F6E7074A03481470294657F0B0
:1052C000A9F93846F8BD00BF89520008E4700020F3
:1052D000E0700020DE70002070B5064D7446714607
:1052E0000646284657F084F92846214657F092F999
:1052F000304670BDD952000870B5084E714604465C
:105300003046754657F074F92046FFF7E5FF304602
:10531000294657F07FF9204670BD00BFF9520008BA
:1053200070B5084E714604463046754657F060F930
:105330002046FFF7D1FF3046294657F06BF920464B
:1053400070BD00BF2153000870B5084E7146044679
:105350003046754657F04CF92046FFF7BDFF304602
:10536000294657F057F9204670BD00BF4953000841
:1053700070B5084E714604463046754657F038F908
:105380002046FFF7A9FF3046294657F043F920464B
:1053900070BD00BF71530008F8B5084E0F460446B3
:1053A00071463046754657F023F93B683046236016
:1053B000294657F02FF92046F8BD00BF9953000841
:1053C00070B5084E714604463046754657F010F9E0
:1053D0002046FFF7B9FF3046294657F01BF9204613
:1053E00070BD00BFC153000870B5084E0446714639
:1053F0003046754657F0FCF800233046A3606360E2
:105400002360294657F006F9204670BDE95300088D
:1054100070B5084E714604463046754657F0E8F8B8
:1054200004F12400FFF7E0FF3046294657F0F2F878
:10543000204670BD1154000870B5074E04467146F1
:105440003046754657F0D4F8044B30462360294661
:1054500057F0E0F8204670BD395400085894080809
:1054600070B5094E714604463046754657F0C0F88F
:105470002046FFF731FF2046FFF7B6FF30462946AA
:1054800057F0C8F8204670BD6154000870B5084E4A
:10549000044671463046754657F0AAF80023304658
:1054A00063602360294657F0B5F8204670BD00BF01
:1054B0008D54000870B50C4E2DED028B04467546D8
:1054C000F0EE408AB0EE608A7146304657F090F8B0
:1054D0003046C4ED008A84ED018A294657F09AF8D7
:1054E0002046BDEC028B70BDB554000870B50C4E63
:1054F000044671463046754657F07AF800204FF062
:105500007E53A06060606061E060E061A061294658
:105510003046236223612360BDE8704057F07AB8BB
:10552000ED54000870B50C4E714604463046754681
:1055300057F05EF82046FFF757FF04F10C00FFF725
:1055400053FF04F11800FFF74FFF3046294657F08C
:1055500061F8204670BD00BF2555000870B5074EA4
:10556000044671463046754657F042F8044B3046C3
:105570002360294657F04EF8204670BD5D5500085F
:1055800068940808F8B5084E04460F463046714640
:10559000754657F02DF8002330462760A380294632
:1055A00057F038F82046F8BD8555000870B5074E0D
:1055B000044671463046754657F01AF8044B30469B
:1055C0002360294657F026F8204670BDAD550008E7
:1055D000A094080870B5094E0446714630467546D9
:1055E00057F006F82046FFF7E1FF054B30462360F1
:1055F000294657F00FF8204670BD00BFD55500086A
:1056000050EB080870B5094E0446714630467546A1
:1056100056F0EEFF002330466370A370E3702371F1
:10562000294656F0F7FF204670BD00BF055600081A
:1056300070B5084E044671463046754656F0D8FFA0
:10564000002330466370A370E370294656F0E2FFF2
:10565000204670BD3156000870B50C4E71460446A8
:105660003046754656F0C4FF201DFFF7B3FF04F126
:105670001400FFF7C7FF04F11900FFF7D9FF304608
:10568000294656F0C7FF204670BD00BF5956000896
:1056900070B5074D744671460646284656F0A8FF79
:1056A0002846214656F0B6FF06F1840070BD00BFC3
:1056B0009156000870B5074D744671460646284657
:1056C00056F096FF2846214656F0A4FF06F5F270E4
:1056D00070BD00BFB556000838B571460B48754619
:1056E00056F086FFFEF712FF094B1968094B1A683E
:1056F000401A90424FF0000488BF1C60034888BFE6
:105700000124294656F086FF204638BDD9560008A8
:105710006C5600200C59002038B571460D4875466E
:1057200056F066FF0C4B0D4A0A4893ED007A92ED55
:10573000000AF8EEC77A4FF00004B4EEE70AF1EE83
:1057400010FA48BF1C60294648BF012456F062FF8A
:10575000204638BD195700080C590020BC5B0020BA
:1057600070B50F4D714606462846744656F040FF08
:10577000FEF7CCFE0B4B1860D6F805600A4807EE22
:10578000906A9FED0A7A27EE870A2146FDEEC00A4D
:10579000C0ED000A2846BDE8704056F03BBF00BF90
:1057A000615700086C5600200C59002000007A4414
:1057B00070B50B4D064671462846744656F018FFE4
:1057C000D6F80560074B07EE906ABDEEE70A28465B
:1057D000214683ED000ABDE8704056F01BBF00BFB4
:1057E000B15700080C590020F8B5094D06460F4680
:1057F00028467146744656F0FBFE382303FB0760CB
:105800002146C669284656F005FF3046F8BD00BF60
:10581000E957000870B50A4D064671462846744699
:1058200056F0E6FE96F89010304601F00301FFF7BF
:10583000DBFF21460646284656F0ECFE304670BD9A
:1058400015580008F8B5094D06460F46284671461A
:10585000744656F0CDFE382303FB07602146068CC4
:10586000284656F0D7FE3046F8BD00BF4558000820
:1058700070B50A4D064671462846744656F0B8FE85
:1058800096F89010304601F00301FFF7DBFF214648
:105890000646284656F0BEFE304670BD71580008D8
:1058A000F7B50C4D06460F4628467146744656F02D
:1058B0009FFE07EE107AF8EE477A02A961ED017AB1
:1058C00006F10C00FFF75AF92846214656F0A2FED1
:1058D000FEBD00BFA158000838B504462DED028B6F
:1058E00071460E48B0EE408A754656F081FE94F837
:1058F0002030581CC1B2062988BF002104EB830266
:1059000082ED018A054884F82010294656F082FE6F
:10591000B0EE480ABDEC028B38BD00BFD958000874
:1059200070B50C4E044671463046754656F060FE22
:105930000020002384F82000294630466360A360DD
:10594000E36023616361A361E361BDE8704056F0E9
:1059500061BE00BF2159000870B50C4E0446714667
:105960003046754656F044FE2046FFF765FD084B6D
:105970000020236084F820002046FFF7D1FF304646
:10598000294656F047FE204670BD00BF5959000811
:105990004894080870B5094E04467146304675466D
:1059A00056F026FE2046FFF7D7FF054B3046236012
:1059B000294656F02FFE204670BD00BF95590008BD
:1059C0003894080870B5094D714606462846744655
:1059D00056F00EFE064B986B0268B1B253689847BA
:1059E00028462146BDE8704056F014BEC55900084F
:1059F000286F0020F8B5084D06460F462846714628
:105A0000744656F0F5FD2846214686F82870BDE814
:105A1000F84056F0FFBD00BFF559000838B5064DF7
:105A200071462846744656F0E3FD28462146BDE8F7
:105A3000384056F0EFBD00BF1D5A000870B50D4646
:105A4000044671462448764656F0D2FD082D3BD8D0
:105A500004EB45007230FFF7A5F8007807EE900AD6
:105A6000082DB8EE670A08D094F864300BB9216CA1
:105A700019B1B5EE007A20EE070AB5EEC00AF1EED4
:105A800010FA21D9651995F88420D2B9DFED130AEF
:105A9000B4EE600AF1EE10FAC8BFB0EE600A80EE14
:105AA000801A94F88D00012406EE900AF8EEE61AAA
:105AB00031EE212AFCEEC22A12EE903A85F88430AB
:105AC00003E0541E85F8844000240348314656F014
:105AD000A1FD204670BD00BF3D5A000800004842AD
:105AE00070B5714605461048744656F081FDFEF7C4
:105AF0000DFD06460D48FEF761FB90F90030B3EB53
:105B0000962F01D2002508E035B90948C06A01681E
:105B10000A6A90470028F5D101250348214656F02E
:105B200079FD284670BD00BFE15A0008060F00202D
:105B3000286F0020F8B5094D06460F4628467146E5
:105B4000744656F055FD382303FB07602146467E18
:105B5000284656F05FFD3046F8BD00BF355B0008B3
:105B600070B50A4D064671462846744656F040FD0B
:105B700096F89010304601F00301FFF7DBFF214655
:105B80000646284656F046FD304670BD615B00086B
:105B900070B50A4D2DED028B7146064628467446B7
:105BA00056F026FD96ED068A2846214656F032FD2F
:105BB000B0EE480ABDEC028B70BD00BF915B0008DF
:105BC00070B50A4D2DED028B714606462846744687
:105BD00056F00EFD96ED058A2846214656F01AFD30
:105BE000B0EE480ABDEC028B70BD00BFC15B00087F
:105BF000F8B5084D0F4606460137714628467446EB
:105C000056F0F6FC56F837602846214656F002FD5D
:105C10003046F8BDF15B000870B50A4D0646714686
:105C20002846744656F0E4FC96F89010304601F091
:105C30000301FFF7DDFF21460646284656F0EAFC41
:105C4000304670BD195C0008F8B5094D744606462B
:105C50000F462846714656F0CBFC2846214656F0A2
:105C6000D9FC0137382303FB07600430F8BD00BFBF
:105C7000495C000870B50A4D0646714628467446D0
:105C800056F0B6FC96F89010304601F00301FFF78D
:105C9000DBFF21460646284656F0BCFC304670BD68
:105CA000755C0008F8B50C4D2DED028B0F460646CD
:105CB00071462846744656F09BFC382303FB076662
:105CC00096ED0C8A2846214656F0A4FCB0EE480A10
:105CD000BDEC028BF8BD00BFA55C000870B50D4D92
:105CE00006462DED028B71462846744656F080FC20
:105CF00096F89010304601F00301FFF7D3FF2846D5
:105D0000B0EE408A214656F085FCB0EE480ABDEC64
:105D1000028B70BDDD5C000870B5084D064671460B
:105D20002846744656F064FC96F890002146C0F36D
:105D30008106284656F06EFC304670BD195D00089D
:105D4000F8B5094D06460F46284671467446013798
:105D500056F04EFC38235F432846F65B214656F04A
:105D600059FC3046F8BD00BF415D0008F8B5094D4B
:105D700006460F4628467146744656F039FC3823CD
:105D800003FB07602146466B284656F043FC30462D
:105D9000F8BD00BF6D5D000870B5094D714628461D
:105DA000744656F025FC074B986B0168CA6890470B
:105DB00021460646284656F02DFC304670BD00BFF1
:105DC000995D0008286F0020F8B50A4D06460F4679
:105DD00028467146744656F00BFC0C2303FB076003
:105DE0003830FEF7F1FA21460646284656F012FCF6
:105DF0003046F8BDC95D000870B50B4E04467146CB
:105E00003046754656F0F4FB23682046196C8847E7
:105E100001462046FFF7D8FF29460446304656F093
:105E2000F9FB204670BD00BFF95D0008F8B50A4DCA
:105E300006460F4628467146744656F0D9FB0C2399
:105E400003FB07604430FEF7BFFA214606462846AA
:105E500056F0E0FB3046F8BD2D5E000870B50B4EE5
:105E6000044671463046754656F0C2FB236820460C
:105E7000596C884701462046FFF7D8FF294604465B
:105E8000304656F0C7FB204670BD00BF5D5E00087F
:105E900038B5054671460848744656F0A9FBA88BEC
:105EA0004FF6FF71884214BF05460025024821467F
:105EB00056F0B0FB284638BD915E000838B5064D57
:105EC00071462846744656F093FB28462146BDE8A5
:105ED000384056F09FBB00BFBD5E00082DE9F04181
:105EE0000A4D80460F4628467146744656F080FBA0
:105EF0000748066841463A463668B0472846214674
:105F000056F088FB0020BDE8F08100BFDD5E000890
:105F1000286F002070B50A4D2DED028B71460646A4
:105F20002846744656F064FB96ED078A28462146BB
:105F300056F070FBB0EE480ABDEC028B70BD00BF9E
:105F4000155F000870B5084D714606462846744630
:105F500056F04EFB3046FEF731F9067821462846CA
:105F600056F058FB304670BD455F000870B5084DCF
:105F7000714606462846744656F03AFBF01CFEF77A
:105F80001DF906782146284656F044FB304670BD80
:105F90006D5F000870B5084D714606462846744688
:105FA00056F026FB3046FEF709F9067821462846CA
:105FB00056F030FB304670BD955F000838B50A4D8D
:105FC00071462846744656F013FB084A08480023D9
:105FD00013800360FEF79AFA0649086028462146B6
:105FE000BDE8384056F016BBBD5F0008E8520020FF
:105FF00068560020A05B002070B5074D064671462C
:106000002846744656F0F4FA044B284621461E6092
:10601000BDE8704056F0FEBAF95F0008D470002069
:10602000F8B5094D744606460F462846714656F0A7
:10603000DFFA2846214656F0EDFA0C2303FB0760F1
:1060400000F5AE70F8BD00BF2160000870B5094DC5
:10605000714606462846744656F0CAFA0021304674
:10606000FFF7DEFF21460646284656F0D3FA3046B3
:1060700070BD00BF4D60000870B50D4D2DED028B59
:10608000714606462846744656F0B2FA301DFEF7B1
:10609000F3FB90ED008AF6EE007A28EE278A284678
:1060A000214656F0B7FAB0EE480ABDEC028B70BD3F
:1060B0007960000870B5714605461448764656F07A
:1060C00097FA134BDC6A20682946426920469047BC
:1060D000431C13D02168C5B24B68204629460022D4
:1060E000984720682946C3680122204698472268BD
:1060F0002046936829469847044600E00024034858
:10610000314656F087FA204670BD00BFB5600008E2
:10611000286F0020F8B50A4D06460F4628467146FE
:10612000744656F065FA96F83630284667F34513FC
:10613000214686F83630BDE8F84056F06BBA00BF0D
:1061400015610008F8B5074D06460F46284671460A
:10615000744656F04DFA28462146B780BDE8F8400F
:1061600056F058BA4561000870B5084D71460646AC
:106170002846744656F03CFA3046FEF7A5F8284605
:106180002146BDE8704056F045BA00BF696100087D
:1061900038B5064D74467146284656F029FA284609
:1061A000214656F037FA002038BD00BF9161000843
:1061B00070B5074D064671462846744656F018FAE3
:1061C00096F879612846214656F024FA304670BD8B
:1061D000B161000838B5064D71462846744656F040
:1061E00007FA28462146BDE8384056F013BA00BFEA
:1061F000D561000870B50C487146754656F0F8F93F
:1062000028240A4E0A49306803681A6A9047013CFC
:10621000F7D13068074935F0B7F803482946BDE89B
:10622000704056F0F7B900BFF5610008F058002043
:1062300064190908B4B7080838B571460446094816
:10624000754656F0D5F9002C06DD074B074918684E
:10625000013C35F099F8F6E702482946BDE8384098
:1062600056F0D8B939620008F0580020B4B70808D1
:106270002DE9F043374C3848714685B0774656F0E3
:10628000B7F92068354903681A6A90473448B0F96D
:10629000041002290DD0032906D001290ED120684F
:1062A00030490468A6690DE020682F4903689E699B
:1062B00008E020682D490268966903E020682C49AF
:1062C0000568AE69B047FFF795FF2A48214CFDF7F6
:1062D00075FF90F90000003018BF0120FDF77EFF28
:1062E00025681F4829680E6A0CF008FB16F054FA5E
:1062F00010EE100A81F03CFF02460B4628461E496C
:10630000B0471748FEF788F806460068D4F80080C2
:1063100081F02EFF04467068D8F800900D4681F099
:1063200027FFCDE90001B06881F022FFCDE902012D
:10633000224640461149D9F820602B46B04702203A
:10634000FFF77AFF0448394605B0BDE8F04356F040
:1063500061B900BFF058002071620008FC9608087F
:106360007056002017970808069708080F97080826
:106370001B970808080F00201E9708083697080882
:1063800038B50C4D71462846744656F031F90A4B23
:10639000186801680A6A09499047FFF72BFFFEF762
:1063A00031FC0220FFF748FF28462146BDE838406F
:1063B00056F030B981630008F0580020589708085B
:1063C00038B51A4D1A487146744656F011F92868C6
:1063D000184903681A6A9047FFF70CFF1648FEF742
:1063E00029FD20B9286801680B6A144998471248AA
:1063F000FEF720FD032805D10C481149006802680A
:10640000136A98470C48FEF715FD042805D1074983
:1064100008680C490268136A98470220FFF70CFFCE
:1064200003482146BDE8384056F0F4B8F058002043
:10643000C16300085F970808B45800206D970808EA
:10644000869708089C97080870B50F4D0F4E714647
:106450002846744656F0CCF830680D4903681A6A2D
:106460009047FFF7C7FE306801680B6A09499847F3
:106470000948FEF759FD0220FFF7DEFE28462146B7
:10648000BDE8704056F0C6B849640008F0580020D6
:10649000B9970808C0970808141100202DE9F04B9F
:1064A000214E224C86B071463046754656F0A0F813
:1064B00020681F4903681A6A9047FFF79BFE276808
:1064C0001C4C3868D0F8208004F5FF70FDF776FE8C
:1064D00090F900B01848FDF771FE90F9009004F5AE
:1064E0000070FDF76BFE90F9001004F50370059144
:1064F000FDF764FE90F900401048FEF783F9059B14
:106500000F498DE81800B0F900305A46029338461A
:106510004B46C0470220FFF78FFE3046294606B0A3
:10652000BDE8F04B56F076B89D640008F0580020A6
:10653000D1970808E80E0020E7100020F610002090
:10654000DB97080838B50A4D71462846744656F060
:106550004FF8002107482FF05BFA002106482FF082
:1065600057FA28462146BDE8384056F053B800BFD8
:1065700045650008E0590020EC5200202DE9F04369
:106580002DED0A8B74488FB07146764656F030F880
:106590007248FDF789FF28B9714B186801688A694C
:1065A000704990479FED708AFDF7C6FEFFF7CAFF5E
:1065B0000024B0EE48AAF0EE48BAB0EE489AB0EE29
:1065C00048BAF0EE489AF0EE48AAF0EE488A142055
:1065D000FDF784FFFDF79AFF074660482FF040F96A
:1065E0005E48B0EE40CA2FF0F5F8F5EE408AF1EEC5
:1065F00010FA08BFF0EE4C8AF4EECCAA08BFF0EE19
:10660000409AF1EE10FAF4EECC8AD8BFF0EE4CAA24
:10661000F1EE10FAF4EEC09A58BFF0EE4C8AF1EEAB
:1066200010FAB4EEC0BA58BFF0EE409A4F48F1EEFF
:1066300010FAD8BFB0EE40BA2FF012F94B48B0EEC6
:1066400040CA2FF0C7F8B5EE409AF1EE10FA08BF35
:10665000B0EE4C9AF4EECCBA08BFB0EE40AAF1EE20
:1066600010FAB4EECC9AD8BFF0EE4CBAF1EE10FAB4
:10667000B4EEC0AA58BFB0EE4C9AF1EE10FAB4EEE8
:10668000C08A58BFB0EE40AA381BF1EE10FAD8BF4E
:10669000B0EE408AC7284CD918EE900A81F068FD08
:1066A0002F4CD4F8008004461AEE900A0D4681F073
:1066B0005FFDD8F80090CDE9000119EE900A81F055
:1066C00057FDCDE902011BEE100A81F051FDCDE925
:1066D000040119EE100A81F04BFDCDE906011BEE15
:1066E000900A81F045FDCDE908011AEE100A81F00B
:1066F0003FFDCDE90A0118EE100A81F039FDCDE920
:106700000C012246D9F820C0194940462B469FED7E
:10671000168AE0473C46B0EE48AAF0EE48BAB0EE22
:10672000489AB0EE48BAF0EE489AF0EE48AAF0EE79
:10673000488A0B4B186801688A68904700287FF7E1
:1067400046AF0548314655F065FF00200FB0BDEC5F
:106750000A8BBDE8F08300BF7D650008E05900208A
:10676000F05800201F98080800000000EC5200209C
:106770003D9808082DE9F34B28487146754655F0B9
:1067800037FFFDF7D9FD4FF47A70FDF7A7FE00261D
:106790006420FDF7A3FE2248224F0CF0EFFF2048B3
:1067A000FDF73CFFB04225D01D48FDF737FF0646F8
:1067B0001B48FDF75FFF3F68447883783968D0F85D
:1067C00004B0D0F80890C078D1F8208044EA0322C1
:1067D00042EA0041642341F31704114894FBF3F4A7
:1067E000FDF776FF009401900F4938465A464B4614
:1067F000C04704E038680D4903681A6A9047094A9F
:10680000106801688B6898470028C1DD0348294655
:1068100055F000FF0020BDE8FC8B00BF7567000845
:10682000F8590020F0580020909808088CA108081A
:1068300070B5714619481A4C754655F0D9FEFDF7EA
:106840007BFD4FF47A70FDF749FE20681549036817
:106850001A6A9047206808210A2234F061FD14204A
:10686000FDF73CFEFDF74CFF0F4E04463078A0428A
:1068700007D00B4908680D49036822461B6A9847F0
:106880003470074A106801688B6898470028E6DD75
:106890000248294655F0BEFE002070BD3168000850
:1068A000F0580020B9980808C05B0020C598080877
:1068B000F0B5714687B01A4C1A48754655F098FEE7
:1068C0004FF47A70FDF70AFE2668174833681F6A8E
:1068D000FDF7A8FF154902463046B8472068144A1C
:1068E0000168D2F828220C6A1249A04700240E48F9
:1068F000FDF798FF84420BD20B48214601AA18F0FD
:106900008FFD10B101A8FDF747FF601CC4B2EEE790
:106910000448294655F07EFE002007B0F0BD00BFB8
:10692000F0580020B168000864580020D298080888
:10693000E80E0020E098080838B51C4871467546F6
:1069400055F056FEFDF7F8FC4FF47A70FDF7C6FDE2
:10695000174C1849206803681A6A904700211648A6
:106960002FF0C8F840F6B830FDF7B8FD2068016890
:106970008B689847002812DC206810490268136A67
:10698000984700210C482FF07FF840F6B830FDF70B
:10699000A5FD206801688A6890470028D8DD034873
:1069A000294655F037FE002038BD00BF3969000880
:1069B000F0580020F09808080C560020FA980808B3
:1069C0002DE9F8430D4E0E4C8146884630467146FF
:1069D000754655F00DFE20680A4907684A463F6A29
:1069E000B84741462068FDF7BBFF206834F0E4FB60
:1069F00030462946BDE8F84355F00CBEC169000891
:106A0000F05800200599080838B5714610487546B9
:106A100055F0EEFD0F4B186801680A6A0E49904761
:106A2000FFF7E8FB00240D480019FDF7C7FB0178CC
:106A3000E0B20134FFF7C4FF062CF4D10220FFF7C7
:106A4000FBFB03482946BDE8384055F0E3BD00BFD5
:106A5000096A0008F05800200E9908080611002065
:106A600038B50D4D71462846744655F0C1FD0B48AA
:106A700033F03AFC0A4A0B4B506811689268586030
:106A8000094819609A6019F065F828462146BDE862
:106A9000384055F0BFBD00BF616A000814110020E6
:106AA000B00E0020B05B00206458002030B5714665
:106AB0008BB01048104D744655F09AFD01230F48D5
:106AC0002B7031F029F9002028700D490B4830F067
:106AD00073FF0C49C86B02686946D368984718B1C0
:106AE0000648694630F098FF0248214655F092FD6D
:106AF0000BB030BDAD6A0008E45B002004530020F9
:106B00001C990808286F0020F8B5714606461748FA
:106B1000754655F06DFD1648FDF700FF04683440DA
:106B20001ED0144B187808B1002419E01248FDF764
:106B3000E1FE30B90E48FDF7F1FE016811F4803432
:106B40000ED00E48FDF7FAFE48B90D4A1778012419
:106B500037B9084E3470FFF7A9FF377000E0012401
:106B60000248294655F056FD2046F8BD096B00083D
:106B7000EC0E0020E45B00203811002004530020BC
:106B80009C5B00202DE9F04B29487146F04655F0FA
:106B90002FFDFDF7D1FB4FF47A70FDF79FFC142019
:106BA000FDF79CFC234B186B01684A68904700284E
:106BB00030D021482149006834F0D0FB0024DFF8B0
:106BC00074901D4ED9F83050D6F800B02B68E7B25B
:106BD000DA683946284690470A220146584634F07A
:106BE00085FB1749306834F0B9FBD9F83490286830
:106BF000D9F80010C368D1F814B028463946984730
:106C00000134024639464846D847082CD7D1306867
:106C100034F0D2FA084A106801688B689847002857
:106C2000BDDD0348414655F0F5FC0020BDE8F08B82
:106C3000856B0008286F0020F05800202F99080865
:106C400033990808F8B571462DED028B07462E489A
:106C5000754655F0CDFC2D48FDF7B0FA90F900309F
:106C6000002B48D029482A4CFDF7A8FA90F90000DB
:106C7000284908EE100A20680E30D1ED008AFDF791
:106C8000C1FDB0F9006020680A30FDF7BBFDB0F926
:106C900000202468B31A9FED207A07EE903A68EE40
:106CA000878AB8EEC88AB8EEE70A28EE888AF0EE3E
:106CB000C00A28EE201AF7EE006A01EE907AB4EED0
:106CC000661AB8EEE12AF1EE10FA48BFB0EE661A85
:106CD00072EE412A71EE023ABDEEE23ABDEEE34AAF
:106CE00013EE101A14EE102AB4F9080009B212B209
:106CF00015F086FD208104482946BDEC028BBDE8D5
:106D0000F84055F087BC00BF456C0008E910002032
:106D100008560020000000200AD7233C2DE9F0414E
:106D2000144D154E71462846744655F061FC37687F
:106D300012483B68D3F80880FDF740FA01783846DE
:106D4000C047306801684A699047DFED0D7A20EE50
:106D5000270A0021FDEEC00AFF2210EE900A00B2C1
:106D600015F04EFD074B214618702846BDE8F0414E
:106D700055F050BC1D6D0008B0590020F40E0020E5
:106D8000000048429D5B00202DE9F34B714671489D
:106D9000F14655F02DFC704B70491868058908685C
:106DA000002133F043FD01461A2034F07BF96C4A90
:106DB00014780CB1022C22D16A48FDF7FFF904784F
:106DC0006948FDF7FBF903789C4218D1634D2C68A4
:106DD000204633F0A7FB20815F4C2568284633F01E
:106DE000A1FB288161480278D30740F1888024689C
:106DF00004F10C00FDF706FD018821817FE0574E6C
:106E00005B4F306833F05AFF3878002800F08880F4
:106E1000514A58481468A788FDF7D0F990F9003016
:106E200055485E42FDF7CAF990F90020B6B238B273
:106E300031B2524215F0E4FCA0804C48464B017838
:106E400011F0010F7CD11868DFF80C8133F036FFA8
:106E500028B2FFF7F7FE4348FDF7B0F990F900308C
:106E6000002B4CD0DFF8F4B0DBF8000033F00EFC60
:106E7000D8F8000010EE107A33F008FC10EE100A7B
:106E800081F076F9044638460D4681F071F900220A
:106E90003A4B81F0C1F922462B4606460F4681F057
:106EA00009F881F09BFCDFED367A07EE100A27EE39
:106EB000270ADBF800B0D8F80020FDEEC00A3B46F8
:106EC00010EE900A0192ABF80400324620462946A3
:106ED00080F0EEFF81F082FC9FED2A1A01EE900A0D
:106EE00021EE812A019BFDEEC22A584612EE901A2D
:106EF000998033F0E3FED8F8000033F0DFFE174B43
:106F0000186833F0A9FB1448006833F0A5FB34F08F
:106F100021F91048494602B0BDE8F04B55F07ABB64
:106F20000D4915480C68A788FDF7AAF990F900608B
:106F30001048FDF7A5F931B290F9002038B279E791
:106F4000074A107809283FF67EAF1A680021918021
:106F500079E700BF896D0008085600203C560020E4
:106F600070090020EB100020EA100020505800208B
:106F700038560020E7100020E61000200000E03F17
:106F800000A08C450000C84238B50A4D714628461D
:106F9000744655F02DFB084B186801680A6A0749CA
:106FA0009047074817F00EFE2846214655F032FB61
:106FB000002038BD896F0008F05800203599080876
:106FC000E85B002038B50A4D71462846744655F0F6
:106FD0000FFB084B186801680A6A07499047074881
:106FE00017F0F0FD2846214655F014FB002038BD6F
:106FF000C56F0008F0580020419908085456002039
:1070000038B5074D71462846744655F0F1FA0548E3
:1070100017F0D8FD2846214655F0FCFA002038BD6F
:10702000017000085053002038B5714604460F48DF
:1070300055F0DEFA0E4B9D6B28680021C36A0122D1
:1070400028469847296828464B6905220021984719
:10705000084A20461460FEF7CFFF256820462B6CB7
:1070600001219847044817F0ADFDFBE7297000089F
:10707000286F0020F0580020405600202DE9F041F4
:10708000104E04460F4630467146754655F0B0FA2C
:1070900097F9003094F90080B8EB030818BF4FF05F
:1070A000010820463946FDF72DFD414620462EF0C9
:1070B00029F829460446304655F0ACFA2046BDE88A
:1070C000F08100BF7D7000082DE9F041104E0446AC
:1070D0000F4630467146754655F08AFAB7F90030CA
:1070E000B4F90080B8EB030818BF4FF00108204640
:1070F0003946FDF71BFD414620462EF003F8294690
:107100000446304655F086FA2046BDE8F08100BFBF
:10711000C97000082DE9F0410F4E04460F46304675
:107120007146754655F064FA3B682168B1EB030877
:1071300018BF4FF0010820463946FDF70BFD4146C8
:1071400020462DF0DFFF29460446304655F062FA0E
:107150002046BDE8F08100BF157100082DE9F0411F
:10716000124E04460F4630467146754655F040FAB9
:1071700094ED007AD7ED007AB4EE677AF1EE10FA6A
:107180000CBF4FF000084FF0010820463946FDF7CC
:10719000F5FC414620462DF0B5FF29460446304611
:1071A00055F038FA2046BDE8F08100BF5D71000857
:1071B00073B506460C462F487146754655F018FAC9
:1071C000032E05D02C482D49006803681B6A32E065
:1071D000E0680DF103012EF081FA30B9264A1068FB
:1071E000E26801680B6A26493CE09DF80320531EC3
:1071F000032B32D8DFE803F00213252CE169CAB271
:1072000053B299428DF8042005D01B4800680168EC
:107210000B6A1C490FE001A9FFF730FF23E0E16989
:107220008BB21AB29142ADF8043006D01248006811
:1072300001680B6A1449984715E001A9FFF744FF5C
:1072400011E0E26902A941F8042DFFF763FF0AE0AB
:1072500004F12001FFF782FF05E0074B1868016881
:107260000B6A0A4998470348294655F0D3F900208C
:107270007CBD00BFB1710008F05800200F9A0808CB
:107280003B9A0808509A0808729A0808959A0808C4
:10729000F0B5064685B00C463E487146754655F039
:1072A000A7F9012E55D9E0680DF10F012EF016FA5D
:1072B000394A50B910686369016800930C3494E846
:1072C0000C000C6A3549A0475DE09DF80F30591E4F
:1072D000032937D8DFE801F0020D19261668E468A3
:1072E00031680F6AFCF7CCFF2D4990F90030304629
:1072F00009E01668E4683268176AFDF753FC29490B
:10730000B0F90030304622460AE01668E468336877
:107310001F6AFDF757FC034623491B683046224687
:10732000B84730E01668E46837683F6AFDF75AFCF2
:10733000006880F01DFF2246CDE9000130461B4960
:10734000B84720E010681A490668E268366AB04714
:1073500019E0114C0820FEF76FFFFFF711F8FFF757
:107360002FF8FFF771F8FFF799F8FFF74DFBFEF7DD
:107370007FFF20680F4903681A6A9047FEF73AFFBB
:1073800020682EF0DDF80348294655F043F9002027
:1073900005B0F0BD91720008F0580020B79A0808B7
:1073A000D29A0808E09A0808EE9A0808FD9A080898
:1073B0000B9B0808319B080870B50B4D0E462846FC
:1073C0007146744655F014F996ED050A15F0FEF96C
:1073D000012106480BF0E8FAFEF74AFF284621464D
:1073E00055F018F9002070BDB973000870560020E0
:1073F000F8B5094D07460E4628467146744655F0C5
:10740000F7F8314638464FF04DFD214606462846EE
:1074100055F000F93046F8BDF1730008F8B5094D94
:1074200007460E4628467146744655F0E1F8314647
:1074300038464FF037FD21460646284655F0EAF813
:107440003046F8BD1D740008F0B5134D87B00646F0
:107450000F462846714674460192009355F0C8F8CD
:10746000019A009B07EE907A00EE902A01EE103A06
:10747000B8EEE70AF8EEE00AB8EEC11A03A8FDF785
:10748000B5FD304603A90BF055FA2846214655F0C4
:10749000C1F807B0F0BD00BF4974000838B5124804
:1074A0007146744655F0A4F8104B186801680A6AD2
:1074B0000F4990470D4D2868036819698847431C98
:1074C000F8D0792801D0592807D12DF0EDFE286891
:1074D00008490468256AA847FEE70348214655F095
:1074E00099F84FF0FF3038BD9D740008F058002027
:1074F0003D9B0808889B0808F8B5094D07460E46CD
:1075000028467146744655F073F8314638464FF0B8
:1075100085FC21460646284655F07CF83046F8BDE5
:10752000F9740008F8B5094D07460E46284671461D
:10753000744655F05DF8314638464FF06FFC2146F1
:107540000646284655F066F83046F8BD2575000811
:10755000F8B5094D07460E4628467146744655F063
:1075600047F8314638464FF059FC21460646284632
:1075700055F050F83046F8BD5175000873B5044613
:107580000D464D487146764655F032F8022C07D02C
:107590004A484B4900680468236A9847FF2484E0FE
:1075A000E8684849FFF7A8FF002864D04649E86822
:1075B000FFF7A2FF4549D0F10104E86838BF002475
:1075C000FFF79AFF10B944F0020084B2E86840491E
:1075D000FFF792FF08B944F00404E8683D49FFF75B
:1075E0008BFF08B944F00804E8683B49FFF784FFC3
:1075F00008B944F01004E8683849FFF77DFF08B97E
:1076000044F02004E8683649FFF776FF08B944F0F3
:107610004004E8683349FFF76FFF08B944F080047D
:10762000E8683149FFF768FF08B944F48074E868F6
:107630002E49FFF761FF08B944F40074E8682C494B
:10764000FFF75AFF08B944F48064E8682949FFF756
:1076500053FF08B944F40064E8682749FFF74CFF7A
:1076600008B944F48054E8682449FFF745FF20B97D
:1076700044F4005401E04FF6FF7428682049FFF7F6
:107680003BFF05461F482DB9FDF748F9026842EA5D
:10769000040104E0FDF742F9036823EA04010191C3
:1076A000184801A9FFF736FD00240348314654F07D
:1076B000B1FF60B27CBD00BF7D750008F0580020AE
:1076C000C19B0808D39B0808D79B0808E59B0808BE
:1076D000F29B080807B70808F69B0808FB9B0808F8
:1076E000009C0808059C0808099C08081A0C090851
:1076F0000D9C0808139C08081B9C0808229C08087D
:107700002B9C0808EC0E002070B504460D46164868
:107710007146764654F06CFF04F10A00FDF700FE56
:1077200004F10C00FDF7FCFD04F10E00FDF7F8FD7F
:1077300004F11000FDF708FE04F11200FDF7F0FD62
:1077400001232046E382A57708492DF011F80D2D7D
:1077500098BF0748314698BF40F82540024854F08A
:1077600059FF204670BD00BF09770008E4EF080804
:107770005874002070B504460E461148714675468F
:1077800054F036FF31462046FFF7BEFF04F11F00DC
:10779000FDF7DAFD00230B4A52F8231011B942F825
:1077A000234002E001330C2BF5D1204606492CF092
:1077B000DFFF0348294654F02DFF204670BD00BF6F
:1077C00075770008947400208CF008082DE9F34BBD
:1077D0001D4E009304468B46304671467546019215
:1077E00004F1040954F004FF2046FDF7C1FD04F143
:1077F00008084846FDF7BCFD04F10C074046FDF7BC
:10780000B7FD3846FDF78CFD204610492CF0B0FF3F
:1078100059462046FDF7C0FD019A48461146FDF73E
:10782000BBFD009B40461946FDF7B6FD0A99384658
:10783000FDF70EF806482946A061304654F0EAFEEE
:107840002046BDE8FC8B00BFCD77000858EF080844
:107850000000C07F70B5944E86B004467146304635
:10786000754654F0C5FE2046FDF75AFDA01CFDF7F5
:107870006BFD201DFDF740FD04F10800FDF750FDF4
:1078800004F10A00FDF760FD04F10B00FDF75CFD5B
:1078900004F10C00FDF758FD04F10D00FDF754FD57
:1078A00004F11000FDF764FD04F11400FDF738FD4C
:1078B00004F11600FDF734FD04F11800FDF730FD6A
:1078C00004F11A00FDF72CFD04F11C00FDF728FD62
:1078D00004F11E00FDF738FD04F11F00FDF734FD33
:1078E00004F12000FDF730FD04F12400FDF740FD18
:1078F00004F12800FDF728FD04F12C00FDF738FD08
:1079000004F13000FDF720FD04F13100FDF71CFD0E
:1079100004F13400FDF72CFD04F13800FDF728FDDB
:1079200004F13C00FDF7FCFC002104F13E00FFF7F0
:10793000EBFE012104F15E00FFF71CFF04F17E0065
:107940000221FFF7E1FE032104F19E00FFF712FF81
:10795000042104F1BE00FFF70DFF052104F1DE0054
:10796000FFF708FF062104F1FE00FFF703FF0721E0
:1079700004F58F70FFF7FEFE082104F59F70FFF7F6
:10798000F9FE092104F5AF70FFF7F4FE0A2104F5B2
:10799000BF70FFF7EFFE0B2104F5CF70FFF7EAFE93
:1079A0000C2104F5DF70FFF7E5FE0D2104F5EF7003
:1079B000FFF7E0FE04F5FF70FDF7C6FC04F2FF10D0
:1079C000FDF7C2FC04F50070FDF7BEFC04F20120D7
:1079D000FDF7BAFC04F20220FDF7B6FC04F2032026
:1079E000FDF7B2FC04F50170FDF7AEFC04F5027082
:1079F000FDF7BEFC04F50370FDF7A6FC04F20E20B3
:107A0000FDF78EFC04F50470FDF79EFC04F21220D5
:107A1000FDF786FC04F50570FDF7AAFC04F5067079
:107A2000FDF7A6FC04F50770FDF78EFC04F21D209F
:107A3000FDF78AFC04F21E20FDF786FC04F21F20ED
:107A4000FDF782FC04F50870FDF77EFC04F22120AE
:107A5000FDF77AFC04F22220FDF776FC04F22320E5
:107A6000FDF772FC04F50970FDF76EFC04F50A7071
:107A7000FDF77EFC0D480E4B04900DF10A024FF409
:107A80007A6103930590ADF80A10009203A904AA45
:107A900005AB04F50B70FFF799FE3046294654F00C
:107AA000B9FD204606B070BD55780008CDCC4C3EDF
:107AB0003333333F70B50A4E71460446304675463F
:107AC00054F096FD2046FDF73FFC204605492CF07A
:107AD0004FFE3046294654F09DFD204670BD00BF44
:107AE000B57A0008A0CC080870B5114E714604465E
:107AF0003046754654F07CFD201DFDF725FC601DC9
:107B0000FDF722FCA01DFDF71FFC04F11800FDF796
:107B10007FFC04F15000FDF77BFC204605492CF06A
:107B200027FE3046294654F075FD204670BD00BF43
:107B3000E97A000800D7080870B5114E714604466E
:107B40003046754654F054FD0E4A204640F8102B3E
:107B5000FDF70EFC04F11400FDF70AFC04F1180017
:107B6000FDF7F2FB04F12C00FDF714FF2046064957
:107B70002CF0FEFD3046294654F04CFD204670BDE9
:107B8000397B000818940808B8CA080870B5094E6F
:107B9000044671463046754654F02AFD2046FFF7EC
:107BA000CBFF054B30462360294654F033FD204679
:107BB00070BD00BF8D7B0008A8CB08082DE9F04BF5
:107BC000DFF8108104460E464046714677469146DE
:107BD0009B4654F00DFD3D4B2046002540F81C3BD4
:107BE000FDF7C6FB04F12000FDF7C2FB04F1240001
:107BF000FDF7BEFB84F8285004F12C00FDF7B8FB1C
:107C000004F13000FDF7A0FB04F13100FDF79CFB0F
:107C100004F13200FDF798FB04F13300FDF794FB0B
:107C200004F13400FDF790FB04F13500FDF78CFB07
:107C3000A5636664C4F84890C4F84CB004F15000E1
:107C4000FDF70EFC04F16000FDF7CEFB04F16C00C3
:107C5000FDF71CFC04F17400FDF718FC04F17C0036
:107C6000FDF714FC00214FF07E50C4F89000C4F8DA
:107C70009400C4F89800C4F89C10C4F8A010C4F88C
:107C8000A4102046124984F8A8502CF071FD3268E7
:107C90003046136B984794F8360084F8845040F0CF
:107CA000280184F83610404684ED170A84F8855080
:107CB00084F8865084F88750C4F88C50C4F88850F3
:107CC000394654F0A7FC2046BDE8F08B88C9080867
:107CD0004CC80808BD7B00082DE9F843304F044626
:107CE0000D469146714698463846764654F080FCDB
:107CF00029464A4643462046FFF760FF2546294B62
:107D000045F8B43B2846FDF70DFC04F1D800FDF71B
:107D100009FC04F1FC00FDF767FB04F58470FDF736
:107D200063FB04F58A70FDF75FFB04F59070FDF7C7
:107D30005BFB04F59870FDF757FB04F59E70FDF7AB
:107D400053FB04F5B670FDF74FFB04F5BC70FDF76F
:107D50004BFBDFED150AB7EE000AC4ED630A04F52C
:107D6000C870FDF7A7FB04F5D870FDF73DFB04F5DF
:107D7000DE70FDF739FB04F5EA70FDF735FB2846A8
:107D8000FDF7B4FB09480A49C4F8AC00C4F8B010C8
:107D90003846314654F03EFC2046BDE8F88300BF2B
:107DA000D97C0008F0C9080800000000728A0E3C67
:107DB0000AD7233CF8B5104E04460F4630467146AC
:107DC000754654F015FC2046FDF7C8FB0B4B04F13B
:107DD000240084E88800FDF7CBFA04F12800FDF7C1
:107DE000C7FA204606492CF0C3FC3046294654F019
:107DF00011FC2046F8BD00BFB57D000818E3080857
:107E000048E30808F8B5144E04460F46304671465C
:107E1000754654F0EDFB2046FDF7AAFA201DFDF74C
:107E2000A7FA04F10800FDF7A3FA04F10C00FDF72E
:107E30009FFA04F11000FDF79BFA04F11400FDF71E
:107E40006FFA2046676205492CF092FC30462946BD
:107E500054F0E0FB2046F8BD057E000888C70808FE
:107E60002DE9F04B234EBDF8248004460F463046E2
:107E70007146754691469B4654F0BAFB676004F123
:107E80000800FDF74DFA04F10A00FDF75DFA089BC2
:107E9000C4F80C904FF6FF7763612046C4F810B029
:107EA000E78715492CF064FCBDF82800A4F8188079
:107EB000C8EB0001A1F10402E06AA7830F2392FB43
:107EC000F3FC4FF0FF31637861F317200022E0628A
:107ED00003F0FE0062F341000CF1FF386070A4F87B
:107EE0001A8030462270294654F094FB2046BDE8A3
:107EF000F08B00BF617E00089CE50808F8B5124EC3
:107F000004460F4630467146754654F071FB2046D4
:107F1000FDF71AFA601CFDF717FAA01CFDF700FA2E
:107F2000201DFDF7FDF90023A37104F10C00FDF7FE
:107F30001FFA204605492CF01BFC3046A760294655
:107F400054F068FB2046F8BDFD7E0008D8CC080838
:107F500070B50F4E044671463046754654F048FBE6
:107F600020460AF08BFD0B4B04F5C2702360FDF731
:107F70003BFA04F5C870FDF737FA05200021A08010
:107F800084F879113046294654F044FB204670BDF0
:107F9000517F000888CD080870B5104E0446714620
:107FA0003046754654F024FB204613F071FA0C4A13
:107FB000204640F8542BFDF717FA04F16000FDF756
:107FC00013FA00220023C4E9202300233046C4F81A
:107FD0009030294654F01EFB204670BD997F000862
:107FE000A8E208082DE9F843164F044615468846CE
:107FF000994671463846764654F0FAFA41462A4682
:108000004B462046FFF768FE0F4B214623602A4669
:1080100004F5F27004F582452AF0F0FF28460022AC
:1080200000F8042BFDF77EFA05F12800FDF7DCF9D6
:1080300042F21070A8863146384654F0EBFA2046DA
:10804000BDE8F883E57F000858CA08087FB50646F2
:108050000C4650487146754654F0CAFA012E40F05D
:1080600092804FF6FF739C4240F08D804A4C4B4803
:108070004FF4A0622146FDF707F94948FFF7EAFBF4
:108080004848FDF79DF948482DF082FB4748FFF727
:1080900011FD474947482EF049FD4748FFF724FDA9
:1080A0004648FFF755FF4648FFF776FF4548FFF77C
:1080B0006DFD444A404B42494348FFF793FF424914
:1080C0004248FFF777FE40494148FFF79BFE414891
:1080D000414B00904FF4A0614FF480520191029205
:1080E00039493E4A3E48FFF7BBFE3E4831F0D8F8DA
:1080F0003D4831F0D5F83D4831F0D2F83C482DF0FC
:108100004FFC3C482DF04CFC3B482DF07DFD3A499E
:108110003A48FDF737FA38493948FFF7EFFE0023B0
:108120003849294A384818F005FE3848FDF794FACE
:10813000374809F025FF2448FDF7AAFA354B3649A0
:1081400018603648364A00900423364816F04CFC36
:108150001D48FDF7AFFAC4F8280900243249334A14
:1081600000940A23324816F03FFC3249324A009408
:108170000523324816F038FC009431483149324A20
:108180000D2316F031FC0348294604B0BDE87040C9
:1081900054F040BA4D80000808000020FC55002033
:1081A000E80E0020C45B002010560020EA52002098
:1081B000329C080804530020F85900207056002013
:1081C000F05A002018590020381100206453002074
:1081D000B459002049BF00086187000815D900087C
:1081E000645800209853002064540020305500202B
:1081F000E0590020EC5200200C560020FC5B0020CF
:1082000014560020B00E0020745200203058002078
:10821000B458002004560020C8B8080831D500081A
:1082200074B80808505300201CC7080854C6080832
:108230005456002062B8080824C708084056002099
:10824000E85B00204CC6080870C4080870B50646F4
:108250000D460B487146744654F0CAF9012E09D1F7
:108260004FF6FF739D4205D1064809F045FA0648CE
:1082700009F05AFA02482146BDE8704054F0CAB9E4
:108280004D8200081C5C0020145C002070B506467E
:108290000D4626487146744654F0AAF9012E3ED187
:1082A0004FF6FF739D423AD121480EF04DFA204916
:1082B00020480FF08BF820480EF07CFA1F4810F091
:1082C000B5FB1F4810F0FAFE1E480FF099F81E4843
:1082D0000FF0C2F81D480EF069FB1D4811F0BCFEFE
:1082E0001C480EF0F7FE1C491C4A1D4811F052FDB7
:1082F0001C491D4A1D4811F04DFD1D491D4A1E48CF
:1083000011F048FD1D491E4A1E4811F043FD1E484C
:108310001A491E4A11F03EFD1D480FF00BF90348A3
:108320002146BDE8704054F075B900BF8D82000849
:10833000AC6C0020CC6F0020686F0020286E0020FD
:10834000345C0020E06F0020B46C0020506D0020F1
:10835000D86F0020A06C0020CEA90808DBA908086F
:10836000506C0020E5A90808F0A90808D06D00208D
:10837000FAA9080805AA0808786F00200FAA0808BB
:1083800019AA080878700020006D002023AA0808A8
:10839000286F002038B5084D71462846744654F0C1
:1083A00027F901204FF6FF71FFF750FE28462146BE
:1083B000BDE8384054F02EB99583000870B5144ECE
:1083C00071463046754654F013F91248124B8468D2
:1083D000016842689C60114C19605A602168104B1A
:1083E00062681960A1685A609960194614F014FD1A
:1083F000BDEEC00A0B480C4BF8EEC00A80ED000A37
:1084000029463046C3ED000ABDE8704054F002B979
:10841000BD830008B00E0020B05B0020A45B0020EC
:10842000E458002010590020BC5B0020F8B5074636
:108430000E460F487146754654F0DAF80024CC23F6
:108440000C4A03FB04F0815C21B110183946324616
:1084500030F080FB0134032CF1D1314606482FF077
:10846000ABFA03482946BDE8F84054F0D3B800BF42
:108470002D840008985300200453002070B57146E5
:1084800005461B481B4C764654F0B2F81A4A13684E
:10849000506891682360A16060602B681360686811
:1084A0005060AD689560154D2146284614F0E8FCF3
:1084B00048B113490120FFF7B9FF2A686968AB6822
:1084C00022606160A3600D480B4914F0A5FC0D48C3
:1084D0000D4ABDEEC00A314680ED000AF8EEC00A32
:1084E0000348C2ED000ABDE8704054F093B800BFE5
:1084F0007D840008B05B0020E4580020B00E00200E
:10850000479C080810590020BC5B002070B5084D3E
:10851000714606462846744654F06AF8701DFFF707
:10852000ADFF28462146BDE8704054F073B800BF47
:108530000D85000870B50F4D8AB071460646284675
:10854000744654F055F82822002168464DF04AFE42
:108550006946304616F014FC0748FCF763F96A4692
:10856000014606482EF004FC2846214654F052F8F5
:108570000AB070BD358500086458002004530020FF
:108580000FB4F0B585B00AAD7146224855F8043BEA
:10859000214C774654F02CF8204B0095D86B0A9B61
:1085A000039504F109013222012626720DF008FE1E
:1085B0001B4804F109012FF02FFA204612212FF059
:1085C000E5FE94F8CC00B8B1164A04F1D40302F1E8
:1085D000300E154603CD18605960083375452A469C
:1085E000F7D12988A878198098700B4BCC2202FB10
:1085F000063012212FF0CAFE0136CC34032EE0D112
:108600000448394654F006F805B0BDE8F04004B01F
:10861000704700BF8185000898530020286F002014
:1086200004530020A053002070B571462DED028B3D
:1086300005461D48764653F0DBFF1C4B93ED008A40
:10864000B5EEC08AF1EE10FA09DD1948FCF714F90D
:10865000D0ED007AB4EEE78AF1EE10FA0ED91548A3
:108660001549164A14F00CFC30B1124813492C88F5
:1086700014F0D2FB124807E004460DE00D480F4904
:108680002C8814F0C9FB0F48BCEEC00A214610EE3E
:10869000102AFFF775FF01240348314653F0BAFF53
:1086A0002046BDEC028B70BD29860008BC5B002013
:1086B00010110020B00E0020B05B0020E458002014
:1086C000599C0808769C080838B51C482DED028B8B
:1086D0007146754653F08CFF194B1A4893ED008A8A
:1086E000FCF7CAF8D0ED007AB4EEE78AF1EE10FAA2
:1086F00007D801201449FFF799FE1448012404709B
:1087000013E013481349144A14F0BAFB60B110483F
:10871000114914F081FBBCEEC00A104810EE101A8B
:10872000FFF72EFF012400E004460448294653F0D9
:1087300071FF2046BDEC028B38BD00BFC986000822
:10874000BC5B002010110020949C0808C15B002035
:10875000B00E0020B05B0020E4580020A19C080867
:1087600038B5714604461548754653F041FF144B21
:1087700018780A281BD1A17814290DD005D8102902
:1087800011D12046FFF750FF0BE0702907D0722966
:1087900009D1FCF7C1FF04E0FFF796FF01E0FCF709
:1087A0009BFF044604E003200649FFF73FFE012437
:1087B0000248294653F02EFF204638BD6187000845
:1087C00070090020B79C080837B504467146244854
:1087D000754653F00DFFB4F80330CBB9D4F806203A
:1087E00007EE902AF5EEC07AF1EE10FA10DD02A93C
:1087F0001C4841F8042DFCF7C1F91A48FCF7F2F9BE
:1088000000687FF0B5FC02460B461748FFF7B8FE3C
:10881000D4F80A4000EE104AB5EEC00AF1EE10FAA4
:1088200018DD9FED127AB4EEC70AF1EE10FA11D8F6
:10883000FDEEC00A02A910EE900A01F8040D0C48E2
:10884000FCF760F90A48FBF71BFD90F90010094896
:10885000FFF796FE0248294653F0DCFE3EBD00BFFE
:10886000C98700080C0F0020DC9C08080000C842E3
:10887000E8100020F39C080870B53F482DED028BEE
:108880007146754653F0B4FE3C4B18780A2801D067
:10889000012469E03A4E317899B13A48FBF78EFCF1
:1088A00090F90020531C0CD03648FBF787FC007869
:1088B000FDF700FC012804D13349FFF7B7FD002480
:1088C00015E02F4E3478002CE2D12E48FBF776FCD1
:1088D00090F9003001330CD12C48FBF7CDFFD0EDDF
:1088E000007AF5EE407AF1EE10FA02D101243470EC
:1088F0003AE02448FBF762FC90F90000431C0ED0DC
:108900002048FBF75BFC0078FDF7D4FB38B9012069
:108910001F49FFF78BFD1A4901240C7024E01B4806
:10892000FBF7AAFF90ED000AB5EE400AF1EE10FA4F
:108930000ED01848FBF744FE90ED008A1348FBF771
:108940009BFFD0ED000AB4EEE08AF1EE10FA01DAF6
:10895000002409E018EE100A7FF00AFC02460B46DC
:108960000D48FFF70DFED6E70348294653F052FEA7
:108970002046BDEC028B70BD79880008700900208C
:1089800048530020190F0020249D08081C0F0020C8
:10899000379D0808F05A0020099D080870B57146F7
:1089A00006460C48754653F023FE0024CC230A4AA1
:1089B00003FB04F0815C19B1101831462FF0E6FC7E
:1089C0000134032CF2D103482946BDE8704053F02E
:1089D00021BE00BF9D8900089853002038B5074D7F
:1089E00071462846744653F003FE1A20FFF7D6FF5F
:1089F00028462146BDE8384053F00CBEDD8900080A
:108A000070B505460E460B487146744653F0F0FDAE
:108A100005F108033246283553F8041BAB4242F8EF
:108A2000041BF9D11878107002482146BDE8704047
:108A300053F0F0BD018A0008F8B50A4D0E4607460E
:108A400071462846744653F0D3FD3B46214653F801
:108A5000082F32609888B0802846BDE8F84053F06F
:108A6000D9BD00BF398A0008F8B50A4D0E46074641
:108A700071462846744653F0BBFD3B46214653F8E9
:108A8000082F3260586870602846BDE8F84053F0FF
:108A9000C1BD00BF698A000870B505460E460B4887
:108AA0007146744653F0A4FD05F1080332461835AB
:108AB00053F8041BAB4242F8041BF9D1188810800C
:108AC00002482146BDE8704053F0A4BD998A0008D1
:108AD0002DE9F7430E4E04460F4630467146754663
:108AE0009046994653F084FD8F23009338464D21DC
:108AF000A4F8008084F802902246032331F0C4F9E0
:108B00003046294603B0BDE8F04353F083BD00BFB3
:108B1000D18A00082DE9F043144D87B006460F4670
:108B20002846714674469046994653F061FD0E9969
:108B30009DF83C300391032032228DF813308DF8DC
:108B4000140000923046002103AA09238DF810700A
:108B50008DF811808DF8129031F096F92846214653
:108B600053F058FD07B0BDE8F08300BF158B000837
:108B70002DE9F341804671461E48774653F038FD93
:108B80001D4B1E481D78067B002E14BF05260426AB
:108B9000102D0ED8DFE805F0090D0909110D0D0D96
:108BA0000D0D0B0B0D0D0D0B2700402402E00824CA
:108BB00000E00124102D02D105E000260124104818
:108BC000FBF798FE90B940460A218DE86000032229
:108BD00044F00103FFF79EFF0648394602B0BDE8A6
:108BE000F04153F017BD02260124ECE744F0800465
:108BF000E9E700BF718B0008700900205058002081
:108C0000381100202DE9F043234D8BB007460E4666
:108C10002846714674469046994653F0E9FCBDF8E3
:108C20004830BDF84C00BDF95010BDF85820ADF8E3
:108C30001430ADF81600BDF85C30BDF86000ADF83A
:108C40001810BDF86410ADF81A20ADF81C30BDF84E
:108C50006820BDF86C30ADF81E009DF95400ADF8E9
:108C600020107C21ADF82220ADF824308DF82600AC
:108C700000913846012102AA1F230296CDF80C80EC
:108C8000CDF8109031F000F92846214653F0C2FC8F
:108C90000BB0BDE8F08300BF058C0008F0B52DEDEA
:108CA000068B194D8BB007460E4628467146744612
:108CB000F0EE40AAB0EE60AAF0EE419AB0EE619AF2
:108CC000F0EE428AB0EE628A53F092FC27230093C2
:108CD00038461E2103AA1C230396CDED04AA8DED70
:108CE00005AACDED069A8DED079ACDED088A8DED9A
:108CF000098A31F0C9F82846214653F08BFC0BB0A5
:108D0000BDEC068BF0BD00BF9D8C00082DE9F04343
:108D1000194D8BB007460E4628467146744690465C
:108D2000994653F065FC129B1398BDF95010BDF99C
:108D3000542006930790BDF95830BDF85C00ADF89B
:108D400020106821ADF82220ADF82430ADF82600BF
:108D500000913846212103AA1C230396CDF81080E8
:108D6000CDF8149031F090F82846214653F052FC8B
:108D70000BB0BDE8F08300BF0D8D00082DE9F04B6E
:108D8000714688B081463848774653F031FC374801
:108D9000FCF7E6FE012803D93448FCF73DFF01E06B
:108DA000FBF7B4FB80463148314CFCF763FF626847
:108DB000D4F808B0079205462C48FBF75BFC4378D3
:108DC0008178C07843EA012646EA00420A2142F34C
:108DD00017034B4300936678A078E47846EA0022B4
:108DE000244E42EA044332685478967843F31700DD
:108DF00044EA0623D47843EA044242F31703C01A34
:108E00004143019195ED007ADFED1B7A27EE270AA9
:108E10009FED1A3AFDEEC00A10EE901A0AB20292C5
:108E200095ED011A61EE271ABDEEE12A12EE103A15
:108E300018B20390D5ED022A62EE833A104BBDEED4
:108E4000E34A14EE101A0AB20492188B079A05909E
:108E5000414648465B46FFF759FF0348394608B08C
:108E6000BDE8F04B53F0D6BB7D8D0008F8590020CB
:108E7000B00E0020045600200000C8420000C8C206
:108E8000381100202DE9F0432DED068B1A4D8BB0E3
:108E900006460F46284671467446B0EE40AAF0EEEC
:108EA000609A90469946B0EE419AF0EE618AB0EE33
:108EB000428A53F09DFBB723009330463E2103AA1C
:108EC0001A238DED03AACDED049A8DED059ACDED13
:108ED000068A8DED078AADF82070ADF82280ADF8D6
:108EE000249030F0D1FF2846214653F093FB0BB07D
:108EF000BDEC068BBDE8F083858E00082DE9F04BB4
:108F00002F4E304C2DED048B714680463046754611
:108F100053F06EFB2C4B2D4893ED009AFCF7DEFED0
:108F20002B48B0EE408AFBF71DFBD0ED028A20688B
:108F30008168204688472268834617692046B847DB
:108F4000244B22682449D3ED007ABCEEE70A81461F
:108F500010EE100A536987B2204668EE288A91ED18
:108F6000008A984706EE90BA02EE909AB8EEE67A3A
:108F7000DFED1A0AB8EEE23A27EE201A63EE203A45
:108F8000FDEEC11ABDEEE34A11EE901A14EE102A5E
:108F9000B0EE402A4046B0EE490AF0EE680A09B247
:108FA00012B23B469FED0E1AF0EE481AFFF76AFF29
:108FB00030462946BDEC048BBDE8F04B53F02ABB8C
:108FC000FD8E00086453002034560020F85900201C
:108FD000F05A0020BC5B0020DC0E00200AD7233CA6
:108FE000000000002DE9F0411B4F8AB07146804619
:108FF0003846764614461D4653F0FAFA119B1399EB
:109000001298BDF850200493BDF854300691BDF875
:109010005C100590ADF81C20BDF858009DF840206C
:10902000ADF81E309DF86030ADF822101821ADF873
:1090300020008DF824208DF825300091404602AAAA
:109040001E23CDE9024530F01FFF3846314653F06C
:10905000E1FA0AB0BDE8F081E58F00082DE9F041A2
:109060001F4F8CB0714680463846764614461D46E2
:1090700053F0BEFA139B149815991C9A049305900B
:10908000BDF85830BDF85C000691BDF8601007923D
:10909000BDF86420ADF82030ADF822009DF84830CE
:1090A0009DF86800ADF824109DF86C10ADF82620EE
:1090B00057228DF828308DF829008DF82A1000925B
:1090C00040467C2102AA2323CDE9024530F0DCFE94
:1090D0003846314653F09EFA0CB0BDE8F08100BF2F
:1090E0005D9000082DE9F04B2DED028B05468EB00A
:1090F0006E487146764653F07BFA6D4B1C68002C27
:109100007BD000216B48FBF775FA844275D1694822
:10911000FCF702FE012867D966480121FCF70AFD29
:10912000002861D0284630F0F9FC083800B2222827
:109130005ADD01215F485E4FFBF788FA01210446A2
:109140005C48FBF757FA012138605A48FCF750FD9C
:10915000012180465748FCF7EDFC61680D9163786A
:10916000A2688346A078E4780C9243EA002747EA95
:1091700004410A2341F317074E4801215F43FCF7DE
:10918000DFFD012104464B48FCF78CFD01214948D5
:10919000B0EE408AFCF7EAFD012181464548FBF725
:1091A00081FADFED450A28EE201A0D9A0C990192FA
:1091B000BCEEC18A4FF6FF7318EE102A0291059398
:1091C00091B21FFA89F308904FF47A720020079346
:1091D00009900A90CDF800B00397049406912846B0
:1091E000A8FB0223FFF73AFF304831460EB0BDEC32
:1091F000028BBDE8F04B53F00DBA00212D48FBF770
:10920000F9F92B49086000212A48FBF71FFA0021D1
:1092100004462848FCF7ECFC002180462548FCF772
:1092200089FC62680D92A778A36883466078E47829
:109230000C9340EA072141EA044242F317070A204F
:10924000474300211B48FCF77BFD002104461948D9
:10925000FCF728FD00211748B0EE408AFCF786FD98
:10926000002181461348FBF71DFADFED137A28EE43
:10927000270A0D9B0C990193BCEEC08A4FF6FF7232
:1092800018EE103A0291059299B21FFA89F24FF442
:109290007A7307920890CDF800B003970494069172
:1092A0002846A8FB0323FFF79DFE30E7E590000862
:1092B000D80E0020F85900200000C8422DE9F041E6
:1092C0000E4F86B0714680463846764614461D4697
:1092D00053F08EF90C9B89200493009002214046A4
:1092E00002AA0C23CDE9024530F0CEFD38463146C6
:1092F00053F090F906B0BDE8F08100BFBD920008C0
:109300002DE9F0431F4D89B007460E4628467146A9
:1093100074469046994653F06BF9BDF84030BDF85D
:109320004400BDF84810BDF84C20ADF80E30BDF833
:109330005030ADF81000ADF81210BDF85400BDF873
:109340005810ADF814209DF85C20ADF81630F423C9
:10935000ADF81800ADF81A108DF81D2000933846AE
:10936000232102AA16230296ADF80C908DF81C80DA
:1093700030F08AFD2846214653F04CF909B0BDE88B
:10938000F08300BF019300082DE9F043334D8FB007
:1093900007460E462846714674469046994653F055
:1093A00027F9BDF85830BDF85C00BDF86010BDF875
:1093B0006420ADF81230ADF81400BDF86830BDF887
:1093C0006C00ADF81610ADF81820BDF87010BDF89F
:1093D0007420ADF81A30ADF81C00BDF87830BDF837
:1093E0007C00ADF81E10ADF82020BDF88010BDF84F
:1093F0008420ADF82230ADF82400BDF88830BDF8E7
:109400008C00ADF82610ADF82820BDF89010BDF8FE
:109410009420ADF82A30ADF82C00ADF82E1003964C
:10942000ADF81090ADF83020BDF898309DF89C0054
:10943000ADF8323076218DF8350000913846412163
:1094400003AA2A238DF8348030F01EFD28462146D9
:1094500053F0E0F80FB0BDE8F08300BF8993000837
:109460002DE9F04BA2B0714680467F48CDF858E018
:1094700053F0BEF8FBF74AF87C4B1C6B8146206822
:109480000021C2682046904721680546CE682046E4
:109490000121B04727681490FB68022120469847B5
:1094A000834620680321C2682046904721681590B2
:1094B000CE6820460421B04723680746DA68139730
:1094C000052120469047074620680621C6682046A9
:1094D000B04721680646CB68204607219847149B71
:1094E000159A139905968DE80808614E029203912A
:1094F00004970690307800220790494640462B4654
:10950000FFF7FEFE236820469A689047082804D992
:10951000404630F003FB312806DC5348169922B050
:10952000BDE8F04B53F076B8FAF7F0FF25688346B4
:10953000AF682046B84721688146CB6820460021A5
:109540009847844620680121C268CDF848C020466B
:10955000904725681490EF6802212046B84721689B
:109560001590CB6820460321984717902068042166
:10957000C2682046904725681890EF68052120466C
:10958000B84721681990CB682046062198471A9061
:1095900020680721C2682046904725681B90EF6825
:1095A00008212046B84721681C90CB682046092135
:1095B00098471D9020680A21C26820469047276876
:1095C0000546FB6813950B212046984721681E909D
:1095D000CA6820460C2190471F9020680D21C5685D
:1095E0002046A84727682090FB680E212046984710
:1095F00021680746CA6820460F21904721902068BD
:109600001021C5682046A84723680546DA6811215D
:10961000204690471499159B00910193179A189929
:10962000199B0292039104931A9A1B991C9B059211
:10963000069107931D9A13991E9B089209910A930C
:109640001F9A2099219B0B920C910E930D970F95C9
:1096500010903078DDF848C01190594640464A468F
:109660006346FFF791FE58E761940008286F0020D9
:109670009D5B00202DE9F0431D4D89B007460E4645
:109680002846714674469046994652F0B1FFBDF89F
:109690004030BDF84400BDF84810BDF84C20ADF88E
:1096A0000E30ADF81000BDF85030BDF85400ADF8E4
:1096B0001210BDF85810ADF81420DE22ADF81630A7
:1096C000ADF81800ADF81A1000923846242102AA0D
:1096D00015230296ADF80C908DF81C8030F0D4FB69
:1096E0002846214652F096FF09B0BDE8F08300BF3E
:1096F000759600082DE9F04B2A4E8EB071468346D0
:109700003046754652F074FFFCF746FB264B5C6B07
:10971000814620680021C269204690472168804622
:10972000CF6920460121B84723680A90DA690221EF
:10973000204690470B9020680321C7692046B84710
:1097400021680C90CB6920460421984722680D902F
:10975000D76905212046B847034620680621C2691B
:1097600009932046904721680746CB692046072188
:1097700098470A9A0B990C9B009201910D9A0999AE
:109780000293039204910690494658460597002299
:109790004346FFF76FFF304629460EB0BDE8F04B59
:1097A00052F038BFF5960008286F00202DE9F041EF
:1097B0002DED048B164D88B006460F46284671469F
:1097C0007446F0EE409AB0EE609A9046F0EE418A10
:1097D000B0EE618A52F00CFF142330464A21009308
:1097E00003AACDED039A8DED049ACDED058A8DED9A
:1097F000068AADF81C70ADF81E8030F045FB284697
:10980000214652F007FF08B0BDEC048BBDE8F081A3
:10981000AD970008000000002DE9F0412E4D2F4EBD
:109820002DED028B714607462846744652F0E0FE45
:109830003046FCF753FA3046F0EE408AFCF74EFA19
:10984000274B9A69642092FBF0F14FF4B476254AD5
:1098500091FBF6F806FB181310689EB2B0EE408A32
:1098600030F014FFDFED207AB0EEC00A60EE270A78
:109870001E49BCEEE01A8A784B78C97811EE100ABE
:109880000FFA86F886B243EA022040EA014343F326
:1098900017007EF05BFC0EA3D3E900237EF0BCFC36
:1098A0007EF09CFF414601EE100AB0EE680A384691
:1098B000F0EE480A3246DFED0E1AFFF777FF284632
:1098C0002146BDEC028BBDE8F04152F0A3BE00BFC3
:1098D0007B14AE47E17A843F19980008F8590020BC
:1098E00038110020085600200000C842B00E0020A9
:1098F00000000000AFF300802DE9F0411F4F8AB057
:10990000714680463846764614461D4652F070FE33
:10991000BDF94030BDF94400BDF94810BDF94C20F7
:10992000ADF81030BDF95030ADF81200BDF954005B
:10993000ADF81410ADF81620BDF95810BDF95C2033
:10994000ADF81830BDF96030ADF81A009020ADF8D0
:109950001C10ADF81E20ADF8203000901B214046B1
:1099600002AA1A23CDE9024530F08EFA3846314674
:1099700052F050FE0AB0BDE8F08100BFF99800082F
:109980002DE9F0431D4D89B007460E462846714625
:1099900074469046994652F02BFEBDF94030BDF911
:1099A0004400BDF94810BDF94C20ADF81030ADF8B9
:1099B0001200BDF95030BDF95400ADF81410BDF9D6
:1099C0005810ADF816204C22ADF81830ADF81A003A
:1099D000ADF81C1000923846742102AA1623029694
:1099E000ADF80C80ADF80E9030F04EFA28462146C6
:1099F00052F010FE09B0BDE8F08300BF8199000865
:109A00002DE9F0432DED088B204D8FB006460F4613
:109A100028467146744690469946B0EE40BAF0EE3C
:109A200060AAB0EE41AAF0EE619AB0EE429AF0EE72
:109A3000628AB0EE438A52F0DBFD1E991F980491B2
:109A40008623059000933046962103AA2A238DEDA4
:109A500003BACDED06AA8DED07AACDED089A8DEDDE
:109A6000099ACDED0A8A8DED0B8AADF83070ADF80C
:109A70003280ADF8349030F007FA2846214652F093
:109A8000C9FD0FB0BDEC088BBDE8F083019A00085A
:109A90002DE9F04BDFF89880DFF898B0234D86B0C1
:109AA000714681464046774652F0A2FD5846FAF785
:109AB000B3FC06462846FCF79FF904462846FCF707
:109AC000CDF9D6ED007AD6ED010AD6ED021ABDEE3B
:109AD000E70ABDEEE01ABDEEE12A0546584612EE51
