:020000040800F2
:10400000D4B60020456D0608817406088174060840
:104010008174060881740608817406088174060894
:104020008174060881740608817406088174060884
:104030008174060881740608817406088174060874
:104040008174060881740608817406088174060864
:104050008174060881740608817406088174060854
:104060008174060881740608817406088174060844
:104070008174060881740608817406088174060834
:104080008174060881740608817406088174060824
:104090008174060881740608817406088174060814
:1040A0008174060881740608817406088174060804
:1040B00081740608817406088174060881740608F4
:1040C00081740608817406088174060881740608E4
:1040D00081740608817406088174060881740608D4
:1040E00081740608817406088174060881740608C4
:1040F00081740608817406088174060881740608B4
:1041000081740608817406088174060881740608A3
:104110008174060881740608817406088174060893
:104120008174060881740608817406088174060883
:104130008174060881740608817406088174060873
:104140008174060881740608817406088174060863
:104150008174060881740608817406088174060853
:104160008174060881740608817406088174060843
:104170008174060881740608817406088174060833
:10418000817406088174060838B5064D74462846C1
:10419000714663F035FC28462146BDE8384063F09F
:1041A00041BC00BF8941000870B5074D0646714605
:1041B0002846744663F024FC96F88161284621461F
:1041C00063F030FC304670BDA941000838B5064D9B
:1041D00074467146284663F013FC2846214663F076
:1041E00021FC002038BD00BFCD410008F8B5084DC6
:1041F000064674460F462846714663F001FC86F871
:10420000E17028462146BDE8F84063F00BBC00BFD2
:10421000ED41000870B5064D7446714606462846C5
:1042200063F0EEFB2846214663F0FCFB304670BD90
:1042300015420008F8B5084D064674460F46284654
:10424000714663F0DDFB86F8807128462146BDE8A3
:10425000F84063F0E7BB00BF35420008F8B50446FC
:1042600071460E4804F13206754663F0C9FB3046CC
:10427000676CFFF7CFFF01783846FFF7B7FFA46BF5
:1042800034B13046FFF7C6FF01782046FFF7D2FF72
:1042900029460248BDE8F84063F0C4BB5D4200080F
:1042A00070B5084D714606462846744663F0A8FB73
:1042B0003046FFF7D3FF28462146BDE8704063F043
:1042C000B1BB00BFA142000870B5064D74467146EF
:1042D0000646284663F094FB2846214663F0A2FB7D
:1042E000304670BDC942000870B5094D7146284678
:1042F000744663F085FB074B986B03689B6898478F
:1043000021460646284663F08DFB304670BD00BF4F
:10431000E94200089071002070B50A4D2DED028B26
:10432000714606462846744663F06AFB96ED058A98
:104330002846214663F076FBB0EE480ABDEC028BBE
:1043400070BD00BF1943000870B50A4D2DED028BFA
:10435000714606462846744663F052FB96ED068A7F
:104360002846214663F05EFBB0EE480ABDEC028BA6
:1043700070BD00BF4943000870B50A4D2DED028B9A
:10438000714606462846744663F03AFB96ED078A66
:104390002846214663F046FBB0EE480ABDEC028B8E
:1043A00070BD00BF7943000870B5084D71460646E0
:1043B0002846744663F024FB3046FFF785FF0678F5
:1043C0002146284663F02EFB304670BDA943000805
:1043D00070B5084D714606462846744663F010FBDA
:1043E000F01CFFF771FF06782146284663F01AFBA0
:1043F000304670BDD143000870B5064D7446714615
:104400000646284663F0FCFA2846214663F00AFB7C
:10441000304670BDF943000870B5084D7146064638
:104420002846744663F0ECFA3046FFF74DFF0678F5
:104430002146284663F0F6FA304670BD194400085C
:1044400070B5084D064671462846744663F0D8FAA2
:1044500096F836602846C6F34016214663F0E2FA25
:10446000304670BD4144000870B5064D7446714633
:104470000646284663F0C4FA2846214663F0D2FA7D
:10448000304670BD6944000870B5074D0646714658
:104490002846744663F0B4FAB67A2846214663F09B
:1044A000C1FA304670BD00BF8944000838B50A4DD6
:1044B00071462846744663F0A3FA084A0023138025
:1044C000074A1360FFF710FF064B18602146284685
:1044D000BDE8384063F0A6BAAD440008700F002074
:1044E000BC1400209010002070B5064D7446714633
:1044F0000646284663F084FA2846214663F092FA7D
:10450000304670BDE944000870B5104E104C30467E
:104510007146754663F074FA0E4A23681360636847
:104520005360A36893600C4B0B221A700B4B0C4A20
:104530001C682368136063685360A3689360304607
:104540002946BDE8704063F06DBA00BF0945000818
:10455000F0140020785B0020080000209811002053
:104560001019002070B5094D71460646284674465C
:1045700063F046FA06F10800FFF73EFF0688214681
:10458000284663F04FFA304670BD00BF654500080D
:1045900070B571462148754663F032FA204B2148C8
:1045A0001C6B2368DE68FFF78FFE01780139204617
:1045B000C9B2B0476FF46172821892B240F21253DE
:1045C0009A421BD8A0F2CF439BB2812B18D96FF42B
:1045D000AA63C3189BB2812B14D9A0F2D3539BB208
:1045E000812B11D9A0F255639BB2802B0ED940F2DA
:1045F000D564A0428CBF0524002408E0FF2406E017
:10460000012404E0022402E0032400E0042403481F
:10461000294663F007FA204670BD00BF91450008A7
:10462000907100201917002070B5074D064671469D
:104630002846744663F0E4F9044B1E602846214680
:10464000BDE8704063F0EEB9294600083C730020D5
:10465000F8B50C4D2DED028B06460F4628467146E7
:10466000744663F0CDF9382303FB076696ED0D8A97
:104670002846214663F0D6F9B0EE480ABDEC028B1D
:10468000F8BD00BF5146000870B50D4D06462DED32
:10469000028B71462846744663F0B2F996F894107E
:1046A000304601F00301FFF7D3FF2846B0EE408A01
:1046B000214663F0B7F9B0EE480ABDEC028B70BD3D
:1046C00089460008F8B5084D744606460F46284648
:1046D000714663F095F92846214663F0A3F90C234F
:1046E00003FB07604C30F8BDC546000870B50B4EA3
:1046F000044671463046754663F082F923682046C9
:10470000DB6C984701462046FFF7DCFF294604464C
:10471000304663F087F9204670BD00BFED460008C3
:10472000F8B5084D744606460F462846714663F0B4
:1047300067F92846214663F075F90C2303FB0760EF
:104740000430F8BD2147000870B50B4E0446714691
:104750003046754663F054F9236820469B6C9847B1
:1047600001462046FFF7DCFF29460446304663F049
:1047700059F9204670BD00BF4947000870B5064D85
:10478000744671460646284663F03AF928462146A3
:1047900063F048F9304670BD7D470008F8B50A4D12
:1047A00006460F4628467146744663F029F90C23E5
:1047B00003FB07602C30FFF7E1FF21460646284641
:1047C00063F030F93046F8BD9D47000870B50B4ED8
:1047D000044671463046754663F012F92368204658
:1047E0001B69984701462046FFF7D8FF2946044633
:1047F000304663F017F9204670BD00BFCD47000872
:10480000F8B5094D744606460F462846714663F0D2
:10481000F7F82846214663F005F90C2303FB0760EF
:1048200000F5B270F8BD00BF0148000870B50B4E2E
:10483000044671463046754663F0E2F82368204628
:104840001B69984701462046FFF7DAFF29460446D0
:10485000304663F0E7F8204670BD00BF2D480008E1
:10486000F8B5084D744606460F462846714663F073
:10487000C7F82846214663F0D5F80C2303FB0760F0
:104880001030F8BD6148000870B50B4E0446714603
:104890003046754663F0B4F8236820461B69984794
:1048A00001462046FFF7DCFF29460446304663F008
:1048B000B9F8204670BD00BF89480008F8B5094D19
:1048C00006460F4628467146744663F099F830460E
:1048D000B763FFF7C3FC28462146BDE8F84063F004
:1048E000A1B800BFBD480008F8B5094D0F460646FF
:1048F00071462846744663F083F8382303FB076645
:104900002846767F214663F08DF83046F8BD00BF1B
:10491000E948000870B50A4D0646714628467446B7
:1049200063F06EF896F89410304601F00301FFF73B
:10493000DBFF21460646284663F074F8304670BD1A
:1049400015490008F8B5084D744606460F46284636
:10495000714663F055F82846214663F063F8382322
:1049600003FB07602630F8BD4549000870B50A4DC5
:10497000064671462846744663F042F896F894104D
:10498000304601F00301FFF7DDFF214606462846C9
:1049900063F048F8304670BD6D49000870B5084EA8
:1049A000044671463046754663F02AF800233046C7
:1049B000A36063602360294663F034F8204670BD2D
:1049C0009D490008F8B50F46074D064606EBC70699
:1049D00071462846744663F013F836692846214626
:1049E00063F020F83046F8BDC549000870B5084DA1
:1049F000064671462846744663F002F896F89460BD
:104A00002846C6F38106214663F00CF8304670BD97
:104A1000ED49000870B50D4D2DED028B714606462F
:104A20002846744662F0ECFF301DFFF75DFD90ED07
:104A3000008AF6EE007A28EE278A2846214662F0A0
:104A4000F1FFB0EE480ABDEC028B70BD154A0008BC
:104A500070B5714605461448764662F0D1FF134B97
:104A6000DC6A236820465B6929469847431C13D0BB
:104A70002368C5B25B682046294600229847236810
:104A80002046DB68294601229847236820469B6818
:104A900029469847044600E000240348314662F066
:104AA000C1FF204670BD00BF514A00089071002030
:104AB00070B504460E460B487146754662F0A0FF7D
:104AC00094F840300748C3F381039E42B6BF04EB1D
:104AD000C604002494F82C40294662F0A3FF204627
:104AE00070BD00BFB14A000870B50A4D0646714658
:104AF0002846744662F084FF96F84010304601F074
:104B00000301FFF7D5FF21460646284662F08AFFDB
:104B1000304670BDE94A0008F8B50F46074D064615
:104B200006EBC70671462846744662F069FF368D6B
:104B30002846214662F076FF3046F8BD194B000842
:104B4000F8B50A4D06460F4628467146744662F08F
:104B500057FF96F8363067F3451386F83630284607
:104B60002146BDE8F84062F05DBF00BF414B000840
:104B7000F8B50A4D06460F4628467146744662F05F
:104B80003FFF96F8363067F3820386F836302846C2
:104B90002146BDE8F84062F045BF00BF714B0008F8
:104BA00070B5094D71462846744662F029FF074BDF
:104BB000986B0368DB68984721460646284662F0F2
:104BC00031FF304670BD00BFA14B0008907100203E
:104BD000F8B5084D0F46064671462846744662F001
:104BE0000FFF3B78337028462146BDE8F84062F05D
:104BF00019BF00BFD14B0008F8B5084D0F46064657
:104C000071462846744662F0FBFE3B6833602846D6
:104C10002146BDE8F84062F005BF00BFF94B00082F
:104C2000F8B5074D064674460F462846714662F0B1
:104C3000E7FEB78028462146BDE8F84062F0F2BEA4
:104C4000214C0008F8B5084D0F4606467146284627
:104C5000744662F0D5FE3B88338028462146BDE885
:104C6000F84062F0DFBE00BF454C0008F8B5084DC3
:104C70000F46064671462846744662F0C1FE3B6800
:104C8000336028462146BDE8F84062F0CBBE00BF45
:104C90006D4C0008F8B5084E0F4604467146304684
:104CA000754662F0ADFE3B7823703046294662F0CF
:104CB000B9FE2046F8BD00BF954C000870B5094DFF
:104CC000714606462846744662F09AFE064B986B7B
:104CD0000268B1B25268904728462146BDE870404C
:104CE00062F0A0BEBD4C000890710020F8B5084DE0
:104CF000064674460F462846714662F081FE86F8E5
:104D0000287028462146BDE8F84062F08BBE00BFFF
:104D1000ED4C000870B50E4E2DED048B0446B0EE40
:104D2000409AF0EE608AB0EE418A75467146304690
:104D300062F066FE84ED009AC4ED018A84ED028A79
:104D40003046294662F06EFEBDEC048B204670BDF5
:104D5000154D0008F8B5084E0F460446714630461A
:104D6000754662F04DFE3B8823803046294662F04E
:104D700059FE2046F8BD00BF554D00082DE9F04111
:104D80000A4D80460F4628467146744662F038FE4A
:104D90000748066841463A463668B04728462146E5
:104DA00062F040FE0020BDE8F08100BF7D4D0008AC
:104DB0009071002070B5714605461048744662F047
:104DC0001FFEFFF791FA06460D48FFF77DFA90F9AE
:104DD0000030B3EB962F01D2002508E035B9094B1E
:104DE000D86A03681B6A98470028F5D10125034853
:104DF000214662F017FE284670BD00BFB54D000881
:104E00001B15002090710020F8B50746074D0E468F
:104E10003E4471462846744662F0F2FD767B284691
:104E2000214662F0FFFD3046F8BD00BF094E000884
:104E300070B5084D714606462846744662F0E0FD9E
:104E40003046FFF741FA06782146284662F0EAFD2F
:104E500070B270BD314E0008F8B50F46074D0646DA
:104E600006EBC70671462846744662F0C9FDF6682F
:104E70002846214662F0D6FD3046F8BD594E00085E
:104E800070B50A4D064671462846744662F0B8FD74
:104E900096F89410304601F00301FFF7DDFF21463C
:104EA0000646284662F0BEFD304670BD814E0008C1
:104EB000F8B5094D744606460F462846714662F01D
:104EC0009FFD2846214662F0ADFD382307FB0333E2
:104ED000F0180830F8BD00BFB14E000870B50A4D9B
:104EE000064671462846744662F08AFD96F894108C
:104EF000304601F00301FFF7DBFF21460646284656
:104F000062F090FD304670BDDD4E000838B50546B4
:104F100071460848744662F073FDA88B4FF6FF7522
:104F2000A84214BF054600252146024862F07AFDDA
:104F3000284638BD0D4F000838B5064D7446284642
:104F4000714662F05DFD28462146BDE8384062F0BA
:104F500069BD00BF394F0008F8B50F46074D06463A
:104F600006EBC70671462846744662F049FD768D09
:104F70002846214662F056FD3046F8BD594F0008DC
:104F800070B5064D744671460646284662F038FDF7
:104F90002846214662F046FD304670BD814F00082C
:104FA00070B50D46044671462448764662F028FDE9
:104FB000082D3BD804EB45007230FFF7E1FF007885
:104FC00007EE900A082DF8EE677A08D094F864305E
:104FD0000BB9236C1BB1B5EE007A67EE877AF5EE5C
:104FE000C07AF1EE10FA21D9254495F88430D3B96E
:104FF0009FED137A94F88D40F4EE477AF1EE10FAB3
:10500000C8BFF0EE477A87EE277A06EE904AF8EEB0
:10501000E66A012477EE267AFCEEE77A17EE903AFC
:1050200085F8843003E0013B85F884300024034890
:10503000314662F0F7FC204670BD00BFA14F00086A
:105040000000484238B5064D74462846714662F065
:10505000D7FC28462146BDE8384062F0E3BC00BFDB
:105060004550000870B5094D7146064628467446FD
:1050700062F0C6FC06F13700FFF7CCF8067821464F
:10508000284662F0CFFC304670BD00BF6550000876
:1050900038B5714605460A48744662F0B1FC0023F3
:1050A000EA18043300211C2B5160F9D1002385F844
:1050B000203021460248BDE8384062F0B3BC00BF52
:1050C0009150000838B504462DED028B71460F480B
:1050D000B0EE408A754662F093FC94F820200B48AD
:1050E000531CDBB2062B84F8203004EB820288BF0D
:1050F000002382ED018A294688BF84F8203062F0BF
:1051000091FCB0EE480ABDEC028B38BDC5500008DA
:1051100038B5094D71462846744662F071FC074B5C
:10512000074AD86B116803681B68984728462146D0
:1051300062F078FC002038BD115100089071002009
:105140003C5C002070B50D4C064671460C48754617
:1051500062F056FC206803681B6A0EB1094900E042
:10516000094998472068094903681B6A98472946F6
:105170000348BDE8704062F055BC00BF3C5C0020B5
:1051800045510008CEFE09080E620908317409086D
:1051900038B5094D71462846744662F031FC074B1C
:1051A0000749186803681B6A984728462146BDE8E6
:1051B000384062F037BC00BF915100083C5C0020D1
:1051C0003874090870B50B4E044671463046754672
:1051D00062F016FC236820461B699847014620466A
:1051E000FFF712FE29460446304662F01BFC2046BB
:1051F00070BD00BFC551000870B5094D7146064627
:105200002846744662F0FCFB064B986B0268B1B20C
:105210005268904728462146BDE8704062F002BCC3
:10522000F95100089071002070B50A4D064671468C
:105230002846744662F0E4FB96F89410304601F07C
:105240000301FFF7BFFB21460646284662F0EAFB52
:10525000304670BD29520008F8B5094D0F46064684
:1052600071462846744662F0CBFB382307FB0333B4
:105270001E442846B679214662F0D4FB3046F8BD7C
:105280005952000870B50A4D0646714628467446C4
:1052900062F0B6FB96F89410304601F00301FFF778
:1052A000DBFF21460646284662F0BCFB304670BD57
:1052B00085520008F0B5174E044687B03046714657
:1052C000754662F09DFB144B677918682288016867
:1052D000A3780097B4F80370019794F807E0A779D2
:1052E00047EA0E2794F808E047EA0E4747F3170706
:1052F0000297D4F809700397D4F80D4004940C6A0F
:105300000649A0473046294607B0BDE8F04062F0A4
:1053100089BB00BFB55200083C5C00204D740908F1
:1053200070B504460D461A487146764662F068FB31
:1053300023680B2D20D8DFE805F0061F0F130A1F86
:105340001F1F1F1F171B5B691249204602E05B6984
:1053500011492046984714E05B6910492046F9E757
:105360005B690F492046F5E75B690E492046F1E786
:105370005B690D492046EDE71B6A0C4920462A4629
:10538000984731460248BDE8704062F04BBB00BF11
:105390002153000889740908788109089074090864
:1053A00099740908A2740908A7740908AB7409085C
:1053B00038B5094D71462846744662F021FB074B0B
:1053C0000749186803681B6A98472846214662F017
:1053D00029FB002038BD00BFB15300083C5C002011
:1053E000B474090838B5094D71462846744662F010
:1053F00007FB074B986B03680021DB6B9847284637
:10540000214662F00FFB002038BD00BFE5530008C5
:105410009071002070B5114E11487146754662F0CA
:10542000EFFA30680F4903681B6A984700240E4B57
:10543000586A0368A1B25B69002201349847B4F549
:10544000805FF4D13068094903681B6A9847294690
:105450000348BDE8704062F0E5BA00BF3C5C002044
:10546000155400084075090890710020517509080D
:1054700038B5104D10487146744662F0C1FA28687C
:105480000E4903681B6A9847286803681B69984798
:10549000431CF9D020F0200000B2592803D1FFF7B7
:1054A000B9FF002500E0FF250348214662F0BAFA63
:1054B00068B238BD3C5C002071540008577509087B
:1054C00070B5064D744671460646284662F098FA55
:1054D0002846214662F0A6FA304670BDC154000845
:1054E00070B5064D744671460646284662F088FA45
:1054F0002846214662F096FA304670BDE154000815
:105500002DE9FF4BDFF824827C4D7D4C71464046EF
:10551000774662F075FA2E68206833680A30D3F84F
:105520002090FEF769FFB0F90020206802920C304D
:10553000FEF762FFB0F900B02068724C0E30FEF743
:105540005BFFB0F900307049029A009330465B4629
:10555000C8472E68336804F16800D3F82090FEF73E
:105560004BFFB0F90020029204F16A00FEF744FFFD
:10557000B0F900B004F16C00FEF73EFFB0F9003066
:105580006249029A009330465B46614EC847D5F89F
:1055900000903068D9F800300A30D3F820B0FEF718
:1055A0002BFFB0F90020306802920C30FEF724FF88
:1055B000B0F90030306803930E30FEF71DFFB0F9EC
:1055C0000010029A009148465249039BD8472E6822
:1055D000336804F1A800D3F82090FEF70DFFB0F96E
:1055E0000020029204F1AA00FEF706FFB0F900B015
:1055F00004F1AC00FEF700FFB0F900304649029A12
:10560000009330465B46C8472E68336804F1C800F3
:10561000D3F82090FEF7F0FEB0F90020029204F1DA
:10562000CA00FEF7E9FEB0F900B004F1CC00FEF7C5
:10563000E3FEB0F900303949029A009330465B46E8
:10564000C8472E68336804F1E800D3F82090FEF7CD
:10565000D3FEB0F90020029204F1EA00FEF7CCFE7E
:10566000B0F900B004F1EC00FEF7C6FEB0F900306E
:105670002B49029A009330465B46C8472E68336830
:1056800004F58470D3F82090FEF7B6FEB0F9002040
:10569000029204F58570FEF7AFFEB0F900B004F594
:1056A0008670FEF7A9FEB0F90030029A1D490093FA
:1056B00030465B46C8472D682B6804F594701E6A17
:1056C000FEF79AFEB0F900B004F59570FEF794FE6F
:1056D000B0F9009004F59670FEF78EFEB0F9003038
:1056E0000093284610495A464B46B0474046394633
:1056F00004B0BDE8F04B62F095B900BF3C5C0020FF
:1057000048190020FC140020B2750908C575090865
:10571000285C0020D8750908EB750908FE75090892
:10572000117609082476090837760908015500081A
:1057300070B50B4D2DED028B71460646284674461A
:1057400062F05EF93046FFF7CBFE90ED008A21460D
:10575000284662F067F9B0EE480ABDEC028B70BDD6
:105760003157000870B50B4D2DED028B7146064682
:105770002846744662F044F9301DFFF7B1FE90ED03
:10578000008A2146284662F04DF9B0EE480ABDEC89
:10579000028B70BD6557000870B50C4D2DED028B66
:1057A000714606462846744662F02AF906F108005A
:1057B000FFF796FE90ED008A2146284662F032F906
:1057C000B0EE480ABDEC028B70BD00BF99570008CF
:1057D00070B5094D714606462846744662F010F9C8
:1057E00006F10C00FFF7CCFB06882146284662F044
:1057F00019F930B270BD00BFD15700082DE9F04B48
:105800002DED028B214F86B0714604463846764610
:1058100062F0F6F81E4BD3F80080D8F8003020462E
:10582000D3F82090FFF784FF204610EE105AFFF7C0
:1058300099FF2046F0EE408AFFF7AEFF2046B0EE1B
:10584000408AFFF7C5FF834628468FF039FC04469F
:1058500018EE900A0D468FF033FCCDE9000118EEEA
:10586000100A8FF02DFCCDF810B0CDE902012246D0
:10587000404608492B46C8473846314606B0BDEC7D
:10588000028BBDE8F04B62F0CDB800BFFD570008B9
:105890003C5C00204A76090870B5074E0446714604
:1058A0003046754662F0ACF8044B2360304629461A
:1058B00062F0B8F8204670BD99580008586409088D
:1058C000F8B50A4E04460F4630467146754662F0FA
:1058D00097F82046FFF7E0FF054B304684E8880044
:1058E000294662F09FF82046F8BD00BFC158000865
:1058F00068B5090870B51F4C1F487146754662F0BF
:105900007FF8206830F80C6BFEF776FD0388F61AF6
:10591000234636B21868194C642EC8BF0A2230F8E4
:105920000C6BC8BF2270FEF767FD0388F61A36B20B
:105930006436BCBFF623237023785AB2002A02DDF6
:105940000E4A013B137023781A0602D50B4A013325
:10595000137094F90000012805D0B0F1FF3F0CBF8F
:10596000FF24002400E004460348294662F05AF868
:1059700060B270BD48190020F55800082C5C00206A
:1059800038B5094D71462846744662F039F8074B20
:105990000749186803681B6A984728462146BDE8EE
:1059A000384062F03FB800BF815900083C5C0020DD
:1059B0007076090838B571460B48754662F020F8D4
:1059C000FEF792FC094B1B68C01A094B1A680024A9
:1059D000904288BF1C60044888BF0124294662F0B9
:1059E00021F8204638BD00BFB5590008EC1400204E
:1059F000785C002038B571460D48754662F000F8B5
:105A00000C4B0D4A93ED007A0948F8EEC77A92EDF7
:105A1000007AB4EEE77AF1EE10FA4FF0000448BFD6
:105A20001C60294648BF012461F0FCFF204638BDB8
:105A3000F5590008785C0020605E002070B50F4DBD
:105A4000064671462846744661F0DAFFFEF74CFCC4
:105A5000D6F805609FED0A7A0A4B07EE906A67EE6A
:105A6000877A1860FDEEE77A074BC3ED007A284687
:105A70002146BDE8704061F0D5BF00BF3D5A000827
:105A800000007A44EC140020785C002070B50B4DC7
:105A9000064671462846744661F0B2FFD6F80520E6
:105AA000074B07EE902AFDEEE77A2846C3ED007A11
:105AB0002146BDE8704061F0B5BF00BF8D5A0008B7
:105AC000785C0020F7B50C4D06460F462846714617
:105AD000744661F095FF07EE107AF8EE477A02A956
:105AE00061ED017A06F10C00FFF786F828462146A1
:105AF00061F098FF03B0F0BDC55A000870B5074DBE
:105B0000064671462846744661F07AFF3678284684
:105B1000214661F087FF304670BD00BFFD5A000886
:105B200070B5074D064671462846744661F068FF19
:105B300036782846214661F075FF304670BD00BFBB
:105B4000215B000870B5074D06467146284674462D
:105B500061F056FF36782846214661F063FF3046F3
:105B600070BD00BF455B000870B5074D0646714625
:105B70002846744661F044FF36782846214661F095
:105B800051FF304670BD00BF695B000870B5074D1E
:105B9000064671462846744661F032FF367828463C
:105BA000214661F03FFF304670BD00BF8D5B0008AD
:105BB00070B5074D064671462846744661F020FFD1
:105BC00036782846214661F02DFF304670BD00BF73
:105BD000B15B000870B5074D06467146284674460D
:105BE00061F00EFF36782846214661F01BFF3046F3
:105BF00070BD00BFD55B000870B5074D0646714605
:105C00002846744661F0FCFE36782846214661F04D
:105C100009FF304670BD00BFF95B000870B5074D45
:105C2000064671462846744661F0EAFE36782846F4
:105C3000214661F0F7FE304670BD00BF1D5C0008D4
:105C40002DE9F0410E46804671460E4814467546D1
:105C500061F0D6FE0C4B1C800C4B00241E60A7B2DA
:105C60001C2000FB0760FFF749FF01340028F6D134
:105C7000074B04481F70294661F0D4FE4046BDE83A
:105C8000F08100BF415C0008507300204C7300207D
:105C90004873002070B5064D744671460646284686
:105CA00061F0AEFE2846214661F0BCFE304670BD74
:105CB000955C000870B5084E71460446304675463E
:105CC00061F09EFE2046FFF7E5FF3046294661F071
:105CD000A9FE204670BD00BFB55C000870B5084E37
:105CE000714604463046754661F08AFE2046FFF74D
:105CF000D1FF3046294661F095FE204670BD00BFB9
:105D0000DD5C000870B5084E7146044630467546A5
:105D100061F076FE2046FFF7BDFF3046294661F070
:105D200081FE204670BD00BF055D000870B5084EBD
:105D3000714604463046754661F062FE2046FFF724
:105D4000A9FF3046294661F06DFE204670BD00BFB8
:105D50002D5D0008F8B5084E0F46044671463046E2
:105D6000754661F04DFE3B6823603046294661F080
:105D700059FE2046F8BD00BF555D000870B5084EBD
:105D8000714604463046754661F03AFE2046FFF7FC
:105D9000B9FF3046294661F045FE204670BD00BF80
:105DA0007D5D000870B5084E714604463046754664
:105DB00061F026FE04F12400FEF7F0FD304629468E
:105DC00061F030FE204670BDA55D000870B5074E3D
:105DD000044671463046754661F012FE044B23605E
:105DE0003046294661F01EFE204670BDCD5D00089C
:105DF0000864090870B50C4E044671463046754675
:105E000061F0FEFD2046FFF7E1FF084B2360002311
:105E100084F820302046FFF73BF93046294661F0F0
:105E200001FE204670BD00BFF55D0008186409083A
:105E300070B5094E044671463046754661F0E0FD86
:105E40002046FFF7D7FF054B23603046294661F017
:105E5000E9FD204670BD00BF315E000828640908D6
:105E600070B5094E714604463046754661F0C8FD6E
:105E70002046FFF70FFF2046FEF790FD30462946EB
:105E800061F0D0FD204670BD615E000870B5084E1F
:105E9000044671463046754661F0B2FD0023304637
:105EA00063602360294661F0BDFD204670BD00BFE0
:105EB0008D5E000870B50C4E2DED028B0446F0EEA1
:105EC000408AB0EE608A75467146304661F098FDB2
:105ED000C4ED008A84ED018A3046294661F0A2FDB6
:105EE000BDEC028B204670BDB55E000870B50C4E4F
:105EF000044671463046754661F082FD4FF07E5390
:105F00002362236123600023A36063606361E36015
:105F1000E361A36130462946BDE8704061F082BD6F
:105F2000ED5E000870B50C4E71460446304675466D
:105F300061F066FD2046FEF731FD04F10C00FEF72E
:105F40002DFD04F11800FEF729FD3046294661F0C9
:105F500069FD204670BD00BF255F000870B5074E83
:105F6000044671463046754661F04AFD044B236095
:105F70003046294661F056FD204670BD5D5F000841
:105F800068640908F8B5084E04460F463046714665
:105F9000754661F035FD002330462760A380294611
:105FA00061F040FD2046F8BD855F000870B5074EE2
:105FB000044671463046754661F022FD044B23606D
:105FC0003046294661F02EFD204670BDAD5F0008C9
:105FD000A864090870B5094E0446714630467546F6
:105FE00061F00EFD2046FFF7E1FF054B23603046D0
:105FF000294661F017FD204670BD00BFD55F00083F
:1060000030BE090870B5094E0446714630467546E3
:1060100061F0F6FC002330466370A370E3702371D7
:10602000294661F0FFFC204670BD00BF05600008F6
:1060300070B5094E044671463046754661F0E0FC85
:1060400000233046A370E3702371A360294661F0FA
:10605000E9FC204670BD00BF3160000870B50C4EF1
:10606000714604463046754661F0CAFC201DFFF7B4
:10607000B1FF04F11400FFF7C5FF04F11C00FFF7A6
:10608000D7FF3046294661F0CDFC204670BD00BFE9
:106090005D6000082DE9F0410A4E04460F46304687
:1060A00071467546904661F0ABFC00233046237183
:1060B000A760C4F80C80294661F0B4FC2046BDE816
:1060C000F08100BF9560000870B5074D74467146B9
:1060D0000646284661F094FC2846214661F0A2FC61
:1060E00006F19C0070BD00BFC960000870B5074D87
:1060F000744671460646284661F082FC28462146D1
:1061000061F090FC06F50B7070BD00BFED600008FB
:1061100070B5074E044671463046754661F070FC16
:10612000044B23603046294661F07CFC204670BD5C
:1061300011610008D8B4090870B5074E04467146CD
:106140003046754661F05CFC044B236030462946BE
:1061500061F068FC204670BD39610008A899090803
:1061600070B5094E044671463046754661F048FCEC
:10617000064B23602046FFF7DFFF3046294661F0DB
:1061800051FC204670BD00BF61610008189A0908E3
:1061900070B5094E044671463046754661F030FCD4
:1061A000064B23602046FFF7B3FF3046294661F0D7
:1061B00039FC204670BD00BF9161000878B5090820
:1061C00070B5094E044671463046754661F018FCBC
:1061D000064B23602046FFF7C3FF3046294661F097
:1061E00021FC204670BD00BFC1610008889A0908E3
:1061F00070B5094E714604463046754661F000FCA4
:106200002046FFF785FF204661F002FD3046294613
:1062100061F008FC204670BDF161000870B5094EC0
:10622000714604463046754661F0EAFB2046FFF7AA
:1062300083FF204661F0ECFC3046294661F0F2FB1A
:10624000204670BD1D62000870B5094E71460446B7
:106250003046754661F0D4FB2046FFF781FF2046AB
:1062600061F0D6FC3046294661F0DCFB204670BD6B
:106270004962000870B5094E7146044630467546BD
:1062800061F0BEFB2046FFF783FF204661F0C0FCB3
:106290003046294661F0C6FB204670BD7562000895
:1062A00070B5094E714604463046754661F0A8FB4C
:1062B0002046FFF785FF204661F0AAFC30462946BC
:1062C00061F0B0FB204670BDA162000810B57146B8
:1062D00088B01B48744661F093FB1A4B1A49186842
:1062E00003689B6998471948FDF7DAFF00210A46C1
:1062F000174814F00FFF174B03A8996AFFF7E0FA4D
:10630000134803A901AA02AB15F002FD88B19DED67
:10631000010ADDED020A9FED101A05A8FEF7FAFC4E
:106320000A489DED050ADDED060A9DED071A08F005
:10633000D7FA0348214661F075FB002008B010BD74
:10634000CD6200083C5C00208276090850190020CC
:10635000985C00209071002000000000F0B5194DFD
:10636000194E1A4F85B071462846744661F048FBB5
:10637000174B1849186803689B6998473046FDF722
:106380008FFF00210A46384614F0C4FE384615F047
:10639000E5F89FED110A01A8F0EE400AB0EE401AB0
:1063A000FEF7B8FC30469DED010ADDED020A9DEDD9
:1063B000031A08F095FA2846214661F033FB0020C5
:1063C00005B0F0BD5D63000850190020985C002006
:1063D0003C5C0020827609080000000070B50B4D7F
:1063E00071462846744661F00BFB094B09481E783C
:1063F000FDF710FF3146027807480CF089FC28466B
:106400002146BDE8704061F00DBB00BFDD630008B0
:10641000080000201A1500207C5C002070B5714631
:1064200006460B48754661F0EBFA00240948225CE9
:106430001AB1204431463AF049FCCC34B4F5197F06
:10644000F4D129460248BDE8704061F0EBBA00BFC4
:106450001D640008F811002038B5074D7146284624
:10646000744661F0CDFA1B20FFF7D8FF284621467D
:10647000BDE8384061F0D6BA59640008F8B5194D46
:10648000194E1A4F71462846744661F0B9FA3046E3
:10649000FDF78AFF0138C0B23CF0B6FC38603046E8
:1064A000FDF796FF0138C0B23CF0AEFC104E3060F4
:1064B0001048FDF709FF00780138C0B23CF0A4FC99
:1064C0000D4B41F29411186038683CF0F3F93068D4
:1064D00064213CF0EFF928462146BDE8F84061F020
:1064E000A1BA00BF7D6400088D110020481900206A
:1064F000285C002020170020A411002038B5084D8A
:1065000071462846744661F07BFA3CF075F8054800
:106510001BF010FA28462146BDE8384061F082BAE7
:10652000FD640008045B002030B571468BB0104854
:10653000104D744661F064FA01230F482B7038F057
:10654000EBFC00230C480D492B7038F0F9FB0C4B89
:10655000D86B03686946DB68984718B106486946F6
:1065600038F058FC0248214661F05CFA0BB030BDAF
:1065700029650008845B0020740F002095760908C7
:1065800090710020F8B5714606461748754661F0CF
:1065900037FA1648FDF768FF046834401DD0144EE2
:1065A00033780BB1002418E01248FDF749FF30B9E9
:1065B0000E48FDF759FF046814F480340DD00E48DE
:1065C000FDF762FF40B90D4B1F7801242FB93470DD
:1065D000FFF7AAFF377000E001240348294661F065
:1065E00021FA2046F8BD00BF85650008001500208F
:1065F000845B002050190020740F00204C190020EB
:1066000038B5074D71462846744661F0F9F90548DA
:1066100033F062FF28462146BDE8384061F002BAF7
:1066200001660008C45B002010B50A487146744634
:1066300061F0E6F90848FDF747FE90F9003013B124
:1066400006480BF0B9FB21460248BDE8104061F056
:10665000E9B900BF296600081D1500204817002071
:1066600070B50D4E0D4C71463046754661F0C8F957
:106670000B483BF069FE0B4A236813606368536064
:106680000948A36893601AF0AFFD30462946BDE87B
:10669000704061F0C7B900BF61660008F0140020C7
:1066A00028170020785B0020AC11002038B5094D78
:1066B00071462846744661F0A3F907481BF0C2FCF6
:1066C00006480BF037F828462146BDE8384061F00F
:1066D000A9B900BFAD660008045B0020741000205B
:1066E00038B5074D71462846744661F089F905486A
:1066F00036F0ECFD28462146BDE8384061F092B9FD
:10670000E1660008B05B002038B5074D71462846A9
:10671000744661F075F905480AF09CFE284621464A
:10672000BDE8384061F07EB909670008305E00209E
:1067300038B50B487146754661F062F90024094886
:10674000235C1BB1204408493AF066FCCC34B4F514
:10675000197FF4D129460248BDE8384061F062B99A
:1067600031670008F81100206D67000838B57146E0
:1067700004460F4861F044F90E4B9D6B2B68284688
:10678000DB6A0021012298472B6800215B692846BB
:1067900005229847084B20461C60FDF745FF2368FB
:1067A00020461B6C01219847044819F0E5FDFBE7E2
:1067B0006D670008907100203C5C00206010002094
:1067C00038B50A4D71462846744661F019F9084BF0
:1067D0000849186803681B6A9847074819F0CCFDF8
:1067E0002846214661F01EF9002038BDC167000827
:1067F0003C5C0020B5760908045C002038B50A4DE1
:1068000071462846744661F0FBF8084B0849186841
:1068100003681B6A9847074819F0AEFD28462146D1
:1068200061F000F9002038BDFD6700083C5C0020E5
:10683000C17609083019002038B5074D7146284641
:10684000744661F0DDF8054819F096FD28462146AA
:1068500061F0E8F8002038BD39680008EC5A0020E3
:1068600070B5094D094E71462846744661F0C8F866
:10687000304637F02BFD304637F0BEFD2846214626
:10688000BDE8704061F0CEB861680008740F002068
:1068900010B50D487146744661F0B2F80B4B1B7889
:1068A0000A2B07D10A4B1B7823B10A48FDF75AFE81
:1068B000012805D821460448BDE8104061F0B2B86F
:1068C00004481AF033FDF5E791680008080000203D
:1068D0008C110020AC110020E0B5144F144D71460E
:1068E0003846764661F08CF81248134A0368136004
:1068F000436812495360836893602B680B606B6830
:106900004B60AB688B6017F055F90D4BBDEEC00ABC
:10691000384683ED000AB8EEC00A0A4B83ED000A40
:106920003146BDE8E04061F07DB800BFD96800089D
:106930002D5C0020F0140020785B0020101900204E
:10694000185C0020605E0020F8B507460E460E4831
:106950007146754661F054F800240C48225C22B15F
:106960002044394632463AF031FACC34B4F5197F36
:10697000F3D13146064838F0E3F929460248BDE82C
:10698000F84061F04FB800BF49690008F8110020D5
:10699000740F002038B51B487146744661F030F81A
:1069A000194B1B78092B26D91848FDF78DFC90F957
:1069B000003003B31648FDF71FFDB0F90030D3B126
:1069C000144803681B699847134B9B69C01A16F05B
:1069D000CBFF05460E48FDF70FFD642395FBF3F54D
:1069E0002DB2B0F90030002DB8BF6D429D42D4BF2A
:1069F0000025012500E000250248214661F012F83B
:106A0000284638BD9569000808000020FF160020C0
:106A100038150020445C002050190020F8B5214FA3
:106A2000214C224D2DED048B71463846764660F0A0
:106A3000E7FF1F4BDFED1F8A93ED018A2046FDF72C
:106A400053FD9FED1D7AD0ED007A28EE077A95ED83
:106A5000008AA7EE278A204685ED008AFDF744FDCF
:106A600090ED009A2046FDF73FFD29EE689A90EDE3
:106A7000001AF0EE490A21EE281AB0EE480A16F084
:106A8000FDFD0E4B0E481C6885ED000A07F0FEFC6C
:106A9000A080BDEC048B38463146BDE8F84060F07C
:106AA000C1BF00BF1D6A0008341500205810002027
:106AB000645E00200AE81C41610BB63C48190020C6
:106AC000C414002070B5714605461B481B4C764621
:106AD00060F096FF1A4A13682360536863609368F6
:106AE000A3602B6813606B685360AB68154D9360AF
:106AF0002846214617F0D8F848B101201249FFF77F
:106B000023FF2B6823606B686360AB68A3600D484C
:106B10000B4917F04FF80D4B0748BDEEC00A314640
:106B200083ED000AB8EEC00A094B83ED000ABDE808
:106B3000704060F077BF00BFC56A0008785B002036
:106B400010190020F01400208F770908185C00202D
:106B5000605E002070B5084D7146064628467446B2
:106B600060F04EFF701DFFF7ADFF28462146BDE8DF
:106B7000704060F057BF00BF556B000838B5084D36
:106B800071462846744660F03BFF0648064938F0D7
:106B9000F3F928462146BDE8384060F043BF00BF06
:106BA0007D6B0008740F0020C00F002010B50A484C
:106BB0007146744660F024FF08480AF0CBFB802041
:106BC000FFF7E0FC08B1FFF7D9FF21460248BDE816
:106BD000104060F027BF00BFAD6B0008C00F002061
:106BE000F8B50B4F044671463846764660F008FF0C
:106BF00094F89410204601F003010FF005FF0446BD
:106C00000D463846314660F00DFF20462946F8BD56
:106C1000E16B000810B50C487146744660F0F0FE58
:106C20000A480AF069FD4FF48050FFF7ABFC28B129
:106C300007480849084A094B37F0FEFD214602483B
:106C4000BDE8104060F0EEBE156C00087410002026
:106C5000740F00205019002094100020F014002020
:106C60002DE9FF4B2A487146774660F0C9FEFEF7D2
:106C70008FFA4FF47A70FEF7BFFA00246420FEF713
:106C8000BBFA2448244E0CF0CFFB2248FEF7CCFA86
:106C9000A042054627D01F48FEF7C6FA05461D4804
:106CA000FDF764FED6F800808178D8F80030C4780B
:106CB000D3F820904378D0F808B042681548039282
:106CC00043EA012343EA044444F31704642394FB96
:106CD000F3F4FEF7D7FA009401901049039A404666
:106CE0005B46C84704E030680D4903681B6A984753
:106CF000306803689B689847002801DC2C46BDE794
:106D00000348394660F08EFE002004B0BDE8F08BE9
:106D1000616C0008941000203C5C0020A1770908F9
:106D200060790908F8B51C487146764660F068FE3F
:106D30001A480CF079FB00251848FDF757FEECB215
:106D4000844223D21548164F2146FDF73BFE57F8E3
:106D50002430984218D011482146FDF733FE47F8F9
:106D600024000420FFF70EFC70B10E4A0E48917803
:106D70005378D27843EA012343EA02430749224683
:106D800043F3170337F0AEF90135D5E73146024832
:106D9000BDE8F84060F046BE256D00089410002064
:106DA00028190020F0140020740F0020F8B5714657
:106DB0002DED028B07462E48754660F021FE2D48CA
:106DC000FDF782FA90F90030002B48D029482A4C70
:106DD000FDF77AFA90F90000284B08EE100A2068B7
:106DE000D3ED008A0E30FDF707FBB0F90060206894
:106DF0000A30FDF701FBB0F90030DFED217A24689D
:106E0000F31A07EE103A68EEA78AB8EEC88AB8EE11
:106E1000C77A28EE888AB0EEC77A68EE077AF7EE6E
:106E2000006AF4EE667AF1EE10FA48BFF0EE667A88
:106E300006EE907AB8EEE67AB4F9080077EE676A63
:106E400077EE877AFDEEE66AFDEEE77A16EE901AA7
:106E500017EE902A09B212B216F0AEFB2081BDECFB
:106E6000028B29460248BDE8F84060F0DBBD00BF58
:106E7000AD6D0008FD160020285C002004000020F5
:106E80000AD7233C2DE9F041144D154E7146284692
:106E9000744660F0B5FD376812483B68D3F8088047
:106EA000FDF712FA01783846C047306803685B691D
:106EB0009847DFED0D7A20EE270A0021BDEEC00ACB
:106EC000FF2210EE100A00B216F076FB074B187086
:106ED00021462846BDE8F04160F0A4BD856E00085B
:106EE00020190020081500200000484260140020EE
:106EF0002DE9FF4B6E4C6F486F4D7146774660F041
:106F00007FFD23682868B3F8088000213BF056FD18
:106F100001461A203BF080FC684B1A7812F0FD0FF6
:106F200020D16748FDF7D0F906786648FDF7CCF91F
:106F300003789E4216D12E6830463BF031FF3081F7
:106F4000266830463BF02CFF5F4B30811B78DB0717
:106F500040F18380266806F10C00FDF74DFA0388A6
:106F600033817AE028683BF085FF584B1B78002B73
:106F700000F0828026685648B6F80490FDF7A4F920
:106F800090F900B05348FDF79FF9CBF1000B90F951
:106F900000201FFA8BFB0FFA89F00FFA8BF1524297
:106FA00016F00AFB484BB0801B78DA0778D42068CB
:106FB0003F4E3BF05FFF0FFA88F0FFF7F7FE4048C7
:106FC000FDF782F990F90030002B46D028683BF09D
:106FD000FBFD306810EE108A3BF0F6FD10EE100A53
:106FE0008EF06EF8CDE9000140468EF069F800227F
:106FF000394B8EF0B9F8DDE90023CDE902018DF0BF
:1070000001FF8EF093FBDFED357AD5F80080D6F8DE
:10701000009007EE100A67EE277ADDE90001FDEE29
:10702000E77A17EE903AA8F80430DDE902238DF0F4
:10703000E7FE8EF07BFBDFED2A7A07EE100A67EEA3
:10704000277A4046FDEEE77A17EE903AA9F8043029
:107050003BF010FF30683BF00DFF28683BF006FE68
:1070600020683BF003FE3BF0BDFB1248394604B0FC
:10707000BDE8F04B60F0D6BC26681648B6F8049020
:10708000FDF7C8F890F900B01148FDF7C3F81FFAF2
:107090008BFB90F900200FFA8BF10FFA89F07FE754
:1070A000064A1378092B82D8236800229A807EE74B
:1070B000285C0020F16E000848190020080000201C
:1070C000FF160020FE160020F05B0020241900208F
:1070D000FB160020FA1600200000E03F00A08C45BF
:1070E0000000C8422DE9F843294E2A482A4C71462F
:1070F000754660F085FCB06B0368DB689847274BEA
:10710000274A198813888B420746264B04D01180E2
:10711000002220601A7034E022682349821A8A42D1
:1071200084BF012119701B78002B2AD044F62063FC
:107130009A4226D91D4B18683BF032FE80461C4807
:10714000FDF75AF9038843451BD8306B2760036865
:10715000DB6998470024776B306B3B68D3F8149059
:1071600003685FFA84F8DB684146984701340246B9
:1071700041463846C847042CEDD1012001463BF07A
:107180009DFA29460348BDE8F84360F04BBC00BFB8
:1071900090710020E5700008AC5B0020700F0020AB
:1071A000205C002061140020400D0300285C0020BA
:1071B0000A17002030B52DED028B054683B00F482D
:1071C0007146E0357446B0EE408A60F019FC2846FE
:1071D00034F0A4FA48B9BDEEC88A02A918EE102A04
:1071E000284601F8012DFDF7F3FC0448214660F024
:1071F00019FC03B0BDEC028B30BD00BFB5710008B7
:1072000037B5054671460A488DED010A24357446A6
:1072100060F0F6FB284634F081FA18B9284601A937
:10722000FDF7EAFC0248214660F0FCFB03B030BDEC
:107230000172000870B5084D71460646284674462E
:1072400060F0DEFB06F1370034F068FA284621468C
:10725000BDE8704060F0E6BB3572000838B5134DEC
:1072600013487146744660F0CBFB286811490368E7
:107270001B6A9847286803681B699847431CF9D024
:1072800020F0200000B2592808D133F07FFE074BD0
:107290000949186803681B6A9847FEE704482146B5
:1072A00060F0C0FB4FF0FF3038BD00BF3C5C0020F9
:1072B0005D720008CA770908157809082DE9F041C0
:1072C000104E04460F4630467146754660F098FBF6
:1072D000B7F90030B4F90080B8EB030818BF4FF0DD
:1072E000010820463946FDF7ADFC4146204634F002
:1072F00089FD29460446304660F094FB2046BDE8EF
:10730000F08100BFBD720008F7B52848284C7146CF
:10731000754660F075FB34F027F950B920682549AF
:1073200003681B6A9847244B2449986B03689B6B3E
:107330009847234834F0F2F930B12148FDF75CF862
:10734000B0F90030102B22D020681E4903681B6A58
:10735000984733F01BFE02A9102221F8022D18488D
:10736000FFF7ACFF2068184903689B6998471748E6
:10737000B1EE040AFFF71EFFB2EE000A1448FFF751
:107380003FFF0A48294660F04DFB03B0F0BDFDF712
:1073900007FC074634F0AEFA246823681E6AFDF73E
:1073A000FFFB0C49C21B2046B047E0E70973000809
:1073B0003C5C00204E780908907100205D78090837
:1073C000FC1400206B7809088F780908985C00206D
:1073D000445C0020957809082DE9F041104E0446E0
:1073E0000F4630467146754660F00AFB97F900304B
:1073F00094F90080B8EB030818BF4FF0010820464D
:107400003946FDF7E5FB4146204634F0FBFC2946B2
:107410000446304660F006FB2046BDE8F08100BF20
:10742000D97300082DE9F0410F4E04460F4630464F
:107430007146754660F0E4FA3B682168B1EB0308D9
:1074400018BF4FF0010820463946FDF70FFC4146B2
:10745000204634F0D7FC29460446304660F0E2FA74
:107460002046BDE8F08100BF257400082DE9F041F9
:10747000124E04460F4630467146754660F0C0FA1B
:1074800094ED007AD7ED007AB4EE677AF1EE10FA57
:107490000CBF4FF000084FF0010820463946FDF7B9
:1074A000ABFB4146204634F0ADFC2946044630464D
:1074B00060F0B8FA2046BDE8F08100BF6D740008A6
:1074C00038B5074D71462846744660F099FA05486C
:1074D00035F04EFC28462146BDE8384060F0A2BA9F
:1074E000C1740008781400202DE9F04B2DED0A8BB3
:1074F0007F48804E8EB07146774660F081FA7E48B4
:10750000FDF7F2FA20B930687C4903689B69984717
:10751000DFED7B8AFDF73CFEFFF7D2FF0024B0EEE3
:1075200068BAF0EE68CAF0EE68BAB0EE68AAF0EE9B
:1075300068AAB0EE68CAB0EE688A1420FDF75CFE57
:10754000FCF7D2FE002180466B48FDF7E5FA07EE16
:10755000900A00216848B8EE679AFDF7FDFC07EE37
:10756000900AB5EE408AF8EE679AF1EE10FA08BF7D
:10757000B0EE498AB4EEC9CA08BFF0EE69AAF1EECE
:1075800010FAB4EE498AD8BFB0EE49CAF1EE10FA4B
:10759000F4EEE9AA48BFB0EE489AF1EE10FAB4EE64
:1075A00069AA58BFF0EE69AA0121F1EE10FA52481B
:1075B000C8BFF0EE4A9AFDF7AFFA07EE900A012134
:1075C0004D48B8EE67AAFDF7C7FC07EE900AF5EE46
:1075D00040BAB8EE678AF1EE10FA08BFF0EE4ABA88
:1075E000F4EECACA08BFB0EE48BAF1EE10FAF4EEF3
:1075F0004ABAD8BFF0EE4ACAF1EE10FAB4EEC8BAF1
:1076000048BFB0EE6BAAF1EE10FAF4EE488A58BF0C
:10761000B0EE48BAC4EB0803F1EE10FAC8BFB0EE02
:10762000688AC72B4BD919EE100A8DF049FD044624
:107630001CEE100A0D468DF043FDD6F80090D9F8E7
:1076400000B0CDE900011AEE900A8DF039FDCDE9C8
:10765000020119EE900A8DF033FDCDE904011AEE16
:10766000100A8DF02DFDCDE906011CEE900A8DF07B
:1076700027FDCDE908011BEE100A8DF021FDCDE9B3
:107680000A0118EE100A8DF01BFDCDE90C0122460F
:10769000DBF820C01B499FED1A8A48462B46E0477D
:1076A0004446B0EE48BAF0EE48CAB0EE48AAF0EE52
:1076B000489AF0EE48AAB0EE48CAB0EE489A306850
:1076C00003689B689847002808DCF0EE488AF0EED3
:1076D0004ABAB0EE498AB0EE69AA2EE704483946A4
:1076E00060F0A0F900200EB0BDEC0A8BBDE8F08B75
:1076F000E97400083C5C002078140020AA7809088E
:1077000000000000C878090838B50B4D71462846BE
:10771000744660F075F909490120FFF715F908482A
:1077200009F09CF901200749FFF70EF92846214688
:10773000BDE8384060F076B9097700081B79090880
:10774000C00F00203179090838B50C4D7146284624
:10775000744660F055F90A4B1E2118683BF06CFB2B
:10776000084B1E2118683BF067FBFEF7C7FE284652
:107770002146BDE8384060F055B900BF49770008A0
:1077800048190020285C002038B50D4D7146284668
:10779000744660F035F900203BF036FB3BF01AFBF5
:1077A00002203BF031FB3BF015FB3BF09DFA3BF038
:1077B000B5FA28462146BDE8384060F033B900BF2D
:1077C0008977000830B5714685B00546254874466E
:1077D00060F016F924490220FFF7B6F84FF4FA706A
:1077E000FDF76CFA21490220FFF7AEF84FF47A70EA
:1077F000FDF764FA1E48FCF753FD1D480121FDF713
:10780000B7F901211A48FDF771FA1A48FCF75CFD37
:1078100090F9001009B185F001011748002213F01A
:1078200079FCA5B1144813F099FE9FED140A01A844
:10783000F0EE400AB0EE401AFDF76CFA0C489DEDF0
:10784000010ADDED020A9DED031A07F049F8084828
:10785000002108F0F7FD0348214660F0E3F805B089
:1078600030BD00BFC5770008507909086279090862
:10787000501900201C150020985C0020000000001A
:10788000F0B5714687B01A4C1A48754660F0B8F8E2
:107890004FF47A70FDF7B0FC2668174833681F6A0A
:1078A000FCF760FE154902463046B8472068144A86
:1078B000036814491B6AD2F82822984700240E480E
:1078C000FCF750FEE6B286420AD20B48314601AAC6
:1078D00018F0A4FD10B101A8FDF7ECFC0134EEE7AF
:1078E0000448294660F09EF8002007B0F0BD00BFB4
:1078F0003C5C002081780008AC11002091790908D7
:10790000FC1400209F79090870B50F4D8AB07146AC
:1079100006462846744660F073F82822684600211F
:1079200059F01CFE6946304618F0FAFF0748FCF78C
:1079300019FE6A460146064836F0B4FE284621463E
:1079400060F070F80AB070BD09790008AC11002031
:10795000740F00202DE9F04B714690B0394860F06B
:107960004FF83948FCF79CFC37480121FDF700F936
:1079700000210A46354813F0CDFB3348002108F0BA
:1079800061FDFDF705FC4FF47A70FDF735FC00242E
:107990004FF47A712D4815F005F92B4808F006FED2
:1079A0002B48FCF791FC90F900303BB10134E4B274
:1079B000042C03D927480AF025F900242348FCF7B2
:1079C00095FED0F80480D0F808B001681F480E91E9
:1079D000FCF7BAFE204B0E991E6833680F931A4BC2
:1079E0001A690546642092FBF0F95A691B8B92FBD9
:1079F000F0F7B3FBF0F0009008468DF061FBCDE9A5
:107A0000020140468DF05CFBCDE9040158468DF043
:107A100057FBCDE9060128688DF052FBCDE908013E
:107A200068688DF04DFBCDE90A01A8688DF048FB30
:107A3000CDE90C010F9B09491D6A30464A463B4679
:107A4000A847A5E75579000850190020985C002048
:107A50001D150020481700203C5C0020AF79090864
:107A60002DE9F043144D87B006460F46284671466F
:107A70007446904699465FF0C3FF9DF83C308DF800
:107A8000133003230E998DF81430322303910093A1
:107A9000304603AA092300218DF810708DF811805B
:107AA0008DF812903AF0CCF9284621465FF0BAFFE3
:107AB00007B0BDE8F08300BF617A00082DE9F3410B
:107AC000804671461E4877465FF09AFF1D4B1D7831
:107AD0001D4B1B7B002B14BF05260426102D0ED832
:107AE000DFE805F0090D0909110D0D0D0D0D0B0B4A
:107AF0000D0D0D0B2700402402E0082400E00124B6
:107B0000102D02D105E0002601241048FCF798FC56
:107B100090B940468DE860000A21032244F0010339
:107B2000FFF79EFF0648394602B0BDE8F0415FF01E
:107B300079BF02260124ECE744F08004E9E700BFA6
:107B4000BD7A000808000020F05B002050190020DA
:107B50002DE9F043234D8BB007460E46284671466B
:107B60007446904699465FF04BFFBDF84830ADF83B
:107B70001430BDF84C30ADF81630BDF95030ADF8CA
:107B80001830BDF85830ADF81A30BDF85C30ADF89B
:107B90001C30BDF86030ADF81E30BDF86430ADF873
:107BA0002030BDF86830ADF82230BDF86C30ADF84B
:107BB00024309DF954308DF826307C2300933846CC
:107BC00002AA1F2301210296CDF80C80CDF8109057
:107BD0003AF036F9284621465FF024FF0BB0BDE8A5
:107BE000F08300BF517B0008F0B52DED068B194DD9
:107BF0008BB007460E46284671467446F0EE40AA02
:107C0000B0EE60AAF0EE419AB0EE619AF0EE428AD0
:107C1000B0EE628A5FF0F4FE27230093384603AA91
:107C20001C231E210396CDED04AA8DED05AACDEDF2
:107C3000069A8DED079ACDED088A8DED098A3AF006
:107C4000FFF8284621465FF0EDFE0BB0BDEC068B39
:107C5000F0BD00BFE97B00082DE9F043194D8BB062
:107C600007460E46284671467446904699465FF090
:107C7000C7FE129B0693139B0793BDF95030ADF8D6
:107C80002030BDF95430ADF82230BDF95830ADF890
:107C90002430BDF85C30ADF82630682300933846B8
:107CA00003AA1C2321210396CDF81080CDF814904F
:107CB0003AF0C6F8284621465FF0B4FE0BB0BDE8A6
:107CC000F08300BF597C00082DE9F04B714688B065
:107CD0008146384877465FF093FE3748FCF71AFE36
:107CE000012803D93448FDF7CBF801E0FCF7FCFA92
:107CF00080463148314CFDF7F1F86268D4F808B09D
:107D0000079205462C48FCF731FE81784378DFED79
:107D10002C7A079A43EA0123C17843EA014343F3EB
:107D200017030A214B4300936378A07843EA0020AD
:107D3000E37840EA0340234B1C68A6786378E47834
:107D400043EA062343EA044340F3170043F31703CF
:107D5000C31A5943019195ED007A27EE277A4846D8
:107D6000BDEEC77A414617EE103A1BB2029395ED6D
:107D7000017A67EE277AFDEEE77A17EE903A1BB2AA
:107D8000039395ED027ADFED107A67EE277AFDEE28
:107D9000E77A17EE903A1BB204930C4B1B8B0593BA
:107DA0005B46FFF759FF0348394608B0BDE8F04B82
:107DB0005FF038BEC97C000894100020F014002049
:107DC0000000C842981100200000C8C250190020CD
:107DD0002DE9F0432DED068B1A4D8BB006460F466C
:107DE000284671467446B0EE40AAF0EE609AB0EEB6
:107DF000419AF0EE618AB0EE428A904699465FF071
:107E0000FFFDB7230093304603AA1A233E218DEDD0
:107E100003AACDED049A8DED059ACDED068A8DED80
:107E2000078AADF82070ADF82280ADF824903AF0C2
:107E300007F8284621465FF0F5FD0BB0BDEC068B38
:107E4000BDE8F083D17D00082DE9F04B2F4E304C7A
:107E50002DED048B71468046304675465FF0D0FDAF
:107E60002C4B2D4893ED009AFCF70EFC2B48B0EEFE
:107E7000408AFCF73BFC2368D0ED028A9B682046D1
:107E80009847236883461B6920469847244B2268FD
:107E9000D3ED007A234BFCEEE77A68EE288A814620
:107EA00093ED008A5369204617EE907A984706EEC4
:107EB00090BADFED1D7A9FED1D1AB8EEE67A06EE58
:107EC000909A27EE277ABFB2BDEEC77A404617EEEA
:107ED000101AB8EEE67AB0EE402A67EE277AB0EED6
:107EE000490AFDEEE77AF0EE680A17EE902A09B229
:107EF0003B46F0EE481A12B2FFF76AFFBDEC048B66
:107F000030462946BDE8F04B5FF08CBD497E000845
:107F1000445C00205810002094100020985C002041
:107F2000605E00205C1400200AD7233C00000000A3
:107F30002DE9F0431D4D89B007460E46284671468F
:107F40007446904699465FF05BFDBDF84030ADF851
:107F50000E30BDF84430ADF81030BDF84830ADF803
:107F60001230BDF84C30ADF81430BDF85030ADF8DB
:107F70001630BDF85430ADF81830BDF85830ADF8B3
:107F80001A30DE230093384602AA152324210296D4
:107F9000ADF80C908DF81C8039F052FF2846214630
:107FA0005FF040FD09B0BDE8F08300BF317F0008FD
:107FB0002DE9F04B2A4E8EB0714683463046754609
:107FC0005FF01EFDFCF7ECFD264B5C6B23688146E1
:107FD000DB6920460021984723688046DB692046FC
:107FE0000121984721680A90CF6920460221B847AD
:107FF00021680B90CF6920460321B84721680C9077
:10800000CF6920460421B84721680D90CF692046EA
:108010000521B84721680246CF690992204606210A
:10802000B84721680746CB692046072198470A9B35
:1080300000930B9B01930C9B099A02930D9B039356
:108040000492069049465846059700224346FFF79A
:108050006FFF304629460EB0BDE8F04B5FF0E2BC42
:10806000B17F0008907100202DE9F0412DED048BC7
:10807000164D88B006460F46284671467446F0EE07
:10808000409AB0EE609AF0EE418AB0EE618A904676
:108090005FF0B6FC14230093304603AA4A21CDEDCD
:1080A000039A8DED049ACDED058A8DED068AADF823
:1080B0001C70ADF81E8039F0C3FE284621465FF0E3
:1080C000B1FC08B0BDEC048BBDE8F081698000080C
:1080D0002DE9F0412E4D2F4E2DED028B71460746B6
:1080E000284674465FF08CFC3046FCF7CDFA3046EB
:1080F000F0EE408AFCF7C8FA274B9A69642392FB9A
:10810000F3F24FF4B47392FBF3F803FB1828234BFC
:108110001868B0EE408A3AF057FD214BDFED217A26
:108120005A789878DB78B0EEC00A20EE270A42EA47
:108130000020BCEEC00A40EA034040F3170010EEF6
:10814000106A8CF0ABFF10A3D3E900238DF00CF87C
:108150008DF0ECFA1FFA88F80FFA88F8B6B24146AB
:1081600001EE100AB0EE680A3846F0EE480A3246D0
:10817000DFED0D1AFFF778FFBDEC028B2846214694
:10818000BDE8F0415FF04EBC7B14AE47E17A843F1E
:10819000D18000089410002050190020285C002095
:1081A000F01400200000C84200000000AFF300807F
:1081B000F0B50C4D85B006460F462846714674460C
:1081C0005FF01EFC04AA1C2322F8047D30460093B5
:1081D0002A21022339F034FE284621465FF022FC92
:1081E00005B0F0BDB1810008F0B50C4D85B0064674
:1081F0000F462846714674465FF002FC04AA1C2311
:1082000022F8047D304600932A21022339F018FE1B
:10821000284621465FF006FC05B0F0BDE981000864
:1082200070B50A4D71460646284674465FF0E8FB75
:108230000748FCF76BFE01463046FFF7B9FF2846BA
:108240002146BDE870405FF0EDBB00BF2182000811
:10825000AC1100202DE9FF410D4D06460F46284682
:108260007146744690465FF0CBFB15230093304671
:1082700003AA0323A521ADF80C708DF80E8039F008
:10828000DFFD284621465FF0CDFB04B0BDE8F0815C
:1082900055820008F8B5144D144E2DED028B714631
:1082A0000746284674465FF0ABFB306A0268926866
:1082B0009047B0690268926AB0EE408A9047DFED5D
:1082C0000C7A28EE278A0246BCEEC88A384618EE99
:1082D000101A89B2FFF7BEFFBDEC028B284621467B
:1082E000BDE8F8405FF09EBB9582000890710020C9
:1082F00000007A4470B52DED028B104D84B07146AC
:10830000064628467446F0EE408AB0EE608A5FF07A
:1083100077FB53230093304602AA0823AD21CDED0D
:10832000028A8DED038A39F08BFD284621465FF0E5
:1083300079FB04B0BDEC028B70BD00BFF582000874
:1083400070B571462DED048B06462A4874465FF0E1
:1083500057FB2948FCF7C8FB002843D02648DFED2F
:10836000278A0121FCF7A4FB054623484DB929467D
:10837000FCF7D2FB07EE900A2946B8EE678A1E4842
:1083800021E00021FCF7C8FB07EE900A01211A4802
:10839000B8EE679AFCF7C0FB07EE900AB8EE678A62
:1083A0001548B4EEC89AF1EE10FA0BD80021FCF78C
:1083B000D3FD07EE900AF8EEE70AB0EE498A60EEC8
:1083C000A80A08E00121FCF7C7FD07EE900AF8EEC5
:1083D000E70A60EEA80A9FED0A0A304628EE000A76
:1083E000FFF788FFBDEC048B21460248BDE87040D2
:1083F0005FF018BB41830008781400206F12833AA5
:108400000AD7233C2DE9F7430E4E04460F4630466B
:1084100071467546904699465FF0F2FA8F230093B5
:108420003846A4F8008084F802904D2122460323A8
:1084300039F006FD3046294603B0BDE8F0435FF051
:10844000F1BA00BF058400082DE9F04B2DED028B39
:1084500071468AB08146534877465FF0D1FA524858
:10846000FBF732FF514B90F90060514A5148002E02
:1084700014BF16461E46FCF74DFA08B146F020061A
:108480004D4B1B78023BDBB20D2B26F45C450CD820
:10849000012202FA03F313F40C5F04D19B0704D00A
:1084A00045F4406501E045F45C453F48FBF70CFFAF
:1084B00090F90030002B72D040480021FCF7A4FC5A
:1084C00000286CD03E4807F093FF002867D0384C56
:1084D0003848FCF71FFA02283A4888BF44F02004C5
:1084E00014F036F808B924F00304354808F05CFAB3
:1084F00008B924F400143448FCF79AFC042812D17B
:10850000314809F03BF85FFA80F82F48FBF71CFF71
:10851000DFED2E7A20EE270ABDEEC00A10EE10BA6B
:108520001FFA8BFB03E04FF0FF084FF6FF7B44F68A
:108530002061274834F000FE2348B0EE408AFBF764
:10854000EBFEDFED247A28EE278A20EE270ABCEE28
:10855000C88ABCEEC00A18EE103A9BB2009310EE27
:10856000103A9BB201930FFA8BF302934FFA88F300
:1085700003930023049305930693079308930993A9
:10858000484631462A462346FFF7E2FA054839466F
:108590000AB0BDEC028BBDE8F04B5FF043BA034C70
:1085A00096E700BF498400081D15002003DC200069
:1085B00007DC20009410002008000020481700204D
:1085C00050190020985C0020305E00200000C84256
:1085D0008C5B002000007A44F8B5164E164C2DED49
:1085E000048B71460746304675465FF009FA20460F
:1085F00007F088FF90ED009AD0ED018A90ED028A95
:10860000FBF772FE94ED010AD4ED020A94ED031A11
:108610000146F0EE491A3846B0EE682AF0EE482AD4
:10862000FFF7E2FABDEC048B30462946BDE8F8407E
:108630005FF0F8B9D985000850190020F8B5064652
:108640000C4617460948714675465FF0D9F9304621
:1086500021463A4614B958F081FF01E05FF006F870
:1086600029460248BDE8F8405FF0DCB93D860008C5
:10867000F8B506460C4617460948714675465FF040
:10868000BFF9304621463A4614B958F067FF01E079
:108690005EF0ECFF29460248BDE8F8405FF0C2B941
:1086A00071860008F8B506460C461746094871461B
:1086B00075465FF0A5F9304621463A4614B958F0A0
:1086C0004DFF01E05EF0D2FF29460248BDE8F840C8
:1086D0005FF0A8B9A58600082DE9F043104E91B0CF
:1086E00010AC9146074688463046714675465FF0A5
:1086F00087F904F8348D0DF10D0049463222FFF759
:108700009DFF53230093384622463323FD2139F041
:1087100097FB304629465FF085F911B0BDE8F0833C
:10872000D98600082DE9F043104E91B010AC914667
:10873000074688463046714675465FF061F904F891
:10874000348D0DF10D0049463222FFF791FF53237E
:108750000093384622463323FD2139F071FB304621
:1087600029465FF05FF911B0BDE8F0832587000866
:108770002DE9F043104E91B010AC91460746884663
:108780003046714675465FF03BF904F8348D0DF1C3
:108790000D0049463222FFF785FF532300933846E8
:1087A00022463323FD2139F04BFB304629465FF04A
:1087B00039F911B0BDE8F0837187000870B50B4D31
:1087C00006467146284674465FF01AF9CC230849DC
:1087D00073430833CA183046C95C0132FFF77CFF87
:1087E00028462146BDE870405FF01CB9BD870008EF
:1087F000F81100202DE9F04105460F4695487146D5
:10880000F0465FF0FDF895F8560039F073FA064629
:1088100095F85600FCF7CEFA08B1002413E18E4B10
:108820001C784CB98D4834F067FCB0F5966F03D2D4
:108830008B4B01221A7006E1192F00F20381DFE849
:1088400017F01A0047004E002D003C005500B500FF
:10885000900088007A0098000101A60061006D0078
:108860000101C900BD00D50001010101DD00EA00E0
:10887000F2000101FA00102ECFD97A4B95F856403C
:10888000986B03689B689847774BCC2202FB0434B3
:10889000E06395F85600FFF711F9D3E0262EBCD916
:1088A00095F85600FFF7D0FD95F856206E4BCC207A
:1088B00000FB023036F0E6FFC4E00B2EADD995F890
:1088C0005620694BCC2000FB023037F025F9B9E087
:1088D000232EA2D995F85600FFF77EFEB2E0232E94
:1088E0009BD995F85600FFF7EFF9ABE05F4B1B788B
:1088F000002B00F0A780212E8FD995F85600FFF7A6
:10890000A3FA9FE0252E88D995F85620564B584952
:10891000CC2000FB023038F021FC93E0132E7FF6D0
:108920007CAF95F85620504B5149CC2000FB0230CB
:1089300038F06CFC86E01D2E7FF66FAF95F8562060
:10894000494BCC2000FB02304A4B197837F09EFC93
:1089500078E01C2E7FF661AF95F85600FFF728FBF4
:1089600070E01B2E7FF659AF95F85600FFF7B0FB6D
:1089700068E0212E7FF651AF95F856203A4B3E49DC
:10898000CC2000FB02303D4A37F0AAFA5AE0312EE3
:108990007FF643AF95F85620334B3749CC2000FB88
:1089A0000230364A364B38F09BFD4BE0092E7FF6FD
:1089B00034AF95F85600FFF733FC43E0202E7FF6E6
:1089C0002CAF95F85620284BCC2000FB023038F015
:1089D00045FC37E00B2E7FF620AF95F85620224B52
:1089E000CC2000FB023037F055F82BE03A2E7FF612
:1089F00014AF95F85600FFF7E1FE23E0232E7FF633
:108A00000CAF95F85620184B1E49CC2000FB0230C5
:108A100037F0FEFB16E0332E7FF6FFAE95F85600DA
:108A2000FCF78AFA0EE00A2E7FF6F7AE95F85600AC
:108A3000FFF730FC06E00F2E7FF6EFAE95F85600FC
:108A4000FFF77EFC0124034841465EF0EBFF204621
:108A5000BDE8F081F5870008845B00208C5B002076
:108A60004419002090710020F81100200800002017
:108A70009410002060140020985C0020481700200B
:108A8000C00F00205019002070B505460E460B4857
:108A9000714674465EF0B4FF05F10803324628358E
:108AA00053F8041B42F8041BAB42F9D11B78137036
:108AB00021460248BDE870405EF0B4BF898A0008D4
:108AC000F8B50A4D0E4607467146284674465EF0D4
:108AD00097FF3B46284653F8082F32609B88B380A7
:108AE0002146BDE8F8405EF09DBF00BFC18A000886
:108AF00070B505460E460B48714674465EF080FF21
:108B000005F108033246183553F8041B42F8041BDC
:108B1000AB42F9D11B88138021460248BDE8704062
:108B20005EF080BFF18A00082DE9F34104467146EA
:108B30005D485E4D76465EF063FF00232B705C4B14
:108B40001A7898461AB920465A4938F0C1FE236C63
:108B5000C3B104F182073846FCF712FAB0F90030CD
:108B6000002B06DC02A90A2321F8023D3846FCF757
:108B700069F820460821FCF713FA18B120461121A4
:108B800038F0A4F82B78002B40F0868098F800107D
:108B9000002940F081802046FCF702FA38B12046D7
:108BA0000A2138F093F820460C2138F08FF82B7802
:108BB000002B71D120460121FCF7F2F998B1204633
:108BC000032138F083F82046042138F07FF820464E
:108BD000062138F07BF820460D2138F077F8204642
:108BE000052138F073F82B78002B55D1204604214D
:108BF000FCF7D6F918B12046022138F067F82B7837
:108C0000002B49D120460321FCF7CAF918B12046B0
:108C10000F2138F05BF82B78002B3DD12046022144
:108C2000FCF7BEF938B12046082138F04FF820464D
:108C3000092138F04BF82B7873BB20460521FCF74F
:108C4000AFF938B12046012138F040F8204616210E
:108C500038F03CF82B78FBB920460621FCF7A0F948
:108C600018B12046072138F031F82B78A3B92046F7
:108C70000721FCF795F978B12046152138F026F840
:108C80002046172138F022F82046192138F01EF826
:108C900020460E2138F01AF8034831465EF0C2FE35
:108CA00002B0BDE8F08100BF298B00084419002004
:108CB000845B0020740F002038B50B487146754660
:108CC0005EF09EFE00240948235C13B12044FFF7A8
:108CD0002BFFCC34B4F5197FF5D129460248BDE805
:108CE00038405EF09FBE00BFB98C0008F81100202C
:108CF000F0B5134D87B007460E46284671467446B8
:108D0000019200935EF07CFE019A009B07EE902A90
:108D1000B8EEE70A07EE903AF8EEE70ADDED0C7AD6
:108D200003A8B8EEE71AFBF7F5FF3846314603AA69
:108D300009F080F9284621465EF074FE07B0F0BDC8
:108D4000F18C00080FB4F0B585B00AAD224C234871
:108D500055F8046B714677465EF052FE012323728C
:108D60001F4B009504F109013222D86B039533465D
:108D70000EF0C4F804F109011A4836F04BF8204609
:108D8000122137F0A3FF04F1CC0504F519742B78F8
:108D9000ABB1154A05F1080302F1300E164603CEB9
:108DA000764518605960324603F10803F6D13188E0
:108DB000B2789A7019802846122137F087FFCC3597
:108DC000A542E4D1054839465EF02CFE05B0BDE869
:108DD000F04004B0704700BFF8110020458D000836
:108DE00090710020740F00200012002038B51C483C
:108DF0002DED028B714675465EF002FE194B1A4846
:108E000093ED008AFBF770FBD0ED007AB4EEE78AB1
:108E1000F1EE10FA07D801201449FDF795FD144B27
:108E200001241C7013E013481349144A14F03CFF4A
:108E300060B11048114914F0BDFEBCEEC00A1048E4
:108E400010EE101AFFF77EFF012400E004460448EC
:108E500029465EF0E7FDBDEC028B204638BD00BF21
:108E6000ED8D0008605E002024170020F2790908CB
:108E70009C110020F0140020785B002010190020C5
:108E8000FF790908F8B540482DED028B7146774609
:108E90005EF0B6FD3D4B1B780A2B01D001246AE041
:108EA0003B4E33783546A3B13A48FBF70DFA90F9BB
:108EB000003001330DD03748FBF706FA0078FBF796
:108EC000C7FD012805D134490024FDF73DFD34706C
:108ED00051E02B78002BE1D12E48FBF7F5F990F902
:108EE000003001330DD12D48FBF7FEFAD0ED007AAA
:108EF000F5EE407AF1EE10FA03D1254B01241C70F7
:108F000039E02448FBF7E0F990F9003001330DD047
:108F10002048FBF7D9F90078FBF79AFD30B901201A
:108F20001F49FDF711FD01242C7024E01B48FBF7BD
:108F3000DBFAD0ED007AF5EE407AF1EE10FA0ED0C1
:108F40001848FBF701FC90ED008A1448FBF7CCFAB7
:108F5000D0ED007AB4EEE78AF1EE10FA01DA0024DF
:108F600009E018EE100A8CF0ABF802460B460E48EA
:108F7000FFF7E8FED7E7044839465EF053FDBDEC45
:108F8000028B2046F8BD00BF858E00080800002037
:108F9000C11400202D150020307A0908301500205A
:108FA000437A0908985C0020157A090870B5714663
:108FB0002DED028B05461D4876465EF021FD1C4BCB
:108FC00093ED008AB5EEC08AF1EE10FA09DD19487A
:108FD000FBF78AFAD0ED007AB4EEE78AF1EE10FAE8
:108FE0000ED915481549164A14F05EFE30B11248E4
:108FF00013492C8814F0DEFD124807E004460DE00A
:109000000D480F492C8814F0D5FD0F48BCEEC00A5E
:10901000214610EE102AFFF795FE01240348314641
:109020005EF000FDBDEC028B204670BDAD8F0008E8
:10903000605E002024170020F0140020785B0020E0
:10904000101900205B7A0908787A090838B571464A
:109050000446164875465EF0D3FC154B1B780A2B68
:109060001DD1A378142B0DD005D8102B11D120467B
:10907000FFF79CFF0BE0702B07D0722B09D1FCF798
:10908000B9FC04E0FFF7B2FE01E0FCF793FC0446F4
:1090900006E09F2B03D803200649FDF755FC012469
:1090A000024829465EF0BEFC204638BD4D900008BF
:1090B00008000020967A090837B50446714624480E
:1090C00075465EF09DFCB4F80330CBB9D4F80620A9
:1090D00007EE902AF5EEC07AF1EE10FA10DD02A943
:1090E0001C4841F8042DFBF787FD1A48FCF7F8F9F6
:1090F00000688BF0E5FF02460B461748FFF722FE9B
:10910000D4F80A4007EE904AF5EEC07AF1EE10FA74
:1091100018DD9FED127AF4EEC77AF1EE10FA11D84D
:10912000FDEEE77A02A917EE902A0D4801F8042D0A
:10913000FBF74EFD0A48FBF76DF890F9001009485F
:10914000FFF700FE024829465EF06CFC03B030BD1C
:10915000B990000820150020BB7A09080000C84219
:10916000FC160020D27A090870B50C487146754685
:109170005EF046FC28240A4E0A49306803681B6AE0
:109180009847013CF7D1306807493AF083F92946FE
:109190000248BDE870405EF045BC00BF6991000820
:1091A0003C5C00208CF10908D596090838B5714659
:1091B0000446094875465EF023FC002C06DD074B8B
:1091C00007491868013C3AF065F9F6E72946024874
:1091D000BDE838405EF026BCAD9100083C5C002044
:1091E000D59609082DE9F043364C3748714685B0CD
:1091F00077465EF005FC2068344903681B6A98478F
:10920000334BB3F90430022B0DD0032B06D0012BC6
:109210000ED120682F4903689B690DE020682E4914
:1092200003689B6908E020682C4903689B6903E098
:1092300020682B4903689B699847FFF795FF2948E9
:10924000FBF742F890F90000003018BF0120FBF74F
:1092500079FF25681E482B681E6A08F021FE14F06D
:10926000DDF910EE100A8BF02BFF02460B46284664
:109270001D49B0471648FBF7A9FA06460068D4F81E
:1092800000808BF01DFF04467068D8F800900D46F2
:109290008BF016FFCDE90001B0688BF011FFCDE92E
:1092A0000201224640461149D9F820602B46B047BA
:1092B0000220FFF77BFF0448394605B0BDE8F043C4
:1092C0005EF0B0BB3C5C0020E5910008E87A09083C
:1092D00048170020037B0908F27A0908FB7A09087D
:1092E000077B09081D1500200A7B0908227B090855
:1092F0002DE9F04B2DED028B7148724D9CB07146FB
:1093000076465EF07DFB7048FAF7DEFF90F900408C
:1093100044B928686D4903681B6A98472046FBF7E3
:1093200011FFC2E06A4808F0C3FB28B92868694900
:1093300003689B699847B8E067489FED688AFAF729
:10934000AFFF65480121FBF713FC63486049FBF759
:10935000B5FAFFF747FF00210A46614811F0DAFE2F
:109360005D48002107F06EF8FBF712FF0024A046CD
:109370004FF47A715A48013413F014FCE4B25648A1
:1093800007F014F9042C1AD9514808F03BFCA8B195
:10939000514807F0D3F807460FCF13AC0FC40FCFD7
:1093A0000FC44B483B68236013A908F0C9FE484826
:1093B000B0EE408A002408F04FFF00E0044608F1B8
:1093C0000108B8F1140F60DD4148FBF7FBFE0746CA
:1093D000002854D03E48FBF7F9F90368D0F804B0F0
:1093E000D0F808903A480D93FBF74EFA2F68826840
:1093F000D0F804C001683868B0EE480A006A1190DD
:109400000E92CDF83CC0109114F008F9DFED357ADA
:1094100020EE270A4FF06408BDEEC00A10EE100AD5
:1094200014F076FA109990FBF8F808468BF048FE95
:10943000DDF83CC0CDE9000160468BF041FE0E9A9C
:10944000CDE9020110468BF03BFE0D9BCDE90401F6
:1094500018468BF035FECDE9060158468BF030FEFC
:10946000CDE9080148468BF02BFE4246CDE90A01C2
:10947000119B1D49384698474FF0000805E02868C1
:109480001A4903689B699847B846286803689B682F
:10949000984700287FF76CAF0A4B15491868036896
:1094A0009B6998470A4808F0E3FD054831465EF09D
:1094B000B9FA00201CB0BDEC028BBDE8F08B00BFF8
:1094C000F19200083C5C00201D150020E87A090894
:1094D00048170020447B09085019002000000000B4
:1094E000985C00200000C842637B0908A57B09083E
:1094F000B97B090838B50C4D7146284674465EF0B4
:109500007FFA0A4B0A49186803681B6A9847FFF7F5
:109510002BFEFBF7F5FF0220FFF748FE2846214609
:10952000BDE838405EF07EBAF59400083C5C00204F
:10953000C87B090838B5194C1948714675465EF064
:109540005FFA2068174903681B6A9847FFF70CFE0B
:109550001548FBF76DFC20B92068144903681B6AA5
:1095600098471148FBF764FC032804D12068104990
:1095700003681B6A98470C48FBF75AFC042804D17F
:1095800020680C4903681B6A98470220FFF70EFE0B
:1095900029460348BDE838405EF044BA3C5C0020F0
:1095A00035950008CF7B0908305E0020DD7B090877
:1095B000F67B09080C7C090870B50F4D0F4E7146FB
:1095C000284674465EF01CFA30680D4903681B6A31
:1095D0009847FFF7C9FD30680A4903681B6A984736
:1095E0000948FCF70BF90220FFF7E0FD2846214669
:1095F000BDE870405EF016BAB99500083C5C0020EA
:10960000297C0908307C0908281700202DE9F04B37
:10961000234E244C86B07146304675465EF0F0F914
:109620002068214903681B6A9847FFF79DFD27685A
:109630001E4C3B6804F5FF70D3F82080FAF744FE17
:1096400090F900B004F2FF10FAF73EFE90F9009096
:1096500004F50070FAF738FE90F90020049204F542
:109660000370FAF731FE90F90030059304F20E20F2
:10967000FAF7C2FE049A059B00920193B0F90030FC
:10968000029338460A495A464B46C0470220FFF724
:109690008DFD3046294606B0BDE8F04B5EF0C2B9FC
:1096A0000D9600083C5C0020417C0908FC14002059
:1096B0004B7C0908F8B5714619481A4C75465EF09E
:1096C0009FF9FBF765FD4FF47A70FBF795FD206875
:1096D000154903681B6A9847206808210A2239F057
:1096E00071FF26461420114FFBF786FDFAF750FF55
:1096F0003B788342044606D030680D490368224611
:109700001B6A98473C70306803689B68984700283C
:10971000E8DD034829465EF085F90020F8BD00BF6A
:10972000B59600083C5C00208F7C0908621400207C
:109730009B7C090838B51C48714675465EF060F997
:10974000FBF726FD4FF47A70FBF756FD174C1849CE
:10975000206803681B6A98470021164833F036FBDF
:1097600040F6B830FBF748FD206803689B689847CF
:10977000002812DC2068104903681B6A9847002102
:109780000C4833F059FB40F6B830FBF735FD206844
:1097900003689B6898470028D8DD034829465EF097
:1097A00041F9002038BD00BF359700083C5C00201F
:1097B000A87C09081C5C0020B27C09082DE9F8434C
:1097C0000D4E0E4C814688463046714675465EF019
:1097D00017F920680A4907684A463F6AB847414670
:1097E0002068FBF79DFD206839F008FE30462946C9
:1097F000BDE8F8435EF016B9BD9700083C5C002058
:10980000BD7C090838B57146104875465EF0F8F819
:109810000F4B1049186803681B6A9847FFF7A4FCB0
:1098200000240D482044FAF74FFD0178E0B20134DE
:10983000FFF7C4FF062CF4D10220FFF7B7FC29463E
:109840000248BDE838405EF0EDB800BF059800085A
:109850003C5C0020C67C09081A1700202DE9F34B58
:1098600029487146F0465EF0CBF8FBF791FC4FF4C7
:109870007A70FBF7C1FC254C1420FBF7BDFC206B74
:1098800003685B689847A146214C00282DD02068CA
:10989000204939F0E9FD0025D9F83060D4F800B04E
:1098A0003368EFB2DB683946304698470A220146F2
:1098B000584639F06DFE1849206839F0D5FDD9F8C1
:1098C0003420019213683268D3F814B0D268394654
:1098D000304690470135024639460198D847082D51
:1098E000DAD10B4B186839F089FD206803689B6852
:1098F00098470028BFDD044841465EF093F80020F9
:1099000002B0BDE8F08B00BF5D98000890710020A8
:109910003C5C0020D47C0908D87C090873B5064655
:109920000C462F48714675465EF06AF8032E05D046
:109930002C4B2D49186803681B6A32E0E0680DF172
:10994000030132F025FD30B9264B28491868E2683A
:1099500003681B6A3CE09DF80320531E032B32D89A
:10996000DFE803F00213252CE369DAB28DF8042056
:1099700052B2934205D01B4B1D49186803681B6AFD
:109980000FE001A9FDF728FD23E0E3699AB2ADF8E5
:10999000042012B2934206D0124B1649186803688D
:1099A0001B6A984715E001A9FDF788FC11E002A9A0
:1099B000E26941F8042DFDF735FD0AE004F12001CC
:1099C000FDF754FD05E0074B0B49186803681B6A57
:1099D0009847034829465EF025F8002002B070BD84
:1099E0001D9900083C5C0020DA7C0908067D090806
:1099F0001B7D09083D7D0908607D0908F0B5044616
:109A000085B00D463E48714676465DF0F9FF012C63
:109A10003C4C54D9E8680DF10F0132F0B9FC50B953
:109A200020686B69016800930C350C6A364995E82B
:109A30000C00A0475CE09DF80F305A1E032A37D86F
:109A4000DFE802F0020D19262468ED6823681F6A1A
:109A5000FAF7E0FB2D4990F90030204609E0246830
:109A6000ED6823681F6AFBF78BFA2949B0F90030CB
:109A700020462A460AE02468ED6823681F6AFBF73F
:109A80001FFD034623491B6820462A46B8472FE09E
:109A90002468ED6823681F6AFBF722FD00688BF0DD
:109AA0000FFB2A46CDE9000120461B49B8471FE0BD
:109AB00020681A490268146AEA68A04718E008207A
:109AC000FFF774FBFFF716FDFFF734FDFFF774FD9A
:109AD000FFF79CFDFFF796FEFFF784FB2068104917
