:020000040800F2
:10400000B41D01202D840708698B0708698B0708F8
:10401000698B0708698B0708698B0708698B070894
:10402000698B0708698B0708698B0708698B070884
:10403000698B0708698B0708698B0708698B070874
:10404000698B0708698B0708698B0708698B070864
:10405000698B0708698B0708698B0708698B070854
:10406000698B0708698B0708698B0708698B070844
:10407000698B0708698B0708698B0708698B070834
:10408000698B0708698B0708698B0708698B070824
:10409000698B0708698B0708698B0708698B070814
:1040A000698B0708698B0708698B0708698B070804
:1040B000698B0708698B0708698B0708698B0708F4
:1040C000698B0708698B0708698B0708698B0708E4
:1040D000698B0708698B0708698B0708698B0708D4
:1040E000698B0708698B0708698B0708698B0708C4
:1040F000698B0708698B0708698B0708698B0708B4
:10410000698B0708698B0708698B0708698B0708A3
:10411000698B0708698B0708698B0708698B070893
:10412000698B0708698B0708698B0708698B070883
:10413000698B0708698B0708698B0708698B070873
:10414000698B0708698B0708698B0708698B070863
:10415000698B0708698B0708698B0708698B070853
:10416000698B0708698B0708698B0708698B070843
:10417000698B0708698B0708698B0708698B070833
:10418000698B0708698B070870B5064D7446714640
:104190000646284674F0A4FF2846214674F0B2FF74
:1041A000304670BD8941000838B5064D74467146E9
:1041B000284674F095FF2846214674F0A3FF00209E
:1041C00038BD00BFA941000838B5064D74462846E1
:1041D000714674F085FF28462146BDE8384074F0EA
:1041E00091BF00BFC941000870B5074D0646714632
:1041F0002846744674F074FF96F88161284621467B
:1042000074F080FF304670BDE9410008F8B5084DF4
:10421000064674460F462846714674F061FF86F8DC
:10422000E17028462146BDE8F84074F06BBF00BF3E
:104230000D420008F8B5084D064674460F4628465C
:10424000714674F04DFF86F8807128462146BDE81E
:10425000F84074F057BF00BF35420008F8B5044677
:1042600071460E4804F13206754674F039FF304647
:10427000676CFFF789FF01783846FFF7C7FFA46B2B
:1042800034B13046FFF780FF01782046FFF7D2FFB8
:1042900029460248BDE8F84074F034BF5D4200088A
:1042A00070B5084D714606462846744674F018FFEE
:1042B0003046FFF7D3FF28462146BDE8704074F032
:1042C00021BF00BFA142000870B5064D744671467B
:1042D0000646284674F004FF2846214674F012FF73
:1042E000304670BDC942000870B5064D744671462F
:1042F0000646284674F0F4FE2846214674F002FF74
:10430000304670BDE942000870B5074D064671465B
:104310002846744674F0E4FE96F808612846214663
:1043200074F0F0FE304670BD0943000870B5084DCA
:10433000714606462846744674F0D2FE3046FFF7B2
:10434000C3FF06782146284674F0DCFE304670BD77
:104350002D43000870B5074D744671460646284641
:1043600074F0BEFE2846214674F0CCFE06F15800DB
:1043700070BD00BF5543000838B5714604460C486F
:10438000754674F0ADFEE01EC0B20D2808D80123BA
:10439000834042F21F101840041C18BF012400E0A3
:1043A00000240348294674F0ADFE204638BD00BF06
:1043B0007943000870B5074D744671460646284695
:1043C00074F08EFE2846214674F09CFE06F16800CB
:1043D00070BD00BFB543000870B5074D7446714607
:1043E0000646284674F07CFE2846214674F08AFE74
:1043F00006F18C0070BD00BFD943000870B5074DB1
:10440000744671460646284674F06AFE28462146E0
:1044100074F078FE06F1B00070BD00BFFD430008E7
:1044200070B5074D064671462846744674F058FE2E
:10443000044B1E6028462146BDE8704074F062BE01
:104440002144000810DB002070B5084D0646714677
:104450002846744674F044FE767B284606F0010632
:10446000214674F04FFE304670BD00BF494400083D
:1044700070B50A4D2DED028B7146064628467446EE
:1044800074F02EFE96ED078A2846214674F03AFE17
:10449000B0EE480ABDEC028B70BD00BF714400084D
:1044A00070B50A4D2DED028B7146064628467446BE
:1044B00074F016FE96ED098A2846214674F022FE15
:1044C000B0EE480ABDEC028B70BD00BFA1440008ED
:1044D00070B50A4D2DED028B71460646284674468E
:1044E00074F0FEFD96ED0A8A2846214674F00AFE15
:1044F000B0EE480ABDEC028B70BD00BFD14400088D
:1045000070B5094D064671462846744674F0E8FDBC
:10451000367906F00306F31E5E425E4128462146C8
:1045200074F0F0FD304670BD01450008F8B507464F
:10453000074D0E463E4471462846744674F0D0FD41
:10454000767B2846214674F0DDFD3046F8BD00BF7D
:104550002D45000870B5064D74467146064628463E
:1045600074F0BEFD2846214674F0CCFD304670BD87
:1045700055450008F8B50A4D06460F4628467146CF
:10458000744674F0ADFD0C2303FB07602C30FFF77D
:10459000E1FF21460646284674F0B4FD3046F8BDDA
:1045A0007545000870B50B4E044671463046754699
:1045B00074F096FD236820461B6998470146204603
:1045C000FFF7D8FF29460446304674F09BFD20468D
:1045D00070BD00BFA5450008F8B5084D74460646F5
:1045E0000F462846714674F07BFD2846214674F03C
:1045F00089FD0C2303FB07601030F8BDD945000886
:1046000070B50B4E044671463046754674F068FD31
:10461000236820461B69984701462046FFF7DCFFC8
:1046200029460446304674F06DFD204670BD00BF3B
:104630000146000870B5084D064671462846744686
:1046400074F04EFD36792846C6F34006214674F0D4
:1046500059FD304670BD00BF35460008F8B5094D1C
:104660000F46064671462846744674F039FD3823D5
:1046700003FB07662846767F214674F043FD3046EB
:10468000F8BD00BF5D46000870B50A4D064671468C
:104690002846744674F024FD96F89410304601F0D4
:1046A0000301FFF7DBFF21460646284674F02AFD8A
:1046B000304670BD8946000838B5124871467446C8
:1046C00074F00EFD104B1B78D80714D50F48FFF778
:1046D000DBFF02280FD90E48FFF7ACFF58B90D4B8E
:1046E0001B78190707D40C4A5278D20703D49B06CB
:1046F00001D4012500E000250248214674F002FDA6
:10470000284638BDB94600080C1D0020A4800020B2
:10471000E41C0020701F0020FC120020F8B5094D99
:104720000F46064671462846744674F0D9FC382375
:1047300007FB03331E442846B688214674F0E2FC8A
:104740003046F8BD1D47000870B50A4D0646714653
:104750002846744674F0C4FC96F89410304601F074
:104760000301FFF7DBFF21460646284674F0CAFC2A
:10477000304670BD49470008F8B5084D74460646F6
:104780000F462846714674F0ABFC2846214674F06B
:10479000B9FC0C2303FB07600430F8BD794700081F
:1047A00070B50B4E044671463046754674F098FC61
:1047B00023682046DB6C984701462046FFF7DCFF64
:1047C00029460446304674F09DFC204670BD00BF6B
:1047D000A1470008F8B5084D744606460F4628461E
:1047E000714674F07DFC2846214674F08BFC0C2346
:1047F00003FB07604C30F8BDD547000870B50B4E81
:10480000044671463046754674F06AFC23682046BB
:104810001B6D984701462046FFF7DCFF29460446FA
:10482000304674F06FFC204670BD00BFFD470008A5
:1048300070B5064D744671460646284674F050FC25
:104840002846214674F05EFC304670BD31480008B1
:1048500070B5064D744671460646284674F040FC15
:104860002846214674F04EFC304670BD5148000881
:1048700070B50B4D2DED028B7146064628467446E9
:1048800074F02EFC3046FFF7E3FF90ED008A2146DE
:10489000284674F037FCB0EE480ABDEC028B70BDC0
:1048A0007148000838B5714604460B48754674F0E7
:1048B00017FC0D2C09D8012303FA04F442F6030374
:1048C00023401C1C18BF012400E000240248294694
:1048D00074F018FC204638BDA548000870B5084D96
:1048E000064671462846744674F0FAFB337C43F062
:1048F0001C03337428462146BDE8704074F002BCA6
:10490000DD48000870B50B4D7146064628467446D2
:1049100074F0E6FB06F10C00FFF7D6FC90F900609E
:10492000003618BF01262846214674F0EBFB3046BE
:1049300070BD00BF05490008F8B5084D0F46064692
:1049400071462846744674F0CBFB3B6833602846BA
:104950002146BDE8F84074F0D5BB00BF39490008D6
:10496000F7B50A4E02AC24ED010A714607463046FF
:10497000754674F0B5FB38462146FFF7DDFF30463B
:10498000294674F0BFFB03B0F0BD00BF61490008C9
:10499000F7B50A4E02AC24ED010A714607463046CF
:1049A000754674F09DFB381D2146FFF7C5FF304664
:1049B000294674F0A7FB03B0F0BD00BF9149000881
:1049C000F7B50A4E02AC24ED010A7146074630469F
:1049D000754674F085FB07F108002146FFF7ACFF30
:1049E0003046294674F08EFB03B0F0BDC149000883
:1049F000F7B50A4E02AC24ED010A7146074630466F
:104A0000754674F06DFB38462146FFF795FF30463A
:104A1000294674F077FB03B0F0BD00BFF1490008F0
:104A200070B50B4D2DED028B714606462846744637
:104A300074F056FB3046FFF70BFF90ED008A2146DD
:104A4000284674F05FFBB0EE480ABDEC028B70BDE7
:104A5000214A000870B50B4D2DED028B71460646BC
:104A60002846744674F03CFB301DFFF7F1FE90EDD4
:104A7000008A2146284674F045FBB0EE480ABDEC9A
:104A8000028B70BD554A000870B50C4D2DED028BA0
:104A9000714606462846744674F022FB06F108006B
:104AA000FFF7D6FE90ED008A2146284674F02AFBD7
:104AB000B0EE480ABDEC028B70BD00BF894A000809
:104AC000F8B50A4D06460F4628467146744674F0FE
:104AD00007FB96F8363067F3410386F836302846F0
:104AE0002146BDE8F84074F00DBB00BFC14A000884
:104AF000F8B5074D064674460F462846714674F0D1
:104B0000EFFA777228462146BDE8F84074F0FABA09
:104B1000F14A0008F8B50A4D06460F462846714688
:104B2000744674F0DDFA96F8363067F3C30386F8FE
:104B3000363028462146BDE8F84074F0E3BA00BF9D
:104B4000154B0008F8B50A4D06460F462846714633
:104B5000744674F0C5FA96F8363067F3451386F854
:104B6000363028462146BDE8F84074F0CBBA00BF85
:104B7000454B000838B5074D71462846744674F019
:104B8000AFFA0548FFF720FB28462146BDE838402C
:104B900074F0B8BA754B0008787E002070B5094DE6
:104BA00071462846744674F09BFA074B986B03686D
:104BB0009B68984721460646284674F0A3FA30467B
:104BC00070BD00BF9D4B000860D9002070B5094D35
:104BD000064671462846744674F082FA064B1A78E7
:104BE00066F304121A7028462146BDE8704074F03E
:104BF00089BA00BFCD4B0008701F002070B50C4D66
:104C00002DED028B714606462846744674F068FA0C
:104C100006F12400FFF70CFE90ED008A214628469D
:104C200074F070FAB0EE480ABDEC028B70BD00BFA4
:104C3000FD4B000838B5064D74467146284674F0A1
:104C40004FFA2846214674F05DFA012038BD00BFB6
:104C5000354C000870B50A4D2DED028B0646B0EEBE
:104C6000408A28467146744674F03AFA86ED1C8AEA
:104C7000BDEC028B28462146BDE8704074F042BA74
:104C8000554C000838B5084D71462846744674F0F6
:104C900027FA9FED060A0648FFF7DCFF2846214663
:104CA00074F030FA012038BD854C00080000000087
:104CB000747F002070B5094D71460646284674463B
:104CC00074F00EFA06F10800FFF70EFB0688214685
:104CD000284674F017FA304670BD00BFB54C000886
:104CE00070B50C4D2DED028B714606462846744674
:104CF00074F0F6F906F11800FFF79AFD90ED008ABE
:104D00002146284674F0FEF9B0EE480ABDEC028B4D
:104D100070BD00BFE14C000870B50C4D2DED028B4D
:104D2000714606462846744674F0DAF906F1280002
:104D3000FFF78EFD90ED008A2146284674F0E2F9D7
:104D4000B0EE480ABDEC028B70BD00BF194D0008E3
:104D500070B5084E044671463046754674F0C0F989
:104D600000233046A36063602360294674F0CAF9CB
:104D7000204670BD514D000870B50C4D2DED028BD5
:104D8000714606462846744674F0AAF906F12000DA
:104D9000FFF74EFD90ED008A2146284674F0B2F9E7
:104DA000B0EE480ABDEC028B70BD00BF794D000823
:104DB00070B50C4D2DED028B7146064628467446A3
:104DC00074F08EF906F11C00FFF732FD90ED008AB9
:104DD0002146284674F096F9B0EE480ABDEC028BE5
:104DE00070BD00BFB14D000870B50C4D2DED028BAC
:104DF000714606462846744674F072F906F12C0096
:104E0000FFF716FD90ED008A2146284674F07AF9E6
:104E1000B0EE480ABDEC028B70BD00BFE94D000842
:104E200070B5104E2DED028B714604463046754626
:104E300074F056F904F10800FFF7FAFC90ED008ACF
:104E400004F11000FFF7F4FCD0ED007A38EE678A29
:104E50003046294674F056F9B0EE480ABDEC028B94
:104E600070BD00BF214E000870B5074D74467146F5
:104E70000646284674F034F92846214674F042F973
:104E800006F19C0070BD00BF694E0008F8B5094DE1
:104E900006460F4628467146744674F021F9337869
:104EA00067F34103337028462146BDE8F84074F0AB
:104EB00029B900BF8D4E000838B571460546074830
:104EC000744674F00DF9FFF7F7FB2146002818BF70
:104ED0000546024874F016F9284638BDB94E000858
:104EE00070B5084D064671462846744674F0F8F8C9
:104EF00000237360336028462146BDE8704074F09B
:104F000001B900BFE14E000838B523487146744628
:104F100074F0E6F8214B93ED000AB5EE400AF1EE8D
:104F200010FA33D01E4DD5ED007AF5EE407AF1EE51
:104F300010FA2BD01B48FFF713FD1B4B194893EDBC
:104F4000000AFFF725FD194B164893ED000AFFF7FD
:104F500037FD174B174893ED000AFFF749FD164838
:104F600095ED000AFFF7FCFC144B134893ED000A83
:104F7000FFF70EFD124B104893ED000AFFF720FDDE
:104F8000104B114893ED000AFFF732FD214602480D
:104F9000BDE8384074F0B6B8094F0008107F002013
:104FA000081D0020B0160020307E0020287E002042
:104FB00030840020B8170020D0160020E01900200F
:104FC0002C1D00209C120020BC170020F8B5094DB4
:104FD00006460F4628467146744674F081F83379C8
:104FE00067F30003337128462146BDE8F84074F0AA
:104FF00089B800BFCD4F000870B5074D0646714611
:105000002846744674F06CF836782846214674F0C9
:1050100079F8304670BD00BFF94F0008F8B5084E6A
:105020000F46044671463046754674F059F83B8881
:1050300023803046294674F065F82046F8BD00BF4D
:105040001D50000870B50A4D2DED028B0646B0EEDE
:10505000408A28467146744674F042F886ED048A08
:10506000BDEC028B28462146BDE8704074F04AB87A
:1050700045500008F8B50E4D0E4E714607462846BD
:10508000744674F02DF806F14E00FFF72DF9B0F9D3
:105090000030FB1A00EE103A06F53C70B8EEC00A7C
:1050A000FFF7D0FF28462146BDE8F84074F02AB843
:1050B0007550000864140020F8B5084E0F460446E9
:1050C00071463046754674F00BF83B6823603046F5
:1050D000294674F017F82046F8BD00BFB950000803
:1050E000F7B50A4E02AC24ED010A71460746304678
:1050F000754673F0F5FF214607F11400FFF7DCFF5A
:105100003046294673F0FEFF03B0F0BDE1500008C1
:10511000F8B5084E0F46044671463046754673F0A2
:10512000DFFF3B7823703046294673F0EBFF2046C3
:10513000F8BD00BF11510008F7B50A4E02AC24EDCE
:10514000010A714607463046754673F0C9FF21468D
:1051500007F12C00FFF7B0FF3046294673F0D2FF6D
:1051600003B0F0BD3951000870B50E4E2DED048B23
:105170000446B0EE409AF0EE608AB0EE418A754681
:105180007146304673F0ACFF84ED009AC4ED018A9D
:1051900084ED028A3046294673F0B4FFBDEC048BDF
:1051A000204670BD6951000870B5084D064671462D
:1051B0002846744673F094FF36792846C6F34006B5
:1051C000214673F09FFF304670BD00BFA951000813
:1051D00070B504460E460B487146754673F080FF65
:1051E00094F840300748C3F381039E42B6BF04EBF6
:1051F000C604002494F82C40294673F083FF20460F
:1052000070BD00BFD151000870B50A4D0646714609
:105210002846744673F064FF96F84010304601F05B
:105220000301FFF7D5FF21460646284673F06AFFC3
:10523000304670BD09520008F8B50F46074D0646C6
:1052400006EBC70671462846744673F049FF368D53
:105250002846214673F056FF3046F8BD3952000803
:1052600070B50A4D064671462846744673F038FFFD
:1052700096F84010304601F00301FFF7DDFF2146AC
:105280000646284673F03EFF304670BD6152000866
:10529000F8B50A4D06460F4628467146744673F027
:1052A0001FFF06EB47001E30FFF71EF80688214659
:1052B000284673F027FF30B2F8BD00BF91520008B6
:1052C00070B50A4D064671462846744673F008FFCD
:1052D00096F84010304601F00301FFF7D9FF214650
:1052E0000646284673F00EFF304670BDC1520008D6
:1052F000F8B50A4D06460F4628467146744673F0C7
:10530000EFFE06EB47002230FEF7EEFF068821464F
:10531000284673F0F7FE30B2F8BD00BFF152000826
:1053200070B50A4D064671462846744673F0D8FE9D
:1053300096F84010304601F00301FFF7D9FF2146EF
:105340000646284673F0DEFE304670BD2153000845
:1053500070B5074D064671462846744673F0C0FE88
:10536000B6F894602846214673F0CCFE30B270BD8A
:105370005153000870B50A4D2DED028B714606465B
:105380002846744673F0ACFE96ED1C8A28462146EA
:1053900073F0B8FEB0EE480ABDEC028B70BD00BFE2
:1053A0007553000870B50A4D2DED028B7146064607
:1053B0002846744673F094FE96ED2C8A28462146C2
:1053C00073F0A0FEB0EE480ABDEC028B70BD00BFCA
:1053D000A553000870B50A4D2DED028B71460646A7
:1053E0002846744673F07CFE96ED2F8A28462146A7
:1053F00073F088FEB0EE480ABDEC028B70BD00BFB2
:10540000D5530008F8B5084D744606460F462846A1
:10541000714673F065FE2846214673F073FE38230B
:1054200003FB07602630F8BD0554000870B50A4D2F
:10543000064671462846744673F052FE96F894105C
:10544000304601F00301FFF7DDFF214606462846FE
:1054500073F058FE304670BD2D540008F8B5084D65
:10546000064674460F462846714673F039FE86F8A4
:10547000287028462146BDE8F84073F043BE00BFBF
:105480005D540008F8B50A4D06460F462846714699
:10549000744673F025FE0C2303FB0760BC30FFF756
:1054A00059F821460646284673F02CFE3046F8BDD2
:1054B0008554000870B50B4E04467146304675465B
:1054C00073F00EFE236820461B6D98470146204668
:1054D000FFF7D8FF29460446304673F013FE2046F6
:1054E00070BD00BFB55400082DE9FF4BDFF86480A4
:1054F00071464046774673F0F3FD1348FFF7DAFF35
:10550000124B06460068D3F80090A0F055FE044602
:105510007068D9F800B00D46A0F04EFECDE900014C
:10552000B068A0F049FECDE9020122464846DBF80A
:10553000206007492B46B0474046394604B0BDE8D5
:10554000F04B73F0DFBD00BFD0170020487F002074
:1055500094860A08E9540008F8B50A4D06460F4635
:1055600028467146744673F0BBFD0C2303FB0760AD
:105570009830FEF7EFFF21460646284673F0C2FD3D
:105580003046F8BD5955000870B50B4E04467146BB
:105590003046754673F0A4FD23682046DB6C9847BF
:1055A00001462046FFF7D8FF29460446304673F0EF
:1055B000A9FD204670BD00BF89550008F8B50A4D09
:1055C00006460F4628467146744673F089FD0C2343
:1055D00003FB07607430FEF7BDFF214606462846F0
:1055E00073F090FD3046F8BDBD55000870B50B4E08
:1055F000044671463046754673F072FD23682046B6
:10560000DB6C984701462046FFF7D8FF2946044641
:10561000304673F077FD204670BD00BFED550008A1
:105620002DE9F04BDFF89090204C8CB07146484645
:10563000F04673F055FD2046FFF7A6FF07462046CB
:10564000FFF7D4FF1A4BD3F800B00646DBF8003062
:1056500038680B93A0F0B0FD044678680D46A0F0C2
:10566000ABFDCDE90001B868A0F0A6FDCDE90201CF
:105670003068A0F0A1FDCDE904017068A0F09CFDA8
:10568000CDE90601B068A0F097FDCDE908010B9BBC
:1056900008491E6A584622462B46B04748464146AE
:1056A0000CB0BDE8F04B73F02DBD00BFD01700204B
:1056B000487F0020B0860A082156000870B5084DC2
:1056C000714606462846744673F00AFD3046FEF7DA
:1056D000FBFD06782146284673F014FD304670BD68
:1056E000BD56000870B5084D7146064628467446FA
:1056F00073F0F6FC701CFEF7E7FD0678214628469D
:1057000073F000FD304670BDE556000870B5084DD9
:10571000714606462846744673F0E2FCF01CFEF71C
:10572000D3FD06782146284673F0ECFC304670BD68
:105730000D57000870B5084D714606462846744658
:1057400073F0CEFCB01CFEF7BFFD0678214628465C
:1057500073F0D8FC304670BD3557000870B5094D60
:10576000714606462846744673F0BAFC064B986BA1
:105770000268B1B25268904728462146BDE87040A1
:1057800073F0C0BC5D57000860D9002038B5714681
:1057900004460A48754673F0A3FCB4F5966F05DB22
:1057A000B4F5E16FD4BF0124022400E000240348D3
:1057B000294673F0A7FC204638BD00BF8D5700086E
:1057C000F7B50A4D06460F4628467146744673F0F3
:1057D00087FC02A9301D01F8017DFFF799FC2846DE
:1057E000214673F08FFC03B0F0BD00BFC157000825
:1057F00038B515487146754673F072FC134BB3F912
:10580000F03040F2CE42934211DDB3F5AA6F10DDC5
:1058100040F2D25293420EDD40F2546293420CDDCC
:1058200040F2D564A342CCBF0524042406E0002442
:1058300004E0012402E0022400E003240248294697
:1058400073F060FC204638BDF15700086414002056
:10585000F8B5084D0F46064671462846744673F063
:105860003FFC3B78337028462146BDE8F84073F092
:1058700049BC00BF51580008F7B50A4D06460F460F
:1058800028467146744673F02BFC02A906F13500D8
:1058900001F8017DFFF7DCFF2846214673F032FC5A
:1058A00003B0F0BD7958000870B50A4D7146064640
:1058B0002846744673F014FC3046FEF705FD90F957
:1058C0000060003618BF01262846214673F01AFCF6
:1058D000304670BDA958000870B5084D714606469F
:1058E0002846744673F0FCFBB01DFEF7FDFC0688ED
:1058F0002146284673F006FC30B270BDD958000826
:10590000F7B50A4D06460F4628467146744673F0B1
:10591000E7FB02A906F1500001F8017DFFF7F8FB53
:105920002846214673F0EEFB03B0F0BD0159000894
:1059300070B5084D714606462846744673F0D0FB94
:105940003046FEF7C1FC06782146284673F0DAFBA4
:1059500070B270BD3159000838B571462DED028B1B
:1059600004460C487546B0EE408A73F0B9FB04F566
:10597000A470FEF7A9FC90F900300648022B08BF7E
:1059800084ED5F8ABDEC028B2946BDE8384073F098
:10599000B9BB00BF5959000838B571462DED028BCF
:1059A00004460C487546B0EE408A73F099FB04F546
:1059B000A470FEF789FC90F900300648012B08BF5F
:1059C00084ED5F8ABDEC028B2946BDE8384073F058
:1059D00099BB00BF99590008F8B5094D74460646B1
:1059E0000F462846714673F07BFB2846214673F02C
:1059F00089FB0C2303FB076000F5B270F8BD00BF04
:105A0000D9590008F8B50F46074D064606EBC706FC
:105A100071462846744673F063FB36692846214672
:105A200073F070FB3046F8BD055A000870B5084D9C
:105A3000064671462846744673F052FB96F8946009
:105A40002846C6F38106214673F05CFB304670BDE4
:105A50002D5A000870B5074D064671462846744613
:105A600073F03EFB36692846214673F04BFB304607
:105A700070BD00BF555A000870B50B4D0646714603
:105A80002846744673F02CFB084B1A7866F3C30261
:105A90001A70074B5A7866F304125A70284621464A
:105AA000BDE8704073F02EBB795A0008701F0020CB
:105AB0001CDB002038B5074D71462846744673F04C
:105AC0000FFB054B00221A7028462146BDE83840DE
:105AD00073F018BBB55A00088A19002070B5074D3D
:105AE000064671462846744673F0FAFAB36C9E88EF
:105AF0002846214673F006FB30B270BDDD5A00081F
:105B000070B50D4D71462846744673F0E9FA0B489E
:105B1000FEF7EAFBB0F9000007EE900AFAEEEF7A22
:105B20002846FDEEE77A214617EE906AB6B273F08A
:105B3000E9FA30B270BD00BF015B0008B414002068
:105B400038B5074D71462846744673F0C9FA054BBF
:105B5000054A1A6028462146BDE8384073F0D2BA9B
:105B6000415B0008AC0D0020ECDF0A0870B5094D60
:105B700071462846744673F0B3FA074B986B036876
:105B8000DB68984721460646284673F0BBFA304644
:105B900070BD00BF6D5B000860D90020F8B5084DEE
:105BA0000F46064671462846744673F099FA3B88BC
:105BB000338028462146BDE8F84073F0A3BA00BF01
:105BC0009D5B0008F8B5074D064674460F4628460B
:105BD000714673F085FAB78028462146BDE8F84043
:105BE00073F090BAC55B0008F8B5094D06460F463C
:105BF00028467146744673F073FA3046B763FEF771
:105C00002DFB28462146BDE8F84073F07BBA00BF63
:105C1000E95B000838B5064D74462846714673F0B6
:105C20005FFA28462146BDE8384073F06BBA00BFE2
:105C3000155C000870B50A4D064671462846744644
:105C400073F04EFAB369D3ED067AF8EEE77A284698
:105C5000C6ED187A2146BDE8704073F053BA00BF14
:105C6000355C000870B50A4D2DED028B7146064675
:105C70002846744673F034FA96ED2B8A284621465E
:105C800073F040FAB0EE480ABDEC028B70BD00BF65
:105C9000655C000838B50E4D2DED028B714608EE9F
:105CA000100A2846744673F01BFA0A48FEF7C0FD36
:105CB000B8EEC88AD0ED007A28EE278A2846214619
:105CC00073F020FAB0EE480ABDEC028B38BD00BF7D
:105CD000955C00089C16002070B5094E044671467C
:105CE0003046754673F0FCF9A0680368DB6A984794
:105CF000304684ED1C0A2946BDE8704073F002BAB4
:105D0000D95C000870B50A4D2DED028B7146064630
:105D10002846744673F0E4F996ED168A2846214623
:105D200073F0F0F9B0EE480ABDEC028B70BD00BF15
:105D3000055D000870B50A4D2DED028B71460646D3
:105D40002846744673F0CCF996ED178A284621460A
:105D500073F0D8F9B0EE480ABDEC028B70BD00BFFD
:105D6000355D000870B50A4D2DED028B7146064673
:105D70002846744673F0B4F996ED188A28462146F1
:105D800073F0C0F9B0EE480ABDEC028B70BD00BFE5
:105D9000655D000870B50C4D06462DED028B714611
:105DA0002846744673F09CF9F068FFF7DBFFB0EE0D
:105DB000408ABDEEC88A2846214673F0A3F918EE42
:105DC000100ABDEC028B70BD955D000870B50A4DE0
:105DD0002DED028B714606462846744673F080F915
:105DE00096ED198A2846214673F08CF9B0EE480AE0
:105DF000BDEC028B70BD00BFCD5D000870B50C4DD1
:105E000006462DED028B71462846744673F068F9FC
:105E1000F068FFF7DBFFB0EE408ABDEEC88A284687
:105E2000214673F06FF918EE100ABDEC028B70BDBD
:105E3000FD5D000870B50A4D2DED028B71460646DA
:105E40002846744673F04CF996ED108A2846214690
:105E500073F058F9B0EE480ABDEC028B70BD00BF7C
:105E6000355E000810B51D482DED028B7146744655
:105E700073F036F91A4B187810B11A48FFF7C4F9C5
:105E8000194B5A789978DB7842EA012242EA0343B7
:105E900043F31703B3F57A7F0ADB18B1134B1B7872
:105EA000022B05D81248FFF7C5FFB0EE408A0BE081
:105EB0001048FEF719FAB0F90030002BC8BF5B425A
:105EC00007EE903AB8EEE78A0448214673F01AF9D3
:105ED000B0EE480ABDEC028B10BD00BF655E000845
:105EE000880D00205C800020C8120020A412002031
:105EF000747F0020A414002070B50C4D06462DEDD3
:105F0000028B71462846744673F0EAF8F068FFF792
:105F100029FFB0EE408ABDEEC88A2846214673F0BC
:105F2000F1F818EE100ABDEC028B70BDF95E0008A6
:105F300070B50C4D06462DED028B71462846744611
:105F400073F0CEF8F068FFF741FFB0EE408ABDEE87
:105F5000C88A2846214673F0D5F818EE100ABDEC21
:105F6000028B70BD315F000870B5094D7146064661
:105F70002846744673F0B4F8D6ED0A7AFDEEE77A57
:105F8000284617EE906A214673F0BCF8304670BD83
:105F9000695F000870B5084D06467146284674468C
:105FA00073F09EF80023F386338728462146BDE828
:105FB000704073F0A7B800BF955F000870B5074D3B
:105FC000744671460646284673F08AF828462146EC
:105FD00073F098F806F15C0070BD00BFBD5F00086B
:105FE00070B5084D064671462846744673F078F839
:105FF0003678284606F00106214673F083F83046CD
:1060000070BD00BFE15F000870B5064D7446714673
:106010000646284673F064F82846214673F072F865
:10602000304670BD0960000870B50A4D2DED028B39
:106030000646B0EE408A28467146744673F050F822
:1060400086ED1C8ABDEC028B28462146BDE87040D7
:1060500073F058B82960000870B50A4D2DED028B19
:106060000646B0EE408A28467146744673F038F80A
:1060700086ED1D8ABDEC028B28462146BDE87040A6
:1060800073F040B85960000870B504460D462DED18
:10609000028B71466448764673F022F82188B5F980
:1060A00000200BB2002B02DD002A03DA08E009B160
:1060B000002A05DC002AB8BF5242B2F5E16F01DDCB
:1060C0002B88A8E007EE103A002BF8EEC77A9FED78
:1060D000578A50DD564867EE888AFEF705F9B0F911
:1060E0000030032B0CDD5248FEF7FEF8B0F900201B
:1060F000042392FBF3F307EE903AB8EEE77A01E05F
:10610000B7EE007AF4EEC78AF1EE10FA08DDB4F9C2
:10611000003007EE903AF8EEE77A27EE888A15E02D
:106120004348FEF7E1F8B0F90030032B0CDD40489E
:10613000FEF7DAF8B0F90020042392FBF3F308EE3F
:10614000103AB8EEC88A01E0B7EE008AB4F9003020
:1061500007EE903AF8EEE77A37EEC88ABDEEC88AC5
:1061600018EE103A9BB22380B5F900201BB293427F
:10617000B8BF13464FE02E4867EEC88AFEF7B4F862
:10618000B0F90030032B0CDD2948FEF7ADF8B0F96B
:106190000020042392FBF3F307EE103AF8EEC77ADF
:1061A00001E0F7EE007AF4EEE78AF1EE10FA08DD8E
:1061B000B4F9003007EE903AF8EEE77A27EEC88A95
:1061C00015E01B48FEF790F8B0F90030032B0CDD0A
:1061D0001748FEF789F8B0F90020042392FBF3F387
:1061E00008EE103AB8EEC88A01E0B7EE008AB4F9BA
:1061F000003007EE903AF8EEE77A38EE278ABDEEE7
:10620000C88A18EE103A9BB22380B5F900201BB261
:106210009342A8BF1346BDEC028B2380314602484F
:10622000BDE8704072F06EBF89600008CDCC4C3C78
:106230009A14002038B50C4D71462846744672F009
:106240004FFF0A4B1A78052161F302021A70C82227
:106250005A8300225A805A8EDA8328462146BDE8A6
:10626000384072F04FBF00BF356200086412002052
:1062700038B50C4D71462846744672F031FF0A4B12
:106280001A78052161F3C5021A70C8229A83002288
:106290009A809A8E1A8428462146BDE8384072F0CA
:1062A00031BF00BF716200086412002038B5334866
:1062B0002DED048B7146754672F012FF304B1A7843
:1062C000C2F34102002A51D05978C8074ED52D4C4F
:1062D0006FF300015970B4F9723007EE103A012AD9
:1062E000B8EEC77A0AD1284BD3ED006AB4F99230E0
:1062F00008EE903A254BF8EEE88A09E0244BD3EDFE
:10630000006AB4F9923008EE903A224BF8EEE88A2F
:10631000D3ED007A204827EEE88A68EEA68AA7EE39
:10632000268AE7EE278AFFF73DF81B48B0EE409A31
:10633000FFF750F820EE280A1748A9EE080ABDEE2C
:10634000C00A10EE103AA4F87230FFF743F8124872
:10635000B0EE409AFFF726F820EE280AA8EE490A88
:10636000BDEEC00A10EE103AA4F89230BDEC048BDA
:1063700029460248BDE8384072F0C4BEAD6200084C
:106380000C1D0020641400208C0D0020A081002032
:10639000840D002044C60020808400202DE9F041B7
:1063A0000A4D80460F4628467146744672F098FEA4
:1063B0000748066841463A463668B04728462146AF
:1063C00072F0A0FE0020BDE8F08100BF9D630008D0
:1063D00060D9002070B50B4D0646714628467446BC
:1063E00072F07EFE084B1A7866F382021A70074B31
:1063F0005A7866F3C3025A7028462146BDE87040B9
:1064000072F080BED5630008701F00201CDB0020E6
:1064100038B5714604460C48754672F061FE0B4B68
:106420001A78C2F30011A14207D064F304121A7063
:10643000074B1A7864F3C7121A7029460248BDE860
:10644000384072F05FBE00BF116400080C1D0020D0
:106450001CDB002038B5714605460948744672F0C9
:106460003FFE084B06481A78C2F3C001A9421CBF80
:1064700065F3C3021A702146BDE8384072F042BE8F
:10648000556400080C1D002038B5104D2DED028B11
:1064900071462846744672F023FE0D48FDF714FF3E
:1064A00090F90000DFED0B7A07EE100AB8EEC77A1C
:1064B000B0EE008AA7EE278A2846214672F022FE17
:1064C000B0EE480ABDEC028B38BD00BF89640008FD
:1064D00099140020CDCCCC3D70B5714605461048CE
:1064E000744672F0FDFDFEF759FB06460D48FDF7B8
:1064F000EBFE90F90030B3EB962F01D2002508E0B7
:1065000035B9094BD86A03681B6A98470028F5D14A
:1065100001250348214672F0F5FD284670BD00BFF5
:10652000D96400087314002060D90020F8B50F4624
:10653000074D064606EBC70671462846744672F0BC
:10654000CFFDF6682846214672F0DCFD3046F8BDE6
:106550002D65000870B50A4D0646714628467446FA
:1065600072F0BEFD96F89410304601F00301FFF77B
:10657000DDFF21460646284672F0C4FD304670BD58
:1065800055650008F8B5094D744606460F4628467D
:10659000714672F0A5FD2846214672F0B3FD3823FE
:1065A00007FB0333F0180830F8BD00BF856500080D
:1065B00070B50A4D064671462846744672F090FD45
:1065C00096F89410304601F00301FFF7DBFF2146F7
:1065D0000646284672F096FD304670BDB16500084B
:1065E000F8B50C4D2DED028B06460F462846714638
:1065F000744672F075FD382303FB076696ED0D8A2D
:106600002846214672F07EFDB0EE480ABDEC028BB2
:10661000F8BD00BFE165000870B50D4D06462DEDD3
:10662000028B71462846744672F05AFD96F8941013
:10663000304601F00301FFF7D3FF2846B0EE408A51
:10664000214672F05FFDB0EE480ABDEC028B70BDD2
:106650001966000838B5054671460848744672F058
:106660003FFD288B4FF6FF75A84214BF0546002555
:106670002146024872F046FD284638BD556600089E
:10668000F8B50F46074D064606EBC7067146284685
:10669000744672F025FD768D2846214672F032FD53
:1066A0003046F8BD8166000870B50A4D0646714651
:1066B0002846744672F014FD96F84010304601F0FA
:1066C0000301FFF7DDFF21460646284672F01AFD5A
:1066D000304670BDA966000870B50A4D7146064681
:1066E0002846744672F0FCFC301DFDF7EDFD90F974
:1066F0000060003618BF01262846214672F002FDD0
:10670000304670BDD966000870B5074D0646714623
:106710002846744672F0E4FC96F828602846214624
:1067200072F0F0FC304670BD0967000870B5074D87
:10673000064671462846744672F0D2FC368E2846CC
:10674000214672F0DFFC304670BD00BF2D670008A7
:1067500070B5074D064671462846744672F0C0FC77
:10676000F66A2846214672F0CDFC304670BD00BF67
:106770005167000870B5064D7446714606462846B6
:1067800072F0AEFC2846214672F0BCFC304670BD6B
:106790007567000870B50D46044671462448764674
:1067A00072F09EFC082D3BD804EB45007230FFF7D9
:1067B000E1FF007807EE900A082DF8EE677A08D01E
:1067C00094F864300BB9236C1BB1B5EE007A67EE18
:1067D000877AF5EEC07AF1EE10FA21D9254495F8C2
:1067E0008430D3B99FED137A94F88D40F4EE477A54
:1067F000F1EE10FAC8BFF0EE477A87EE277A06EE80
:10680000904AF8EEE66A012477EE267AFCEEE77A03
:1068100017EE903A85F8843003E0013B85F8843028
:1068200000240348314672F06DFC204670BD00BF65
:10683000956700080000484270B50C4D2DED028BA5
:1068400006467146B0EE408A2846744672F048FC0F
:10685000F068B0EE480AFEF7FDF9BDEC028B284661
:106860002146BDE8704072F04DBC00BF3968000899
:1068700038B50C461D487146754672F031FC637997
:10688000DB071CD51A48FEF7EFFAA379E279817885
:1068900043EA0222237A42EA0342437843EA01238D
:1068A000C17843EA014342F3170243F31703134449
:1068B000C3F30722A371C3F30743E2712372E279A2
:1068C000A3790C4843EA0223227A43EA024343F3C2
:1068D000170300EE103AB8EEC00AFFF7ADFF2946E5
:1068E0000248BDE8384072F00DBC00BF7168000876
:1068F00080840020341D002070B5094D7146064685
:106900002846744672F0ECFB06F13700FDF73CFCBC
:1069100006782146284672F0F5FB304670BD00BF70
:10692000F968000870B5074D06467146284674465A
:1069300072F0D6FB367D2846214672F0E3FB3046E6
:1069400070BD00BF2569000870B5074E044671464A
:106950003046754672F0C4FB044B2360304629462E
:1069600072F0D0FB204670BD4969000828750A08FE
:10697000F8B50A4E04460F4630467146754672F029
:10698000AFFB2046FFF7E0FF054B23603046277141
:10699000294672F0B7FB2046F8BD00BF71690008B8
:1069A00090CE0A0870B50D4C064671460C487546E7
:1069B00072F096FB206803685B690EB1094900E03C
:1069C000094998472068094903685B69984729463F
:1069D0000348BDE8704072F095BB00BF487F0020BF
:1069E000A5690008B48E0A082A730A0828930A08C1
:1069F00070B5094D714606462846744672F070FB24
:106A000006F5A470FDF760FC06782146284672F072
:106A100079FB304670BD00BFF1690008F8B50B4D39
:106A200006460F4628467146744672F059FB0C2301
:106A300003FB076000F5A670FDF78CFD21460646B6
:106A4000284672F05FFB3046F8BD00BF1D6A0008A3
:106A500070B5074D064671462846744672F040FBF5
:106A600076882846214672F04DFB304670BD00BF47
:106A7000516A000870B5094D71462846744672F097
:106A80002FFB0748FFF7E4FF21460646284672F031
:106A900039FB0F23B6FBF3F0C0B270BD756A000876
:106AA0002CDB002070B5084D71460646284674461A
:106AB00072F016FB301DFDF707FC067821462846CC
:106AC00072F020FB304670BDA56A000838B57146EB
:106AD00004460D48754672F003FB0C48FDF7F4FBC5
:106AE00090F90030022B05D0032B06D01C1C18BFD8
:106AF000012403E084F0010400E004240248294654
:106B000072F000FB204638BDCD6A000898140020C2
:106B100070B50E4D2DED028B714606462846744623
:106B200072F0DEFA3046FFF777FD28462146B0EED8
:106B3000408A72F0E7FADFED067A28EE278ABCEE8B
:106B4000C88A18EE100ABDEC028B70BD116B0008EC
:106B50000000C842F8B5094D0F4606467146284662
:106B6000744672F0BDFA382303FB07662846B66BFD
:106B7000214672F0C7FA3046F8BD00BF556B0008D9
:106B800070B50A4D064671462846744672F0A8FA5A
:106B900096F89410304601F00301FFF7DBFF214621
:106BA0000646284672F0AEFA304670BD816B00088A
:106BB00038B51348134C2DED028B7146754672F0B3
:106BC0008FFA1148FDF760FD01280DD90E48FFF737
:106BD0009FFF642808D90C48FFF7D2FF07EE100A80
:106BE000F8EEC77AC4ED007A94ED008A044829468D
:106BF00072F088FAB0EE480ABDEC028B38BD00BFD7
:106C0000B16B0008A4810020A480002070B50A4D5B
:106C10002DED028B714606462846744672F060FAE6
:106C200096ED398A2846214672F06CFAB0EE480A91
:106C3000BDEC028B70BD00BF0D6C000870B5084E36
:106C4000044671463046754672F04AFA00233046D3
:106C500063602360294672F055FA204670BD00BF7C
:106C60003D6C000870B5074D7446714606462846CF
:106C700072F036FA2846214672F044FA06F50B7097
:106C800070BD00BF656C000838B5094D71462846D7
:106C9000744672F025FA074B01221A70FEF766FF60
:106CA000054B186021462846BDE8384072F02ABAE4
:106CB000896C00087C0D00207884002038B5074DD1
:106CC00071462846744672F00BFA054B00221A7082
:106CD00028462146BDE8384072F014BABD6C000861
:106CE0007C0D002070B50A4D2DED028B0646B0EEEE
:106CF000408A28467146744672F0F2F986ED098A98
:106D0000BDEC028B28462146BDE8704072F0FAB90E
:106D1000E56C000870B5084D714606462846744675
:106D200072F0DEF9B01DFDF72FFA067821462846ED
:106D300072F0E8F9304670BD156D000838B5094DA0
:106D400071462846744672F0CBF9074A0023138037
:106D5000064A1360064A138028462146BDE838409B
:106D600072F0D0B93D6D0008A8810020A01200206B
:106D70003C1E002038B5714604460D48754672F039
:106D8000AFF90C4B1A8801321A800B4B1A689442E7
:106D900088BF1C6040F6B8339C4203D9074B1A8861
:106DA00001321A8029460248BDE8384072F0AAB97B
:106DB000756D0008A8810020A01200203C1E002054
:106DC00070B5074D71462846744672F089F9054B37
:106DD0001E882846214672F095F9304670BD00BFE6
:106DE000C16D0008A881002070B5074D7146284686
:106DF000744672F075F9054B1E682846214672F0FC
:106E000081F9304670BD00BFE96D0008A012002076
:106E100070B5074D71462846744672F061F9054B0E
:106E20001E882846214672F06DF9304670BD00BFBD
:106E3000116E00083C1E0020F0B5234F8BB00446B5
:106E400071463846764672F04BF92048FEF70CF84A
:106E500062684368DFED1E7AD31A06EE903A1D4B46
:106E6000A268D3ED000A8368D31AB8EEE60AA278C6
:106E700006EE903A637843EA0223E27843EA02435B
:106E800043F3170360EEA70AB8EEE67A01EE103A74
:106E900004AD20EE270A60EE870AB8EEC11A284634
:106EA000FEF762F995E807000AAB03E907003846E8
:106EB000314672F027F99DED070ADDED080A9DEDD8
:106EC000091A0BB0F0BD00BF396E000880840020A5
:106ED0002C7D8E3F980D002038B5064D744628460F
:106EE000714672F0FDF828462146BDE8384072F040
:106EF00009B900BFD96E000838B5714605460A4881
:106F0000744672F0EDF80023EA18043300211C2BBC
:106F10005160F9D1002385F8203021460248BDE8B0
:106F2000384072F0EFB800BFF96E000838B504467B
:106F30002DED028B71460F48B0EE408A754672F017
:106F4000CFF894F820200B48531CDBB2062B84F8B2
:106F5000203004EB820288BF002382ED018A29469B
:106F600088BF84F8203072F0CDF8B0EE480ABDEC4E
:106F7000028B38BD2D6F000870B5084D064671466E
:106F80002846744672F0ACF896F840602846C6F37E
:106F90008106214672F0B6F8304670BD796F000860
:106FA00038B5094D71462846744672F099F8074B7A
:106FB0000749186803681B6A984728462146BDE8B8
:106FC000384072F09FB800BFA16F0008487F0020D2
:106FD000E9860A0838B5094D71462846744672F0AC
:106FE0007FF8074B074AD86B116803681B689847FE
:106FF0002846214672F086F8002038BDD56F00087B
:1070000060D90020487F002038B5064D744671468F
:10701000284672F065F82846214672F073F8002081
:1070200038BD00BF09700008F8B50A4D06460F4686
:1070300028467146744672F053F896F8363067F376
:10704000820386F8363028462146BDE8F84072F0C3
:1070500059B800BF2970000870B50B4E0446714640
:107060003046754672F03CF8236820461B69984705
:1070700001462046FDF75AFA29460446304672F08A
:1070800041F8204670BD00BF5970000838B5094D61
:1070900071462846744672F023F8074B0749186872
:1070A00003681B6A98472846214672F02BF8002097
:1070B00038BD00BF8D700008487F0020FE860A089A
:1070C00038B5094D71462846744672F009F8074BE9
:1070D000986B03680021DB6B98472846214672F0C5
:1070E00011F8002038BD00BFC170000860D9002031
:1070F000F8B5084D0F46064671462846744671F0AD
:10710000EFFF3B68336028462146BDE8F84071F048
:10711000F9BF00BFF17000082DE9F04B5D4F5E4DE7
:107120005E4C71463846764671F0DAFFD5F800803D
:10713000D8F8003004F17A00D3F82090FDF7D4F8A5
:10714000B0F900B004F17E00FDF7CEF85A4654497C
:10715000B0F900304046C847D5F80080D8F8003074
:1071600004F19A00D3F82090FDF7BEF8B0F900B012
:1071700004F19E00FDF7B8F85A464A49B0F90030CC
:107180004046C847D5F80080D8F8003004F1BA006E
:10719000D3F82090FDF7A8F8B0F900B004F1BE00D4
:1071A000FDF7A2F85A464049B0F900304046C847BA
:1071B000D5F80080D8F8003004F1DA00D3F8209038
:1071C000FDF792F8B0F900B004F1DE00FDF78CF89D
:1071D0005A463649B0F900304046C847D5F80080D5
:1071E000D8F8003004F1FA00D3F82090FDF77CF8CD
:1071F000B0F900B004F1FE00FDF776F85A462C49CC
:10720000B0F900304046C847D5F80080D8F80030C3
:1072100004F58D70D3F82090FDF766F8B0F900B052
:1072200004F58F70FDF760F85A462249B0F9003036
:107230004046C847D5F80080D8F8003004F59D7066
:10724000D3F82090FDF750F8B0F900B004F59F7026
:10725000FDF74AF85A461849B0F900304046C84789
:107260002D682B6804F5AD70D3F82080FDF73CF84D
:10727000B0F9009004F5AF70FDF736F80F49B0F99A
:1072800000304A462846C04738463146BDE8F04BF4
:1072900071F038BF19710008487F00206414002085
:1072A00029870A0837870A0845870A0853870A0882
:1072B00061870A086F870A087D870A088B870A0892
:1072C00070B504460D462D487146764671F008FFAC
:1072D0002368102D47D8DFE805F0090D12161A1E95
:1072E0002226462A2E3246363A3E42005B6924491F
:1072F000204602E05B6923492046984738E05B69F5
:1073000021492046F9E75B6920492046F5E75B699A
:107310001F492046F1E75B691E492046EDE75B699E
:107320001D492046E9E75B691C492046E5E75B69A2
:107330001B492046E1E75B691A492046DDE75B69A6
:1073400019492046D9E75B6918492046D5E75B69AA
:1073500017492046D1E75B6916492046CDE75B69AE
:1073600015492046C9E71B6A144920462A46984712
:1073700031460248BDE8704071F0C4BEC1720008D9
:1073800099870A08A3870A08A8870A08B1870A0804
:10739000B6870A08D0870A08BD870A08C1870A0885
:1073A000C8870A08CD870A08D7870A08DD870A0830
:1073B000E3870A08E8870A08F1870A08F9870A08B4
:1073C0002DE9F843124C81468846124871467546AD
:1073D000164671F085FE20680F4907684A463F6AE5
:1073E000B84720684146FFF76BFF20680B490368E8
:1073F0001B6A9847206803681B6A0EB1084900E0C1
:107400000849984729460348BDE8F84371F07ABE19
:10741000487F0020C173000802880A080B880A0808
:1074200017880A081B880A0870B5084D7146284657
:10743000744671F055FE0648FEF7D2FD2146064619
:10744000284671F05FFE304670BD00BF2974000809
:10745000341D002038B5064D74467146284671F03B
:107460003FFE2846214671F04DFE002038BD00BF8A
:107470005574000870B5074D744671460646284697
:1074800071F02EFE2846214671F03CFE06F11C00EC
:1074900070BD00BF7574000870B50A4D2DED028BEC
:1074A000714606462846744671F01AFE96ED0C8A1F
:1074B0002846214671F026FEB0EE480ABDEC028B4C
:1074C00070BD00BF9974000838B512487146754602
:1074D00071F006FE1048FEF783FD044698B10F4C8C
:1074E000236813B9FDF75AFB2060FDF757FB2468AA
:1074F0004FF47A73001BB0FBF3F4094B1B889C42DA
:1075000034BF002401240348294671F0FBFD2046C6
:1075100038BD00BFC9740008341D0020107E002053
:107520002484002038B50B487146754671F0D8FDAB
:10753000094B1C783CB1094B1C78033CE4B2012C8C
:107540008CBF002401240348294671F0DBFD20464E
:1075500038BD00BF257500083E1E0020D819002048
:1075600038B571460C48754671F0BAFDFDF716FB4B
:107570000A4B1B68C01A0A4B1A6822EAE272904250
:107580004FF0000488BF1C60034888BF01242946CF
:1075900071F0B8FD204638BD617500080813002061
:1075A0002C7E002038B5064D74467146284671F091
:1075B00097FD2846214671F0A5FD012038BD00BF8A
:1075C000A5750008F8B50A4E07460C4630467146C8
:1075D000754671F085FD94E8070007F11C0383E808
:1075E000070030462946BDE8F84071F08BBD00BF6A
:1075F000C5750008F7B50A4E02AC24ED010A7146C4
:1076000007463046754671F06BFD214607F11000C4
:10761000FDF752FD3046294671F074FD03B0F0BD10
:10762000F575000870B50C4D2DED028B71460646C0
:107630002846744671F054FD06F11000FDF7F8F885
:1076400090ED008A2146284671F05CFDB0EE480AB4
:10765000BDEC028B70BD00BF2576000870B5074DEC
:10766000064671462846744671F03AFD768F2846E4
:10767000214671F047FD304670BD00BF5D760008C1
:1076800070B50F4D064671462846744671F028FDC8
:10769000FDF784FAD6F805609FED0A7A0A4B07EEEB
:1076A000906A67EE877A1860FDEEE77A074BC3EDC4
:1076B000007A28462146BDE8704071F023BD00BF26
:1076C0008176000800007A44081300202C7E0020F8
:1076D00070B50D4D064671462846744671F000FDA2
:1076E000D6F805609FED097A094B07EE906A67EEC0
:1076F000877A2846FDEEE77A2146C3ED007ABDE899
:10770000704071F0FFBC00BFD17600080000C84295
:107710002C7E002038B5064D74462846714671F01F
:10772000DFFC28462146BDE8384071F0EBBC00BFC5
:1077300015770008F7B50C4D06460F4628467146EA
:10774000744671F0CDFC07EE107AF8EE477A02A984
:1077500061ED017A06F10C00FDF7EEF828462146AE
:1077600071F0D0FC03B0F0BD3577000870B5064D60
:10777000744671460646284671F0B2FC28462146FA
:1077800071F0C0FC304670BD6D77000870B5084ED2
:10779000714604463046754671F0A2FC2046FFF75C
:1077A000E5FF3046294671F0ADFC204670BD00BFB4
:1077B0008D77000870B5084E714604463046754610
:1077C00071F08EFC2046FFF7E1FF3046294671F04C
:1077D00099FC204670BD00BFB577000870B5084E13
:1077E000714604463046754671F07AFC2046FFF734
:1077F000BDFF3046294671F085FC204670BD00BFB4
:10780000DD77000870B5084E71460446304675466F
:1078100071F066FC2046FFF7A9FF3046294671F05B
:1078200071FC204670BD00BF0578000870B5084E99
:10783000714604463046754671F052FC2046FFF70B
:1078400095FF3046294671F05DFC204670BD00BFB3
:107850002D78000870B5084E7146044630467546CE
:1078600071F03EFC2046FFF7CDFF3046294671F00F
:1078700049FC204670BD00BF5578000870B5074E22
:10788000044671463046754671F02AFC044B23606D
:107890003046294671F036FC204670BD7D780008E0
:1078A00088750A0870B5094E04467146304675461B
:1078B00071F016FC2046FFF7E1FF054B23603046D0
:1078C000294671F01FFC204670BD00BFA578000856
:1078D00000D80A0870B5094E044671463046754610
:1078E00071F0FEFB002330466370A370E3702371D8
:1078F000294671F007FC204670BD00BFD57800080E
:1079000070B5094E044671463046754671F0E8FB85
:1079100000233046A370E3702371A360294671F001
:10792000F1FB204670BD00BF0179000870B50C4E18
:10793000714604463046754671F0D2FB201DFFF7B4
:10794000B1FF04F11400FFF7C5FF04F11C00FFF7BD
:10795000D7FF3046294671F0D5FB204670BD00BFE9
:107960002D79000870B5084E7146044630467546BC
:1079700071F0B6FB04F12400FDF7EAF93046294620
:1079800071F0C0FB204670BD6579000870B5074EE8
:10799000044671463046754671F0A2FB044B2360E5
:1079A0003046294671F0AEFB204670BD8D79000847
:1079B00038750A0870B50C4E044671463046754657
:1079C00071F08EFB2046FFF7E1FF084B2360002398
:1079D00084F820302046FFF78FFA3046294671F0B0
:1079E00091FB204670BD00BFB579000848750A08B4
:1079F00070B5094E044671463046754671F070FB0D
:107A00002046FFF7D7FF054B23603046294671F02B
:107A100079FB204670BD00BFF179000858750A084F
:107A200070B5094E714604463046754671F058FBF4
:107A30002046FFF79BFE2046FDF78AF9304629468F
:107A400071F060FB204670BD217A000870B50C4EC5
:107A50002DED028B0446F0EE408AB0EE608A75464A
:107A60007146304671F03CFBC4ED008A84ED018A1A
:107A70003046294671F046FBBDEC028B204670BDB6
:107A80004D7A000870B50C4E044671463046754676
:107A900071F026FB4FF07E532362236123600023A5
:107AA000A36063606361E360E361A36130462946DC
:107AB000BDE8704071F026BB857A000870B50C4EA9
:107AC000714604463046754671F00AFB2046FDF7C4
:107AD0003FF904F10C00FDF73BF904F11800FDF744
:107AE00037F93046294671F00DFB204670BD00BFC6
:107AF000BD7A00082DE9F0410A4E04460F46304693
:107B000071467546904671F0EBFA002330462371BA
:107B1000A760C4F80C80294671F0F4FA2046BDE84D
:107B2000F08100BFF57A000870B5084E0446714632
:107B30003046754671F0D4FA0023304623706370E6
:107B4000294671F0DFFA204670BD00BF297B00088E
:107B500070B5084E044671463046754671F0C0FA5D
:107B60000023304623706370294671F0CBFA20461B
:107B700070BD00BF517B0008F8B50B4E04460F46A0
:107B800030467146754671F0ABFA002330462760E7
:107B9000A380A371A360A381E38123746382294638
:107BA00071F0B0FA2046F8BD797B000870B5074D3A
:107BB000064671462846744671F092FA3678284691
:107BC000214671F09FFA304670BD00BFAD7B0008C2
:107BD00070B5074D064671462846744671F080FA26
:107BE00036782846214671F08DFA304670BD00BFC8
:107BF000D17B000870B5074D06467146284674468D
:107C000071F06EFA36782846214671F07BFA3046DC
:107C100070BD00BFF57B000870B5074D0646714684
:107C20002846744671F05CFA36782846214671F091
:107C300069FA304670BD00BF197C000870B5074D69
:107C4000064671462846744671F04AFA3678284648
:107C5000214671F057FA304670BD00BF3D7C0008E8
:107C600070B5074D064671462846744671F038FADD
:107C700036782846214671F045FA304670BD00BF7F
:107C8000617C000870B5074D06467146284674466B
:107C900071F026FA36782846214671F033FA3046DC
:107CA00070BD00BF857C000870B5074D0646714663
:107CB0002846744671F014FA36782846214671F049
:107CC00021FA304670BD00BFA97C000870B5074D91
:107CD000064671462846744671F002FA3678284600
:107CE000214671F00FFA304670BD00BFCD7C000810
:107CF00070B5074D064671462846744671F0F0F996
:107D000036782846214671F0FDF9304670BD00BF37
:107D1000F17C000870B5074D06467146284674464A
:107D200071F0DEF936782846214671F0EBF93046DD
:107D300070BD00BF157D000870B5074D0646714641
:107D40002846744671F0CCF936782846214671F001
:107D5000D9F9304670BD00BF397D000870B5074DB8
:107D6000064671462846744671F0BAF936782846B8
:107D7000214671F0C7F9304670BD00BF5D7D000837
:107D800070B5074D064671462846744671F0A8F94D
:107D900036782846214671F0B5F9304670BD00BFEF
:107DA000817D000870B5074D064671462846744629
:107DB00071F096F936782846214671F0A3F93046DD
:107DC00070BD00BFA57D000870B5074D0646714621
:107DD0002846744671F084F936782846214671F0B9
:107DE00091F9304670BD00BFC97D00082DE9F04112
:107DF0000E46804671460C48754671F071F90B4B82
:107E000000241E60A7B21C2000FB0760FFF7CEFE17
:107E100001340028F6D1064B03481F70294671F043
:107E200071F94046BDE8F081ED7D000824DB0020BB
:107E300020DB002070B5084E71460446304675467A
:107E400071F04EF904F12400FEF7F8FE30462946A1
:107E500071F058F9204670BD357E000870B5074EA8
:107E6000044671463046754671F03AF9044B23607A
:107E70003046294671F046F9204670BD5D7E000807
:107E800010CE0A0870B5074E044671463046754656
:107E900071F026F9044B23603046294671F032F91F
:107EA000204670BD857E0008C8B10A0870B5094E2D
:107EB000044671463046754671F012F9064B236050
:107EC0002046FFF7DFFF3046294671F01BF92046B8
:107ED00070BD00BFAD7E000838B20A0870B5074E0D
:107EE000044671463046754671F0FAF8044B23603B
:107EF0003046294671F006F9204670BDDD7E000847
:107F0000A0AC0A0870B5094E044671463046754665
:107F100071F0E6F8064B23602046FFF79FFF3046DE
:107F2000294671F0EFF8204670BD00BF057F0008BC
:107F3000A0CE0A0870B5094E044671463046754613
:107F400071F0CEF8064B23602046FFF7AFFF3046B6
:107F5000294671F0D7F8204670BD00BF357F000874
:107F6000A8B20A0870B5094E7146044630467546F7
:107F700071F0B6F82046FFF771FF204671F0B8F9AE
:107F80003046294671F0BEF8204670BD657F000876
:107F900070B5094E714604463046754671F0A0F83A
:107FA0002046FFF76FFF204671F0A2F930462946C0
:107FB00071F0A8F8204670BD917F000870B5094E99
:107FC000714604463046754671F08AF82046FFF740
:107FD0006DFF204671F08CF93046294671F092F819
:107FE000204670BDBD7F000870B5094E714604463D
:107FF0003046754671F074F82046FFF76FFF204653
:1080000071F076F93046294671F07CF8204670BD53
:10801000E97F000870B5094E714604463046754642
:1080200071F05EF82046FFF76DFF204671F060F9B1
:108030003046294671F066F8204670BD158000086C
:1080400070B5094E714604463046754671F048F8E1
:108050002046FFF76FFF204671F04AF93046294667
:1080600071F050F8204670BD4180000870B50B4D8E
:1080700071462846744671F033F8094B09481E785A
:10808000FCF782F83146027807481AF01DF92846B5
:108090002146BDE8704071F035B800BF6D80000822
:1080A000D881002072140020B012002038B5094D8C
:1080B00071462846744671F013F807482AF034FFD9
:1080C000064818F0BBFC28462146BDE8384071F050
:1080D00019B800BFAD800008B4830020201E002026
:1080E00070B5714606460B48754670F0F9FF0024DE
:1080F0000948225C1AB1204431464BF0C5FDCC340E
:10810000B4F5197FF4D129460248BDE8704070F0FB
:10811000F9BF00BFE18000087C1A002038B5074D88
:1081200071462846744670F0DBFF1C20FFF7D8FF2D
:1081300028462146BDE8384070F0E4BF1D810008A4
:1081400038B5074D71462846744670F0C9FF0020C7
:10815000FFF7C6FF28462146BDE8384070F0D2BF81
:108160004181000838B50B487146754670F0B8FF7C
:1081700000240948235C1BB1204408494BF030FF20
:10818000CC34B4F5197FF4D129460248BDE8384013
:1081900070F0B8BF658100087C1A00204582000895
:1081A00038B571461D48744670F09AFF1C4B986BA9
:1081B0000368DB6898471B4B1A881B4B1988914250
:1081C00006D01A80194B1860194B00221A7011E062
:1081D000184B1B7873B1154B17491A68821A8A42DB
:1081E0001D46134B01D901211970197811B1134B98
:1081F0009A4205D821460948BDE8384070F082BF50
:1082000028600F48FCF720F90028F3D00C48002123
:1082100029F07CF90A4829F0B3FBEBE7A1810008BB
:1082200060D90020801900202C8400207884002050
:10823000201D00207C0D002080841E0040420F0085
:10824000841E002010B571460446124870F048FFA5
:10825000114B20461C60FCF7E3F8236820461B6C9A
:10826000012198470D4B986B036800215B6905223B
:108270009847FEF723FD0A48FCF7E6F830B10848B6
:10828000002129F043F9064829F07AFB054827F038
:10829000CDFFFBE745820008487F002060D9002021
:1082A000841E0020501E002038B5074D7146284618
:1082B000744670F015FF054827F0B8FF28462146A0
:1082C00070F020FF002038BDA982000828C60020D9
:1082D00038B50A4D71462846744670F001FF084BC8
:1082E0000849186803681B6A9847074827F09EFFEB
:1082F0002846214670F006FF002038BDD1820008D4
:10830000487F002020880A081C13002038B5074D3C
:1083100071462846744670F0E3FE054827F086FF54
:108320002846214670F0EEFE002038BD0D8300087F
:10833000287F002070B5274C27482DED028B714611
:10834000754670F0CDFE6378A678244843EA062689
:10835000E37846EA0346FBF7C7FFB0F9003046F37F
:1083600017069E420DDDA278637843EA0223E27885
:1083700043EA024343F3170307EE903AB8EEE78A65
:1083800008E01648FBF7B0FFB0F9000008EE100A4D
:10839000B8EEC88A124812F097FCC30710D51048EF
:1083A000DFED108AFCF73CFD20EE280AB4EEC08A0F
:1083B000F1EE10FA04D40A48FCF732FD20EE288AC8
:1083C0000548294670F09EFEB0EE480ABDEC028BCF
:1083D00070BD00BFC812002035830008741400204F
:1083E0003C7E00200000C84270B532487146764697
:1083F00070F076FE304B1B781A0754D42F48FBF7E9
:1084000063FF90F90030012B05D02C48FBF75CFF8F
:1084100003785B0644D52A4844F0A0FD20B92948DA
:1084200044F09CFD00283ED02748FBF75DFFB0F9E3
:10843000003040F21454A34235DC2448FBF754FFCB
:10844000B0F9003040F2A365AB422CDD2048FBF7C9
:108450004BFFB0F90030A34225DC1E48FBF744FF78
:10846000B0F90030AB421EDD1548FBF73DFFB0F917
:108470000030A34217DC1348FBF736FFB0F9003099
:10848000AB4210DD1448FBF72FFFB0F90030A342D8
:1084900009DC1248FBF728FFB0F90030AB4202DDDF
:1084A0000120FDF7D7FF31460248BDE8704070F06B
:1084B00029BE00BFE98300080C1D0020CB1400205A
:1084C0001E15002022150020DE140020E2140020DA
:1084D000FE140020021500203E1500204215002049
:1084E00070B5084D714606462846744670F0F8FD92
:1084F00006F1370044F032FD28462146BDE87040C1
:1085000070F000BEE184000870B5094E7146044663
:108510003046754670F0E4FD204627F0CDFB20463E
:1085200027F092F930462946BDE8704070F0EABD68
:1085300009850008F8B506460F460C487146754691
:1085400070F0CEFD00240A48225C22B1204431465E
:108550003A464BF01FFCCC34B4F5197FF3D12946D1
:108560000248BDE8F84070F0CDBD00BF3585000879
:108570007C1A00202DE9F04171462DED028B054655
:108580002648764670F0ACFD254822F081FE27F0A3
:1085900093FB2448B0EE408AFCF74CF8074630B114
:1085A0001DB121490320FFF7C5FF00242DE0FCF792
:1085B00083F8044630B9002DF7D003201B49FFF79C
:1085C000B9FF22E0B5EE408AF1EE10FA06D0DFEDF9
:1085D000187AB4EEE78AF1EE10FA04DD002DE4D04B
:1085E00003201449DFE71448FCF7AEF8804613482F
:1085F000FBF77AFEB0F90030984506DD002DD4D0A7
:1086000003200F49FFF796FF3C460448314670F0BF
:1086100079FDBDEC028B2046BDE8F0817585000830
:1086200030130020E41C00202E880A0841880A0824
:108630000000484255880A08A48000208A140020BF
:108640006A880A082DE9F0412DED028BB74D8CB0F8
:1086500004467146B648774670F042FD2B78DA063C
:1086600000F14181B348FBF72FFE90F9003033B998
:108670000120FDF7CDFE0120FDF7ECFE33E1FFF711
:10868000B3FE2B781B0705D4002C00F02C810320AF
:10869000A94915E0A748FBF717FE90F90030012B18
:1086A00005D0A448FBF710FE03789E071FD5A3480A
:1086B000FBF726FF38B9002C00F01581A0490320F4
:1086C000FFF738FF0FE19F4822F01AFE9E4B9FED07
:1086D0009F7AD3ED007AF8EEE77A30EE670AF0EE93
:1086E000C07AF4EEC77AF1EE10FA00F305819148F2
:1086F000FBF7EAFD90F90030012B05D08D48FBF720
:10870000E3FD03785D074BD591480021FBF70EFF91
:10871000002800F0F6808E4818F076FF002800F060
:10872000F5808B48FBF73EFF07C88DE807006846D9
:1087300027F0C2FADFED877AB4EEE70AF1EE10FA1D
:1087400000F3E9808248FBF75BFF27F0B5FADFED25
:10875000827AB4EEE70AF1EE10FA00F3E180DFED81
:108760007F7AB4EEE70AF1EE10FA00F1D98078488A
:10877000FBF73AFD012813D97548FBF741FF07C8FD
:1087800003AD85E807002846FFF7BEFE4FF000085E
:108790006F48FBF729FD5FFA88F68642C0F0048136
:1087A0006448FBF791FD90F90030012B05D061483A
:1087B000FBF78AFD037818071AD5694B1878FBF781
:1087C000DBFD002840F018816648FBF77DFD90F93D
:1087D0000030032B00F01081634812F091FA00285A
:1087E00000F08180604812F06FFA810700F10B8180
:1087F0005048FBF769FD90F90030012B00F00A8129
:108800004C48FBF761FD0378DA0600F10381494823
:10881000FBF75AFD90F90030012B05D04548FBF7D6
:1088200053FD03789B065BD55048FBF74DFD90F94F
:108830000030002B40F06E814D48FBF745FD90F96C
:108840000030002B40F066814A48FBF73DFD90F96F
:108850000030BBB14848FBF747FDB0F9005047482E
:10886000FBF742FDB0F900300A339D4240F36381CB
:108870004248FBF739FDB0F9002040F28D339A42AF
:1088800040F359813E48FBF72FFDB0F90030B3F5B6
:108890007A7FC0F256813A48FBF726FDB0F90030E6
:1088A000B3F5FA5F00F34D813648FBF7C1FF90ED59
:1088B000008A3548FBF7DCFFB4EEC08AF1EE10FA0F
:1088C00000F345813148FBF7B3FF90ED008A304853
:1088D000FBF7CEFFB4EEC08AF1EE10FA00F3378159
:1088E0000120FDF795FD1248394670F00BFC0CB0E5
:1088F000BDEC028BBDE8F081002CF4D003202549AB
:10890000DEE6002CEFD003202349D9E6002CEAD084
:1089100003202249D4E6002CE5D003202049CFE6ED
:10892000002CE0D003201F49CAE600BF0C1D002028
:1089300045860008CB14002080880A08787E002035
:108940009A880A0830130020D41200200000C84280
:10895000E08100200000FA4300A05A44008039431F
:10896000D8810020881400203C7E0020C9140020FB
:10897000CA140020AE1400201E150020B0140020E0
:10898000687F0020A0160020B8170020A416002041
:10899000BC170020B3880A08C9880A08E5880A08B5
:1089A00004890A0825890A0831466C48FBF714FE39
:1089B00007C806AE86E807003046FFF7A5FD30463B
:1089C000294627F057F809A88DED090ACDED0A0AC6
:1089D0008DED0B1A27F070F9F6EE087AB4EEE70A7F
:1089E000F1EE10FA08F101087FF7D2AE002C3FF447
:1089F0007AAF03205A4963E62046FFF7BBFD002803
:108A00007FF4EAAE6FE72046FFF7B4FD00283FF49D
:108A10006AAFEDE6534823F0F7F828B9002C3FF48D
:108A200062AF032050494BE64E4822F045FF28B97B
:108A3000002C3FF458AF03204C4941E6494824F04C
:108A40004DF9012804D8474822F00EFF50B32FE01B
:108A50004448FBF7A5FE00258046424824F03EF935
:108A6000EEB28642EFD231463E48FBF785FE4146E4
:108A700027F000F809A88DED090ACDED0A0A8DED61
:108A80000B1A27F019F9F7EE007AB4EEE70AF1EEC7
:108A900010FA05F10105E0DD002C3FF424AF0320BE
:108AA00033490DE6002C3FF41EAF0320314907E6A1
:108AB0002C4824F001F901287FF6A9AE00252948A9
:108AC00024F0FAF8EEB28642BFF4A1AE3146254852
:108AD000FBF780FE06462348FBF790FE0146304632
:108AE00026F0C8FF09A88DED090ACDED0A0A8DED23
:108AF0000B1A27F0E1F8DFED207AB4EEE70AF1EE89
:108B000010FA05F10105DADD002C3FF4ECAE03208C
:108B10001A49D5E51A48FBF7D7FB05781948FBF742
:108B2000D3FB03789D427FF48FAE002C3FF4DBAE85
:108B300003201549C4E5002C3FF4D5AE03201349AA
:108B4000BEE5002C3FF4CFAE03201149B8E5002C60
:108B50003FF4C9AE03200F49B2E500BFE081002019
:108B60003D890A08D01700205C890A0877890A081D
:108B700092890A08AE890A083333B33EC8890A08C5
:108B8000C9140020CA140020E3890A08068A0A08CA
:108B9000218A0A08398A0A08F8B5714604465A48F3
:108BA000764670F09DFA5948FBF78EFB90F900303D
:108BB0000BB90124A2E05548FBF786FB90F9003081
:108BC000012B05D05148FBF77FFB0378980712D59E
:108BD0004F4822F095FB4F4B9FED4F7AD3ED007A33
:108BE000F8EEE77A30EE670AF0EEC07AF4EEC77A74
:108BF000F1EE10FA6DDC4548FBF766FB90F90030AA
:108C0000012B05D04148FBF75FFB037819070CD512
:108C1000424B1878FBF7B0FB00285FD14048FBF7C8
:108C200053FB90F90030032B58D03848FBF74CFB2E
:108C300090F90030012B05D03448FBF745FB037851
:108C40009A0612D5374D05F14A00FBF73DFB90F926
:108C5000003053B105F14C00B5F8B070FBF744FBA0
:108C6000B0F900303FB2BB423EDC2848FBF72CFB9A
:108C700090F90030012B05D02448FBF725FB037841
:108C8000DB0617D5284D29482B6983EAE377A7EB44
:108C9000E377FBF729FBB0F900309F4229DC23483A
:108CA0006D69FBF721FBB0F90030002DB8BF6D42B4
:108CB0009D421EDC1E4BD86B03685B6898470128F9
:108CC0007FF477AF1CB11B490320FFF733FC00246E
:108CD00014E0002CFBD003201749F6E72046FFF7ED
:108CE00049FC0028F3D0A0E7002CF0D00320134962
:108CF000EBE7002CEBD003201149E6E702483146B0
:108D000070F000FA2046F8BD998B0008CB140020C3
:108D100030130020D41200200000C842D881002067
:108D2000881400206414002080840020687F0020C4
:108D300060D90020748A0A08B6880A08558A0A0889
:108D4000678A0A0838B5714605460E48744670F0C1
:108D5000C7F9032D10D8DFE805F00205080B032042
:108D6000094907E00320094904E00320084901E01C
:108D700008490320FFF7DEFB21460248BDE83840E2
:108D800070F0C0B9458D0008878A0A08998A0A08D8
:108D9000AB8A0A08BD8A0A0870B5714605461A48AA
:108DA000764670F09DF9FFF71FFB184B1B78C3F355
:108DB000C00434B9164B174ACC2000FB0530032100
:108DC00007E0DC0908D1124B134ACC2000FB053028
:108DD00003214AF0DFFF11E0104BD86B03685B689A
:108DE0009847012809D10A4B0D4ACC2000FB0530D9
:108DF00003214AF0CFFF002400E00124024831465D
:108E000070F080F9204670BD998D00080C1D00207F
:108E10007C1A0020CE8A0A08EC8A0A0860D9002051
:108E20000B8B0A082DE9F041124E04460F463046DE
:108E30007146754670F054F994ED007AD7ED007ADA
:108E4000B4EE677AF1EE10FA0CBF4FF000084FF065
:108E5000010820463946FBF76FFD4146204643F0A6
:108E6000A3FF29460446304670F04CF92046BDE881
:108E7000F08100BF258E00082DE9F041104E044618
:108E80000F4630467146754670F02AF997F9003062
:108E900094F90080B8EB030818BF4FF00108204692
:108EA0003946FCF7D5FC4146204643F07DFF294674
:108EB0000446304670F026F92046BDE8F08100BF38
:108EC000798E00082DE9F041104E04460F463046D9
:108ED0007146754670F004F9B7F90030B4F90080B6
:108EE000B8EB030818BF4FF0010820463946FCF7DD
:108EF00055FE4146204643F057FF2946044630467A
:108F000070F000F92046BDE8F08100BFC58E000872
:108F10002DE9F0410F4E04460F4630467146754626
:108F200070F0DEF83B682168B1EB030818BF4FF022
:108F3000010820463946FEF7DBF84146204643F05B
:108F400033FF29460446304670F0DCF82046BDE881
:108F5000F08100BF118F000838B5074D71462846D3
:108F6000744670F0BDF8054842F048FA284621469C
:108F7000BDE8384070F0C6B8598F0008481F00207F
:108F800010B50A487146744670F0AAF80848FBF715
:108F90009BF990F9003013B1064818F087F8214684
:108FA0000248BDE8104070F0ADB800BF818F0008E6
:108FB0008C140020E0810020F8B51E4E1E4F2DEDD0
:108FC000028B714607F142043046754670F088F80E
:108FD0002046FBF789F9B0F900305B4207EE903A82
:108FE0002046B8EEE78AFBF77FF9B0F90000134C92
:108FF00000EE900AB0EE480AF8EEE00A204610F0C3
:109000004BFB07F14400FBF76FF9B0F9000000EEED
:10901000100A2046B8EEC00A10F07AFB204611F084
:109020004DF83046294670F06DF8BDEC028B0120FA
:10903000F8BD00BFB98F000864140020747F0020C1
:10904000F8B51E4E1E4F2DED028B714607F14204FE
:109050003046754670F044F82046FBF745F9B0F904
:1090600000305B4207EE903A2046B8EEE78AFBF705
:109070003BF9B0F90000134C00EE900AB0EE480A3C
:10908000F8EEE00A204610F007FB07F14400FBF77A
:109090002BF9B0F9000000EE100A2046B8EEC00A25
:1090A00010F036FB204611F009F83046294670F0E2
:1090B00029F8BDEC028B0120F8BD00BF41900008EB
:1090C00064140020747F002070B529482DED028BB8
:1090D0007146764670F004F8264B93F9003033F071
:1090E000020201D000253AE0234CB4F9B230002B43
:1090F000F8DD2248FBF7A8F905460028F2D0204BFE
:109100001B7803F0A003202BECD104F14200FBF705
:10911000EBF8B0F900305B4207EE903A04F1420000
:10912000B8EEE78AFBF7E0F8B0F9000000EE900A2D
:10913000B0EE480AF8EEE00A124810F0ADFA04F179
:109140004400FBF7D1F8B0F9000000EE100A0D481A
:10915000B8EEC00A10F0DCFA0A4810F0AFFF04487D
:1091600031466FF0CFFFBDEC028B284670BD00BFCB
:10917000C9900008D881002064140020841E0020BB
:109180000C1D0020747F002038B571462DED028B38
:109190000546264874466FF0A3FFFBF78DFA08B921
:1091A0002DB93BE0224822F04FF90028F8D0214B9E
:1091B000214800221A70FBF793FD204810F0BEFBF7
:1091C0001D48FBF7A9FD1D4810F090FB1C48FBF75C
:1091D0008BF8B0F900301A485B4207EE903AB8EECF
:1091E000E78AFBF781F8B0F9000000EE900AB0EED4
:1091F000480AF8EEE00A114810F04EFA1148FBF761
:1092000073F8B0F9000000EE100A0C48B8EEC00A7E
:1092100010F07EFA0C4812F0D9FB012503482146D4
:109220006FF070FFBDEC028B284638BD89910008B5
:109230003013002072190020341D0020747F00209C
:10924000A6140020A81400203884002070B57146B0
:109250002DED028B06461E4875466FF041FFFBF769
:109260002BFA044600B956B31A4812F09BFD1A486F
:10927000FBF73AF8B0F9003017485B4207EE903A36
:10928000B8EEE78AFBF730F8B0F9000000EE900A7C
:10929000B0EE480AF8EEE00A104810F0FDF9104868
:1092A000FBF722F8B0F9000000EE100A0B48B8EE08
:1092B000C00A10F02DFA094810F000FF01240448FC
:1092C00029466FF01FFFBDEC028B204670BD00BF2A
:1092D0004D920008341D0020A6140020747F002049
:1092E000A814002070B571462DED028B0646394852
:1092F00075466FF0F5FEFBF7DFF9044608B9002E5E
:1093000060D03548354CFAF7EFFFB0F900303248FD
:109310005B4207EE903AB8EEE78AFAF7E5FFB0F95C
:10932000000000EE900AB0EE480AF8EEE00A2C4881
:1093300010F0B2F92B48FAF7D7FFB0F9000000EEB1
:10934000100A2748B8EEC00A10F0E2F9244810F0DD
:10935000B5FE002324486380A380FAF7C5FFB0F967
:109360000000DFED227A224B06EE900AF8EEE66A64
:10937000B2EE0E7AE6EE877A1B789FED1E7A67EEE4
:10938000877ADA09C4ED027A237809D0042262F3DD
:10939000020362F3C5031848237012F003FD04E0D2
:1093A00062F3020362F3C50323706378134843F04A
:1093B00001036370FBF794FD0023A385E38584F824
:1093C00031300124034829466FF09CFEBDEC028B2E
:1093D000204670BDE5920008A6140020641200200B
:1093E000747F0020A81400209A1400200000BE42C0
:1093F0000C1D00200AD7233C341D002088120020B9
:1094000010B52DED028B1F4884B0714674466FF085
:1094100067FEFBF751F91C4B187058B101A8FBF718
:1094200097FC1A4801A912F02BFD184801A9012246
:1094300012F066FC1548FBF79FFC1448B0EE408A1A
:10944000FBF7B6FC1248F0EE400AB0EE480A10F006
:1094500023F90E48FBF7C8FC0D4810F059F90C48E9
:1094600010F02CFEFBF79AFB0A4B18600A4B0548DC
:10947000002221461A706FF045FE012004B0BDECB9
:10948000028B10BD019400088A190020341D0020B1
:10949000747F002018130020C08100202DE9F041C6
:1094A00071462DED068B80464B484C4D4C4E4D4C35
:1094B0007746F0EE408AB0EE609A6FF011FEFBF74F
:1094C0006DFB494A1168411AB1F57A7F034618D9F4
:1094D000B6F90010A07807EE101A617841EA002171
:1094E000E07841EA004141F3170107EE901AB8EE27
:1094F000C77AF8EEE77A77EE677A77EEA87AC5ED65
:10950000007A07EE908AB8F1000F1360B8EEE78A90
:1095100004DA364B1B7B13F0040F04E00AD0334B04
:109520001B7B13F0080F05D1D5ED007AE8EE097A20
:10953000C5ED007AB6F900102D48D5ED009A09EE78
:10954000101AFCF7DFFBB6F900302948B8EEC99ACB
:109550000AEE103A39EE409AFCF7ECFBB8EECAAAD4
:10956000F0EE490A30EE0A1AB0EE690A24F07AF8F1
:10957000A2786378B6F900601E4885ED000A43EAD8
:109580000223E27843EA024343F3170307EE903ADB
:10959000B8EEE77A07EE906AF8EEE77A77EE677A48
:1095A00077EEE88A78EE808AFBF742F990ED000AC0
:1095B000DFED110A9FED111A28EE800A24F052F80F
:1095C0000548F0EE408A39466FF09CFD38EE880A77
:1095D000BDEC068BBDE8F0819D9400088419002045
:1095E000147E0020C8120020347E0020841E00203B
:1095F000747F002078140020000016C3000016437A
:10960000F8B5194D2DED028B0646B0EE408A28467E
:109610000F46714674466FF063FDB0EE480ADFED09
:10962000130AB7EE001A24F01DF828462146B0EEC2
:10963000408A6FF067FD06EE907AB7EE007A37EE5B
:10964000487AF8EEE67A06EE906A67EE277AB8EE88
:10965000E67AE8EE077ABDEC028BFDEEE77A17EECC
:10966000900A00B2F8BD00BF01960008000000009B
:1096700030B52DED048B044683B0484871467546DD
:109680006FF02EFD002C5AD04548FAF72DFEB0F9A8
:109690000030B3F5FA7F52D000214FF47A722046A1
:1096A00023F066FF04463E48FAF71EFE4FF496711B
:1096B0004FF42F72B0F9000023F05AFF02A921F8ED
:1096C000020D3748FBF7AAFCB4F5FA7F40DA3548BB
:1096D000FAF70AFEB0F9000008EE100A3148FAF76E
:1096E00003FEB0F900302E48E41A06EE904AB8EEB8
:1096F000E69AFAF7F9FDB0F900402A48FAF7F4FDC6
:10970000B0F900302748E31A08EE903AFAF7ECFD7A
:10971000B0F90030C3F5FA73F8EEE88A07EE103AB4
:1097200068EE898AF8EEC77AB8EEC88AC8EEA78ACA
:1097300038EE888ABDEEC88A18EE104AA4B21748DF
:1097400029466FF0DFFC20B203B0BDEC048B30BDC6
:1097500013481FD0FAF7C8FDB0F9000008EE100A50
:109760000F48FAF7C1FDA4F5FA74B0F90030DFED47
:109770000E7A07EE104AC3F57A73B8EEC77A06EE92
:10978000903A27EE277AB8EEC88AF8EEE67AA7EE86
:10979000278ACFE7FAF7A8FD0488D0E7719600087A
:1097A000B4140020AA1400206F12033B2DE9F04BE3
:1097B00080460E46304871461D46744617466FF087
:1097C0008FFC40462D4941F2941223F0D1FE41F224
:1097D00094122A498046304623F0CAFE064628489D
:1097E000FAF782FDB0F9002041F294139A4203D1B6
:1097F000A7F800802E8039E02148DFF88CB0DFF830
:109800008C90FAF771FDBBF90030B0F900209A4254
:1098100014D01B48FAF768FD03881948ABF80030EC
:10982000FAF762FDB0F900009FED167A07EE900A94
:10983000F8EEE77A67EE877AC9ED007A06EE908A4D
:10984000D9ED007AB8EEE67A06EE906A27EE277A2E
:10985000BDEEC77A17EE103AB8EEE67A3B8067EEB7
:10986000277AFDEEE77A17EE903A2B8021460248E0
:10987000BDE8F04B6FF046BCAD9700086CEEFFFF03
:10988000687F00205304693970190020800D002082
:10989000F7B505467146324876466FF021FC314BEC
:1098A0001C78C4F34004002C52D121464FF47A7244
:1098B000284623F05DFE05462B48FAF715FD4FF4C8
:1098C000C8722146B0F9000023F052FE02A921F827
:1098D000020D2548FBF7A2FB2348FAF705FDB0F976
:1098E0000030C3F5FA739D420EDA2048FAF7FCFC0B
:1098F000B0F900701C48FAF7F7FCB0F90040A4F585
:10990000FA7425447D4316E01748FAF7EDFCB0F9E8
:10991000003003F5FA739D4217DD1448FAF7E4FCB2
:10992000B0F900401048FAF7DFFC114BB0F9002005
:109930009B1A1D4465430C48FAF7D6FCB0F9004069
:10994000C4F5FA7495FBF4F4A4B20A4B1C8000E051
:109950000024034831466FF0D5FB20B203B0F0BDC0
:1099600091980008701F0020B6140020A614002053
:109970000CFEFFFF1A7F002070B52DED048B04460E
:1099800082B04048714675466FF0AAFB002C6FDD2F
:1099900000214FF47A72204623F0EAFD04463A484B
:1099A000FAF7A2FC4FF42F724FF49671B0F9000051
:1099B00023F0DEFD02A921F8020D3348FBF72EFB50
:1099C0003248FAF791FC0688FCF79AF836B28642DC
:1099D00004DD2E48FAF788FC04884AE02C48FAF7A0
:1099E00083FCB0F9003003F2F313A3423CDB2748B9
:1099F000FAF77AFCB0F9000008EE100A2348FAF7EB
:109A000073FCB0F90030E41A07EE104AB8EEC79ABA
:109A1000FCF776F804461D48FAF766FCB0F900300A
:109A20001B48E31A08EE903AFAF75EFCB0F90040E2
:109A30001648FAF759FCB0F9003004F5FA74E41A44
:109A400007EE104AF8EEE88AF8EEC77A68EE898ADF
:109A5000B8EEC88AC8EEA78A38EE888ABDEEC88AF2
:109A600018EE104AA4B204E0FCF74AF8044600E0FD
:109A70000024044829466FF045FB20B202B0BDEC3B
:109A8000048B70BD79990008B4140020AA1400203A
:109A9000B6140020F8B571462DED028B0446284817
:109AA000B0EE408A75466FF01BFB2648FAF71CFCA7
:109AB000B0F90020DFED246A9FED247A042392FBA5
:109AC000F3F39BB21AB2002A214AB5EEC08AD2ED56
:109AD000027A2288D8BF0123F1EE10FA67EEC87A25
