:020000040800F2
:10400000A41D0120CD970708099F0708099F0708ED
:10401000099F0708099F0708099F0708099F0708C4
:10402000099F0708099F0708099F0708099F0708B4
:10403000099F0708099F0708099F0708099F0708A4
:10404000099F0708099F0708099F0708099F070894
:10405000099F0708099F0708099F0708099F070884
:10406000099F0708099F0708099F0708099F070874
:10407000099F0708099F0708099F0708099F070864
:10408000099F0708099F0708099F0708099F070854
:10409000099F0708099F0708099F0708099F070844
:1040A000099F0708099F0708099F0708099F070834
:1040B000099F0708099F0708099F0708099F070824
:1040C000099F0708099F0708099F0708099F070814
:1040D000099F0708099F0708099F0708099F070804
:1040E000099F0708099F0708099F0708099F0708F4
:1040F000099F0708099F0708099F0708099F0708E4
:10410000099F0708099F0708099F0708099F0708D3
:10411000099F0708099F0708099F0708099F0708C3
:10412000099F0708099F0708099F0708099F0708B3
:10413000099F0708099F0708099F0708099F0708A3
:10414000099F0708099F0708099F0708099F070893
:10415000099F0708099F0708099F0708099F070883
:10416000099F0708099F0708099F0708099F070873
:10417000099F0708099F0708099F0708099F070863
:10418000099F0708099F070870B5064D74467146D8
:104190000646284676F074F92846214676F082F9DC
:1041A000304670BD8941000838B5064D74467146E9
:1041B000284676F065F92846214676F073F9002006
:1041C00038BD00BFA941000838B5064D74462846E1
:1041D000714676F055F928462146BDE8384076F01C
:1041E00061B900BFC941000870B5074D0646714668
:1041F0002846744676F044F996F8816128462146AF
:1042000076F050F9304670BDE9410008F8B5084D28
:10421000064674460F462846714676F031F986F810
:10422000E17028462146BDE8F84076F03BB900BF72
:104230000D420008F8B5084D064674460F4628465C
:10424000714676F01DF986F8807128462146BDE852
:10425000F84076F027B900BF35420008F8B50446AB
:1042600071460E4804F13206754676F009F930467B
:10427000676CFFF789FF01783846FFF7C7FFA46B2B
:1042800034B13046FFF780FF01782046FFF7D2FFB8
:1042900029460248BDE8F84076F004B95D420008BE
:1042A00070B5084D714606462846744676F0E8F823
:1042B0003046FFF7D3FF28462146BDE8704076F030
:1042C000F1B800BFA142000870B5064D74467146B2
:1042D0000646284676F0D4F82846214676F0E2F8DD
:1042E000304670BDC942000870B5064D744671462F
:1042F0000646284676F0C4F82846214676F0D2F8DD
:10430000304670BDE942000870B5074D064671465B
:104310002846744676F0B4F896F808612846214697
:1043200076F0C0F8304670BD0943000870B5084DFE
:10433000714606462846744676F0A2F83046FFF7E6
:10434000C3FF06782146284676F0ACF8304670BDAB
:104350002D43000870B5074D744671460646284641
:1043600076F08EF82846214676F09CF806F1580043
:1043700070BD00BF5543000838B5714604460C486F
:10438000754676F07DF8E01EC0B20D2808D80123EE
:10439000834042F21F101840041C18BF012400E0A3
:1043A00000240348294676F07DF8204638BD00BF3A
:1043B0007943000870B5074D744671460646284695
:1043C00076F05EF82846214676F06CF806F1680033
:1043D00070BD00BFB543000870B5074D7446714607
:1043E0000646284676F04CF82846214676F05AF8DC
:1043F00006F18C0070BD00BFD943000870B5074DB1
:10440000744671460646284676F03AF82846214614
:1044100076F048F806F1B00070BD00BFFD4300081B
:1044200070B5074D064671462846744676F028F862
:10443000044B1E6028462146BDE8704076F032B835
:104440002144000838DB002070B5084D064671464F
:104450002846744676F014F8767B284606F0010666
:10446000214676F01FF8304670BD00BF4944000871
:1044700070B50A4D2DED028B7146064628467446EE
:1044800075F0FEFF96ED078A2846214676F00AF879
:10449000B0EE480ABDEC028B70BD00BF714400084D
:1044A00070B50A4D2DED028B7146064628467446BE
:1044B00075F0E6FF96ED098A2846214675F0F2FF71
:1044C000B0EE480ABDEC028B70BD00BFA1440008ED
:1044D00070B50A4D2DED028B71460646284674468E
:1044E00075F0CEFF96ED0A8A2846214675F0DAFF70
:1044F000B0EE480ABDEC028B70BD00BFD14400088D
:1045000070B5094D064671462846744675F0B8FFE9
:10451000367906F00306F31E5E425E4128462146C8
:1045200075F0C0FF304670BD01450008F8B507467C
:10453000074D0E463E4471462846744675F0A0FF6E
:10454000767B2846214675F0ADFF3046F8BD00BFAA
:104550002D45000870B5064D74467146064628463E
:1045600075F08EFF2846214675F09CFF304670BDE1
:1045700055450008F8B50A4D06460F4628467146CF
:10458000744675F07DFF0C2303FB07602C30FFF7AA
:10459000E1FF21460646284675F084FF3046F8BD07
:1045A0007545000870B50B4E044671463046754699
:1045B00075F066FF236820461B6998470146204630
:1045C000FFF7D8FF29460446304675F06BFF2046BA
:1045D00070BD00BFA5450008F8B5084D74460646F5
:1045E0000F462846714675F04BFF2846214675F068
:1045F00059FF0C2303FB07601030F8BDD9450008B4
:1046000070B50B4E044671463046754675F038FF5E
:10461000236820461B69984701462046FFF7DCFFC8
:1046200029460446304675F03DFF204670BD00BF68
:104630000146000870B5084D064671462846744686
:1046400075F01EFF36792846C6F34006214675F000
:1046500029FF304670BD00BF35460008F8B5094D4A
:104660000F46064671462846744675F009FF382302
:1046700003FB07662846767F214675F013FF304618
:10468000F8BD00BF5D46000870B50A4D064671468C
:104690002846744675F0F4FE96F89410304601F002
:1046A0000301FFF7DBFF21460646284675F0FAFEB8
:1046B000304670BD8946000838B5124871467446C8
:1046C00075F0DEFE104B1B78D80714D50F48FFF7A6
:1046D000DBFF02280FD90E48FFF7ACFF58B90D4B8E
:1046E0001B78190707D40C4A5278D20703D49B06CB
:1046F00001D4012500E000250248214675F0D2FED4
:10470000284638BDB94600083C1D0020D480002052
:10471000141D0020A41F00202C130020F8B5094D03
:104720000F46064671462846744675F0A9FE3823A2
:1047300007FB03331E442846B688214675F0B2FEB7
:104740003046F8BD1D47000870B50A4D0646714653
:104750002846744675F094FE96F89410304601F0A1
:104760000301FFF7DBFF21460646284675F09AFE57
:10477000304670BD4947000870B5064D7446714615
:104780000646284675F07CFE2846214675F08AFECE
:10479000304670BD7947000870B5064D74467146C5
:1047A0000646284675F06CFE2846214675F07AFECE
:1047B000304670BD9947000870B50B4D2DED028B4A
:1047C000714606462846744675F05AFE3046FFF795
:1047D000E3FF90ED008A2146284675F063FEB0EEB7
:1047E000480ABDEC028B70BDB947000838B5714668
:1047F00004460B48754675F043FE0D2C09D801237D
:1048000003FA04F442F6030323401C1C18BF0124DE
:1048100000E000240248294675F044FE204638BDD9
:10482000ED47000870B5084D0646714628467446A7
:1048300075F026FE337C43F01C0333742846214672
:10484000BDE8704075F02EBE2548000870B50B4DD0
:10485000714606462846744675F012FE06F10C00B5
:10486000FFF732FD90F90060003618BF0126284698
:10487000214675F017FE304670BD00BF4D48000858
:10488000F8B5084D0F46064671462846744675F041
:10489000F7FD3B68336028462146BDE8F84075F0D7
:1048A00001BE00BF81480008F7B50A4E02AC24EDF6
:1048B000010A714607463046754675F0E1FD3846F7
:1048C0002146FFF7DDFF3046294675F0EBFD03B0CA
:1048D000F0BD00BFA9480008F7B50A4E02AC24EDB0
:1048E000010A714607463046754675F0C9FD381D08
:1048F0002146FFF7C5FF3046294675F0D3FD03B0CA
:10490000F0BD00BFD9480008F7B50A4E02AC24ED4F
:10491000010A714607463046754675F0B1FD07F14C
:1049200008002146FFF7ACFF3046294675F0BAFD76
:1049300003B0F0BD09490008F7B50A4E02AC24EDFA
:10494000010A714607463046754675F099FD3846AE
:104950002146FFF795FF3046294675F0A3FD03B0C9
:10496000F0BD00BF3949000870B50B4D2DED028B2D
:10497000714606462846744675F082FD3046FFF7BC
:104980000BFF90ED008A2146284675F08BFDB0EEB6
:10499000480ABDEC028B70BD6949000870B50B4D2B
:1049A0002DED028B714606462846744675F068FD6B
:1049B000301DFFF7F1FE90ED008A2146284675F084
:1049C00071FDB0EE480ABDEC028B70BD9D49000838
:1049D00070B50C4D2DED028B714606462846744687
:1049E00075F04EFD06F10800FFF7D6FE90ED008A47
:1049F0002146284675F056FDB0EE480ABDEC028B04
:104A000070BD00BFD1490008F8B50A4D06460F46F3
:104A100028467146744675F033FD96F8363067F3D4
:104A2000410386F8363028462146BDE8F84075F047
:104A300039BD00BF094A0008F8B5074D064674465F
:104A40000F462846714675F01BFD777228462146B1
:104A5000BDE8F84075F026BD394A0008F8B50A4DA2
:104A600006460F4628467146744675F009FD96F8CD
:104A7000363067F3C30386F8363028462146BDE852
:104A8000F84075F00FBD00BF5D4A0008F8B50A4D4B
:104A900006460F4628467146744675F0F1FC96F8B6
:104AA000363067F3451386F8363028462146BDE890
:104AB000F84075F0F7BC00BF8D4A000838B5074DC7
:104AC00071462846744675F0DBFC0548FFF77CFB11
:104AD00028462146BDE8384075F0E4BCBD4A0008D0
:104AE000A87E002070B5094D71462846744675F0C1
:104AF000C7FC074B986B03689B689847214606469E
:104B0000284675F0CFFC304670BD00BFE54A00086E
:104B100084D9002070B5094D064671462846744672
:104B200075F0AEFC064B1A7866F304121A7028462C
:104B30002146BDE8704075F0B5BC00BF154B0008BC
:104B4000A41F002070B50C4D2DED028B714606465A
:104B50002846744675F094FC06F12400FFF70CFE1D
:104B600090ED008A2146284675F09CFCB0EE480A7C
:104B7000BDEC028B70BD00BF454B000838B5064D3B
:104B800074467146284675F07BFC2846214675F030
:104B900089FC012038BD00BF7D4B000870B50A4D6F
:104BA0002DED028B0646B0EE408A284671467446CB
:104BB00075F066FC86ED1C8ABDEC028B284621460A
:104BC000BDE8704075F06EBC9D4B000838B5084DCF
:104BD00071462846744675F053FC9FED060A064858
:104BE000FFF7DCFF2846214675F05CFC012038BD4C
:104BF000CD4B000800000000A47F002070B5094DD7
:104C0000714606462846744675F03AFC06F10800DF
:104C1000FFF76AFB06882146284675F043FC3046BC
:104C200070BD00BFFD4B000870B50C4D2DED028B23
:104C3000714606462846744675F022FC06F11800B7
:104C4000FFF79AFD90ED008A2146284675F02AFC70
:104C5000B0EE480ABDEC028B70BD00BF294C0008C5
:104C600070B50C4D2DED028B7146064628467446F4
:104C700075F006FC06F12800FFF78EFD90ED008A26
:104C80002146284675F00EFCB0EE480ABDEC028BBA
:104C900070BD00BF614C000870B5084E04467146F7
:104CA0003046754675F0ECFB00233046A360636028
:104CB0002360294675F0F6FB204670BD994C00082C
:104CC00070B50C4D2DED028B714606462846744694
:104CD00075F0D6FB06F12000FFF74EFD90ED008A3F
:104CE0002146284675F0DEFBB0EE480ABDEC028B8B
:104CF00070BD00BFC14C000870B50C4D2DED028B8E
:104D0000714606462846744675F0BAFB06F11C004B
:104D1000FFF732FD90ED008A2146284675F0C2FB70
:104D2000B0EE480ABDEC028B70BD00BFF94C000824
:104D300070B50C4D2DED028B714606462846744623
:104D400075F09EFB06F12C00FFF716FD90ED008A32
:104D50002146284675F0A6FBB0EE480ABDEC028B52
:104D600070BD00BF314D000870B5104E2DED028BA7
:104D7000714604463046754675F082FB04F1080022
:104D8000FFF7FAFC90ED008A04F11000FFF7F4FC45
:104D9000D0ED007A38EE678A3046294675F082FBFE
:104DA000B0EE480ABDEC028B70BD00BF694D000833
:104DB00070B5074D744671460646284675F060FB8F
:104DC0002846214675F06EFB06F19C0070BD00BFC1
:104DD000B14D0008F8B5094D06460F462846714604
:104DE000744675F04DFB337867F341033370284602
:104DF0002146BDE8F84075F055BB00BFD54D000811
:104E000038B5714605460748744675F039FBFFF71B
:104E100053FC2146002818BF0546024875F042FBA6
:104E2000284638BD014E000870B5084D064671464B
:104E30002846744675F024FB0023736033602846CF
:104E40002146BDE8704075F02DBB00BF294E00081B
:104E500038B523487146744675F012FB214B93ED2B
:104E6000000AB5EE400AF1EE10FA33D01E4DD5ED32
:104E7000007AF5EE407AF1EE10FA2BD01B48FFF7DE
:104E800013FD1B4B194893ED000AFFF725FD194B45
:104E9000164893ED000AFFF737FD174B174893EDBF
:104EA000000AFFF749FD164895ED000AFFF7FCFCE4
:104EB000144B134893ED000AFFF70EFD124B1048F8
:104EC00093ED000AFFF720FD104B114893ED000A07
:104ED000FFF732FD21460248BDE8384075F0E2BADE
:104EE000514E0008407F0020381D0020DC160020B5
:104EF000647E00205C7E002060840020E417002097
:104F0000FC160020101A00205C1D0020CC1200208E
:104F1000E8170020F8B5094D06460F4628467146A9
:104F2000744675F0ADFA337967F3000333712846A0
:104F30002146BDE8F84075F0B5BA00BF154F00082E
:104F400070B5074D064671462846744675F098FAC6
:104F500036782846214675F0A5FA304670BD00BF68
:104F6000414F0008F8B5084E0F46044671463046DA
:104F7000754675F085FA3B8823803046294675F0E2
:104F800091FA2046F8BD00BF654F000870B50A4D84
:104F90002DED028B0646B0EE408A284671467446D7
:104FA00075F06EFA86ED048ABDEC028B2846214628
:104FB000BDE8704075F076BA8D4F0008F8B50E4D1B
:104FC0000E4E714607462846744675F059FA06F1AA
:104FD0004E00FFF789F9B0F90030FB1A00EE103AE5
:104FE00006F53B70B8EEC00AFFF7D0FF2846214611
:104FF000BDE8F84075F056BABD4F00089414002083
:10500000F8B5084E0F46044671463046754675F0B1
:1050100037FA3B6823603046294675F043FA20464C
:10502000F8BD00BF01500008F7B50A4E02AC24EDF0
:10503000010A714607463046754675F021FA214649
:1050400007F11400FFF7DCFF3046294675F02AFA15
:1050500003B0F0BD29500008F8B5084E0F460446CD
:1050600071463046754675F00BFA3B782370304632
:10507000294675F017FA2046F8BD00BF59500008C0
:10508000F7B50A4E02AC24ED010A714607463046D8
:10509000754675F0F5F9214607F12C00FFF7B0FFD2
:1050A0003046294675F0FEF903B0F0BD8150000886
:1050B00070B50E4E2DED048B0446B0EE409AF0EE26
:1050C000608AB0EE418A75467146304675F0D8F96F
:1050D00084ED009AC4ED018A84ED028A30462946A7
:1050E00075F0E0F9BDEC048B204670BDB1500008AE
:1050F00070B5084D064671462846744675F0C0F9ED
:1051000036792846C6F34006214675F0CBF930467D
:1051100070BD00BFF150000870B504460E460B4844
:105120007146754675F0ACF994F840300748C3F302
:1051300081039E42B6BF04EBC604002494F82C40C1
:10514000294675F0AFF9204670BD00BF195100081F
:1051500070B50A4D064671462846744675F090F9BA
:1051600096F84010304601F00301FFF7D5FF2146C5
:105170000646284675F096F9304670BD5151000834
:10518000F8B50F46074D064606EBC706714628469A
:10519000744675F075F9368D2846214675F082F90A
:1051A0003046F8BD8151000870B50A4D064671467B
:1051B0002846744675F064F996F84010304601F0C0
:1051C0000301FFF7DDFF21460646284675F06AF920
:1051D000304670BDA9510008F8B50A4D06460F4685
:1051E00028467146744675F04BF906EB47001E30B1
:1051F000FFF77AF806882146284675F053F930B251
:10520000F8BD00BFD951000870B50A4D0646714679
:105210002846744675F034F996F84010304601F08F
:105220000301FFF7D9FF21460646284675F03AF9F3
:10523000304670BD09520008F8B50A4D06460F46C3
:1052400028467146744675F01BF906EB470022307C
:10525000FFF74AF806882146284675F023F930B250
:10526000F8BD00BF3952000870B50A4D06467146B8
:105270002846744675F004F996F84010304601F05F
:105280000301FFF7D9FF21460646284675F00AF9C3
:10529000304670BD6952000870B5074D064671462C
:1052A0002846744675F0ECF8B6F894602846214616
:1052B00075F0F8F830B270BD9952000870B50A4D1B
:1052C0002DED028B714606462846744675F0D8F8D7
:1052D00096ED1C8A2846214675F0E4F8B0EE480A9F
:1052E000BDEC028B70BD00BFBD52000870B50A4D09
:1052F0002DED028B714606462846744675F0C0F8BF
:1053000096ED2C8A2846214675F0CCF8B0EE480A76
:10531000BDEC028B70BD00BFED52000870B50A4DA8
:105320002DED028B714606462846744675F0A8F8A6
:1053300096ED2F8A2846214675F0B4F8B0EE480A5B
:10534000BDEC028B70BD00BF1D530008F8B5084DC1
:10535000744606460F462846714675F091F8284671
:10536000214675F09FF8382303FB07602630F8BD0F
:105370004D53000870B50A4D0646714628467446DE
:1053800075F07EF896F89410304601F00301FFF7AF
:10539000DDFF21460646284675F084F8304670BD8C
:1053A00075530008F8B5084D064674460F46284662
:1053B000714675F065F886F8287028462146BDE8E4
:1053C000F84075F06FB800BFA5530008F8B50A4D56
:1053D00006460F4628467146744675F051F80C2370
:1053E00003FB0760BC30FFF7B5F8214606462846A8
:1053F00075F058F83046F8BDCD53000870B50B4E27
:10540000044671463046754675F03AF823682046E2
:105410001B6D984701462046FFF7D8FF29460446F2
:10542000304675F03FF8204670BD00BFFD530008C0
:105430002DE9FF4BDFF8648071464046774675F0F2
:105440001FF81348FFF7DAFF124B06460068D3F83F
:105450000090A2F009FD04467068D9F800B00D462E
:10546000A2F002FDCDE90001B068A2F0FDFCCDE99B
:10547000020122464846DBF8206007492B46B04728
:105480004046394604B0BDE8F04B75F00BB800BF9C
:1054900000180020787F002044A30A083154000837
:1054A000F8B50A4D06460F4628467146744674F014
:1054B000E7FF0C2303FB07609830FFF74BF821460A
:1054C0000646284674F0EEFF3046F8BDA1540008A9
:1054D00070B50B4E044671463046754674F0D0FFE9
:1054E00023682046DB6C984701462046FFF7D8FF2B
:1054F00029460446304674F0D5FF204670BD00BFF3
:10550000D1540008F8B50A4D06460F4628467146A4
:10551000744674F0B5FF0C2303FB07607430FFF78B
:1055200019F821460646284674F0BCFF3046F8BDFF
:105530000555000870B50B4E044671463046754659
:1055400074F09EFF23682046DB6C98470146204696
:10555000FFF7D8FF29460446304674F0A3FF2046E3
:1055600070BD00BF355500082DE9F04BDFF8909075
:10557000204C8CB071464846F04674F081FF2046BE
:10558000FFF7A6FF07462046FFF7D4FF1A4BD3F8D4
:1055900000B00646DBF8003038680B93A2F064FCDC
:1055A000044678680D46A2F05FFCCDE90001B868BA
:1055B000A2F05AFCCDE902013068A2F055FCCDE919
:1055C00004017068A2F050FCCDE90601B068A2F0B9
:1055D0004BFCCDE908010B9B08491E6A5846224640
:1055E0002B46B047484641460CB0BDE8F04B74F03E
:1055F00059BF00BF00180020787F002060A30A0870
:105600006955000870B5084D71460646284674462F
:1056100074F036FF3046FEF757FE067821462846DE
:1056200074F040FF304670BD0556000870B5084D57
:10563000714606462846744674F022FF701CFEF739
:1056400043FE06782146284674F02CFF304670BD94
:105650002D56000870B5084D71460646284674461A
:1056600074F00EFFF01CFEF72FFE06782146284648
:1056700074F018FF304670BD5556000870B5084DDF
:10568000714606462846744674F0FAFEB01CFEF7D2
:105690001BFE06782146284674F004FF304670BD94
:1056A0007D56000838B5714604460A48754674F0C0
:1056B000E7FEB4F5966F05DBB4F5E16FD4BF0124C6
:1056C000022400E000240348294674F0EBFE204643
:1056D00038BD00BFA5560008F7B50A4D06460F466F
:1056E00028467146744674F0CBFE02A9301D01F8BD
:1056F000017DFFF7B1FC2846214674F0D3FE03B0CC
:10570000F0BD00BFD956000838B51548714675463A
:1057100074F0B6FE134BB3F9EC3040F2CE42934234
:1057200011DDB3F5AA6F10DD40F2D25293420EDDC7
:1057300040F2546293420CDD40F2D564A342CCBFE8
:105740000524042406E0002404E0012402E00224ED
:1057500000E003240248294674F0A4FE204638BD28
:105760000957000894140020F8B5084D0F46064666
:1057700071462846744674F083FE3B7833702846A1
:105780002146BDE8F84074F08DBE00BF695700089F
:10579000F7B50A4D06460F4628467146744674F022
:1057A0006FFE02A906F1350001F8017DFFF7DCFF6D
:1057B0002846214674F076FE03B0F0BD91570008EC
:1057C00070B50A4D714606462846744674F058FE78
:1057D0003046FEF779FD90F90060003618BF0126CB
:1057E0002846214674F05EFE304670BDC157000861
:1057F00070B5084D714606462846744674F040FE62
:10580000B01DFEF771FD06882146284674F04AFE59
:1058100030B270BDF1570008F7B50A4D06460F4685
:1058200028467146744674F02BFE02A906F150001A
:1058300001F8017DFFF710FC2846214674F032FE86
:1058400003B0F0BD1958000870B5084D7146064602
:105850002846744674F014FE3046FEF735FD06788F
:105860002146284674F01EFE70B270BD49580008EB
:1058700038B571462DED028B04460C487546B0EEE6
:10588000408A74F0FDFD04F5A470FEF71DFD90F94B
:1058900000300648022B08BF84ED5F8ABDEC028B06
:1058A0002946BDE8384074F0FDBD00BF71580008BE
:1058B00038B571462DED028B04460C487546B0EEA6
:1058C000408A74F0DDFD04F5A470FEF7FDFC90F94C
:1058D00000300648012B08BF84ED5F8ABDEC028BC7
:1058E0002946BDE8384074F0DDBD00BFB15800085E
:1058F000F8B5094D744606460F462846714674F0C1
:10590000BFFD2846214674F0CDFD0C2303FB076044
:1059100000F5B270F8BD00BFF1580008F8B50F46A9
:10592000074D064606EBC70671462846744674F0D6
:10593000A7FD36692846214674F0B4FD3046F8BD0F
:105940001D59000870B5084D064671462846744634
:1059500074F096FD96F894602846C6F381062146B9
:1059600074F0A0FD304670BD4559000870B5074D74
:10597000064671462846744674F082FD366928460C
:10598000214674F08FFD304670BD00BF6D59000890
:1059900070B50B4D064671462846744674F070FD8E
:1059A000084B1A7866F3C3021A70074B5A7866F3ED
:1059B00004125A7028462146BDE8704074F072BD4A
:1059C00091590008A41F002044DB002038B5074D82
:1059D00071462846744674F053FD054B00221A7038
:1059E00028462146BDE8384074F05CBDCD5900081A
:1059F000BA19002070B5074D064671462846744610
:105A000074F03EFDB36C9E882846214674F04AFD32
:105A100030B270BDF559000870B50D4D714628467D
:105A2000744674F02DFD0B48FEF75EFCB0F90000E3
:105A300007EE900AFAEEEF7A2846FDEEE77A214665
:105A400017EE906AB6B274F02DFD30B270BD00BF93
:105A5000195A0008E414002038B5074D714628464D
:105A6000744674F00DFD054B054A1A602846214620
:105A7000BDE8384074F016BD595A0008900D00205A
:105A80006CFE0A0870B5094D7146064628467446F4
:105A900074F0F6FC064B986B0268B1B252689047FE
:105AA00028462146BDE8704074F0FCBC855A0008C9
:105AB00084D9002070B5094D71462846744674F0AB
:105AC000DFFC074B986B0368DB6898472146064666
:105AD000284674F0E7FC304670BD00BFB55A000898
:105AE00084D90020F8B5084D0F4606467146284671
:105AF000744674F0C5FC3B88338028462146BDE8D7
:105B0000F84074F0CFBC00BFE55A0008F8B5074D67
:105B1000064674460F462846714674F0B1FCB780BD
:105B200028462146BDE8F84074F0BCBC0D5B000877
:105B3000F8B5094D06460F4628467146744674F07E
:105B40009FFC3046B763FEF789FB28462146BDE837
:105B5000F84074F0A7BC00BF315B000838B5064DB3
:105B600074462846714674F08BFC28462146BDE8F1
:105B7000384074F097BC00BF5D5B000870B50A4DFB
:105B8000064671462846744674F07AFCB369D3ED34
:105B9000067AF8EEE77A2846C6ED187A2146BDE87F
:105BA000704074F07FBC00BF7D5B000870B50A4D8B
:105BB0002DED028B714606462846744674F060FC53
:105BC00096ED2B8A2846214674F06CFCB0EE480A0C
:105BD000BDEC028B70BD00BFAD5B000838B50E4D4B
:105BE0002DED028B714608EE100A2846744674F0BB
:105BF00047FC0A48FEF7C0FDB8EEC88AD0ED007A2F
:105C000028EE278A2846214674F04CFCB0EE480A5C
:105C1000BDEC028B38BD00BFDD5B0008C81600205C
:105C200070B5094E044671463046754674F028FC3E
:105C3000A0680368DB6A9847304684ED1C0A294651
:105C4000BDE8704074F02EBC215C000870B50A4DB0
:105C50002DED028B714606462846744674F010FC02
:105C600096ED168A2846214674F01CFCB0EE480AD0
:105C7000BDEC028B70BD00BF4D5C000870B50A4DD5
:105C80002DED028B714606462846744674F0F8FBEB
:105C900096ED178A2846214674F004FCB0EE480AB7
:105CA000BDEC028B70BD00BF7D5C000870B50A4D75
:105CB0002DED028B714606462846744674F0E0FBD3
:105CC00096ED188A2846214674F0ECFBB0EE480A9F
:105CD000BDEC028B70BD00BFAD5C000870B50C4D13
:105CE00006462DED028B71462846744674F0C8FBBB
:105CF000F068FFF7DBFFB0EE408ABDEEC88A2846A9
:105D0000214674F0CFFB18EE100ABDEC028B70BD7B
:105D1000DD5C000870B50A4D2DED028B714606461C
:105D20002846744674F0ACFB96ED198A2846214645
:105D300074F0B8FBB0EE480ABDEC028B70BD00BF3A
:105D4000155D000870B50C4D06462DED028B7146B1
:105D50002846744674F094FBF068FFF7DBFFB0EE62
:105D6000408ABDEEC88A2846214674F09BFB18EE97
:105D7000100ABDEC028B70BD455D000870B50A4D80
:105D80002DED028B714606462846744674F078FB6A
:105D900096ED108A2846214674F084FBB0EE480A3E
:105DA000BDEC028B70BD00BF7D5D000810B51D48C5
:105DB0002DED028B7146744674F062FB1A4B187815
:105DC00010B11A48FFF7C4F9194B5A789978DB7863
:105DD00042EA012242EA034343F31703B3F57A7F11
:105DE0000ADB18B1134B1B78022B05D81248FFF7BA
:105DF000C5FFB0EE408A0BE01048FEF775FAB0F927
:105E00000030002BC8BF5B4207EE903AB8EEE78A3D
:105E10000448214674F046FBB0EE480ABDEC028B04
:105E200010BD00BFAD5D00086C0D00208C8000200F
:105E3000F8120020D5120020A47F0020D4140020E6
:105E400070B50C4D06462DED028B71462846744602
:105E500074F016FBF068FFF729FFB0EE408ABDEE44
:105E6000C88A2846214674F01DFB18EE100ABDECC6
:105E7000028B70BD415E000870B50C4D06462DEDDD
:105E8000028B71462846744674F0FAFAF068FFF700
:105E900041FFB0EE408ABDEEC88A2846214674F024
:105EA00001FB18EE100ABDEC028B70BD795E000894
:105EB00070B5094D714606462846744674F0E0FAFE
:105EC000D6ED0A7AFDEEE77A284617EE906A21466B
:105ED00074F0E8FA304670BDB15E000870B5084D48
:105EE000064671462846744674F0CAFA0023F386C3
:105EF000338728462146BDE8704074F0D3BA00BF0E
:105F0000DD5E000870B5074D7446714606462846AA
:105F100074F0B6FA2846214674F0C4FA06F15C0023
:105F200070BD00BF055F000870B5084D064671469C
:105F30002846744674F0A4FA3678284606F001061E
:105F4000214674F0AFFA304670BD00BF295F0008EB
:105F500070B5064D744671460646284674F090FAB0
:105F60002846214674F09EFA304670BD515F000805
:105F700070B50A4D2DED028B0646B0EE408A2846DC
:105F80007146744674F07CFA86ED1C8ABDEC028B77
:105F900028462146BDE8704074F084BA715F00085D
:105FA00070B50A4D2DED028B0646B0EE408A2846AC
:105FB0007146744674F064FA86ED1D8ABDEC028B5E
:105FC00028462146BDE8704074F06CBAA15F000815
:105FD00070B504460D462DED028B71466448764639
:105FE00074F04EFA2188B5F900200BB2002B02DDC7
:105FF000002A03DA08E009B1002A05DC002AB8BF4C
:106000005242B2F5E16F01DD2B88A8E007EE103AAD
:10601000002BF8EEC77A9FED578A50DD564867EEA1
:10602000888AFEF761F9B0F90030032B0CDD524885
:10603000FEF75AF9B0F90020042392FBF3F307EEC0
:10604000903AB8EEE77A01E0B7EE007AF4EEC78A4C
:10605000F1EE10FA08DDB4F9003007EE903AF8EEF0
:10606000E77A27EE888A15E04348FEF73DF9B0F954
:106070000030032B0CDD4048FEF736F9B0F9002064
:10608000042392FBF3F308EE103AB8EEC88A01E05D
:10609000B7EE008AB4F9003007EE903AF8EEE77AEE
:1060A00037EEC88ABDEEC88A18EE103A9BB223803C
:1060B000B5F900201BB29342B8BF13464FE02E48FB
:1060C00067EEC88AFEF710F9B0F90030032B0CDD3B
:1060D0002948FEF709F9B0F90020042392FBF3F3F5
:1060E00007EE103AF8EEC77A01E0F7EE007AF4EE28
:1060F000E78AF1EE10FA08DDB4F9003007EE903AC5
:10610000F8EEE77A27EEC88A15E01B48FEF7ECF8B0
:10611000B0F90030032B0CDD1748FEF7E5F8B0F9B5
:106120000020042392FBF3F308EE103AB8EEC88A7D
:1061300001E0B7EE008AB4F9003007EE903AF8EECD
:10614000E77A38EE278ABDEEC88A18EE103A9BB27D
:106150002380B5F900201BB29342A8BF1346BDECC3
:10616000028B238031460248BDE8704074F09AB932
:10617000D15F0008CDCC4C3CCA14002038B50C4D82
:1061800071462846744674F07BF90A4B1A7805214B
:1061900061F302021A70C8225A8300225A805A8E72
:1061A000DA8328462146BDE8384074F07BB900BF49
:1061B0007D6100089412002038B50C4D71462846C8
:1061C000744674F05DF90A4B1A78052161F3C50233
:1061D0001A70C8229A8300229A809A8E1A842846BE
:1061E0002146BDE8384074F05DB900BFB9610008D0
:1061F0009412002038B533482DED048B7146754656
:1062000074F03EF9304B1A78C2F34102002A51D0A3
:106210005978C8074ED52D4C6FF300015970B4F969
:106220006E3007EE103A012AB8EEC77A0AD1284B31
:10623000D3ED006AB4F98E3008EE903A254BF8EEB3
:10624000E88A09E0244BD3ED006AB4F98E3008EEF9
:10625000903A224BF8EEE88AD3ED007A204827EEF8
:10626000E88A68EEA68AA7EE268AE7EE278AFFF775
:106270003DF81B48B0EE409AFFF750F820EE280A90
:106280001748A9EE080ABDEEC00A10EE103AA4F8AD
:106290006E30FFF743F81248B0EE409AFFF726F849
:1062A00020EE280AA8EE490ABDEEC00A10EE103A08
:1062B000A4F88E30BDEC048B29460248BDE8384076
:1062C00074F0F0B8F56100083C1D00209414002023
:1062D000700D0020D0810020680D002074C60020C1
:1062E000B08400202DE9F0410A4D80460F46284633
:1062F0007146744674F0C4F80748066841463A4649
:106300003668B0472846214674F0CCF80020BDE836
:10631000F08100BFE562000884D9002070B50B4D04
:10632000064671462846744674F0AAF8084B1A7857
:1063300066F382021A70074B5A7866F3C3025A70EA
:1063400028462146BDE8704074F0ACB81D630008D3
:10635000A41F002044DB002038B5714604460C48D9
:10636000754674F08DF80B4B1A78C2F30011A142F8
:1063700007D064F304121A70074B1A7864F3C7123B
:106380001A7029460248BDE8384074F08BB800BF47
:10639000596300083C1D002044DB002038B57146DD
:1063A00005460948744674F06BF8084B06481A789D
:1063B000C2F3C001A9421CBF65F3C3021A70214693
:1063C000BDE8384074F06EB89D6300083C1D0020A5
:1063D00038B5104D2DED028B71462846744674F089
:1063E0004FF80D48FDF770FF90F90000DFED0B7AD4
:1063F00007EE100AB8EEC77AB0EE008AA7EE278A39
:106400002846214674F04EF8B0EE480ABDEC028BE7
:1064100038BD00BFD1630008C9140020CDCCCC3DED
:1064200070B5714605461048744674F029F8FEF7B9
:1064300059FB06460D48FDF747FF90F90030B3EBD6
:10644000962F01D2002508E035B9094BD86A0368B8
:106450001B6A98470028F5D101250348214674F0AE
:1064600021F8284670BD00BF21640008A314002055
:1064700084D90020F8B5084D744606460F462846D4
:10648000714673F0FDFF2846214674F00BF80C238B
:1064900003FB07604C30F8BD7564000870B50B4E07
:1064A000044671463046754673F0EAFF236820467D
:1064B0001B6D984701462046FFF7DCFF294604463E
:1064C000304673F0EFFF204670BD00BF9D640008AA
:1064D000F8B50F46074D064606EBC7067146284637
:1064E000744673F0CDFFF6682846214673F0DAFF54
:1064F0003046F8BDD164000870B50A4D06467146B5
:106500002846744673F0BCFF96F89410304601F0AC
:106510000301FFF7DDFF21460646284673F0C2FF60
:10652000304670BDF9640008F8B5094D744606465A
:106530000F462846714673F0A3FF2846214673F0A4
:10654000B1FF382307FB0333F0180830F8BD00BF54
:106550002965000870B50A4D0646714628467446FE
:1065600073F08EFF96F89410304601F00301FFF7A8
:10657000DBFF21460646284673F094FF304670BD87
:1065800055650008F8B50C4D2DED028B06460F46FB
:1065900028467146744673F073FF382303FB076681
:1065A00096ED0D8A2846214673F07CFFB0EE480A2E
:1065B000BDEC028BF8BD00BF8565000870B50D4DC0
:1065C00006462DED028B71462846744673F058FF3F
:1065D00096F89410304601F00301FFF7D3FF2846E8
:1065E000B0EE408A214673F05DFFB0EE480ABDEC84
:1065F000028B70BDBD65000838B505467146084878
:10660000744673F03DFF288B4FF6FF75A84214BF08
:10661000054600252146024873F044FF284638BD50
:10662000F9650008F8B50F46074D064606EBC706A4
:1066300071462846744673F023FF768D284621461E
:1066400073F030FF3046F8BD2566000870B50A4D7E
:10665000064671462846744673F012FF96F84010BD
:10666000304601F00301FFF7DDFF214606462846CC
:1066700073F018FF304670BD4D66000870B50A4DC6
:10668000714606462846744673F0FAFE301DFDF743
:106690001BFE90F90060003618BF012628462146EF
:1066A00073F000FF304670BD7D66000870B5074D81
:1066B000064671462846744673F0E2FE96F8286056
:1066C0002846214673F0EEFE304670BDAD660008E8
:1066D00070B5074D064671462846744673F0D0FEE5
:1066E000368E2846214673F0DDFE304670BD00BF71
:1066F000D166000870B5074D0646714628467446B7
:1067000073F0BEFEF66A2846214673F0CBFE304693
:1067100070BD00BFF566000870B5064D7446714641
:106720000646284673F0ACFE2846214673F0BAFEB2
:10673000304670BD1967000870B50D4604467146B5
:106740002448764673F09CFE082D3BD804EB4500A8
:106750007230FFF7E1FF007807EE900A082DF8EE9F
:10676000677A08D094F864300BB9236C1BB1B5EE8E
:10677000007A67EE877AF5EEC07AF1EE10FA21D949
:10678000254495F88430D3B99FED137A94F88D4061
:10679000F4EE477AF1EE10FAC8BFF0EE477A87EED2
:1067A000277A06EE904AF8EEE66A012477EE267A1A
:1067B000FCEEE77A17EE903A85F8843003E0013B6F
:1067C00085F8843000240348314673F06BFE204680
:1067D00070BD00BF396700080000484270B50C4D1D
:1067E0002DED028B06467146B0EE408A284674466F
:1067F00073F046FEF068B0EE480AFEF7CFF9BDEC44
:10680000028B28462146BDE8704073F04BBE00BFA6
:10681000DD67000838B50C461D487146754673F0B3
:106820002FFE6379DB071CD51A48FEF7C1FAA3795E
:10683000E279817843EA0222237A42EA03424378EA
:1068400043EA0123C17843EA014342F3170243F3C9
:1068500017031344C3F30722A371C3F30743E27181
:106860002372E279A3790C4843EA0223227A43EAAD
:10687000024343F3170300EE103AB8EEC00AFFF7E5
:10688000ADFF29460248BDE8384073F00BBE00BF9B
:1068900015680008B0840020681D002070B5094DFF
:1068A000714606462846744673F0EAFD06F1370045
:1068B000FDF76AFC06782146284673F0F3FD304662
:1068C00070BD00BF9D68000870B5074D0646714653
:1068D0002846744673F0D4FD367D2846214673F071
:1068E000E1FD304670BD00BFC968000870B5074EB5
:1068F000044671463046754673F0C2FD044B236072
:106900003046294673F0CEFD204670BDED68000884
:10691000D8910A08F8B50A4E04460F46304671462B
:10692000754673F0ADFD2046FFF7E0FF054B236091
:1069300030462771294673F0B5FD2046F8BD00BFEB
:106940001569000810ED0A0870B50D4C0646714631
:106950000C48754673F094FD206803685B690EB1BE
:10696000094900E0094998472068094903685B69BB
:10697000984729460348BDE8704073F093BD00BFB7
:10698000787F00204969000810AB0A08DA8F0A08EE
:10699000DCAE0A0870B5094D7146064628467446B5
:1069A00073F06EFD06F5A470FDF78EFC06782146A7
:1069B000284673F077FD304670BD00BF956900082A
:1069C000F8B50B4D06460F4628467146744673F0DF
:1069D00057FD0C2303FB076000F5A670FDF7BAFD19
:1069E00021460646284673F05DFD3046F8BD00BFDF
:1069F000C169000870B5074D0646714628467446C1
:106A000073F03EFD76882846214673F04BFD3046F4
:106A100070BD00BFF569000870B5094D7146284684
:106A2000744673F02DFD0748FFF7E4FF2146064644
:106A3000284673F037FD0F23B6FBF3F0C0B270BDEC
:106A4000196A000854DB002070B5084D71460646EF
:106A50002846744673F014FD301DFDF735FC0678AA
:106A60002146284673F01EFD304670BD496A000875
:106A700038B5714604460D48754673F001FD0C4863
:106A8000FDF722FC90F90030022B05D0032B06D035
:106A90001C1C18BF012403E084F0010400E004245E
:106AA0000248294673F0FEFC204638BD716A000892
:106AB000C814002070B50E4D2DED028B71460646B0
:106AC0002846744673F0DCFC3046FFF777FD284615
:106AD0002146B0EE408A73F0E5FCDFED067A28EE41
:106AE000278ABCEEC88A18EE100ABDEC028B70BD76
:106AF000B56A00080000C842F8B5094D0F460646C1
:106B000071462846744673F0BBFC382303FB0766C6
:106B10002846B66B214673F0C5FC3046F8BD00BF71
:106B2000F96A000870B50A4D064671462846744653
:106B300073F0A6FC96F89410304601F00301FFF7BD
:106B4000DBFF21460646284673F0ACFC304670BD9C
:106B5000256B000838B51348134C2DED028B714698
:106B6000754673F08DFC1148FDF78EFD01280DD997
:106B70000E48FFF79FFF642808D90C48FFF7D2FFA3
:106B800007EE100AF8EEC77AC4ED007A94ED008A99
:106B90000448294673F086FCB0EE480ABDEC028B2F
:106BA00038BD00BF556B0008D4810020D480002080
:106BB00070B50A4D2DED028B714606462846744687
:106BC00073F05EFC96ED398A2846214673F06AFC24
:106BD000B0EE480ABDEC028B70BD00BFB16B00087F
:106BE00070B5084E044671463046754673F048FC51
:106BF0000023304663602360294673F053FC20462F
:106C000070BD00BFE16B000870B5074D744671465A
:106C10000646284673F034FC2846214673F042FCB1
:106C200006F50B7070BD00BF096C000838B5094D42
:106C300071462846744673F023FC074B01221A70F4
:106C4000FEF738FF054B186021462846BDE838405E
:106C500073F028BC2D6C0008600D0020A884002073
:106C600038B5074D71462846744673F009FC054B4C
:106C700000221A7028462146BDE8384073F012BC45
:106C8000616C0008600D002070B50A4D2DED028B7F
:106C90000646B0EE408A28467146744673F0F0FB13
:106CA00086ED098ABDEC028B28462146BDE870407E
:106CB00073F0F8BB896C000870B5084D7146064644
:106CC0002846744673F0DCFBB01DFDF75DFA0678CC
:106CD0002146284673F0E6FB304670BDB96C0008CB
:106CE00038B5094D71462846744673F0C9FB074A0A
:106CF00000231380064A1360064A13802846214663
:106D0000BDE8384073F0CEBBE16C0008D8810020AC
:106D1000D0120020701E002038B5714604460D4880
:106D2000754673F0ADFB0C4B1A8801321A800B4B81
:106D30001A68944288BF1C6040F6B8339C4203D95D
:106D4000074B1A8801321A8029460248BDE83840AC
:106D500073F0A8BB196D0008D8810020D012002064
:106D6000701E002070B5074D71462846744673F0BA
:106D700087FB054B1E882846214673F093FB30465F
:106D800070BD00BF656D0008D881002070B5074D4B
:106D900071462846744673F073FB054B1E682846FF
:106DA000214673F07FFB304670BD00BF8D6D00083B
:106DB000D012002070B5074D71462846744673F016
:106DC0005FFB054B1E882846214673F06BFB30465F
:106DD00070BD00BFB56D0008701E0020F0B5234FD8
:106DE0008BB0044671463846764673F049FB20481E
:106DF000FDF7DEFF62684368DFED1E7AD31A06EE08
:106E0000903A1D4BA268D3ED000A8368D31AB8EEFE
:106E1000E60AA27806EE903A637843EA0223E27823
:106E200043EA024343F3170360EEA70AB8EEE67A9B
:106E300001EE103A04AD20EE270A60EE870AB8EEA4
:106E4000C11A2846FEF734F995E807000AAB03E9B2
:106E500007003846314673F025FB9DED070ADDED4E
:106E6000080A9DED091A0BB0F0BD00BFDD6D0008EA
:106E7000B08400202C7D8E3F7C0D002038B5064D5F
:106E800074462846714673F0FBFA28462146BDE851
:106E9000384073F007BB00BF7D6E000838B57146FF
:106EA00005460A48744673F0EBFA0023EA180433E7
:106EB00000211C2B5160F9D1002385F82030214698
:106EC0000248BDE8384073F0EDBA00BF9D6E00087F
:106ED00038B504462DED028B71460F48B0EE408A5E
:106EE000754673F0CDFA94F820200B48531CDBB2A2
:106EF000062B84F8203004EB820288BF002382ED49
:106F0000018A294688BF84F8203073F0CBFAB0EEAE
:106F1000480ABDEC028B38BDD16E000870B5084D33
:106F2000064671462846744673F0AAFA96F8406001
:106F30002846C6F38106214673F0B4FA304670BD88
:106F40001D6F000838B5094D71462846744673F028
:106F500097FA074B0749186803681B6A9847284641
:106F60002146BDE8384073F09DBA00BF456F000868
:106F7000787F002099A30A0838B5094D7146284644
:106F8000744673F07DFA074B074AD86B11680368A3
:106F90001B6898472846214673F084FA002038BDC4
:106FA000796F000884D90020787F002038B5064D1D
:106FB00074467146284673F063FA2846214673F0FA
:106FC00071FA002038BD00BFAD6F0008F8B5084D5C
:106FD000744606460F462846714673F051FA284615
:106FE000214673F05FFA0C2303FB07600430F8BD01
:106FF000CD6F000870B50B4E04467146304675469D
:1070000073F03EFA23682046DB6C98470146204621
:10701000FFF7DCFF29460446304673F043FA20466A
:1070200070BD00BFF56F0008F8B50A4D06460F4663
:1070300028467146744673F023FA96F8363067F3A3
:10704000820386F8363028462146BDE8F84073F0C2
:1070500029BA00BF2970000870B50B4E044671466E
:107060003046754673F00CFA236820461B69984732
:1070700001462046FDF75AFA29460446304673F089
:1070800011FA204670BD00BF5970000838B5094D8F
:1070900071462846744673F0F3F9074B07491868A0
:1070A00003681B6A98472846214673F0FBF90020C5
:1070B00038BD00BF8D700008787F0020AEA30A089D
:1070C00038B5094D71462846744673F0D9F9074B17
:1070D000986B036800215B6C98472846214673F043
:1070E000E1F9002038BD00BFC170000884D900203C
:1070F0002DE9F04B5D4F5E4D5E4C7146384676464D
:1071000073F0BEF9D5F80080D8F8003004F17600AD
:10711000D3F82090FDF7E8F8B0F900B004F17A0058
:10712000FDF7E2F85A465449B0F900304046C847E6
:10713000D5F80080D8F8003004F19600D3F82090FC
:10714000FDF7D2F8B0F900B004F19A00FDF7CCF8E1
:107150005A464A49B0F900304046C847D5F8008041
:10716000D8F8003004F1B600D3F82090FDF7BCF851
:10717000B0F900B004F1BA00FDF7B6F85A4640493C
:10718000B0F900304046C847D5F80080D8F8003044
:1071900004F1D600D3F82090FDF7A6F8B0F900B0BE
:1071A00004F1DA00FDF7A0F85A463649B0F900308C
:1071B0004046C847D5F80080D8F8003004F1F60002
:1071C000D3F82090FDF790F8B0F900B004F1FA0080
:1071D000FDF78AF85A462C49B0F900304046C847B6
:1071E000D5F80080D8F8003004F58B70D3F82090E3
:1071F000FDF77AF8B0F900B004F58D70FDF774F87A
:107200005A462249B0F900304046C847D5F80080B8
:10721000D8F8003004F59B70D3F82090FDF764F89F
:10722000B0F900B004F59D70FDF75EF85A461849B4
:10723000B0F900304046C8472D682B6804F5AB70A4
:10724000D3F82080FDF750F8B0F9009004F5AD7048
:10725000FDF74AF80F49B0F900304A462846C047C2
:1072600038463146BDE8F04B73F01CB9F1700008A8
:10727000787F002094140020D9A30A08E7A30A0805
:10728000F5A30A0803A40A0811A40A081FA40A08FF
:107290002DA40A083BA40A0870B504460D462D48E3
:1072A0007146764673F0ECF82368102D47D8DFE876
:1072B00005F0090D12161A1E2226462A2E324636CF
:1072C0003A3E42005B692449204602E05B6923495B
:1072D0002046984738E05B6921492046F9E75B6919
:1072E00020492046F5E75B691F492046F1E75B69C5
:1072F0001E492046EDE75B691D492046E9E75B69C9
:107300001C492046E5E75B691B492046E1E75B69CC
:107310001A492046DDE75B6919492046D9E75B69D0
:1073200018492046D5E75B6917492046D1E75B69D4
:1073300016492046CDE75B6915492046C9E71B6A17
:10734000144920462A46984731460248BDE8704015
:1073500073F0A8B89972000849A40A0853A40A084F
:1073600058A40A0861A40A0866A40A0880A40A08A6
:107370006DA40A0871A40A0878A40A087DA40A0862
:1073800087A40A088DA40A0893A40A0898A40A08E6
:10739000A1A40A08A9A40A082DE9F843124C8146C1
:1073A0008846124871467546164673F069F820689B
:1073B0000F4907684A463F6AB84720684146FFF7C9
:1073C0006BFF20680B4903681B6A984720680368B5
:1073D0001B6A0EB1084900E008499847294603484E
:1073E000BDE8F84373F05EB8787F00209973000819
:1073F000B2A40A08BBA40A08C7A40A08CBA40A08B6
:1074000070B5084D71462846744673F039F8064841
:10741000FEF78AFD21460646284673F043F83046BB
:1074200070BD00BF01740008681D002038B5064D0E
:1074300074467146284673F023F82846214673F0B7
:1074400031F8002038BD00BF2D74000870B5074D1D
:10745000744671460646284673F012F828462146BF
:1074600073F020F806F11C0070BD00BF4D740008D9
:1074700070B50A4D2DED028B7146064628467446BE
:1074800072F0FEFF96ED0C8A2846214673F00AF84A
:10749000B0EE480ABDEC028B70BD00BF71740008ED
:1074A00038B512487146754672F0EAFF1048FEF78B
:1074B0003BFD044698B10F4C236813B9FDF712FB4E
:1074C0002060FDF70FFB24684FF47A73001BB0FBBC
:1074D000F3F4094B1B889C4234BF00240124034869
:1074E000294672F0DFFF204638BD00BFA1740008B6
:1074F000681D0020447E00205484002038B50B48CD
:107500007146754672F0BCFF094B1C783CB1094BC3
:107510001C78033CE4B2012C8CBF002401240348F6
:10752000294672F0BFFF204638BD00BFFD74000839
:10753000721E0020081A002038B571460C487546A6
:1075400072F09EFFFDF7CEFA0A4B1B68C01A0A4B79
:107550001A6822EAE27290424FF0000488BF1C6071
:10756000034888BF0124294672F09CFF204638BD9D
:107570003975000838130020607E002038B5064DAC
:1075800074467146284672F07BFF2846214672F009
:1075900089FF012038BD00BF7D750008F8B50A4E8F
:1075A00007460C4630467146754672F069FF94E80E
:1075B000070007F11C0383E8070030462946BDE8B1
:1075C000F84072F06FBF00BF9D750008F7B50A4E16
:1075D00002AC24ED010A714607463046754672F04A
:1075E0004FFF214607F11000FDF70AFD30462946FE
:1075F00072F058FF03B0F0BDCD75000870B50C4DAA
:107600002DED028B714606462846744672F038FF0F
:1076100006F11000FDF7B0F890ED008A21462846EB
:1076200072F040FFB0EE480ABDEC028B70BD00BFA7
:10763000FD75000870B5074D06467146284674462C
:1076400072F01EFF768F2846214672F02BFF3046DF
:1076500070BD00BF3576000870B50F4D0646714607
:107660002846744672F00CFFFDF73CFAD6F8056028
:107670009FED0A7A0A4B07EE906A67EE877A1860E8
:10768000FDEEE77A074BC3ED007A28462146BDE8B8
:10769000704072F007BF00BF5976000800007A44BE
:1076A00038130020607E002070B50D4D06467146EF
:1076B0002846744672F0E4FED6F805609FED097A1C
:1076C000094B07EE906A67EE877A2846FDEEE77A67
:1076D0002146C3ED007ABDE8704072F0E3BE00BF02
:1076E000A97600080000C842607E002038B5064D2B
:1076F00074462846714672F0C3FE28462146BDE80E
:10770000384072F0CFBE00BFED760008F7B50C4DE3
:1077100006460F4628467146744672F0B1FE07EEE3
:10772000107AF8EE477A02A961ED017A06F10C00B1
:10773000FDF7A6F82846214672F0B4FE03B0F0BD6E
:107740000D77000870B5064D74467146064628460A
:1077500072F096FE2846214672F0A4FE304670BDB7
:107760004577000870B5084E7146044630467546A8
:1077700072F086FE2046FFF7E5FF3046294672F09C
:1077800091FE204670BD00BF6577000870B5084EB9
:10779000714604463046754672F072FE2046FFF789
:1077A000E1FF3046294672F07DFE204670BD00BFE5
:1077B0008D77000870B5084E714604463046754610
:1077C00072F05EFE2046FFF7BDFF3046294672F09C
:1077D00069FE204670BD00BFB577000870B5084E41
:1077E000714604463046754672F04AFE2046FFF761
:1077F000A9FF3046294672F055FE204670BD00BFF5
:10780000DD77000870B5084E71460446304675466F
:1078100072F036FE2046FFF795FF3046294672F09B
:1078200041FE204670BD00BF0578000870B5084EC7
:10783000714604463046754672F022FE2046FFF738
:10784000CDFF3046294672F02DFE204670BD00BFA8
:107850002D78000870B5074E0446714630467546CF
:1078600072F00EFE044B23603046294672F01AFE79
:10787000204670BD5578000838920A0870B5094E48
:10788000044671463046754672F0FAFD2046FFF711
:10789000E1FF054B23603046294672F003FE204687
:1078A00070BD00BF7D78000880F60A0870B5094EEB
:1078B000044671463046754672F0E2FD00233046BC
:1078C0006370A370E3702371294672F0EBFD2046CC
:1078D00070BD00BFAD78000870B5094E0446714612
:1078E0003046754672F0CCFD00233046A370E3703D
:1078F0002371A360294672F0D5FD204670BD00BFFC
:10790000D978000870B50C4E71460446304675466D
:1079100072F0B6FD201DFFF7B1FF04F11400FFF770
:10792000C5FF04F11C00FFF7D7FF3046294672F06F
:10793000B9FD204670BD00BF0579000870B5084E3E
:10794000714604463046754672F09AFD04F12400F3
:10795000FDF7A2F93046294672F0A4FD204670BD1D
:107960003D79000870B5074E0446714630467546AD
:1079700072F086FD044B23603046294672F092FD7A
:10798000204670BD65790008E8910A0870B50C4E74
:10799000044671463046754672F072FD2046FFF788
:1079A000E1FF084B2360002384F820302046FFF7D6
:1079B00075FA3046294672F075FD204670BD00BF4D
:1079C0008D790008F8910A0870B5094E0446714691
:1079D0003046754672F054FD2046FFF7D7FF054B41
:1079E00023603046294672F05DFD204670BD00BF21
:1079F000C979000808920A0870B5094E7146044614
:107A00003046754672F03CFD2046FFF79BFE20464F
:107A1000FDF742F93046294672F044FD204670BD1C
:107A2000F979000870B50C4E2DED028B0446F0EE8E
:107A3000408AB0EE608A75467146304672F020FD8D
:107A4000C4ED008A84ED018A3046294672F02AFD91
:107A5000BDEC028B204670BD257A000870B50C4E37
:107A6000044671463046754672F00AFD4FF07E536B
:107A70002362236123600023A36063606361E3608A
:107A8000E361A36130462946BDE8704072F00ABD4B
:107A90005D7A000870B50C4E714604463046754656
:107AA00072F0EEFC2046FDF7F7F804F10C00FDF74C
:107AB000F3F804F11800FDF7EFF83046294672F0AC
:107AC000F1FC204670BD00BF957A00082DE9F04119
:107AD0000A4E04460F46304671467546904672F08F
:107AE000CFFC002330462371A760C4F80C802946E0
:107AF00072F0D8FC2046BDE8F08100BFCD7A0008C6
:107B000070B5084E044671463046754672F0B8FCB2
:107B10000023304623706370294672F0C3FC204670
:107B200070BD00BF017B000870B5084E0446714669
:107B30003046754672F0A4FC002330462370637013
:107B4000294672F0AFFC204670BD00BF297B0008BB
:107B5000F8B50B4E04460F4630467146754672F036
:107B60008FFC002330462760A380A371A360A3810C
:107B7000E38123746382294672F094FC2046F8BDA9
:107B8000517B000870B5074D06467146284674467D
:107B900072F076FC36782846214672F083FC304637
:107BA00070BD00BF857B000870B5074D0646714665
:107BB0002846744672F064FC36782846214672F0F6
:107BC00071FC304670BD00BFA97B000870B5074D41
:107BD000064671462846744672F052FC36782846AE
:107BE000214672F05FFC304670BD00BFCD7B0008BF
:107BF00070B5074D064671462846744672F040FC43
:107C000036782846214672F04DFC304670BD00BFE4
:107C1000F17B000870B5074D06467146284674464C
:107C200072F02EFC36782846214672F03BFC304636
:107C300070BD00BF157C000870B5074D0646714643
:107C40002846744672F01CFC36782846214672F0AD
:107C500029FC304670BD00BF397C000870B5074D67
:107C6000064671462846744672F00AFC3678284665
:107C7000214672F017FC304670BD00BF5D7C0008E5
:107C800070B5074D064671462846744672F0F8FBFB
:107C900036782846214672F005FC304670BD00BF9C
:107CA000817C000870B5074D06467146284674462B
:107CB00072F0E6FB36782846214672F0F3FB304638
:107CC00070BD00BFA57C000870B5074D0646714623
:107CD0002846744672F0D4FB36782846214672F066
:107CE000E1FB304670BD00BFC97C000870B5074D90
:107CF000064671462846744672F0C2FB367828461E
:107D0000214672F0CFFB304670BD00BFED7C00080D
:107D100070B5074D064671462846744672F0B0FBB2
:107D200036782846214672F0BDFB304670BD00BF54
:107D3000117D000870B5074D064671462846744609
:107D400072F09EFB36782846214672F0ABFB304637
:107D500070BD00BF357D000870B5074D0646714601
:107D60002846744672F08CFB36782846214672F01D
:107D700099FB304670BD00BF597D000870B5074DB6
:107D8000064671462846744672F07AFB36782846D5
:107D9000214672F087FB304670BD00BF7D7D000834
:107DA00070B5074D064671462846744672F068FB6A
:107DB00036782846214672F075FB304670BD00BF0C
:107DC000A17D00082DE9F0410E46804671460C4821
:107DD000754672F055FB0B4B00241E60A7B21C20A9
:107DE00000FB0760FFF7CEFE01340028F6D1064BFA
:107DF00003481F70294672F055FB4046BDE8F081EC
:107E0000C57D00084CDB002048DB002070B5084E23
:107E1000714604463046754672F032FB04F1240088
:107E2000FEF7DEFE3046294672F03CFB204670BD70
:107E30000D7E000870B5074E044671463046754603
:107E400072F01EFB044B23603046294672F02AFB79
:107E5000204670BD357E000878EC0A0870B5074EE4
:107E6000044671463046754672F00AFB044B2360A7
:107E70003046294672F016FB204670BD5D7E000834
:107E800020D00A0870B5094E044671463046754642
:107E900072F0F6FA064B23602046FFF7DFFF30460C
:107EA000294672F0FFFA204670BD00BF857E0008AB
:107EB00090D00A0870B5074E0446714630467546A4
:107EC00072F0DEFA044B23603046294672F0EAFA7B
:107ED000204670BDB57E0008F8CA0A0870B5094E84
:107EE000044671463046754672F0CAFA064B236066
:107EF0002046FFF79FFF3046294672F0D3FA20460E
:107F000070BD00BFDD7E000820ED0A0870B5094E87
:107F1000044671463046754672F0B2FA064B23604D
:107F20002046FFF7AFFF3046294672F0BBFA2046E5
:107F300070BD00BF0D7F000800D10A0870B5094E62
:107F4000714604463046754672F09AFA2046FFF7AD
:107F500071FF204672F09CFB3046294672F0A2FA6F
:107F6000204670BD3D7F000870B5094E714604463D
:107F70003046754672F084FA2046FFF76FFF2046C0
:107F800072F086FB3046294672F08CFA204670BDAE
:107F9000697F000870B5094E714604463046754643
:107FA00072F06EFA2046FFF76DFF204672F070FB0C
:107FB0003046294672F076FA204670BD957F00085B
:107FC00070B5094E714604463046754672F058FA4F
:107FD0002046FFF76FFF204672F05AFB30462946D5
:107FE00072F060FA204670BDC17F000870B5094E7E
:107FF000714604463046754672F042FA2046FFF755
:108000006DFF204672F044FB3046294672F04AFA72
:10801000204670BDED7F000870B5094E71460446DC
:108020003046754672F02CFA2046FFF76FFF204667
:1080300072F02EFB3046294672F034FA204670BDAD
:108040001980000870B50B4D71462846744672F0D1
:1080500017FA094B09481E78FCF796F83146027862
:1080600007481AF05DF828462146BDE8704072F0D6
:1080700019BA00BF4580000808820020A214002021
:10808000E012002038B5094D71462846744672F05A
:10809000F7F907482AF044FE064818F0F5FB284691
:1080A0002146BDE8384072F0FDB900BF8580000868
:1080B000E4830020541E002070B5714606460B482C
:1080C000754672F0DDF900240948225C1AB120449B
:1080D00031464BF05DFDCC34B4F5197FF4D129461F
:1080E0000248BDE8704072F0DDB900BFB9800008F9
:1080F000AC1A002038B5074D71462846744672F018
:10810000BFF91C20FFF7D8FF28462146BDE83840BC
:1081100072F0C8B9F580000838B5074D7146284699
:10812000744672F0ADF90020FFF7C6FF28462146DD
:10813000BDE8384072F0B6B91981000838B50B486F
:108140007146754672F09CF900240948235C1BB106
:10815000204408494BF0C8FECC34B4F5197FF4D163
:1081600029460248BDE8384072F09CB93D810008BC
:10817000AC1A00201D82000838B571461D487446AF
:1081800072F07EF91C4B986B0368DB6898471B4BB9
:108190001A881B4B1988914206D01A80194B186017
:1081A000194B00221A7011E0184B1B7873B1154B54
:1081B00017491A68821A8A421D46134B01D90121B8
:1081C0001970197811B1134B9A4205D82146094804
:1081D000BDE8384072F066B928600F48FCF734F902
:1081E0000028F3D00C48002129F018F90A4829F09A
:1081F0004FFBEBE77981000884D90020B0190020FB
:108200005C840020A8840020501D0020600D002008
:1082100080841E0040420F00B81E002010B5714639
:108220000446124872F02CF9114B20461C60FCF7F2
:10823000F7F8236820461B6C012198470D4B986B7B
:1082400003680021DB6905229847FEF709FD0A480B
:10825000FCF7FAF830B10848002129F0DFF80648A9
:1082600029F016FB054827F069FFFBE71D8200088F
:10827000787F002084D90020B81E0020841E0020B2
:1082800038B5074D71462846744672F0F9F805482E
:1082900027F054FF2846214672F004F9002038BD2B
:1082A0008182000858C6002038B50A4D714628461C
:1082B000744672F0E5F8084B0849186803681B6AB1
:1082C0009847074827F03AFF2846214672F0EAF817
:1082D000002038BDA9820008787F0020D0A40A08B9
:1082E0004C13002038B5074D71462846744672F08D
:1082F000C7F8054827F022FF2846214672F0D2F839
:10830000002038BDE5820008587F002070B5274C5A
:1083100027482DED028B7146754672F0B1F86378EF
:10832000A678244843EA0626E37846EA0346FBF7A4
:10833000DBFFB0F9003046F317069E420DDDA27850
:10834000637843EA0223E27843EA024343F31703E4
:1083500007EE903AB8EEE78A08E01648FBF7C4FF4C
:10836000B0F9000008EE100AB8EEC88A124812F000
:10837000CBFBC30710D51048DFED108AFCF7F4FCE7
:1083800020EE280AB4EEC08AF1EE10FA04D40A48AE
:10839000FCF7EAFC20EE288A0548294672F082F8AC
:1083A000B0EE480ABDEC028B70BD00BFF812002091
:1083B0000D830008A4140020707E00200000C84235
:1083C00070B532487146764672F05AF8304B1B78D9
:1083D0001A0754D42F48FBF777FF90F90030012B90
:1083E00005D02C48FBF770FF03785B0644D52A487C
:1083F00044F0C8FC20B9294844F0C4FC00283ED011
:108400002748FBF771FFB0F9003040F21454A34243
:1084100035DC2448FBF768FFB0F9003040F2A36573
:10842000AB422CDD2048FBF75FFFB0F90030A342E0
:1084300025DC1E48FBF758FFB0F90030AB421EDDCB
:108440001548FBF751FFB0F90030A34217DC134881
:10845000FBF74AFFB0F90030AB4210DD1448FBF7E0
:1084600043FFB0F90030A34209DC1248FBF73CFFA0
:10847000B0F90030AB4202DD0120FDF78FFF31463D
:108480000248BDE8704072F00DB800BFC18300081B
:108490003C1D0020F91400204A1500204E15002034
:1084A0000A1500200E1500202A1500202E15002088
:1084B0006A1500206E15002070B5084D71460646FD
:1084C0002846744671F0DCFF06F1370044F05AFC90
:1084D00028462146BDE8704071F0E4BFB984000829
:1084E00070B5094E714604463046754671F0C8FFB6
:1084F000204627F069FB204627F02EF93046294612
:10850000BDE8704071F0CEBFE1840008F8B50646C2
:108510000F460C487146754671F0B2FF00240A48B8
:10852000225C22B1204431463A464BF0B7FBCC34B2
:10853000B4F5197FF3D129460248BDE8F84071F03F
:10854000B1BF00BF0D850008AC1A00202DE9F04135
:1085500071462DED028B05462648764671F090FF58
:10856000254822F05DFE27F02FFB2448B0EE408A1C
:10857000FCF760F8074630B11DB121490320FFF731
:10858000C5FF00242DE0FCF797F8044630B9002D14
:10859000F7D003201B49FFF7B9FF22E0B5EE408A70
:1085A000F1EE10FA06D0DFED187AB4EEE78AF1EEBC
:1085B00010FA04DD002DE4D003201449DFE714484D
:1085C000FCF7C2F880461348FBF78EFEB0F9003086
:1085D000984506DD002DD4D003200F49FFF796FF04
:1085E0003C460448314671F05DFFBDEC028B2046ED
:1085F000BDE8F0814D85000860130020141D0020A7
:10860000DEA40A08F1A40A080000484205A50A08E9
:10861000D4800020BA1400201AA50A082DE9F041E0
:108620002DED028BBC4D8CB004467146BB4877469D
:1086300071F026FF2B78DA0600F14B81B848FBF782
:1086400043FE90F9003033B90120FDF785FE01208B
:10865000FDF7A4FE3DE1FFF7B3FE2B781B0705D421
:10866000002C00F036810320AE4915E0AC48FBF742
:108670002BFE90F90030012B05D0A948FBF724FE12
:1086800003789E071FD5A848FBF73AFF38B9002C9E
:1086900000F01F81A5490320FFF738FF19E1A44826
:1086A00022F0F6FDA34B9FEDA47AD3ED007AF8EE0D
:1086B000E77A30EE670AF0EEC07AF4EEC77AF1EEB0
:1086C00010FA00F30F819648FBF7FEFD90F9003099
:1086D000012B05D09248FBF7F7FD03785D074BD5DA
:1086E00096480021FBF722FF002800F00081934804
:1086F00018F0B6FE002800F0FF809048FBF752FF0C
:1087000007C88DE80700684627F05EFADFED8C7A2F
:10871000B4EEE70AF1EE10FA00F3F3808748FBF7B6
:108720006FFF27F051FADFED877AB4EEE70AF1EE3A
:1087300010FA00F3EB80DFED847AB4EEE70AF1EE95
:1087400010FA00F1E3807D48FBF74EFD012813D9B4
:108750007A48FBF755FF07C803AD85E807002846B0
:10876000FFF7BEFE4FF000087448FBF73DFD5FFACF
:1087700088F68642C0F010816948FBF7A5FD90F9A4
:108780000030012B05D06648FBF79EFD03781807E3
:108790001AD56E4B1878FBF7EFFD002840F02481C6
:1087A0006B48FBF791FD90F90030032B00F01C8122
:1087B000684812F0C5F9002800F08B80654812F077
:1087C000A3F9810700F117815548FBF77DFD90F96A
:1087D0000030012B05D05248FBF776FD0378DA060E
:1087E0000BD55D4823F066FF002800F00B815A4846
:1087F00024F0AAFA002800F00B814948FBF764FD39
:1088000090F90030012B05D04548FBF75DFD03785A
:108810009B065BD55148FBF757FD90F90030002BC4
:1088200040F0FC804E48FBF74FFD90F90030002BE4
:1088300040F0F4804B48FBF747FD90F90030BBB1A6
:108840004948FBF751FDB0F900504848FBF74CFD93
:10885000B0F900300A339D4240F3F1804348FBF702
:1088600043FDB0F9002040F28D339A4240F3E78097
:108870003F48FBF739FDB0F90030B3F57A7FC0F21D
:10888000E4803B48FBF730FDB0F90030B3F5FA5F08
:1088900000F3DB803748FBF76FFF90ED008A364826
:1088A000FBF78AFFB4EEC08AF1EE10FA00F3D38032
:1088B0003248FBF761FF90ED008A3148FBF77CFFFF
:1088C000B4EEC08AF1EE10FA00F3C5800120FDF786
:1088D00043FD1248394671F0E5FD0CB0BDEC028B4A
:1088E000BDE8F081002CF4D003202649D4E6002C0A
:1088F000EFD003202449CFE6002CEAD003202349FF
:10890000CAE6002CE5D003202149C5E6002CE0D0C2
:1089100003202049C0E600BF3C1D00201D86000842
:10892000F914002030A50A08A87E00204AA50A08EC
:1089300060130020041300200000C84210820020B1
:108940000000FA4300A05A44008039430882002006
:10895000B8140020707E002000180020F7140020BA
:10896000F8140020DE1400204A150020E014002036
:10897000987F0020CC160020E4170020D01600209D
:10898000E817002063A50A0879A50A0895A50A0832
:10899000B4A50A08D5A50A0831463248FBF71CFEE3
:1089A00007C806AE86E807003046FFF799FD304657
:1089B000294626F0E7FF09A88DED090ACDED0A0A40
:1089C0008DED0B1A27F000F9F6EE087AB4EEE70AFF
:1089D000F1EE10FA08F101087FF7C6AE002C3FF463
:1089E00078AF0320204957E62046FFF7AFFD002867
:1089F0007FF4DEAE6DE72046FFF7A8FD00283FF4C8
:108A000068AFE1E6002C3FF464AF0320174943E66A
:108A1000002C3FF45EAF032015493DE61548FBF7F7
:108A200053FC05781448FBF74FFC03789D427FF414
:108A300001AF002C3FF44DAF032010492CE6002C71
:108A40003FF447AF03200E4926E6002C3FF441AF28
:108A500003200C4920E6002C3FF43BAF03200A49D9
:108A60001AE600BF10820020EDA50A080CA60A082D
:108A700027A60A08F7140020F81400203FA60A08C9
:108A800062A60A087DA60A0895A60A08F8B57146E6
:108A900004465A48764671F0F3FC5948FBF714FC3B
:108AA00090F900300BB90124A2E05548FBF70CFC0B
:108AB00090F90030012B05D05148FBF705FC0378F5
:108AC000980712D54F4822F0E3FB4F4B9FED4F7AAA
:108AD000D3ED007AF8EEE77A30EE670AF0EEC07A6E
:108AE000F4EEC77AF1EE10FA6DDC4548FBF7ECFBCB
:108AF00090F90030012B05D04148FBF7E5FB0378E6
:108B000019070CD5424B1878FBF736FC00285FD1CB
:108B10004048FBF7D9FB90F90030032B58D0384878
:108B2000FBF7D2FB90F90030012B05D03448FBF75E
:108B3000CBFB03789A0612D5374D05F14A00FBF7B7
:108B4000C3FB90F9003053B105F14C00B5F8AC709F
:108B5000FBF7CAFBB0F900303FB2BB423EDC28480D
:108B6000FBF7B2FB90F90030012B05D02448FBF74E
:108B7000ABFB0378DB0617D5284D29482B6983EA20
:108B8000E377A7EBE377FBF7AFFBB0F900309F4249
:108B900029DC23486D69FBF7A7FBB0F90030002DF5
:108BA000B8BF6D429D421EDC1E4BD86B03685B68EC
:108BB000984701287FF477AF1CB11B490320FFF7CA
:108BC000A5FC002414E0002CFBD003201749F6E795
:108BD0002046FFF7BBFC0028F3D0A0E7002CF0D024
:108BE00003201349EBE7002CEBD003201149E6E703
:108BF0000248314671F056FC2046F8BD8D8A0008C7
:108C0000F914002060130020041300200000C84263
:108C100008820020B814002094140020B0840020A2
:108C2000987F002084D90020D0A60A0866A50A08EB
:108C3000B1A60A08C3A60A0838B5714605460E480B
:108C4000744671F01DFC032D10D8DFE805F0020515
:108C5000080B0320094907E00320094904E0032029
:108C6000084901E008490320FFF750FC214602486B
:108C7000BDE8384071F016BC398C0008E3A60A083C
:108C8000F5A60A0807A70A0819A70A0870B57146C9
:108C900005461A48764671F0F3FBFFF791FB184B37
:108CA0001B78C3F3C00434B9164B174ACC2000FB21
:108CB0000530032107E0DC0908D1124B134ACC2010
:108CC00000FB053003214AF0E9FF11E0104BD86B9F
:108CD00003685B689847012809D10A4B0D4ACC20EC
:108CE00000FB053003214AF0D9FF002400E00124F5
:108CF0000248314671F0D6FB204670BD8D8C0008CD
:108D00003C1D0020AC1A00202AA70A0848A70A0820
:108D100084D9002067A70A082DE9F041124E0446C5
:108D20000F4630467146754671F0AAFB94ED007A05
:108D3000D7ED007AB4EE677AF1EE10FA0CBF4FF07F
:108D400000084FF0010820463946FBF799FD4146DF
:108D5000204643F03DFF29460446304671F0A2FB11
:108D60002046BDE8F08100BF198D00082DE9F041D3
:108D7000104E04460F4630467146754671F080FB32
:108D800097F9003094F90080B8EB030818BF4FF052
:108D9000010820463946FCF7E7FC4146204643F0EF
:108DA00017FF29460446304671F07CFB2046BDE89B
:108DB000F08100BF6D8D00082DE9F041104E044692
:108DC0000F4630467146754671F05AFBB7F90030D0
:108DD000B4F90080B8EB030818BF4FF00108204633
:108DE0003946FCF77FFE4146204643F0F1FE294616
:108DF0000446304671F056FB2046BDE8F08100BFC6
:108E0000B98D000838B5074D71462846744671F093
:108E100037FB054842F0F2F928462146BDE83840C4
:108E200071F040BB058E00087C1F002010B50A4879
:108E30007146744671F024FB0848FBF745FA90F937
:108E4000003013B1064818F05DF821460248BDE82D
:108E5000104071F027BB00BF2D8E0008BC1400200D
:108E600010820020F8B51E4E1E4F2DED028B71466C
:108E700007F142043046754671F002FB2046FBF7CD
:108E800033FAB0F900305B4207EE903A2046B8EE74
:108E9000E78AFBF729FAB0F90000134C00EE900ABC
:108EA000B0EE480AF8EEE00A204610F017FB07F192
:108EB0004400FBF719FAB0F9000000EE100A204652
:108EC000B8EEC00A10F046FB204611F019F8304603
:108ED000294671F0E7FABDEC028B0120F8BD00BF16
:108EE000658E000894140020A47F0020F8B51E4E63
:108EF0001E4F2DED028B714607F142043046754638
:108F000071F0BEFA2046FBF7EFF9B0F900305B4292
:108F100007EE903A2046B8EEE78AFBF7E5F9B0F99C
:108F20000000134C00EE900AB0EE480AF8EEE00A9A
:108F3000204610F0D3FA07F14400FBF7D5F9B0F959
:108F4000000000EE100A2046B8EEC00A10F002FB46
:108F5000204610F0D5FF3046294671F0A3FABDEC4B
:108F6000028B0120F8BD00BFED8E00089414002094
:108F7000A47F002070B529482DED028B71467646FE
:108F800071F07EFA264B93F9003033F0020201D0E3
:108F900000253AE0234CB4F9AE30002BF8DD22482E
:108FA000FBF752FA05460028F2D0204B1B7803F05D
:108FB000A003202BECD104F14200FBF795F9B0F9A6
:108FC00000305B4207EE903A04F14200B8EEE78AC7
:108FD000FBF78AF9B0F9000000EE900AB0EE480AFB
:108FE000F8EEE00A124810F079FA04F14400FBF7B9
:108FF0007BF9B0F9000000EE100A0D48B8EEC00A87
:1090000010F0A8FA0A4810F07BFF0448314671F0CE
:1090100049FABDEC028B284670BD00BF758F000871
:109020000882002094140020B81E00203C1D00205F
:10903000A47F002038B571462DED028B05462648E9
:10904000744671F01DFAFBF737FB08B92DB93BE008
:10905000224822F0C1F90028F8D0214B21480022F3
:109060001A70FBF7E1FD204810F08AFB1D48FBF762
:10907000F7FD1D4810F05CFB1C48FBF735F9B0F913
:1090800000301A485B4207EE903AB8EEE78AFBF7E9
:109090002BF9B0F9000000EE900AB0EE480AF8EEA5
:1090A000E00A114810F01AFA1148FBF71DF9B0F95F
:1090B000000000EE100A0C48B8EEC00A10F04AFAA0
:1090C0000C4812F0A3FB01250348214671F0EAF990
:1090D000BDEC028B284638BD359000086013002097
:1090E000A2190020681D0020A47F0020D6140020B3
:1090F000D81400206884002070B571462DED028BD5
:1091000006461E48754671F0BBF9FBF7D5FA0446D2
:1091100000B956B31A4812F065FD1A48FBF7E4F897
:10912000B0F9003017485B4207EE903AB8EEE78A94
:10913000FBF7DAF8B0F9000000EE900AB0EE480A4A
:10914000F8EEE00A104810F0C9F91048FBF7CCF827
:10915000B0F9000000EE100A0B48B8EEC00A10F09B
:10916000F9F9094810F0CCFE01240448294671F0B1
:1091700099F9BDEC028B204670BD00BFF990000844
:10918000681D0020D6140020A47F0020D8140020E1
:1091900070B571462DED028B06463948754671F063
:1091A0006FF9FBF789FA044608B9002E60D03548FC
:1091B000354CFBF799F8B0F9003032485B4207EEC6
:1091C000903AB8EEE78AFBF78FF8B0F9000000EEAE
:1091D000900AB0EE480AF8EEE00A2C4810F07EF94A
:1091E0002B48FBF781F8B0F9000000EE100A274881
:1091F000B8EEC00A10F0AEF9244810F081FE00234A
:1092000024486380A380FBF76FF8B0F90000DFED1E
:10921000227A224B06EE900AF8EEE66AB2EE0E7A59
:10922000E6EE877A1B789FED1E7A67EE877ADA0979
:10923000C4ED027A237809D0042262F3020362F3B8
:10924000C5031848237012F0CDFC04E062F302035A
:1092500062F3C50323706378134843F0010363701E
:10926000FBF7E2FD0023A385E38584F83130012478
:109270000348294671F016F9BDEC028B204670BDFB
:1092800091910008D614002094120020A47F0020A1
:10929000D8140020CA1400200000BE423C1D00204B
:1092A0000AD7233C681D0020B812002010B52DED10
:1092B000028B1F4884B07146744671F0E1F8FBF7E9
:1092C000FBF91C4B187058B101A8FBF7E5FC1A48D4
:1092D00001A912F0F5FC184801A9012212F030FC96
:1092E0001548FBF7EDFC1448B0EE408AFBF704FD8F
:1092F0001248F0EE400AB0EE480A10F0EFF80E48BF
:10930000FBF716FD0D4810F025F90C4810F0F8FD9C
:10931000FBF7E8FB0A4B18600A4B05480022214680
:109320001A7071F0BFF8012004B0BDEC028B10BDC3
:10933000AD920008BA190020681D0020A47F00200B
:1093400048130020F08100202DE9F04171462DEDF9
:10935000068B80464B484C4D4C4E4D4C7746F0EEBC
:10936000408AB0EE609A71F08BF8FBF7BBFB494A7C
:109370001168411AB1F57A7F034618D9B6F9001081
:10938000A07807EE101A617841EA0021E07841EAFE
:10939000004141F3170107EE901AB8EEC77AF8EED4
:1093A000E77A77EE677A77EEA87AC5ED007A07EE6E
:1093B000908AB8F1000F1360B8EEE78A04DA364BF2
:1093C0001B7B13F0040F04E00AD0334B1B7B13F01C
:1093D000080F05D1D5ED007AE8EE097AC5ED007ADF
:1093E000B6F900102D48D5ED009A09EE101AFCF7D9
:1093F0002DFCB6F900302948B8EEC99A0AEE103AA9
:1094000039EE409AFCF73AFCB8EECAAAF0EE490AE7
:1094100030EE0A1AB0EE690A24F0AAF8A27863784E
:10942000B6F900601E4885ED000A43EA0223E2789F
:1094300043EA024343F3170307EE903AB8EEE77AA4
:1094400007EE906AF8EEE77A77EE677A77EEE88AC9
:1094500078EE808AFBF790F990ED000ADFED110AB3
:109460009FED111A28EE800A24F082F80548F0EEEC
:10947000408A394671F016F838EE880ABDEC068B42
:10948000BDE8F08149930008B4190020487E00200F
:10949000F8120020687E0020B81E0020A47F002063
:1094A000A8140020000016C300001643F8B5194D9B
:1094B0002DED028B0646B0EE408A28460F467146D7
:1094C000744670F0DDFFB0EE480ADFED130AB7EE28
:1094D000001A24F04DF828462146B0EE408A70F07C
:1094E000E1FF06EE907AB7EE007A37EE487AF8EEB2
:1094F000E67A06EE906A67EE277AB8EEE67AE8EE4C
:10950000077ABDEC028BFDEEE77A17EE900A00B207
:10951000F8BD00BFAD9400080000000030B52DED8F
:10952000048B044683B048487146754670F0A8FF26
:10953000002C5AD04548FAF7D7FEB0F90030B3F501
:10954000FA7F52D000214FF47A72204623F096FF22
:1095500004463E48FAF7C8FE4FF496714FF42F7256
:10956000B0F9000023F08AFF02A921F8020D374864
:10957000FBF7F8FCB4F5FA7F40DA3548FAF7B4FEA9
:10958000B0F9000008EE100A3148FAF7ADFEB0F964
:1095900000302E48E41A06EE904AB8EEE69AFAF742
:1095A000A3FEB0F900402A48FAF79EFEB0F9003059
:1095B0002748E31A08EE903AFAF796FEB0F9003021
:1095C000C3F5FA73F8EEE88A07EE103A68EE898A76
:1095D000F8EEC77AB8EEC88AC8EEA78A38EE888A4D
:1095E000BDEEC88A18EE104AA4B21748294670F09A
:1095F00059FF20B203B0BDEC048B30BD13481FD01F
:10960000FAF772FEB0F9000008EE100A0F48FAF7F8
:109610006BFEA4F5FA74B0F90030DFED0E7A07EEB8
:10962000104AC3F57A73B8EEC77A06EE903A27EE81
:10963000277AB8EEC88AF8EEE67AA7EE278ACFE74F
:10964000FAF752FE0488D0E71D950008E4140020C4
:10965000DA1400206F12033B2DE9F04B80460E46D2
:10966000304871461D467446174670F009FF404663
:109670002D4941F2941223F001FF41F294122A493C
:109680008046304623F0FAFE06462848FAF72CFEBC
:10969000B0F9002041F294139A4203D1A7F8008058
:1096A0002E8039E02148DFF88CB0DFF88C90FAF793
:1096B0001BFEBBF90030B0F900209A4214D01B48C1
:1096C000FAF712FE03881948ABF80030FAF70CFEDF
:1096D000B0F900009FED167A07EE900AF8EEE77AEF
:1096E00067EE877AC9ED007A06EE908AD9ED007AA6
:1096F000B8EEE67A06EE906A27EE277ABDEEC77AD4
:1097000017EE103AB8EEE67A3B8067EE277AFDEE68
:10971000E77A17EE903A2B8021460248BDE8F04BDD
:1097200070F0C0BE599600086CEEFFFF987F0020D5
:1097300053046939A0190020640D002070B57146EA
:1097400004461C48764670F09BFE1B4B1D78C5F303
:1097500040053DBB204629464FF47A7223F08EFE29
:10976000B0F5C87F044607DA1448FAF7BDFDB0F932
:109770000030A4F5C87009E0B0F5167F0DDD0F4884
:10978000FAF7B2FDB0F90030A4F5167058434FF463
:10979000C87390FBF3F080B200E02846084B044603
:1097A000188000E000240348314670F07BFE20B2B0
:1097B00070BD00BF3D970008A41F0020D6140020F4
:1097C0004A7F002070B52DED048B044682B03A48E4
:1097D0007146754670F054FE002C63DD00214FF495
:1097E0007A72204623F04AFE04463448FAF77CFD9C
:1097F0004FF42F724FF49671B0F9000023F03EFE43
:1098000002A921F8020D2D48FBF7ACFB2C48FAF712
:109810006BFD0688FCF700F936B2864204DD284865
:10982000FAF762FD04883EE0B4F5167F36DA244884
:10983000FAF75AFDB0F9000008EE100A2048FAF7CE
:1098400053FDB0F90030E41A07EE104AB8EEC79A9B
:10985000FCF7E2F804461A48FAF746FDB0F9003082
:109860001748E31A08EE903AFAF73EFDB0F90030D7
:10987000C3F51673F8EEE88A07EE103A68EE898AA7
:10988000F8EEC77AB8EEC88AC8EEA78A38EE888A9A
:10989000BDEEC88A18EE104AA4B204E0FCF7BCF88A
:1098A000044600E000240448294670F0FBFD20B285
:1098B00002B0BDEC048B70BDC5970008E414002015
:1098C000DA140020F8B571462DED028B04462848C5
:1098D000B0EE408A754670F0D3FD2648FAF704FDD5
:1098E000B0F90020DFED246A9FED247A042392FB77
:1098F000F3F39BB21AB2002A214AB5EEC08AD2ED28
:10990000027A2288D8BF0123F1EE10FA67EEC87AF6
:10991000ACBF38EE268A36EEC88A9BB287EE087A4C
:10992000D11A1A4409B212B247EE277AFDEEE77A4D
:1099300017EE900A00B223F0A1FD064620801148E0
:10994000FAF7D2FC07880F48FAF7CEFC7F42BFB285
:1099500039B2B0F90020304623F090FDBDEC028B07
:10996000208029460248BDE8F84070F09BBD00BF4A
:10997000C5980008CA140020000070420000FA4395
:1099800094120020CC1400202DE9F0412148224DF2
:109990002DED028B7146744670F072FD1F48FAF788
:1099A000EBFED0ED007AF5EEC07AF1EE10FA02D8B7
:1099B00000232B7025E01A4E1A4837683B68D3F80D
:1099C0000880FAF781FC01783846C04730680368A0
:1099D0005B6998471148B0EE408AFAF7CDFEDFED9B
:1099E000127A28EE278AD0ED007A88EE278A0021A5
:1099F000FF22BDEEC88A18EE100A00B223F03EFD29
:109A00002870BDEC028B21460248BDE8F04170F0A1
:109A100049BD00BF89990008D8830020C4140020E4
:109A2000A4190020C214002000007F4338B5074D60
:109A300071462846744670F023FD054844F05AFEEE
:109A400028462146BDE8384070F02CBD2D9A00080C
:109A50000813002038B5054671460D48744670F06D
:109A60000FFDD5F8065007EE905AF5EEC07AF1EEEC
:109A700010FA06DD9FED070A074827EE800A12F06C
:109A80002BF821460248BDE8384070F00BBD00BFFE
:109A9000559A00080000C842681D0020F8B5274DFF
:109AA00027482DED028B7146764670F0E9FC2B7845
:109AB000002B3BD0234C244F9FED248A013B2B707D
:109AC000637843F001036370B7F96E3000EE103A2B
:109AD000B8EEC00A20EE080A23F000FDB7F98E7038
