:020000040800F2
:1040000094C100207D690708B9700708B9700708D6
:10401000B9700708B9700708B9700708B9700708C0
:10402000B9700708B9700708B9700708B9700708B0
:10403000B9700708B9700708B9700708B9700708A0
:10404000B9700708B9700708B9700708B970070890
:10405000B9700708B9700708B9700708B970070880
:10406000B9700708B9700708B9700708B970070870
:10407000B9700708B9700708B9700708B970070860
:10408000B9700708B9700708B9700708B970070850
:10409000B9700708B9700708B9700708B970070840
:1040A000B9700708B9700708B9700708B970070830
:1040B000B9700708B9700708B9700708B970070820
:1040C000B9700708B9700708B9700708B970070810
:1040D000B9700708B9700708B9700708B970070800
:1040E000B9700708B9700708B9700708B9700708F0
:1040F000B9700708B9700708B9700708B9700708E0
:10410000B9700708B9700708B9700708B9700708CF
:10411000B9700708B9700708B9700708B9700708BF
:10412000B9700708B9700708B9700708B9700708AF
:10413000B9700708B9700708B9700708B97007089F
:10414000B9700708B9700708B9700708B97007088F
:10415000B9700708B9700708B9700708B97007087F
:10416000B9700708B9700708B9700708B97007086F
:10417000B9700708B9700708B9700708B97007085F
:10418000B9700708B970070838B5064D744671460E
:10419000284673F04DFA2846214673F05BFA00205A
:1041A00038BD00BF89410008F8B50B4E0446714682
:1041B0003046754673F03CFA236820461F6ADB6C74
:1041C000984701462046B84729460446304673F0D2
:1041D00041FA2046F8BD00BFA9410008F8B50B4ED2
:1041E000044671463046754673F022FA236820462D
:1041F0009F6A9B6C984701462046B847294604466B
:10420000304673F027FA2046F8BD00BFDD410008B4
:1042100038B5714605460948744673F009FA2846D0
:10422000FFF7C2FF10B12846FFF7D8FF0546214629
:10423000024873F00FFA284638BD00BF114200084B
:1042400038B5064D74462846714673F0F1F9284694
:104250002146BDE8384073F0FDB900BF4142000877
:1042600038B5064D74467146284673F0E1F9284684
:10427000214673F0EFF9012038BD00BF614200080C
:1042800038B5064D74467146284673F0D1F9284674
:10429000214673F0DFF9002038BD00BF81420008DD
:1042A000F8B5084D064674460F462846714673F029
:1042B000BFF986F8E17028462146BDE8F84073F062
:1042C000C9B900BFA142000870B5064D74467146D9
:1042D0000646284673F0ACF92846214673F0BAF931
:1042E000304670BDC9420008F8B5084D0646744610
:1042F0000F462846714673F09BF986F88071284670
:104300002146BDE8F84073F0A5B900BFE9420008B6
:10431000F8B5044671460E4804F13206754673F04E
:1043200087F93046676CFFF7CFFF01783846FFF713
:10433000B7FFA46B34B13046FFF7C6FF01782046C3
:10434000FFF7D2FF29460248BDE8F84073F082B972
:104350001143000870B5084D71460646284674465C
:1043600073F066F93046FFF7D3FF28462146BDE8D3
:10437000704073F06FB900BF5543000870B5064D2B
:10438000744671460646284673F052F9284621467F
:1043900073F060F9304670BD7D430008F8B5094DF3
:1043A00006460F4628467146744673F041F9737B02
:1043B00067F34403737328462146BDE8F84073F061
:1043C00049B900BF9D43000870B5064D744671465B
:1043D0000646284673F02CF92846214673F03AF930
:1043E000304670BDC943000870B5074D064671469A
:1043F0002846744673F01CF996F808612846214651
:1044000073F028F9304670BDE943000870B5084DD7
:10441000714606462846744673F00AF93046FFF79F
:10442000ADFF06782146284673F014F9304670BD7A
:104430000D44000870B5084E044671463046754676
:1044400073F0F6F800233046A360636023602946CA
:1044500073F000F9204670BD3544000870B5074D73
:10446000744671460646284673F0E2F8284621460F
:1044700073F0F0F806F1580070BD00BF5D4400080D
:1044800070B5094E714604463046754673F0D0F853
:104490000648FFF7E3FF07C884E8070030462946CF
:1044A000BDE8704073F0D6B8814400083C1B002082
:1044B00038B5714604460C48754673F0B9F8E01EED
:1044C000C0B20D2808D80123834042F21F101840C3
:1044D000041C18BF012400E000240348294673F09F
:1044E000B9F8204638BD00BFB144000870B5074D8B
:1044F000744671460646284673F09AF828462146C7
:1045000073F0A8F806F1680070BD00BFED44000824
:1045100070B5074D744671460646284673F088F814
:104520002846214673F096F806F18C0070BD00BF56
:104530001145000870B5074D744671460646284679
:1045400073F076F82846214673F084F806F1B0003F
:1045500070BD00BF3545000870B5074D0646714671
:104560002846744673F064F8044B1E6028462146C2
:10457000BDE8704073F06EB859450008007E002019
:1045800070B5084D064671462846744673F050F8DB
:10459000767B284606F00106214673F05BF830462C
:1045A00070BD00BF8145000870B50A4D2DED028B2E
:1045B000714606462846744673F03AF896ED058A29
:1045C0002846214673F046F8B0EE480ABDEC028B4F
:1045D00070BD00BFA945000870B50A4D2DED028BD6
:1045E000714606462846744673F022F896ED068A10
:1045F0002846214673F02EF8B0EE480ABDEC028B37
:1046000070BD00BFD945000870B50A4D2DED028B75
:10461000714606462846744673F00AF896ED078AF6
:104620002846214673F016F8B0EE480ABDEC028B1E
:1046300070BD00BF09460008F8B50746074D0E4695
:104640003E4471462846744672F0F2FF767B284657
:10465000214672F0FFFF3046F8BD00BF3946000822
:1046600070B50B4D714606462846744672F0E0FF61
:1046700006F10C00FFF782FE90F90060003618BFCB
:1046800001262846214672F0E5FF304670BD00BF86
:104690006146000870B5064D7446714606462846C8
:1046A00072F0C6FF2846214672F0D4FF304670BD36
:1046B00095460008F8B50A4D06460F46284671464D
:1046C000744672F0B5FF0C2303FB07602C30FFF734
:1046D000E1FF21460646284672F0BCFF3046F8BD91
:1046E000B546000870B50B4E044671463046754617
:1046F00072F09EFF236820461B69984701462046BA
:10470000FFF7D8FF29460446304672F0A3FF204643
:1047100070BD00BFE5460008F8B5084D7446064672
:104720000F462846714672F083FF2846214672F0F4
:1047300091FF0C2303FB07601030F8BD19470008F8
:1047400070B50B4E044671463046754672F070FFE8
:10475000236820461B69984701462046FFF7DCFF87
:1047600029460446304672F075FF204670BD00BFF2
:104770004147000870B5084D064671462846744604
:1047800072F056FF36792846C6F34006214672F08D
:1047900061FF304670BD00BF75470008F8B5094D90
:1047A0000F46064671462846744672F041FF38238C
:1047B00003FB07662846767F214672F04BFF3046A2
:1047C000F8BD00BF9D47000870B50A4D064671460A
:1047D0002846744672F02CFF96F89410304601F08B
:1047E0000301FFF7DBFF21460646284672F032FF41
:1047F000304670BDC947000838B512487146744646
:1048000072F016FF104B1B78D80714D50F48FFF72E
:10481000DBFF02280FD90E48FFF7ACFF58B90D4B4C
:104820001B78190707D40C4A5278D20703D49B0689
:1048300001D4012500E000250248214672F00AFF5C
:10484000284638BDF9470008C41E0020C8230020B0
:10485000701E00204421002060140020F8B5094D8E
:104860000F46064671462846744672F0E1FE38232C
:1048700007FB03331E442846B688214672F0EAFE41
:104880003046F8BD5D48000870B50A4D06467146D1
:104890002846744672F0CCFE96F89410304601F02B
:1048A0000301FFF7DBFF21460646284672F0D2FEE1
:1048B000304670BD8948000870B5064D7446714693
:1048C0000646284672F0B4FE2846214672F0C2FE23
:1048D000304670BDB948000870B5064D7446714643
:1048E0000646284672F0A4FE2846214672F0B2FE23
:1048F000304670BDD948000870B50B4D2DED028BC8
:10490000714606462846744672F092FE3046FFF71E
:10491000E3FF90ED008A2146284672F09BFEB0EE40
:10492000480ABDEC028B70BDF948000838B57146E5
:1049300004460B48754672F07BFE0D2C09D8012306
:1049400003FA04F442F6030323401C1C18BF01249D
:1049500000E000240248294672F07CFE204638BD63
:104960002D49000870B5084D064671462846744624
:1049700072F05EFE337C43F01C03337428462146FC
:10498000BDE8704072F066BE65490008F8B50A4D92
:1049900006460F4628467146744672F049FE96F860
:1049A000363067F3410386F8363028462146BDE8A5
:1049B000F84072F04FBE00BF8D490008F8B5074DB2
:1049C000064674460F462846714672F031FE7772ED
:1049D00028462146BDE8F84072F03CBEBD490008BB
:1049E000F8B50A4D06460F4628467146744672F0E1
:1049F0001FFE96F8363067F3C30386F83630284634
:104A00002146BDE8F84072F025BE00BFE14900082C
:104A1000F8B50A4D06460F4628467146744672F0B0
:104A200007FE96F8363067F3451386F83630284689
:104A30002146BDE8F84072F00DBE00BF114A0008E3
:104A400038B5074D71462846744672F0F1FD0548A9
:104A5000FFF7F6FB28462146BDE8384072F0FABD64
:104A6000414A00082422002070B5094D71462846AD
:104A7000744672F0DDFD074B986B03689B6898479E
:104A800021460646284672F0E5FD304670BD00BF5F
:104A9000694A0008507C002070B5094D06467146F1
:104AA0002846744672F0C4FD064B1A7866F3041269
:104AB0001A7028462146BDE8704072F0CBBD00BF99
:104AC000994A00084421002070B50C4D2DED028B51
:104AD000714606462846744672F0AAFD06F1240087
:104AE000FFF7EAFE90ED008A2146284672F0B2FDFB
:104AF000B0EE480ABDEC028B70BD00BFC94A000889
:104B000038B5064D74467146284672F091FD284628
:104B1000214672F09FFD012038BD00BF014B000807
:104B200070B50A4D2DED028B0646B0EE408A284640
:104B30007146744672F07CFD86ED1C8ABDEC028BDA
:104B400028462146BDE8704072F084BD214B000824
:104B500038B5084D71462846744672F069FD9FEDE0
:104B6000060A0648FFF7DCFF2846214672F072FD70
:104B7000012038BD514B000800000000DC2200205D
:104B800070B5094D714606462846744672F050FDD0
:104B900006F10800FFF718FC06882146284672F047
:104BA00059FD304670BD00BF814B000870B50C4DFB
:104BB0002DED028B714606462846744672F038FD8C
:104BC00006F11800FFF778FE90ED008A214628468E
:104BD00072F040FDB0EE480ABDEC028B70BD00BF24
:104BE000AD4B000870B50C4D2DED028B714606469D
:104BF0002846744672F01CFD06F12800FFF76CFE93
:104C000090ED008A2146284672F024FDB0EE480A55
:104C1000BDEC028B70BD00BFE54B000870B50C4DBC
:104C20002DED028B714606462846744672F000FD53
:104C300006F12000FFF740FE90ED008A214628464D
:104C400072F008FDB0EE480ABDEC028B70BD00BFEB
:104C50001D4C000870B50C4D2DED028B71460646BB
:104C60002846744672F0E4FC06F11C00FFF724FEAF
:104C700090ED008A2146284672F0ECFCB0EE480A1E
:104C8000BDEC028B70BD00BF554C000870B50C4DDB
:104C90002DED028B714606462846744672F0C8FC1C
:104CA00006F12C00FFF708FE90ED008A2146284609
:104CB00072F0D0FCB0EE480ABDEC028B70BD00BFB4
:104CC0008D4C000870B5104E2DED028B71460446D8
:104CD0003046754672F0ACFC04F10800FFF7ECFDBD
:104CE00090ED008A04F11000FFF7E6FDD0ED007AA8
:104CF00038EE678A3046294672F0ACFCB0EE480ABE
:104D0000BDEC028B70BD00BFC54C0008F8B5094D65
:104D100006460F4628467146744672F089FC337881
:104D200067F34103337028462146BDE8F84072F02E
:104D300091BC00BF0D4D000838B5714605460748C7
:104D4000744672F075FCFFF757FD2146002818BF26
:104D50000546024872F07EFC284638BD394D0008F1
:104D600070B5084D064671462846744672F060FCE0
:104D700000237360336028462146BDE8704072F01E
:104D800069BC00BF614D000870B5074D064671460D
:104D90002846744672F04CFC36782846214672F05C
:104DA00059FC304670BD00BF894D0008F8B5084E6B
:104DB0000F46044671463046754672F039FC3B8812
:104DC00023803046294672F045FC2046F8BD00BFDE
:104DD000AD4D000870B50A4D2DED028B0646B0EEC4
:104DE000408A28467146744672F022FC86ED048A99
:104DF000BDEC028B28462146BDE8704072F02ABC0B
:104E0000D54D0008F8B50E4D0E4E714607462846A2
:104E1000744672F00DFC06F14E00FFF7D5FAB0F9BA
:104E20000030FB1A00EE103A06F55E70B8EEC00ACC
:104E3000FFF7D0FF28462146BDE8F84072F00ABCD3
:104E4000054E0008C8150020F8B5084E0F46044668
:104E500071463046754672F0EBFB3B682360304686
:104E6000294672F0F7FB2046F8BD00BF494E000806
:104E7000F7B502AC094E24F8021D074671463046CC
:104E8000754672F0D5FB214607F18A00FFF78EFFC9
:104E90003046294672F0DEFB03B0F0BD714E0008CB
:104EA000F7B50A4E02AC24ED010A714607463046BA
:104EB000754672F0BDFB214607F11400FFF7C4FFF1
:104EC0003046294672F0C6FB03B0F0BDA14E000883
:104ED000F8B5084D0F46064671462846744672F0EE
:104EE000A7FB3B68336028462146BDE8F84072F0D6
:104EF000B1BB00BFD14E0008F7B50A4E02AC24ED9D
:104F0000010A714607463046754672F091FB3846F5
:104F10002146FFF7DDFF3046294672F09BFB03B0C8
:104F2000F0BD00BFF94E0008F7B50A4E02AC24ED03
:104F3000010A714607463046754672F079FB07F163
:104F400020002146FFF7C4FF3046294672F082FB5D
:104F500003B0F0BD294F0008F8B5084E0F460446CF
:104F600071463046754672F063FB3B7823703046DD
:104F7000294672F06FFB2046F8BD00BF594F00086C
:104F8000F7B50A4E02AC24ED010A714607463046D9
:104F9000754672F04DFB38462146FFF799FF3046C3
:104FA000294672F057FB03B0F0BD00BF814F0008E7
:104FB000F7B50A4E02AC24ED010A714607463046A9
:104FC000754672F035FB381D2146FFF781FF3046EC
:104FD000294672F03FFB03B0F0BD00BFB14F00089F
:104FE000F7B50A4E02AC24ED010A71460746304679
:104FF000754672F01DFB07F108002146FFF768FFB8
:105000003046294672F026FB03B0F0BDE14F0008A0
:10501000F7B50A4E02AC24ED010A71460746304648
:10502000754672F005FB214607F12C00FFF70CFFD7
:105030003046294672F00EFB03B0F0BD1150000857
:1050400070B50E4E2DED048B0446B0EE409AF0EE96
:10505000608AB0EE418A75467146304672F0E8FAD1
:1050600084ED009AC4ED018A84ED028A3046294617
:1050700072F0F0FABDEC048B204670BD4150000880
:1050800070B5084D064671462846744672F0D0FA4F
:1050900036792846C6F34006214672F0DBFA3046E0
:1050A00070BD00BF8150000838B5064D744671468A
:1050B000284672F0BDFA2846214672F0CBFA00204D
:1050C00038BD00BFA950000870B5074D06467146AF
:1050D0002846744672F0ACFAB6F894602846214629
:1050E00072F0B8FA30B270BDC950000870B50A4D00
:1050F0002DED028B714606462846744672F098FAEA
:1051000096ED1C8A2846214672F0A4FAB0EE480AB1
:10511000BDEC028B70BD00BFED50000870B50A4DAC
:105120002DED028B714606462846744672F080FAD1
:1051300096ED2C8A2846214672F08CFAB0EE480A89
:10514000BDEC028B70BD00BF1D51000870B50A4D4B
:105150002DED028B714606462846744672F068FAB9
:1051600096ED2F8A2846214672F074FAB0EE480A6E
:10517000BDEC028B70BD00BF4D510008F8B5084D65
:10518000744606460F462846714672F051FA284684
:10519000214672F05FFA382303FB07602630F8BD22
:1051A0007D51000870B50A4D064671462846744682
:1051B00072F03EFA96F89410304601F00301FFF7C2
:1051C000DDFF21460646284672F044FA304670BD9F
:1051D000A5510008F8B5084D064674460F46284606
:1051E000714672F025FA86F8287028462146BDE8F7
:1051F000F84072F02FBA00BFD5510008F8B50A4D3B
:1052000006460F4628467146744672F011FA0C2382
:1052100003FB0760BC30FFF73DFA214606462846EF
:1052200072F018FA3046F8BDFD51000870B50B4E0B
:10523000044671463046754672F0FAF923682046F6
:10524000DB6C984701462046FFF7D8FF2946044605
:10525000304672F0FFF9204670BD00BF2D520008A5
:105260002DE9FF4BDFF8648071464046774672F0C7
:10527000DFF91348FFF7DAFF124B06460068D3F850
:1052800000909FF051FE04467068D9F800B00D46BA
:105290009FF04AFECDE90001B0689FF045FECDE9E0
:1052A000020122464846DBF8206007492B46B047FA
:1052B0004046394604B0BDE8F04B72F0CBB900BFB0
:1052C000BC190020CC22002068710A086152000835
:1052D000F8B50A4D06460F4628467146744672F0E8
:1052E000A7F90C2303FB07609830FFF7D3F9214699
:1052F0000646284672F0AEF93046F8BDD152000895
:1053000070B50B4E044671463046754672F090F902
:10531000236820469B6C984701462046FFF7D8FF3C
:1053200029460446304672F095F9204670BD00BF0C
:1053300001530008F8B50A4D06460F462846714647
:10534000744672F075F90C2303FB07607430FFF7A5
:10535000A1F921460646284672F07CF93046F8BD90
:105360003553000870B50B4E0446714630467546FD
:1053700072F05EF9236820469B6C984701462046F0
:10538000FFF7D8FF29460446304672F063F92046FD
:1053900070BD00BF655300082DE9F04BDFF8909019
:1053A000204C8CB071464846F04672F041F92046D8
:1053B000FFF7A6FF07462046FFF7D4FF1A4BD3F8A6
:1053C00000B00646DBF8003038680B939FF0ACFD68
:1053D000044678680D469FF0A7FDCDE90001B86846
:1053E0009FF0A2FDCDE9020130689FF09DFDCDE95F
:1053F000040170689FF098FDCDE90601B0689FF048
:1054000093FDCDE908010B9B08491E6A58462246C8
:105410002B46B047484641460CB0BDE8F04B72F011
:1054200019B900BFBC190020CC22002084710A08E1
:105430009953000870B5084D7146064628467446D3
:1054400072F0F6F83046FEF799FF067821462846B6
:1054500072F000F9304670BD3554000870B5084D43
:10546000714606462846744672F0E2F8701CFEF754
:1054700085FF06782146284672F0ECF8304670BD6C
:105480005D54000870B5084D7146064628467446BE
:1054900072F0CEF8F01CFEF771FF06782146284620
:1054A00072F0D8F8304670BD8554000870B5084DCC
:1054B000714606462846744672F0BAF8B01CFEF7EC
:1054C0005DFF06782146284672F0C4F8304670BD6C
:1054D000AD54000838B5714604460A48754672F066
:1054E000A7F8B4F5966F05DBB4F5E16FD4BF0124DE
:1054F000022400E000240348294672F0ABF820465D
:1055000038BD00BFD5540008F7B50A4D06460F4612
:1055100028467146744672F08BF802A9301D01F8D6
:10552000017DFFF719FD2846214672F093F803B07C
:10553000F0BD00BF0955000838B5154871467546DD
:1055400072F076F8134BB3F9703140F2CE429342C9
:1055500011DDB3F5AA6F10DD40F2D25293420EDD99
:1055600040F2546293420CDD40F2D564A342CCBFBA
:105570000524042406E0002404E0012402E00224BF
:1055800000E003240248294672F064F8204638BD42
:1055900039550008C8150020F8B5084D0F460646D5
:1055A00071462846744672F043F83B7833702846BB
:1055B0002146BDE8F84072F04DB800BF995500088B
:1055C000F7B50A4D06460F4628467146744672F0F6
:1055D0002FF802A906F1350001F8017DFFF7DCFF85
:1055E0002846214672F036F803B0F0BDC1550008D8
:1055F00070B50A4D714606462846744672F018F892
:105600003046FEF7BBFE90F90060003618BF012659
:105610002846214672F01EF8304670BDF15500084C
:1056200070B5084D714606462846744672F000F87B
:10563000B01DFEF7C9FE06882146284672F00AF81A
:1056400030B270BD21560008F7B50A4D06460F4628
:1056500028467146744671F0EBFF02A906F150002E
:1056600001F8017DFFF778FC2846214671F0F2FF32
:1056700003B0F0BD4956000870B5084D71460646A6
:105680002846744671F0D4FF3046FEF777FE067860
:105690002146284671F0DEFF70B270BD79560008D1
:1056A00038B571462DED028B04460C487546B0EEB8
:1056B000408A71F0BDFF04F5A470FEF75FFE90F91B
:1056C00000300648022B08BF84ED5F8ABDEC028BD8
:1056D0002946BDE8384071F0BDBF00BFA1560008A3
:1056E00038B571462DED028B04460C487546B0EE78
:1056F000408A71F09DFF04F5A470FEF73FFE90F91B
:1057000000300648012B08BF84ED5F8ABDEC028B98
:105710002946BDE8384071F09DBF00BFE156000842
:10572000F8B5094D744606460F462846714671F095
:105730007FFF2846214671F08DFF0C2303FB076095
:1057400000F5B270F8BD00BF21570008F8B50F464C
:10575000074D064606EBC70671462846744671F0AB
:1057600067FF36692846214671F074FF3046F8BD60
:105770004D57000870B5084D0646714628467446D8
:1057800071F056FF96F894602846C6F381062146CC
:1057900071F060FF304670BD7557000870B5074D59
:1057A000064671462846744671F042FF366928461F
:1057B000214671F04FFF304670BD00BF9D57000875
:1057C00070B50B4D064671462846744671F030FFA1
:1057D000084B1A7866F3C3021A70074B5A7866F3BF
:1057E00004125A7028462146BDE8704071F032BF5D
:1057F000C157000844210020087E002038B5074D1D
:1058000071462846744671F013FF054B00221A704A
:1058100028462146BDE8384071F01CBFFD570008FE
:10582000DA1A002070B5074D0646714628467446C0
:1058300071F0FEFEB36C9E882846214671F00AFF87
:1058400030B270BD2558000870B50D4D7146284620
:10585000744671F0EDFE0B48FEF7B6FDB0F900009E
:1058600007EE900AFAEEEF7A2846FDEEE77A214637
:1058700017EE906AB6B271F0EDFE30B270BD00BFA7
:10588000495800081816002070B5094D71460646A3
:105890002846744671F0CCFE06F19400FEF76EFDCA
:1058A00006782146284671F0D5FE304670BD00BF0F
:1058B0008958000870B5094D714606462846744659
:1058C00071F0B6FE06F19200FEF77EFD06882146D5
:1058D000284671F0BFFE30B270BD00BFB558000859
:1058E000F8B50A4D06460F4628467146744671F0D3
:1058F0009FFE96F8743067F3410386F874302846AB
:105900002146BDE8F84071F0A5BE00BFE15800088F
:1059100010B51B487146744671F08AFE194B93F915
:1059200000300D2B16D8DFE803F007071511151509
:105930000A15150E150715071348002118E0134B1B
:105940001B78042B06D11048012111E0104B1B7865
:10595000022BF7E70F4B1B78DB0707D50E4B1978A7
:1059600001F0A001203918BF012100E00121064803
:10597000FFF7B6FF21460248BDE8104071F06ABE4D
:1059800011590008F82400202C200020201B0020A2
:10599000286900201E270020C41E002070B5094D74
:1059A00071462846744671F043FE074B986B0368B6
:1059B000DB68984721460646284671F04BFE304684
:1059C00070BD00BF9D590008507C0020F8B5084DFF
:1059D0000F46064671462846744671F029FE3B88FC
:1059E000338028462146BDE8F84071F033BE00BF41
:1059F000CD590008F8B5074D064674460F462846AF
:105A0000714671F015FEB78028462146BDE8F84082
:105A100071F020BEF5590008F8B5094D06460F464D
:105A200028467146744671F003FE3046B763FEF7B0
:105A30006FFC28462146BDE8F84071F00BBE00BF60
:105A4000195A000838B5064D74462846714671F05B
:105A5000EFFD28462146BDE8384071F0FBBD00BF90
:105A6000455A000870B5094D7146064628467446E9
:105A700071F0DEFD064B986B0268B1B25268904738
:105A800028462146BDE8704071F0E4BD655A000823
:105A9000507C002070B50A4D2DED028B0646B0EE0D
:105AA000408A28467146744671F0C2FD86ED3B8AF5
:105AB000BDEC028B28462146BDE8704071F0CABD9E
:105AC000955A0008F8B50A4D06460F462846714615
:105AD000744671F0ADFD96F8983067F3C30386F80D
:105AE000983028462146BDE8F84071F0B3BD00BFAC
:105AF000C55A000838B50A4D71462846744671F0FB
:105B000097FD084B08481978C94301F00101FFF7D8
:105B1000D9FF28462146BDE8384071F09BBD00BF43
:105B2000F55A00081E2700203C1B002070B50A4DC6
:105B3000064671462846744671F07AFDB369D3ED86
:105B4000067AF8EEE77A2846C6ED187A2146BDE8CF
:105B5000704071F07FBD00BF2D5B000870B50A4D2D
:105B60002DED028B714606462846744671F060FDA5
:105B700096ED2B8A2846214671F06CFDB0EE480A5E
:105B8000BDEC028B70BD00BF5D5B000838B50E4DEB
:105B90002DED028B714608EE100A2846744671F00E
:105BA00047FD0A48FEF788FEB8EEC88AD0ED007AB5
:105BB00028EE278A2846214671F04CFDB0EE480AAF
:105BC000BDEC028B38BD00BF8D5B00088018002043
:105BD00070B5094E044671463046754671F028FD91
:105BE000A0680368DB6A9847304684ED1C0A2946A2
:105BF000BDE8704071F02EBDD15B000870B50A4D54
:105C00002DED028B714606462846744671F010FD54
:105C100096ED168A2846214671F01CFDB0EE480A22
:105C2000BDEC028B70BD00BFFD5B000870B50A4D76
:105C30002DED028B714606462846744671F0F8FC3D
:105C400096ED178A2846214671F004FDB0EE480A09
:105C5000BDEC028B70BD00BF2D5C000870B50A4D15
:105C60002DED028B714606462846744671F0E0FC25
:105C700096ED188A2846214671F0ECFCB0EE480AF1
:105C8000BDEC028B70BD00BF5D5C000870B50C4DB3
:105C900006462DED028B71462846744671F0C8FC0D
:105CA000F068FFF7DBFFB0EE408ABDEEC88A2846F9
:105CB000214671F0CFFC18EE100ABDEC028B70BDCE
:105CC0008D5C000870B50A4D2DED028B71460646BD
:105CD0002846744671F0ACFC96ED198A2846214698
:105CE00071F0B8FCB0EE480ABDEC028B70BD00BF8D
:105CF000C55C000870B50C4D06462DED028B714653
:105D00002846744671F094FCF068FFF7DBFFB0EEB4
:105D1000408ABDEEC88A2846214671F09BFC18EEE9
:105D2000100ABDEC028B70BDF55C000870B50A4D21
:105D30002DED028B714606462846744671F078FCBC
:105D400096ED108A2846214671F084FCB0EE480A90
:105D5000BDEC028B70BD00BF2D5D000810B5714613
:105D60002DED028B1548744671F062FC144B5A7885
:105D70009978DB7842EA012242EA034343F31703AE
:105D8000B3F57A7F05DB0F48FFF7D0FFB0EE408A0E
:105D90000BE00D48FEF718FBB0F90030002BC8BF30
:105DA0005B4207EE903AB8EEE78A0448214671F06C
:105DB00051FCB0EE480ABDEC028B10BD5D5D0008E1
:105DC000F9240020DC2200200816002070B50C4DBC
:105DD00006462DED028B71462846744671F028FC6C
:105DE000F068FFF73BFFB0EE408ABDEEC88A284658
:105DF000214671F02FFC18EE100ABDEC028B70BD2D
:105E0000CD5D000870B50C4D06462DED028B714638
:105E10002846744671F00CFCF068FFF753FFB0EEB3
:105E2000408ABDEEC88A2846214671F013FC18EE60
:105E3000100ABDEC028B70BD055E000870B5094DFF
:105E4000714606462846744671F0F2FBD6ED0A7A92
:105E5000FDEEE77A284617EE906A214671F0FAFBCC
:105E6000304670BD3D5E000870B5084D064671466F
:105E70002846744671F0DCFB0023F38633872846FE
:105E80002146BDE8704071F0E5BB00BF695E0008C7
:105E900070B5074D744671460646284671F0C8FB3A
:105EA0002846214671F0D6FB06F15C0070BD00BFAC
:105EB000915E000870B5084D064671462846744646
:105EC00071F0B6FB3678284606F00106214671F0DF
:105ED000C1FB304670BD00BFB55E000870B5064D11
:105EE000744671460646284671F0A2FB28462146B4
:105EF00071F0B0FB304670BDDD5E000870B5044641
:105F00000D462DED028B71466448764671F090FB8C
:105F10002188B5F900200BB2002B02DD002A03DA3C
:105F200008E009B1002A05DC002AB8BF5242B2F5E8
:105F3000E16F01DD2B88A8E007EE103A002BF8EEA8
:105F4000C77A9FED578A50DD564867EE888AFEF77C
:105F50003BFAB0F90030032B0CDD5248FEF734FA5F
:105F6000B0F90020042392FBF3F307EE903AB8EE69
:105F7000E77A01E0B7EE007AF4EEC78AF1EE10FAA4
:105F800008DDB4F9003007EE903AF8EEE77A27EE34
:105F9000888A15E04348FEF717FAB0F90030032B62
:105FA0000CDD4048FEF710FAB0F90020042392FB04
:105FB000F3F308EE103AB8EEC88A01E0B7EE008AB3
:105FC000B4F9003007EE903AF8EEE77A37EEC88A77
:105FD000BDEEC88A18EE103A9BB22380B5F90020B6
:105FE0001BB29342B8BF13464FE02E4867EEC88AF3
:105FF000FEF7EAF9B0F90030032B0CDD2948FEF773
:10600000E3F9B0F90020042392FBF3F307EE103A12
:10601000F8EEC77A01E0F7EE007AF4EEE78AF1EEE7
:1060200010FA08DDB4F9003007EE903AF8EEE77A9E
:1060300027EEC88A15E01B48FEF7C6F9B0F9003014
:10604000032B0CDD1748FEF7BFF9B0F9002004233D
:1060500092FBF3F308EE103AB8EEC88A01E0B7EE0F
:10606000008AB4F9003007EE903AF8EEE77A38EE9D
:10607000278ABDEEC88A18EE103A9BB22380B5F984
:1060800000201BB29342A8BF1346BDEC028B2380B5
:1060900031460248BDE8704071F0DCBAFD5E000890
:1060A000CDCC4C3CFE15002038B50C4D7146284631
:1060B000744671F0BDFA0A4B1A78052161F30202A9
:1060C0001A70C8225A8300225A805A8EDA832846D0
:1060D0002146BDE8384071F0BDBA00BFA960000894
:1060E000D413002038B50C4D71462846744671F023
:1060F0009FFA0A4B1A78052161F3C5021A70C8226B
:106100009A8300229A809A8E1A8428462146BDE8F6
:10611000384071F09FBA00BFE5600008D41300203A
:1061200038B533482DED048B7146754671F080FA11
:10613000304B1A78C2F34102002A51D05978C8076F
:106140004ED52D4C6FF300015970B4F9F23007EEC3
:10615000103A012AB8EEC77A0AD1284BD3ED006A6B
:10616000B4F9123108EE903A254BF8EEE88A09E0CE
:10617000244BD3ED006AB4F9123108EE903A224B69
:10618000F8EEE88AD3ED007A204827EEE88A68EE38
:10619000A68AA7EE268AE7EE278AFEF7BFFF1B48EE
:1061A000B0EE409AFEF7D2FF20EE280A1748A9EE7B
:1061B000080ABDEEC00A10EE103AA4F8F230FEF75D
:1061C000C5FF1248B0EE409AFEF7A8FF20EE280A5D
:1061D000A8EE490ABDEEC00A10EE103AA4F812313A
:1061E000BDEC048B29460248BDE8384071F032BA54
:1061F00021610008C41E0020C8150020C40D002025
:10620000C4240020BC0D002030690020702700202D
:106210002DE9F0410A4D80460F46284671467446E6
:1062200071F006FA0748066841463A463668B047B4
:106230002846214671F00EFA0020BDE8F08100BF2B
:1062400011620008507C002070B50B4D0646714667
:106250002846744671F0ECF9084B1A7866F382020E
:106260001A70074B5A7866F3C3025A7028462146C3
:10627000BDE8704071F0EEB9496200084421002089
:10628000087E002038B5714604460C48754671F00A
:10629000CFF90B4B1A78C2F30011A14207D064F377
:1062A00004121A70074B1A7864F3C7121A70294641
:1062B0000248BDE8384071F0CDB900BF85620008E2
:1062C000C41E0020087E002038B5714605460948E6
:1062D000744671F0ADF9084B06481A78C2F3C00154
:1062E000A9421CBF65F3C3021A702146BDE83840BD
:1062F00071F0B0B9C9620008C41E002038B5104D55
:106300002DED028B71462846744671F091F90D48C7
:10631000FEF734F890F90000DFED0B7A07EE100A73
:10632000B8EEC77AB0EE008AA7EE278A2846214643
:1063300071F090F9B0EE480ABDEC028B38BD00BF99
:10634000FD620008FD150020CDCCCC3D70B5714636
:1063500005461048744671F06BF9FEF785FB06465A
:106360000D48FEF70BF890F90030B3EB962F01D2F1
:10637000002508E035B9094BD86A03681B6A9847BD
:106380000028F5D101250348214671F063F928461C
:1063900070BD00BF4D630008D7150020507C002061
:1063A000F8B5084D744606460F462846714671F00A
:1063B0003FF92846214671F04DF90C2303FB076095
:1063C0004C30F8BDA163000870B50B4E0446714611
:1063D0003046754671F02CF923682046DB6C9847EF
:1063E00001462046FFF7DCFF29460446304671F09F
:1063F00031F9204670BD00BFC9630008F8B50F46EB
:10640000074D064606EBC70671462846744671F0EE
:106410000FF9F6682846214671F01CF93046F8BDA0
:10642000FD63000870B50A4D06467146284674465D
:1064300071F0FEF896F89410304601F00301FFF772
:10644000DDFF21460646284671F004F9304670BD4E
:1064500025640008F8B5094D744606460F462846DF
:10646000714671F0E5F82846214671F0F3F83823BB
:1064700007FB0333F0180830F8BD00BF556400086F
:1064800070B50A4D064671462846744671F0D0F83C
:1064900096F89410304601F00301FFF7DBFF214628
:1064A0000646284671F0D6F8304670BD8164000873
:1064B000F8B50C4D2DED028B06460F462846714669
:1064C000744671F0B5F8382303FB076696ED0D8A24
:1064D0002846214671F0BEF8B0EE480ABDEC028BAA
:1064E000F8BD00BFB164000870B50D4D06462DED36
:1064F000028B71462846744671F09AF896F894100B
:10650000304601F00301FFF7D3FF2846B0EE408A82
:10651000214671F09FF8B0EE480ABDEC028B70BDC9
:10652000E964000838B5054671460848744671F0BC
:106530007FF8A88B4FF6FF75A84214BF05460025CB
:106540002146024871F086F8284638BD25650008C6
:1065500070B50A4D714606462846744671F068F8D3
:10656000301DFDF70BFF90F90060003618BF0126C3
:106570002846214671F06EF8304670BD516500081E
:1065800070B5074D064671462846744671F050F8BE
:1065900096F828602846214671F05CF8304670BDB8
:1065A0008165000870B5074D064671462846744659
:1065B00071F03EF8368E2846214671F04BF8304691
:1065C00070BD00BFA565000870B5074D0646714651
:1065D0002846744671F02CF8F66A2846214671F078
:1065E00039F8304670BD00BFC965000870B5064D6A
:1065F000744671460646284671F01AF82846214628
:1066000071F028F8304670BDED65000870B50D4694
:10661000044671462448764671F00AF8082D3BD8A6
:1066200004EB45007230FFF7E1FF007807EE900AB7
:10663000082DF8EE677A08D094F864300BB9236C13
:106640001BB1B5EE007A67EE877AF5EEC07AF1EE0F
:1066500010FA21D9254495F88430D3B99FED137AE7
:1066600094F88D40F4EE477AF1EE10FAC8BFF0EEE0
:10667000477A87EE277A06EE904AF8EEE66A01241A
:1066800077EE267AFCEEE77A17EE903A85F88430BA
:1066900003E0013B85F8843000240348314670F064
:1066A000D9FF204670BD00BF0D66000800004842BB
:1066B00070B5074D744671460646284670F0B8FF1F
:1066C0002846214670F0C6FF06F19C0070BD00BF51
:1066D000B166000870B50C4D2DED028B0646714673
:1066E000B0EE408A2846744670F0A2FFF068B0EE23
:1066F000480AFEF715FABDEC028B28462146BDE894
:10670000704070F0A7BF00BFD566000838B50C46D2
:106710001D487146754670F08BFF6379DB071CD509
:106720001A48FFF7C5FFA379E279817843EA02228C
:10673000237A42EA0342437843EA0123C17843EAD9
:10674000014342F3170243F317031344C3F3072231
:10675000A371C3F30743E2712372E279A3790C4872
:1067600043EA0223227A43EA024343F3170300EE8B
:10677000103AB8EEC00AFFF7ADFF29460248BDE85F
:10678000384070F067BF00BF0D6700087027002019
:10679000E41E002070B5094D714606462846744631
:1067A00070F046FF06F13700FDF78EFD06782146B2
:1067B000284670F04FFF304670BD00BF9567000857
:1067C00070B5074D064671462846744670F030FF96
:1067D000367D2846214670F03DFF304670BD00BF33
:1067E000C167000870B5074E0446714630467546CD
:1067F00070F01EFF044B23603046294670F02AFFDC
:10680000204670BDE567000878620A08F8B50A4EB0
:1068100004460F4630467146754670F009FF204623
:10682000FFF7E0FF054B236030462771294670F0E3
:1068300011FF2046F8BD00BF0D680008D0BA0A0855
:1068400070B50D4C064671460C48754670F0F0FE6A
:10685000206803685B690EB1094900E0094998475F
:106860002068094903685B69984729460348BDE8E1
:10687000704070F0EFBE00BFCC22002041680008DD
:106880009F770A0876600A085B7C0A0870B5094D94
:10689000714606462846744670F0CAFE06F5A47096
:1068A000FDF76CFD06782146284670F0D3FE304691
:1068B00070BD00BF8D680008F8B50B4D06460F4649
:1068C00028467146744670F0B3FE0C2303FB076044
:1068D00000F5A670FDF7DEFE21460646284670F05C
:1068E000B9FE3046F8BD00BFB968000870B5094D63
:1068F000714606462846744670F09AFE06F1080076
:10690000FDF73CFD06782146284670F0A3FE304690
:1069100070BD00BFED68000838B5714604460D48EB
:10692000754670F085FE0C48FDF728FD90F90030A3
:10693000022B05D0032B06D01C1C18BF012403E03A
:1069400084F0010400E004240248294670F082FE2D
:10695000204638BD19690008FC15002070B50E4DA1
:106960002DED028B714606462846744670F060FE97
:106970003046FFF7B9FD28462146B0EE408A70F058
:1069800069FEDFED067A28EE278ABCEEC88A18EE8B
:10699000100ABDEC028B70BD5D6900080000C842A2
:1069A000F8B5094D0F46064671462846744670F004
:1069B0003FFE382303FB07662846B66B214670F07E
:1069C00049FE3046F8BD00BFA169000870B50A4D08
:1069D000064671462846744670F02AFE96F89410D2
:1069E000304601F00301FFF7DBFF2146064628464B
:1069F00070F030FE304670BDCD69000838B51348E0
:106A0000134C2DED028B7146754670F011FE114846
:106A1000FDF7DAFE01280DD90E48FFF79FFF642825
:106A200008D90C48FFF7D2FF07EE100AF8EEC77A34
:106A3000C4ED007A94ED008A0448294670F00AFEFD
:106A4000B0EE480ABDEC028B38BD00BFFD690008FE
:106A5000C8240020C823002070B50A4D2DED028BFC
:106A6000714606462846744670F0E2FD96ED398A76
:106A70002846214670F0EEFDB0EE480ABDEC028BD0
:106A800070BD00BF596A000870B5084E04467146D3
:106A90003046754670F0CCFD0023304663602360BD
:106AA000294670F0D7FD204670BD00BF896A0008F6
:106AB00070B5074D744671460646284670F0B8FD1D
:106AC0002846214670F0C6FD06F50B7070BD00BF6C
:106AD000B16A000838B5094D71462846744670F011
:106AE000A7FD074B01221A70FEF758FF054B1860EF
:106AF00021462846BDE8384070F0ACBDD56A000894
:106B0000B40D00206C27002038B5074D714628468B
:106B1000744670F08DFD054B00221A702846214600
:106B2000BDE8384070F096BD096B0008B40D002038
:106B300070B50A4D2DED028B0646B0EE408A284610
:106B40007146744670F074FD86ED098ABDEC028BC7
:106B500028462146BDE8704070F07CBD316B0008CE
:106B600070B5084D714606462846744670F060FDC3
:106B7000B01DFDF7A9FB06782146284670F06AFD96
:106B8000304670BD616B000838B5094D7146284626
:106B9000744670F04DFD074A00231380064A1360C7
:106BA000064A138028462146BDE8384070F052BDA1
:106BB000896B0008CC2400200C140020EC1F00205E
:106BC00038B5714604460D48754670F031FD0C4BE2
:106BD0001A8801321A800B4B1A68944288BF1C60D5
:106BE00040F6B8339C4203D9074B1A8801321A8009
:106BF00029460248BDE8384070F02CBDC16B000842
:106C0000CC2400200C140020EC1F002070B5074D90
:106C100071462846744670F00BFD054B1E882846C9
:106C2000214670F017FD304670BD00BF0D6C0008A6
:106C3000CC24002070B5074D71462846744670F08C
:106C4000F7FC054B1E682846214670F003FD3046D0
:106C500070BD00BF356C00080C14002070B5074DE6
:106C600071462846744670F0E3FC054B1E882846A2
:106C7000214670F0EFFC304670BD00BF5D6C00082F
:106C8000EC1F0020F0B5234F8BB004467146384608
:106C9000764670F0CDFC2048FFF70AFD6268436835
:106CA000DFED1E7AD31A06EE903A1D4BA268D3EDA3
:106CB000000A8368D31AB8EEE60AA27806EE903A84
:106CC000637843EA0223E27843EA024343F317037B
:106CD00060EEA70AB8EEE67A01EE103A04AD20EEB7
:106CE000270A60EE870AB8EEC11A2846FEF7A8F90F
:106CF00095E807000AAB03E907003846314670F013
:106D0000A9FC9DED070ADDED080A9DED091A0BB0FF
:106D1000F0BD00BF856C0008702700202C7D8E3FE1
:106D2000D00D002038B5064D74462846714670F0E7
:106D30007FFC28462146BDE8384070F08BBC00BF80
:106D4000256D0008F8B504460D461D487146764687
:106D5000174670F06DFCA07B042802D80130A073A8
:106D600002E00FB93A461AE0A27B013AD2B253B21E
:106D7000002B02DC04EB43041BE004EB43014988D5
:106D800008B2A842F6DD04EB43039980EDE700F179
:106D9000FF3C634502F101020ADA21448F8053B2BD
:106DA00004EB4301CF8839B2A9424FEA4301EEDB3D
:106DB0000C44A58031460248BDE8F84070F04ABC5A
:106DC000456D000870B504460E460F48714675467D
:106DD00070F02EFC227C20463146FFF7B3FF237C67
:106DE000094883F001032374A37B042B8DBFE37B4D
:106DF00003F0FE03E41804EB43042946A48870F072
:106E000029FC20B270BD00BFC56D000838B57146C1
:106E100005460A48744670F00BFC0023EA18043358
:106E200000211C2B5160F9D1002385F82030214628
:106E30000248BDE8384070F00DBC00BF0D6E000880
:106E400070B50A4E044671463046754670F0F0FB48
:106E50000023A380E38023816381A381A373304651
:106E60002946BDE8704070F0F5BB00BF416E0008D8
:106E700070B504460D460B487146764670F0D8FB57
:106E8000A27B0848531CDBB2042B04EB4202A37321
:106E900088BF00239580314688BFA37370F0DAFB6A
:106EA000284670BD716E000870B504460E462DED83
:106EB000028B12487146754670F0BAFB07EE106AF5
:106EC000237AF8EEC77A1BB90123C4ED037A237243
:106ED00094ED038A94ED017A084877EEC87A294642
:106EE000A7EE878A84ED038ABDEEC88A70F0B2FBF4
:106EF00018EE100ABDEC028B70BD00BFA96E000831
:106F000070B5074D064671462846744670F090FBF2
:106F10000023337228462146BDE8704070F09ABBCA
:106F2000016F000838B504462DED028B71460F48FD
:106F3000B0EE408A754670F07BFB94F820200B4839
:106F4000531CDBB2062B84F8203004EB820288BF8E
:106F5000002382ED018A294688BF84F8203070F032
:106F600079FBB0EE480ABDEC028B38BD256F0008F6
:106F700038B5094D71462846744670F059FB074BE9
:106F8000074AD86B116803681B6898472846214652
:106F900070F060FB002038BD716F0008507C00204D
:106FA000CC22002038B5094D71462846744670F051
:106FB0003FFB074B0749186803681B6A9847284638
:106FC0002146BDE8384070F045BB00BFA56F000802
:106FD000CC220020BD710A0838B5064D74467146B2
:106FE000284670F025FB2846214670F033FB002030
:106FF00038BD00BFD96F0008F8B5084D7446064685
:107000000F462846714670F013FB2846214670F063
:1070100021FB0C2303FB07600430F8BDF96F000867
:1070200070B50B4E044671463046754670F000FB55
:10703000236820469B6C984701462046FFF7DCFFFB
:1070400029460446304670F005FB204670BD00BF5F
:1070500021700008F8B50A4D06460F4628467146CD
:10706000744670F0E5FA96F8363067F3820386F8D6
:10707000363028462146BDE8F84070F0EBBA00BF34
:107080005570000870B50B4E044671463046754683
:1070900070F0CEFA236820461B69984701462046C7
:1070A000FDF7CAFA29460446304670F0D3FA204666
:1070B00070BD00BF8570000838B5094D714628467F
:1070C000744670F0B5FA074B0749186803681B6AE5
:1070D00098472846214670F0BDFA002038BD00BF11
:1070E000B9700008CC220020D2710A0838B5094DC9
:1070F00071462846744670F09BFA074B986B0368FC
:107100000021DB6B98472846214670F0A3FA002047
:1071100038BD00BFED700008507C00202DE9F04B19
:107120005D4F5E4D5E4C71463846764670F080FA93
:10713000D5F80080D8F8003004F1FA00D3F8209098
:10714000FDF742F9B0F900B004F1FE00FDF73CF99B
:107150005A465449B0F900304046C847D5F8008037
:10716000D8F8003004F58D70D3F82090FDF72CF995
:10717000B0F900B004F58F70FDF726F95A464A4978
:10718000B0F900304046C847D5F80080D8F8003044
:1071900004F59D70D3F82090FDF716F9B0F900B012
:1071A00004F59F70FDF710F95A464049B0F90030D8
:1071B0004046C847D5F80080D8F8003004F5AD70D7
:1071C000D3F82090FDF700F9B0F900B004F5AF70E6
:1071D000FDF7FAF85A463649B0F900304046C8473C
:1071E000D5F80080D8F8003004F5BD70D3F82090B1
:1071F000FDF7EAF8B0F900B004F5BF70FDF7E4F868
:107200005A462C49B0F900304046C847D5F80080AE
:10721000D8F8003004F5CD70D3F82090FDF7D4F8FD
:10722000B0F900B004F5CF70FDF7CEF85A46224908
:10723000B0F900304046C847D5F80080D8F8003093
:1072400004F5DD70D3F82090FDF7BEF8B0F900B07A
:1072500004F5DF70FDF7B8F85A461849B0F9003068
:107260004046C8472D682B6804F5ED70D3F82080A0
:10727000FDF7AAF8B0F9009004F5EF70FDF7A4F857
:107280000F49B0F900304A462846C04738463146D3
:10729000BDE8F04B70F0DEB91D710008CC22002073
:1072A000C8150020FD710A080B720A0819720A0835
:1072B00027720A0835720A0843720A0851720A08CE
:1072C0005F720A0870B504460D462D487146764631
:1072D00070F0AEF92368102D47D8DFE805F0090DEE
:1072E00012161A1E2226462A2E3246363A3E4200F0
:1072F0005B692449204602E05B69234920469847A0
:1073000038E05B6921492046F9E75B69204920465E
:10731000F5E75B691F492046F1E75B691E49204696
:10732000EDE75B691D492046E9E75B691C4920469A
:10733000E5E75B691B492046E1E75B691A4920469E
:10734000DDE75B6919492046D9E75B6918492046A2
:10735000D5E75B6917492046D1E75B6916492046A6
:10736000CDE75B6915492046C9E71B6A14492046E9
:107370002A46984731460248BDE8704070F06AB925
:10738000C57200086D720A0877720A087C720A08D2
:1073900085720A088A720A08A4720A0891720A0899
:1073A00095720A089C720A08A1720A08AB720A0850
:1073B000B1720A08B7720A08BC720A08C5720A08D4
:1073C000CD720A082DE9F843124C814688461248CE
:1073D00071467546164670F02BF920680F4907680C
:1073E0004A463F6AB84720684146FFF76BFF20686E
:1073F0000B4903681B6A9847206803681B6A0EB133
:10740000084900E00849984729460348BDE8F84381
:1074100070F020B9CC220020C5730008D6720A088B
:10742000DF720A08EB720A08EF720A0870B5084D9D
:1074300071462846744670F0FBF80648FEF73AFDA0
:1074400021460646284670F005F9304670BD00BF5B
:107450002D740008E41E002038B5064D74467146B0
:10746000284670F0E5F82846214670F0F3F8002031
:1074700038BD00BF5974000870B5074D7446714699
:107480000646284670F0D4F82846214670F0E2F807
:1074900006F11C0070BD00BF7974000870B50A4D7C
:1074A0002DED028B714606462846744670F0C0F8F2
:1074B00096ED0C8A2846214670F0CCF8B0EE480ACA
:1074C000BDEC028B70BD00BF9D74000838B512483A
:1074D0007146754670F0ACF81048FEF7EBFC0446B8
:1074E00098B10F4C236813B9FDF7BEFA2060FDF781
:1074F000BBFA24684FF47A73001BB0FBF3F4094B1A
:107500001B889C4234BF002401240348294670F0A4
:10751000A1F8204638BD00BFCD740008E41E00204D
:10752000A82100201C27002038B50B48714675465D
:1075300070F07EF8094B1C783CB1094B1C78033C79
:10754000E4B2012C8CBF002401240348294670F0CA
:1075500081F8204638BD00BF29750008EE1F0020C5
:10756000201B002038B571460C48754670F060F855
:10757000FDF77AFA0A4B1B68C01A0A4B1A6822EA0E
:10758000E27290424FF0000488BF1C60034888BF3D
:107590000124294670F05EF8204638BD6575000864
:1075A0006C1400205C14002038B5064D74467146FA
:1075B000284670F03DF82846214670F04BF801202F
:1075C00038BD00BFA9750008F8B50A4E07460C463D
:1075D00030467146754670F02BF894E8070007F1C5
:1075E0001C0383E8070030462946BDE8F84070F0E8
:1075F00031B800BFC9750008F7B50A4E02AC24EDDA
:10760000010A714607463046754670F011F821466A
:1076100007F11000FDF718FC3046294670F01AF803
:1076200003B0F0BDF975000870B50C4D2DED028B5F
:1076300071460646284674466FF0FAFF06F11000C0
:10764000FDF73AF990ED008A2146284670F002F8DD
:10765000B0EE480ABDEC028B70BD00BF2976000871
:1076600070B5074D06467146284674466FF0E0FF38
:10767000F68F284621466FF0EDFF304670BD00BF03
:107680006176000870B50F4D06467146284674466F
:107690006FF0CEFFFDF7E8F9D6F805609FED0A7AA6
:1076A0000A4B07EE906A67EE877A1860FDEEE77A7C
:1076B000074BC3ED007A28462146BDE870406FF0C5
:1076C000C9BF00BF8576000800007A446C14002012
:1076D0005C14002070B50D4D064671462846744670
:1076E0006FF0A6FFD6F805609FED097A094B07EE0B
:1076F000906A67EE877A2846FDEEE77A2146C3ED69
:10770000007ABDE870406FF0A5BF00BFD5760008D5
:107710000000C8425C14002038B5064D7446284667
:1077200071466FF085FF28462146BDE838406FF06E
:1077300091BF00BF19770008F7B50C4D06460F46FC
:107740002846714674466FF073FF07EE107AF8EE24
:10775000477A02A961ED017A06F10C00FDF7B8FB4A
:10776000284621466FF076FF03B0F0BD3977000858
:1077700070B5064D74467146064628466FF058FFB0
:10778000284621466FF066FF304670BD71770008CD
:1077900070B5084E71460446304675466FF048FF96
:1077A0002046FFF7E5FF304629466FF053FF20469D
:1077B00070BD00BF9177000870B5084E7146044651
:1077C000304675466FF034FF2046FFF7E1FF304644
:1077D00029466FF03FFF204670BD00BFB977000813
:1077E00070B5074E04467146304675466FF020FF6F
:1077F000044B2360304629466FF02CFF204670BDB5
:10780000E177000808630A0870B50B4E044671461C
:10781000304675466FF00CFF2046FFF7E1FF074B3F
:1078200023600023A3732046FFF70AFB3046294656
:107830006FF010FF204670BD0978000818630A0831
:1078400070B504460E460C48714675466FF0F0FE62
:107850002046FFF7D9FF094B2360042E4FF00103A8
:10786000237488BF0223E673034888BFE373294665
:107870006FF0F0FE204670BD4178000828630A08CA
:1078800070B5084E71460446304675466FF0D0FE1E
:107890002046FFF76DFF304629466FF0DBFE20469D
:1078A00070BD00BF8178000870B5084E714604466F
:1078B000304675466FF0BCFE2046FFF759FF304654
:1078C00029466FF0C7FE204670BD00BFA9780008AA
:1078D00070B5084E71460446304675466FF0A8FEF6
:1078E0002046FFF745FF304629466FF0B3FE20469D
:1078F00070BD00BFD178000870B5084E71460446CF
:10790000304675466FF094FE2046FFF7E1FF3046A3
:1079100029466FF09FFE204670BD00BFF978000831
:1079200070B5074E04467146304675466FF080FECE
:10793000044B2360304629466FF08CFE204670BD14
:1079400021790008E8620A0870B5094E04467146BC
:10795000304675466FF06CFE2046FFF7E1FF054BA1
:107960002360304629466FF075FE204670BD00BF8B
:1079700049790008E8C50A0870B5094E0446714601
:10798000304675466FF054FE002330466370A37096
:10799000E370237129466FF05DFE204670BD00BF85
:1079A0007979000870B50A4E71460446304675462E
:1079B0006FF03EFE201DFFF7C7FF04F11400FFF734
:1079C000DBFF304629466FF045FE204670BD00BF04
:1079D000A579000870B5084E7146044630467546D4
:1079E0006FF026FE04F12400FCF724FD3046294602
:1079F0006FF030FE204670BDD579000870B5074E97
:107A000004467146304675466FF012FE044B236003
:107A1000304629466FF01EFE204670BDFD790008F5
:107A200088620A0870B50C4E0446714630467546A9
:107A30006FF0FEFD2046FFF7E1FF084B23600023B7
:107A400084F820302046FFF7E1F9304629466FF0F0
:107A500001FE204670BD00BF257A000898620A0822
:107A600070B5094E04467146304675466FF0E0FD2C
:107A70002046FFF7D7FF054B2360304629466FF0BD
:107A8000E9FD204670BD00BF617A0008A8620A08BF
:107A900070B5094E71460446304675466FF0C8FD14
:107AA0002046FFF765FE2046FCF7C4FC3046294619
:107AB0006FF0D0FD204670BD917A000870B50C4E75
:107AC0002DED028B0446F0EE408AB0EE608A7546DA
:107AD000714630466FF0ACFDC4ED008A84ED018A3A
:107AE000304629466FF0B6FDBDEC028B204670BDD6
:107AF000BD7A000870B50C4E044671463046754696
:107B00006FF096FD4FF07E532362236123600023C4
:107B1000A36063606361E360E361A361304629466B
:107B2000BDE870406FF096BDF57A000870B50C4E58
:107B300071460446304675466FF07AFD2046FCF7E4
:107B400079FC04F10C00FCF775FC04F11800FCF75B
:107B500071FC304629466FF07DFD204670BD00BFA8
:107B60002D7B00082DE9F0410A4E04460F463046B1
:107B70007146754690466FF05BFD002330462371D9
:107B8000A760C4F80C8029466FF064FD2046BDE86C
:107B9000F08100BF657B000870B5084E0446714651
:107BA000304675466FF044FD002330462370637005
:107BB00029466FF04FFD204670BD00BF997B00083D
:107BC00070B5084E04467146304675466FF030FD7C
:107BD000002330462370637029466FF03BFD20463A
:107BE00070BD00BFC17B000870B5074E04467146EA
:107BF000304675466FF01CFD044B23603046294625
:107C00006FF028FD204670BDE97B0008D8620A08A5
:107C100070B50B4E04467146304675466FF008FD50
:107C20002046FFF7E1FF074B23604FF07E53636070
:107C300000233046237229466FF00CFD204670BDAC
:107C4000117C0008F8620A08F8B5084E04460F4691
:107C50003046714675466FF0EBFC002330462760D6
:107C6000A38029466FF0F6FC2046F8BD497C000849
:107C700070B5074D06467146284674466FF0D8FC2D
:107C80003678284621466FF0E5FC304670BD00BFCF
:107C9000717C000870B5074D06467146284674464B
:107CA0006FF0C6FC3678284621466FF0D3FC30468C
:107CB00070BD00BF957C000870B5074D0646714643
:107CC000284674466FF0B4FC3678284621466FF09B
:107CD000C1FC304670BD00BFB97C000870B5074DCF
:107CE00006467146284674466FF0A2FC3678284650
:107CF00021466FF0AFFC304670BD00BFDD7C000850
:107D000070B5074D06467146284674466FF090FCE4
:107D10003678284621466FF09DFC304670BD00BF86
:107D2000017D000870B5074D064671462846744629
:107D30006FF07EFC3678284621466FF08BFC30468B
:107D400070BD00BF257D000870B5074D0646714621
:107D5000284674466FF06CFC3678284621466FF052
:107D600079FC304670BD00BF497D000870B5074DF5
:107D700006467146284674466FF05AFC3678284607
:107D800021466FF067FC304670BD00BF6D7D000876
:107D900070B5074D06467146284674466FF048FC9C
:107DA0003678284621466FF055FC304670BD00BF3E
:107DB000917D000870B5074D064671462846744609
:107DC0006FF036FC3678284621466FF043FC30468B
:107DD00070BD00BFB57D000870B5074D0646714601
:107DE000284674466FF024FC3678284621466FF00A
:107DF00031FC304670BD00BFD97D000870B5074D1D
:107E000006467146284674466FF012FC36782846BE
:107E100021466FF01FFC304670BD00BFFD7D00089D
:107E200070B5074D06467146284674466FF000FC53
:107E30003678284621466FF00DFC304670BD00BFF5
:107E4000217E000870B5074D0646714628467446E7
:107E50006FF0EEFB3678284621466FF0FBFB30468C
:107E600070BD00BF457E000870B5074D06467146DF
:107E7000284674466FF0DCFB3678284621466FF0C2
:107E8000E9FB304670BD00BF697E00082DE9F04176
:107E90000E46804671460E48144675466FF0C8FB84
:107EA0000C4B1C800C4B00241E60A7B21C2000FB56
:107EB0000760FFF7DDFE01340028F6D1074B0448C8
:107EC0001F7029466FF0C6FB4046BDE8F08100BF39
:107ED0008D7E0008147E0020107E00200C7E002085
:107EE00070B5084E71460446304675466FF0A0FBEB
:107EF00004F12400FEF7C8FD304629466FF0AAFBC6
:107F0000204670BDE17E000870B5074E04467146FC
:107F1000304675466FF08CFB044B23603046294693
:107F20006FF098FB204670BD097F0008C8B90A08A9
:107F300070B5074E04467146304675466FF078FBC3
:107F4000044B2360304629466FF084FB204670BD09
:107F5000317F0008D89C0A0870B5094E0446714666
:107F6000304675466FF064FB064B23602046FFF7F2
:107F7000DFFF304629466FF06DFB204670BD00BF25
:107F8000597F0008489D0A0870B5074E044671469F
:107F9000304675466FF04CFB044B23603046294653
:107FA0006FF058FB204670BD897F000820960A08B4
:107FB00070B5094E04467146304675466FF038FB81
:107FC000064B23602046FFF79FFF304629466FF09F
:107FD00041FB204670BD00BFB17F000858BA0A08B7
:107FE00070B5094E04467146304675466FF020FB69
:107FF000064B23602046FFF7AFFF304629466FF05F
:1080000029FB204670BD00BFE17F0008B89D0A082B
:1080100070B5094E04467146304675466FF008FB50
:10802000064B23602046FFF7AFFF304629466FF02E
:1080300011FB204670BD00BF1180000808970A0898
:1080400070B5094E71460446304675466FF0F0FA39
:108050002046FFF759FF20466FF0F2FB30462946D5
:108060006FF0F8FA204670BD4180000870B5094EE7
:1080700071460446304675466FF0DAFA2046FFF73F
:1080800057FF20466FF0DCFB304629466FF0E2FADE
:10809000204670BD6D80000870B5094E71460446DB
:1080A000304675466FF0C4FA2046FFF755FF20466C
:1080B0006FF0C6FB304629466FF0CCFA204670BD03
:1080C0009980000870B5094E7146044630467546E1
:1080D0006FF0AEFA2046FFF757FF20466FF0B0FB77
:1080E000304629466FF0B6FA204670BDC5800008BC
:1080F00070B5094E71460446304675466FF098FAE1
:108100002046FFF755FF20466FF09AFB3046294680
:108110006FF0A0FA204670BDF180000870B5094EDE
:1081200071460446304675466FF082FA2046FFF7E6
:1081300057FF20466FF084FB304629466FF08AFADD
:10814000204670BD1D81000870B5094E7146044679
:10815000304675466FF06CFA2046FFF759FF20460F
:108160006FF06EFB304629466FF074FA204670BD02
:108170004981000870B50B4D7146284674466FF072
:1081800057FA094B09481E78FCF79EF831460278E9
:10819000074818F045FF28462146BDE870406FF0BB
:1081A00059BA00BF75810008F8240020D6150020B8
:1081B0001C14002070B5714606460B4875466FF0DA
:1081C00037FA00240948225C1AB12044314648F0AD
:1081D0007DFCCC34B4F5197FF4D129460248BDE8C2
:1081E00070406FF037BA00BFB5810008081C00204E
:1081F00038B5074D7146284674466FF019FA0820C5
:10820000FFF7D8FF28462146BDE838406FF022BA74
:10821000F181000838B5074D7146284674466FF065
:1082200007FA1B20FFF7C6FF28462146BDE8384065
:108230006FF010BA1582000838B5074D7146284610
:1082400074466FF0F5F90020FFF7B4FF2846214689
:10825000BDE838406FF0FEB93982000838B5094DE5
:108260007146284674466FF0E3F9074829F08AFE04
:10827000064817F0B5FB28462146BDE838406FF0A8
:10828000E9B900BF5D820008AC260020D01F0020A5
:1082900038B50B48714675466FF0CAF90024094895
:1082A000235C1BB12044084948F0B6FDCC34B4F53A
:1082B000197FF4D129460248BDE838406FF0CAB9A9
:1082C00091820008081C00207183000838B57146AF
:1082D0001D4874466FF0ACF91C4B986B0368DB6863
:1082E00098471B4B1A881B4B1988914206D01A805D
:1082F000194B1860194B00221A7011E0184B1B78AB
:1083000073B1154B17491A68821A8A421D46134BDE
:1083100001D901211970197811B1134B9A4205D86E
:1083200021460948BDE838406FF094B928600F48ED
:10833000FCF726F90028F3D00C48002127F0D4FDE3
:108340000A4828F00BF8EBE7CD820008507C0020AB
:10835000D01A0020242700206C270020D81E0020DF
:10836000B40D002080841E0040420F002C2000200D
:1083700010B57146044612486FF05AF9114B204669
:108380001C60FCF7E9F8236820461B6C0121984724
:108390000D4B986B036800215B6905229847FEF737
:1083A000B3FB0A48FCF7ECF830B10848002127F08D
:1083B0009BFD064827F0D2FF054826F0A3FCFBE70B
:1083C00071830008CC220020507C00202C2000204B
:1083D000F81F002038B5074D7146284674466FF0E7
:1083E00027F9054826F08EFC284621466FF032F921
:1083F000002038BDD58300081469002038B50A4D27
:108400007146284674466FF013F9084B08491868FE
:1084100003681B6A9847074826F074FC28462146E3
:108420006FF018F9002038BDFD830008CC22002031
:10843000F4720A088014002038B5074D71462846AA
:1084400074466FF0F5F8054826F05CFC2846214696
:108450006FF000F9002038BD39840008281B002087
:1084600070B5274C27482DED028B714675466FF08D
:10847000DFF86378A678244843EA0626E37846EADC
:108480000346FBF7A1FFB0F9003046F317069E4202
:108490000DDDA278637843EA0223E27843EA0243DF
:1084A00043F3170307EE903AB8EEE78A08E0164860
:1084B000FBF78AFFB0F9000008EE100AB8EEC88A90
:1084C000124811F061FBC30710D51048DFED108A88
:1084D000FCF7F8FB20EE280AB4EEC08AF1EE10FAA1
:1084E00004D40A48FCF7EEFB20EE288A054829460A
:1084F0006FF0B0F8B0EE480ABDEC028B70BD00BF63
:10850000F924002061840008D8150020EC21002007
:108510000000C84270B53248714676466FF088F860
:10852000304B1B781A0754D42F48FBF727FF90F9DC
:108530000030012B05D02C48FBF720FF03785B06A9
:1085400044D52A4843F01CF920B9294843F018F9CA
:1085500000283ED02748FBF737FFB0F9003040F243
:108560001454A34235DC2448FBF72EFFB0F9003049
:1085700040F2A365AB422CDD2048FBF725FFB0F9A4
:108580000030A34225DC1E48FBF71EFFB0F9003087
:10859000AB421EDD1548FBF717FFB0F90030A342D0
:1085A00017DC1348FBF710FFB0F90030AB4210DDC9
:1085B0001448FBF709FFB0F90030A34209DC124868
:1085C000FBF702FFB0F90030AB4202DD0120FDF7FE
:1085D0007BFE31460248BDE870406FF03BB800BFFB
:1085E00015850008C41E00202D160020021700204B
:1085F00006170020C2160020C6160020E216002032
:10860000E6160020221700202617002070B5084D1E
:1086100071460646284674466FF00AF806F13700A0
:1086200043F0AEF828462146BDE870406FF012B81E
:108630000D860008F8B506460F460C48714675468B
:108640006EF0F6FF00240A48225C22B12044314635
:108650003A4648F0BBFACC34B4F5197FF3D1294639
:108660000248BDE8F8406EF0F5BF00BF358600084F
:10867000081C00202DE9F04171462DED028B0546C6
:10868000264876466EF0D4FF254821F035FE26F0C8
:108690007FF82448B0EE408AFCF76CF8074630B10A
:1086A0001DB121490320FFF7C5FF00242DE0FCF791
:1086B000A3F8044630B9002DF7D003201B49FFF77B
:1086C000B9FF22E0B5EE408AF1EE10FA06D0DFEDF8
:1086D000187AB4EEE78AF1EE10FA04DD002DE4D04A
:1086E00003201449DFE71448FCF7CEF8804613480E
:1086F000FBF76AFEB0F90030984506DD002DD4D0B6
:1087000003200F49FFF796FF3C46044831466EF0C0
:10871000A1FFBDEC028B2046BDE8F0817586000804
:1087200094140020701E002002730A0815730A08B2
:108730000000484229730A08C8230020EE150020D3
:108740003E730A0870B52DED028BB94E714684B0A8
:108750000446B84875466EF06BFF3378D90600F1D1
:108760003281B548FBF70AFE90F9003033B9012099
:10877000FDF788FD0120FDF7A7FD24E1FFF7CAFE04
:1087800033781A0705D4002C00F01D810320AB4973
:1087900014E0A948FBF7F2FD90F90030012B05D059
:1087A000A548FBF7EBFD03789B071ED5A44B1B796F
:1087B0003BB9002C00F00781A2490320FFF73AFFE4
:1087C00001E1A14821F0D0FDA04B9FEDA17AD3EDAE
:1087D000007AF8EEE77A30EE670AF0EEC07AF4EE4F
:1087E000C77AF1EE10FA00F3F6809348FBF7C6FD66
:1087F00090F90030012B05D08F48FBF7BFFD0378BF
:108800005E0733D593480021FBF716FF002800F0E0
:10881000E7809048FBF724FF002800F0E6808D48B1
:10882000FBF760FF07C801AB83E80700184625F097
:10883000AFFFDFED897AB4EEE70AF1EE10FA00F34C
:10884000DF808448FBF77CFF25F0A2FFDFED837A11
:10885000B4EEE70AF1EE10FA00F3D780DFED807A8C
:10886000B4EEE70AF1EE10FA00F1CF807248FBF7A0
:1088700085FD90F90030012B05D06F48FBF77EFD98
:10888000037818071AD5774B1878FBF711FE0028E4
:1088900040F0C0807448FBF771FD90F90030032B65
:1088A00000F0B880714811F08BF9002800F08B803F
:1088B0006E4811F069F9810700F1B3805E48FBF75B
:1088C0005DFD90F90030012B05D05B48FBF756FDAC
:1088D0000378DA060BD5664822F0F4FE002800F093
:1088E000E7806348FBF794FC002800F0E6805248DC
:1088F000FBF744FD90F90030012B05D04E48FBF703
:108900003DFD03789B065BD55A48FBF737FD90F990
:108910000030002B40F0D6805748FBF72FFD90F930
:108920000030002B40F0CE805448FBF727FD90F933
:108930000030BBB15248FBF747FDB0F90060514829
:10894000FBF742FDB0F900300A339E4240F3CB8082
:108950004C48FBF739FDB0F9002040F28D339A42C4
:1089600040F3C1804848FBF72FFDB0F90030B3F564
:108970007A7FC0F2BE804448FBF726FDB0F9003094
:10898000B3F5FA5F00F3B5804048FBF795FF90ED33
:10899000008A3F48FBF7B0FFB4EEC08AF1EE10FA50
:1089A00000F3AD803B48FBF787FF90ED008A3A4823
:1089B000FBF7A2FFB4EEC08AF1EE10FA00F39F803D
:1089C0000120FDF75FFC1B4829466EF043FE04B012
:1089D000BDEC028B70BD002CF5D003202F49EDE6D5
:1089E000002CF0D003202E49E8E61A4817F006FDC7
:1089F00000287FF414AF002CE5D003202949DDE6E0
:108A0000002CE0D003202849D8E6002CDBD003203E
:108A10002649D3E62046FFF72DFE00287FF442AF1B
:108A2000D1E72046FFF726FE0028CCD046E700BF5E
:108A3000C41E0020458700082D16002054730A0824
:108A4000242200206E730A08941400203814002099
:108A50000000C842082500200000FA4300A05A4444
:108A600000803943F8240020EC150020EC21002080
:108A7000BC1900202B1600202C16002012160020F6
:108A80000217002014160020D02200208418002095
:108A9000A419002088180020A819002087730A084C
:108AA0009D730A08B9730A08D8730A08F9730A088B
:108AB000002C88D00320154980E6002C83D00320A9
:108AC00013497BE61348FBF759FC06781248FBF77D
:108AD00055FC03789E427FF427AF002C3FF473AF20
:108AE00003200E496AE6002C3FF46DAF03200C49C9
:108AF00064E6002C3FF467AF03200A495EE6002CD1
:108B00003FF461AF0320084958E600BF11740A081A
:108B10002C740A082B1600202C16002044740A0816
:108B200067740A0882740A089A740A08F8B57146CC
:108B300004465A4876466EF07BFD5948FBF71EFC0A
:108B400090F900300BB90124A2E05548FBF716FC60
:108B500090F90030012B05D05148FBF70FFC03784A
:108B6000980712D54F4821F0FFFB4F4B9FED4F7AEE
:108B7000D3ED007AF8EEE77A30EE670AF0EEC07ACD
:108B8000F4EEC77AF1EE10FA6DDC4548FBF7F6FB20
:108B900090F90030012B05D04148FBF7EFFB03783B
:108BA00019070CD5424B1878FBF782FC00285FD1DF
:108BB0004048FBF7E3FB90F90030032B58D03848CE
:108BC000FBF7DCFB90F90030012B05D03448FBF7B4
:108BD000D5FB03789A0612D5374D05F14A00FBF70D
:108BE000CDFB90F9003053B105F14C00B5F8307170
:108BF000FBF7EAFBB0F900303FB2BB423EDC28484D
:108C0000FBF7BCFB90F90030012B05D02448FBF7A3
:108C1000B5FB0378DB0617D5284D29482B6983EA75
:108C2000E377A7EBE377FBF7CFFBB0F900309F4288
:108C300029DC23486D69FBF7C7FBB0F90030002D34
:108C4000B8BF6D429D421EDC1E4BD86B03685B684B
:108C5000984701287FF477AF1CB11B490320FFF729
:108C6000E9FC002414E0002CFBD003201749F6E7B0
:108C70002046FFF7FFFC0028F3D0A0E7002CF0D03F
:108C800003201349EBE7002CEBD003201149E6E762
:108C9000024831466EF0DEFC2046F8BD2D8B000800
:108CA0002D16002094140020381400200000C84223
:108CB000F8240020EC150020C815002070270020A3
:108CC000D0220020507C0020D5740A088A730A083C
:108CD000B6740A08C8740A0870B5714605461A4881
:108CE00076466EF0A5FCFFF715FC184B1B78C3F316
:108CF000C00434B9164B174ACC2000FB05300321C1
:108D000007E0DC0908D1124B134ACC2000FB0530E8
:108D1000032147F05BFF11E0104BD86B03685B68E1
:108D20009847012809D10A4B0D4ACC2000FB053099
:108D3000032147F04BFF002400E0012402483146A4
:108D40006EF088FC204670BDD98C0008C41E00203F
:108D5000081C0020E8740A0806750A08507C0020E8
:108D600025750A082DE9F041124E04460F4630469B
:108D7000714675466EF05CFC94ED007AD7ED007A92
:108D8000B4EE677AF1EE10FA0CBF4FF000084FF026
:108D9000010820463946FCF79BF84146204643F03F
:108DA00063F82946044630466EF054FC2046BDE880
:108DB000F08100BF658D00082DE9F041104E04469A
:108DC0000F463046714675466EF032FC97F900301A
:108DD00094F90080B8EB030818BF4FF00108204653
:108DE0003946FCF7D9FB4146204643F03DF8294679
:108DF000044630466EF02EFC2046BDE8F08100BFF0
:108E0000B98D00082DE9F041104E04460F4630465A
:108E1000714675466EF00CFCB7F90030B4F900806D
:108E2000B8EB030818BF4FF0010820463946FCF79D
:108E3000CDFD4146204643F017F82946044630460A
:108E40006EF008FC2046BDE8F08100BF058E0008EA
:108E500038B5074D7146284674466EF0E9FB054863
:108E600041F0FEFA28462146BDE838406EF0F2BBDC
:108E7000518E000820210020F8B51E4E1E4F2DED0A
:108E8000028B714607F14204304675466EF0D0FB06
:108E90002046FBF799FAB0F900305B4207EE903AB2
:108EA0002046B8EEE78AFBF78FFAB0F90000134CC2
:108EB00000EE900AB0EE480AF8EEE00A20460FF005
:108EC0004BFB07F14400FBF77FFAB0F9000000EE1E
:108ED000100A2046B8EEC00A0FF07AFB204610F0C8
:108EE0004DF8304629466EF0B5FBBDEC028B0120F3
:108EF000F8BD00BF798E0008C8150020DC220020D4
:108F0000F8B51E4E1E4F2DED028B714607F142043F
:108F1000304675466EF08CFB2046FBF755FAB0F9EB
:108F200000305B4207EE903A2046B8EEE78AFBF746
:108F30004BFAB0F90000134C00EE900AB0EE480A6C
:108F4000F8EEE00A20460FF007FB07F14400FBF7BC
:108F50003BFAB0F9000000EE100A2046B8EEC00A55
:108F60000FF036FB204610F009F8304629466EF027
:108F700071FBBDEC028B0120F8BD00BF018F000822
:108F8000C8150020DC22002038B571462DED028B7B
:108F90000546264874466EF04BFBFBF72DFC08B9DE
:108FA0002DB93BE0224821F083FA0028F8D0214B6C
:108FB000214800221A70FBF7F9FD20480FF01EFC33
:108FC0001D48FBF70FFE1D480FF0F0FB1C48FBF798
:108FD000FBF9B0F900301A485B4207EE903AB8EE60
:108FE000E78AFBF7F1F9B0F9000000EE900AB0EE65
:108FF000480AF8EEE00A11480FF0AEFA1148FBF704
:10900000E3F9B0F9000000EE100A0C48B8EEC00A0F
:109010000FF0DEFA0C4811F0A3FC012503482146AD
:109020006EF018FBBDEC028B284638BD898F000816
:1090300094140020C61A0020E41E0020DC22002028
:109040000A1600200C1600202C27002070B571464F
:109050002DED028B06461E4875466EF0E9FAFBF7C9
:10906000CBFB044600B956B31A4811F063FE1A4808
:10907000FBF7AAF9B0F9003017485B4207EE903AC7
:10908000B8EEE78AFBF7A0F9B0F9000000EE900A0D
:10909000B0EE480AF8EEE00A10480FF05DFA10480A
:1090A000FBF792F9B0F9000000EE100A0B48B8EE99
:1090B000C00A0FF08DFA09480FF060FF0124044840
:1090C00029466EF0C7FABDEC028B204670BD00BF8A
:1090D0004D900008E41E00200A160020DC2200202B
:1090E0000C16002070B571462DED028B06463948EE
:1090F00075466EF09DFAFBF77FFB044608B9002E1B
:1091000060D03548354CFBF75FF9B0F90030324894
:109110005B4207EE903AB8EEE78AFBF755F9B0F9F3
:10912000000000EE900AB0EE480AF8EEE00A2C4883
:109130000FF012FA2B48FBF747F9B0F9000000EEE8
:10914000100A2748B8EEC00A0FF042FA24480FF080
:1091500015FF002324486380A380FBF735F9B0F99D
:109160000000DFED227A224B06EE900AF8EEE66A66
:10917000B2EE0E7AE6EE877A1B789FED1E7A67EEE6
:10918000877ADA09C4ED027A237809D0042262F3DF
:10919000020362F3C5031848237011F0CBFD04E00D
:1091A00062F3020362F3C50323706378134843F04C
:1091B00001036370FBF7D4FD0023A385E38584F8E6
:1091C00031300124034829466EF044FABDEC028B8D
:1091D000204670BDE59000080A160020D413002038
:1091E000DC2200200C160020FE1500200000BE42EC
:1091F000C41E00200AD7233CE41E0020F8130020E0
:1092000010B52DED028B1F4884B0714674466EF088
:109210000FFAFBF7F1FA1C4B187058B101A8FBF7D5
:1092200009F91A4801A911F0F3FD184801A9012212
:1092300011F02EFD1548FBF7F1FC1448B0EE408A02
:10924000FBF708FD1248F0EE400AB0EE480A0FF0B6
:1092500083F90E48FBF71AFD0D480FF0B9F90C48D9
:109260000FF08CFEFBF700FC0A4B18600A4B054818
:10927000002221461A706EF0EDF9012004B0BDEC19
:10928000028B10BD01920008DA1A0020E41E0020B3
:10929000DC2200207C140020E0240020F8B5194DC9
:1092A0002DED028B0646B0EE408A28460F467146E9
:1092B00074466EF0BDF9B0EE480ADFED130AB7EE62
:1092C000001A22F02DFF28462146B0EE408A6EF0AB
:1092D000C1F906EE907AB7EE007A37EE487AF8EEEA
:1092E000E67A06EE906A67EE277AB8EEE67AE8EE5E
:1092F000077ABDEC028BFDEEE77A17EE900A00B21A
:10930000F8BD00BF9D9200080000000030B52DEDB3
:10931000048B044683B04848714675466EF088F960
:10932000002C5AD04548FBF74FF8B0F90030B3F5A0
:10933000FA7F52D000214FF47A72204622F076FE56
:1093400004463E48FBF740F84FF496714FF42F72F5
:10935000B0F9000022F06AFE02A921F8020D374898
:10936000FBF724FDB4F5FA7F40DA3548FBF72CF81B
:10937000B0F9000008EE100A3148FBF725F8B0F903
:1093800000302E48E41A06EE904AB8EEE69AFBF753
:109390001BF8B0F900402A48FBF716F8B0F9003086
:1093A0002748E31A08EE903AFBF70EF8B0F90030C0
:1093B000C3F5FA73F8EEE88A07EE103A68EE898A88
:1093C000F8EEC77AB8EEC88AC8EEA78A38EE888A5F
:1093D000BDEEC88A18EE104AA4B2174829466EF0AE
:1093E00039F920B203B0BDEC048B30BD13481FD057
:1093F000FAF7EAFFB0F9000008EE100A0F48FAF792
:10940000E3FFA4F5FA74B0F90030DFED0E7A07EE51
:10941000104AC3F57A73B8EEC77A06EE903A27EE93
:10942000277AB8EEC88AF8EEE67AA7EE278ACFE761
:10943000FAF7CAFF0488D0E70D9300081816002039
:109440000E1600206F12033B70B505460E461848F5
:10945000714674466EF0ECF8032D0AD11548FBF7FF
:1094600093FC012802D1134825F088FC1248FFF72D
:10947000CDF82846FBF75AFA58B13046FBF756FAB2
:1094800038B90E48FBF77CF818B10D4B1B78DB0997
:1094900005D021460648BDE870406EF0DBB8094BA8
:1094A000B3F93201FFF732FFFBF7ACFCF1E700BF85
:1094B0004994000850210020AC2600202C200020D8
:1094C000C41E0020C81500202DE9F04B80460E4632
:1094D000304871461D46744617466EF0A9F840465E
:1094E0002D4941F2941222F0A1FD41F294122A4931
:1094F0008046304622F09AFD06462848FAF764FF77
:10950000B0F9002041F294139A4203D1A7F80080E9
:109510002E8039E02148DFF88CB0DFF88C90FAF724
:1095200053FFBBF90030B0F900209A4214D01B4819
:10953000FAF74AFF03881948ABF80030FAF744FFFE
:10954000B0F900009FED167A07EE900AF8EEE77A80
:1095500067EE877AC9ED007A06EE908AD9ED007A37
:10956000B8EEE67A06EE906A27EE277ABDEEC77A65
:1095700017EE103AB8EEE67A3B8067EE277AFDEEFA
:10958000E77A17EE903A2B8021460248BDE8F04B6F
:109590006EF060B8C99400086CEEFFFFD022002086
:1095A00053046939C41A0020B80D002070B5714603
:1095B0002DED028B0546244874466EF039F8234899
:1095C000FAF702FFB0F900307BB92148FAF7FCFE48
:1095D000B0F90030B3F57A7F07D11B4821466EF011
:1095E00039F8BDEC028B28B270BD1948FAF7ECFED1
:1095F000B0F900601548FAF7E7FEB0F900301348FB
:10960000F61A07EE906AB8EEE78AFAF7DDFE07EE83
:10961000905AB0F90000B8EEE77ADFED0E7A27EE47
:10962000277A07EE900AF8EEE77A0021E7EE087A4B
:109630004FF47A72FDEEE77A17EE900A00B222F04C
:10964000F5FC0546C9E700BFAD950008B41600203B
:10965000B61600206F12833A70B5714604461C4856
:1096600076466DF0E5FF1B4B1D78C5F340053DBB0D
:10967000204629464FF47A7222F0D8FCB0F5C87F14
:10968000044607DA1448FAF79FFEB0F90030A4F553
:10969000C87009E0B0F5167F0DDD0F48FAF794FEAB
:1096A000B0F90030A4F5167058434FF4C87390FB1E
:1096B000F3F080B200E02846084B0446188000E032
:1096C0000024034831466DF0C5FF20B270BD00BFD5
:1096D00059960008442100200A160020AE220020DE
:1096E00070B52DED048B044682B03A48714675463C
:1096F0006DF09EFF002C63DD00214FF47A7220464E
:1097000022F094FC04463448FAF75EFE4FF42F72C0
:109710004FF49671B0F9000022F088FC02A921F8FC
:10972000020D2D48FBF742FB2C48FAF74DFE068848
:10973000FCF78AF836B2864204DD2848FAF744FE80
:1097400004883EE0B4F5167F36DA2448FAF73CFE8A
:10975000B0F9000008EE100A2048FAF735FEB0F91B
:109760000030E41A07EE104AB8EEC79AFCF76CF81E
:1097700004461A48FAF728FEB0F900301748E31AF1
:1097800008EE903AFAF720FEB0F90030C3F51673F0
:10979000F8EEE88A07EE103A68EE898AF8EEC77AA2
:1097A000B8EEC88AC8EEA78A38EE888ABDEEC88AA5
:1097B00018EE104AA4B204E0FCF746F8044600E0B4
:1097C0000024044829466DF045FF20B202B0BDECEC
:1097D000048B70BDE1960008181600200E160020BC
:1097E000F8B571462DED028B04462848B0EE408A4C
:1097F00075466DF01DFF2648FAF7E6FDB0F900202A
:10980000DFED246A9FED247A042392FBF3F39BB2ED
:109810001AB2002A214AB5EEC08AD2ED027A228815
:10982000D8BF0123F1EE10FA67EEC87AACBF38EE6C
:10983000268A36EEC88A9BB287EE087AD11A1A4475
:1098400009B212B247EE277AFDEEE77A17EE900AD8
:1098500000B222F0EBFB064620801148FAF7B4FD77
:1098600007880F48FAF7B0FD7F42BFB239B2B0F9AE
:109870000020304622F0DAFBBDEC028B2080294626
:109880000248BDE8F8406DF0E5BE00BFE197000872
:10989000FE150020000070420000FA43D41300209F
:1098A000001600202DE9F0412148224D2DED028BBC
:1098B000714674466DF0BCFE1F48FAF7FDFFD0ED0F
:1098C000007AF5EEC07AF1EE10FA02D800232B7080
:1098D00025E01A4E1A4837683B68D3F80880FAF733
:1098E0004DFD01783846C047306803685B6998478A
:1098F0001148B0EE408AFAF7DFFFDFED127A28EE6A
:10990000278AD0ED007A88EE278A0021FF22BDEE5B
:10991000C88A18EE100A00B222F088FB2870BDEC4D
:10992000028B21460248BDE8F0416DF093BE00BFB6
:10993000A5980008A8260020F8150020C81A0020C5
:10994000F615002000007F4338B5074D71462846C4
:1099500074466DF06DFE054843F0C4FA2846214672
:10996000BDE838406DF076BE499900083C140020EF
:1099700038B5054671460D4874466DF059FED5F868
:10998000065007EE905AF5EEC07AF1EE10FA06DDB9
:109990009FED070A074827EE800A11F045F9214696
:1099A0000248BDE838406DF055BE00BF719900080F
:1099B0000000C842E41E002038B51C4871467546B8
:1099C0006DF036FEFDF7EEFA4FF47A70FCF74AF8C8
:1099D000174C1849206803681B6A984700211648ED
:1099E00043F020F840F6B830FCF73CF820680368F4
:1099F0009B689847002812DC2068104903681B6A9E
:109A0000984700210C4843F043F840F6B830FCF783
:109A100029F8206803689B6898470028D8DD034828
:109A200029466DF017FE002038BD00BFB999000827
:109A3000CC2200203F750A083414002049750A081A
:109A4000F8B5274D27482DED028B714676466DF00F
:109A5000EFFD2B78002B3BD0234C244F9FED248A25
:109A6000013B2B70637843F001036370B7F9F23068
:109A700000EE103AB8EEC00A20EE080A22F006FB0B
:109A8000B7F91271F0EE408A00EE107AB8EEC00A13
:109A900020EE080A22F0FAFA16480121B0EE408AB8
:109AA000FAF774FF29781348D1F10101B0EE680A82
:109AB000F0EE480A38BF002112F0AAFE2D783DB919
:109AC0000C482946FAF762FF637865F30003637078
:109AD000BDEC028B31460348BDE8F8406DF0BABDDD
