:020000040800F2
:10400000142101202D450708694C0708694C070851
:10401000694C0708694C0708694C0708694C070890
:10402000694C0708694C0708694C0708694C070880
:10403000694C0708694C0708694C0708694C070870
:10404000694C0708694C0708694C0708694C070860
:10405000694C0708694C0708694C0708694C070850
:10406000694C0708694C0708694C0708694C070840
:10407000694C0708694C0708694C0708694C070830
:10408000694C0708694C0708694C0708694C070820
:10409000694C0708694C0708694C0708694C070810
:1040A000694C0708694C0708694C0708694C070800
:1040B000694C0708694C0708694C0708694C0708F0
:1040C000694C0708694C0708694C0708694C0708E0
:1040D000694C0708694C0708694C0708694C0708D0
:1040E000694C0708694C0708694C0708694C0708C0
:1040F000694C0708694C0708694C0708694C0708B0
:10410000694C0708694C0708694C0708694C07089F
:10411000694C0708694C0708694C0708694C07088F
:10412000694C0708694C0708694C0708694C07087F
:10413000694C0708694C0708694C0708694C07086F
:10414000694C0708694C0708694C0708694C07085F
:10415000694C0708694C0708694C0708694C07084F
:10416000694C0708694C0708694C0708694C07083F
:10417000694C0708694C0708694C0708694C07082F
:10418000694C0708694C070838B5064D744628463F
:10419000714671F025F828462146BDE8384071F097
:1041A00031B800BF8941000870B5074D0646714619
:1041B0002846744671F014F896F881612846214625
:1041C00071F020F8304670BDA941000870B5064D69
:1041D000744671460646284671F002F82846214684
:1041E00071F010F8304670BDCD41000838B5064D6D
:1041F00074467146284670F0F3FF2846214671F058
:1042000001F8002038BD00BFED410008F8B5084DA9
:10421000064674460F462846714670F0E1FF86F860
:10422000E17028462146BDE8F84070F0EBBF00BFC2
:104230000D420008F8B5084D064674460F4628465C
:10424000714670F0CDFF86F8807128462146BDE8A2
:10425000F84070F0D7BF00BF35420008F8B50446FB
:1042600071460E4804F13206754670F0B9FF3046CB
:10427000676CFFF7ABFF01783846FFF7C7FFA46B09
:1042800034B13046FFF7A2FF01782046FFF7D2FF96
:1042900029460248BDE8F84070F0B4BF5D4200080E
:1042A00070B5084D714606462846744670F098FF72
:1042B0003046FFF7D3FF28462146BDE8704070F036
:1042C000A1BF00BFA142000870B5064D74467146FB
:1042D0000646284670F084FF2846214670F092FF7B
:1042E000304670BDC942000870B5064D744671462F
:1042F0000646284670F074FF2846214670F082FF7B
:10430000304670BDE9420008F8B5084D74460646CF
:104310000F462846714670F063FF2846214670F02C
:1043200071FF0C2303FB07600430F8BD094300084C
:1043300070B50B4E044671463046754670F050FF1E
:1043400023682046DB6C984701462046FFF7DCFFD8
:1043500029460446304670F055FF204670BD00BF28
:104360003143000870B50C4D2DED028B71460646A9
:104370002846744670F034FF96ED058ADFED077A23
:1043800028EE278A2846214670F03CFFB0EE480A06
:10439000BDEC028B70BD00BF654300080000C84241
:1043A000F8B50C4D2DED028B06460F46284671469A
:1043B000744670F015FF382303FB076696ED0D8AEF
:1043C0002846214670F01EFFB0EE480ABDEC028B75
:1043D000F8BD00BFA143000870B50D4D06462DED98
:1043E000028B71462846744670F0FAFE96F89410D7
:1043F000304601F00301FFF7D3FF2846B0EE408AB4
:10440000214670F0FFFEB0EE480ABDEC028B70BD95
:10441000D943000870B5084D0646714628467446D3
:1044200070F0DEFE96F836602846C6F34016214648
:1044300070F0E8FE304670BD1544000870B5064DBA
:10444000744671460646284670F0CAFE2846214644
:1044500070F0D8FE304670BD3D44000870B5074D81
:10446000064671462846744670F0BAFEB67A28466B
:10447000214670F0C7FE304670BD00BF5D440008A5
:1044800070B5084D714606462846744670F0A8FE81
:104490003046FFF719FF06782146284670F0B2FE35
:1044A000304670BD8144000870B5094D71462846FC
:1044B000744670F095FE074B986B03689B689847AD
:1044C00021460646284670F09DFE304670BD00BF6E
:1044D000A9440008C4DB002038B50A4D71462846BF
:1044E000744670F07DFE084A00231380074A13606B
:1044F000FFF7DAFF064B186021462846BDE8384032
:1045000070F080BED94400086A5E0020406200203E
:10451000B4C6002070B50B4D714606462846744659
:1045200070F05EFE06F10900FFF7CEFE90F9006024
:10453000003618BF01262846214670F063FE30463B
:1045400070BD00BF15450008F8B5094D0F46064679
:1045500071462846744670F043FE382303FB076615
:104560002846767F214670F04DFE3046F8BD00BFEC
:104570004945000870B50A4D0646714628467446FE
:1045800070F02EFE96F89410304601F00301FFF70C
:10459000DBFF21460646284670F034FE304670BDEB
:1045A0007545000870B50A4D2DED028B7146064623
:1045B0002846744670F014FE96ED058A284621467A
:1045C00070F020FEB0EE480ABDEC028B70BD00BF5B
:1045D000A545000870B5064D744671460646284646
:1045E00070F0FEFD2846214670F00CFE304670BD8E
:1045F000D5450008F8B5094D744606460F462846CD
:10460000714670F0EDFD2846214670F0FBFD382321
:1046100007FB0333F0180830F8BD00BFF54500086C
:1046200070B50A4D064671462846744670F0D8FDAE
:1046300096F89410304601F00301FFF7DBFF2146A6
:104640000646284670F0DEFD304670BD2146000863
:10465000F8B5084E0F46044671463046754670F070
:10466000BFFD3B8823803046294670F0CBFD2046B5
:10467000F8BD00BF5146000870B5074D06467146AB
:104680002846744670F0ACFD36782846214670F016
:10469000B9FD304670BD00BF7946000838B5074DFA
:1046A00071462846744670F09BFD054B00225A6007
:1046B00028462146BDE8384070F0A4BD9D4600085C
:1046C0003CC7002038B516487146744670F088FD26
:1046D0001448FFF7B3FE0368002B0ADA124B5A782E
:1046E0009D78DB7842EA052545EA034545F3170541
:1046F0000FE00C48FFF7A2FE0C4B1B685A789D7820
:10470000DB7842EA052545EA0345036845F31705CA
:104710001D440348214670F075FD284638BD00BF92
:10472000C5460008F0190020441700202862002028
:1047300038B5714605460A48744670F051FD09487F
:10474000FFF7C2FD90F900301BB12B7843F008034E
:104750002B7021460248BDE8384070F053BD00BFC1
:10476000314700082D1A002070B5074D7446714678
:104770000646284670F034FD2846214670F042FD7A
:1047800006F1180070BD00BF6947000870B5074DFD
:10479000064671462846744670F022FD7688284603
:1047A000214670F02FFD304670BD00BF8D470008D8
:1047B00038B50C487146744670F012FD0A48FFF790
:1047C000E5FFB0F5006F05D20748FFF7DFFFC0F344
:1047D000C70500E0FF250348214670F013FD284679
:1047E00038BD00BFB1470008B4C3002070B5084E03
:1047F000044671463046754670F0F2FC00233046A0
:1048000063602360294670F0FDFC204670BD00BF48
:10481000ED4700082DE9F041084E754604469046E4
:104820000F463046714670F0DBFC304684E880016C
:10483000294670F0E7FC2046BDE8F08115480008E5
:10484000F8B5084D0F46064671462846744670F086
:10485000C7FC3B78337028462146BDE8F84070F02D
:10486000D1BC00BF4148000838B505462DED028B8C
:104870000D487146744670F0B3FCE86CFFF77AFEA1
:10488000012805D9E86CFFF7A7FDB0EE408A01E0EA
:104890009FED068A0448214670F0B4FCB0EE480A49
:1048A000BDEC028B38BD00BF694800080000000065
:1048B00038B51948194D2DED028B7146744670F0CC
:1048C0008FFC174B986B03689B689847AB6841F265
:1048D0008832C01A904202D99FED128A12E0124823
:1048E000FFF7F2FC90F90030002BF5D00F4B1B784E
:1048F0000A2BF1D10E4B1B78033BDBB2012BEBD81B
:1049000095ED018A0448214670F07CFCB0EE480A1F
:10491000BDEC028B38BD00BFB14800088CC8002038
:10492000C4DB002000000000331A00200611002024
:10493000FC10002038B5174D2DED028B714628462E
:10494000744670F04DFC144BDFED147A99785A7868
:10495000DB7842EA012242EA0342114B1B68987855
:104960005978DB7841EA002141EA034342F3170218
:1049700043F31703D31A08EE103AB8EEC88A284654
:1049800028EE278A214670F03DFCB0EE480ABDECC7
:10499000028B38BD35490008441700200AD7233C54
:1049A0002862002038B5094D71462846744670F0DB
:1049B00017FC0748074903680C225B69984728469B
:1049C0002146BDE8384070F01DBC00BFA549000875
:1049D000FCC10020745E002070B50A4D2DED028BE5
:1049E0000646B0EE408A28467146744670F0F8FBE1
:1049F00086ED078ABDEC028B28462146BDE8704053
:104A000070F000BCD949000810B571460E487446D4
:104A100070F0E6FB0D48FFF7DDFDB0F900300C4803
:104A2000002B0C4BB4BFFF2201221A730A4A036801
:104A30001360436853608368936021460248BDE871
:104A4000104070F0DFBB00BF094A00089219002037
:104A50004417002050170020C85E002038B5084DCC
:104A600071462846744670F0BBFB064B00229A60E4
:104A70005A6028462146BDE8384070F0C3BB00BFED
:104A80005D4A00085017002070B50A4D2DED028BCD
:104A9000714606462846744670F0A2FB96ED078ADA
:104AA0002846214670F0AEFBB0EE480ABDEC028B02
:104AB00070BD00BF894A000870B50A4D2DED028B0C
:104AC000714606462846744670F08AFB96ED098AC0
:104AD0002846214670F096FBB0EE480ABDEC028BEA
:104AE00070BD00BFB94A000870B50A4D2DED028BAC
:104AF000714606462846744670F072FB96ED0A8AA7
:104B00002846214670F07EFBB0EE480ABDEC028BD1
:104B100070BD00BFE94A000870B5084D71460646F1
:104B20002846744670F05CFB3046FFF7CDFB0678F4
:104B30002146284670F066FB304670BD194B0008D0
:104B400070B5084D714606462846744670F048FB1D
:104B5000701CFFF7B9FB06782146284670F052FB1F
:104B6000304670BD414B000870B5084D7146064691
:104B70002846744670F034FBB01CFFF7A5FB06789E
:104B80002146284670F03EFB304670BD694B000858
:104B900070B5084D714606462846744670F020FBF5
:104BA000F01CFFF791FB06782146284670F02AFB9F
:104BB000304670BD914B0008F8B50F46074D0646CC
:104BC00006EBC70671462846744670F009FB368D21
:104BD0002846214670F016FB3046F8BDB94B000858
:104BE00070B50A4D064671462846744670F0F8FACC
:104BF00096F84010304601F00301FFF7DDFF214633
:104C00000646284670F0FEFA304670BDE14B0008BB
:104C1000F8B50F46074D064606EBC706714628460F
:104C2000744670F0DDFA768D2846214670F0EAFA77
:104C30003046F8BD114C000870B50A4D0646714665
:104C40002846744670F0CCFA96F84010304601F0D1
:104C50000301FFF7DDFF21460646284670F0D2FA31
:104C6000304670BD394C0008F8B50A4D06460F466F
:104C700028467146744670F0B3FA06EB47002230BE
:104C8000FFF7A8FC06882146284670F0BBFA30B230
:104C9000F8BD00BF694C000870B50A4D0646714664
:104CA0002846744670F09CFA96F84010304601F0A1
:104CB0000301FFF7D9FF21460646284670F0A2FA05
:104CC000304670BD994C000870B504460E460B483E
:104CD0007146754670F084FA94F840300748C3F383
:104CE00081039E42B6BF04EBC604002494F82C4016
:104CF000294670F087FA204670BD00BFC94C0008F5
:104D000070B50A4D064671462846744670F068FA3A
:104D100096F84010304601F00301FFF7D5FF214619
:104D20000646284670F06EFA304670BD014D000808
:104D300038B5074D71462846744670F051FA05485B
:104D4000FFF722FA28462146BDE8384070F05ABAEB
:104D5000314D000860C1002038B571462DED028B41
:104D600004460C487546B0EE408A70F039FA04F5F6
:104D7000A470FFF7A9FA90F900300648022B08BF8B
:104D800084ED5F8ABDEC028B2946BDE8384070F0A7
:104D900039BA00BF594D000870B5074D0646714637
:104DA0002846744670F01CFA044B1E6028462146C3
:104DB000BDE8704070F026BA994D000874DD0020FF
:104DC00038B508487146754670F00AFA064B1868FF
:104DD00008B1847800E004460248294670F012FACF
:104DE000204638BDC14D0008C461002038B5714669
:104DF00005460948744670F0F3F9084B1A682A44CE
:104E00001A601A7A12B1DA681544DD602146024848
:104E1000BDE8384070F0F6B9ED4D00083CC7002001
:104E200070B5074D744671460646284670F0D8F9AD
:104E30002846214670F0E6F906F1290070BD00BF52
:104E4000214E0008F8B50E4D71462846744670F0A4
:104E5000C7F90C4B0C485A789E78DB7842EA062654
:104E600046EA0346FFF7B6FB21460788284646F385
:104E7000170670F0C7F94FF69C7017FB0060F8BD7D
:104E8000454E000844170020CA19002038B50D48C7
:104E90007146744670F0A4F90B48FFF715FA90F9C3
:104EA000003043B10948FFF70FFA90F90030042BA6
:104EB00001DD012500E000250248214670F0A2F93D
:104EC000284638BD8D4E0008941900209519002001
:104ED00070B5074D71462846744670F081F9054B50
:104EE0001E782846214670F08DF9304670BD00BF0F
:104EF000D14E0008FD1000202DE9F04171462A48EE
:104F0000F04670F06DF92948FFF764FB04882848E3
:104F1000FFF760FBB0F9003024B2A34201DB0026AA
:104F20003AE02348FFF756FBB0F90030002BF6D0EB
:104F3000FFF788FF04461E48FFF74CFB0646204655
:104F40009DF0B4FC0446B6F900000D469DF0AEFCA1
:104F50000022184B9DF010FD174B1B6806465A782F
:104F60009878DB7842EA002040EA034040F31700DB
:104F70000F469DF09BFC02460B46304639469DF09D
:104F800049FB02460B46204629464FF001069DF09C
:104F900065FF00B90646F6B20348414670F032F9A3
:104FA0003046BDE8F08100BFF94E00089A19002094
:104FB0009819002000005940286200202DE9F04196
:104FC00071462A48F04670F00BF92948FFF702FBBA
:104FD00004882848FFF7FEFAB0F9003024B2A34253
:104FE00001DB00263AE02248FFF7F4FAB0F900307E
:104FF000002BF6D0FFF726FF04461D48FFF7EAFA1C
:10500000064620469DF052FC0446B6F900000D46C7
:105010009DF04CFC0022184B9DF0AEFC174B1B681A
:1050200006465A789878DB7842EA002040EA034046
:1050300040F317000F469DF039FC02460B46304600
:1050400039469DF0E7FA02460B46204629464FF0C6
:1050500001069DF021FF00B90646F6B2034841461D
:1050600070F0D0F83046BDE8F08100BFBD4F0008B9
:105070009A19002098190020000059402862002049
:1050800070B50A4D2DED028B7146064628467446D2
:1050900070F0A6F896ED048A2846214670F0B2F822
:1050A000B0EE480ABDEC028B70BD00BF8150000815
:1050B00038B571462DED028B05460D48744670F0EB
:1050C0008FF895ED060ADFED0B7A0948B4EEE70A92
:1050D000F1EE10FAD4BFB0EE678AB0EE408A2146F6
:1050E00070F090F8B0EE480ABDEC028B38BD00BFFE
:1050F000B150000800000000F8B571462DED028B9C
:105100003B483C4C3C4E754670F06AF83B48FFF714
:1051100029F93B48B0EE408AFFF790F90368236015
:105120003378063BDBB2012B18D83648FFF752FA2A
:10513000B0F900703448FFF74DFAB0F9003032484A
:10514000FF1A324B1B68B3F902305F43FFF742FA94
:10515000B0F90020642302FB037727603378052B26
:1051600015D92B48FFF76AF90368002B0FDD294B8F
:105170002268D3ED007AF8EEE77A78EE277AFDEE32
:10518000E77A17EE903A934201DD1A4A13603378BA
:10519000092B07D9204BB3F90030002B02DD226820
:1051A0001344236017482668FFF714FA0388642421
:1051B00013FB04F39E4207DD1248FFF70BFA038846
:1051C00013FB04F40B4B1C60144803689B6998475D
:1051D000DFED137A134B064890EE278A294683EDBC
:1051E000008ABDEC028BBDE8F84070F00BB800BF40
:1051F000F9500008245E00200611002050C700204E
:10520000EC1900209EC300209CC300204017002002
:10521000FC1900202CC7002070170020FCC10020C2
:105220000000C8429CC8002070B5064D7446714607
:10523000064628466FF0D4FF284621466FF0E2FF6D
:10524000304670BD29520008F8B50A4D06460F4693
:105250002846714674466FF0C3FF0C2303FB0760BA
:105260002C30FFF7E1FF2146064628466FF0CAFFC3
:105270003046F8BD49520008F8B5084D7446064658
:105280000F46284671466FF0ABFF284621466FF067
:10529000B9FF0C2303FB07601030F8BD79520008FA
:1052A000F8B5094D06460F462846714674466FF01C
:1052B00097FF3046B763FEF7D1FF28462146BDE889
:1052C000F8406FF09FBF00BFA152000810B50A4818
:1052D000714674466FF084FF0848FEF777FF037845
:1052E000012B02D1064B074A1A6021460248BDE84D
:1052F00010406FF087BF00BFCD5200088419002016
:1053000030110020E85E002070B5084D0646714659
:10531000284674466FF064FF96F83660284606F01B
:10532000010621466FF06EFF304670BD095300083C
:1053300070B5074D74467146064628466FF050FF1B
:10534000284621466FF05EFF06F19C0070BD00BF4D
:105350003153000870B5084E044671463046754614
:105360006FF03EFF00233046A36063602360294650
:105370006FF048FF204670BD55530008F8B50A4D40
:105380000F4606467146284674466FF029FF3823BB
:1053900003FB0766284696F84C60214606F0010696
:1053A0006FF030FF3046F8BD7D53000870B50A4DF0
:1053B00006467146284674466FF012FF96F8941020
:1053C000304601F00301FFF7D9FF21460646284683
:1053D0006FF018FF304670BDAD53000838B5714608
:1053E0000B4875466FF0FCFEFFF75EF8094B1B6833
:1053F000C01A094B1A680024904288BF1C600448F8
:1054000088BF012429466FF0FDFE204638BD00BF4D
:10541000DD530008741700206C17002038B5714662
:105420000B4875466FF0DCFE0A4B0B491A68096899
:10543000074822EAE27291424FF0000438BF1C6034
:10544000294638BF01246FF0DDFE204638BD00BF7D
:105450001D5400086C17002034C7002038B5174CC5
:105460001748714675466FF0BBFEB4F90030002B4B
:1054700004DAB4F90030002B12DC06E0FFF7E2FC9E
:10548000104B1B68984206DAF3E7FFF7DBFC0D4B85
:105490001B68984204DC0B4B00221A60012407E0D1
:1054A000B4F900000A2390FBF3F0FFF79FFC0024FF
:1054B000034829466FF0A6FE204638BD0062002052
:1054C0005D5400086C170020F8B5114D7146284650
:1054D00074466FF085FE0F4B0F481E6833685F6A95
:1054E000FFF778F8B0F900300C4983EAE372A2EBD9
:1054F000E37200EE102A0A4B304693F90C20B8EE06
:10550000C00AB84728462146BDE8F8406FF07ABE89
:10551000C95400083011002092190020C85E0020F4
:105520005017002038B5074D7446714628466FF075
:1055300057FEFFF7C9FF284621466FF063FE0020A3
:1055400038BD00BF25550008F8B5094D0F46064681
:105550007146284674466FF043FE382303FB076606
:105560002846B66B21466FF04DFE3046F8BD00BFB1
:105570004955000870B50A4D0646714628467446DE
:105580006FF02EFE96F89410304601F00301FFF7FD
:10559000DBFF2146064628466FF034FE304670BDDC
:1055A00075550008F8B50F46074D064606EBC706C9
:1055B0007146284674466FF013FE36692846214628
:1055C0006FF020FE3046F8BDA555000870B50A4DB5
:1055D00006467146284674466FF002FE96F894100F
:1055E000304601F00301FFF7DDFF2146064628465D
:1055F0006FF008FE304670BDCD550008F8B5084D77
:10560000744606460F46284671466FF0E9FD284667
:1056100021466FF0F7FD382303FB07602630F8BD05
:10562000FD55000870B50A4D064671462846744679
:105630006FF0D6FD96F89410304601F00301FFF7A5
:10564000DDFF2146064628466FF0DCFD304670BD82
:105650002556000870B50C4E2DED028B0446F0EE79
:10566000408AB0EE608A7546714630466FF0B8FDEC
:10567000C4ED008A84ED018A304629466FF0C2FDF0
:10568000BDEC028B204670BD5556000870B5084D24
:1056900006467146284674466FF0A2FD96F894605F
:1056A0002846C6F3810621466FF0ACFD304670BD3A
:1056B0008D56000870B57146214875466FF090FD13
:1056C000204B21481C6B2368DE68FEF7FDFD017846
:1056D00001392046C9B2B0476FF46172821892B2A4
:1056E00040F212539A421BD8A0F2CF439BB2812BB7
:1056F00018D96FF4AA63C3189BB2812B14D9A0F2F6
:10570000D3539BB2812B11D9A0F255639BB2802B4E
:105710000ED940F2D564A0428CBF0524002408E0D5
:10572000FF2406E0012404E0022402E0032400E058
:105730000424034829466FF065FD204670BD00BF74
:10574000B5560008C4DB0020C019002070B5124D0A
:105750007146284674466FF043FD104B5A789E7888
:10576000DB7842EA062646EA03460D4B1B68997829
:105770005A78DB7842EA012242EA034343F31703F3
:1057800046F31706F61A2846002EB8BF7642214681
:105790006FF038FD304670BD4D57000844170020AB
:1057A0002862002038B571460446154875466FF0EA
:1057B00017FD04F10900FEF787FD90F900300BB9E1
:1057C000002417E004F10800FEF77EFD90F9003098
:1057D000002BF5D02046FEF787FDD0ED007AF0EEE5
:1057E000E77AF5EEC07AF1EE10FAE9DD94F82040A0
:1057F00004F00104024829466FF004FD204638BD3C
:10580000A557000838B51048714675466FF0E8FC9A
:105810000E48FEF759FD90F9003023B10C4B1B7870
:105820000BB1012409E00B4B1B780A2B04D10A4B66
:105830001C78C4F3800404B90024034829466FF09F
:10584000E1FC204638BD00BF05580008101A0020B2
:10585000FC1B0020061100201411002070B5064D1D
:1058600074467146064628466FF0BAFC2846214623
:105870006FF0C8FC304670BD5D58000838B50B4865
:10588000714674466FF0ACFC0948FEF71DFD90F9B7
:1058900000300BB1064800E00648FEF715FD05781C
:1058A000024821466FF0AEFC284638BD7D580008FE
:1058B000291A002099C3002070B50A487146744621
:1058C0006FF08EFC084B1B7833B1084D2B681E68B7
:1058D000FFF730F82846B04721460248BDE870403F
:1058E0006FF090BCB958000873170020FCC100206D
:1058F000F8B50A4D06460F462846714674466FF0C5
:105900006FFC96F8363067F3451386F83630284634
:105910002146BDE8F8406FF075BC00BFF1580008A3
:1059200070B5094D7146284674466FF059FC074B17
:10593000986B0368DB6898472146064628466FF057
:1059400061FC304670BD00BF21590008C4DB002057
:10595000F8B5074D064674460F46284671466FF067
:105960003FFCB78028462146BDE8F8406FF04ABCAE
:1059700051590008F8B5084D0F46064671462846AD
:1059800074466FF02DFC3B88338028462146BDE8E5
:10599000F8406FF037BC00BF75590008F8B5084DE6
:1059A0000F4606467146284674466FF019FC3B6860
:1059B000336028462146BDE8F8406FF023BC00BFA5
:1059C0009D590008F8B5084E0F460446714630460A
:1059D00075466FF005FC3B782370304629466FF022
:1059E00011FC2046F8BD00BFC5590008F8B5074DA9
:1059F000064674460F46284671466FF0F1FBF76382
:105A000028462146BDE8F8406FF0FCBBED59000880
:105A100070B5094D71460646284674466FF0E0FBA6
:105A2000064B986B0268B1B25268904728462146EF
:105A3000BDE870406FF0E6BB115A0008C4DB0020DF
:105A4000F8B50A4D06460F462846714674466FF073
:105A5000C7FB96F8363067F3820386F8363028465F
:105A60002146BDE8F8406FF0CDBB00BF415A0008A9
:105A7000F8B5084D064674460F46284671466FF045
:105A8000AFFB86F8287028462146BDE8F8406FF045
:105A9000B9BB00BF715A0008F8B50A4D06460F465B
:105AA0002846714674466FF09BFB96F8363067F3D4
:105AB000041386F8363028462146BDE8F8406FF0DA
:105AC000A1BB00BF995A000870B50E4E2DED048B96
:105AD0000446B0EE409AF0EE608AB0EE418A754618
:105AE000714630466FF07CFB84ED009AC4ED018A6C
:105AF00084ED028A304629466FF084FBBDEC048BAE
:105B0000204670BDC95A00082DE9F0410D4F0546E9
:105B100088463846714676466FF062FB0A4B5C6BEE
:105B2000236820462946DB68984723682046294693
:105B300042465B69984738463146BDE8F0416FF010
:105B400061BB00BF095B0008C4DB002070B5094DD4
:105B500071460646284674466FF042FB06F108007F
:105B6000FEF738FD0688214628466FF04BFB30468D
:105B700070BD00BF4D5B00082DE9F0410A4D804625
:105B80000F462846714674466FF02AFB07480668A0
:105B900041463A463668B047284621466FF032FB08
:105BA0000020BDE8F08100BF795B0008C4DB002065
:105BB00070B571460546104874466FF011FBFEF74C
:105BC00073FC06460D48FEF77FFB90F90030B3EBFF
:105BD000962F01D2002508E035B9094BD86A036831
:105BE0001B6A98470028F5D10125034821466FF02C
:105BF00009FB284670BD00BFB15B00086719002093
:105C0000C4DB002070B51D48714674466FF0E8FA99
:105C10001B48FEF7AFFC01280CD91948FEF7DCFB46
:105C2000F1EE047AB4EEE70AF1EE10FAB4BF002503
:105C3000012500E001251348FFF7B4FD60B11148CC
:105C4000FEF7B0FCF1EE047AB4EEE70AF1EE10FADA
:105C5000B4BF0026012600E00126FFF777FDB0F56E
:105C6000FA7F04DD002D14BF3546002500E0002535
:105C7000024821466FF0C6FA284670BD055C000850
:105C8000B8C3002050C7002070B5094D06467146C4
:105C9000284674466FF0A4FA367906F00306F31E20
:105CA0005E425E41284621466FF0ACFA304670BD38
:105CB000895C0008F8B50746074D0E463E4471461C
:105CC000284674466FF08CFA767B284621466FF0A2
:105CD00099FA3046F8BD00BFB55C000870B5084DB4
:105CE00006467146284674466FF07AFA96F82060A8
:105CF000284606F0010621466FF084FA304670BD52
:105D0000DD5C000870B5084D7146064628467446AD
:105D10006FF066FA3046FEF7D7FA06782146284635
:105D20006FF070FA70B270BD055D0008F8B50F46EF
:105D3000074D064606EBC7067146284674466FF0C7
:105D40004FFAF668284621466FF05CFA3046F8BDF7
:105D50002D5D000870B50A4D06467146284674460A
:105D60006FF03EFA96F89410304601F00301FFF709
:105D7000DDFF2146064628466FF044FA304670BDE6
:105D8000555D000838B505467146084874466FF001
:105D900027FA288B4FF6FF75A84214BF0546002549
:105DA000214602486FF02EFA284638BD855D00086E
:105DB00038B5064D7446284671466FF011FA2846EC
:105DC0002146BDE838406FF01DBA00BFB15D000844
:105DD00070B50D4604467146244876466FF000FAC9
:105DE000082D3BD804EB45007230FFF737FD0078F3
:105DF00007EE900A082DF8EE677A08D094F8643020
:105E00000BB9236C1BB1B5EE007A67EE877AF5EE1D
:105E1000C07AF1EE10FA21D9254495F88430D3B92F
:105E20009FED137A94F88D40F4EE477AF1EE10FA74
:105E3000C8BFF0EE477A87EE277A06EE904AF8EE72
:105E4000E66A012477EE267AFCEEE77A17EE903ABE
:105E500085F8843003E0013B85F884300024034852
:105E600031466FF0CFF9204670BD00BFD15D00080C
:105E70000000484238B50C461A48714675466FF026
:105E8000AFF9A379E27943EA0222237A42EA034294
:105E900042F31702144BC2F307219970C2F3074172
:105EA000D97061795A70C90712D5104908684178CC
:105EB0008478C07841EA042141EA004141F31701A6
:105EC0000A44C2F307215A70C2F307429970DA708C
:105ED0001A7804486FF300021A702946BDE838406A
:105EE0006FF090B9755E0008C85E0020286200203F
:105EF00070B5094D71460646284674466FF070F934
:105F000006F13700FEF762F90678214628466FF061
:105F100079F9304670BD00BFF15E000870B5074EDC
:105F200004467146304675466FF05AF9044B2360BB
:105F3000304629466FF066F9204670BD1D5F0008A7
:105F4000903C0A08F8B50A4E04460F4630467146A2
:105F500075466FF045F92046FFF7E0FF054B2360DB
:105F60003046277129466FF04DF92046F8BD00BF35
:105F7000455F0008409D0A0870B5094D71462846E6
:105F800074466FF02DF90748FEF700FC21460646DF
:105F900028466FF037F90F23B6FBF3F0C0B270BD9F
:105FA000795F000890DD002070B5084D7146064607
:105FB000284674466FF014F9301DFEF785F906780F
:105FC000214628466FF01EF9304670BDA95F0008D3
:105FD00038B5714605460A4874466FF001F900234A
:105FE000EA18043300211C2B5160F9D1002385F8F5
:105FF000203021460248BDE838406FF003B900BFA9
:10600000D15F000870B50A4E0446714630467546A9
:106010006FF0E6F800236360A360E36023616361CF
:106020000023237630462946BDE870406FF0EAB879
:106030000560000870B5094E044671463046754645
:106040006FF0CEF82046FFF7DDFF00236376304681
:106050002946BDE870406FF0D5B800BF3560000834
:1060600038B504462DED028B71460E48B0EE408ADD
:1060700075466FF0B5F8227E0A48531CDBB2042B3C
:10608000237604EB820288BF002382ED018A294631
:1060900088BF23766FF0B6F8B0EE480ABDEC028BED
:1060A00038BD00BF6160000838B5714604462DED6B
:1060B000028B1648B0EE408A75466FF091F8204684
:1060C000B0EE480AFFF7CCFF637EDFED117A042BB8
:1060D00094BF0133052363760023E21892ED017A21
:1060E0000433142B77EE877AF7D1647E074808EEE5
:1060F000104AB8EEC88A294687EE888A6FF082F87F
:10610000B0EE480ABDEC028B38BD00BFA9600008A4
:106110000000000038B504462DED028B71460F4893
:10612000B0EE408A75466FF05BF894F820200B487B
:10613000531CDBB2062B84F8203004EB820288BFAC
:10614000002382ED018A294688BF84F820306FF051
:1061500059F8B0EE480ABDEC028B38BD1561000855
:1061600038B5094D7146284674466FF039F8074B2B
:10617000074AD86B116803681B6898472846214670
:106180006FF040F8002038BD61610008C4DB0020DA
:10619000F4C0002070B50D4C064671460C4875469B
:1061A0006FF01EF8206803681B6A0EB1094900E011
:1061B000094998472068094903681B6A9847294696
:1061C0000348BDE870406FF01DB800BFF4C0002068
:1061D000956100087EE90A08423A0A08A64A0A08B8
:1061E00038B5094D7146284674466EF0F9FF074BE5
:1061F0000749186803681B6A984728462146BDE886
:1062000038406EF0FFBF00BFE1610008F4C000201D
:10621000AD4A0A0870B5094D7146064628467446CF
:106220006EF0DEFF064B986B0268B1B25268904781
:1062300028462146BDE870406EF0E4BF15620008B4
:10624000C4DB002070B50B4E0446714630467546DF
:106250006EF0C6FF236820461B699847014620461A
:10626000FFF728FD2946044630466EF0CBFF204656
:1062700070BD00BF4562000870B50B4E0446714604
:10628000304675466EF0ACFF236820461B69984780
:1062900001462046FEF7D8FF2946044630466EF0F8
:1062A000B1FF204670BD00BF7962000870B50B4E8B
:1062B00004467146304675466EF092FF23682046CC
:1062C0001B69984701462046FEF7D6FF294604463B
:1062D00030466EF097FF204670BD00BFAD620008EB
:1062E000F8B5084D744606460F46284671466EF0CE
:1062F00077FF284621466EF085FF0C2303FB0760DD
:106300004C30F8BDE162000870B50B4E0446714692
:10631000304675466EF064FF236820461B6D984733
:1063200001462046FFF7DCFF2946044630466EF062
:1063300069FF204670BD00BF09630008F8B5094D2C
:106340000F4606467146284674466EF049FF3823CC
:1063500007FB03331E442846B67921466EF052FFF0
:106360003046F8BD3D63000870B50A4D06467146DB
:10637000284674466EF034FF96F89410304601F0CB
:106380000301FFF7DBFF2146064628466EF03AFF81
:10639000304670BD69630008F8B571461548164C63
:1063A00075466EF01DFFFFF71BFF4FF47A70FFF785
:1063B00031FF2068114903681B6A98472646104B35
:1063C000DC68236820469B68984738B123682046DC
:1063D0001F681B699847C1B22046B84730680368F8
:1063E0009B6898470028EADD024829466EF00AFFBC
:1063F0000020F8BD99630008F4C00020C24A0A08D2
:10640000C4DB0020F0B5174E044687B03046714615
:1064100075466EF0E5FE144B6779186822880168AE
:10642000A3780097B4F80370019794F807E0A77970
:1064300047EA0E2794F808E047EA0E4747F31707A4
:106440000297D4F809700397D4F80D4004940C6AAD
:106450000649A0473046294607B0BDE8F0406EF037
:10646000D1BE00BF05640008F4C00020E94A0A0854
:1064700070B504460D462948714676466EF0B0FE6A
:1064800023680F2D3ED8DFE805F0080C1115191D03
:106490002529213D2D31353D3D395B692049204677
:1064A00002E05B691F492046984730E05B691E495E
:1064B0002046F9E75B691D492046F5E75B691C4901
:1064C0002046F1E75B691B492046EDE75B691A4905
:1064D0002046E9E75B6919492046E5E75B69184909
:1064E0002046E1E75B6917492046DDE75B6916490D
:1064F0002046D9E75B6915492046D5E75B69144911
:106500002046D1E71B6A134920462A469847314660
:106510000248BDE870406EF075BE00BF71640008AF
:10652000254B0A082C4B0A08334B0A083D4B0A0836
:10653000464B0A084B4B0A08514B0A085A4B0A08AB
:10654000604B0A0871520A08674B0A086B4B0A082D
:10655000724B0A08794B0A0838B5094D714628462E
:1065600074466EF03DFE074B0749186803685B6987
:10657000984728462146BDE838406EF043BE00BF2C
:1065800059650008F4C00020824B0A0838B5094D4F
:106590007146284674466EF023FE074B074918687B
:1065A00003681B6A9847284621466EF02BFE0020A0
:1065B00038BD00BF8D650008F4C00020844B0A0878
:1065C00038B5094D7146284674466EF009FE074BF2
:1065D000986B036800215B6C9847284621466EF053
:1065E00011FE002038BD00BFC1650008C4DB0020DB
:1065F000F8B5084D0F4606467146284674466EF0BB
:10660000EFFD3B68336028462146BDE8F8406EF058
:10661000F9BD00BFF1650008F8B50A4E04460F4603
:106620003046714675466EF0DBFD2046FFF776FC7E
:10663000054B304684E8880029466EF0E3FD20468D
:10664000F8BD00BF19660008509D0A08F8B50A4D4C
:1066500006460F462846714674466EF0C1FD0C236F
:1066600003FB0760BC30FEF7DFFD214606462846E7
:106670006EF0C8FD3046F8BD4D66000870B50B4E93
:1066800004467146304675466EF0AAFD23682046E2
:106690001B6D984701462046FFF7D8FF2946044660
:1066A00030466EF0AFFD204670BD00BF7D6600082D
:1066B0002DE9FF4BDFF864807146404677466EF067
:1066C0008FFD1348FFF7DAFF124B06460068D3F838
:1066D00000909CF0FDF804467068D9F800B00D46B3
:1066E0009CF0F6F8CDE90001B0689CF0F1F8CDE936
:1066F000020122464846DBF8206007492B46B04796
:106700004046394604B0BDE8F04B6EF07BBD00BF9B
:10671000B8C40020F4C000200B4C0A08B166000881
:10672000F8B50A4D06460F462846714674466EF087
:1067300057FD0C2303FB07609830FEF775FD2146DB
:10674000064628466EF05EFD3046F8BD216700081B
:1067500070B50B4E04467146304675466EF040FDEE
:1067600023682046DB6C984701462046FFF7D8FF98
:106770002946044630466EF045FD204670BD00BFF8
:1067800051670008F8B50A4D06460F46284671467F
:1067900074466EF025FD0C2303FB07607430FEF792
:1067A00043FD2146064628466EF02CFD3046F8BDD6
:1067B0008567000870B50B4E044671463046754635
:1067C0006EF00EFD23682046DB6C9847014620469C
:1067D000FFF7D8FF2946044630466EF013FD2046E9
:1067E00070BD00BFB56700082DE9F04BDFF8988059
:1067F000224C8CB07146404677466EF0F1FC204644
:10680000FFF7A6FF05684268D0F808B00B92204653
:10681000FFF7D0FF1A49D1F800900646D9F80030AA
:106820000A9328469CF054F80B9A044610460D46ED
:106830009CF04EF8CDE9000158469CF049F8CDE9AE
:10684000020130689CF044F8CDE9040170689CF0C6
:106850003FF8CDE90601B0689CF03AF8CDE90801AF
:106860000A9B08491E6A484622462B46B0474046C6
:1068700039460CB0BDE8F04B6EF0C4BCB8C4002083
:10688000F4C000202E4C0A08E967000838B5094D0D
:106890007146284674466EF0A3FC074B07491868FA
:1068A00003681B6A984728462146BDE838406EF0C9
:1068B000A9BC00BF8D680008F4C000206D4C0A0818
:1068C0002DE9FF4B834F844D844C71463846764604
:1068D0006EF086FCD5F800802068D8F800300A30C9
:1068E000D3F82090FDF776FEB0F9002020680392DF
:1068F0000C30FDF76FFEB0F900B02068784C0E3018
:10690000FDF768FEB0F900307649039A00934046DF
:106910005B46C847D5F800802068D8F800300A30B8
:10692000D3F82090FDF756FEB0F9002020680392BE
:106930000C30FDF74FFEB0F900B020686A4C0E3005
:10694000FDF748FEB0F900306849039A00934046CD
:106950005B46C847D5F800802068D8F800300A3078
:10696000D3F82090FDF736FEB0F90020206803929E
:106970000C30FDF72FFEB0F900B020685C4C0E30F3
:10698000FDF728FEB0F900305A49039A00934046BB
:106990005B46C847D5F800802068D8F800300A3038
:1069A000D3F82090FDF716FEB0F90020206803927E
:1069B0000C30FDF70FFEB0F900B020684E4C0E30E1
:1069C000FDF708FEB0F900304C49039A00934046A9
:1069D0005B46C847D5F80080D8F8003004F5B3709E
:1069E000D3F82090FDF7F6FDB0F90020039204F5EE
:1069F000B470FDF7EFFDB0F900B004F5B570FDF728
:106A0000E9FDB0F900303E49039A009340465B46E9
:106A1000C847D5F80080D8F8003004F5C370D3F823
:106A20002090FDF7D7FDB0F90020039204F5C47063
:106A3000FDF7D0FDB0F900B004F5C570FDF7CAFD53
:106A4000B0F900302F49039A009340465B46C8478F
:106A5000D5F80080D8F8003004F5D370D3F8209032
:106A6000FDF7B8FDB0F90020039204F5D470FDF7EE
:106A7000B1FDB0F900B004F5D570FDF7ABFDB0F98C
:106A80000030039A2049009340465B46C8472D6872
:106A90002B6804F5E370D3F82080FDF79BFDB0F977
:106AA00000B004F5E470FDF795FDB0F9009004F531
:106AB000E570FDF78FFDB0F90030009328461349CB
:106AC0005A464B46C0473846314604B0BDE8F04B05
:106AD0006EF098BBC1680008F4C00020FC61002083
:106AE0006C5E00207F4C0A0840170020924C0A0878
:106AF00094C30020A54C0A0858190020B84C0A0875
:106B0000CB4C0A08DE4C0A08F14C0A08044D0A086E
:106B100038B505467146094874466EF061FB6B79DD
:106B2000064813F0040F064B14BFFF2201221A730C
:106B30002146BDE838406EF065BB00BF116B000810
:106B40005017002070B50F4D064671462846744612
:106B50006EF046FBFDF7A8FCD6F805609FED0A7ABB
:106B60000A4B07EE906A67EE877A1860FDEEE77AC7
:106B7000074BC3ED007A28462146BDE870406EF011
:106B800041BB00BF456B000800007A447417002029
:106B90006C17002070B50B4D0646714628467446AA
:106BA0006EF01EFBD6F80520074B07EE902AFDEE8F
:106BB000E77A2846C3ED007A2146BDE870406EF0C2
:106BC00021BB00BF956B00086C170020F7B50C4D7A
:106BD00006460F462846714674466EF001FB07EEE6
:106BE000107AF8EE477A02A961ED017A06F10C00FD
:106BF000FFF7FEFC284621466EF004FB03B0F0BD13
:106C0000CD6B000870B5064D7446714606462846A1
:106C10006EF0E6FA284621466EF0F4FA304670BD72
:106C2000056C000870B5084E71460446304675463E
:106C30006EF0D6FA2046FFF7E5FF304629466EF0A3
:106C4000E1FA204670BD00BF256C000870B5084E03
:106C500071460446304675466EF0C2FA2046FFF78C
:106C6000D1FF304629466EF0CDFA204670BD00BFF8
:106C70004D6C000870B5174E714604463046754697
:106C80006EF0AEFA2046FFF7CDFF601CFFF7CAFF9B
:106C9000A01CFFF7C7FFE01CFFF7C4FF201DFFF794
:106CA000D5FFA01DFFF7D2FF04F10800FFF7CEFFCC
:106CB00004F10A00FFF7CAFF04F10C00FFF7B2FF6E
:106CC00004F10E00FFF7C2FF304629466EF09AFA33
:106CD000204670BD756C000870B5084E71460446BC
:106CE000304675466EF07CFA2046FFF78BFF304643
:106CF00029466EF087FA204670BD00BFD96C0008A7
:106D000070B5084E71460446304675466EF068FA16
:106D10002046FFF777FF304629466EF073FA20468B
:106D200070BD00BF016D000870B5084E7146044685
:106D3000304675466EF054FA2046FFF773FF304632
:106D400029466EF05FFA204670BD00BF296D00082D
:106D500070B5074E04467146304675466EF040FAEF
:106D6000044B2360304629466EF04CFA204670BD35
:106D7000516D0008403D0A0870B5094E0446714641
:106D8000304675466EF02CFA2046FFF7E1FF054BC2
:106D90002360304629466EF035FA204670BD00BFAC
:106DA000796D000820A60A0870B5094E04467146A0
:106DB000304675466EF014FA002330466370A370B7
:106DC000E370237129466EF01DFA204670BD00BFA6
:106DD000A96D000870B5094E0446714630467546E7
:106DE0006EF0FEF900233046A370E3702371A360B8
:106DF00029466EF007FA204670BD00BFD56D000829
:106E000070B50C4E71460446304675466EF0E8F992
:106E1000201DFFF7B1FF04F11400FFF7C5FF04F1D7
:106E20001C00FFF7D7FF304629466EF0EBF92046ED
:106E300070BD00BF016E000870B5084E7146044673
:106E4000304675466EF0CCF904F12400FEF782FA64
:106E5000304629466EF0D6F9204670BD396E0008DE
:106E600070B5074E04467146304675466EF0B8F967
:106E7000044B2360304629466EF0C4F9204670BDAD
:106E8000616E0008403C0A0870B50C4E044671461D
:106E9000304675466EF0A4F92046FFF7E1FF084B37
:106EA0002360002384F820302046FFF791F8304615
:106EB00029466EF0A7F9204670BD00BF896E000814
:106EC000503C0A0870B5094E044671463046754676
:106ED0006EF086F92046FFF7D7FF054B236030465A
:106EE00029466EF08FF9204670BD00BFC56E0008C0
:106EF000603C0A0870B5094E714604463046754636
:106F00006EF06EF92046FFF77DFE2046FEF722FA6E
:106F1000304629466EF076F9204670BDF56E0008C1
:106F200070B5084E04467146304675466EF058F905
:106F3000002330466360236029466EF063F92046E3
:106F400070BD00BF216F000870B50C4E044671463D
:106F5000304675466EF044F94FF07E53236223614C
:106F600023600023A36063606361E360E361A36166
:106F700030462946BDE870406EF044B9496F0008BC
:106F800070B50C4E71460446304675466EF028F9D1
:106F90002046FEF7DFF904F10C00FEF7DBF904F1FF
:106FA0001800FEF7D7F9304629466EF02BF9204637
:106FB00070BD00BF816F000870B5074E0446714672
:106FC000304675466EF00CF9044B23603046294676
:106FD0006EF018F9204670BDB96F0008B83C0A0879
:106FE00070B5074E04467146304675466EF0F8F8A7
:106FF000044B2360304629466EF004F9204670BDEC
:10700000E16F0008F83C0A0870B50B4E0446714663
:10701000304675466EF0E4F82046FFF721FF074B37
:107020002360002323762046FEF7ECFF30462946F6
:107030006EF0E8F8204670BD09700008203D0A088F
:1070400070B50A4E04467146304675466EF0C8F873
:107050002046FFF7D9FF064B2360002330466376B6
:1070600029466EF0CFF8204670BD00BF4170000881
:10707000303D0A0870B5114E7146044630467546DB
:107080006EF0AEF82046FFF73BFE201DFFF738FEFE
:1070900004F10800FFF734FE04F10C00FFF730FEA6
:1070A00004F11000FFF7D2FD04F11200FFF7CEFD4E
:1070B000304629466EF0A6F8204670BD757000086F
:1070C000F8B50B4E04460F463046714675466EF0D5
:1070D00087F8002330462760A380A371A360A381B3
:1070E000E3812374638229466EF08CF82046F8BD54
:1070F000C17000082DE9F0410A4E04460F463046A3
:107100007146754690466EF06BF800233046237149
:10711000A760C4F80C8029466EF074F82046BDE8DC
:10712000F08100BFF570000870B5074E0446714647
:10713000304675466EF054F8044B236030462946BD
:107140006EF060F8204670BD29710008A03C0A0866
:10715000F8B50C4E04460F463046714675466EF043
:107160003FF82046FFF7E0FF074B236000236360F2
:10717000FF233046A760237329466EF043F820466C
:10718000F8BD00BF51710008E0810A0870B5094ED2
:1071900004467146304675466EF022F82046FFF7E9
:1071A000C3FF054B2360304629466EF02BF820467E
:1071B00070BD00BF8D710008D8820A0870B5074DF8
:1071C00006467146284674466EF00AF83678284618
:1071D00021466EF017F8304670BD00BFBD71000843
:1071E00070B5074D06467146284674466DF0F8FFA7
:1071F0003678284621466EF005F8304670BD00BF4F
:10720000E171000870B5074D064671462846744680
:107210006DF0E6FF3678284621466DF0F3FF3046E4
:1072200070BD00BF0572000870B5074D0646714677
:10723000284674466DF0D4FF3678284621466DF016
:10724000E1FF304670BD00BF2972000870B5074DE0
:1072500006467146284674466DF0C2FF36782846C9
:1072600021466DF0CFFF304670BD00BF4D72000863
:1072700070B5074D06467146284674466DF0B0FF5E
:107280003678284621466DF0BDFF304670BD00BF00
:107290007172000870B5074D06467146284674465F
:1072A0006DF09EFF3678284621466DF0ABFF3046E4
:1072B00070BD00BF9572000870B5074D0646714657
:1072C000284674466DF08CFF3678284621466DF0CE
:1072D00099FF304670BD00BFB972000870B5074D08
:1072E00006467146284674466DF07AFF3678284681
:1072F00021466DF087FF304670BD00BFDD7200088B
:1073000070B5074D06467146284674466DF068FF15
:107310003678284621466DF075FF304670BD00BFB7
:10732000017300082DE9F0410E46804671460C4875
:1073300075466DF055FF0B4B00241E60A7B21C2054
:1073400000FB0760FFF73AFF01340028F6D1064B37
:1073500003481F7029466DF055FF4046BDE8F08197
:107360002573000888DD002084DD002070B5074DFE
:1073700074467146064628466DF032FF284621467F
:107380006DF040FF06F50B7070BD00BF6D73000817
:1073900070B5074E04467146304675466DF020FFC5
:1073A000044B2360304629466DF02CFF204670BD0B
:1073B00091730008A89C0A0870B5074E04467146F0
:1073C000304675466DF00CFF044B2360304629466D
:1073D0006DF018FF204670BDB973000890800A0850
:1073E00070B5094E04467146304675466DF0F8FE9C
:1073F000064B23602046FFF7DFFF304629466DF03D
:1074000001FF204670BD00BFE173000800810A083B
:1074100070B5094E04467146304675466DF0E0FE83
:10742000064B23602046FFF7B3FF304629466DF038
:10743000E9FE204670BD00BF11740008609D0A0877
:1074400070B5094E04467146304675466DF0C8FE6B
:10745000064B23602046FFF7C3FF304629466DF0F8
:10746000D1FE204670BD00BF4174000870810A083B
:1074700070B5094E71460446304675466DF0B0FE53
:107480002046FFF785FF20466DF0B2FF30462946C3
:107490006DF0B8FE204670BD7174000870B5094EDD
:1074A00071460446304675466DF09AFE2046FFF759
:1074B00083FF20466DF09CFF304629466DF0A2FE0A
:1074C000204670BD9D74000870B5094E7146044693
:1074D000304675466DF084FE2046FFF781FF20465A
:1074E0006DF086FF304629466DF08CFE204670BD5B
:1074F000C974000870B5094E714604463046754699
:107500006DF06EFE2046FFF783FF20466DF070FFA2
:10751000304629466DF076FE204670BDF5740008B1
:1075200070B5094E71460446304675466DF058FEFA
:107530002046FFF785FF20466DF05AFF304629466A
:107540006DF060FE204670BD2175000838B5074D0E
:107550007146284674466DF043FE054841F0B2FC82
:1075600028462146BDE838406DF04CBE4D750008F8
:10757000F462002070B50B4D7146284674466DF0DC
:107580002FFE094B09481E78FCF720FE3146027891
:10759000074814F0B9FF28462146BDE870406DF059
:1075A00031BE00BF75750008061100206619002065
:1075B0002817002010B571468AB00E4874466DF049
:1075C0000FFE0D4844F09CFC0B480C4944F0ACFB0A
:1075D0000B4BD86B03686946DB68984718B10648BF
:1075E000694644F00BFC034821466DF00BFE0AB0DF
:1075F00010BD00BFB5750008745E0020174D0A0865
:10760000C4DB0020F8B571460646174875466DF094
:10761000E7FD1648FCF712FF046834401DD0144EF5
:1076200033780BB1002418E01248FCF7F3FE30B9B0
:107630000E48FCF703FF046814F480340DD00E48A4
:10764000FCF70CFF40B90D4B1F7801242FB93470A3
:10765000FFF7B0FF377000E00124034829466DF0C2
:10766000D1FD2046F8BD00BF05760008E4190020D2
:10767000A0C80020001C0020745E002060C600200E
:1076800070B5094D094E7146284674466DF0A8FD47
:10769000304643F0F3FD304643F086FE284621464F
:1076A000BDE870406DF0AEBD81760008745E0020CC
:1076B00038B5084D7146284674466DF091FD064870
:1076C000064943F0F9FE28462146BDE838406DF0F2
:1076D00099BD00BFB1760008745E0020B8C40020D8
:1076E00010B50A48714674466DF07AFD0848FCF7FB
:1076F000EBFD90F9003013B1064814F071F8214603
:107700000248BDE810406DF07DBD00BFE176000885
:10771000041A00209017002038B5094D71462846FC
:1077200074466DF05DFD074824F00EFB064813F02B
:10773000BDFB28462146BDE838406DF063BD00BF63
:1077400019770008B8C6002008620020F8B5714615
:1077500007460F4875466DF043FD0024CC22624376
:107760000C4BD35CE6B24BB1304647F093FC372864
:1077700004DD094831463A4611F090FD0134032CEE
:10778000ECD129460248BDE8F8406DF03BBD00BF92
:107790004D7700081C5F002050C7002070B53548A9
:1077A0002DED028B714674466DF01AFD3248FCF7E0
:1077B000B1FE002855D03148FCF7DCFE022850D934
:1077C0002E48FCF709FEF1EE007AB4EEE70AF1EE7E
:1077D00010FA46D42848FCF7E5FE2948B0EE408A66
:1077E000FCF7F8FEB0F9000007EE900AF8EEE77A31
:1077F000B4EEE78AF1EE10FA12D52048FCF7ECFD62
:107800001F48B0EE408AFCF7E5FEB0F9000007EE35
:10781000900AF8EE677AB4EEE78AF1EE10FA20D417
:10782000184D194A2B691268002BB8BF5B4293426E
:1078300017DC16486E69FCF7CDFEB0F900309E42A9
:107840000FDC134B6A691B689A420ADB0B48FCF792
:10785000E7FE05462946084811F03EFC2846FFF79A
:1078600075FFBDEC028B21460248BDE870406DF00B
:10787000C9BC00BF9D77000850C70020B8C30020D6
:107880009CC30020001C0020FCC00020A0C30020DE
:10789000CC61002038B5714605460A4874466DF043
:1078A0009FFC0A2D07D10848FCF7E6FE012802D10B
:1078B000054822F093FB21460248BDE838406DF0B0
:1078C000A1BC00BF95780008A462002070B5084DE7
:1078D00071460646284674466DF082FC06F1180093
:1078E0000CF0FAFF28462146BDE870406DF08ABCD6
:1078F000CD78000870B5084D714606462846744696
:107900006DF06EFC06F118000CF0E6FF28462146EB
:10791000BDE870406DF076BCF578000838B5094DCB
:107920007146284674466DF05BFC0748FFF7CEFFB2
:107930000648FFF7DFFF28462146BDE838406DF0D6
:1079400061BC00BF1D7900089C5D0020E8C70020D5
:1079500070B5084D71460646284674466DF040FCE9
:1079600006F118000CF070FD28462146BDE8704075
:107970006DF048BC5179000870B5084D7146064657
:10798000284674466DF02CFC06F118000CF05CFDE6
:1079900028462146BDE870406DF034BC7979000876
:1079A00038B5094D7146284674466DF019FC0748F4
:1079B000FFF7CEFF0648FFF7DFFF28462146BDE868
:1079C00038406DF01FBC00BFA17900089C5D00200D
:1079D000E8C7002073B5714619481A4C75466DF01A
:1079E000FFFB194B99785A78DB7842EA012242EA88
:1079F000034343F317032360FCF750FE1348FCF7DF
:107A000063FC90F9003026462BB1114801A90122F0
:107A100041F038F938B900233372094829466DF02E
:107A2000F1FB02B070BDDFED0B7A9DED017A67EEE0
:107A3000277A0123FDEEE77A2372C4ED037AECE79F
:107A4000D57900083CC70020441700202D1A0020DB
:107A5000F46200200000C84238B5094D714628463E
:107A600074466DF0BDFBFFF7B5FFFDF7EBF9054B75
:107A7000186021462846BDE838406DF0C3BB00BF02
:107A8000597A00083CC70020F8B5044671461A48E8
:107A90001A4D76466DF0A4FBD4F80930E779002B37
:107AA000B8BF5B422B80A37943EA0727237A144CA3
:107AB00047EA034747F317072760FDF7C3F98742F3
:107AC00002DA2B885B422B80FFF7C6FFB5F9000076
:107AD0000A2390FBF3F0FDF789F90A4B22785A70DC
:107AE00062789A70A278DA70FCF7D8FD31460248C5
:107AF000BDE8F8406DF086BB897A0008006200207E
:107B00006C170020C85E0020F7B504467146264871
:107B1000264D76466DF064FB6378A178227843EABF
:107B20000121E37841EA034141F31701D0072960BD
:107B30000CD51F4B1B6858789F78DB7840EA0720EC
:107B400040EA034343F3170319442960120728D579
:107B5000184801A9012241F095F810B301232B72B6
:107B6000A278637843EA0222E37842EA0342237868
:107B700042F31702DB07EA600DD40D4B1B685978FE
:107B80009878DB7841EA002141EA034343F3170385
:107B9000D21A064BDA60044831466DF033FB03B06D
:107BA000F0BD00232B72F6E7097B00083CC70020DC
:107BB00028620020F462002037B504467146394837
:107BC00075466DF00DFB2378190706D5364801A9D7
:107BD000012241F057F800283CD1A278637843EAAB
:107BE0000223E27843EA024343F3170306EE903A96
:107BF0002378DA07F8EEE67A10D42C4B1B685A7813
:107C00009978DB7842EA012242EA034343F31703FF
:107C100006EE903AB8EEE67A77EEC77A244B5A78B9
:107C20009978DB7842EA012242EA034343F31703DF
:107C300006EE103AB8EEC67AB4EEE77AF1EE10FA34
:107C400018482946D4BF002401246DF0DBFA2046F1
:107C500003B030BDA27863789FED167A43EA022321
:107C6000E27843EA024343F3170307EE903A23789E
:107C7000F8EEE77ADB0767EE877A10D40B4B1B68C8
:107C80005A789978DB7842EA012242EA034343F3C7
:107C9000170306EE103AF8EEC66AE6EEC77A9DEDD7
:107CA000017AC9E7B97B0008F4620020286200204D
:107CB000441700200AD7233C70B52DED028B0546F2
:107CC00071463448344C82B076466DF089FA6B7850
:107CD000AA7843EA0222EB7842EA03422F4B597812
:107CE0009878DB7841EA002141EA034342F3170226
:107CF00043F31703D31A63602B781B0707D5237A46
:107D00002BB1274801A9012240F0BCFF78BB254BCD
:107D10001B78033BDBB2012B21D92348FCF75AFC2B
:107D2000B0F90030002B31DD6368DFED207A1E48AA
:107D300083EAE372A2EBE37208EE102AB8EEC88A77
:107D400028EE278AFCF746FCB0F9000007EE900AFF
:107D5000F8EEE77AB4EEE78AF1EE10FA16D40D48A1
:107D600031466DF04FFA02B0BDEC028B70BD94ED60
:107D7000037ADDED016AF8EEC77A9FED0D7AE6EE43
:107D8000C77AFDEEE77AC4ED017AC0E700236360AD
:107D9000E5E700BFB97C00083CC70020441700207D
:107DA000F4620020FC100020301A00200AD7233C87
:107DB0000000C84273B5164C1648714675466DF002
:107DC0000FFA237A26462BB1134801A9012240F06D
:107DD00059FF20B93468FDF735F8241A11E094ED05
:107DE000037AD4ED046AF8EEC77A9FED0C7AE6EEDA
:107DF000877ADDED016AE6EEC77AFDEEE77A17EEE7
:107E0000904A044829466DF0FDF9204602B070BD45
:107E10003CC70020B57D0008F46200200000C84285
:107E20002DE9F0412DED028B3F4C404882B0714668
:107E300077466DF0D5F96378A07843EA0020E378BF
:107E400040EA034040F317009AF030FD34A3D3E931
:107E500000239AF091FD9BF071F8237813F0010F45
:107E600008EE100AA04623D13148FDF761FA064614
:107E700018EE100A9AF02CFD73780446B07843EAA5
:107E80000020F37840EA034040F317000D469AF0D3
:107E90000DFD23A3D3E900239AF06EFD02460B46A5
:107EA000204629469AF0B4FB9BF048F808EE100AE9
:107EB00098F800301B070AD51E4801A9012240F09E
:107EC000E1FE20B1DDED017A37EEC88A1CE0FCF757
:107ED000B9FF04461648FDF72BFA42788178C3783B
:107EE00042EA012207EE104A42EA034343F3170332
:107EF000F8EEC77A07EE103AB8EEC77A37EEC77ACF
:107F0000DFED0D7A97EE278A084839466DF07AF949
:107F1000B0EE480A02B0BDEC028BBDE8F08100BFB4
:107F20007B14AE47E17A843FC85E0020217E0008C2
:107F3000001C0020F46200200AD7233CAFF300802D
:107F4000F7B50E4604467146174877466DF048F976
:107F50006846FCF74BFC1548FCF7B6F990F9003081
:107F60009E4215D8FCF724FC864211D2F600B6B228
:107F700031460F4848F0CAFC04360090B1B20C48B4
:107F800048F0C4FC01909DE8030084E8030004E08D
:107F9000002120460A46FCF73DFC034839466DF0B7
:107FA00031F9204603B0F0BD417F0008951900204B
:107FB000B4C3002070B5714606460B4875466DF097
:107FC0000FF900240948225C1AB12044314646F0DA
:107FD0001BF8CC34B4F5197FF4D129460248BDE82A
:107FE00070406DF00FB900BFB57F00081C5F002026
:107FF00038B5074D7146284674466DF0F1F81C20DF
:10800000FFF7D8FF28462146BDE838406DF0FAB8A2
:10801000F17F000870B5164D2DED028B71460646B6
:1080200028467446B0EE408A6DF0DAF83046FFF725
:108030006BFDB0EE480ADFED0F0AB7EE001A1EF036
:10804000B1FF0D4B5B685B4207EE103AF8EEC77A62
:1080500020EE270ABDEEC00A10EE100AFCF7C6FE9D
:10806000BDEC028B28462146BDE870406DF0CAB8D1
:1080700015800008000000003CC7002070B5404893
:108080002DED028B714674466DF0AAF83D4B1B78BE
:10809000062B06D13C4B3D489E69FCF79BFA0388B2
:1080A00026E03B4D286803681B6B984710B19FED95
:1080B000398A5CE0286803681B699847364B064696
:1080C000324893ED008AFCF785FAB0F90000DFED45
:1080D000310A01EE100AB8EE488AB8EEC11AB0EEC5
:1080E000480A1EF05FFFBDEEC00A10EE103A9BB2C8
:1080F0001DB2002DDBDD2448FCF7B6FBF7EE007A5D
:10810000B4EEE70AF1EE10FAB0EE408ACFD423487D
:108110000268D2699047B6EE001A20EE010A80EE9E
:10812000081AB5EEC01AF1EE10FAC0D907EE106ABF
:1081300007EE905AB8EEC70A9FED198A194820EE4B
:10814000080AF8EEE70A40F03DFE174B5B68002B8B
:1081500005DA07EE103AF8EEC77AA7EE880ADFEDE7
:108160000D0A9FED121A1EF01DFFB0EE408A044862
:1081700021466DF047F8B0EE480ABDEC028B70BDA9
:108180007D80000806110020001C00202E1A00200F
:10819000301100200000000034C70020FCC1002086
:1081A0000AD7233CF46200203CC7002000007A4438
:1081B00070B52DED028B2B4C2B48DFED2C8A82B055
:1081C000714675466DF00CF8237A26466BB194ED36
:1081D000037ADFED277A2748B8EEC70A01A920EE17
:1081E000270A012240F09EFDF0B9234B23481B686B
:1081F0005A789C78DB7842EA042444EA03443368E2
:1082000044F317041C1BFCF7E5F90288642312FBF6
:108210000344FCF74DFB07EE104AF8EEC77AE0EE98
:10822000287ABDEEE78A13E0FFF728FFDDED017A3B
:1082300084ED040A37EE800A8DED010AFCF738FB65
:108240009DED018A30EE080A20EE288ABDEEC88A2C
:10825000054829466CF0D6FF18EE100A02B0BDECB6
:10826000028B70BD3CC70020B18100080000C842ED
:108270000AD7233CF462002028620020CA1900209B
:1082800010B57146184874466CF0AAFF1748184993
:108290001FF040F9174B184A1B78BCEEC00A0B2B95
:1082A00082ED000A154A82ED000A0CD00F2B0AD08D
:1082B0000A2B10D1FCF73EFBF3EE047AB4EEE70A8A
:1082C000F1EE10FA03DC0A48FFF776FC18B1084813
:1082D000FFF7F2FC01E0FCF7E1F921460248BDE8B6
:1082E00010406CF08FBF00BF81820008441700204F
:1082F000C85E00200611002058C1002034C70020AD
:1083000070B571461348144D74466CF069FF1348FC
:108310004FF0FF3122F008FC431C064602D1104BFF
:108320006B6110E00F4910481FF028F9301A1EF059
:10833000C1FF07EE900AB8EEE77ADFED0C7A67EE40
:10834000277AC5ED057A21460248BDE870406CF0F9
:1083500059BF00BF0183000814110020A46200204F
:108360000000B442C85E002054C600200AD7233C57
:1083700038B51048104C714675466CF031FF0F4B04
:10838000186803681B699847A268034612B1206801
:10839000181A00E0012023601EF08CFFA36894F9F6
:1083A0000C2002FB0030A06029460248BDE838409E
:1083B0006CF028BF71830008501700203011002096
:1083C000F8B507460E460E48714675466CF008FF34
:1083D00000240C48225C22B120443946324645F044
:1083E00099FECC34B4F5197FF3D13146064843F0F9
:1083F0009BFC29460248BDE8F8406CF003BF00BF73
:10840000C18300081C5F0020745E00202DE9F0434A
:10841000414C424885B0714675466CF0E1FE2368D8
:108420002746FBB93E4BD86B03681B699847B0F5EC
:10843000087F5ED30120202168F062FB06462060A1
:10844000002856D0FCF7B4F90146082068F058FB24
:10845000F0612068C6691EB968F0C8FB266048E074
:10846000FE2303742F48FBF72FFF90F90030002BF9
:108470004FF0000606DC04A92A4801F8016DFCF75C
:10848000DFF941E02748FBF71FFF90F90030F4B215
:108490009C4206F101090EDA3B6821466846D3F892
:1084A0001C80FFF74DFD9DE8030008EBC40484E841
:1084B00003004E46E6E73B68174ED8691C7008304B
:1084C000611E20F087F9A0B13368D8691A7800F1ED
:1084D0000801013A20F00CF958B93268124990703D
:1084E000012318465370FFF76BFF1420FFF762FD5E
:1084F0000AE004A9002301F8013D0C48FCF7A0F9AB
:1085000003200B49FFF75CFF044829466CF07AFE14
:1085100005B0BDE8F08300BFC46100200D840008F1
:10852000C4DB002095190020384D0A08941900205A
:10853000494D0A08F8B505460E460C487146744682
:108540006CF04EFE0A4B1A681F4612B90DB1FFF7C8
:108550005DFF3B681BB15D719E71012500E01D460A
:10856000024821466CF04EFE2846F8BD35850008CD
:10857000C4610020F8B51948194D714674466CF075
:108580002FFE1848FBF7A0FE90F90000B0B1164B83
:1085900014481E6B3368DF68FBF796FE01780139DB
:1085A0003046C9B2B84740F2D663984205D92B6825
:1085B00001201BB9FFF72AFF0AE000202B683BB11E
:1085C000DA781A719042D87002D00121FFF7B2FF19
:1085D00021460248BDE8F8406CF014BE75850008DD
:1085E000C461002096190020C4DB002070B5134D33
:1085F0001348714676466CF0F3FDFFF7BBFF2C681D
:10860000B4B11048FBF760FE90F900306BB1FCF795
:108610003DFC044648B10B48FBF756FE90F900308C
:10862000022B05D02B685C7914B92B6800249C7050
:10863000034831466CF0E6FD204670BDC461002061
:10864000ED8500089419002038B50D48714675462F
:108650006CF0C6FDFFF7CAFF044650B1094B1B681A
:1086600043B19B7833B1084B1C780F3C18BF0124F1
:1086700000E00124024829466CF0C4FD204638BDC4
:1086800049860008C46100200611002070B57146BB
:1086900004461248124E75466CF0A2FD032C15D10B
:1086A0003378032B12D00F48FBF70EFE90F9003001
:1086B000012B0BD100200221FFF73CFF10B920460F
:1086C000094901E009492046FFF77AFE347029463E
:1086D0000248BDE870406CF095BD00BF8D86000873
:1086E000FC1000209E1900205F4D0A08824D0A08E8
:1086F0002DE9FF4B2E48714675466CF071FD2D4BF0
:108700001B78002B3ED02C4B1B78002B3AD12B4BE7
:108710002B4C1B780A2B0FD12378DA0701D40220C7
:108720000BE02848FCF720F88378152B37D1237805
:108730009B0734D5042000E00120234EFFF7A6FF5D
:1087400033685F68FFF734FD204BB4F908401A68BE
:108750001F4B93F800801F4BB3F8009003928346A1
:10876000FCF7E8F80FFA89F3019330460094594674
:10877000039A4346B8474FF40060FEF743FF08B141
:10878000FCF710F9144811F069FD1448FCF724F9BE
:108790000748294604B0BDE8F04B6CF033BD0948EA
:1087A000FBF7E2FF8378152BC6D10320C5E700BF96
:1087B000F186000873170020C86100200611002010
:1087C00014110020A4620020FCC10020245E0020BF
:1087D000FC1000206462002060C1002050C700200F
:1087E00010B57146174874466CF0FAFC1648FBF752
:1087F000F1FEB0F900301548002B154BB4BFFF2235
:1088000001221A73134A0368136043685360836834
:1088100011489360114A036813604368536083688A
:108820009360FFF7D7F8FFF763FFFFF729FDFFF726
:1088300067FDFCF713F921460248BDE810406CF0D3
:10884000E1BC00BFE1870008921900204417002016
:108850005017002054C6002048C10020C85E0020E8
:1088600038B571460C4874466CF0BAFCFCF72CFE27
:108870000A4B99685A6891424FF0000505DD0120C6
:1088800007495D60FFF79CFD0125034821466CF018
:10889000B9FC284638BD00BF618800085017002089
:1088A0009F4D0A0870B5144C1448714675466CF01B
:1088B00097FCFCF709FE26695EB9114B186803683E
:1088C0001B6B984708B900240FE0FBF7EDFD206112
:1088D000F9E7FBF7E9FD23696269C01A9042F2D912
:1088E00001200849FFF76CFD0124044829466CF07B
:1088F00089FC204670BD00BF50170020A5880008E5
:1089000030110020C24D0A0838B515487146754629
:108910006CF066FCFCF7D8FD124B13481C68FBF7A3
:1089200059FEB0F90030002B05DD0F48FBF752FE71
:10893000B0F9003000E000239C4206D90B4B1868C8
:1089400003681B6B9847044620B101200849FFF7D4
:1089500037FD0124024829466CF054FC204638BDFE
:108960000989000834C700208E190020301100202A
:10897000E34D0A0870B525482DED028B714675460A
:108980006CF02EFC224B1B780A2B04D1214B1B7858
:10899000D90706D524E0052B22D11E4B1B789A0659
:1089A0001ED51D481B4CFBF78FFC90F900305BB1C6
:1089B0001A4894ED038AFBF797FCD0ED007AB4EEE9
:1089C000E78AF1EE10FA14DB2378124E9B0607D5E6
:1089D00001201349FFF7F4FC33786FF3451333702C
:1089E00000240A4829466CF00DFCBDEC028B60B2F5
:1089F00070BD0C4AB4F91030526903F57A739A428B
:108A0000E2DC0548FBF760FC0478EAE775890008BA
:108A100006110020141100201D1A0020201A002029
:108A2000F04D0A08001C0020F8B5714605461848AC
:108A300076466CF0D5FB2DB3012401201549164F65
:108A4000FFF7BEFC4FF4AF6120463C70FDF75CF8C9
:108A50004FF4C870FCF7DCFF4FF4C8612046FDF707
:108A600053F8C820FCF7D4FF204640F2DC51FDF754
:108A70004BF8013D00234FF4C8703B70EDB2FCF79A
:108A8000C7FFD8E731460248BDE8F8406CF0BABBF2
:108A9000298A0008FF4D0A08201700202DE9F84315
:108AA00071463248DFF8E080314F324C324E754625
:108AB0006CF096FB3148FCF72FF80138C0B247F054
:108AC000D5FBC8F800002D48FCF73AF80138C0B2D1
:108AD00047F0CCFB38602948FCF75AF80138C0B29F
:108AE00047F0C4FB20602548FCF73EF80138C0B2CF
:108AF00047F0BCFB41F294113060D8F8000047F019
:108B00007DF8386841F2941147F078F8306841F206
:108B1000941147F073F820680021642247F052F85E
:108B2000174810F091FF28B9154811F0D9F801281D
:108B3000074605D029460D48BDE8F8436CF062BBF6
:108B4000104B0E485E6B3368D3F82480FCF720F896
:108B5000814620680A30FBF73DFD09F1FF310288AC
:108B600007FA01F13046C047E4E700BF9D8A0008DC
:108B70006C5E00204017002094C300200262002099
:108B8000E0610020C4DB0020FC61002038B5084D06
:108B90007146284674466CF023FB46F025FE0548D6
:108BA00022F04AFD28462146BDE838406CF02ABB39
:108BB0008D8B0008B8C60020F0B52DED028B7146F4
:108BC00083B03C483C4C75466CF00AFB3B48FCF7D4
:108BD00007F806463948FCF75FF807463748FCF7C0
:108BE0008FF800285FD0BE425DDA354B1B78002B32
:108BF00059D034480FF070FDDFED337A90ED088ADC
:108C0000237B07EE106A28EE278AF8EEC77A092B35
:108C100028EE278A02D80133237301E00123237051
:108C20002378002B37D0FBF785FE284B1B7AF0EE1C
:108C3000408A53B1264801A9012240F023F858B1D7
:108C4000DDED017A37EEC88A08E02248FBF73CFBED
:108C500090F90030002BEDD138EEC88A1E4EB06B73
:108C600003689B689847A268134B801A41F28831C9
:108C7000884209D8DFED197A93ED017A28EE278A28
:108C8000DFED177AA7EE278AB06B83ED018A0368C0
:108C90009B689847A060074829466CF0B3FA03B078
:108CA000BDEC028BF0BD0023237323709FED0D8A72
:108CB000B6E700BFB98B00088CC8002004C10020B3
:108CC00000C10020001C00200AD7233C3CC7002024
:108CD000F46200202D1A0020C4DB0020CDCC4C3ED5
:108CE000CDCC4C3F0000000038B5074D71462846FA
:108CF00074466CF075FA05483BF02CFA284621467C
:108D0000BDE838406CF07EBAE98C0008686200204B
:108D100010B50A48714674466CF062FA0848FBF7D1
:108D2000D3FA90F9003013B1064812F0FDFB21464A
:108D30000248BDE810406CF065BA00BF118D000814
:108D4000041A00209017002038B5074D71462846B8
:108D500074466CF045FA05483EF06CFB2846214607
:108D6000BDE838406CF04EBA498D0008001700206D
:108D700038B50B48714675466CF032FA0024094844
:108D8000235C1BB12044084945F0EAFACC34B4F521
:108D9000197FF4D129460248BDE838406CF032BA58
:108DA000718D00081C5F0020AD8D000838B571463C
:108DB00004460F486CF014FA0E4B9D6B2B68284646
:108DC0005B6B0021012298472B680021DB69284654
:108DD00005229847084B20461C60FBF7DDFF2368FF
:108DE00020461B6C01219847044821F0BBF8FBE7A3
:108DF000AD8D0008C4DB0020F4C000202C620020F0
:108E000038B50A4D7146284674466CF0E9F9084BAE
:108E10000849186803681B6A9847074821F0A2F8B8
:108E2000284621466CF0EEF9002038BD018E00087E
:108E3000F4C000200C4E0A08A4C8002038B50A4D22
:108E40007146284674466CF0CBF9084B08491868FF
:108E500003681B6A9847074821F084F82846214692
:108E60006CF0D0F9002038BD3D8E0008F4C0002021
:108E7000184E0A087C17002038B5074D7146284661
:108E800074466CF0ADF9054821F06CF8284621468F
:108E90006CF0B8F9002038BD798E0008D45E00204F
:108EA000F7B51148714674466CF09AF90F4B1B7870
:108EB0002BB90F4B1D78003518BF012500E00225A6
:108EC0000C4EB768FBF77CFF3169009103462946D9
:108ED00009483A460DF006F80348214603B0BDE8BC
:108EE000F0406CF08FB900BFA18E0008731700200E
:108EF000061100209062002068C60020F8B5714677
:108F000006464C484C4C75466CF06AF94B484C4B45
:108F100007784C4AC7F3C00EBEF1000F0AD0216893
:108F200019606168596007F0F707A168996047F018
:108F3000100707E0116819605168596091689960DD
:108F40006EF304173168116071685160B168916007
:108F5000516807703B4B31BB996821BB6168596010
:108F6000A168987899605978334E41EA0021D87801
:108F700041EA004141F31701A9B9B478707840EA99
:108F80000420F47840EA044040F31700C0F30724BB
:108F90005870C0F30740D87018789C7061F30000D7
:108FA00061F3C30018701278264BD1071ED56FF3FA
:108FB000000298781A705A7842EA0020DA7840EA7B
:108FC0000240214A11684A788C78C97842EA042222
:108FD00042EA014240F3170042F317020244C2F38F
:108FE00007215A70C2F307429970DA70124E144C7E
:108FF000144A304621461EF007FB48B101201349B0
:10900000FFF7DEF93368236073686360B368A360B9
:109010000C48FEF779FDFBF721FDFFF731F9FFF76B
:109020006FF9FBF71BFD29460248BDE8F8406CF0DC
:10903000E9B800BFFD8E000844170020141100207D
:1090400054C60020C85E002028620020E64E0A08B0
:1090500070B5184E04467146304675466CF0C0F83F
:10906000601DFFF74BFFB4F80330134A03EB830393
:1090700003EB83039B001381104B9878597841EAE6
:109080000021D87841EA004141F3170151600C49B1
:109090000968486889680A300A315860996013780D
:1090A0006FF30003137030462946BDE870406CF042
:1090B000A9B800BF5190000814110020C85E00201C
:1090C0002862002070B5084D714606462846744651
:1090D0006CF086F8701DFFF711FF28462146BDE8A9
:1090E00070406CF08FB800BFC590000870B5084D97
:1090F00071460646284674466CF072F8701DFFF7FC
:10910000FDFE28462146BDE870406CF07BB800BFEC
:10911000ED90000870B5094E71460446304675461C
:109120006CF05EF8601DFFF7E9FE2046FDF7F0FCED
:1091300030462946BDE870406CF064B815910008CF
:1091400070B50D4E04467146304675466CF048F8D1
:10915000601DFFF7D3FEB4F8032048F6A043D2B257
:109160005A43064B20465A60FDF7D2FC304629464A
:10917000BDE870406CF046B84191000850170020DF
:1091800070B50E4E04467146304675466CF028F8B0
:10919000601DFFF7B3FE0A4B00221A61B4F80320EA
:1091A0004FF47A714A4320465A61FDF7B1FC3046CC
:1091B0002946BDE870406CF025B800BF81910008D9
:1091C0005017002070B53D4C3D482DED028B714687
:1091D00076466CF005F82378DBB93A4B1B68B3F997
:1091E0000230B3B9384B1B68B3F902308BB937483A
:1091F000FBF7C0F901280CD93448FBF7EDF8F0EE85
:10920000087AB4EEE70AF1EE10FA02DBA368002B4D
:109210003BD0A368294D4BB12D4B986B03689B68DD
:109220009847AB68C01AB0F5FA7F35D8237823B3D6
:10923000284D294C2B6823606B686360AB68A36082
:109240001E4BDFED267A93ED018A2549B8EEC88AD8
:10925000284628EE278A1EF05DF9DFED220A204617
:1092600070EE200AB0EE480A1EF054FA1E4B186841
:10927000036829461B6A22469847BDEC028B31469B
:109280000F48BDE870406BF0BDBF114B986B036891
:109290009B689847A060BCE701232B700B48002314
:1092A000AB60FCF767F90E490A4A0B6813604B681C
:1092B00053608B6868609360B8E700BFA8C6002061
:1092C000C5910008FC61002094C30020B8C30020B1
:1092D000C4DB002054C60020C85E00200AD7233C0F
:1092E0004417002000007A443011002070B5054674
:1092F0000C461448714676466BF072FF6B78AA787C
:10930000A17843EA0222EB7842EA0342637843EA17
:109310000123E1780C4C43EA014342F3170243F383
:1093200017039A42D8BF11462068CCBF19461A4687
:109330001DF0D6FD206031460248BDE870406BF05C
:1093400061BF00BFED9200083CC70020F0B52DEDD5
:10935000028B414F414D424C85B0714638467646AE
:109360006BF03EFF2868696801AB03C3A86818600A
:10937000294620461EF002F96B78AA78A178DFED25
:10938000397ADFED390A43EA0222EB7842EA0342F6
:10939000637843EA0123E17843EA014342F3170289
:1093A00043F31703D31A07EE103A304BB8EEC77ADF
:1093B00093ED008A27EE277AB8EE488A87EE088A6E
:1093C00007EE100AB8EEC70A01A820EE270A1EF021
:1093D000A1F9019BA178264843F3172307EE103A21
:1093E000F8EEC77A9FED237AE8EE077AFDEEE77A8A
:1093F00017EE903A43F31703C3F307228DF80620C4
:10940000C3F307428DF8072062788DF8053042EAF1
:109410000122E17842EA014242F317029B1A164AFE
:1094200001A953601EF076F801A92046B0EE408AEB
:109430001EF070F888EE000A01A8FEF7EBFD01A807
:109440002146FFF753FF384631466BF0DBFE05B08F
:10945000BDEC028BF0BD00BF4D930008C85E00203C
:1094600054C600200AD7233C0000FA4358C100200C
:1094700044170020005043473CC7002070B52B48DC
:10948000714674466BF0ACFE294B1B78063BDBB291
:10949000012B3DD9274B1B78042B03D12648FEF71F
:1094A00033FB31E0032B02D1FFF750FF2CE0234BBD
:1094B000186803681B6B98470028EFD1204E33686B
:1094C0001E2BEBD91F4D2B681E2BE7D91E4B5B685B
:1094D00023B31E481E49184A1EF096F8F0B93368A7
:1094E00015481E3B07EE103A2B681E3BB8EE470AA4
:1094F00007EE103AF8EE477A80EE270AFEF78AFD6B
:109500000D481349FFF7F2FEFEF754FC114B1860AB
:1095100021460648BDE870406BF074BE0E48FBF76C
:109520007FFC8378712BB9D1EEE700BF7D940008F2
:1095300006110020FC100020C85E00203011002021
:1095400034C7002058C100203CC700204417002029
:1095500054C6002050C60020A462002070B50C4DF7
:109560000C4E7146284674466BF03AFE0A4B18685A
:1095700003681B689847094B30601A6851421DF018
:10958000AFFC214630602846BDE870406BF03ABE23
:109590005D9500081817002030110020FCC0002045
:1095A0002DE9F0410F4D104E7146284674466BF080
:1095B00017FE0E480368DB6898470D4B306007467E
:1095C0000C48D3F80080FCF749F94146B0F9002077
:1095D00038461DF085FC214630602846BDE8F04144
:1095E0006BF010BEA195000828C70020FCC1002028
:1095F000CC610020A0C3002038B5084D7146284634
:1096000074466BF0EDFD0648064942F0A9FC284679
:109610002146BDE838406BF0F5BD00BFF995000864
:10962000745E002060C1002070B5084D714606468A
:10963000284674466BF0D4FD06F137003CF078FA0A
:1096400028462146BDE870406BF0DCBD2996000835
:10965000F8B50B4F04467146384676466BF0C0FDB0
:1096600094F89410204601F0030116F0A1FD044681
:109670000D46384631466BF0C5FD20462946F8BDFB
:109680005196000810B50C48714674466BF0A8FD61
:109690000A4811F0EDFB4FF48050FDF7B3FF28B1FD
:1096A00007480849084A094B42F0BAF821460248DF
:1096B000BDE810406BF0A6BD85960008086200204A
:1096C000745E0020001C0020B8C300204417002056
:1096D00038B50B4D7146284674466BF081FD09483C
:1096E000FBF7A0FF014608480EF064FF074810F0A2
:1096F0000BFC28462146BDE838406BF083BD00BF17
:10970000D1960008B8C30020001C002060C10020D2
:1097100070B5094E71460446304675466BF060FDE3
:1097200020461FF055FB20461FF056FA30462946CA
:10973000BDE870406BF066BD1197000810B52DEDC7
:10974000028B234884B0714674466BF049FD214872
:10975000FAF710FF012833D91F480FF08FF91E4880
:109760008DED000ACDED010A0EF0B6FF034693ED34
:10977000000AD3ED030A02A8FBF76CFF02A8FFF76B
:10978000C7FF02A869461FF0E3F91448B0EE408A0B
:10979000FAF754FE0368002B0FDD1048FAF74EFE6F
:1097A000D0ED007A9FED0E7AF8EEE77AE8EE477A90
:1097B000FDEEE77A17EE903A00E00023094A1360C5
:1097C000034821466BF01EFD04B0BDEC028B10BDBA
:1097D0003D970008B8C30020001C0020FC190020A1
:1097E0000000C8422CC700202DE9FF4B2A487146D3
:1097F00077466BF0F5FCFCF7F3FC4FF47A70FCF75E
:1098000009FD00246420FCF705FD2448244E13F0D4
:1098100007FA2248FBF7DAFEA042054627D01F4888
:10982000FBF7D4FE05461D48FBF7FCFED6F800808A
:109830008178D8F80030C478D3F820904378D0F8F5
:1098400008B042681548039243EA012343EA0444FE
:1098500044F31704642394FBF3F4FCF785FD0094B0
:1098600001901049039A40465B46C84704E03068BF
:109870000D4903681B6A9847306803689B689847DE
:10988000002801DC2C46BDE7034839466BF0BAFCE2
:10989000002004B0BDE8F08BE9970008B8C30020B1
:1098A000F4C00020F84E0A0897560A082DE9E8414E
:1098B000144E71468046304675466BF091FC124B53
:1098C00012485A789F78DB7842EA072747EA03472D
:1098D000FBF72EFD827843780D4943EA0223C278D4
:1098E0000C4843EA024347F3170743F31703424682
:1098F000FB1A41F0CFFB30462946BDE8E8416BF04A
:1099000081BC00BFAD98000844170020001C002057
:10991000B8C30020745E0020F8B51648714676463C
:109920006BF05EFC144813F07BF900251248FBF73E
:10993000ADFEECB2844217D20F48104F2146FBF720
:1099400031FE57F8243098420CD00B482146FBF7E3
:1099500029FE47F824000420FDF754FE10B12046EC
:10996000FFF7A4FF0135E1E731460248BDE8F840C2
:109970006BF048BC19990008B8C30020ACC30020A4
:109980002DE9F04171462DED028B80463448764634
:109990006BF026FC3348FAF797FC334B04781B78BE
:1099A0000A2B0AD1314B1B78DB0706D43048FAF773
:1099B0008BFC90F90030002B4DD1002C43D02D4D65
:1099C0002D4B286893ED008A0E30FAF703FEB0F9AC
:1099D000007028680A30FAF7FDFD06EE904ADFEDC8
:1099E000277AB0F900302C68B8EEE67A68EE277A6C
:1099F000FB1A67EE877A07EE103AB8EEC77AF7EEF1
:109A0000006AB0EEC77A67EE877AB4F90800F4EE20
:109A1000667AF1EE10FA48BFF0EE667A06EE908AAA
:109A2000B8EEE67A77EE676A77EE877AFDEEE66A59
:109A3000FDEEE77A16EE901A17EE902A09B212B2EE
:109A40001DF036FA2081BDEC028B31460448BDE89A
:109A5000F0416BF0D7BB0648FAF736FC0478ACE768
:109A6000819900089AC300200611002014110020DB
:109A7000281A002040170020000000200AD7233CAD
:109A80002DE9F04B17468846834671462C487646AA
:109A90006BF0A6FBB8F800903C882A48A9F2DC5984
:109AA000A4F2DC540FFA89F924B2FAF71DFCC4EBD6
:109AB000090307EE903A90ED007A2248F8EEE77A33
:109AC0004C4467EE877AFDEEE77A17EE905AFAF784
:109AD0000BFC07EE904A90ED007AF8EEE77AADB213
