:020000040800F2
:10400000441D0120C58107080189070801890708A7
:10401000018907080189070801890708018907083C
:10402000018907080189070801890708018907082C
:10403000018907080189070801890708018907081C
:10404000018907080189070801890708018907080C
:1040500001890708018907080189070801890708FC
:1040600001890708018907080189070801890708EC
:1040700001890708018907080189070801890708DC
:1040800001890708018907080189070801890708CC
:1040900001890708018907080189070801890708BC
:1040A00001890708018907080189070801890708AC
:1040B000018907080189070801890708018907089C
:1040C000018907080189070801890708018907088C
:1040D000018907080189070801890708018907087C
:1040E000018907080189070801890708018907086C
:1040F000018907080189070801890708018907085C
:10410000018907080189070801890708018907084B
:10411000018907080189070801890708018907083B
:10412000018907080189070801890708018907082B
:10413000018907080189070801890708018907081B
:10414000018907080189070801890708018907080B
:1041500001890708018907080189070801890708FB
:1041600001890708018907080189070801890708EB
:1041700001890708018907080189070801890708DB
:10418000018907080189070870B5064D7446714614
:104190000646284674F074FE2846214674F082FED6
:1041A000304670BD8941000838B5064D74467146E9
:1041B000284674F065FE2846214674F073FE002000
:1041C00038BD00BFA941000838B5064D74462846E1
:1041D000714674F055FE28462146BDE8384074F01B
:1041E00061BE00BFC941000870B5074D0646714663
:1041F0002846744674F044FE96F8816128462146AC
:1042000074F050FE304670BDE9410008F8B5084D25
:10421000064674460F462846714674F031FE86F80D
:10422000E17028462146BDE8F84074F03BBE00BF6F
:104230000D420008F8B5084D064674460F4628465C
:10424000714674F01DFE86F8807128462146BDE84F
:10425000F84074F027BE00BF35420008F8B50446A8
:1042600071460E4804F13206754674F009FE304678
:10427000676CFFF789FF01783846FFF7C7FFA46B2B
:1042800034B13046FFF780FF01782046FFF7D2FFB8
:1042900029460248BDE8F84074F004BE5D420008BB
:1042A00070B5084D714606462846744674F0E8FD20
:1042B0003046FFF7D3FF28462146BDE8704074F032
:1042C000F1BD00BFA142000870B5064D74467146AD
:1042D0000646284674F0D4FD2846214674F0E2FDD7
:1042E000304670BDC9420008F8B5094D06460F4674
:1042F00028467146744674F0C3FD737B67F344032C
:10430000737328462146BDE8F84074F0CBBD00BF6A
:10431000E942000870B5064D7446714606462846C7
:1043200074F0AEFD2846214674F0BCFD304670BDE9
:104330001543000870B5074D064671462846744679
:1043400074F09EFD96F808612846214674F0AAFD97
:10435000304670BD3543000870B5084D71460646BD
:104360002846744674F08CFD3046FFF7ADFF0678A2
:104370002146284674F096FD304670BD594300082A
:1043800070B5074D744671460646284674F078FDB0
:104390002846214674F086FD06F1580070BD00BF26
:1043A0008143000838B5714604460C48754674F0E0
:1043B00067FDE01EC0B20D2808D80123834042F2F9
:1043C0001F101840041C18BF012400E000240348FB
:1043D000294674F067FD204638BD00BFA54300089C
:1043E00070B5074D744671460646284674F048FD80
:1043F0002846214674F056FD06F1680070BD00BFE6
:10440000E143000870B5074D7446714606462846DC
:1044100074F036FD2846214674F044FD06F18C0008
:1044200070BD00BF0544000870B5074D7446714665
:104430000646284674F024FD2846214674F032FDD5
:1044400006F1B00070BD00BF2944000870B5074DEB
:10445000064671462846744674F012FD044B1E60F1
:1044600028462146BDE8704074F01CBD4D4400084C
:10447000A8DA002070B5084D0646714628467446F5
:1044800074F0FEFC767B284606F00106214674F0A7
:1044900009FD304670BD00BF7544000870B50A4D77
:1044A0002DED028B714606462846744674F0E8FCF2
:1044B00096ED078A2846214674F0F4FCB0EE480ACF
:1044C000BDEC028B70BD00BF9D44000870B50A4D65
:1044D0002DED028B714606462846744674F0D0FCDA
:1044E00096ED098A2846214674F0DCFCB0EE480AB5
:1044F000BDEC028B70BD00BFCD44000870B50A4D05
:104500002DED028B714606462846744674F0B8FCC1
:1045100096ED0A8A2846214674F0C4FCB0EE480A9B
:10452000BDEC028B70BD00BFFD44000870B5094DA5
:10453000064671462846744674F0A2FC367906F0A9
:104540000306F31E5E425E412846214674F0AAFC33
:10455000304670BD2D450008F8B50746074D0E469C
:104560003E4471462846744674F08AFC767B2846A1
:10457000214674F097FC3046F8BD00BF594500084D
:1045800070B5064D744671460646284674F078FCB0
:104590002846214674F086FC304670BD81450008EF
:1045A000F8B50A4D06460F4628467146744674F023
:1045B00067FC0C2303FB07602C30FFF7E1FF21466B
:1045C0000646284674F06EFC3046F8BDA14500084A
:1045D00070B50B4E044671463046754674F050FC7B
:1045E000236820461B69984701462046FFF7D8FFFD
:1045F00029460446304674F055FC204670BD00BF85
:10460000D1450008F8B5084D744606460F462846C1
:10461000714674F035FC2846214674F043FC0C23A7
:1046200003FB07601030F8BD0546000870B50B4E5F
:10463000044671463046754674F022FC23682046D5
:104640001B69984701462046FFF7DCFF29460446D0
:10465000304674F027FC204670BD00BF2D46000890
:1046600070B5084D064671462846744674F008FC3D
:1046700036792846C6F34006214674F013FC3046CE
:1046800070BD00BF61460008F8B5094D0F460646EB
:1046900071462846744674F0F3FB382303FB076623
:1046A0002846767F214674F0FDFB3046F8BD00BFFA
:1046B0008946000870B50A4D06467146284674467C
:1046C00074F0DEFB96F89410304601F00301FFF71A
:1046D000DBFF21460646284674F0E4FB304670BDF9
:1046E000B546000838B512487146744674F0C8FBE8
:1046F000104B1B78D80714D50F48FFF7DBFF0228B3
:104700000FD90E48FFF7ACFF58B90D4B1B781907AE
:1047100007D40C4A5278D20703D49B0601D4012552
:1047200000E000250248214674F0BCFB284638BD55
:10473000E54600080C1D00203C800020E41C002001
:10474000081F0020FC120020F8B5094D0F46064650
:1047500071462846744674F093FB382307FB0333F5
:104760001E442846B688214674F09CFB3046F8BDAE
:104770004947000870B50A4D0646714628467446FA
:1047800074F07EFB96F89410304601F00301FFF7B9
:10479000DBFF21460646284674F084FB304670BD98
:1047A00075470008F8B5084D744606460F4628467A
:1047B000714674F065FB2846214674F073FB0C23A8
:1047C00003FB07600430F8BDA547000870B50B4E29
:1047D000044671463046754674F052FB2368204605
:1047E000DB6C984701462046FFF7DCFF294604466C
:1047F000304674F057FB204670BD00BFCD4700081F
:10480000F8B5084D744606460F462846714674F0C2
:1048100037FB2846214674F045FB0C2303FB076059
:104820004C30F8BD0148000870B50B4E0446714687
:104830003046754674F024FB236820461B6D98476C
:1048400001462046FFF7DCFF29460446304674F057
:1048500029FB204670BD00BF2948000870B5064DF1
:10486000744671460646284674F00AFB28462146DF
:1048700074F018FB304670BD5D48000870B5064DF9
:10488000744671460646284674F0FAFA28462146D0
:1048900074F008FB304670BD7D48000870B50B4DC4
:1048A0002DED028B714606462846744674F0E8FAF0
:1048B0003046FFF7E3FF90ED008A2146284674F06A
:1048C000F1FAB0EE480ABDEC028B70BD9D480008BD
:1048D00038B5714604460B48754674F0D1FA0D2C74
:1048E00009D8012303FA04F442F6030323401C1CF5
:1048F00018BF012400E000240248294674F0D2FACF
:10490000204638BDD148000870B5084D06467146AE
:104910002846744674F0B4FA337C43F01C033374B5
:1049200028462146BDE8704074F0BCBA0949000829
:1049300070B50B4D714606462846744674F0A0FAD1
:1049400006F10C00FFF7C0FC90F90060003618BFBC
:1049500001262846214674F0A5FA304670BD00BFF6
:1049600031490008F8B5084D0F46064671462846FD
:10497000744674F085FA3B68336028462146BDE8EA
:10498000F84074F08FBA00BF65490008F7B50A4EC9
:1049900002AC24ED010A714607463046754674F0B4
:1049A0006FFA38462146FFF7DDFF3046294674F09E
:1049B00079FA03B0F0BD00BF8D490008F7B50A4E83
:1049C00002AC24ED010A714607463046754674F084
:1049D00057FA381D2146FFF7C5FF3046294674F0C7
:1049E00061FA03B0F0BD00BFBD490008F7B50A4E3B
:1049F00002AC24ED010A714607463046754674F054
:104A00003FFA07F108002146FFF7ACFF3046294680
:104A100074F048FA03B0F0BDED490008F7B50A4E4E
:104A200002AC24ED010A714607463046754674F023
:104A300027FA38462146FFF795FF3046294674F09D
:104A400031FA03B0F0BD00BF1D4A000870B50B4D30
:104A50002DED028B714606462846744674F010FA16
:104A60003046FFF70BFF90ED008A2146284674F090
:104A700019FAB0EE480ABDEC028B70BD4D4A000831
:104A800070B50B4D2DED028B7146064628467446D7
:104A900074F0F6F9301DFFF7F1FE90ED008A214623
:104AA000284674F0FFF9B0EE480ABDEC028B70BDE9
:104AB000814A000870B50C4D2DED028B71460646FB
:104AC0002846744674F0DCF906F10800FFF7D6FEBC
:104AD00090ED008A2146284674F0E4F9B0EE480AC9
:104AE000BDEC028B70BD00BFB54A0008F8B50A4D99
:104AF00006460F4628467146744674F0C1F996F88A
:104B0000363067F3410386F8363028462146BDE843
:104B1000F84074F0C7B900BFED4A0008F8B5074D7A
:104B2000064674460F462846714674F0A9F9777216
:104B300028462146BDE8F84074F0B4B91D4B000882
:104B4000F8B50A4D06460F4628467146744674F07D
:104B500097F996F8363067F3C30386F8363028465F
:104B60002146BDE8F84074F09DB900BF414B0008F4
:104B7000F8B50A4D06460F4628467146744674F04D
:104B80007FF996F8363067F3451386F836302846B5
:104B90002146BDE8F84074F085B900BF714B0008AC
:104BA00038B5074D71462846744674F069F90548D2
:104BB000FFF70AFB28462146BDE8384074F072B979
:104BC000A14B0008107E002070B5094D71462846A3
:104BD000744674F055F9074B986B03689B689847C7
:104BE00021460646284674F05DF9304670BD00BF88
:104BF000C94B0008F8D8002070B5094D064671462B
:104C00002846744674F03CF9064B1A7866F3041291
:104C10001A7028462146BDE8704074F043B900BFC1
:104C2000F94B0008081F002070B50C4D2DED028BCC
:104C3000714606462846744674F022F906F12400AF
:104C4000FFF70CFE90ED008A2146284674F02AF901
:104C5000B0EE480ABDEC028B70BD00BF294C0008C5
:104C600038B5064D74467146284674F009F9284651
:104C7000214674F017F9012038BD00BF614C0008CF
:104C800070B50A4D2DED028B0646B0EE408A2846DF
:104C90007146744674F0F4F886ED1C8ABDEC028B04
:104CA00028462146BDE8704074F0FCB8814C0008ED
:104CB00038B5084D71462846744674F0E1F89FED0A
:104CC000060A0648FFF7DCFF2846214674F0EAF89A
:104CD000012038BDB14C0008000000000C7F00200E
:104CE00070B5094D714606462846744674F0C8F8FA
:104CF00006F10800FFF70EFB06882146284674F0EF
:104D0000D1F8304670BD00BFE14C000870B50C4DC5
:104D10002DED028B714606462846744674F0B0F8B5
:104D200006F11800FFF79AFD90ED008A214628460B
:104D300074F0B8F8B0EE480ABDEC028B70BD00BF4D
:104D40000D4D000870B50C4D2DED028B71460646D9
:104D50002846744674F094F806F12800FFF78EFD9B
:104D600090ED008A2146284674F09CF8B0EE480A7F
:104D7000BDEC028B70BD00BF454D000870B5084EFC
:104D8000044671463046754674F07AF80023304682
:104D9000A36063602360294674F084F8204670BDE8
:104DA0007D4D000870B50C4D2DED028B7146064609
:104DB0002846744674F064F806F12000FFF74EFDB3
:104DC00090ED008A2146284674F06CF8B0EE480A4F
:104DD000BDEC028B70BD00BFA54D000870B50C4D39
:104DE0002DED028B714606462846744674F048F84D
:104DF00006F11C00FFF732FD90ED008A214628469F
:104E000074F050F8B0EE480ABDEC028B70BD00BFE4
:104E1000DD4D000870B50C4D2DED028B7146064638
:104E20002846744674F02CF806F12C00FFF716FDA6
:104E300090ED008A2146284674F034F8B0EE480A16
:104E4000BDEC028B70BD00BF154E000870B5104E52
:104E50002DED028B714604463046754674F010F80D
:104E600004F10800FFF7FAFC90ED008A04F110004D
:104E7000FFF7F4FCD0ED007A38EE678A3046294619
:104E800074F010F8B0EE480ABDEC028B70BD00BFA4
:104E90004D4E000870B5074D7446714606462846CB
:104EA00073F0EEFF2846214673F0FCFF06F19C00EC
:104EB00070BD00BF954E0008F8B5094D06460F4677
:104EC00028467146744673F0DBFF337867F341037D
:104ED000337028462146BDE8F84073F0E3BF00BFB9
:104EE000B94E000838B5714605460748744673F058
:104EF000C7FFFFF7F7FB2146002818BF0546024809
:104F000073F0D0FF284638BDE54E000870B5084D57
:104F1000064671462846744673F0B2FF002373605C
:104F2000336028462146BDE8704073F0BBBF00BF28
:104F30000D4F000838B523487146744673F0A0FF42
:104F4000214B93ED000AB5EE400AF1EE10FA33D092
:104F50001E4DD5ED007AF5EE407AF1EE10FA2BD029
:104F60001B48FFF713FD1B4B194893ED000AFFF791
:104F700025FD194B164893ED000AFFF737FD174B37
:104F8000174893ED000AFFF749FD164895ED000A12
:104F9000FFF7FCFC144B134893ED000AFFF70EFDDE
:104FA000124B104893ED000AFFF720FD104B1148FB
:104FB00093ED000AFFF732FD21460248BDE8384074
:104FC00073F070BF354F0008A87E0020081D002038
:104FD000B0160020C87D0020C07D0020C8830020BE
:104FE000B8170020D0160020E01900202C1D00204A
:104FF0009C120020BC170020F8B5094D06460F464C
:1050000028467146744673F03BFF337967F300031B
:10501000337128462146BDE8F84073F043BF00BF16
:10502000F94F000870B5074D06467146284674468C
:1050300073F026FF36782846214673F033FF30465A
:1050400070BD00BF25500008F8B5084E0F46044655
:1050500071463046754673F013FF3B882380304617
:10506000294673F01FFF2046F8BD00BF49500008D5
:1050700070B50A4D2DED028B0646B0EE408A2846EB
:105080007146744673F0FCFE86ED048ABDEC028B1B
:1050900028462146BDE8704073F004BF71500008F7
:1050A000F8B50E4D0E4E714607462846744673F00D
:1050B000E7FE06F14E00FFF72DF9B0F90030FB1ABC
:1050C00000EE103A06F53C70B8EEC00AFFF7D0FFCC
:1050D00028462146BDE8F84073F0E4BEA150000820
:1050E00064140020F8B5084E0F4604467146304659
:1050F000754673F0C5FE3B6823603046294673F061
:10510000D1FE2046F8BD00BFE5500008F7B50A4EB5
:1051100002AC24ED010A714607463046754673F02D
:10512000AFFE214607F11400FFF7DCFF30462946A9
:1051300073F0B8FE03B0F0BD0D510008F8B5084E8D
:105140000F46044671463046754673F099FE3B782B
:1051500023703046294673F0A5FE2046F8BD00BFF7
:105160003D510008F7B50A4E02AC24ED010A714624
:1051700007463046754673F083FE214607F12C0042
:10518000FFF7B0FF3046294673F08CFE03B0F0BD48
:105190006551000870B50E4E2DED048B0446B0EE3F
:1051A000409AF0EE608AB0EE418A7546714630460C
:1051B00073F066FE84ED009AC4ED018A84ED028AE4
:1051C0003046294673F06EFEBDEC048B204670BD60
:1051D0009551000870B5084D06467146284674463C
:1051E00073F04EFE36792846C6F34006214673F02A
:1051F00059FE304670BD00BFD551000870B5044659
:105200000E460B487146754673F03AFE94F84030EE
:105210000748C3F381039E42B6BF04EBC6040024D3
:1052200094F82C40294673F03DFE204670BD00BF27
:10523000FD51000870B50A4D064671462846744671
:1052400073F01EFE96F84010304601F00301FFF7A0
:10525000D5FF21460646284673F024FE304670BD31
:1052600035520008F8B50F46074D064606EBC7064F
:1052700071462846744673F003FE368D2846214653
:1052800073F010FE3046F8BD6552000870B50A4D47
:10529000064671462846744673F0F2FD96F84010B3
:1052A000304601F00301FFF7DDFF214606462846A0
:1052B00073F0F8FD304670BD8D520008F8B50A4D08
:1052C00006460F4628467146744673F0D9FD06EB34
:1052D00047001E30FFF71EF806882146284673F067
:1052E000E1FD30B2F8BD00BFBD52000870B50A4DF7
:1052F000064671462846744673F0C2FD96F8401083
:10530000304601F00301FFF7D9FF21460646284643
:1053100073F0C8FD304670BDED520008F8B50A4D77
:1053200006460F4628467146744673F0A9FD06EB03
:1053300047002230FEF7EEFF06882146284673F02C
:10534000B1FD30B2F8BD00BF1D53000870B50A4D65
:10535000064671462846744673F092FD96F8401052
:10536000304601F00301FFF7D9FF214606462846E3
:1053700073F098FD304670BD4D53000870B5074D71
:10538000064671462846744673F07AFDB6F8946076
:105390002846214673F086FD30B270BD7D5300086B
:1053A00070B50A4D2DED028B7146064628467446AF
:1053B00073F066FD96ED1C8A2846214673F072FD57
:1053C000B0EE480ABDEC028B70BD00BFA1530008CF
:1053D00070B50A4D2DED028B71460646284674467F
:1053E00073F04EFD96ED2C8A2846214673F05AFD47
:1053F000B0EE480ABDEC028B70BD00BFD15300086F
:1054000070B50A4D2DED028B71460646284674464E
:1054100073F036FD96ED2F8A2846214673F042FD43
:10542000B0EE480ABDEC028B70BD00BF015400080D
:10543000F8B5084D744606460F462846714673F087
:105440001FFD2846214673F02DFD382303FB07601E
:105450002630F8BD3154000870B50A4D0646714635
:105460002846744673F00CFD96F89410304601F00F
:105470000301FFF7DDFF21460646284673F012FDC3
:10548000304670BD59540008F8B5084D06467446BC
:105490000F462846714673F0F3FC86F828702846BC
:1054A0002146BDE8F84073F0FDBC00BF89540008F8
:1054B000F8B50A4D06460F4628467146744673F005
:1054C000DFFC0C2303FB0760BC30FFF759F82146D3
:1054D0000646284673F0E6FC3046F8BDB154000895
:1054E00070B50B4E044671463046754673F0C8FCE5
:1054F000236820461B6D984701462046FFF7D8FFDA
:1055000029460446304673F0CDFC204670BD00BFEE
:10551000E15400082DE9FF4BDFF8648071464046F6
:10552000774673F0ADFC1348FFF7DAFF124B0646DF
:105530000068D3F80090A0F07FFC04467068D9F8AA
:1055400000B00D46A0F078FCCDE90001B068A0F0F5
:1055500073FCCDE9020122464846DBF8206007498A
:105560002B46B0474046394604B0BDE8F04B73F0D7
:1055700099BC00BFD0170020E07E002014830A08E9
:1055800015550008F8B50A4D06460F4628467146DF
:10559000744673F075FC0C2303FB07609830FEF72C
:1055A000EFFF21460646284673F07CFC3046F8BDE6
:1055B0008555000870B50B4E044671463046754659
:1055C00073F05EFC23682046DB6C9847014620465A
:1055D000FFF7D8FF29460446304673F063FC2046A7
:1055E00070BD00BFB5550008F8B50A4D06460F4618
:1055F00028467146744673F043FC0C2303FB076096
:105600007430FEF7BDFF21460646284673F04AFC7B
:105610003046F8BDE955000870B50B4E044671469A
:105620003046754673F02CFC23682046DB6C9847A7
:1056300001462046FFF7D8FF29460446304673F05E
:1056400031FC204670BD00BF195600082DE9F04B13
:10565000DFF89090204C8CB071464846F04673F0CD
:105660000FFC2046FFF7A6FF07462046FFF7D4FFB2
:105670001A4BD3F800B00646DBF8003038680B93BD
:10568000A0F0DAFB044678680D46A0F0D5FBCDE922
:105690000001B868A0F0D0FBCDE902013068A0F0AD
:1056A000CBFBCDE904017068A0F0C6FBCDE9060193
:1056B000B068A0F0C1FBCDE908010B9B08491E6A48
:1056C000584622462B46B047484641460CB0BDE8F6
:1056D000F04B73F0E7BB00BFD0170020E07E002046
:1056E00030830A084D56000870B5084D71460646CD
:1056F0002846744673F0C4FB3046FEF7E5FD067895
:105700002146284673F0CEFB304670BDE9560008AE
:1057100070B5084D714606462846744673F0B0FBD6
:10572000701CFEF7D1FD06782146284673F0BAFBBF
:10573000304670BD1157000870B5084D71460646D9
:105740002846744673F09CFBF01CFEF7BDFD0678FE
:105750002146284673F0A6FB304670BD3957000835
:1057600070B5084D714606462846744673F088FBAE
:10577000B01CFEF7A9FD06782146284673F092FB7F
:10578000304670BD6157000870B5094D7146064638
:105790002846744673F074FB064B986B0268B1B2EE
:1057A0005268904728462146BDE8704073F07ABBA6
:1057B00089570008F8D8002038B5714604460A48D1
:1057C000754673F05DFBB4F5966F05DBB4F5E16FDC
:1057D000D4BF0124022400E000240348294673F0CA
:1057E00061FB204638BD00BFB9570008F7B50A4D28
:1057F00006460F4628467146744673F041FB02A9DF
:10580000301D01F8017DFFF799FC2846214673F011
:1058100049FB03B0F0BD00BFED57000838B515488F
:105820007146754673F02CFB134BB3F9F03040F220
:10583000CE42934211DDB3F5AA6F10DD40F2D25291
:1058400093420EDD40F2546293420CDD40F2D56487
:10585000A342CCBF0524042406E0002404E0012474
:1058600002E0022400E003240248294673F01AFBF8
:10587000204638BD1D58000864140020F8B5084DB6
:105880000F46064671462846744673F0F9FA3B788F
:10589000337028462146BDE8F84073F003BB00BFD3
:1058A0007D580008F7B50A4D06460F462846714652
:1058B000744673F0E5FA02A906F1350001F8017D9E
:1058C000FFF7DCFF2846214673F0ECFA03B0F0BD89
:1058D000A558000870B50A4D71460646284674461C
:1058E00073F0CEFA3046FEF7EFFC90F90060003618
:1058F00018BF01262846214673F0D4FA304670BD01
:10590000D558000870B5084D7146064628467446BD
:1059100073F0B6FAB01DFEF7FDFC06882146284656
:1059200073F0C0FA30B270BD05590008F7B50A4DE2
:1059300006460F4628467146744673F0A1FA02A93E
:1059400006F1500001F8017DFFF7F8FB28462146DB
:1059500073F0A8FA03B0F0BD2D59000870B5084DDA
:10596000714606462846744673F08AFA3046FEF7BA
:10597000ABFC06782146284673F094FA70B270BDED
:105980005D59000838B571462DED028B04460C4870
:105990007546B0EE408A73F073FA04F5A470FEF712
:1059A00093FC90F900300648022B08BF84ED5F8A13
:1059B000BDEC028B2946BDE8384073F073BA00BFD6
:1059C0008559000838B571462DED028B04460C4808
:1059D0007546B0EE408A73F053FA04F5A470FEF7F2
:1059E00073FC90F900300648012B08BF84ED5F8AF4
:1059F000BDEC028B2946BDE8384073F053BA00BFB6
:105A0000C5590008F8B5094D744606460F462846A4
:105A1000714673F035FA2846214673F043FA0C2399
:105A200003FB076000F5B270F8BD00BF055A00081F
:105A3000F8B50F46074D064606EBC70671462846E1
:105A4000744673F01DFA36692846214673F02AFA27
:105A50003046F8BD315A000870B5084D064671460B
:105A60002846744673F00CFA96F894602846C6F3FC
:105A70008106214673F016FA304670BD595A000867
:105A800070B5074D064671462846744673F0F8F91E
:105A900036692846214673F005FA304670BD00BFCE
:105AA000815A000870B50B4D06467146284674466B
:105AB00073F0E6F9084B1A7866F3C3021A70074BC5
:105AC0005A7866F304125A7028462146BDE87040A1
:105AD00073F0E8B9A55A0008081F0020B4DA0020C6
:105AE00038B5074D71462846744673F0C9F9054B21
:105AF00000221A7028462146BDE8384073F0D2B91A
:105B0000E15A00088A19002070B5074D0646714613
:105B10002846744673F0B4F9B36C9E882846214633
:105B200073F0C0F930B270BD095B000870B50D4D5F
:105B300071462846744673F0A3F90B48FEF7EAFB5A
:105B4000B0F9000007EE900AFAEEEF7A2846FDEE73
:105B5000E77A214617EE906AB6B273F0A3F930B235
:105B600070BD00BF2D5B0008B414002038B5074D90
:105B700071462846744673F083F9054B054A1A604E
:105B800028462146BDE8384073F08CB96D5B0008AB
:105B9000AC0D00200CDC0A0870B5094D7146284692
:105BA000744673F06DF9074B986B0368DB68984790
:105BB00021460646284673F075F9304670BD00BF91
:105BC000995B0008F8D80020F8B5084D0F46064646
:105BD00071462846744673F053F93B883380284653
:105BE0002146BDE8F84073F05DB900BFC95B00080D
:105BF000F8B5074D064674460F462846714673F0C1
:105C00003FF9B78028462146BDE8F84073F04AB90D
:105C1000F15B0008F8B5094D06460F462846714667
:105C2000744673F02DF93046B763FEF717FB28462C
:105C30002146BDE8F84073F035B900BF155C000897
:105C400038B5064D74462846714673F019F9284652
:105C50002146BDE8384073F025B900BF415C00081B
:105C600070B50A4D064671462846744673F008F929
:105C7000B369D3ED067AF8EEE77A2846C6ED187ACE
:105C80002146BDE8704073F00DB900BF615C0008AB
:105C900070B50A4D2DED028B7146064628467446B6
:105CA00073F0EEF896ED2B8A2846214673F0FAF849
:105CB000B0EE480ABDEC028B70BD00BF915C0008DD
:105CC00038B50E4D2DED028B714608EE100A2846B0
:105CD000744673F0D5F80A48FEF7C0FDB8EEC88ADE
:105CE000D0ED007A28EE278A2846214673F0DAF8AC
:105CF000B0EE480ABDEC028B38BD00BFC15C0008A5
:105D00009C16002070B5094E044671463046754613
:105D100073F0B6F8A0680368DB6A9847304684EDF4
:105D20001C0A2946BDE8704073F0BCB8055D000848
:105D300070B50A4D2DED028B714606462846744615
:105D400073F09EF896ED168A2846214673F0AAF85D
:105D5000B0EE480ABDEC028B70BD00BF315D00089B
:105D600070B50A4D2DED028B7146064628467446E5
:105D700073F086F896ED178A2846214673F092F85C
:105D8000B0EE480ABDEC028B70BD00BF615D00083B
:105D900070B50A4D2DED028B7146064628467446B5
:105DA00073F06EF896ED188A2846214673F07AF85B
:105DB000B0EE480ABDEC028B70BD00BF915D0008DB
:105DC00070B50C4D06462DED028B71462846744683
:105DD00073F056F8F068FFF7DBFFB0EE408ABDEED7
:105DE000C88A2846214673F05DF818EE100ABDEC0B
:105DF000028B70BDC15D000870B50A4D2DED028BA0
:105E0000714606462846744673F03AF896ED198AAC
:105E10002846214673F046F8B0EE480ABDEC028BE6
:105E200070BD00BFF95D000870B50C4D06462DED44
:105E3000028B71462846744673F022F8F068FFF72B
:105E4000DBFFB0EE408ABDEEC88A2846214673F0DB
:105E500029F818EE100ABDEC028B70BD295E00080F
:105E600070B50A4D2DED028B7146064628467446E4
:105E700073F006F896ED108A2846214673F012F862
:105E8000B0EE480ABDEC028B70BD00BF615E000839
:105E900010B51D482DED028B7146744672F0F0FF6F
:105EA0001A4B187810B11A48FFF7C4F9194B5A78F1
:105EB0009978DB7842EA012242EA034343F317036D
:105EC000B3F57A7F0ADB18B1134B1B78022B05D888
:105ED0001248FFF7C5FFB0EE408A0BE01048FEF70E
:105EE00019FAB0F90030002BC8BF5B4207EE903AB8
:105EF000B8EEE78A0448214672F0D4FFB0EE480AB3
:105F0000BDEC028B10BD00BF915E0008880D002023
:105F1000F47F0020C8120020A41200200C7F002073
:105F2000A414002070B50C4D06462DED028B714671
:105F30002846744672F0A4FFF068FFF729FFB0EE20
:105F4000408ABDEEC88A2846214672F0ABFF18EEA3
:105F5000100ABDEC028B70BD255F000870B50C4DBA
:105F600006462DED028B71462846744672F088FF76
:105F7000F068FFF741FFB0EE408ABDEEC88A2846C0
:105F8000214672F08FFF18EE100ABDEC028B70BD37
:105F90005D5F000870B5094D714606462846744697
:105FA00072F06EFFD6ED0A7AFDEEE77A284617EE1C
:105FB000906A214672F076FF304670BD955F00080A
:105FC00070B5084D064671462846744672F058FF73
:105FD0000023F386338728462146BDE8704072F0DF
:105FE00061BF00BFC15F000870B5074D74467146C0
:105FF0000646284672F044FF2846214672F052FFBA
:1060000006F15C0070BD00BFE95F000870B5084D87
:10601000064671462846744672F032FF36782846A6
:1060200006F00106214672F03DFF304670BD00BF0C
:106030000D60000870B5064D744671460646284648
:1060400072F01EFF2846214672F02CFF304670BDCC
:106050003560000870B50A4D2DED028B0646B0EE96
:10606000408A28467146744672F00AFF86ED1C8A03
:10607000BDEC028B28462146BDE8704072F012BF8D
:106080005560000870B50A4D2DED028B0646B0EE46
:10609000408A28467146744672F0F2FE86ED1D8AEB
:1060A000BDEC028B28462146BDE8704072F0FABE76
:1060B0008560000870B504460D462DED028B7146D3
:1060C0006448764672F0DCFE2188B5F900200BB2F8
:1060D000002B02DD002A03DA08E009B1002A05DC02
:1060E000002AB8BF5242B2F5E16F01DD2B88A8E06B
:1060F00007EE103A002BF8EEC77A9FED578A50DD75
:10610000564867EE888AFEF705F9B0F90030032B90
:106110000CDD5248FEF7FEF8B0F90020042392FB94
:10612000F3F307EE903AB8EEE77A01E0B7EE007AC3
:10613000F4EEC78AF1EE10FA08DDB4F9003007EE8C
:10614000903AF8EEE77A27EE888A15E04348FEF7A2
:10615000E1F8B0F90030032B0CDD4048FEF7DAF827
:10616000B0F90020042392FBF3F308EE103AB8EEE6
:10617000C88A01E0B7EE008AB4F9003007EE903A21
:10618000F8EEE77A37EEC88ABDEEC88A18EE103A04
:106190009BB22380B5F900201BB29342B8BF1346CF
:1061A0004FE02E4867EEC88AFEF7B4F8B0F9003029
:1061B000032B0CDD2948FEF7ADF8B0F900200423CD
:1061C00092FBF3F307EE103AF8EEC77A01E0F7EE30
:1061D000007AF4EEE78AF1EE10FA08DDB4F9003047
:1061E00007EE903AF8EEE77A27EEC88A15E01B48EA
:1061F000FEF790F8B0F90030032B0CDD1748FEF7DE
:1062000089F8B0F90020042392FBF3F308EE103A6A
:10621000B8EEC88A01E0B7EE008AB4F9003007EEA4
:10622000903AF8EEE77A38EE278ABDEEC88A18EE83
:10623000103A9BB22380B5F900201BB29342A8BF4D
:106240001346BDEC028B238031460248BDE8704006
:1062500072F028BEB5600008CDCC4C3C9A140020EA
:1062600038B50C4D71462846744672F009FE0A4B4B
:106270001A78052161F302021A70C8225A8300229B
:106280005A805A8EDA8328462146BDE8384072F09B
:1062900009BE00BF616200086412002038B50C4DD1
:1062A00071462846744672F0EBFD0A4B1A780521B8
:1062B00061F3C5021A70C8229A8300229A809A8ECE
:1062C0001A8428462146BDE8384072F0EBBD00BF75
:1062D0009D6200086412002038B533482DED048B10
:1062E0007146754672F0CCFD304B1A78C2F341020C
:1062F000002A51D05978C8074ED52D4C6FF30001B4
:106300005970B4F9723007EE103A012AB8EEC77A24
:106310000AD1284BD3ED006AB4F9923008EE903AD6
:10632000254BF8EEE88A09E0244BD3ED006AB4F976
:10633000923008EE903A224BF8EEE88AD3ED007ADC
:10634000204827EEE88A68EEA68AA7EE268AE7EEBE
:10635000278AFFF73DF81B48B0EE409AFFF750F848
:1063600020EE280A1748A9EE080ABDEEC00A10EE72
:10637000103AA4F87230FFF743F81248B0EE409A92
:10638000FFF726F820EE280AA8EE490ABDEEC00A5B
:1063900010EE103AA4F89230BDEC048B2946024866
:1063A000BDE8384072F07EBDD96200080C1D0020A7
:1063B000641400208C0D002038810020840D002002
:1063C000DCC50020188400202DE9F0410A4D8046EC
:1063D0000F4628467146744672F052FD074806681B
:1063E00041463A463668B0472846214672F05AFD83
:1063F0000020BDE8F08100BFC9630008F8D8002084
:1064000070B50B4D064671462846744672F038FD4D
:10641000084B1A7866F382021A70074B5A7866F3B3
:10642000C3025A7028462146BDE8704072F03ABD5A
:1064300001640008081F0020B4DA002038B5714656
:1064400004460C48754672F01BFD0B4B1A78C2F3DC
:106450000011A14207D064F304121A70074B1A7896
:1064600064F3C7121A7029460248BDE8384072F03A
:1064700019BD00BF3D6400080C1D0020B4DA0020E7
:1064800038B5714605460948744672F0F9FC084B68
:1064900006481A78C2F3C001A9421CBF65F3C302C3
:1064A0001A702146BDE8384072F0FCBC81640008D7
:1064B0000C1D002038B5104D2DED028B714628467D
:1064C000744672F0DDFC0D48FDF7FEFE90F9000009
:1064D000DFED0B7A07EE100AB8EEC77AB0EE008A4D
:1064E000A7EE278A2846214672F0DCFCB0EE480A67
:1064F000BDEC028B38BD00BFB564000899140020C4
:10650000CDCCCC3D70B5714605461048744672F04E
:10651000B7FCFEF759FB06460D48FDF7D5FE90F98E
:106520000030B3EB962F01D2002508E035B9094BB6
:10653000D86A03681B6A98470028F5D101250348EB
:10654000214672F0AFFC284670BD00BF056500080B
:1065500073140020F8D80020F8B50F46074D064602
:1065600006EBC70671462846744672F089FCF66849
:106570002846214672F096FC3046F8BD5965000861
:1065800070B50A4D064671462846744672F078FC8E
:1065900096F89410304601F00301FFF7DDFF214625
:1065A0000646284672F07EFC304670BD81650008C4
:1065B000F8B5094D744606460F462846714672F0F6
:1065C0005FFC2846214672F06DFC382307FB03333D
:1065D000F0180830F8BD00BFB165000870B50A4D6D
:1065E000064671462846744672F04AFC96F89410A6
:1065F000304601F00301FFF7DBFF2146064628463F
:1066000072F050FC304670BDDD650008F8B50C4DE9
:106610002DED028B06460F4628467146744672F0F1
:106620002FFC382303FB076696ED0D8A284621468A
:1066300072F038FCB0EE480ABDEC028BF8BD00BF2A
:106640000D66000870B50D4D06462DED028B7146A6
:106650002846744672F014FC96F89410304601F007
:106660000301FFF7D3FF2846B0EE408A214672F0BF
:1066700019FCB0EE480ABDEC028B70BD45660008FF
:1066800038B5054671460848744672F0F9FB288B08
:106690004FF6FF75A84214BF054600252146024863
:1066A00072F000FC284638BD81660008F8B50F4638
:1066B000074D064606EBC70671462846744672F03B
:1066C000DFFB768D2846214672F0ECFB3046F8BDA4
:1066D000AD66000870B50A4D0646714628467446F8
:1066E00072F0CEFB96F84010304601F00301FFF740
:1066F000DDFF21460646284672F0D4FB304670BDC9
:10670000D566000870B50A4D71460646284674469F
:1067100072F0B6FB301DFDF7D7FD90F90060003632
:1067200018BF01262846214672F0BCFB304670BDDA
:106730000567000870B5074D064671462846744641
:1067400072F09EFB96F828602846214672F0AAFB5C
:10675000304670BD3567000870B5074D0646714676
:106760002846744672F08CFB368E2846214672F01D
:1067700099FB304670BD00BF5967000870B5074DE2
:10678000064671462846744672F07AFBF66A284639
:10679000214672F087FB304670BD00BF7D67000860
:1067A00070B5064D744671460646284672F068FB81
:1067B0002846214672F076FB304670BDA16700087E
:1067C00070B50D46044671462448764672F058FB73
:1067D000082D3BD804EB45007230FFF7E1FF00784D
:1067E00007EE900A082DF8EE677A08D094F8643026
:1067F0000BB9236C1BB1B5EE007A67EE877AF5EE24
:10680000C07AF1EE10FA21D9254495F88430D3B935
:106810009FED137A94F88D40F4EE477AF1EE10FA7A
:10682000C8BFF0EE477A87EE277A06EE904AF8EE78
:10683000E66A012477EE267AFCEEE77A17EE903AC4
:1068400085F8843003E0013B85F884300024034858
:10685000314672F027FB204670BD00BFC1670008BB
:106860000000484270B50C4D2DED028B0646714676
:10687000B0EE408A2846744672F002FBF068B0EE33
:10688000480AFEF7FDF9BDEC028B28462146BDE81B
:10689000704072F007BB00BF6568000838B50C4651
:1068A0001D487146754672F0EBFA6379DB071CD51B
:1068B0001A48FEF7EFFAA379E279817843EA0222D7
:1068C000237A42EA0342437843EA0123C17843EA48
:1068D000014342F3170243F317031344C3F30722A0
:1068E000A371C3F30743E2712372E279A3790C48E1
:1068F00043EA0223227A43EA024343F3170300EEFA
:10690000103AB8EEC00AFFF7ADFF29460248BDE8CD
:10691000384072F0C7BA00BF9D6800081884002094
:10692000341D002070B5094D714606462846744650
:1069300072F0A6FA06F13700FDF726FC067821462C
:10694000284672F0AFFA304670BD00BF25690008D6
:1069500070B5074D064671462846744672F090FAA7
:10696000367D2846214672F09DFA304670BD00BF44
:106970005169000870B5074E0446714630467546A9
:1069800072F07EFA044B23603046294672F08AFA90
:10699000204670BD75690008A8710A08F8B50A4E4E
:1069A00004460F4630467146754672F069FA204635
:1069B000FFF7E0FF054B236030462771294672F050
:1069C00071FA2046F8BD00BF9D690008F0CA0A08A8
:1069D00070B50D4C064671460C48754672F050FA7B
:1069E000206803685B690EB1094900E009499847CE
:1069F0002068094903685B69984729460348BDE850
:106A0000704072F04FBA00BFE07E0020D1690008EC
:106A1000338B0A08AA6F0A08A78F0A0870B5094DB8
:106A2000714606462846744672F02AFA06F5A470A6
:106A3000FDF74AFC06782146284672F033FA3046C4
:106A400070BD00BF1D6A0008F8B50B4D06460F4625
:106A500028467146744672F013FA0C2303FB076054
:106A600000F5A670FDF78CFD21460646284672F01B
:106A700019FA3046F8BD00BF496A000870B5074DE5
:106A8000064671462846744672F0FAF9768828461A
:106A9000214672F007FA304670BD00BF7D6A0008DB
:106AA00070B5094D71462846744672F0E9F90748F9
:106AB000FFF7E4FF21460646284672F0F3F90F235C
:106AC000B6FBF3F0C0B270BDA16A0008C4DA0020C2
:106AD00070B5084D714606462846744672F0D0F9E6
:106AE000301DFDF7F1FB06782146284672F0DAF9F1
:106AF000304670BDD16A000838B5714604460D486D
:106B0000754672F0BDF90C48FDF7DEFB90F90030D8
:106B1000022B05D0032B06D01C1C18BF012403E058
:106B200084F0010400E004240248294672F0BAF916
:106B3000204638BDF96A00089814002070B50E4D43
:106B40002DED028B714606462846744672F098F980
:106B50003046FFF777FD28462146B0EE408A72F0B6
:106B6000A1F9DFED067A28EE278ABCEEC88A18EE76
:106B7000100ABDEC028B70BD3D6B00080000C842DE
:106B8000F8B5094D0F46064671462846744672F020
:106B900077F9382303FB07662846B66B214672F067
:106BA00081F93046F8BD00BF816B000870B50A4D11
:106BB000064671462846744672F062F996F89410BB
:106BC000304601F00301FFF7DBFF21460646284669
:106BD00072F068F9304670BDAD6B000838B51348E7
:106BE000134C2DED028B7146754672F049F9114830
:106BF000FDF760FD01280DD90E48FFF79FFF6428BF
:106C000008D90C48FFF7D2FF07EE100AF8EEC77A52
:106C1000C4ED007A94ED008A0448294672F042F9E6
:106C2000B0EE480ABDEC028B38BD00BFDD6B00083A
:106C30003C8100203C80002070B50A4D2DED028B78
:106C4000714606462846744672F01AF996ED398A5E
:106C50002846214672F026F9B0EE480ABDEC028BB8
:106C600070BD00BF396C000870B5084E044671460F
:106C70003046754672F004F90023304663602360A5
:106C8000294672F00FF9204670BD00BF696C0008FC
:106C900070B5074D744671460646284672F0F0F806
:106CA0002846214672F0FEF806F50B7070BD00BF55
:106CB000916C000838B5094D71462846744672F04B
:106CC000DFF8074B01221A70FEF766FF054B1860CC
:106CD00021462846BDE8384072F0E4B8B56C00089B
:106CE0007C0D00201084002038B5074D71462846E1
:106CF000744672F0C5F8054B00221A7028462146EA
:106D0000BDE8384072F0CEB8E96C00087C0D002078
:106D100070B50A4D2DED028B0646B0EE408A28462E
:106D20007146744672F0ACF886ED098ABDEC028BB0
:106D300028462146BDE8704072F0B4B8116D0008D5
:106D400070B5084D714606462846744672F098F8AC
:106D5000B01DFDF719FA06782146284672F0A2F810
:106D6000304670BD416D000838B5094D7146284662
:106D7000744672F085F8074A00231380064A1360B0
:106D8000064A138028462146BDE8384072F08AB88A
:106D9000696D000840810020A01200203C1E0020E8
:106DA00038B5714604460D48754672F069F80C4BCB
:106DB0001A8801321A800B4B1A68944288BF1C60F3
:106DC00040F6B8339C4203D9074B1A8801321A8027
:106DD00029460248BDE8384072F064B8A16D000849
:106DE00040810020A01200203C1E002070B5074DFD
:106DF00071462846744672F043F8054B1E882846B3
:106E0000214672F04FF8304670BD00BFED6D0008AE
:106E10004081002070B5074D71462846744672F0D7
:106E20002FF8054B1E682846214672F03BF8304685
:106E300070BD00BF156E0008A012002070B5074D90
:106E400071462846744672F01BF8054B1E8828468A
:106E5000214672F027F8304670BD00BF3D6E000835
:106E60003C1E0020F0B5234F8BB0044671463846D7
:106E7000764672F005F82048FEF70CF86268436821
:106E8000DFED1E7AD31A06EE903A1D4BA268D3EDC1
:106E9000000A8368D31AB8EEE60AA27806EE903AA2
:106EA000637843EA0223E27843EA024343F3170399
:106EB00060EEA70AB8EEE67A01EE103A04AD20EED5
:106EC000270A60EE870AB8EEC11A2846FEF762F973
:106ED00095E807000AAB03E907003846314671F030
:106EE000E1FF9DED070ADDED080A9DED091A0BB0E3
:106EF000F0BD00BF656E0008188400202C7D8E3F19
:106F0000980D002038B5064D74462846714671F03C
:106F1000B7FF28462146BDE8384071F0C3BF00BF27
:106F2000056F000838B5714605460A48744671F089
:106F3000A7FF0023EA18043300211C2B5160F9D16C
:106F4000002385F8203021460248BDE8384071F022
:106F5000A9BF00BF256F000838B504462DED028B90
:106F600071460F48B0EE408A754671F089FF94F87B
:106F700020200B48531CDBB2062B84F8203004EB96
:106F8000820288BF002382ED018A294688BF84F8E7
:106F9000203071F087FFB0EE480ABDEC028B38BD9F
:106FA000596F000870B5084D06467146284674466C
:106FB00071F066FF96F840602846C6F381062146C8
:106FC00071F070FF304670BDA56F000838B5094DEF
:106FD00071462846744671F053FF074B07491868FD
:106FE00003681B6A984728462146BDE8384071F07F
:106FF00059BF00BFCD6F0008E07E002069830A08FA
:1070000038B5094D71462846744671F039FF074B73
:10701000074AD86B116803681B68984728462146C1
:1070200071F040FF002038BD01700008F8D8002042
:10703000E07E002038B5064D74467146284671F052
:107040001FFF2846214671F02DFF002038BD00BFEC
:1070500035700008F8B50A4D06460F4628467146B9
:10706000744671F00DFF96F8363067F3820386F8A8
:10707000363028462146BDE8F84071F013BF00BF06
:107080005570000870B50B4E044671463046754683
:1070900071F0F6FE236820461B699847014620469A
:1070A000FDF75AFA29460446304671F0FBFE2046A9
:1070B00070BD00BF8570000838B5094D714628467F
:1070C000744671F0DDFE074B0749186803681B6AB8
:1070D00098472846214671F0E5FE002038BD00BFE4
:1070E000B9700008E07E00207E830A0838B5094D9B
:1070F00071462846744671F0C3FE074B986B0368CF
:107100000021DB6B98472846214671F0CBFE00201A
:1071100038BD00BFED700008F8D80020F8B5084D64
:107120000F46064671462846744671F0A9FE3B6834
:10713000336028462146BDE8F84071F0B3BE00BF79
:107140001D7100082DE9F04B5D4F5E4D5E4C7146A0
:107150003846764671F094FED5F80080D8F80030B5
:1071600004F17A00D3F82090FDF7D4F8B0F900B01C
:1071700004F17E00FDF7CEF85A465449B0F90030CC
:107180004046C847D5F80080D8F8003004F19A008E
:10719000D3F82090FDF7BEF8B0F900B004F19E00DE
:1071A000FDF7B8F85A464A49B0F900304046C8479A
:1071B000D5F80080D8F8003004F1BA00D3F8209058
:1071C000FDF7A8F8B0F900B004F1BE00FDF7A2F891
:1071D0005A464049B0F900304046C847D5F80080CB
:1071E000D8F8003004F1DA00D3F82090FDF792F8D7
:1071F000B0F900B004F1DE00FDF78CF85A463649CC
:10720000B0F900304046C847D5F80080D8F80030C3
:1072100004F1FA00D3F82090FDF77CF8B0F900B043
:1072200004F1FE00FDF776F85A462C49B0F900301B
:107230004046C847D5F80080D8F8003004F58D7076
:10724000D3F82090FDF766F8B0F900B004F58F7020
:10725000FDF760F85A462249B0F900304046C84769
:10726000D5F80080D8F8003004F59D70D3F8209050
:10727000FDF750F8B0F900B004F59F70FDF74AF83B
:107280005A461849B0F900304046C8472D682B6867
:1072900004F5AD70D3F82080FDF73CF8B0F900900C
:1072A00004F5AF70FDF736F80F49B0F900304A46E3
:1072B0002846C04738463146BDE8F04B71F0F2BD74
:1072C00045710008E07E002064140020A9830A08AC
:1072D000B7830A08C5830A08D3830A08E1830A082A
:1072E000EF830A08FD830A080B840A0870B5044678
:1072F0000D462D487146764671F0C2FD2368102D6B
:1073000047D8DFE805F0090D12161A1E2226462A74
:107310002E3246363A3E42005B692449204602E05E
:107320005B6923492046984738E05B69214920463C
:10733000F9E75B6920492046F5E75B691F4920466C
:10734000F1E75B691E492046EDE75B691D49204670
:10735000E9E75B691C492046E5E75B691B49204674
:10736000E1E75B691A492046DDE75B691949204678
:10737000D9E75B6918492046D5E75B69174920467C
:10738000D1E75B6916492046CDE75B691549204680
:10739000C9E71B6A144920462A46984731460248E5
:1073A000BDE8704071F07EBDED72000819840A08D6
:1073B00023840A0828840A0831840A0836840A08C3
:1073C00050840A083D840A0841840A0848840A084F
:1073D0004D840A0857840A085D840A0863840A08F1
:1073E00068840A0871840A0879840A082DE9F84338
:1073F000124C81468846124871467546164671F011
:107400003FFD20680F4907684A463F6AB847206831
:107410004146FFF76BFF20680B4903681B6A9847DA
:10742000206803681B6A0EB1084900E008499847C4
:1074300029460348BDE8F84371F034BDE07E0020E2
:10744000ED73000882840A088B840A0897840A086E
:107450009B840A0870B5084D71462846744671F041
:107460000FFD0648FEF7D2FD21460646284671F07C
:1074700019FD304670BD00BF55740008341D002052
:1074800038B5064D74467146284671F0F9FC284619
:10749000214671F007FD002038BD00BF817400084F
:1074A00070B5074D744671460646284671F0E8FCF3
:1074B0002846214671F0F6FC06F11C0070BD00BFA5
:1074C000A174000870B50A4D2DED028B7146064679
:1074D0002846744671F0D4FC96ED0C8A2846214665
:1074E00071F0E0FCB0EE480ABDEC028B70BD00BF4D
:1074F000C574000838B512487146754671F0C0FC75
:107500001048FEF783FD044698B10F4C236813B969
:10751000FDF75AFB2060FDF757FB24684FF47A73A0
:10752000001BB0FBF3F4094B1B889C4234BF0024C2
:1075300001240348294671F0B5FC204638BD00BF40
:10754000F5740008341D0020A87D0020BC830020B5
:1075500038B50B487146754671F092FC094B1C78A2
:107560003CB1094B1C78033CE4B2012C8CBF0024D5
:1075700001240348294671F095FC204638BD00BF20
:10758000517500083E1E0020D819002038B57146FC
:107590000C48754671F074FCFDF716FB0A4B1B682E
:1075A000C01A0A4B1A6822EAE27290424FF00004B5
:1075B00088BF1C60034888BF0124294671F072FC13
:1075C000204638BD8D75000808130020C47D0020BA
:1075D00038B5064D74467146284671F051FC284670
:1075E000214671F05FFC012038BD00BFD175000855
:1075F000F8B50A4E07460C4630467146754671F09E
:107600003FFC94E8070007F11C0383E807003046BD
:107610002946BDE8F84071F045BC00BFF17500088F
:10762000F7B50A4E02AC24ED010A71460746304612
:10763000754671F025FC214607F11000FDF752FD5B
:107640003046294671F02EFC03B0F0BD21760008CB
:1076500070B50C4D2DED028B7146064628467446DA
:1076600071F00EFC06F11000FDF7F8F890ED008ABD
:107670002146284671F016FCB0EE480ABDEC028B9C
:1076800070BD00BF5176000870B5074D06467146C3
:107690002846744671F0F4FB768F2846214671F037
:1076A00001FC304670BD00BF8976000870B50F4DF3
:1076B000064671462846744671F0E2FBFDF784FAEF
:1076C000D6F805609FED0A7A0A4B07EE906A67EEDE
:1076D000877A1860FDEEE77A074BC3ED007A2846FB
:1076E0002146BDE8704071F0DDBB00BFAD760008FB
:1076F00000007A4408130020C47D002070B50D4DB1
:10770000064671462846744671F0BAFBD6F8056005
:107710009FED097A094B07EE906A67EE877A284653
:10772000FDEEE77A2146C3ED007ABDE8704071F0C6
:10773000B9BB00BFFD7600080000C842C47D002030
:1077400038B5064D74462846714671F099FB2846B7
:107750002146BDE8384071F0A5BB00BF4177000865
:10776000F7B50C4D06460F4628467146744671F033
:1077700087FB07EE107AF8EE477A02A961ED017AED
:1077800006F10C00FDF7EEF82846214671F08AFB61
:1077900003B0F0BD6177000870B5064D74467146C0
:1077A0000646284671F06CFB2846214671F07AFBAC
:1077B000304670BD9977000870B5084E7146044692
:1077C0003046754671F05CFB2046FFF7E5FF30461A
:1077D000294671F067FB204670BD00BFB9770008ED
:1077E00070B5084E714604463046754671F048FB48
:1077F0002046FFF7E1FF3046294671F053FB204653
:1078000070BD00BFE177000870B5084E71460446B0
:107810003046754671F034FB2046FFF7BDFF304619
:10782000294671F03FFB204670BD00BF0978000873
:1078300070B5084E714604463046754671F020FB1F
:107840002046FFF7A9FF3046294671F02BFB204662
:1078500070BD00BF3178000870B5084E714604460F
:107860003046754671F00CFB2046FFF795FF304619
:10787000294671F017FB204670BD00BF59780008FB
:1078800070B5084E714604463046754671F0F8FAF8
:107890002046FFF7CDFF3046294671F003FB204616
:1078A00070BD00BF8178000870B5074E0446714670
:1078B0003046754671F0E4FA044B236030462946A1
:1078C00071F0F0FA204670BDA978000808720A0825
:1078D00070B5094E044671463046754671F0D0FACF
:1078E0002046FFF7E1FF054B23603046294671F043
:1078F000D9FA204670BD00BFD178000820D40A080C
:1079000070B5094E044671463046754671F0B8FAB6
:10791000002330466370A370E3702371294671F031
:10792000C1FA204670BD00BF0179000870B50A4E4B
:10793000714604463046754671F0A2FA201DFFF7E5
:10794000C7FF04F11400FFF7DBFF3046294671F052
:10795000A9FA204670BD00BF2D79000870B5084E09
:10796000714604463046754671F08AFA04F12400E7
:10797000FDF704FA3046294671F094FA204670BDAE
:107980005D79000870B5074E04467146304675466D
:1079900071F076FA044B23603046294671F082FA82
:1079A000204670BD85790008B8710A0870B50C4E84
:1079B000044671463046754671F062FA2046FFF77C
:1079C000E1FF084B2360002384F820302046FFF7B6
:1079D000A9FA3046294671F065FA204670BD00BF0D
:1079E000AD790008C8710A0870B5094E04467146A1
:1079F0003046754671F044FA2046FFF7D7FF054B35
:107A000023603046294671F04DFA204670BD00BF14
:107A1000E9790008D8710A0870B5094E7146044624
:107A20003046754671F02CFA2046FFF7B5FE204629
:107A3000FDF7A4F93046294671F034FA204670BDAE
:107A4000197A000870B50C4E2DED028B0446F0EE4D
:107A5000408AB0EE608A75467146304671F010FA81
:107A6000C4ED008A84ED018A3046294671F01AFA85
:107A7000BDEC028B204670BD457A000870B50C4EF7
:107A8000044671463046754671F0FAF94FF07E5360
:107A90002362236123600023A36063606361E3606A
:107AA000E361A36130462946BDE8704071F0FAB940
:107AB0007D7A000870B50C4E714604463046754616
:107AC00071F0DEF92046FDF759F904F10C00FDF7DD
:107AD00055F904F11800FDF751F93046294671F0C7
:107AE000E1F9204670BD00BFB57A00082DE9F041EC
:107AF0000A4E04460F46304671467546904671F070
:107B0000BFF9002330462371A760C4F80C802946D2
:107B100071F0C8F92046BDE8F08100BFED7A000899
:107B200070B5084E044671463046754671F0A8F9A6
:107B30000023304623706370294671F0B3F9204664
:107B400070BD00BF217B000870B5084E0446714629
:107B50003046754671F094F9002330462370637007
:107B6000294671F09FF9204670BD00BF497B00088F
:107B7000F8B50B4E04460F4630467146754671F017
:107B80007FF9002330462760A380A371A360A381FF
:107B9000E38123746382294671F084F92046F8BD9D
:107BA000717B000870B5074D06467146284674463D
:107BB00071F066F936782846214671F073F930463F
:107BC00070BD00BFA57B000870B5074D0646714625
:107BD0002846744671F054F936782846214671F0EB
:107BE00061F9304670BD00BFC97B000870B5074D14
:107BF000064671462846744671F042F936782846A2
:107C0000214671F04FF9304670BD00BFED7B000892
:107C100070B5074D064671462846744671F030F936
:107C200036782846214671F03DF9304670BD00BFD8
:107C3000117C000870B5074D06467146284674460B
:107C400071F01EF936782846214671F02BF930463E
:107C500070BD00BF357C000870B5074D0646714603
:107C60002846744671F00CF936782846214671F0A2
:107C700019F9304670BD00BF597C000870B5074D3A
:107C8000064671462846744671F0FAF8367828465A
:107C9000214671F007F9304670BD00BF7D7C0008B9
:107CA00070B5074D064671462846744671F0E8F8EF
:107CB00036782846214671F0F5F8304670BD00BF91
:107CC000A17C000870B5074D0646714628467446EB
:107CD00071F0D6F836782846214671F0E3F8304640
:107CE00070BD00BFC57C000870B5074D06467146E3
:107CF0002846744671F0C4F836782846214671F05B
:107D0000D1F8304670BD00BFE97C000870B5074D62
:107D1000064671462846744671F0B2F83678284611
:107D2000214671F0BFF8304670BD00BF0D7D0008E0
:107D300070B5074D064671462846744671F0A0F8A6
:107D400036782846214671F0ADF8304670BD00BF48
:107D5000317D000870B5074D0646714628467446C9
:107D600071F08EF836782846214671F09BF830463F
:107D700070BD00BF557D000870B5074D06467146C1
:107D80002846744671F07CF836782846214671F012
:107D900089F8304670BD00BF797D000870B5074D89
:107DA000064671462846744671F06AF836782846C9
:107DB000214671F077F8304670BD00BF9D7D000808
:107DC00070B5074D064671462846744671F058F85E
:107DD00036782846214671F065F8304670BD00BF00
:107DE000C17D00082DE9F0410E46804671460C48E1
:107DF000754671F045F80B4B00241E60A7B21C209D
:107E000000FB0760FFF7CEFE01340028F6D1064BD9
:107E100003481F70294671F045F84046BDE8F081DF
:107E2000E57D0008BCDA0020B8DA002070B5084E05
:107E3000714604463046754671F022F804F124007C
:107E4000FEF712FF3046294671F02CF8204670BD2F
:107E50002D7E000870B5074E0446714630467546C3
:107E600071F00EF8044B23603046294671F01AF881
:107E7000204670BD557E000870CA0A0870B5074ECE
:107E8000044671463046754670F0FAFF044B236095
:107E90003046294671F006F8204670BD7D7E000808
:107EA00028AE0A0870B5094E04467146304675463C
:107EB00070F0E6FF064B23602046FFF7DFFF3046F9
:107EC000294670F0EFFF204670BD00BFA57E000878
:107ED00098AE0A0870B5074E04467146304675469E
:107EE00070F0CEFF044B23603046294670F0DAFF75
:107EF000204670BDD57E000800A90A0870B5094E5D
:107F0000044671463046754670F0BAFF064B236052
:107F10002046FFF79FFF3046294670F0C3FF2046FA
:107F200070BD00BFFD7E000800CB0A0870B5094E89
:107F3000044671463046754670F0A2FF064B23603A
:107F40002046FFF7AFFF3046294670F0ABFF2046D2
:107F500070BD00BF2D7F000808AF0A0870B5094E3C
:107F6000714604463046754670F08AFF2046FFF79A
:107F700071FF204671F08CF83046294670F092FF70
:107F8000204670BD5D7F000870B5094E71460446FD
:107F90003046754670F074FF2046FFF76FFF2046AD
:107FA00071F076F83046294670F07CFF204670BDAF
:107FB000897F000870B5094E714604463046754603
:107FC00070F05EFF2046FFF76DFF204671F060F80D
:107FD0003046294670F066FF204670BDB57F000828
:107FE00070B5094E714604463046754670F048FF3C
:107FF0002046FFF76FFF204671F04AF830462946C9
:1080000070F050FF204670BDE17F000870B5094E4A
:10801000714604463046754670F032FF2046FFF741
:108020006DFF204671F034F83046294670F03AFF73
:10803000204670BD0D80000870B5094E714604469B
:108040003046754670F01CFF2046FFF76FFF204654
:1080500071F01EF83046294670F024FF204670BDAE
:108060003980000870B50B4D71462846744670F093
:1080700007FF094B09481E78FCF786F8314602785D
:1080800007481AF005F928462146BDE8704070F00F
:1080900009BF00BF658000087081002072140020B5
:1080A000B012002038B5094D71462846744670F06C
:1080B000E7FE07482AF04AFC064818F0A3FC2846C9
:1080C0002146BDE8384070F0EDBE00BFA580000835
:1080D0004C830020201E002070B5714606460B48D8
:1080E000754670F0CDFE00240948225C1AB1204488
:1080F00031464BF061FACC34B4F5197FF4D12946FE
:108100000248BDE8704070F0CDBE00BFD9800008C5
:108110007C1A002038B5074D71462846744670F029
:10812000AFFE1C20FFF7D8FF28462146BDE83840A7
:1081300070F0B8BE1581000838B5074D7146284665
:10814000744670F09DFE0020FFF7C6FF28462146CA
:10815000BDE8384070F0A6BE3981000838B50B483C
:108160007146754670F08CFE00240948235C1BB1F3
:10817000204408494BF0CCFBCC34B4F5197FF4D142
:1081800029460248BDE8384070F08CBE5D81000889
:108190007C1A00203D82000838B571461D4874469F
:1081A00070F06EFE1C4B986B0368DB6898471B4BA6
:1081B0001A881B4B1988914206D01A80194B1860F7
:1081C000194B00221A7011E0184B1B7873B1154B34
:1081D00017491A68821A8A421D46134B01D9012198
:1081E0001970197811B1134B9A4205D821460948E4
:1081F000BDE8384070F056BE28600F48FCF73AF9E9
:108200000028F3D00C48002129F02AF90A4829F067
:1082100061FBEBE799810008F8D800208019002065
:10822000C483002010840020201D00207C0D00202D
:1082300080841E0040420F00841E002010B571464D
:108240000446124870F01CFE114B20461C60FCF7DF
:10825000FDF8236820461B6C012198470D4B986B55
:10826000036800215B6905229847FEF73DFD0A4837
:10827000FCF700F930B10848002129F0F1F8064870
:1082800029F028FB054827F091FFFBE73D82000815
:10829000E07E0020F8D80020841E0020501E002020
:1082A00038B5074D71462846744670F0E9FD05481B
:1082B00027F07CFF2846214670F0F4FD002038BDF1
:1082C000A1820008C0C5002038B50A4D7146284675
:1082D000744670F0D5FD084B0849186803681B6A9E
:1082E0009847074827F062FF2846214670F0DAFDDC
:1082F000002038BDC9820008E07E0020A0840A0862
:108300001C13002038B5074D71462846744670F09E
:10831000B7FD054827F04AFF2846214670F0C2FD08
:10832000002038BD05830008C07E002070B5274CB2
:1083300027482DED028B7146754670F0A1FD6378DC
:10834000A678244843EA0626E37846EA0346FBF784
:10835000E1FFB0F9003046F317069E420DDDA2782A
:10836000637843EA0223E27843EA024343F31703C4
:1083700007EE903AB8EEE78A08E01648FBF7CAFF26
:10838000B0F9000008EE100AB8EEC88A124812F0E0
:108390007FFCC30710D51048DFED108AFCF756FDAF
:1083A00020EE280AB4EEC08AF1EE10FA04D40A488E
:1083B000FCF74CFD20EE288A0548294670F072FD36
:1083C000B0EE480ABDEC028B70BD00BFC8120020A1
:1083D0002D83000874140020D47D00200000C842C2
:1083E00070B532487146764670F04AFD304B1B78C6
:1083F0001A0754D42F48FBF767FF90F90030012B80
:1084000005D02C48FBF760FF03785B0644D52A486B
:1084100044F03EFA20B9294844F03AFA00283ED008
:108420002748FBF777FFB0F9003040F21454A3421D
:1084300035DC2448FBF76EFFB0F9003040F2A3654D
:10844000AB422CDD2048FBF765FFB0F90030A342BA
:1084500025DC1E48FBF75EFFB0F90030AB421EDDA5
:108460001548FBF757FFB0F90030A34217DC13485B
:10847000FBF750FFB0F90030AB4210DD1448FBF7BA
:1084800049FFB0F90030A34209DC1248FBF742FF74
:10849000B0F90030AB4202DD0120FDF7F1FF3146BB
:1084A0000248BDE8704070F0FDBC00BFE1830008E9
:1084B0000C1D0020CB1400201E15002022150020CA
:1084C000DE140020E2140020FE140020021500201B
:1084D0003E1500204215002070B5084D7146064635
:1084E0002846744670F0CCFC06F1370044F0D0F911
:1084F00028462146BDE8704070F0D4BCD9840008FD
:1085000070B5094E714604463046754670F0B8FCA9
:10851000204627F091FB204627F056F930462946A1
:10852000BDE8704070F0BEBC01850008F8B5064695
:108530000F460C487146754670F0A2FC00240A48AC
:10854000225C22B1204431463A464BF0BBF8CC3491
:10855000B4F5197FF3D129460248BDE8F84070F020
:10856000A1BC00BF2D8500087C1A00202DE9F04138
:1085700071462DED028B05462648764670F080FC4C
:10858000254822F045FE27F057FB2448B0EE408AEC
:10859000FCF766F8074630B11DB121490320FFF70B
:1085A000C5FF00242DE0FCF79DF8044630B9002DEE
:1085B000F7D003201B49FFF7B9FF22E0B5EE408A50
:1085C000F1EE10FA06D0DFED187AB4EEE78AF1EE9C
:1085D00010FA04DD002DE4D003201449DFE714482D
:1085E000FCF7C8F880461348FBF794FEB0F900305A
:1085F000984506DD002DD4D003200F49FFF796FFE4
:108600003C460448314670F04DFCBDEC028B2046E0
:10861000BDE8F0816D85000830130020E41C0020C7
:10862000AE840A08C1840A0800004842D5840A08BA
:108630003C8000208A140020EA840A082DE9F041D9
:108640002DED028BB74D8CB004467146B648774687
:1086500070F016FC2B78DA0600F14181B348FBF785
:1086600033FE90F9003033B90120FDF7E7FE012019
:10867000FDF706FF33E1FFF7B3FE2B781B0705D4A8
:10868000002C00F02C810320A94915E0A748FBF736
:108690001BFE90F90030012B05D0A448FBF714FE17
:1086A00003789E071FD5A348FBF740FF38B9002C7D
:1086B00000F01581A0490320FFF738FF0FE19F4824
:1086C00022F0DEFD9E4B9FED9F7AD3ED007AF8EE0F
:1086D000E77A30EE670AF0EEC07AF4EEC77AF1EE90
:1086E00010FA00F305819148FBF7EEFD90F9003098
:1086F000012B05D08D48FBF7E7FD03785D074BD5CF
:1087000091480021FBF728FF002800F0F6808E48F2
:1087100018F05EFF002800F0F5808B48FBF758FF4B
:1087200007C88DE80700684627F086FADFED877AEC
:10873000B4EEE70AF1EE10FA00F3E9808248FBF7A5
:1087400075FF27F079FADFED827AB4EEE70AF1EEF1
:1087500010FA00F3E180DFED7F7AB4EEE70AF1EE84
:1087600010FA00F1D9807848FBF73EFD012813D9B3
:108770007548FBF75BFF07C803AD85E8070028468F
:10878000FFF7BEFE4FF000086F48FBF72DFD5FFAC4
:1087900088F68642C0F004816448FBF795FD90F9A5
:1087A0000030012B05D06148FBF78EFD03781807D8
:1087B0001AD5694B1878FBF7F5FD002840F01881B1
:1087C0006648FBF781FD90F90030032B00F0108123
:1087D000634812F079FA002800F08180604812F0B6
:1087E00057FA810700F10B815048FBF76DFD90F9B6
:1087F0000030012B00F00A814C48FBF765FD03783F
:10880000DA0600F103814948FBF75EFD90F900307C
:10881000012B05D04548FBF757FD03789B065BD538
:108820005048FBF751FD90F90030002B40F06E816D
:108830004D48FBF749FD90F90030002B40F0668170
:108840004A48FBF741FD90F90030BBB14848FBF7BF
:1088500061FDB0F900504748FBF75CFDB0F900300E
:108860000A339D4240F363814248FBF753FDB0F960
:10887000002040F28D339A4240F359813E48FBF785
:1088800049FDB0F90030B3F57A7FC0F256813A481D
:10889000FBF740FDB0F90030B3F5FA5F00F34D810E
:1088A0003648FBF7DBFF90ED008A3548FBF7F6FF13
:1088B000B4EEC08AF1EE10FA00F345813148FBF7BF
:1088C000CDFF90ED008A3048FBF7E8FFB4EEC08A98
:1088D000F1EE10FA00F337810120FDF7AFFD1248E9
:1088E000394670F0DFFA0CB0BDEC028BBDE8F081C8
:1088F000002CF4D003202549DEE6002CEFD0032025
:108900002349D9E6002CEAD003202249D4E6002CE2
:10891000E5D003202049CFE6002CE0D003201F49FA
:10892000CAE600BF0C1D00203D860008CB140020C5
:1089300000850A08107E00201A850A0830130020DE
:10894000D41200200000C842788100200000FA43C1
:1089500000A05A4400803943708100208814002010
:10896000D47D0020C9140020CA140020AE140020B9
:108970001E150020B0140020007F0020A01600204B
:10898000B8170020A4160020BC17002033850A0861
:1089900049850A0865850A0884850A08A5850A08A4
:1089A00031466C48FBF72EFE07C806AE86E8070086
:1089B0003046FFF7A5FD3046294627F01BF809A8E9
:1089C0008DED090ACDED0A0A8DED0B1A27F034F969
:1089D000F6EE087AB4EEE70AF1EE10FA08F10108B3
:1089E0007FF7D2AE002C3FF47AAF03205A4963E6FA
:1089F0002046FFF7BBFD00287FF4EAAE6FE7204674
:108A0000FFF7B4FD00283FF46AAFEDE6534823F0CA
:108A1000BBF828B9002C3FF462AF032050494BE665
:108A20004E4822F009FF28B9002C3FF458AF03202C
:108A30004C4941E6494824F011F9012804D8474837
:108A400022F0D2FE50B32FE04448FBF7BFFE0025D2
:108A50008046424824F002F9EEB28642EFD2314617
:108A60003E48FBF79FFE414626F0C4FF09A88DED66
:108A7000090ACDED0A0A8DED0B1A27F0DDF8F7EEA5
:108A8000007AB4EEE70AF1EE10FA05F10105E0DD37
:108A9000002C3FF424AF032033490DE6002C3FF4B3
:108AA0001EAF0320314907E62C4824F0C5F8012801
:108AB0007FF6A9AE0025294824F0BEF8EEB2864222
:108AC000BFF4A1AE31462548FBF79AFE064623487F
:108AD000FBF7AAFE0146304626F08CFF09A88DED73
:108AE000090ACDED0A0A8DED0B1A27F0A5F8DFED86
:108AF000207AB4EEE70AF1EE10FA05F10105DADDAD
:108B0000002C3FF4ECAE03201A49D5E51A48FBF7D8
:108B1000DBFB05781948FBF7D7FB03789D427FF410
:108B20008FAE002C3FF4DBAE03201549C4E5002CCA
:108B30003FF4D5AE03201349BEE5002C3FF4CFAE81
:108B400003201149B8E5002C3FF4C9AE03200F49BA
:108B5000B2E500BF78810020BD850A08D01700204B
:108B6000DC850A08F7850A0812860A082E860A0894
:108B70003333B33E48860A08C9140020CA140020C3
:108B800063860A0886860A08A1860A08B9860A0842
:108B9000F8B5714604465A48764670F071F959485E
:108BA000FBF792FB90F900300BB90124A2E0554885
:108BB000FBF78AFB90F90030012B05D05148FBF7F9
:108BC00083FB0378980712D54F4822F059FB4F4B8F
:108BD0009FED4F7AD3ED007AF8EEE77A30EE670A30
:108BE000F0EEC07AF4EEC77AF1EE10FA6DDC45488B
:108BF000FBF76AFB90F90030012B05D04148FBF7E9
:108C000063FB037819070CD5424B1878FBF7CAFBB6
:108C100000285FD14048FBF757FB90F90030032B49
:108C200058D03848FBF750FB90F90030012B05D0A5
:108C30003448FBF749FB03789A0612D5374D05F106
:108C40004A00FBF741FB90F9003053B105F14C00AD
:108C5000B5F8B070FBF75EFBB0F900303FB2BB4235
:108C60003EDC2848FBF730FB90F90030012B05D0A3
:108C70002448FBF729FB0378DB0617D5284D294844
:108C80002B6983EAE377A7EBE377FBF743FBB0F9C4
:108C900000309F4229DC23486D69FBF73BFBB0F9AC
:108CA0000030002DB8BF6D429D421EDC1E4BD86BBC
:108CB00003685B68984701287FF477AF1CB11B49B4
:108CC0000320FFF733FC002414E0002CFBD003202A
:108CD0001749F6E72046FFF749FC0028F3D0A0E744
:108CE000002CF0D003201349EBE7002CEBD003203D
:108CF0001149E6E70248314670F0D4F82046F8BD45
:108D0000918B0008CB14002030130020D4120020D7
:108D10000000C842708100208814002064140020E4
:108D200018840020007F0020F8D80020F4860A086C
:108D300036850A08D5860A08E7860A0838B57146D6
:108D400005460E48744670F09BF8032D10D8DFE8F6
:108D500005F00205080B0320094907E00320094933
:108D600004E00320084901E008490320FFF7DEFB87
:108D700021460248BDE8384070F094B83D8D0008A7
:108D800007870A0819870A082B870A083D870A08F7
:108D900070B5714605461A48764670F071F8FFF7CF
:108DA0001FFB184B1B78C3F3C00434B9164B174A8A
:108DB000CC2000FB0530032107E0DC0908D1124B71
:108DC000134ACC2000FB053003214AF07BFC11E064
:108DD000104BD86B03685B689847012809D10A4B90
:108DE0000D4ACC2000FB053003214AF06BFC002427
:108DF00000E001240248314670F054F8204670BD6E
:108E0000918D00080C1D00207C1A00204E870A0856
:108E10006C870A08F8D800208B870A082DE9F041F2
:108E2000124E04460F4630467146754670F028F8DB
:108E300094ED007AD7ED007AB4EE677AF1EE10FA8D
:108E40000CBF4FF000084FF0010820463946FBF7F1
:108E500089FD4146204643F041FC29460446304600
:108E600070F020F82046BDE8F08100BF1D8E00089C
:108E70002DE9F041104E04460F46304671467546C6
:108E80006FF0FEFF97F9003094F90080B8EB03080B
:108E900018BF4FF0010820463946FCF7EFFC414669
:108EA000204643F01BFC2946044630466FF0FAFF8B
:108EB0002046BDE8F08100BF718E00082DE9F04129
:108EC000104E04460F463046714675466FF0D8FF87
:108ED000B7F90030B4F90080B8EB030818BF4FF0C1
:108EE000010820463946FCF76FFE4146204643F014
:108EF000F5FB2946044630466FF0D4FF2046BDE816
:108F0000F08100BFBD8E00082DE9F0410F4E0446F0
:108F10000F463046714675466FF0B2FF3B682168D8
:108F2000B1EB030818BF4FF0010820463946FEF7A1
:108F3000F5F84146204643F0D1FB29460446304629
:108F40006FF0B0FF2046BDE8F08100BF098F000838
:108F500038B5074D7146284674466FF091FF0548B5
:108F600041F05EFF28462146BDE838406FF09ABFC9
:108F7000518F0008E41E002010B50A48714674465F
:108F80006FF07EFF0848FBF79FF990F9003013B1AE
:108F9000064818F06FF821460248BDE810406FF00F
:108FA00081BF00BF798F00088C14002078810020D9
:108FB000F8B51E4E1E4F2DED028B714607F142048F
:108FC000304675466FF05CFF2046FBF7A3F9B0F919
:108FD00000305B4207EE903A2046B8EEE78AFBF796
:108FE00099F9B0F90000134C00EE900AB0EE480A6F
:108FF000F8EEE00A204610F033FB07F14400FBF7DF
:1090000089F9B0F9000000EE100A2046B8EEC00A57
:1090100010F062FB204611F035F8304629466FF01B
:1090200041FFBDEC028B0120F8BD00BFB18F0008ED
:10903000641400200C7F0020F8B51E4E1E4F2DED4D
:10904000028B714607F14204304675466FF018FFF7
:109050002046FBF75FF9B0F900305B4207EE903A2B
:109060002046B8EEE78AFBF755F9B0F90000134C3B
:1090700000EE900AB0EE480AF8EEE00A204610F042
:10908000EFFA07F14400FBF745F9B0F9000000EEF4
:10909000100A2046B8EEC00A10F01EFB204610F061
:1090A000F1FF304629466FF0FDFEBDEC028B01203A
:1090B000F8BD00BF39900008641400200C7F002028
:1090C00070B529482DED028B714676466FF0D8FEBB
:1090D000264B93F9003033F0020201D000253AE02C
:1090E000234CB4F9B230002BF8DD2248FBF7C2F96B
:1090F00005460028F2D0204B1B7803F0A003202B5C
:10910000ECD104F14200FBF705F9B0F900305B4205
:1091100007EE903A04F14200B8EEE78AFBF7FAF85E
:10912000B0F9000000EE900AB0EE480AF8EEE00A4E
:10913000124810F095FA04F14400FBF7EBF8B0F98F
:10914000000000EE100A0D48B8EEC00A10F0C4FA94
:109150000A4810F097FF044831466FF0A3FEBDECBB
:10916000028B284670BD00BFC190000870810020AE
:1091700064140020841E00200C1D00200C7F0020A1
:1091800038B571462DED028B0546264874466FF0C2
:1091900077FEFBF7A7FA08B92DB93BE0224822F089
:1091A00013F90028F8D0214B214800221A70FBF750
:1091B000ADFD204810F0A6FB1D48FBF7C3FD1D4880
:1091C00010F078FB1C48FBF7A5F8B0F900301A48FE
:1091D0005B4207EE903AB8EEE78AFBF79BF8B0F9EE
:1091E000000000EE900AB0EE480AF8EEE00A1148DE
:1091F00010F036FA1148FBF78DF8B0F9000000EED8
:10920000100A0C48B8EEC00A10F066FA0C4812F0CA
:10921000C1FB0125034821466FF044FEBDEC028BE3
:10922000284638BD819100083013002072190020B3
:10923000341D00200C7F0020A6140020A81400205C
:10924000D083002070B571462DED028B06461E4876
:1092500075466FF015FEFBF745FA044600B956B3A4
:109260001A4812F083FD1A48FBF754F8B0F90030A1
:1092700017485B4207EE903AB8EEE78AFBF74AF8E8
:10928000B0F9000000EE900AB0EE480AF8EEE00AED
:10929000104810F0E5F91048FBF73CF8B0F9000071
:1092A00000EE100A0B48B8EEC00A10F015FA094893
:1092B00010F0E8FE0124044829466FF0F3FDBDECF0
:1092C000028B204670BD00BF45920008341D00206F
:1092D000A61400200C7F0020A814002070B5714651
:1092E0002DED028B0646394875466FF0C9FDFBF738
:1092F000F9F9044608B9002E60D03548354CFBF723
:1093000009F8B0F9003032485B4207EE903AB8EE07
:10931000E78AFAF7FFFFB0F9000000EE900AB0EE1E
:10932000480AF8EEE00A2C4810F09AF92B48FAF7B0
:10933000F1FFB0F9000000EE100A2748B8EEC00AAD
:1093400010F0CAF9244810F09DFE002324486380E1
:10935000A380FAF7DFFFB0F90000DFED227A224B9D
:1093600006EE900AF8EEE66AB2EE0E7AE6EE877A3C
:109370001B789FED1E7A67EE877ADA09C4ED027AD0
:10938000237809D0042262F3020362F3C50318486C
:10939000237012F0EBFC04E062F3020362F3C503F6
:1093A00023706378134843F001036370FBF7AEFD4D
:1093B0000023A385E38584F831300124034829463E
:1093C0006FF070FDBDEC028B204670BDDD92000891
:1093D000A6140020641200200C7F0020A814002096
:1093E0009A1400200000BE420C1D00200AD7233C26
:1093F000341D00208812002010B52DED028B1F486F
:1094000084B0714674466FF03BFDFBF76BF91C4B63
:10941000187058B101A8FBF7B1FC1A4801A912F065
:1094200013FD184801A9012212F04EFC1548FBF764
:10943000B9FC1448B0EE408AFBF7D0FC1248F0EEBD
:10944000400AB0EE480A10F00BF90E48FBF7E2FCB8
:109450000D4810F041F90C4810F014FEFBF7B4FB76
:109460000A4B18600A4B0548002221461A706FF01B
:1094700019FD012004B0BDEC028B10BDF99300086A
:109480008A190020341D00200C7F002018130020B2
:10949000588100202DE9F04171462DED068B804664
:1094A0004B484C4D4C4E4D4C7746F0EE408AB0EE5A
:1094B000609A6FF0E5FCFBF787FB494A1168411A97
:1094C000B1F57A7F034618D9B6F90010A07807EEF7
:1094D000101A617841EA0021E07841EA004141F345
:1094E000170107EE901AB8EEC77AF8EEE77A77EE32
:1094F000677A77EEA87AC5ED007A07EE908AB8F120
:10950000000F1360B8EEE78A04DA364B1B7B13F0CA
:10951000040F04E00AD0334B1B7B13F0080F05D176
:10952000D5ED007AE8EE097AC5ED007AB6F90010BB
:109530002D48D5ED009A09EE101AFCF7F9FBB6F9A3
:1095400000302948B8EEC99A0AEE103A39EE409A2E
:10955000FCF706FCB8EECAAAF0EE490A30EE0A1A89
:10956000B0EE690A24F03EF8A2786378B6F900609C
:109570001E4885ED000A43EA0223E27843EA0243EB
:1095800043F3170307EE903AB8EEE77A07EE906AD6
:10959000F8EEE77A77EE677A77EEE88A78EE808AF7
:1095A000FBF75CF990ED000ADFED110A9FED111A4F
:1095B00028EE800A24F016F80548F0EE408A394675
:1095C0006FF070FC38EE880ABDEC068BBDE8F081C8
:1095D0009594000884190020AC7D0020C81200205A
:1095E000CC7D0020841E00200C7F002078140020F9
:1095F000000016C300001643F8B5194D2DED028B7F
:109600000646B0EE408A28460F46714674466FF013
:1096100037FCB0EE480ADFED130AB7EE001A23F06C
:10962000E1FF28462146B0EE408A6FF03BFC06EE93
:10963000907AB7EE007A37EE487AF8EEE67A06EEE0
:10964000906A67EE277AB8EEE67AE8EE077ABDEC24
:10965000028BFDEEE77A17EE900A00B2F8BD00BF6C
:10966000F99500080000000030B52DED048B04468C
:1096700083B04848714675466FF002FC002C5AD002
:109680004548FAF747FEB0F90030B3F5FA7F52D0FB
:1096900000214FF47A72204623F02AFF04463E4808
:1096A000FAF738FE4FF496714FF42F72B0F90000BC
:1096B00023F01EFF02A921F8020D3748FBF7C4FC76
:1096C000B4F5FA7F40DA3548FAF724FEB0F9000025
:1096D00008EE100A3148FAF71DFEB0F900302E48A6
:1096E000E41A06EE904AB8EEE69AFAF713FEB0F9DD
:1096F00000402A48FAF70EFEB0F900302748E31A76
:1097000008EE903AFAF706FEB0F90030C3F5FA73A6
:10971000F8EEE88A07EE103A68EE898AF8EEC77A22
:10972000B8EEC88AC8EEA78A38EE888ABDEEC88A25
:1097300018EE104AA4B2174829466FF0B3FB20B2C6
:1097400003B0BDEC048B30BD13481FD0FAF7E2FD27
:10975000B0F9000008EE100A0F48FAF7DBFDA4F597
:10976000FA74B0F90030DFED0E7A07EE104AC3F557
:109770007A73B8EEC77A06EE903A27EE277AB8EEFB
:10978000C88AF8EEE67AA7EE278ACFE7FAF7C2FD95
:109790000488D0E769960008B4140020AA140020B9
:1097A0006F12033B2DE9F04B80460E463048714660
:1097B0001D46744617466FF063FB40462D4941F243
:1097C000941223F095FE41F294122A4980463046C5
:1097D00023F08EFE06462848FAF79CFDB0F90020DB
:1097E00041F294139A4203D1A7F800802E8039E009
:1097F0002148DFF88CB0DFF88C90FAF78BFDBBF9CD
:109800000030B0F900209A4214D01B48FAF782FDCC
:1098100003881948ABF80030FAF77CFDB0F9000076
:109820009FED167A07EE900AF8EEE77A67EE877AF0
:10983000C9ED007A06EE908AD9ED007AB8EEE67AA4
:1098400006EE906A27EE277ABDEEC77A17EE103A39
:10985000B8EEE67A3B8067EE277AFDEEE77A17EE00
:10986000903A2B8021460248BDE8F04B6FF01ABBBE
:10987000A59700086CEEFFFF007F002053046939B4
:1098800070190020800D0020F7B50546714632485A
:1098900076466FF0F5FA314B1C78C4F34004002C87
:1098A00052D121464FF47A72284623F021FE054614
:1098B0002B48FAF72FFD4FF4C8722146B0F900008B
:1098C00023F016FE02A921F8020D2548FBF7BCFB88
:1098D0002348FAF71FFDB0F90030C3F5FA739D4233
:1098E0000EDA2048FAF716FDB0F900701C48FAF7B6
:1098F00011FDB0F90040A4F5FA7425447D4316E04B
:109900001748FAF707FDB0F9003003F5FA739D42E6
:1099100017DD1448FAF7FEFCB0F900401048FAF7DA
:10992000F9FC114BB0F900209B1A1D4465430C480B
:10993000FAF7F0FCB0F90040C4F5FA7495FBF4F4C2
:10994000A4B20A4B1C8000E00024034831466FF0AB
:10995000A9FA20B203B0F0BD89980008081F0020C2
:10996000B6140020A61400200CFEFFFFB27E0020DB
:1099700070B52DED048B044682B0404871467546A3
:109980006FF07EFA002C6FDD00214FF47A722046D2
:1099900023F0AEFD04463A48FAF7BCFC4FF42F72B0
:1099A0004FF49671B0F9000023F0A2FD02A921F84E
:1099B000020D3348FBF748FB3248FAF7ABFC068848
:1099C000FCF7B4F836B2864204DD2E48FAF7A2FC62
:1099D00004884AE02C48FAF79DFCB0F9003003F205
:1099E000F313A3423CDB2748FAF794FCB0F90000DC
:1099F00008EE100A2348FAF78DFCB0F90030E41A9B
:109A000007EE104AB8EEC79AFCF790F804461D48D6
:109A1000FAF780FCB0F900301B48E31A08EE903AE0
:109A2000FAF778FCB0F900401648FAF773FCB0F981
:109A3000003004F5FA74E41A07EE104AF8EEE88AEA
:109A4000F8EEC77A68EE898AB8EEC88AC8EEA78AA7
:109A500038EE888ABDEEC88A18EE104AA4B204E037
:109A6000FCF764F8044600E00024044829466FF03F
:109A700019FA20B202B0BDEC048B70BD71990008D8
:109A8000B4140020AA140020B6140020F8B57146C2
:109A90002DED028B04462848B0EE408A75466FF0E3
:109AA000EFF92648FAF736FCB0F90020DFED246A1A
:109AB0009FED247A042392FBF3F39BB21AB2002A9F
:109AC000214AB5EEC08AD2ED027A2288D8BF01239E
:109AD000F1EE10FA67EEC87AACBF38EE268A36EEA1
