:020000040800F2
:10400000F4BF0020ED630708296B0708296B070838
:10401000296B0708296B0708296B0708296B070814
:10402000296B0708296B0708296B0708296B070804
:10403000296B0708296B0708296B0708296B0708F4
:10404000296B0708296B0708296B0708296B0708E4
:10405000296B0708296B0708296B0708296B0708D4
:10406000296B0708296B0708296B0708296B0708C4
:10407000296B0708296B0708296B0708296B0708B4
:10408000296B0708296B0708296B0708296B0708A4
:10409000296B0708296B0708296B0708296B070894
:1040A000296B0708296B0708296B0708296B070884
:1040B000296B0708296B0708296B0708296B070874
:1040C000296B0708296B0708296B0708296B070864
:1040D000296B0708296B0708296B0708296B070854
:1040E000296B0708296B0708296B0708296B070844
:1040F000296B0708296B0708296B0708296B070834
:10410000296B0708296B0708296B0708296B070823
:10411000296B0708296B0708296B0708296B070813
:10412000296B0708296B0708296B0708296B070803
:10413000296B0708296B0708296B0708296B0708F3
:10414000296B0708296B0708296B0708296B0708E3
:10415000296B0708296B0708296B0708296B0708D3
:10416000296B0708296B0708296B0708296B0708C3
:10417000296B0708296B0708296B0708296B0708B3
:10418000296B0708296B070838B5064D7446714638
:10419000284672F085FF2846214672F093FF0020E2
:1041A00038BD00BF89410008F8B50B4E0446714682
:1041B0003046754672F074FF236820461F6ADB6C38
:1041C000984701462046B84729460446304672F0D3
:1041D00079FF2046F8BD00BFA9410008F8B50B4E95
:1041E000044671463046754672F05AFF23682046F1
:1041F0009F6A9B6C984701462046B847294604466B
:10420000304672F05FFF2046F8BD00BFDD41000878
:1042100038B5714605460948744672F041FF284694
:10422000FFF7C2FF10B12846FFF7D8FF0546214629
:10423000024872F047FF284638BD00BF114200080F
:1042400038B5064D74462846714672F029FF284657
:104250002146BDE8384072F035BF00BF414200083A
:1042600038B5064D74467146284672F019FF284647
:10427000214672F027FF012038BD00BF61420008CF
:1042800038B5064D74467146284672F009FF284637
:10429000214672F017FF002038BD00BF81420008A0
:1042A000F8B5084D064674460F462846714672F02A
:1042B000F7FE86F8E17028462146BDE8F84072F026
:1042C00001BF00BFA142000870B5064D744671469B
:1042D0000646284672F0E4FE2846214672F0F2FEB9
:1042E000304670BDC9420008F8B5084D0646744610
:1042F0000F462846714672F0D3FE86F88071284634
:104300002146BDE8F84072F0DDBE00BFE94200087A
:10431000F8B5044671460E4804F13206754672F04F
:10432000BFFE3046676CFFF7CFFF01783846FFF7D6
:10433000B7FFA46B34B13046FFF7C6FF01782046C3
:10434000FFF7D2FF29460248BDE8F84072F0BABE36
:104350001143000870B5084D71460646284674465C
:1043600072F09EFE3046FFF7D3FF28462146BDE897
:10437000704072F0A7BE00BF5543000870B5064DEF
:10438000744671460646284672F08AFE2846214643
:1043900072F098FE304670BD7D43000870B5064D42
:1043A000744671460646284672F07AFE2846214633
:1043B00072F088FE304670BD9D43000870B5074D11
:1043C000064671462846744672F06AFE96F8086101
:1043D0002846214672F076FE304670BDBD43000887
:1043E00070B5084D714606462846744672F058FE70
:1043F0003046FFF7C3FF06782146284672F062FE7A
:10440000304670BDE143000870B5084E0446714661
:104410003046754672F044FE00233046A360636068
:104420002360294672F04EFE204670BD0944000804
:1044300070B5074D744671460646284672F030FE48
:104440002846214672F03EFE06F1580070BD00BFBE
:104450003144000870B5094E714604463046754631
:1044600072F01EFE0648FFF7E3FF07C884E8070066
:1044700030462946BDE8704072F024BE554400081D
:10448000C819002038B5714604460C48754672F0CC
:1044900007FEE01EC0B20D2808D80123834042F277
:1044A0001F101840041C18BF012400E0002403481A
:1044B000294672F007FE204638BD00BF854400083B
:1044C00070B5074D744671460646284672F0E8FD01
:1044D0002846214672F0F6FD06F1680070BD00BF67
:1044E000C144000870B5074D74467146064628461B
:1044F00072F0D6FD2846214672F0E4FD06F18C00EC
:1045000070BD00BFE544000870B5074D74467146A4
:104510000646284672F0C4FD2846214672F0D2FDB8
:1045200006F1B00070BD00BF0945000870B5074D29
:10453000064671462846744672F0B2FD044B1E6072
:1045400028462146BDE8704072F0BCBD2D450008EC
:10455000607C002070B5084D0646714628467446BA
:1045600072F09EFD767B284606F00106214672F029
:10457000A9FD304670BD00BF5545000870B50A4D15
:104580002DED028B714606462846744672F088FD72
:1045900096ED058A2846214672F094FDB0EE480A51
:1045A000BDEC028B70BD00BF7D45000870B50A4DA3
:1045B0002DED028B714606462846744672F070FD5A
:1045C00096ED068A2846214672F07CFDB0EE480A38
:1045D000BDEC028B70BD00BFAD45000870B50A4D43
:1045E0002DED028B714606462846744672F058FD42
:1045F00096ED078A2846214672F064FDB0EE480A1F
:10460000BDEC028B70BD00BFDD450008F8B5074664
:10461000074D0E463E4471462846744672F040FDF2
:10462000767B2846214672F04DFD3046F8BD00BF2E
:104630000D46000870B50B4D714606462846744677
:1046400072F02EFD06F10C00FFF798FE90F9006065
:10465000003618BF01262846214672F033FD304649
:1046600070BD00BF3546000870B5064D74467146F2
:104670000646284672F014FD2846214672F022FDB7
:10468000304670BD69460008F8B50A4D06460F462B
:1046900028467146744672F003FD0C2303FB076045
:1046A0002C30FFF7E1FF21460646284672F00AFD4E
:1046B0003046F8BD8946000870B50B4E0446714679
:1046C0003046754672F0ECFC236820461B6998471B
:1046D00001462046FFF7D8FF29460446304672F0CF
:1046E000F1FC204670BD00BFB9460008F8B5084D82
:1046F000744606460F462846714672F0D1FC28469D
:10470000214672F0DFFC0C2303FB07601030F8BD7C
:10471000ED46000870B50B4E0446714630467546AE
:1047200072F0BEFC236820461B699847014620466C
:10473000FFF7DCFF29460446304672F0C3FC2046F2
:1047400070BD00BF1547000870B5084D064671469C
:104750002846744672F0A4FC36792846C6F3400613
:10476000214672F0AFFC304670BD00BF49470008DB
:10477000F8B5094D0F46064671462846744672F054
:104780008FFC382303FB07662846767F214672F0AC
:1047900099FC3046F8BD00BF7147000870B50A4D5E
:1047A000064671462846744672F07AFC96F89410D4
:1047B000304601F00301FFF7DBFF2146064628469D
:1047C00072F080FC304670BD9D47000838B5124835
:1047D0007146744672F064FC104B1B78D80714D5F0
:1047E0000F48FFF7DBFF02280FD90E48FFF7ACFF99
:1047F00058B90D4B1B78190707D40C4A5278D207C9
:1048000003D49B0601D4012500E00025024821467F
:1048100072F058FC284638BDCD470008F01C002037
:1048200020220020C81C00209C1F00208413002090
:10483000F8B5094D0F46064671462846744672F093
:104840002FFC382307FB03331E442846B688214635
:1048500072F038FC3046F8BD3148000870B50A4D9A
:10486000064671462846744672F01AFC96F8941073
:10487000304601F00301FFF7DBFF214606462846DC
:1048800072F020FC304670BD5D48000870B5064DE2
:10489000744671460646284672F002FC28462146B8
:1048A00072F010FC304670BD8D48000870B5064DA2
:1048B000744671460646284672F0F2FB28462146A9
:1048C00072F000FC304670BDAD48000870B50B4D6D
:1048D0002DED028B714606462846744672F0E0FBC9
:1048E0003046FFF7E3FF90ED008A2146284672F03C
:1048F000E9FBB0EE480ABDEC028B70BDCD48000864
:1049000038B5714604460B48754672F0C9FB0D2C4C
:1049100009D8012303FA04F442F6030323401C1CC4
:1049200018BF012400E000240248294672F0CAFBA7
:10493000204638BD0149000870B5084D064671464D
:104940002846744672F0ACFB337C43F01C0333748E
:1049500028462146BDE8704072F0B4BB39490008D2
:10496000F8B5084D0F46064671462846744672F063
:1049700097FB3B68336028462146BDE8F84072F05B
:10498000A1BB00BF61490008F7B50A4E02AC24ED97
:10499000010A714607463046754672F081FB38467B
:1049A0002146FFF7DDFF3046294672F08BFB03B04E
:1049B000F0BD00BF89490008F7B50A4E02AC24EDEE
:1049C000010A714607463046754672F069FB381D8C
:1049D0002146FFF7C5FF3046294672F073FB03B04E
:1049E000F0BD00BFB9490008F7B50A4E02AC24ED8E
:1049F000010A714607463046754672F051FB07F1D1
:104A000008002146FFF7ACFF3046294672F05AFBFA
:104A100003B0F0BDE9490008F7B50A4E02AC24ED39
:104A2000010A714607463046754672F039FB384632
:104A30002146FFF795FF3046294672F043FB03B04D
:104A4000F0BD00BF194A000870B50B4D2DED028B6B
:104A5000714606462846744672F022FB3046FFF740
:104A600025FF90ED008A2146284672F02BFBB0EE20
:104A7000480ABDEC028B70BD494A000870B50B4D69
:104A80002DED028B714606462846744672F008FBEF
:104A9000301DFFF70BFF90ED008A2146284672F08B
:104AA00011FBB0EE480ABDEC028B70BD7D4A0008D8
:104AB00070B50C4D2DED028B7146064628467446A6
:104AC00072F0EEFA06F10800FFF7F0FE90ED008AB2
:104AD0002146284672F0F6FAB0EE480ABDEC028B89
:104AE00070BD00BFB14A0008F8B50A4D06460F4632
:104AF00028467146744672F0D3FA96F8363067F35A
:104B0000410386F8363028462146BDE8F84072F069
:104B1000D9BA00BFE94A0008F8B5074D0646744601
:104B20000F462846714672F0BBFA77722846214636
:104B3000BDE8F84072F0C6BA194B0008F8B50A4D46
:104B400006460F4628467146744672F0A9FA96F852
:104B5000363067F3C30386F8363028462146BDE871
:104B6000F84072F0AFBA00BF3D4B0008F8B50A4DEF
:104B700006460F4628467146744672F091FA96F83A
:104B8000363067F3451386F8363028462146BDE8AF
:104B9000F84072F097BA00BF6D4B000838B5074D6A
:104BA00071462846744672F07BFA0548FFF748FBC9
:104BB00028462146BDE8384072F084BA9D4B000873
:104BC0004C20002070B5094D71462846744672F09D
:104BD00067FA074B986B03689B689847214606461F
:104BE000284672F06FFA304670BD00BFC54B000812
:104BF000B07A002070B5094D0646714628467446C5
:104C000072F04EFA064B1A7866F304121A702846B0
:104C10002146BDE8704072F055BA00BFF54B000860
:104C20009C1F002070B50C4D2DED028B7146064681
:104C30002846744672F034FA06F12400FFF726FE87
:104C400090ED008A2146284672F03CFAB0EE480A00
:104C5000BDEC028B70BD00BF254C000838B5064D79
:104C600074467146284672F01BFA2846214672F0B7
:104C700029FA012038BD00BF5D4C000870B50A4D0F
:104C80002DED028B0646B0EE408A284671467446EA
:104C900072F006FA86ED1C8ABDEC028B284621468E
:104CA000BDE8704072F00EBA7D4C000838B5084D72
:104CB00071462846744672F0F3F99FED060A0648DD
:104CC000FFF7DCFF2846214672F0FCF9012038BDD1
:104CD000AD4C0008000000003421002070B5094DE3
:104CE000714606462846744672F0DAF906F1080065
:104CF000FFF754FB06882146284672F0E3F9304658
:104D000070BD00BFDD4C000870B50C4D2DED028B61
:104D1000714606462846744672F0C2F906F118003C
:104D2000FFF7B4FD90ED008A2146284672F0CAF9DB
:104D3000B0EE480ABDEC028B70BD00BF094D000803
:104D400070B50C4D2DED028B714606462846744613
:104D500072F0A6F906F12800FFF7A8FD90ED008A91
:104D60002146284672F0AEF9B0EE480ABDEC028B3F
:104D700070BD00BF414D000870B50C4D2DED028B8C
:104D8000714606462846744672F08AF906F12000FC
:104D9000FFF77CFD90ED008A2146284672F092F9DB
:104DA000B0EE480ABDEC028B70BD00BF794D000823
:104DB00070B50C4D2DED028B7146064628467446A3
:104DC00072F06EF906F11C00FFF760FD90ED008AAD
:104DD0002146284672F076F9B0EE480ABDEC028B07
:104DE00070BD00BFB14D000870B50C4D2DED028BAC
:104DF000714606462846744672F052F906F12C00B8
:104E0000FFF744FD90ED008A2146284672F05AF9DA
:104E1000B0EE480ABDEC028B70BD00BFE94D000842
:104E200070B5104E2DED028B714604463046754626
:104E300072F036F904F10800FFF728FD90ED008AC2
:104E400004F11000FFF722FDD0ED007A38EE678AFA
:104E50003046294672F036F9B0EE480ABDEC028BB6
:104E600070BD00BF214E0008F8B5094D06460F463B
:104E700028467146744672F013F9337867F341039C
:104E8000337028462146BDE8F84072F01BB900BFD8
:104E9000694E000838B5714605460748744672F0F9
:104EA000FFF8FFF793FC2146002818BF054602488B
:104EB00072F008F9284638BD954E000870B5084DC7
:104EC000064671462846744672F0EAF8002373607D
:104ED000336028462146BDE8704072F0F3B800BF49
:104EE000BD4E000838B523487146744672F0D8F8B4
:104EF000214B93ED000AB5EE400AF1EE10FA33D0E3
:104F00001E4DD5ED007AF5EE407AF1EE10FA2BD079
:104F10001B48FFF739FD1B4B194893ED000AFFF7BB
:104F20004BFD194B164893ED000AFFF75DFD174B3B
:104F3000174893ED000AFFF76FFD164895ED000A3C
:104F4000FFF722FD144B134893ED000AFFF734FDE1
:104F5000124B104893ED000AFFF746FD104B114825
:104F600093ED000AFFF758FD21460248BDE838409E
:104F700072F0A8B8E54E0008D0200020EC1C0020FC
:104F8000301700200C200020042000208425002061
:104F90003818002050170020C4190020101D0020D0
:104FA0002C1300203C180020F8B5094D06460F468A
:104FB00028467146744672F073F8337967F300033C
:104FC000337128462146BDE8F84072F07BB800BF37
:104FD000A94F000870B5074D06467146284674462D
:104FE00072F05EF836782846214672F06BF830464B
:104FF00070BD00BFD54F0008F8B5084E0F460446F7
:1050000071463046754672F04BF83B882380304637
:10501000294672F057F82046F8BD00BFF94F000846
:1050200070B50A4D2DED028B0646B0EE408A28463B
:105030007146744672F034F886ED048ABDEC028B3A
:1050400028462146BDE8704072F03CB82150000867
:10505000F8B50E4D0E4E714607462846744672F05E
:105060001FF806F14E00FFF799F9B0F90030FB1A6E
:1050700000EE103A06F53A70B8EEC00AFFF7D0FF1E
:1050800028462146BDE8F84072F01CB8515000088F
:10509000EC140020F8B5084E0F4604467146304621
:1050A000754671F0FDFF3B6823603046294672F07B
:1050B00009F82046F8BD00BF95500008F7B50A4E24
:1050C00002AC24ED010A714607463046754671F080
:1050D000E7FF214607F11400FFF7DCFF30462946C1
:1050E00071F0F0FF03B0F0BDBD500008F8B5084EF8
:1050F0000F46044671463046754671F0D1FF3B7845
:1051000023703046294671F0DDFF2046F8BD00BF10
:10511000ED500008F7B50A4E02AC24ED010A7146C5
:1051200007463046754671F0BBFF214607F12C005B
:10513000FFF7B0FF3046294671F0C4FF03B0F0BD61
:105140001551000870B50E4E2DED048B0446B0EEDF
:10515000409AF0EE608AB0EE418A7546714630465C
:1051600071F09EFF84ED009AC4ED018A84ED028AFD
:105170003046294671F0A6FFBDEC048B204670BD79
:105180004551000870B5084D0646714628467446DC
:1051900071F086FF36792846C6F34006214671F045
:1051A00091FF304670BD00BF8551000838B5064DEF
:1051B00074467146284671F073FF2846214671F007
:1051C00081FF002038BD00BFAD51000870B5074D0C
:1051D000064671462846744671F062FFB6F8946040
:1051E0002846214671F06EFF30B270BDCD510008E7
:1051F00070B50A4D2DED028B714606462846744661
:1052000071F04EFF96ED1C8A2846214671F05AFF38
:10521000B0EE480ABDEC028B70BD00BFF151000832
:1052200070B50A4D2DED028B714606462846744630
:1052300071F036FF96ED2C8A2846214671F042FF28
:10524000B0EE480ABDEC028B70BD00BF21520008D1
:1052500070B50A4D2DED028B714606462846744600
:1052600071F01EFF96ED2F8A2846214671F02AFF25
:10527000B0EE480ABDEC028B70BD00BF5152000871
:10528000F8B5084D744606460F462846714671F03B
:1052900007FF2846214671F015FF382303FB0760FE
:1052A0002630F8BD8152000870B50A4D0646714699
:1052B0002846744671F0F4FE96F89410304601F0DA
:1052C0000301FFF7DDFF21460646284671F0FAFE8E
:1052D000304670BDA9520008F8B5084D0646744620
:1052E0000F462846714671F0DBFE86F82870284686
:1052F0002146BDE8F84071F0E5BE00BFD952000874
:10530000F8B50A4D06460F4628467146744671F0B8
:10531000C7FE0C2303FB0760BC30FFF7A5F921464D
:105320000646284671F0CEFE3046F8BD015300080F
:1053300070B50B4E044671463046754671F0B0FEAE
:1053400023682046DB6C984701462046FFF7D8FFCC
:1053500029460446304671F0B5FE204670BD00BFB8
:10536000315300082DE9FF4BDFF864807146404659
:10537000774671F095FE1348FFF7DAFF124B0646A9
:105380000068D3F800909FF097FB04467068D9F846
:1053900000B00D469FF090FBCDE90001B0689FF092
:1053A0008BFBCDE9020122464846DBF82060074925
:1053B0002B46B0474046394604B0BDE8F04B71F08B
:1053C00081BE00BF50180020A81F0020746E0A087C
:1053D00065530008F8B50A4D06460F462846714643
:1053E000744671F05DFE0C2303FB07609830FFF7F5
:1053F0003BF921460646284671F064FE3046F8BD6A
:10540000D553000870B50B4E0446714630467546BC
:1054100071F046FE236820469B6C98470146204663
:10542000FFF7D8FF29460446304671F04BFE204670
:1054300070BD00BF05540008F8B50A4D06460F467A
:1054400028467146744671F02BFE0C2303FB07605F
:105450007430FFF709F921460646284671F032FEFE
:105460003046F8BD3954000870B50B4E04467146FD
:105470003046754671F014FE236820469B6C9847B1
:1054800001462046FFF7D8FF29460446304671F012
:1054900019FE204670BD00BF695400082DE9F04B8D
:1054A000DFF89090204C8CB071464846F04671F081
:1054B000F7FD2046FFF7A6FF07462046FFF7D4FF7B
:1054C0001A4BD3F800B00646DBF8003038680B936F
:1054D0009FF0F2FA044678680D469FF0EDFACDE9A8
:1054E0000001B8689FF0E8FACDE9020130689FF04A
:1054F000E3FACDE9040170689FF0DEFACDE9060118
:10550000B0689FF0D9FACDE908010B9B08491E6AE3
:10551000584622462B46B047484641460CB0BDE8A7
:10552000F04B71F0CFBD00BF50180020A81F002025
:10553000906E0A089D54000870B5084D71460646E5
:105540002846744671F0ACFD3046FEF717FF06782A
:105550002146284671F0B6FD304670BD3955000829
:1055600070B5084D714606462846744671F098FDA0
:10557000701CFEF703FF06782146284671F0A2FD55
:10558000304670BD6155000870B5084D714606463D
:105590002846744671F084FDF01CFEF7EFFE067895
:1055A0002146284671F08EFD304670BD89550008B1
:1055B00070B5084D714606462846744671F070FD78
:1055C000B01CFEF7DBFE06782146284671F07AFD16
:1055D000304670BDB155000838B5714604460A48DA
:1055E000754671F05DFDB4F5966F05DBB4F5E16FBE
:1055F000D4BF0124022400E000240348294671F0AE
:1056000061FD204638BD00BFD9550008F7B50A4DE9
:1056100006460F4628467146744671F041FD02A9C0
:10562000301D01F8017DFFF761FD2846214671F02C
:1056300049FD03B0F0BD00BF0D56000838B5154850
:105640007146754671F02CFD134BB3F9EC3040F206
:10565000CE42934211DDB3F5AA6F10DD40F2D25273
:1056600093420EDD40F2546293420CDD40F2D56469
:10567000A342CCBF0524042406E0002404E0012456
:1056800002E0022400E003240248294671F01AFDDA
:10569000204638BD3D560008EC140020F8B5084DF2
:1056A0000F46064671462846744671F0F9FC3B7871
:1056B000337028462146BDE8F84071F003BD00BFB5
:1056C0009D560008F7B50A4D06460F462846714616
:1056D000744671F0E5FC02A906F1350001F8017D80
:1056E000FFF7DCFF2846214671F0ECFC03B0F0BD6B
:1056F000C556000870B50A4D7146064628467446E0
:1057000071F0CEFC3046FEF739FE90F900600036AD
:1057100018BF01262846214671F0D4FC304670BDE2
:10572000F556000870B5084D714606462846744681
:1057300071F0B6FCB01DFEF731FE06882146284602
:1057400071F0C0FC30B270BD25570008F7B50A4DA6
:1057500006460F4628467146744671F0A1FC02A920
:1057600006F1500001F8017DFFF7C0FC28462146F4
:1057700071F0A8FC03B0F0BD4D57000870B5084D9E
:10578000714606462846744671F08AFC3046FEF79C
:10579000F5FD06782146284671F094FC70B270BD84
:1057A0007D57000838B571462DED028B04460C4834
:1057B0007546B0EE408A71F073FC04F5A470FEF7F4
:1057C000DDFD90F900300648022B08BF84ED5F8AAA
:1057D000BDEC028B2946BDE8384071F073BC00BFB8
:1057E000A557000838B571462DED028B04460C48CC
:1057F0007546B0EE408A71F053FC04F5A470FEF7D4
:10580000BDFD90F900300648012B08BF84ED5F8A8A
:10581000BDEC028B2946BDE8384071F053BC00BF97
:10582000E5570008F8B5094D744606460F46284668
:10583000714671F035FC2846214671F043FC0C237B
:1058400003FB076000F5B270F8BD00BF25580008E3
:10585000F8B50F46074D064606EBC70671462846C3
:10586000744671F01DFC36692846214671F02AFC09
:105870003046F8BD5158000870B5084D06467146CF
:105880002846744671F00CFC96F894602846C6F3DE
:105890008106214671F016FC304670BD795800082B
:1058A00070B5074D064671462846744671F0F8FB00
:1058B00036692846214671F005FC304670BD00BFB0
:1058C000A158000870B50B4D06467146284674462F
:1058D00071F0E6FB084B1A7866F3C3021A70074BA7
:1058E0005A7866F304125A7028462146BDE8704083
:1058F00071F0E8BBC55800089C1F0020687C0020A0
:1059000038B5074D71462846744671F0C9FB054B02
:1059100000221A7028462146BDE8384071F0D2BBFB
:10592000015900087619002070B5074D06467146EA
:105930002846744671F0B4FBB36C9E882846214615
:1059400071F0C0FB30B270BD2959000870B50D4D23
:1059500071462846744671F0A3FB0B48FEF71EFD06
:10596000B0F9000007EE900AFAEEEF7A2846FDEE55
:10597000E77A214617EE906AB6B271F0A3FB30B217
:1059800070BD00BF4D5900083C15002070B5094D91
:1059900071462846744671F083FB074B986B036889
:1059A000DB68984721460646284671F08BFB304657
:1059B00070BD00BF8D590008B07A0020F8B5084DC1
:1059C0000F46064671462846744671F069FB3B88CF
:1059D000338028462146BDE8F84071F073BB00BF14
:1059E000BD590008F8B5074D064674460F462846CF
:1059F000714671F055FBB78028462146BDE8F84056
:105A000071F060BBE5590008F8B5094D06460F4630
:105A100028467146744671F043FB3046B763FEF783
:105A200077FC28462146BDE8F84071F04BBB00BF2B
:105A3000095A000838B5064D74462846714671F07B
:105A40002FFB28462146BDE8384071F03BBB00BF24
:105A5000355A000870B5094D714606462846744609
:105A600071F01EFB064B986B0268B1B2526890470A
:105A700028462146BDE8704071F024BB555A000805
:105A8000B07A002070B50A4D064671462846744625
:105A900071F006FBB369D3ED067AF8EEE77A284693
:105AA000C6ED187A2146BDE8704071F00BBB00BF0F
:105AB000855A000870B50A4D2DED028B71460646D9
:105AC0002846744671F0ECFA96ED2B8A284621465A
:105AD00071F0F8FAB0EE480ABDEC028B70BD00BF61
:105AE000B55A000838B50E4D2DED028B714608EE03
:105AF000100A2846744671F0D3FA0A48FEF7C6FE2B
:105B0000B8EEC88AD0ED007A28EE278A28462146CA
:105B100071F0D8FAB0EE480ABDEC028B38BD00BF78
:105B2000E55A00082017002070B5094E044671465A
:105B30003046754671F0B4FAA0680368DB6A98478E
:105B4000304684ED1C0A2946BDE8704071F0BABAAF
:105B5000295B000870B50A4D2DED028B7146064693
:105B60002846744671F09CFA96ED168A284621461E
:105B700071F0A8FAB0EE480ABDEC028B70BD00BF10
:105B8000555B000870B50A4D2DED028B7146064637
:105B90002846744671F084FA96ED178A2846214605
:105BA00071F090FAB0EE480ABDEC028B70BD00BFF8
:105BB000855B000870B50A4D2DED028B71460646D7
:105BC0002846744671F06CFA96ED188A28462146EC
:105BD00071F078FAB0EE480ABDEC028B70BD00BFE0
:105BE000B55B000870B50C4D06462DED028B714675
:105BF0002846744671F054FAF068FFF7DBFFB0EE08
:105C0000408ABDEEC88A2846214671F05BFA18EE3C
:105C1000100ABDEC028B70BDE55B000870B50A4D43
:105C20002DED028B714606462846744671F038FA0F
:105C300096ED198A2846214671F044FAB0EE480ADA
:105C4000BDEC028B70BD00BF1D5C000870B50C4D33
:105C500006462DED028B71462846744671F020FAF7
:105C6000F068FFF7DBFFB0EE408ABDEEC88A284639
:105C7000214671F027FA18EE100ABDEC028B70BDB8
:105C80004D5C000870B50A4D2DED028B714606463D
:105C90002846744671F004FA96ED108A284621468B
:105CA00071F010FAB0EE480ABDEC028B70BD00BF77
:105CB000855C000810B571462DED028B15487446C1
:105CC00071F0EEF9144B5A789978DB7842EA0122A8
:105CD00042EA034343F31703B3F57A7F05DB0F482A
:105CE000FFF7D0FFB0EE408A0BE00D48FEF756FB01
:105CF000B0F90030002BC8BF5B4207EE903AB8EE17
:105D0000E78A0448214671F0DDF9B0EE480ABDEC9F
:105D1000028B10BDB55C0008552300203421002003
:105D20002C15002070B50C4D06462DED028B7146EA
:105D30002846744671F0B4F9F068FFF73BFFB0EE07
:105D4000408ABDEEC88A2846214671F0BBF918EE9C
:105D5000100ABDEC028B70BD255D000870B50C4DBE
:105D600006462DED028B71462846744671F098F96F
:105D7000F068FFF753FFB0EE408ABDEEC88A2846B0
:105D8000214671F09FF918EE100ABDEC028B70BD30
:105D90005D5D000870B5094D71460646284674469B
:105DA00071F07EF9D6ED0A7AFDEEE77A284617EE15
:105DB000906A214671F086F9304670BD955D000805
:105DC00070B5084D064671462846744671F068F96C
:105DD0000023F386338728462146BDE8704071F0E2
:105DE00071B900BFC15D000870B5074D74467146BA
:105DF0000646284671F054F92846214671F062F9AA
:105E000006F15C0070BD00BFE95D000870B5084D8B
:105E1000064671462846744671F042F9367828469F
:105E200006F00106214671F04DF9304670BD00BF05
:105E30000D5E000870B5064D74467146064628464C
:105E400071F02EF92846214671F03CF9304670BDBC
:105E5000355E000870B50A4D2DED028B0646B0EE9A
:105E6000408A28467146744671F01AF986ED1C8AFC
:105E7000BDEC028B28462146BDE8704071F022B986
:105E8000555E000870B50A4D2DED028B0646B0EE4A
:105E9000408A28467146744671F002F986ED1D8AE3
:105EA000BDEC028B28462146BDE8704071F00AB96E
:105EB000855E000870B504460D462DED028B7146D7
:105EC0006448764671F0ECF82188B5F900200BB2F1
:105ED000002B02DD002A03DA08E009B1002A05DC04
:105EE000002AB8BF5242B2F5E16F01DD2B88A8E06D
:105EF00007EE103A002BF8EEC77A9FED578A50DD77
:105F0000564867EE888AFEF749FAB0F90030032B4D
:105F10000CDD5248FEF742FAB0F90020042392FB50
:105F2000F3F307EE903AB8EEE77A01E0B7EE007AC5
:105F3000F4EEC78AF1EE10FA08DDB4F9003007EE8E
:105F4000903AF8EEE77A27EE888A15E04348FEF7A4
:105F500025FAB0F90030032B0CDD4048FEF71EFA9D
:105F6000B0F90020042392FBF3F308EE103AB8EEE8
:105F7000C88A01E0B7EE008AB4F9003007EE903A23
:105F8000F8EEE77A37EEC88ABDEEC88A18EE103A06
:105F90009BB22380B5F900201BB29342B8BF1346D1
:105FA0004FE02E4867EEC88AFEF7F8F9B0F90030E6
:105FB000032B0CDD2948FEF7F1F9B0F9002004238A
:105FC00092FBF3F307EE103AF8EEC77A01E0F7EE32
:105FD000007AF4EEE78AF1EE10FA08DDB4F9003049
:105FE00007EE903AF8EEE77A27EEC88A15E01B48EC
:105FF000FEF7D4F9B0F90030032B0CDD1748FEF79B
:10600000CDF9B0F90020042392FBF3F308EE103A27
:10601000B8EEC88A01E0B7EE008AB4F9003007EEA6
:10602000903AF8EEE77A38EE278ABDEEC88A18EE85
:10603000103A9BB22380B5F900201BB29342A8BF4F
:106040001346BDEC028B238031460248BDE8704008
:1060500071F038B8B55E0008CDCC4C3C221500205C
:1060600038B50C4D71462846744671F019F80A4B44
:106070001A78052161F302021A70C8225A8300229D
:106080005A805A8EDA8328462146BDE8384071F09E
:1060900019B800BF61600008F412002038B50C4D3B
:1060A00071462846744670F0FBFF0A4B1A780521AA
:1060B00061F3C5021A70C8229A8300229A809A8ED0
:1060C0001A8428462146BDE8384070F0FBBF00BF67
:1060D0009D600008F412002038B533482DED048B84
:1060E0007146754670F0DCFF304B1A78C2F34102FE
:1060F000002A51D05978C8074ED52D4C6FF30001B6
:106100005970B4F96E3007EE103A012AB8EEC77A2A
:106110000AD1284BD3ED006AB4F98E3008EE903ADC
:10612000254BF8EEE88A09E0244BD3ED006AB4F978
:106130008E3008EE903A224BF8EEE88AD3ED007AE2
:10614000204827EEE88A68EEA68AA7EE268AE7EEC0
:10615000278AFFF765F81B48B0EE409AFFF778F8FA
:1061600020EE280A1748A9EE080ABDEEC00A10EE74
:10617000103AA4F86E30FFF76BF81248B0EE409A70
:10618000FFF74EF820EE280AA8EE490ABDEEC00A35
:1061900010EE103AA4F88E30BDEC048B294602486C
:1061A000BDE8384070F08EBFD9600008F01C0020B8
:1061B000EC1400201C0D00201C230020140D0020D6
:1061C00098670020D42500202DE9F0410A4D804633
:1061D0000F4628467146744670F062FF074806680D
:1061E00041463A463668B0472846214670F06AFF75
:1061F0000020BDE8F08100BFC9610008B07A00202E
:1062000070B50B4D064671462846744670F048FF3F
:10621000084B1A7866F382021A70074B5A7866F3B5
:10622000C3025A7028462146BDE8704070F04ABF4C
:10623000016200089C1F0020687C002038B5714670
:1062400004460C48754670F02BFF0B4B1A78C2F3CE
:106250000011A14207D064F304121A70074B1A7898
:1062600064F3C7121A7029460248BDE8384070F03E
:1062700029BF00BF3D620008F01C0020687C0020A0
:1062800038B5714605460948744670F009FF084B59
:1062900006481A78C2F3C001A9421CBF65F3C302C5
:1062A0001A702146BDE8384070F00CBF81620008CA
:1062B000F01C002038B5104D2DED028B714628469C
:1062C000744670F0EDFE0D48FEF758F890F90000A6
:1062D000DFED0B7A07EE100AB8EEC77AB0EE008A4F
:1062E000A7EE278A2846214670F0ECFEB0EE480A59
:1062F000BDEC028B38BD00BFB5620008211500203F
:10630000CDCCCC3D70B5714605461048744670F052
:10631000C7FEFEF757FC06460D48FEF72FF890F92A
:106320000030B3EB962F01D2002508E035B9094BB8
:10633000D86A03681B6A98470028F5D101250348ED
:10634000214670F0BFFE284670BD00BF05630008FF
:10635000FB140020B07A0020F8B5084D74460646BC
:106360000F462846714670F09BFE2846214670F085
:10637000A9FE0C2303FB07604C30F8BD59630008ED
:1063800070B50B4E044671463046754670F088FE77
:1063900023682046DB6C984701462046FFF7DCFF68
:1063A00029460446304670F08DFE204670BD00BF81
:1063B00081630008F8B50F46074D064606EBC70691
:1063C00071462846744670F06BFEF66828462146F2
:1063D00070F078FE3046F8BDB563000870B50A4D20
:1063E000064671462846744670F05AFE96F8941098
:1063F000304601F00301FFF7DDFF2146064628463F
:1064000070F060FE304670BDDD630008F8B5094DE0
:10641000744606460F462846714670F041FE2846EF
:10642000214670F04FFE382307FB0333F018083085
:10643000F8BD00BF0D64000870B50A4D06467146F0
:106440002846744670F02CFE96F89410304601F001
:106450000301FFF7DBFF21460646284670F032FEB7
:10646000304670BD39640008F8B50C4D2DED028B37
:1064700006460F4628467146744670F011FE3823D2
:1064800003FB076696ED0D8A2846214670F01AFE3A
:10649000B0EE480ABDEC028BF8BD00BF696400088D
:1064A00070B50D4D06462DED028B7146284674469B
:1064B00070F0F6FD96F89410304601F00301FFF7F6
:1064C000D3FF2846B0EE408A214670F0FBFDB0EEC7
:1064D000480ABDEC028B70BDA164000838B50546C2
:1064E00071460848744670F0DBFDA88B4FF6FF75C7
:1064F000A84214BF054600252146024870F0E2FD7F
:10650000284638BDDD64000870B50A4D7146064660
:106510002846744670F0C4FD301DFDF72FFF90F93A
:106520000060003618BF01262846214670F0CAFDDB
:10653000304670BD0965000870B5074D06467146C6
:106540002846744670F0ACFD96F82860284621462F
:1065500070F0B8FD304670BD3965000870B5074D64
:10656000064671462846744670F09AFD368E2846D7
:10657000214670F0A7FD304670BD00BF5D65000884
:1065800070B5074D064671462846744670F088FD82
:10659000F66A2846214670F095FD304670BD00BF72
:1065A0008165000870B5064D74467146064628465A
:1065B00070F076FD2846214670F084FD304670BDAF
:1065C000A565000870B50D46044671462448764618
:1065D00070F066FD082D3BD804EB45007230FFF7E4
:1065E000E1FF007807EE900A082DF8EE677A08D0F0
:1065F00094F864300BB9236C1BB1B5EE007A67EEEA
:10660000877AF5EEC07AF1EE10FA21D9254495F893
:106610008430D3B99FED137A94F88D40F4EE477A25
:10662000F1EE10FAC8BFF0EE477A87EE277A06EE51
:10663000904AF8EEE66A012477EE267AFCEEE77AD5
:1066400017EE903A85F8843003E0013B85F88430FA
:1066500000240348314670F035FD204670BD00BF70
:10666000C56500080000484270B5074D7446714684
:106670000646284670F014FD2846214670F022FD9B
:1066800006F19C0070BD00BF6966000870B50C4D36
:106690002DED028B06467146B0EE408A28467446C0
:1066A00070F0FEFCF068B0EE480AFEF7E7FABDECC9
:1066B000028B28462146BDE8704070F003BD00BF44
:1066C0008D66000838B50C461D487146754670F059
:1066D000E7FC6379DB071CD51A48FFF7C5FFA379F0
:1066E000E279817843EA0222237A42EA034243783C
:1066F00043EA0123C17843EA014342F3170243F31B
:1067000017031344C3F30722A371C3F30743E271D2
:106710002372E279A3790C4843EA0223227A43EAFE
:10672000024343F3170300EE103AB8EEC00AFFF736
:10673000ADFF29460248BDE8384070F0C3BC00BF39
:10674000C5660008D4250020181D002070B5094D2D
:10675000714606462846744670F0A2FC06F13700E2
:10676000FDF7B2FD06782146284670F0ABFC3046B6
:1067700070BD00BF4D67000870B5074D06467146F5
:106780002846744670F08CFC367D2846214670F011
:1067900099FC304670BD00BF7967000870B5074EA0
:1067A000044671463046754670F07AFC044B23600F
:1067B0003046294670F086FC204670BD9D67000873
:1067C000085E0A08F8B50A4E04460F463046714680
:1067D000754670F065FC2046FFF7E0FF054B23602F
:1067E00030462771294670F06DFC2046F8BD00BF89
:1067F000C567000888B50A0870B50D4C0646714695
:106800000C48754670F04CFC206803685B690EB15B
:10681000094900E0094998472068094903685B690C
:10682000984729460348BDE8704070F04BBC00BF54
:10683000A81F0020F9670008F2740A08065C0A081D
:10684000AE790A0870B5094D714606462846744669
:1068500070F026FC06F5A470FDF790FD0678214641
:10686000284670F02FFC304670BD00BF4568000818
:10687000F8B50B4D06460F4628467146744670F033
:106880000FFC0C2303FB076000F5A670FDF7ECFE80
:1068900021460646284670F015FC3046F8BD00BF7C
:1068A0007168000870B5094D714606462846744661
:1068B00070F0F6FB06F10800FDF760FD0678214652
:1068C000284670F0FFFB304670BD00BFA568000889
:1068D00038B5714604460D48754670F0E1FB0C482A
:1068E000FDF74CFD90F90030022B05D0032B06D0AC
:1068F0001C1C18BF012403E084F0010400E0042400
:106900000248294670F0DEFB204638BDD1680008F9
:106910002015002070B50E4D2DED028B71460646F8
:106920002846744670F0BCFB3046FFF7B9FD284698
:106930002146B0EE408A70F0C5FBDFED067A28EE06
:10694000278ABCEEC88A18EE100ABDEC028B70BD17
:10695000156900080000C842F8B5094D0F46064603
:1069600071462846744670F09BFB382303FB07668C
:106970002846B66B214670F0A5FB3046F8BD00BF37
:106980005969000870B50A4D064671462846744696
:1069900070F086FB96F89410304601F00301FFF783
:1069A000DBFF21460646284670F08CFB304670BD62
:1069B0008569000838B51348134C2DED028B7146DC
:1069C000754670F06DFB1148FDF7E8FE01280DD902
:1069D0000E48FFF79FFF642808D90C48FFF7D2FF45
:1069E00007EE100AF8EEC77AC4ED007A94ED008A3B
:1069F0000448294670F066FBB0EE480ABDEC028BF5
:106A000038BD00BFB56900082023002020220020E7
:106A100070B50A4D2DED028B714606462846744628
:106A200070F03EFB96ED398A2846214670F04AFB0D
:106A3000B0EE480ABDEC028B70BD00BF116A0008C1
:106A400070B5084E044671463046754670F028FB16
:106A50000023304663602360294670F033FB2046F4
:106A600070BD00BF416A000870B5074D744671469D
:106A70000646284670F014FB2846214670F022FB9B
:106A800006F50B7070BD00BF696A000838B5094D86
:106A900071462846744670F003FB074B01221A70BA
:106AA000FEF774FF054B186021462846BDE83840C4
:106AB00070F008BB8D6A00080C0D0020CC2500206A
:106AC00038B5074D71462846744670F0E9FA054B13
:106AD00000221A7028462146BDE8384070F0F2BA0C
:106AE000C16A00080C0D002070B50A4D2DED028B17
:106AF0000646B0EE408A28467146744670F0D0FAD9
:106B000086ED098ABDEC028B28462146BDE870401F
:106B100070F0D8BAE96A000870B5084D71460646AB
:106B20002846744670F0BCFAB01DFDF7CDFB067820
:106B30002146284670F0C6FA304670BD196B000831
:106B400038B5094D71462846744670F0A9FA074ACF
:106B500000231380064A1360064A13802846214604
:106B6000BDE8384070F0AEBA416B00082423002025
:106B7000301300206C1E002038B5714604460D48C5
:106B8000754670F08DFA0C4B1A8801321A800B4B47
:106B90001A68944288BF1C6040F6B8339C4203D9FF
:106BA000074B1A8801321A8029460248BDE838404E
:106BB00070F088BA796B000824230020301300207D
:106BC0006C1E002070B5074D71462846744670F063
:106BD00067FA054B1E882846214670F073FA304646
:106BE00070BD00BFC56B00082423002070B5074DA1
:106BF00071462846744670F053FA054B1E682846C5
:106C0000214670F05FFA304670BD00BFED6B0008A2
:106C10003013002070B5074D71462846744670F059
:106C20003FFA054B1E882846214670F04BFA304645
:106C300070BD00BF156C00086C1E0020F0B5234F1E
:106C40008BB0044671463846764670F029FA2048E3
:106C5000FFF70AFD62684368DFED1E7AD31A06EE7D
:106C6000903A1D4BA268D3ED000A8368D31AB8EEA0
:106C7000E60AA27806EE903A637843EA0223E278C5
:106C800043EA024343F3170360EEA70AB8EEE67A3D
:106C900001EE103A04AD20EE270A60EE870AB8EE46
:106CA000C11A2846FEF74EFA95E807000AAB03E939
:106CB00007003846314670F005FA9DED070ADDED14
:106CC000080A9DED091A0BB0F0BD00BF3D6C00082D
:106CD000D42500202C7D8E3F280D002038B5064D90
:106CE00074462846714670F0DBF928462146BDE817
:106CF000384070F0E7B900BFDD6C000838B5714668
:106D000005460A48744670F0CBF90023EA180433AC
:106D100000211C2B5160F9D1002385F82030214639
:106D20000248BDE8384070F0CDB900BFFD6C0008E6
:106D300038B504462DED028B71460F48B0EE408AFF
:106D4000754670F0ADF994F820200B48531CDBB267
:106D5000062B84F8203004EB820288BF002382EDEA
:106D6000018A294688BF84F8203070F0ABF9B0EE74
:106D7000480ABDEC028B38BD316D000838B5094DAD
:106D800071462846744670F08BF9074B074AD86B5A
:106D9000116803681B6898472846214670F092F9ED
:106DA000002038BD7D6D0008B07A0020A81F0020AB
:106DB00038B5094D71462846744670F071F9074B95
:106DC0000749186803681B6A984728462146BDE8AA
:106DD000384070F077B900BFB16D0008A81F0020DF
:106DE000C96E0A0838B5064D74467146284670F0DB
:106DF00057F92846214670F065F9002038BD00BFDC
:106E0000E56D0008F8B5084D744606460F4628465D
:106E1000714670F045F92846214670F053F90C236D
:106E200003FB07600430F8BD056E000870B50B4E1B
:106E3000044671463046754670F032F923682046A4
:106E40009B6C984701462046FFF7DCFF2946044625
:106E5000304670F037F9204670BD00BF2D6E000837
:106E6000F8B50A4D06460F4628467146744670F03E
:106E700017F996F8363067F3820386F836302846DD
:106E80002146BDE8F84070F01DB900BF616E0008F2
:106E900070B50B4E044671463046754670F000F9E9
:106EA000236820461B69984701462046FDF7AEFB44
:106EB00029460446304670F005F9204670BD00BFF3
:106EC000916E000838B5094D71462846744670F039
:106ED000E7F8074B0749186803681B6A9847284674
:106EE000214670F0EFF8002038BD00BFC56E0008E5
:106EF000A81F0020DE6E0A0838B5094D71462846E5
:106F0000744670F0CDF8074B986B03680021DB6B7B
:106F100098472846214670F0D5F8002038BD00BFBC
:106F2000F96E0008B07A00202DE9F04B5D4F5E4D00
:106F30005E4C71463846764670F0B2F8D5F800805F
:106F4000D8F8003004F17600D3F82090FDF726FA47
:106F5000B0F900B004F17A00FDF720FA5A4654491E
:106F6000B0F900304046C847D5F80080D8F8003066
:106F700004F19600D3F82090FDF710FAB0F900B0B4
:106F800004F19A00FDF70AFA5A464A49B0F900306E
:106F90004046C847D5F80080D8F8003004F1B60064
:106FA000D3F82090FDF7FAF9B0F900B004F1BA0077
:106FB000FDF7F4F95A464049B0F900304046C84759
:106FC000D5F80080D8F8003004F1D600D3F820902E
:106FD000FDF7E4F9B0F900B004F1DA00FDF7DEF9ED
:106FE0005A463649B0F900304046C847D5F80080C7
:106FF000D8F8003004F1F600D3F82090FDF7CEF970
:10700000B0F900B004F1FA00FDF7C8F95A462C496E
:10701000B0F900304046C847D5F80080D8F80030B5
:1070200004F58B70D3F82090FDF7B8F9B0F900B0F3
:1070300004F58D70FDF7B2F95A462249B0F90030D7
:107040004046C847D5F80080D8F8003004F59B705A
:10705000D3F82090FDF7A2F9B0F900B004F59D70C7
:10706000FDF79CF95A461849B0F900304046C84728
:107070002D682B6804F5AB70D3F82080FDF78EF9EE
:10708000B0F9009004F5AD70FDF788F90F49B0F93B
:1070900000304A462846C04738463146BDE8F04BE6
:1070A00070F010B8296F0008A81F0020EC14002011
:1070B000096F0A08176F0A08256F0A08336F0A0854
:1070C000416F0A084F6F0A085D6F0A086B6F0A0864
:1070D00070B504460D462D48714676466FF0E0FFC8
:1070E0002368102D47D8DFE805F0090D12161A1E87
:1070F0002226462A2E3246363A3E42005B69244911
:10710000204602E05B6923492046984738E05B69E6
:1071100021492046F9E75B6920492046F5E75B698C
:107120001F492046F1E75B691E492046EDE75B6990
:107130001D492046E9E75B691C492046E5E75B6994
:107140001B492046E1E75B691A492046DDE75B6998
:1071500019492046D9E75B6918492046D5E75B699C
:1071600017492046D1E75B6916492046CDE75B69A0
:1071700015492046C9E71B6A144920462A46984704
:1071800031460248BDE870406FF09CBFD1700008E6
:10719000796F0A08836F0A08886F0A08916F0A08D6
:1071A000966F0A08B06F0A089D6F0A08A16F0A0857
:1071B000A86F0A08AD6F0A08B76F0A08BD6F0A0802
:1071C000C36F0A08C86F0A08D16F0A08D96F0A0886
:1071D0002DE9F843124C814688461248714675469F
:1071E00016466FF05DFF20680F4907684A463F6A00
:1071F000B84720684146FFF76BFF20680B490368DA
:107200001B6A9847206803681B6A0EB1084900E0B2
:107210000849984729460348BDE8F8436FF052BF34
:10722000A81F0020D1710008E26F0A08EB6F0A085E
:10723000F76F0A08FB6F0A0870B5084D71462846BB
:1072400074466FF02DFF0648FEF7E0FD2146064626
:1072500028466FF037FF304670BD00BF3972000816
:10726000181D002038B5064D7446714628466FF04B
:1072700017FF284621466FF025FF002038BD00BFCC
:107280006572000870B5074D74467146064628467B
:107290006FF006FF284621466FF014FF06F11C0030
:1072A00070BD00BF8572000870B50A4D2DED028BD0
:1072B00071460646284674466FF0F2FE96ED0C8A3B
:1072C000284621466FF0FEFEB0EE480ABDEC028B68
:1072D00070BD00BFA972000838B5124871467546E6
:1072E0006FF0DEFE1048FEF791FD044698B10F4C9A
:1072F000236813B9FDF766FC2060FDF763FC246882
:107300004FF47A73001BB0FBF3F4094B1B889C42CB
:1073100034BF00240124034829466FF0D3FE2046E1
:1073200038BD00BFD9720008181D0020EC1F0020D6
:107330007825002038B50B48714675466FF0B0FED1
:10734000094B1C783CB1094B1C78033CE4B2012C7E
:107350008CBF00240124034829466FF0B3FE204669
:1073600038BD00BF357300086E1E0020BC19002018
:1073700038B571460C4875466FF092FEFDF722FC59
:107380000A4B1B68C01A0A4B1A6822EAE272904242
:107390004FF0000488BF1C60034888BF01242946C1
:1073A0006FF090FE204638BD7173000890130020E6
:1073B0000820002038B5064D7446714628466FF007
:1073C0006FFE284621466FF07DFE012038BD00BFCC
:1073D000B5730008F8B50A4E07460C4630467146AC
:1073E00075466FF05DFE94E8070007F11C0383E823
:1073F000070030462946BDE8F8406FF063BE00BF85
:10740000D5730008F7B50A4E02AC24ED010A7146A7
:107410000746304675466FF043FE214607F11000DF
:10742000FDF738FE304629466FF04CFE03B0F0BD44
:107430000574000870B50C4D2DED028B71460646A3
:10744000284674466FF02CFE06F11000FDF71EFA78
:1074500090ED008A214628466FF034FEB0EE480ACF
:10746000BDEC028B70BD00BF3574000870B5074DD0
:1074700006467146284674466FF012FEF68F28467F
:1074800021466FF01FFE304670BD00BF6D740008CE
:1074900070B50F4D06467146284674466FF000FEE3
:1074A000FDF790FBD6F805609FED0A7A0A4B07EED0
:1074B000906A67EE877A1860FDEEE77A074BC3EDB6
:1074C000007A28462146BDE870406FF0FBBD00BF42
:1074D0009174000800007A449013002008200020D6
:1074E00070B50D4D06467146284674466FF0D8FDBE
:1074F000D6F805609FED097A094B07EE906A67EEB2
:10750000877A2846FDEEE77A2146C3ED007ABDE88A
:1075100070406FF0D7BD00BFE17400080000C842A2
:107520000820002038B5064D7446284671466FF095
:10753000B7FD28462146BDE838406FF0C3BD00BF07
:1075400025750008F7B50C4D06460F4628467146CE
:1075500074466FF0A5FD07EE107AF8EE477A02A99F
:1075600061ED017A06F10C00FDF7FAF92846214693
:107570006FF0A8FD03B0F0BD4575000870B5064D6D
:1075800074467146064628466FF08AFD2846214615
:107590006FF098FD304670BD7D75000870B5084EDF
:1075A00071460446304675466FF07AFD2046FFF777
:1075B000E5FF304629466FF085FD204670BD00BFCF
:1075C0009D75000870B5084E7146044630467546F4
:1075D0006FF066FD2046FFF7E1FF304629466FF069
:1075E00071FD204670BD00BFC575000870B5084E1E
:1075F00071460446304675466FF052FD2046FFF74F
:10760000BDFF304629466FF05DFD204670BD00BFCE
:10761000ED75000870B5084E714604463046754653
:107620006FF03EFD2046FFF7A9FF304629466FF078
:1076300049FD204670BD00BF1576000870B5084EA4
:1076400071460446304675466FF02AFD2046FFF726
:1076500095FF304629466FF035FD204670BD00BFCE
:107660003D76000870B5084E7146044630467546B2
:107670006FF016FD2046FFF7E1FF304629466FF018
:1076800021FD204670BD00BF6576000870B5074E2D
:1076900004467146304675466FF002FD044B236088
:1076A000304629466FF00EFD204670BD8D760008ED
:1076B000685E0A0870B5094E044671463046754644
:1076C0006FF0EEFC2046FFF7E1FF054B23603046EC
:1076D00029466FF0F7FC204670BD00BFB576000864
:1076E00078BE0A0870B5094E0446714630467546A4
:1076F0006FF0D6FC002330466370A370E3702371F3
:1077000029466FF0DFFC204670BD00BFE57600081B
:1077100070B5094E04467146304675466FF0C0FCA0
:1077200000233046A370E3702371A36029466FF0F5
:10773000C9FC204670BD00BF1177000870B50C4E23
:1077400071460446304675466FF0AAFC201DFFF7CF
:10775000B1FF04F11400FFF7C5FF04F11C00FFF7AF
:10776000D7FF304629466FF0ADFC204670BD00BF04
:107770003D77000870B5084E7146044630467546A0
:107780006FF08EFC04F12400FCF73EFE30462946E3
:107790006FF098FC204670BD7577000870B5074EF5
:1077A00004467146304675466FF07AFC044B236000
:1077B000304629466FF086FC204670BD9D77000854
:1077C000185E0A0870B50C4E044671463046754680
:1077D0006FF066FC2046FFF7E1FF084B23600023B3
:1077E00084F820302046FFF789FA304629466FF0AA
:1077F00069FC204670BD00BFC5770008285E0A08F6
:1078000070B5094E04467146304675466FF048FC27
:107810002046FFF7D7FF054B2360304629466FF01F
:1078200051FC204670BD00BF01780008385E0A0890
:1078300070B5094E71460446304675466FF030FC0F
:107840002046FFF79BFE2046FCF7DEFD304629462A
:107850006FF038FC204670BD3178000870B50C4ED2
:107860002DED028B0446F0EE408AB0EE608A75463C
:10787000714630466FF014FCC4ED008A84ED018A35
:10788000304629466FF01EFCBDEC028B204670BDD1
:107890005D78000870B50C4E04467146304675465A
:1078A0006FF0FEFB4FF07E532362236123600023C1
:1078B000A36063606361E360E361A36130462946CE
:1078C000BDE870406FF0FEBB9578000870B50C4EB7
:1078D00071460446304675466FF0E2FB2046FCF7E1
:1078E00093FD04F10C00FCF78FFD04F11800FCF788
:1078F0008BFD304629466FF0E5FB204670BD00BF8A
:10790000CD7800082DE9F0410A4E04460F46304676
:107910007146754690466FF0C3FB002330462371D5
:10792000A760C4F80C8029466FF0CCFB2046BDE868
:10793000F08100BF0579000870B5084E0446714615
:10794000304675466FF0ACFB002330462370637001
:1079500029466FF0B7FB204670BD00BF397900089B
:1079600070B5084E04467146304675466FF098FB78
:10797000002330462370637029466FF0A3FB204636
:1079800070BD00BF61790008F8B5084E04460F4687
:107990003046714675466FF083FB00233046276002
:1079A000A38029466FF08EFB2046F8BD8979000838
:1079B00070B5074D06467146284674466FF070FB59
:1079C0003678284621466FF07DFB304670BD00BFFB
:1079D000B179000870B5074D0646714628467446D1
:1079E0006FF05EFB3678284621466FF06BFB304621
:1079F00070BD00BFD579000870B5074D06467146C9
:107A0000284674466FF04CFB3678284621466FF0C6
:107A100059FB304670BD00BFF979000870B5074DBD
:107A200006467146284674466FF03AFB367828467B
:107A300021466FF047FB304670BD00BF1D7A00083D
:107A400070B5074D06467146284674466FF028FB10
:107A50003678284621466FF035FB304670BD00BFB2
:107A6000417A000870B5074D0646714628467446AF
:107A70006FF016FB3678284621466FF023FB304620
:107A800070BD00BF657A000870B5074D06467146A7
:107A9000284674466FF004FB3678284621466FF07E
:107AA00011FB304670BD00BF897A000870B5074DE4
:107AB00006467146284674466FF0F2FA3678284634
:107AC00021466FF0FFFA304670BD00BFAD7A000866
:107AD00070B5074D06467146284674466FF0E0FAC9
:107AE0003678284621466FF0EDFA304670BD00BF6B
:107AF000D17A000870B5074D06467146284674468F
:107B00006FF0CEFA3678284621466FF0DBFA304621
:107B100070BD00BFF57A000870B5074D0646714686
:107B2000284674466FF0BCFA3678284621466FF036
:107B3000C9FA304670BD00BF197B000870B5074D0B
:107B400006467146284674466FF0AAFA36782846EB
:107B500021466FF0B7FA304670BD00BF3D7B00088C
:107B600070B5074D06467146284674466FF098FA80
:107B70003678284621466FF0A5FA304670BD00BF22
:107B8000617B000870B5074D06467146284674466D
:107B90006FF086FA3678284621466FF093FA304621
:107BA00070BD00BF857B000870B5074D0646714665
:107BB000284674466FF074FA3678284621466FF0EE
:107BC00081FA304670BD00BFA97B00082DE9F04165
:107BD0000E46804671460E48144675466FF060FAB0
:107BE0000C4B1C800C4B00241E60A7B21C2000FB19
:107BF0000760FFF7DDFE01340028F6D1074B04488B
:107C00001F7029466FF05EFA4046BDE8F08100BF64
:107C1000CD7B0008747C0020707C00206C7C0020F0
:107C200070B5084E71460446304675466FF038FA16
:107C300004F12400FEF704FF304629466FF042FAB3
:107C4000204670BD217C000870B5074E0446714681
:107C5000304675466FF024FA044B236030462946BF
:107C60006FF030FA204670BD497C000880B40A08E5
:107C700070B5074E04467146304675466FF010FAEF
:107C8000044B2360304629466FF01CFA204670BD35
:107C9000717C000890970A0870B5094E0446714639
:107CA000304675466FF0FCF9064B23602046FFF71F
:107CB000DFFF304629466FF005FA204670BD00BF51
:107CC000997C000800980A0870B5074E0446714672
:107CD000304675466FF0E4F9044B23603046294680
:107CE0006FF0F0F9204670BDC97C000868920A0860
:107CF00070B5094E04467146304675466FF0D0F9AE
:107D0000064B23602046FFF79FFF304629466FF061
:107D1000D9F9204670BD00BFF17C000810B50A08F3
:107D200070B5094E04467146304675466FF0B8F995
:107D3000064B23602046FFF7AFFF304629466FF021
:107D4000C1F9204670BD00BF217D000870980A0867
:107D500070B5094E71460446304675466FF0A0F97D
:107D60002046FFF771FF20466FF0A2FA3046294601
:107D70006FF0A8F9204670BD517D000870B5094E1E
:107D800071460446304675466FF08AF92046FFF783
:107D90006FFF20466FF08CFA304629466FF092F95B
:107DA000204670BD7D7D000870B5094E71460446C1
:107DB000304675466FF074F92046FFF76DFF204698
:107DC0006FF076FA304629466FF07CF9204670BD98
:107DD000A97D000870B5094E7146044630467546C7
:107DE0006FF05EF92046FFF76FFF20466FF060FAF4
:107DF000304629466FF066F9204670BDD57D0008F3
:107E000070B5094E71460446304675466FF048F924
:107E10002046FFF76DFF20466FF04AFA30462946AC
:107E20006FF050F9204670BD017E000870B5094E14
:107E300071460446304675466FF032F92046FFF72A
:107E40006FFF20466FF034FA304629466FF03AF95A
:107E5000204670BD2D7E000870B50B4D714628463A
:107E600074466FF01DF9094B09481E78FCF72CFA8F
:107E700031460278074819F08FFA28462146BDE8B6
:107E800070406FF01FB900BF597E000854230020D6
:107E9000FA1400204013002070B5714606460B48C6
:107EA00075466FF0FDF800240948225C1AB12044A1
:107EB000314648F0FDFCCC34B4F5197FF4D12946A5
:107EC0000248BDE870406FF0FDB800BF997E000821
:107ED000601A002038B5074D7146284674466FF089
:107EE000DFF80820FFF7D8FF28462146BDE83840D4
:107EF0006FF0E8B8D57E000838B5074D71462846C2
:107F000074466FF0CDF81B20FFF7C6FF28462146C8
:107F1000BDE838406FF0D6B8F97E000838B5074D97
:107F20007146284674466FF0BBF80020FFF7B4FF97
:107F300028462146BDE838406FF0C4B81D7F0008D0
:107F400038B5094D7146284674466FF0A9F80748C0
:107F500029F092FE064817F0B1FE28462146BDE8FA
:107F600038406FF0AFB800BF417F000808250020FF
:107F7000041E002038B50B48714675466FF090F826
:107F800000240948235C1BB12044084948F036FE10
:107F9000CC34B4F5197FF4D129460248BDE8384005
:107FA0006FF090B8757F0008601A002055800008B7
:107FB00038B571461D4874466FF072F81C4B986BCB
:107FC0000368DB6898471B4B1A881B4B1988914242
:107FD00006D01A80194B1860194B00221A7011E054
:107FE000184B1B7873B1154B17491A68821A8A42CD
:107FF0001D46134B01D901211970197811B1134B8A
:108000009A4205D821460948BDE838406FF05AB871
:1080100028600F48FCF79EFA0028F3D00C48002196
:1080200028F058F90A4828F08FFBEBE7B17F0008E9
:10803000B07A00206C19002080250020CC2500207B
:10804000041D00200C0D002080841E0040420F0003
:10805000B01E002010B57146044612486FF020F89B
:10806000114B20461C60FCF761FA236820461B6C0C
:10807000012198470D4B986B036800215B6905222D
:108080009847FEF71DFD0A48FCF764FA30B108482E
:10809000002128F01FF9064828F056FB054827F074
:1080A00011F8FBE755800008A81F0020B07A0020D7
:1080B000B01E00207C1E002038B5074D71462846B2
:1080C00074466EF0EDFF054826F0FCFF2846214679
:1080D0006EF0F8FF002038BDB98000087C670020F2
:1080E00038B50A4D7146284674466EF0D9FF084BE4
:1080F0000849186803681B6A9847074826F0E2FF9A
:10810000284621466EF0DEFF002038BDE1800008E1
:10811000A81F002000700A08A413002038B5074DDE
:108120007146284674466EF0BBFF054826F0CAFF2C
:10813000284621466EF0C6FF002038BD1D8100088C
:10814000E820002070B5274C27482DED028B7146A2
:1081500075466EF0A5FF6378A678244843EA0626A4
:10816000E37846EA0346FCF719F9B0F9003046F324
:1081700017069E420DDDA278637843EA0223E27877
:1081800043EA024343F3170307EE903AB8EEE78A57
:1081900008E01648FCF702F9B0F9000008EE100AF2
:1081A000B8EEC88A124811F0C7FEC30710D51048B0
:1081B000DFED108AFCF734FE20EE280AB4EEC08A08
:1081C000F1EE10FA04D40A48FCF72AFE20EE288AC1
:1081D000054829466EF076FFB0EE480ABDEC028BEA
:1081E00070BD00BF5523002045810008FC1400200D
:1081F000142000200000C84270B53248714676460F
:108200006EF04EFF304B1B781A0754D42F48FCF702
:10821000B5F890F90030012B05D02C48FCF7AEF8EA
:1082200003785B0644D52A4843F09CF920B92948D5
:1082300043F098F900283ED02748FCF7AFF8B0F992
:10824000003040F21454A34235DC2448FCF7A6F871
:10825000B0F9003040F2A365AB422CDD2048FCF7BA
:108260009DF8B0F90030A34225DC1E48FCF796F8D3
:10827000B0F90030AB421EDD1548FCF78FF8B0F9BD
:108280000030A34217DC1348FCF788F8B0F900303F
:10829000AB4210DD1448FCF781F8B0F90030A3427E
:1082A00009DC1248FCF77AF8B0F90030AB4202DD85
:1082B0000120FDF7E5FF31460248BDE870406EF051
:1082C00001BF00BFF9810008F01C002051150020FB
:1082D000A2150020A61500206215002066150020BA
:1082E0008215002086150020C2150020C61500202A
:1082F00070B5084D71460646284674466EF0D0FEAD
:1083000006F1370043F02EF928462146BDE87040BB
:108310006EF0D8BEF1820008F8B506460F460C484C
:10832000714675466EF0BCFE00240A48225C22B1FC
:10833000204431463A4648F03BFBCC34B4F5197F33
:10834000F3D129460248BDE8F8406EF0BBBE00BF3D
:1083500019830008601A00202DE9F04171462DEDC7
:10836000028B0546264876466EF09AFE254822F096
:10837000A3F926F0EDFB2448B0EE408AFCF7E4F9BF
:10838000074630B11DB121490320FFF7C5FF002486
:108390002DE0FCF71BFA044630B9002DF7D003207E
:1083A0001B49FFF7B9FF22E0B5EE408AF1EE10FA63
:1083B00006D0DFED187AB4EEE78AF1EE10FA04DDAC
:1083C000002DE4D003201449DFE71448FCF746FAF7
:1083D00080461348FBF7E2FFB0F90030984506DD10
:1083E000002DD4D003200F49FFF796FF3C460448E8
:1083F00031466EF067FEBDEC028B2046BDE8F08191
:1084000059830008B8130020C81C00200E700A0809
:1084100021700A080000484235700A082022002016
:10842000121500204A700A0870B52DED028BB94E66
:10843000714684B00446B84875466EF031FE337814
:10844000D90600F13281B548FBF798FF90F900306A
:1084500033B90120FDF7F2FE0120FDF711FF24E101
:10846000FFF7CAFE33781A0705D4002C00F01D81EF
:108470000320AB4914E0A948FBF780FF90F90030D6
:10848000012B05D0A548FBF779FF03789B071ED584
:10849000A44B1B793BB9002C00F00781A2490320B3
:1084A000FFF73AFF01E1A14822F03EF9A04B9FED12
:1084B000A17AD3ED007AF8EEE77A30EE670AF0EEB3
:1084C000C07AF4EEC77AF1EE10FA00F3F680934822
:1084D000FBF754FF90F90030012B05D08F48FBF7D4
:1084E0004DFF03785E0733D593480021FCF78EF8E3
:1084F000002800F0E7809048FCF79CF8002800F086
:10850000E6808D48FCF7D8F807C801AB83E8070080
:10851000184626F01DFBDFED897AB4EEE70AF1EE8E
:1085200010FA00F3DF808448FCF7F4F826F010FB23
:10853000DFED837AB4EEE70AF1EE10FA00F3D780AC
:10854000DFED807AB4EEE70AF1EE10FA00F1CF80A9
:108550007248FBF713FF90F90030012B05D06F48EC
:10856000FBF70CFF037818071AD5774B1878FBF741
:1085700089FF002840F0C0807448FBF7FFFE90F9A7
:108580000030032B00F0B880714811F0F1FC002896
:1085900000F08B806E4811F0CFFC810700F1B380B2
:1085A0005E48FBF7EBFE90F90030012B05D05B48ED
:1085B000FBF7E4FE0378DA060BD5664823F062FA8F
:1085C000002800F0E7806348FBF722FE002800F057
:1085D000E6805248FBF7D2FE90F90030012B05D01F
:1085E0004E48FBF7CBFE03789B065BD55A48FBF75A
:1085F000C5FE90F90030002B40F0D6805748FBF7BD
:10860000BDFE90F90030002B40F0CE805448FBF7BF
:10861000B5FE90F90030BBB15248FBF7BFFEB0F990
:1086200000605148FBF7BAFEB0F900300A339E42B1
:1086300040F3CB804C48FBF7B1FEB0F9002040F28C
:108640008D339A4240F3C1804848FBF7A7FEB0F94A
:108650000030B3F57A7FC0F2BE804448FBF79EFE3F
:10866000B0F90030B3F5FA5F00F3B5804048FCF78D
:108670000DF990ED008A3F48FCF728F9B4EEC08A66
:10868000F1EE10FA00F3AD803B48FCF7FFF890EDF7
:10869000008A3A48FCF71AF9B4EEC08AF1EE10FAF3
:1086A00000F39F800120FDF7C9FD1B4829466EF0AD
:1086B00009FD04B0BDEC028B70BD002CF5D0032089
:1086C0002F49EDE6002CF0D003202E49E8E61A48A9
:1086D00018F002F800287FF414AF002CE5D0032036
:1086E0002949DDE6002CE0D003202849D8E6002CFB
:1086F000DBD003202649D3E62046FFF72DFE0028D5
:108700007FF442AFD1E72046FFF726FE0028CCD009
:1087100046E700BFF01C0020298400085115002006
:1087200060700A084C2000207A700A08B8130020F4
:108730005C1300200000C842642300200000FA43BC
:1087400000A05A4400803943542300201015002013
:1087500014200020501800204F1500205015002034
:1087600036150020A21500203815002028210020F1
:108770002417002038180020281700203C1800205B
:1087800093700A08A9700A08C5700A08E4700A08FC
:1087900005710A08002C88D00320154980E6002CBA
:1087A00083D0032013497BE61348FBF7E7FD0678E7
:1087B0001248FBF7E3FD03789E427FF427AF002CBD
:1087C0003FF473AF03200E496AE6002C3FF46DAF0F
:1087D00003200C4964E6002C3FF467AF03200A49EC
:1087E0005EE6002C3FF461AF0320084958E600BF65
:1087F0001D710A0838710A084F1500205015002015
:1088000050710A0873710A088E710A08A6710A0865
:10881000F8B5714604465A4876466EF041FC594810
:10882000FBF7ACFD90F900300BB90124A2E05548EC
:10883000FBF7A4FD90F90030012B05D05148FBF760
:108840009DFD0378980712D54F4821F06DFF4F4BDF
:108850009FED4F7AD3ED007AF8EEE77A30EE670AB3
:10886000F0EEC07AF4EEC77AF1EE10FA6DDC45480E
:10887000FBF784FD90F90030012B05D04148FBF750
:108880007DFD037819070CD5424B1878FBF7FAFDEC
:1088900000285FD14048FBF771FD90F90030032BB1
:1088A00058D03848FBF76AFD90F90030012B05D00D
:1088B0003448FBF763FD03789A0612D5374D05F16E
:1088C0004A00FBF75BFD90F9003053B105F14C0015
:1088D000B5F8AC70FBF762FDB0F900303FB2BB42B7
:1088E0003EDC2848FBF74AFD90F90030012B05D00B
:1088F0002448FBF743FD0378DB0617D5284D2948AC
:108900002B6983EAE377A7EBE377FBF747FDB0F941
:1089100000309F4229DC23486D69FBF73FFDB0F929
:108920000030002DB8BF6D429D421EDC1E4BD86B3F
:1089300003685B68984701287FF477AF1CB11B4937
:108940000320FFF7E9FC002414E0002CFBD00320F7
:108950001749F6E72046FFF7FFFC0028F3D0A0E711
:10896000002CF0D003201349EBE7002CEBD00320C0
:108970001149E6E7024831466EF0A4FB2046F8BDF7
:108980001188000851150020B81300205C13002046
:108990000000C8425423002010150020EC140020D1
:1089A000D425002028210020B07A0020E1710A0897
:1089B00096700A08C2710A08D4710A0838B571465F
:1089C00005460E4874466EF06BFB032D10D8DFE8A9
:1089D00005F00205080B0320094907E003200949B7
:1089E00004E00320084901E008490320FFF794FC54
:1089F00021460248BDE838406EF064BBBD890008DE
:108A0000F4710A0806720A0818720A082A720A081B
:108A100070B5714605461A4876466EF041FBFFF781
:108A2000EBFB184B1B78C3F3C00434B9164B174A41
:108A3000CC2000FB0530032107E0DC0908D1124BF4
:108A4000134ACC2000FB0530032147F0B1FF11E0B1
:108A5000104BD86B03685B689847012809D10A4B13
:108A60000D4ACC2000FB0530032147F0A1FF002474
:108A700000E00124024831466EF024FB204670BD20
:108A8000118A0008F01C0020601A00203B720A08BE
:108A900059720A08B07A002078720A082DE9F0416C
:108AA000124E04460F463046714675466EF0F8FA8F
:108AB00094ED007AD7ED007AB4EE677AF1EE10FA11
:108AC0000CBF4FF000084FF0010820463946FBF775
:108AD00047FF4146204643F0B9F829460446304650
:108AE0006EF0F0FA2046BDE8F08100BF9D8A0008D4
:108AF0002DE9F041104E04460F463046714675464A
:108B00006EF0CEFA97F9003094F90080B8EB0308C4
:108B100018BF4FF0010820463946FCF7BFFD41461B
:108B2000204643F093F82946044630466EF0CAFAD0
:108B30002046BDE8F08100BFF18A00082DE9F04130
:108B4000104E04460F463046714675466EF0A8FA40
:108B5000B7F90030B4F90080B8EB030818BF4FF044
:108B6000010820463946FCF729FF4146204643F0DC
:108B70006DF82946044630466EF0A4FA2046BDE85A
:108B8000F08100BF3D8B000838B5074D714628467F
:108B900074466EF085FA054841F0DCFA2846214615
:108BA000BDE838406EF08EBA898B0008741F002033
:108BB000F8B51E4E1E4F2DED028B714607F1420493
:108BC000304675466EF06CFA2046FBF7E7FBB0F9CD
:108BD00000305B4207EE903A2046B8EEE78AFBF79A
:108BE000DDFBB0F90000134C00EE900AB0EE480A2D
:108BF000F8EEE00A20460FF089FE07F14400FBF78B
:108C0000CDFBB0F9000000EE100A2046B8EEC00A15
:108C10000FF0B8FE204610F08BFB304629466EF070
:108C200051FABDEC028B0120F8BD00BFB18B0008EA
:108C3000EC14002034210020F8B51E4E1E4F2DEDFF
:108C4000028B714607F14204304675466EF028FAF1
:108C50002046FBF7A3FBB0F900305B4207EE903AE9
:108C60002046B8EEE78AFBF799FBB0F90000134CF9
:108C700000EE900AB0EE480AF8EEE00A20460FF047
:108C800045FE07F14400FBF789FBB0F9000000EE58
:108C9000100A2046B8EEC00A0FF074FE204610F00D
:108CA00047FB304629466EF00DFABDEC028B0120E1
:108CB000F8BD00BF398C0008EC14002034210020DE
:108CC00070B529482DED028B714676466EF0E8F9B5
:108CD000264B93F9003033F0020201D000253AE030
:108CE000234CB4F9AE30002BF8DD2248FBF732FC00
:108CF00005460028F2D0204B1B7803F0A003202B60
:108D0000ECD104F14200FBF749FBB0F900305B42C3
:108D100007EE903A04F14200B8EEE78AFBF73EFB1B
:108D2000B0F9000000EE900AB0EE480AF8EEE00A52
:108D300012480FF0EBFD04F14400FBF72FFBB0F9F4
:108D4000000000EE100A0D48B8EEC00A0FF01AFE3F
:108D50000A4810F0EDFA044831466EF0B3F9BDEC64
:108D6000028B284670BD00BFC18C00085423002030
:108D7000EC140020B01E0020F01C00203421002044
:108D800038B571462DED028B0546264874466EF0C7
:108D900087F9FBF71BFD08B92DB93BE0224821F00C
:108DA00067FD0028F8D0214B214800221A70FBF7FC
:108DB000ABFF20480FF0FCFE1D48FBF7C1FF1D482C
:108DC0000FF0CEFE1C48FBF7E9FAB0F900301A4864
:108DD0005B4207EE903AB8EEE78AFBF7DFFAB0F9AC
:108DE000000000EE900AB0EE480AF8EEE00A1148E2
:108DF0000FF08CFD1148FBF7D1FAB0F9000000EE3E
:108E0000100A0C48B8EEC00A0FF0BCFD0C4811F077
:108E100015FF0125034821466EF054F9BDEC028B85
:108E2000284638BD818D0008B81300205E19002047
:108E3000181D0020342100202E15002030150020A0
:108E40008C25002070B571462DED028B06461E481C
:108E500075466EF025F9FBF7B9FC044600B956B328
:108E60001A4812F0D5F81A48FBF798FAB0F9003012
:108E700017485B4207EE903AB8EEE78AFBF78EFAA6
:108E8000B0F9000000EE900AB0EE480AF8EEE00AF1
:108E900010480FF03BFD1048FBF780FAB0F90000D6
:108EA00000EE100A0B48B8EEC00A0FF06BFD09483F
:108EB00010F03EFA0124044829466EF003F9BDEC97
:108EC000028B204670BD00BF458E0008181D002093
:108ED0002E150020342100203015002070B5714679
:108EE0002DED028B0646394875466EF0D9F8FBF732
:108EF0006DFC044608B9002E60D03548354CFBF7B0
:108F00004DFAB0F9003032485B4207EE903AB8EEC5
:108F1000E78AFBF743FAB0F9000000EE900AB0EEE2
:108F2000480AF8EEE00A2C480FF0F0FC2B48FBF75B
:108F300035FAB0F9000000EE100A2748B8EEC00A72
:108F40000FF020FD244810F0F3F90023244863803B
:108F5000A380FBF723FAB0F90000DFED227A224B61
:108F600006EE900AF8EEE66AB2EE0E7AE6EE877A40
:108F70001B789FED1E7A67EE877ADA09C4ED027AD4
:108F8000237809D0042262F3020362F3C503184870
:108F9000237012F03DF804E062F3020362F3C503AC
:108FA00023706378134843F001036370FBF786FF77
:108FB0000023A385E38584F8313001240348294642
:108FC0006EF080F8BDEC028B204670BDDD8E00088F
:108FD0002E150020F412002034210020301500202E
:108FE000221500200000BE42F01C00200AD7233CBE
:108FF000181D00201813002010B52DED028B1F48FE
:1090000084B0714674466EF04BF8FBF7DFFB1C4BE7
:10901000187058B101A8FBF7F7F91A4801A912F026
:1090200065F8184801A9012211F0A0FF1548FBF7C7
:10903000A3FE1448B0EE408AFBF7BAFE1248F0EEE9
:10904000400AB0EE480A0FF061FC0E48FBF7CCFE78
:109050000D480FF097FC0C4810F06AF9FBF7B2FDD1
:109060000A4B18600A4B0548002221461A706EF020
:1090700029F8012004B0BDEC028B10BDF98F000867
:1090800076190020181D002034210020A013002094
:109090003C230020F8B5194D2DED028B0646B0EEAD
:1090A000408A28460F46714674466DF0F9FFB0EECF
:1090B000480ADFED130AB7EE001A23F011FA28462A
:1090C0002146B0EE408A6DF0FDFF06EE907AB7EED5
:1090D000007A37EE487AF8EEE67A06EE906A67EEA6
:1090E000277AB8EEE67AE8EE077ABDEC028BFDEE61
:1090F000E77A17EE900A00B2F8BD00BF959000081D
:109100000000000030B52DED048B044683B04848C4
:10911000714675466DF0C4FF002C5AD04548FBF7E8
:109120003DF9B0F90030B3F5FA7F52D000214FF489
:109130007A72204623F05AF904463E48FBF72EF98E
:109140004FF496714FF42F72B0F9000023F04EF9EE
:1091500002A921F8020D3748FBF74EFFB4F5FA7F5C
:1091600040DA3548FBF71AF9B0F9000008EE100AAA
:109170003148FBF713F9B0F900302E48E41A06EE37
:10918000904AB8EEE69AFBF709F9B0F900402A4890
:10919000FBF704F9B0F900302748E31A08EE903ADB
:1091A000FBF7FCF8B0F90030C3F5FA73F8EEE88A83
:1091B00007EE103A68EE898AF8EEC77AB8EEC88AE8
:1091C000C8EEA78A38EE888ABDEEC88A18EE104A23
:1091D000A4B2174829466DF075FF20B203B0BDEC6C
:1091E000048B30BD13481FD0FBF7D8F8B0F900004E
:1091F00008EE100A0F48FBF7D1F8A4F5FA74B0F99D
:109200000030DFED0E7A07EE104AC3F57A73B8EE40
:10921000C77A06EE903A27EE277AB8EEC88AF8EEBB
:10922000E67AA7EE278ACFE7FBF7B8F80488D0E7FD
:10923000059100083C150020321500206F12033BF9
:109240002DE9F04B80460E46304871461D46744667
:1092500017466DF025FF40462D4941F2941223F048
:10926000C5F841F294122A498046304623F0BEF8F0
:1092700006462848FBF792F8B0F9002041F2941313
:109280009A4203D1A7F800802E8039E02148DFF808
:109290008CB0DFF88C90FBF781F8BBF90030B0F9A7
:1092A00000209A4214D01B48FBF778F8038819482D
:1092B000ABF80030FBF772F8B0F900009FED167ABA
:1092C00007EE900AF8EEE77A67EE877AC9ED007A42
:1092D00006EE908AD9ED007AB8EEE67A06EE906A4C
:1092E00027EE277ABDEEC77A17EE103AB8EEE67A87
:1092F0003B8067EE277AFDEEE77A17EE903A2B80F7
:1093000021460248BDE8F04B6DF0DCBE41920008FA
:109310006CEEFFFF28210020530469395C190020FE
:10932000100D002070B5714604461C4876466DF05D
:10933000B7FE1B4B1D78C5F340053DBB20462946B3
:109340004FF47A7223F052F8B0F5C87F044607DA7A
:109350001448FBF723F8B0F90030A4F5C87009E011
:10936000B0F5167F0DDD0F48FBF718F8B0F90030A7
:10937000A4F5167058434FF4C87390FBF3F080B215
:1093800000E02846084B0446188000E0002403480B
:1093900031466DF097FE20B270BD00BF25930008E6
:1093A0009C1F00202E150020DA20002070B52DED26
:1093B000048B044682B03A48714675466DF070FEE3
:1093C000002C63DD00214FF47A72204623F00EF862
:1093D00004463448FAF7E2FF4FF42F724FF49671C7
:1093E000B0F9000023F002F802A921F8020D2D487F
:1093F000FBF702FE2C48FAF7D1FF0688FCF7A6FA25
:1094000036B2864204DD2848FAF7C8FF04883EE0F9
:10941000B4F5167F36DA2448FAF7C0FFB0F9000039
:1094200008EE100A2048FAF7B9FFB0F90030E41A44
:1094300007EE104AB8EEC79AFCF788FA04461A48B5
:10944000FAF7ACFFB0F900301748E31A08EE903A8B
:10945000FAF7A4FFB0F90030C3F51673F8EEE88A06
:1094600007EE103A68EE898AF8EEC77AB8EEC88A35
:10947000C8EEA78A38EE888ABDEEC88A18EE104A70
:10948000A4B204E0FCF762FA044600E000240448B9
:1094900029466DF017FE20B202B0BDEC048B70BD02
:1094A000AD9300083C15002032150020F8B5714638
:1094B0002DED028B04462848B0EE408A75466DF0CB
:1094C000EFFD2648FAF76AFFB0F90020DFED246AC5
:1094D0009FED247A042392FBF3F39BB21AB2002A85
:1094E000214AB5EEC08AD2ED027A2288D8BF012384
:1094F000F1EE10FA67EEC87AACBF38EE268A36EE87
:10950000C88A9BB287EE087AD11A1A4409B212B2FD
:1095100047EE277AFDEEE77A17EE900A00B222F0C6
:1095200065FF064620801148FAF738FF07880F4884
:10953000FAF734FF7F42BFB239B2B0F900203046AB
:1095400022F054FFBDEC028B208029460248BDE882
:10955000F8406DF0B7BD00BFAD94000822150020A3
:10956000000070420000FA43F4120020241500208D
:109570002DE9F0412148224D2DED028B71467446B4
:109580006DF08EFD1F48FBF781F9D0ED007AF5EE06
:10959000C07AF1EE10FA02D800232B7025E01A4EA3
:1095A0001A4837683B68D3F80880FAF7E7FE017875
:1095B0003846C047306803685B6998471148B0EE89
:1095C000408AFBF763F9DFED127A28EE278AD0EDA7
:1095D000007A88EE278A0021FF22BDEEC88A18EEA5
:1095E000100A00B222F002FF2870BDEC028B214667
:1095F0000248BDE8F0416DF065BD00BF71950008FF
:10960000042500201C150020601900201A150020D8
:1096100000007F4338B5074D7146284674466DF00B
:109620003FFD054843F050FB28462146BDE8384041
:109630006DF048BD159600086013002038B505464A
:1096400071460D4874466DF02BFDD5F8065007EEB7
:10965000905AF5EEC07AF1EE10FA06DD9FED070A9A
:10966000074827EE800A11F04DFC21460248BDE86C
:1096700038406DF027BD00BF3D9600080000C8428D
:10968000181D002038B51C48714675466DF008FD60
:10969000FDF78EFB4FF47A70FCF7DCF9174C184994
:1096A000206803681B6A98470021164843F0ACF80D
:1096B00040F6B830FCF7CEF9206803689B689847FD
:1096C000002812DC2068104903681B6A98470021B3
:1096D0000C4843F0CFF840F6B830FCF7BBF92068EF
:1096E00003689B6898470028D8DD034829466DF039
:1096F000E9FC002038BD00BF85960008A81F0020A7
:1097000092720A08581300209C720A08F8B5274D77
:1097100027482DED028B714676466DF0C1FC2B7803
:10972000002B3BD0234C244F9FED248A013B2B7010
:10973000637843F001036370B7F96E3000EE103ABE
:10974000B8EEC00A20EE080A22F080FEB7F98E704B
:10975000F0EE408A00EE107AB8EEC00A20EE080A59
:1097600022F074FE16480121B0EE408AFBF7BCF9E6
:1097700029781348D1F10101B0EE680AF0EE480AE9
:1097800038BF002113F0B2F92D783DB90C482946B5
:10979000FBF7AAF9637865F300036370BDEC028BF5
:1097A00031460348BDE8F8406DF08CBC0C1D00202C
:1097B0000D970008687C0020EC1400206F1283399C
:1097C000D425002038B50C48714674466DF068FC0D
:1097D0000A4821F04DF840B10848094D21F082F8BF
:1097E000A860064821F060F8686021460248BDE89C
:1097F00038406DF067BC00BFC5970008B813002063
:109800005523002070B50B4D06462DED028B714699
:10981000284674466DF044FCF0680FF025FA28469F
:10982000B0EE408A21466DF04DFCB0EE480ABDEC2A
:10983000028B70BD0598000838B51148114C71466F
:1098400075466DF02DFC104B1B7823F00202052AA3
:1098500003D10E48FFF7D6FF04E0032B07D10B48D6
:1098600011F070FCBCEEC00A84ED000A01E0002398
:10987000236029460248BDE838406DF023BC00BF94
:10988000399800087C25002054230020181D002052
:1098900038B571460C4875466DF002FCFFF7CCFFF9
:1098A0000A4B0B491A680968074822EAE27291429A
:1098B0004FF0000438BF1C60294638BF01246DF00A
:1098C00001FC204638BD00BF919800080820002008
:1098D0007C25002038B50F480F4C714675466DF059
:1098E000DFFB0E4B1B7823F00202052A03D10C4844
:1098F00012F060FA04E0032B04D1094812F080FA58
:10990000206001E00023236029460248BDE838407A
:109910006DF0D8BBD59800084C18002054230020C7
:10992000181D002010B50948714674466DF0B8FB4B
:10993000074B93F90030032B02D1064826F084FB35
:1099400021460248BDE810406DF0BCBB25990008D7
:1099500054230020201E002038B5084D71462846AB
:1099600074466DF09DFB0648064944F029FF2846E1
:109970002146BDE838406DF0A5BB00BF59990008ED
:10998000781900204C20002070B50F4D8AB0714628
:109990000646284674466DF083FB2822684600215F
:1099A00067F04CF96946304625F048FE0748FBF75A
:1099B00095F96A460146064844F098FA2846214639
:1099C0006DF080FB0AB070BD89990008201E002050
:1099D0007819002070B50B48714675466DF060FB34
:1099E0002824094E0949306803685B699847013C9F
:1099F000F7D1306849F0CAF829460248BDE87040FE
:109A00006DF060BBD5990008A81F002014F00A086B
:109A100038B5714604460A4875466DF041FB002C86
:109A200007DD084B08491868013C24B249F0FAF8F0
:109A3000F5E729460248BDE838406DF043BB00BF5A
:109A4000119A0008A81F00202D900A0838B50D4D66
:109A50007146284674466DF023FB0B4B0B49186882
:109A600003681B6A9847FFF7B5FFFBF77BFCFBF722
:109A700015FD0220FFF7CCFF28462146BDE83840FF
:109A80006DF020BB4D9A0008A81F0020A7720A089D
:109A900038B50C4D7146284674466DF001FB0A4BF3
:109AA0000A491868036878221B6A9847FFF792FFF3
:109AB0000220FFF7ADFF28462146BDE838406DF093
:109AC00001BB00BF919A0008A81F0020AC720A08D1
:109AD00038B50C4D7146284674466DF0E1FA0A4BD4
