:020000040800F2
:10400000F41E012065A20708A1A90708A1A90708B5
:10401000A1A90708A1A90708A1A90708A1A907083C
:10402000A1A90708A1A90708A1A90708A1A907082C
:10403000A1A90708A1A90708A1A90708A1A907081C
:10404000A1A90708A1A90708A1A90708A1A907080C
:10405000A1A90708A1A90708A1A90708A1A90708FC
:10406000A1A90708A1A90708A1A90708A1A90708EC
:10407000A1A90708A1A90708A1A90708A1A90708DC
:10408000A1A90708A1A90708A1A90708A1A90708CC
:10409000A1A90708A1A90708A1A90708A1A90708BC
:1040A000A1A90708A1A90708A1A90708A1A90708AC
:1040B000A1A90708A1A90708A1A90708A1A907089C
:1040C000A1A90708A1A90708A1A90708A1A907088C
:1040D000A1A90708A1A90708A1A90708A1A907087C
:1040E000A1A90708A1A90708A1A90708A1A907086C
:1040F000A1A90708A1A90708A1A90708A1A907085C
:10410000A1A90708A1A90708A1A90708A1A907084B
:10411000A1A90708A1A90708A1A90708A1A907083B
:10412000A1A90708A1A90708A1A90708A1A907082B
:10413000A1A90708A1A90708A1A90708A1A907081B
:10414000A1A90708A1A90708A1A90708A1A907080B
:10415000A1A90708A1A90708A1A90708A1A90708FB
:10416000A1A90708A1A90708A1A90708A1A90708EB
:10417000A1A90708A1A90708A1A90708A1A90708DB
:10418000A1A90708A1A9070870B5064D7446714694
:104190000646284676F0C4FE2846214676F0D2FE32
:1041A000304670BD8941000838B5064D74467146E9
:1041B000284676F0B5FE2846214676F0C3FE00205C
:1041C00038BD00BFA941000838B5064D74462846E1
:1041D000714676F0A5FE28462146BDE8384076F0C7
:1041E000B1BE00BFC941000870B5074D0646714613
:1041F0002846744676F094FE96F88161284621465A
:1042000076F0A0FE304670BDE9410008F8B5084DD3
:10421000064674460F462846714676F081FE86F8BB
:10422000E17028462146BDE8F84076F08BBE00BF1D
:104230000D420008F8B5084D064674460F4628465C
:10424000714676F06DFE86F8807128462146BDE8FD
:10425000F84076F077BE00BF35420008F8B5044656
:1042600071460E4804F13206754676F059FE304626
:10427000676CFFF789FF01783846FFF7C7FFA46B2B
:1042800034B13046FFF780FF01782046FFF7D2FFB8
:1042900029460248BDE8F84076F054BE5D42000869
:1042A00070B5084D714606462846744676F038FECD
:1042B0003046FFF7D3FF28462146BDE8704076F030
:1042C00041BE00BFA142000870B5064D744671465C
:1042D0000646284676F024FE2846214676F032FE31
:1042E000304670BDC9420008F8B5094D06460F4674
:1042F00028467146744676F013FE737B67F34403D9
:10430000737328462146BDE8F84076F01BBE00BF17
:10431000E942000870B5064D7446714606462846C7
:1043200076F0FEFD2846214676F00CFE304670BD44
:104330001543000870B5074D064671462846744679
:1043400076F0EEFD96F808612846214676F0FAFDF3
:10435000304670BD3543000870B5084D71460646BD
:104360002846744676F0DCFD3046FFF7ADFF067850
:104370002146284676F0E6FD304670BD59430008D8
:1043800070B5074D744671460646284676F0C8FD5E
:104390002846214676F0D6FD06F1580070BD00BFD4
:1043A0008143000838B5714604460C48754676F0DE
:1043B000B7FDE01EC0B20D2808D80123834042F2A9
:1043C0001F101840041C18BF012400E000240348FB
:1043D000294676F0B7FD204638BD00BFA54300084A
:1043E00070B5074D744671460646284676F098FD2E
:1043F0002846214676F0A6FD06F1680070BD00BF94
:10440000E143000870B5074D7446714606462846DC
:1044100076F086FD2846214676F094FD06F18C0064
:1044200070BD00BF0544000870B5074D7446714665
:104430000646284676F074FD2846214676F082FD31
:1044400006F1B00070BD00BF2944000870B5074DEB
:10445000064671462846744676F062FD044B1E609F
:1044600028462146BDE8704076F06CBD4D440008FA
:1044700098DC002070B5084D064671462846744603
:1044800076F04EFD767B284606F00106214676F052
:1044900059FD304670BD00BF7544000870B50A4D27
:1044A0002DED028B714606462846744676F038FD9F
:1044B00096ED078A2846214676F044FDB0EE480A7C
:1044C000BDEC028B70BD00BF9D44000870B50A4D65
:1044D0002DED028B714606462846744676F020FD87
:1044E00096ED098A2846214676F02CFDB0EE480A62
:1044F000BDEC028B70BD00BFCD44000870B50A4D05
:104500002DED028B714606462846744676F008FD6E
:1045100096ED0A8A2846214676F014FDB0EE480A48
:10452000BDEC028B70BD00BFFD44000870B5094DA5
:10453000064671462846744676F0F2FC367906F057
:104540000306F31E5E425E412846214676F0FAFCE1
:10455000304670BD2D450008F8B50746074D0E469C
:104560003E4471462846744676F0DAFC767B28464F
:10457000214676F0E7FC3046F8BD00BF59450008FB
:1045800070B5064D744671460646284676F0C8FC5E
:104590002846214676F0D6FC304670BD814500089D
:1045A000F8B50A4D06460F4628467146744676F021
:1045B000B7FC0C2303FB07602C30FFF7E1FF21461B
:1045C0000646284676F0BEFC3046F8BDA1450008F8
:1045D00070B50B4E044671463046754676F0A0FC29
:1045E000236820461B69984701462046FFF7D8FFFD
:1045F00029460446304676F0A5FC204670BD00BF33
:10460000D1450008F8B5084D744606460F462846C1
:10461000714676F085FC2846214676F093FC0C2303
:1046200003FB07601030F8BD0546000870B50B4E5F
:10463000044671463046754676F072FC2368204683
:104640001B69984701462046FFF7DCFF29460446D0
:10465000304676F077FC204670BD00BF2D4600083E
:1046600070B5084D064671462846744676F058FCEB
:1046700036792846C6F34006214676F063FC30467C
:1046800070BD00BF61460008F8B5094D0F460646EB
:1046900071462846744676F043FC382303FB0766D0
:1046A0002846767F214676F04DFC3046F8BD00BFA7
:1046B0008946000870B50A4D06467146284674467C
:1046C00076F02EFC96F89410304601F00301FFF7C7
:1046D000DBFF21460646284676F034FC304670BDA6
:1046E000B546000838B512487146744676F018FC95
:1046F000104B1B78D80714D50F48FFF7DBFF0228B3
:104700000FD90E48FFF7ACFF58B90D4B1B781907AE
:1047100007D40C4A5278D20703D49B0601D4012552
:1047200000E000250248214676F00CFC284638BD02
:10473000E5460008F01E00204C8200208C1E002060
:1047400078210020D4130020F8B5094D0F46064605
:1047500071462846744676F0E3FB382307FB0333A3
:104760001E442846B688214676F0ECFB3046F8BD5C
:104770004947000870B50A4D0646714628467446FA
:1047800076F0CEFB96F89410304601F00301FFF767
:10479000DBFF21460646284676F0D4FB304670BD46
:1047A0007547000870B5064D7446714606462846A2
:1047B00076F0B6FB2846214676F0C4FB304670BD45
:1047C000A547000870B5064D744671460646284652
:1047D00076F0A6FB2846214676F0B4FB304670BD45
:1047E000C547000870B50B4D2DED028B714606468E
:1047F0002846744676F094FB3046FFF7E3FF90EDD1
:10480000008A2146284676F09DFBB0EE480ABDECB2
:10481000028B70BDE547000838B5714604460B4869
:10482000754676F07DFB0D2C09D8012303FA04F4BC
:1048300042F6030323401C1C18BF012400E000249F
:104840000248294676F07EFB204638BD194800080C
:1048500070B5084D064671462846744676F060FBF2
:10486000337C43F01C03337428462146BDE8704076
:1048700076F068BB5148000870B50B4D714606468E
:104880002846744676F04CFB06F10C00FFF71CFD41
:1048900090F90060003618BF01262846214676F0C0
:1048A00051FB304670BD00BF79480008F8B50A4D8D
:1048B00006460F4628467146744676F031FB96F858
:1048C000363067F3410386F8363028462146BDE886
:1048D000F84076F037BB00BFAD480008F8B5074D8B
:1048E000064674460F462846714676F019FB7772E5
:1048F00028462146BDE8F84076F024BBDD48000894
:10490000F8B50A4D06460F4628467146744676F0BD
:1049100007FB96F8363067F3C30386F8363028462F
:104920002146BDE8F84076F00DBB00BF0149000804
:10493000F8B50A4D06460F4628467146744676F08D
:10494000EFFA96F8363067F3451386F83630284686
:104950002146BDE8F84076F0F5BA00BF31490008BD
:1049600038B5074D71462846744676F0D9FA0548A1
:10497000FFF72AFC28462146BDE8384076F0E2BA27
:10498000614900083880002070B5094D71462846FD
:10499000744676F0C5FA074B986B03689B68984796
:1049A00021460646284676F0CDFA304670BD00BF57
:1049B00089490008E4DA002070B5094D06467146C1
:1049C0002846744676F0ACFA064B1A7866F3041261
:1049D0001A7028462146BDE8704076F0B3BA00BF91
:1049E000B94900087821002070B50C4D2DED028BDF
:1049F000714606462846744676F092FA06F124007F
:104A0000FFF7D0FE90ED008A2146284676F09AFA0C
:104A1000B0EE480ABDEC028B70BD00BFE94900084A
:104A200070B50B4D714606462846744676F078FA06
:104A300006F19700FFF748FC90F90060003618BFB8
:104A400001262846214676F07DFA304670BD00BF2B
:104A5000214A0008F8B50A4D06460F462846714619
:104A6000744676F05DFA96F8983067F3041386F88A
:104A7000983028462146BDE8F84076F063BA00BF7A
:104A8000554A000838B5094D71462846744676F0F7
:104A900047FA0748FFF7C4FF01460648FFF7DAFF69
:104AA0002846214676F04EFA012038BD854A000896
:104AB00060200020541B002070B50A4D2DED028BA4
:104AC0000646B0EE408A28467146744676F028FACB
:104AD00086ED1C8ABDEC028B28462146BDE870405D
:104AE00076F030BAB94A000838B5084D7146284604
:104AF000744676F015FA9FED060A0648FFF7DCFFCC
:104B00002846214676F01EFA012038BDE94A000801
:104B1000000000001C81002070B5094D714606465A
:104B20002846744676F0FCF906F10800FFF7F2FB20
:104B300006882146284676F005FA304670BD00BF4B
:104B4000194B000870B50C4D2DED028B71460646D1
:104B50002846744676F0E4F906F11800FFF722FEC5
:104B600090ED008A2146284676F0ECF9B0EE480A2E
:104B7000BDEC028B70BD00BF454B000870B50C4DFD
:104B80002DED028B714606462846744676F0C8F92C
:104B900006F12800FFF716FE90ED008A2146284610
:104BA00076F0D0F9B0EE480ABDEC028B70BD00BFC4
:104BB0007D4B000870B5084E044671463046754678
:104BC00076F0AEF900233046A36063602360294687
:104BD00076F0B8F9204670BDB54B000870B50C4DA5
:104BE0002DED028B714606462846744676F098F9FC
:104BF00006F12000FFF7D6FD90ED008A21462846F9
:104C000076F0A0F9B0EE480ABDEC028B70BD00BF93
:104C1000DD4B000870B50C4D2DED028B714606463C
:104C20002846744676F07CF906F11C00FFF7BAFDC1
:104C300090ED008A2146284676F084F9B0EE480AC5
:104C4000BDEC028B70BD00BF154C000870B50C4D5B
:104C50002DED028B714606462846744676F060F9C3
:104C600006F12C00FFF79EFD90ED008A21462846B4
:104C700076F068F9B0EE480ABDEC028B70BD00BF5B
:104C80004D4C000870B5104E2DED028B7146044658
:104C90003046754676F044F904F10800FFF782FDCE
:104CA00090ED008A04F11000FFF77CFDD0ED007A52
:104CB00038EE678A3046294676F044F9B0EE480A65
:104CC000BDEC028B70BD00BF854C000870B5074D70
:104CD000744671460646284676F022F92846214653
:104CE00076F030F906F19C0070BD00BFCD4C000895
:104CF000F8B5094D06460F4628467146744676F0CB
:104D00000FF9337867F34103337028462146BDE835
:104D1000F84076F017B900BFF14C000838B571467D
:104D200005460748744676F0FBF8FFF7DBFC2146A2
:104D3000002818BF0546024876F004F9284638BD19
:104D40001D4D000870B5084D06467146284674464C
:104D500076F0E6F800237360336028462146BDE80C
:104D6000704076F0EFB800BF454D000870B5074DB4
:104D7000064671462846744676F0D2F836782846BC
:104D8000214676F0DFF8304670BD00BF6D4D00085B
:104D9000F8B5084E0F46044671463046754676F023
:104DA000BFF83B8823803046294676F0CBF8204672
:104DB000F8BD00BF914D000870B50A4D2DED028B76
:104DC0000646B0EE408A28467146744676F0A8F84A
:104DD00086ED048ABDEC028B28462146BDE8704072
:104DE00076F0B0B8B94D0008F8B50E4D0E4E7146CC
:104DF00007462846744676F093F806F14E00FFF712
:104E000089FAB0F90030FB1A00EE103A06F55F702F
:104E1000B8EEC00AFFF7D0FF28462146BDE8F840AB
:104E200076F090B8E94D00083C150020F8B5084E22
:104E30000F46044671463046754676F071F83B6879
:104E400023603046294676F07DF82046F8BD00BF45
:104E50002D4E0008F7B502AC094E24F8021D074696
:104E600071463046754676F05BF8214607F18A00B8
:104E7000FFF78EFF3046294676F064F803B0F0BDA8
:104E8000554E0008F7B50A4E02AC24ED010A7146F2
:104E900007463046754676F043F8214607F1140080
:104EA000FFF7C4FF3046294676F04CF803B0F0BD5A
:104EB000854E0008F8B5084D0F460646714628464F
:104EC000744676F02DF83B68336028462146BDE8ED
:104ED000F84076F037B800BFB54E0008F7B50A4E77
:104EE00002AC24ED010A714607463046754676F05D
:104EF00017F838462146FFF7DDFF3046294676F0A1
:104F000021F803B0F0BD00BFDD4E0008F7B50A4E32
:104F100002AC24ED010A714607463046754675F02D
:104F2000FFFF07F120002146FFF7C4FF3046294666
:104F300076F008F803B0F0BD0D4F0008F8B5084E44
:104F40000F46044671463046754675F0E9FF3B78DA
:104F500023703046294675F0F5FF2046F8BD00BFA6
:104F60003D4F0008F7B50A4E02AC24ED010A714628
:104F700007463046754675F0D3FF38462146FFF7A1
:104F800099FF3046294675F0DDFF03B0F0BD00BF44
:104F9000654F0008F7B50A4E02AC24ED010A7146D0
:104FA00007463046754675F0BBFF381D2146FFF7B2
:104FB00081FF3046294675F0C5FF03B0F0BD00BF44
:104FC000954F0008F7B50A4E02AC24ED010A714670
:104FD00007463046754675F0A3FF07F108002146E5
:104FE000FFF768FF3046294675F0ACFF03B0F0BD0F
:104FF000C54F0008F7B50A4E02AC24ED010A714610
:1050000007463046754675F08BFF214607F12C00A8
:10501000FFF70CFF3046294675F094FF03B0F0BD52
:10502000F54F000870B50E4E2DED048B0446B0EE22
:10503000409AF0EE608AB0EE418A7546714630467D
:1050400075F06EFF84ED009AC4ED018A84ED028A4A
:105050003046294675F076FFBDEC048B204670BDC6
:105060002550000870B5084D06467146284674461E
:1050700075F056FF36792846C6F34006214675F08E
:1050800061FF304670BD00BF6550000870B5044632
:105090000E460B487146754675F042FF94F8403055
:1050A0000748C3F381039E42B6BF04EBC604002445
:1050B00094F82C40294675F045FF204670BD00BF8E
:1050C0008D50000870B50A4D064671462846744654
:1050D00075F026FF96F84010304601F00301FFF707
:1050E000D5FF21460646284675F02CFF304670BD98
:1050F000C5500008F8B50F46074D064606EBC70633
:1051000071462846744675F00BFF368D28462146B9
:1051100075F018FF3046F8BDF550000870B50A4D1F
:10512000064671462846744675F0FAFE96F8401019
:10513000304601F00301FFF7DDFF21460646284611
:1051400075F000FF304670BD1D510008F8B50A4DDE
:1051500006460F4628467146744675F0E1FE06EB9A
:1051600047001E30FFF7D6F806882146284675F01E
:10517000E9FE30B2F8BD00BF4D51000870B50A4DD0
:10518000064671462846744675F0CAFE96F84010E9
:10519000304601F00301FFF7D9FF214606462846B5
:1051A00075F0D0FE304670BD7D510008F8B50A4D4F
:1051B00006460F4628467146744675F0B1FE06EB6A
:1051C00047002230FFF7A6F806882146284675F0EA
:1051D000B9FE30B2F8BD00BFAD51000870B50A4D40
:1051E000064671462846744675F09AFE96F84010B9
:1051F000304601F00301FFF7D9FF21460646284655
:1052000075F0A0FE304670BDDD51000870B5074D49
:10521000064671462846744675F082FEB6F89460DC
:105220002846214675F08EFE30B270BD0D52000842
:1052300070B50A4D2DED028B714606462846744620
:1052400075F06EFE96ED1C8A2846214675F07AFEB2
:10525000B0EE480ABDEC028B70BD00BF31520008B1
:1052600070B50A4D2DED028B7146064628467446F0
:1052700075F056FE96ED2C8A2846214675F062FEA2
:10528000B0EE480ABDEC028B70BD00BF6152000851
:1052900070B50A4D2DED028B7146064628467446C0
:1052A00075F03EFE96ED2F8A2846214675F04AFE9F
:1052B000B0EE480ABDEC028B70BD00BF91520008F1
:1052C000F8B5084D744606460F462846714675F0F7
:1052D00027FE2846214675F035FE382303FB07607C
:1052E0002630F8BDC152000870B50A4D0646714619
:1052F0002846744675F014FE96F89410304601F076
:105300000301FFF7DDFF21460646284675F01AFE29
:10531000304670BDE9520008F8B5084D064674469F
:105320000F462846714675F0FBFD86F82870284622
:105330002146BDE8F84075F005BE00BF19530008CE
:10534000F8B50A4D06460F4628467146744675F074
:10535000E7FD0C2303FB0760BC30FFF711F9214682
:105360000646284675F0EEFD3046F8BD415300086C
:1053700070B50B4E044671463046754675F0D0FD4B
:10538000236820461B6D984701462046FFF7D8FF4B
:1053900029460446304675F0D5FD204670BD00BF55
:1053A000715300082DE9FF4BDFF8648071464046D9
:1053B000774675F0B5FD1348FFF7DAFF124B064646
:1053C0000068D3F80090A3F00FFA04467068D9F88B
:1053D00000B00D46A3F008FACDE90001B068A3F0D3
:1053E00003FACDE9020122464846DBF8206007496E
:1053F0002B46B0474046394604B0BDE8F04B75F047
:10540000A1BD00BF38190020F080002054AB0A086D
:10541000A5530008F8B50A4D06460F4628467146C2
:10542000744675F07DFD0C2303FB07609830FFF791
:10543000A7F821460646284675F084FD3046F8BD9B
:105440001554000870B50B4E04467146304675463B
:1054500075F066FD23682046DB6C984701462046C0
:10546000FFF7D8FF29460446304675F06BFD20460D
:1054700070BD00BF45540008F8B50A4D06460F46FA
:1054800028467146744675F04BFD0C2303FB0760FC
:105490007430FFF775F821460646284675F052FD30
:1054A0003046F8BD7954000870B50B4E044671467D
:1054B0003046754675F034FD23682046DB6C98470E
:1054C00001462046FFF7D8FF29460446304675F0CE
:1054D00039FD204670BD00BFA95400082DE9F04BEE
:1054E000DFF89090204C8CB071464846F04675F03D
:1054F00017FD2046FFF7A6FF07462046FFF7D4FF1B
:105500001A4BD3F800B00646DBF8003038680B932E
:10551000A3F06AF9044678680D46A3F065F9CDE971
:105520000001B868A3F060F9CDE902013068A3F08A
:105530005BF9CDE904017068A3F056F9CDE90601E5
:10554000B068A3F051F9CDE908010B9B08491E6A28
:10555000584622462B46B047484641460CB0BDE867
:10556000F04B75F0EFBC00BF38190020F080002030
:1055700070AB0A08DD54000870B5084D7146064648
:105580002846744675F0CCFC3046FEF79DFE067842
:105590002146284675F0D6FC304670BD7955000886
:1055A00070B5084D714606462846744675F0B8FC3D
:1055B000701CFEF789FE06782146284675F0C2FC6D
:1055C000304670BDA155000870B5084D71460646BD
:1055D0002846744675F0A4FCF01CFEF775FE0678AC
:1055E0002146284675F0AEFC304670BDC95500080E
:1055F00070B5084D714606462846744675F090FC15
:10560000B01CFEF761FE06782146284675F09AFC2C
:10561000304670BDF155000838B5714604460A4859
:10562000754675F07DFCB4F5966F05DBB4F5E16F5A
:10563000D4BF0124022400E000240348294675F069
:1056400081FC204638BD00BF19560008F7B50A4D49
:1056500006460F4628467146744675F061FC02A95D
:10566000301D01F8017DFFF769FC2846214675F0E1
:1056700069FC03B0F0BD00BF4D56000838B51548B1
:105680007146754675F04CFC134BB3F9703140F21E
:10569000CE42934211DDB3F5AA6F10DD40F2D25233
:1056A00093420EDD40F2546293420CDD40F2D56429
:1056B000A342CCBF0524042406E0002404E0012416
:1056C00002E0022400E003240248294675F03AFC77
:1056D000204638BD7D5600083C150020F8B5084D21
:1056E0000F46064671462846744675F019FC3B780D
:1056F000337028462146BDE8F84075F023BC00BF52
:10570000DD560008F7B50A4D06460F462846714695
:10571000744675F005FC02A906F1350001F8017D1B
:10572000FFF7DCFF2846214675F00CFC03B0F0BD06
:105730000557000870B50A4D71460646284674465E
:1057400075F0EEFB3046FEF7BFFD90F900600036C5
:1057500018BF01262846214675F0F4FB304670BD7F
:105760003557000870B5084D714606462846744600
:1057700075F0D6FBB01DFEF7CDFD06882146284604
:1057800075F0E0FB30B270BD65570008F7B50A4D03
:1057900006460F4628467146744675F0C1FB02A9BD
:1057A00006F1500001F8017DFFF7C8FB28462146AD
:1057B00075F0C8FB03B0F0BD8D57000870B5084DFB
:1057C000714606462846744675F0AAFB3046FEF739
:1057D0007BFD06782146284675F0B4FB70B270BD9B
:1057E000BD57000838B571462DED028B04460C48B4
:1057F0007546B0EE408A75F093FB04F5A470FEF791
:1058000063FD90F900300648022B08BF84ED5F8AE3
:10581000BDEC028B2946BDE8384075F093BB00BF54
:10582000E557000838B571462DED028B04460C484B
:105830007546B0EE408A75F073FB04F5A470FEF770
:1058400043FD90F900300648012B08BF84ED5F8AC4
:10585000BDEC028B2946BDE8384075F073BB00BF34
:1058600025580008F8B5094D744606460F462846E7
:10587000714675F055FB2846214675F063FB0C23F5
:1058800003FB076000F5B270F8BD00BF6558000863
:10589000F8B50F46074D064606EBC7067146284683
:1058A000744675F03DFB36692846214675F04AFB83
:1058B0003046F8BD9158000870B5084D064671464F
:1058C0002846744675F02CFB96F894602846C6F37B
:1058D0008106214675F036FB304670BDB958000888
:1058E00070B5074D064671462846744675F018FB9C
:1058F00036692846214675F025FB304670BD00BF4D
:10590000E158000870B50B4D0646714628467446AE
:1059100075F006FB084B1A7866F3C3021A70074B42
:105920005A7866F304125A7028462146BDE8704042
:1059300075F008BB0559000878210020A4DC002080
:1059400038B5074D71462846744675F0E9FA054B9F
:1059500000221A7028462146BDE8384075F0F2BA98
:1059600041590008EA1A002070B5074D06467146F5
:105970002846744675F0D4FAB36C9E8828462146B2
:1059800075F0E0FA30B270BD6959000870B50D4D80
:1059900071462846744675F0C3FA0B48FEF7BAFC08
:1059A000B0F9000007EE900AFAEEEF7A2846FDEE15
:1059B000E77A214617EE906AB6B275F0C3FA30B2B4
:1059C00070BD00BF8D5900088C15002070B5094DC1
:1059D000714606462846744675F0A2FA06F1940010
:1059E000FEF772FC06782146284675F0ABFA304681
:1059F00070BD00BFCD59000870B5094D714606460F
:105A00002846744675F08CFA06F19200FEF782FC87
:105A100006882146284675F095FA30B270BD00BF61
:105A2000F9590008F8B50A4D06460F462846714652
:105A3000744675F075FA96F8743067F3410386F88A
:105A4000743028462146BDE8F84075F07BBA00BFA7
:105A5000255A000810B51B487146744675F060FA67
:105A6000194B93F900300D2B16D8DFE803F0070728
:105A7000151115150A15150E1507150713480021E0
:105A800018E0134B1B78042B06D11048012111E0BC
:105A9000104B1B78022BF7E70F4B1B78DB0707D562
:105AA0000E4B197801F0A001203918BF012100E048
:105AB00001210648FFF7B6FF21460248BDE8104025
:105AC00075F040BA555A00087C8300206020002001
:105AD000381B0020C8C70020BE850020F01E002013
:105AE00038B5074D71462846744675F019FA054BCE
:105AF000054A1A6028462146BDE8384075F022BAAA
:105B0000E15A0008380E0020E40A0B0870B5094D70
:105B1000714606462846744675F002FA064B986BA5
:105B20000268B1B25268904728462146BDE87040ED
:105B300075F008BA0D5B0008E4DA002070B5094D75
:105B400071462846744675F0EBF9074B986B03686D
:105B5000DB68984721460646284675F0F3F930463B
:105B600070BD00BF3D5B0008E4DA0020F8B5084DC9
:105B70000F46064671462846744675F0D1F93B88B3
:105B8000338028462146BDE8F84075F0DBB900BFF8
:105B90006D5B0008F8B5074D064674460F4628466B
:105BA000714675F0BDF9B78028462146BDE8F8403A
:105BB00075F0C8B9955B0008F8B5094D06460F4663
:105BC00028467146744675F0ABF93046B763FEF768
:105BD00045FB28462146BDE8F84075F0B3B900BF43
:105BE000B95B000838B5064D74462846714675F015
:105BF00097F928462146BDE8384075F0A3B900BFA3
:105C0000E55B000870B50A4D2DED028B0646B0EE3F
:105C1000408A28467146744675F082F986ED3B8AC3
:105C2000BDEC028B28462146BDE8704075F08AB96C
:105C3000055C0008F8B50A4D06460F462846714631
:105C4000744675F06DF996F8983067F3C30386F8DB
:105C5000983028462146BDE8F84075F073B900BF7A
:105C6000355C000838B50A4D71462846744675F013
:105C700057F9084B08481978C94301F00101FFF7AB
:105C8000D9FF28462146BDE8384075F05BB900BF12
:105C9000655C0008BE850020541B002070B50A4DCD
:105CA000064671462846744675F03AF9B369D3ED55
:105CB000067AF8EEE77A2846C6ED187A2146BDE85E
:105CC000704075F03FB900BF9D5C000870B50A4D8B
:105CD0002DED028B714606462846744675F020F974
:105CE00096ED2B8A2846214675F02CF9B0EE480A2D
:105CF000BDEC028B70BD00BFCD5C0008F8B50D4D4A
:105D000007460E4628467146744675F009F90A485A
:105D1000FEF748FD07EE107AF8EEC77A90ED007AAC
:105D200067EE277A2846C6ED007A2146BDE8F8409E
:105D300075F008B9FD5C0008F417002038B50E4D69
:105D40002DED028B714608EE100A2846744675F058
:105D5000E7F80A48FEF726FDB8EEC88AD0ED007ACB
:105D600028EE278A2846214675F0ECF8B0EE480A5E
:105D7000BDEC028B38BD00BF3D5D0008F41700206C
:105D800070B5094E044671463046754675F0C8F840
:105D9000A0680368DB6A9847304684ED1C0A2946F0
:105DA000BDE8704075F0CEB8815D000870B50A4D51
:105DB0002DED028B714606462846744675F0B0F804
:105DC00096ED168A2846214675F0BCF8B0EE480AD2
:105DD000BDEC028B70BD00BFAD5D000870B50A4D13
:105DE0002DED028B714606462846744675F098F8EC
:105DF00096ED178A2846214675F0A4F8B0EE480AB9
:105E0000BDEC028B70BD00BFDD5D000870B50A4DB2
:105E10002DED028B714606462846744675F080F8D3
:105E200096ED188A2846214675F08CF8B0EE480A9F
:105E3000BDEC028B70BD00BF0D5E000870B50C4D4F
:105E400006462DED028B71462846744675F068F8BB
:105E5000F068FFF7DBFFB0EE408ABDEEC88A284647
:105E6000214675F06FF818EE100ABDEC028B70BD7C
:105E70003D5E000870B50A4D2DED028B7146064659
:105E80002846744675F04CF896ED198A2846214646
:105E900075F058F8B0EE480ABDEC028B70BD00BF3B
:105EA000755E000870B50C4D06462DED028B7146EF
:105EB0002846744675F034F8F068FFF7DBFFB0EE63
:105EC000408ABDEEC88A2846214675F03BF818EE98
:105ED000100ABDEC028B70BDA55E000870B50A4DBE
:105EE0002DED028B714606462846744675F018F86B
:105EF00096ED108A2846214675F024F8B0EE480A3F
:105F0000BDEC028B70BD00BFDD5E000810B51D4802
:105F10002DED028B7146744675F002F81A4B187815
:105F200010B11A48FFF7CEF8194B5A789978DB78F8
:105F300042EA012242EA034343F31703B3F57A7FAF
:105F40000ADB18B1134B1B78022B05D81248FFF758
:105F5000C5FFB0EE408A0BE01048FEF7DBF9B0F960
:105F60000030002BC8BF5B4207EE903AB8EEE78ADC
:105F70000448214674F0E6FFB0EE480ABDEC028BFF
:105F800010BD00BF0D5F0008140E00200482002029
:105F9000A4130020811300201C8100207C15002008
:105FA00070B50C4D06462DED028B714628467446A1
:105FB00074F0B6FFF068FFF729FFB0EE408ABDEE3F
:105FC000C88A2846214674F0BDFF18EE100ABDECC1
:105FD000028B70BDA15F000870B50C4D06462DED1B
:105FE000028B71462846744674F09AFFF068FFF7FA
:105FF00041FFB0EE408ABDEEC88A2846214674F0C3
:10600000A1FF18EE100ABDEC028B70BDD95F00082D
:1060100070B5094D714606462846744674F080FFF7
:10602000D6ED0A7AFDEEE77A284617EE906A214609
:1060300074F088FF304670BD1160000870B5084DDF
:10604000064671462846744674F06AFF0023F386BC
:10605000338728462146BDE8704074F073BF00BF07
:106060003D60000870B5074D7446714606462846E7
:1060700074F056FF2846214674F064FF06F15C0078
:1060800070BD00BF6560000870B5084D06467146DA
:106090002846744674F044FF3678284606F0010618
:1060A000214674F04FFF304670BD00BF8960000884
:1060B00070B5064D744671460646284674F030FFAA
:1060C0002846214674F03EFF304670BDB16000089E
:1060D00070B504460D462DED028B71466448764638
:1060E00074F01EFF2188B5F900200BB2002B02DDF1
:1060F000002A03DA08E009B1002A05DC002AB8BF4B
:106100005242B2F5E16F01DD2B88A8E007EE103AAC
:10611000002BF8EEC77A9FED578A50DD564867EEA0
:10612000888AFEF7F7F8B0F90030032B0CDD5248EF
:10613000FEF7F0F8B0F90020042392FBF3F307EE2A
:10614000903AB8EEE77A01E0B7EE007AF4EEC78A4B
:10615000F1EE10FA08DDB4F9003007EE903AF8EEEF
:10616000E77A27EE888A15E04348FEF7D3F8B0F9BE
:106170000030032B0CDD4048FEF7CCF8B0F90020CE
:10618000042392FBF3F308EE103AB8EEC88A01E05C
:10619000B7EE008AB4F9003007EE903AF8EEE77AED
:1061A00037EEC88ABDEEC88A18EE103A9BB223803B
:1061B000B5F900201BB29342B8BF13464FE02E48FA
:1061C00067EEC88AFEF7A6F8B0F90030032B0CDDA5
:1061D0002948FEF79FF8B0F90020042392FBF3F35F
:1061E00007EE103AF8EEC77A01E0F7EE007AF4EE27
:1061F000E78AF1EE10FA08DDB4F9003007EE903AC4
:10620000F8EEE77A27EEC88A15E01B48FEF782F819
:10621000B0F90030032B0CDD1748FEF77BF8B0F91E
:106220000020042392FBF3F308EE103AB8EEC88A7C
:1062300001E0B7EE008AB4F9003007EE903AF8EECC
:10624000E77A38EE278ABDEEC88A18EE103A9BB27C
:106250002380B5F900201BB29342A8BF1346BDECC2
:10626000028B238031460248BDE8704074F06ABE5C
:10627000D1600008CDCC4C3C7215002038B50C4DD7
:1062800071462846744674F04BFE0A4B1A78052175
:1062900061F302021A70C8225A8300225A805A8E71
:1062A000DA8328462146BDE8384074F04BBE00BF73
:1062B0007D6200084413002038B50C4D7146284615
:1062C000744674F02DFE0A4B1A78052161F3C5025D
:1062D0001A70C8229A8300229A809A8E1A842846BD
:1062E0002146BDE8384074F02DBE00BFB9620008F9
:1062F0004413002038B533482DED048B71467546A4
:1063000074F00EFE304B1A78C2F34102002A51D0CD
:106310005978C8074ED52D4C6FF300015970B4F968
:10632000F23007EE103A012AB8EEC77A0AD1284BAC
:10633000D3ED006AB4F9123108EE903A254BF8EE2D
:10634000E88A09E0244BD3ED006AB4F9123108EE73
:10635000903A224BF8EEE88AD3ED007A204827EEF7
:10636000E88A68EEA68AA7EE268AE7EE278AFEF775
:1063700077FF1B48B0EE409AFEF78AFF20EE280A0E
:106380001748A9EE080ABDEEC00A10EE103AA4F8AC
:10639000F230FEF77DFF1248B0EE409AFEF760FF44
:1063A00020EE280AA8EE490ABDEEC00A10EE103A07
:1063B000A4F81231BDEC048B29460248BDE83840F0
:1063C00074F0C0BDF5620008F01E00203C150020EE
:1063D000180E002048830020100E0020D0C7002097
:1063E000108600202DE9F0410A4D80460F462846D0
:1063F0007146744674F094FD0748066841463A4673
:106400003668B0472846214674F09CFD0020BDE860
:10641000F08100BFE5630008E4DA002070B50B4DA1
:10642000064671462846744674F07AFD084B1A7881
:1064300066F382021A70074B5A7866F3C3025A70E9
:1064400028462146BDE8704074F07CBD1D640008FC
:1064500078210020A4DC002038B5714604460C48A1
:10646000754674F05DFD0B4B1A78C2F30011A14222
:1064700007D064F304121A70074B1A7864F3C7123A
:106480001A7029460248BDE8384074F05BBD00BF71
:1064900059640008F01E0020A4DC002038B57146C5
:1064A00005460948744674F03BFD084B06481A78C7
:1064B000C2F3C001A9421CBF65F3C3021A70214692
:1064C000BDE8384074F03EBD9D640008F01E002019
:1064D00038B5104D2DED028B71462846744674F088
:1064E0001FFD0D48FDF7F0FE90F90000DFED0B7A7F
:1064F00007EE100AB8EEC77AB0EE008AA7EE278A38
:106500002846214674F01EFDB0EE480ABDEC028B11
:1065100038BD00BFD164000871150020CDCCCC3D42
:1065200070B5714605461048744674F0F9FCFEF7E4
:106530002BFA06460D48FDF7C7FE90F90030B3EB85
:10654000962F01D2002508E035B9094BD86A0368B7
:106550001B6A98470028F5D101250348214674F0AD
:10656000F1FC284670BD00BF216500084B150020D6
:10657000E4DA0020F8B5084D744606460F46284672
:10658000714674F0CDFC2846214674F0DBFC0C23E8
:1065900003FB07604C30F8BD7565000870B50B4E05
:1065A000044671463046754674F0BAFC23682046AE
:1065B0001B6D984701462046FFF7DCFF294604463D
:1065C000304674F0BFFC204670BD00BF9D650008DA
:1065D000F8B50F46074D064606EBC7067146284636
:1065E000744674F09DFCF6682846214674F0AAFCB7
:1065F0003046F8BDD165000870B50A4D06467146B3
:106600002846744674F08CFC96F89410304601F0DD
:106610000301FFF7DDFF21460646284674F092FC91
:10662000304670BDF9650008F8B5094D7446064658
:106630000F462846714674F073FC2846214674F0D4
:1066400081FC382307FB0333F0180830F8BD00BF86
:106650002966000870B50A4D0646714628467446FC
:1066600074F05EFC96F89410304601F00301FFF7D9
:10667000DBFF21460646284674F064FC304670BDB8
:1066800055660008F8B50C4D2DED028B06460F46F9
:1066900028467146744674F043FC382303FB0766B2
:1066A00096ED0D8A2846214674F04CFCB0EE480A5F
:1066B000BDEC028BF8BD00BF8566000870B50D4DBE
:1066C00006462DED028B71462846744674F028FC70
:1066D00096F89410304601F00301FFF7D3FF2846E7
:1066E000B0EE408A214674F02DFCB0EE480ABDECB5
:1066F000028B70BDBD66000838B505467146084876
:10670000744674F00DFC288B4FF6FF75A84214BF39
:10671000054600252146024874F014FC284638BD81
:10672000F9660008F8B50F46074D064606EBC706A2
:1067300071462846744674F0F3FB768D2846214650
:1067400074F000FC3046F8BD2567000870B50A4DAE
:10675000064671462846744674F0E2FB96F84010EF
:10676000304601F00301FFF7DDFF214606462846CB
:1067700074F0E8FB304670BD4D67000870B50A4DF7
:10678000714606462846744674F0CAFB301DFDF774
:106790009BFD90F90060003618BF0126284621466F
:1067A00074F0D0FB304670BD7D67000870B5074DB2
:1067B000064671462846744674F0B2FB96F8286087
:1067C0002846214674F0BEFB304670BDAD67000818
:1067D00070B5074D064671462846744674F0A0FB16
:1067E000368E2846214674F0ADFB304670BD00BFA2
:1067F000D167000870B5074D0646714628467446B5
:1068000074F08EFBF66A2846214674F09BFB3046F6
:1068100070BD00BFF567000870B5064D744671463F
:106820000646284674F07CFB2846214674F08AFB15
:10683000304670BD1968000870B50D4604467146B3
:106840002448764674F06CFB082D3BD804EB4500D9
:106850007230FFF7E1FF007807EE900A082DF8EE9E
:10686000677A08D094F864300BB9236C1BB1B5EE8D
:10687000007A67EE877AF5EEC07AF1EE10FA21D948
:10688000254495F88430D3B99FED137A94F88D4060
:10689000F4EE477AF1EE10FAC8BFF0EE477A87EED1
:1068A000277A06EE904AF8EEE66A012477EE267A19
:1068B000FCEEE77A17EE903A85F8843003E0013B6E
:1068C00085F8843000240348314674F03BFB2046B1
:1068D00070BD00BF396800080000484270B50C4D1B
:1068E0002DED028B06467146B0EE408A284674466E
:1068F00074F016FBF068B0EE480AFEF7DDF8BDEC68
:10690000028B28462146BDE8704074F01BBB00BFD7
:10691000DD68000838B50C461D487146754674F0B0
:10692000FFFA6379DB071CD51A48FEF7CFF9A37984
:10693000E279817843EA0222237A42EA03424378E9
:1069400043EA0123C17843EA014342F3170243F3C8
:1069500017031344C3F30722A371C3F30743E27180
:106960002372E279A3790C4843EA0223227A43EAAC
:10697000024343F3170300EE103AB8EEC00AFFF7E4
:10698000ADFF29460248BDE8384074F0DBBA00BFCD
:106990001569000810860020141F002070B5094DED
:1069A000714606462846744674F0BAFA06F1370076
:1069B000FDF7EAFB06782146284674F0C3FA304614
:1069C00070BD00BF9D69000870B5074D0646714651
:1069D0002846744674F0A4FA367D2846214674F0A1
:1069E000B1FA304670BD00BFC969000870B5074EE6
:1069F000044671463046754674F092FA044B2360A3
:106A00003046294674F09EFA204670BDED690008B4
:106A1000589B0A08F8B50A4E04460F4630467146A0
:106A2000754674F07DFA2046FFF7E0FF054B2360C2
:106A300030462771294674F085FA2046F8BD00BF1C
:106A4000156A000860F70A0870B50D4C06467146D5
:106A50000C48754674F064FA206803685B690EB1EF
:106A6000094900E0094998472068094903685B69BA
:106A7000984729460348BDE8704074F063BA00BFE8
:106A8000F0800020496A0008D9B20A085A990A0819
:106A9000A5B60A0870B5094D7146064628467446E3
:106AA00074F03EFA06F5A470FDF70EFC0678214658
:106AB000284674F047FA304670BD00BF956A00085A
:106AC000F8B50B4D06460F4628467146744674F0DD
:106AD00027FA0C2303FB076000F5A670FDF750FDB5
:106AE00021460646284674F02DFA3046F8BD00BF10
:106AF000C16A000870B5074D0646714628467446BF
:106B000074F00EFA76882846214674F01BFA304657
:106B100070BD00BFF56A000870B5094D7146284682
:106B2000744674F0FDF90748FFF7E4FF2146064676
:106B3000284674F007FA0F23B6FBF3F0C0B270BD1D
:106B4000196B0008B4DC002070B5084D714606468C
:106B50002846744674F0E4F9301DFDF7B5FB06785D
:106B60002146284674F0EEF9304670BD496B0008A6
:106B700038B5714604460D48754674F0D1F90C4895
:106B8000FDF7A2FB90F90030022B05D0032B06D0B5
:106B90001C1C18BF012403E084F0010400E004245D
:106BA0000248294674F0CEF9204638BD716B0008C2
:106BB0007015002070B50E4D2DED028B7146064606
:106BC0002846744674F0ACF93046FFF777FD284646
:106BD0002146B0EE408A74F0B5F9DFED067A28EE72
:106BE000278ABCEEC88A18EE100ABDEC028B70BD75
:106BF000B56B00080000C842F8B5094D0F460646BF
:106C000071462846744674F08BF9382303FB0766F7
:106C10002846B66B214674F095F93046F8BD00BFA2
:106C2000F96B000870B50A4D064671462846744651
:106C300074F076F996F89410304601F00301FFF7EE
:106C4000DBFF21460646284674F07CF9304670BDCD
:106C5000256C000838B51348134C2DED028B714696
:106C6000754674F05DF91148FDF724FD01280DD932
:106C70000E48FFF79FFF642808D90C48FFF7D2FFA2
:106C800007EE100AF8EEC77AC4ED007A94ED008A98
:106C90000448294674F056F9B0EE480ABDEC028B60
:106CA00038BD00BF556C00084C8300204C8200208A
:106CB00070B50A4D2DED028B714606462846744686
:106CC00074F02EF996ED398A2846214674F03AF987
:106CD000B0EE480ABDEC028B70BD00BFB16C00087D
:106CE00070B5084E044671463046754674F018F982
:106CF0000023304663602360294674F023F9204660
:106D000070BD00BFE16C000870B5074D7446714658
:106D10000646284674F004F92846214674F012F914
:106D200006F50B7070BD00BF096D000838B5094D40
:106D300071462846744674F0F3F8074B01221A7026
:106D4000FEF7FCFE054B186021462846BDE838409A
:106D500074F0F8B82D6D0008080E00200C86002095
:106D600038B5074D71462846744674F0D9F8054B7E
:106D700000221A7028462146BDE8384074F0E2B877
:106D8000616D0008080E002070B50A4D2DED028BD4
:106D90000646B0EE408A28467146744674F0C0F844
:106DA00086ED098ABDEC028B28462146BDE870407D
:106DB00074F0C8B8896D000870B5084D7146064674
:106DC0002846744674F0ACF8B01DFDF7DDF906787E
:106DD0002146284674F0B6F8304670BDB96D0008FB
:106DE00038B5094D71462846744674F099F8074A3B
:106DF00000231380064A1360064A13802846214662
:106E0000BDE8384074F09EB8E16D00085083002062
:106E10007C1300201C20002038B5714604460D4824
:106E2000754674F07DF80C4B1A8801321A800B4BB2
:106E30001A68944288BF1C6040F6B8339C4203D95C
:106E4000074B1A8801321A8029460248BDE83840AB
:106E500074F078B8196E0008508300207C1300206D
:106E60001C20002070B5074D71462846744674F00A
:106E700057F8054B1E882846214674F063F83046C3
:106E800070BD00BF656E00085083002070B5074DCF
:106E900071462846744674F043F8054B1E68284630
:106EA000214674F04FF8304670BD00BF8D6E00086B
:106EB0007C13002070B5074D71462846744674F067
:106EC0002FF8054B1E882846214674F03BF83046C3
:106ED00070BD00BFB56E00081C200020F0B5234F28
:106EE0008BB0044671463846764674F019F820484F
:106EF000FDF7ECFE62684368DFED1E7AD31A06EEFA
:106F0000903A1D4BA268D3ED000A8368D31AB8EEFD
:106F1000E60AA27806EE903A637843EA0223E27822
:106F200043EA024343F3170360EEA70AB8EEE67A9A
:106F300001EE103A04AD20EE270A60EE870AB8EEA3
:106F4000C11A2846FEF76EF895E807000AAB03E978
:106F500007003846314673F0F5FF9DED070ADDED79
:106F6000080A9DED091A0BB0F0BD00BFDD6E0008E8
:106F7000108600202C7D8E3F240E002038B5064D53
:106F800074462846714673F0CBFF28462146BDE87B
:106F9000384073F0D7BF00BF7D6F0008F8B50446D6
:106FA0000D461D4871467646174673F0B9FFA07B23
:106FB000042802D80130A07302E00FB93A461AE063
:106FC000A27B013AD2B253B2002B02DC04EB4304A1
:106FD0001BE004EB4301498808B2A842F6DD04EB4C
:106FE00043039980EDE700F1FF3C634502F10102A4
:106FF0000ADA21448F8053B204EB4301CF8839B2BF
:10700000A9424FEA4301EEDB0C44A5803146024819
:10701000BDE8F84073F096BF9D6F000870B5044658
:107020000E460F487146754673F07AFF227C204663
:107030003146FFF7B3FF237C094883F00103237433
:10704000A37B042B8DBFE37B03F0FE03E41804EB6A
:1070500043042946A48873F075FF20B270BD00BFB9
:107060001D70000838B5714605460A48744673F02D
:1070700057FF0023EA18043300211C2B5160F9D17B
:10708000002385F8203021460248BDE8384073F0DF
:1070900059BF00BF6570000870B50A4E04467146BE
:1070A0003046754673F03CFF0023A380E3802381C4
:1070B0006381A381A37330462946BDE8704073F015
:1070C00041BF00BF9970000870B504460D460B48DB
:1070D0007146764673F024FFA27B0848531CDBB24E
:1070E000042B04EB4202A37388BF00239580314632
:1070F00088BFA37373F026FF284670BDC9700008CF
:1071000070B504460E462DED028B12487146754649
:1071100073F006FF07EE106A237AF8EEC77A1BB900
:107120000123C4ED037A237294ED038A94ED017A6E
:10713000084877EEC87A2946A7EE878A84ED038A45
:10714000BDEEC88A73F0FEFE18EE100ABDEC028B8D
:1071500070BD00BF0171000870B5074D064671464D
:107160002846744673F0DCFE00233372284621461D
:10717000BDE8704073F0E6BE5971000838B50446AA
:107180002DED028B71460F48B0EE408A754673F0C4
:10719000C7FE94F820200B48531CDBB2062B84F862
:1071A000203004EB820288BF002382ED018A294649
:1071B00088BF84F8203073F0C5FEB0EE480ABDECFD
:1071C000028B38BD7D71000870B5084D06467146CA
:1071D0002846744673F0A4FE96F840602846C6F32D
:1071E0008106214673F0AEFE304670BDC9710008BD
:1071F00038B5094D71462846744673F091FE074B29
:107200000749186803681B6A984728462146BDE865
:10721000384073F097BE00BFF1710008F080002085
:10722000A9AB0A0838B5094D71462846744673F073
:1072300077FE074B074AD86B116803681B689847AD
:107240002846214673F07EFE002038BD25720008D6
:10725000E4DA0020F080002038B5064D744671460F
:10726000284673F05DFE2846214673F06BFE002031
:1072700038BD00BF59720008F8B5084D744606467F
:107280000F462846714673F04BFE2846214673F0A0
:1072900059FE0C2303FB07600430F8BD7972000827
:1072A00070B50B4E044671463046754673F038FE95
:1072B00023682046DB6C984701462046FFF7DCFF39
:1072C00029460446304673F03DFE204670BD00BF9F
:1072D000A1720008F8B50A4D06460F4628467146C9
:1072E000744673F01DFE96F8363067F3820386F815
:1072F000363028462146BDE8F84073F023BE00BF73
:10730000D572000870B50B4E04467146304675467E
:1073100073F006FE236820461B6998470146204605
:10732000FDF71AF929460446304673F00BFE204655
:1073300070BD00BF0573000838B5094D7146284679
:10734000744673F0EDFD074B0749186803681B6A24
:1073500098472846214673F0F5FD002038BD00BF50
:1073600039730008F0800020BEAB0A0838B5094D1B
:1073700071462846744673F0D3FD074B986B03683B
:1073800000215B6C98472846214673F0DBFD002006
:1073900038BD00BF6D730008E4DA00202DE9F04B22
:1073A0005D4F5E4D5E4C71463846764673F0B8FDD3
:1073B000D5F80080D8F8003004F1FA00D3F8209016
:1073C000FCF7A8FFB0F900B004F1FE00FCF7A2FF43
:1073D0005A465449B0F900304046C847D5F80080B5
:1073E000D8F8003004F58D70D3F82090FCF792FFA8
:1073F000B0F900B004F58F70FCF78CFF5A464A498B
:10740000B0F900304046C847D5F80080D8F80030C1
:1074100004F59D70D3F82090FCF77CFFB0F900B024
:1074200004F59F70FCF776FF5A464049B0F90030EA
:107430004046C847D5F80080D8F8003004F5AD7054
:10744000D3F82090FCF766FFB0F900B004F5AF70F8
:10745000FCF760FF5A463649B0F900304046C8474D
:10746000D5F80080D8F8003004F5BD70D3F820902E
:10747000FCF750FFB0F900B004F5BF70FCF74AFF0D
:107480005A462C49B0F900304046C847D5F800802C
:10749000D8F8003004F5CD70D3F82090FCF73AFF0F
:1074A000B0F900B004F5CF70FCF734FF5A4622491A
:1074B000B0F900304046C847D5F80080D8F8003011
:1074C00004F5DD70D3F82090FCF724FFB0F900B08C
:1074D00004F5DF70FCF71EFF5A461849B0F900307A
:1074E0004046C8472D682B6804F5ED70D3F820801E
:1074F000FCF710FFB0F9009004F5EF70FCF70AFFFD
:107500000F49B0F900304A462846C0473846314650
:10751000BDE8F04B73F016BD9D730008F0800020AD
:107520003C150020E9AB0A08F7AB0A0805AC0A08CD
:1075300013AC0A0821AC0A082FAC0A083DAC0A08B3
:107540004BAC0A0870B504460D462D487146764688
:1075500073F0E6FC2368102D47D8DFE805F0090D2D
:1075600012161A1E2226462A2E3246363A3E42006D
:107570005B692449204602E05B692349204698471D
:1075800038E05B6921492046F9E75B6920492046DC
:10759000F5E75B691F492046F1E75B691E49204614
:1075A000EDE75B691D492046E9E75B691C49204618
:1075B000E5E75B691B492046E1E75B691A4920461C
:1075C000DDE75B6919492046D9E75B691849204620
:1075D000D5E75B6917492046D1E75B691649204624
:1075E000CDE75B6915492046C9E71B6A1449204667
:1075F0002A46984731460248BDE8704073F0A2BC65
:107600004575000859AC0A0863AC0A0868AC0A085A
:1076100071AC0A0876AC0A0890AC0A087DAC0A087E
:1076200081AC0A0888AC0A088DAC0A0897AC0A0835
:107630009DAC0A08A3AC0A08A8AC0A08B1AC0A08B9
:10764000B9AC0A082DE9F843124C81468846124825
:1076500071467546164673F063FC20680F4907684B
:107660004A463F6AB84720684146FFF76BFF2068EB
:107670000B4903681B6A9847206803681B6A0EB1B0
:10768000084900E00849984729460348BDE8F843FF
:1076900073F058BCF080002045760008C2AC0A08A0
:1076A000CBAC0A08D7AC0A08DBAC0A0870B5084DA9
:1076B00071462846744673F033FC0648FEF7E4FC36
:1076C00021460646284673F03DFC304670BD00BF9B
:1076D000AD760008141F002038B5064D744671467B
:1076E000284673F01DFC2846214673F02BFC002031
:1076F00038BD00BFD976000870B5074D7446714695
:107700000646284673F00CFC2846214673F01AFC06
:1077100006F11C0070BD00BFF976000870B50A4D77
:107720002DED028B714606462846744673F0F8FB31
:1077300096ED0C8A2846214673F004FCB0EE480A08
:10774000BDEC028B70BD00BF1D77000838B5124834
:107750007146754673F0E4FB1048FEF795FC04464D
:1077600098B10F4C236813B9FDF70EF92060FDF7AF
:107770000BF924684FF47A73001BB0FBF3F4094B48
:107780001B889C4234BF002401240348294673F01F
:10779000D9FB204638BD00BF4D770008141F0020DC
:1077A000D47F0020BC85002038B50B487146754653
:1077B00073F0B6FB094B1C783CB1094B1C78033CB9
:1077C000E4B2012C8CBF002401240348294673F045
:1077D000B9FB204638BD00BFA97700081E20002055
:1077E000381B002038B571460C48754673F098FB7D
:1077F000FDF7CAF80A4B1B68C01A0A4B1A6822EA3E
:10780000E27290424FF0000488BF1C60034888BFBA
:107810000124294673F096FB204638BDE577000821
:10782000E0130020F47F002038B5064D7446714601
:10783000284673F075FB2846214673F083FB012030
:1078400038BD00BF29780008F8B50A4E07460C4637
:1078500030467146754673F063FB94E8070007F104
:107860001C0383E8070030462946BDE8F84073F062
:1078700069BB00BF49780008F7B50A4E02AC24ED99
:10788000010A714607463046754673F049FB2146AA
:1078900007F11000FDF7CAFA3046294673F052FB93
:1078A00003B0F0BD7978000870B50C4D2DED028B5A
:1078B000714606462846744673F032FB06F1100006
:1078C000FCF770FF90ED008A2146284673F03AFBE2
:1078D000B0EE480ABDEC028B70BD00BFA97800086D
:1078E00070B5074D064671462846744673F018FB7E
:1078F000768F2846214673F025FB304670BD00BFC9
:10790000E178000870B50F4D06467146284674466A
:1079100073F006FBFDF738F8D6F805609FED0A7A9C
:107920000A4B07EE906A67EE877A1860FDEEE77AF9
:10793000074BC3ED007A28462146BDE8704073F03E
:1079400001BB00BF0579000800007A44E013002065
:10795000F47F002070B50D4D0646714628467446EA
:1079600073F0DEFAD6F805609FED097A094B07EE51
:10797000906A67EE877A2846FDEEE77A2146C3EDE6
:10798000007ABDE8704073F0DDBA00BF5579000899
:107990000000C842F47F002038B5064D74462846E2
:1079A000714673F0BDFA28462146BDE8384073F0B1
:1079B000C9BA00BF99790008F7B50C4D06460F46C5
:1079C00028467146744673F0ABFA07EE107AF8EE6B
:1079D000477A02A961ED017A06F10C00FDF76AFA17
:1079E0002846214673F0AEFA03B0F0BDB97900081D
:1079F00070B5064D744671460646284673F090FAF7
:107A00002846214673F09EFA304670BDF179000891
:107A100070B5084E714604463046754673F080FADC
:107A20002046FFF7E5FF3046294673F08BFA2046E3
:107A300070BD00BF117A000870B5084E714604464B
:107A40003046754673F06CFA2046FFF7E1FF30468A
:107A5000294673F077FA204670BD00BF397A0008D6
:107A600070B5074E044671463046754673F058FAB5
:107A7000044B23603046294673F064FA204670BDFB
:107A8000617A0008E89B0A0870B50B4E04467146FF
:107A90003046754673F044FA2046FFF7E1FF074B86
:107AA00023600023A3732046FFF7F6FA30462946E9
:107AB00073F048FA204670BD897A0008F89B0A08DE
:107AC00070B504460E460C487146754673F028FAA8
:107AD0002046FFF7D9FF094B2360042E4FF0010326
:107AE000237488BF0223E673034888BFE3732946E3
:107AF00073F028FA204670BDC17A0008089C0A0875
:107B000070B5084E714604463046754673F008FA63
:107B10002046FFF76DFF3046294673F013FA2046E2
:107B200070BD00BF017B000870B5084E7146044669
:107B30003046754673F0F4F92046FFF759FF30469A
:107B4000294673F0FFF9204670BD00BF297B00086D
:107B500070B5084E714604463046754673F0E0F93C
:107B60002046FFF745FF3046294673F0EBF92046E3
:107B700070BD00BF517B000870B5084E71460446C9
:107B80003046754673F0CCF92046FFF7CDFF3046FE
:107B9000294673F0D7F9204670BD00BF797B0008F5
:107BA00070B5074E044671463046754673F0B8F915
:107BB000044B23603046294673F0C4F9204670BD5B
:107BC000A17B0008C89B0A0870B5094E044671469F
:107BD0003046754673F0A4F92046FFF7E1FF054BE8
:107BE00023603046294673F0ADF9204670BD00BFD2
:107BF000C97B0008F8020B0870B5094E04467146AF
:107C00003046754673F08CF9002330466370A370DC
:107C1000E3702371294673F095F9204670BD00BFCB
:107C2000F97B000870B50A4E714604463046754629
:107C300073F076F9201DFFF7C7FF04F11400FFF77A
:107C4000DBFF3046294673F07DF9204670BD00BF4A
:107C5000257C000870B5084E7146044630467546CE
:107C600073F05EF904F12400FCF7A4FF30462946C6
:107C700073F068F9204670BD557C000870B5074E5A
:107C8000044671463046754673F04AF9044B23604A
:107C90003046294673F056F9204670BD7D7C0008B9
:107CA000689B0A0870B50C4E04467146304675460E
:107CB00073F036F92046FFF7E1FF084B23600023FD
:107CC00084F820302046FFF7CDF93046294673F07E
:107CD00039F9204670BD00BFA57C0008789B0A08D2
:107CE00070B5094E044671463046754673F018F972
:107CF0002046FFF7D7FF054B23603046294673F037
:107D000021F9204670BD00BFE17C0008889B0A086D
:107D100070B5094E714604463046754673F000F959
:107D20002046FFF765FE2046FCF744FF3046294613
:107D300073F008F9204670BD117D000870B50C4E37
:107D40002DED028B0446F0EE408AB0EE608A754657
:107D50007146304673F0E4F8C4ED008A84ED018A80
:107D60003046294673F0EEF8BDEC028B204670BD1C
:107D70003D7D000870B50C4E044671463046754690
:107D800073F0CEF84FF07E5323622361236000230B
:107D9000A36063606361E360E361A36130462946E9
:107DA000BDE8704073F0CEB8757D000870B50C4E1C
:107DB000714604463046754673F0B2F82046FCF72B
:107DC000F9FE04F10C00FCF7F5FE04F11800FCF7D5
:107DD000F1FE3046294673F0B5F8204670BD00BF6D
:107DE000AD7D00082DE9F0410A4E04460F463046AD
:107DF00071467546904673F093F800233046237120
:107E0000A760C4F80C80294673F09CF82046BDE8B2
:107E1000F08100BFE57D000870B5084E044671464C
:107E20003046754673F07CF800233046237063704B
:107E3000294673F087F8204670BD00BF197E000800
:107E400070B5084E044671463046754673F068F8C2
:107E50000023304623706370294673F073F8204680
:107E600070BD00BF417E000870B5074E04467146E4
:107E70003046754673F054F8044B2360304629466B
:107E800073F060F8204670BD697E0008B89B0A0850
:107E900070B50B4E044671463046754673F040F897
:107EA0002046FFF7E1FF074B23604FF07E536360EE
:107EB000002330462372294673F044F8204670BDF3
:107EC000917E0008D89B0A08F8B50B4E04460F4671
:107ED00030467146754673F023F80023304627601C
:107EE000A380A371A360A381E381237463822946E5
:107EF00073F028F82046F8BDC97E000870B5074D1C
:107F0000064671462846744673F00AF836782846C5
:107F1000214673F017F8304670BD00BFFD7E0008A3
:107F200070B5074D064671462846744672F0F8FF54
:107F300036782846214673F005F8304670BD00BFFC
:107F4000217F000870B5074D0646714628467446E5
:107F500072F0E6FF36782846214672F0F3FF30468D
:107F600070BD00BF457F000870B5074D06467146DD
:107F70002846744672F0D4FF36782846214672F0BF
:107F8000E1FF304670BD00BF697F000870B5074D46
:107F9000064671462846744672F0C2FF3678284677
:107FA000214672F0CFFF304670BD00BF8D7F0008C4
:107FB00070B5074D064671462846744672F0B0FF0C
:107FC00036782846214672F0BDFF304670BD00BFAE
:107FD000B17F000870B5074D0646714628467446C5
:107FE00072F09EFF36782846214672F0ABFF30468D
:107FF00070BD00BFD57F000870B5074D06467146BD
:108000002846744672F08CFF36782846214672F076
:1080100099FF304670BD00BFF97F000870B5074D6D
:10802000064671462846744672F07AFF367828462E
:10803000214672F087FF304670BD00BF1D800008EA
:1080400070B5074D064671462846744672F068FFC3
:1080500036782846214672F075FF304670BD00BF65
:108060004180000870B5074D0646714628467446A3
:1080700072F056FF36782846214672F063FF30468C
:1080800070BD00BF6580000870B5074D064671469B
:108090002846744672F044FF36782846214672F02E
:1080A00051FF304670BD00BF8980000870B5074D94
:1080B000064671462846744672F032FF36782846E6
:1080C000214672F03FFF304670BD00BFAD80000812
:1080D00070B5074D064671462846744672F020FF7B
:1080E00036782846214672F02DFF304670BD00BF1D
:1080F000D180000870B5074D064671462846744683
:1081000072F00EFF36782846214672F01BFF30468B
:1081100070BD00BFF580000870B5074D064671467A
:108120002846744672F0FCFE36782846214672F0E6
:1081300009FF304670BD00BF198100082DE9F041EC
:108140000E46804671460C48754672F0E9FE0B4BB0
:1081500000241E60A7B21C2000FB0760FFF7CEFEC4
:1081600001340028F6D1064B03481F70294672F0EF
:10817000E9FE4046BDE8F0813D810008ACDC00200E
:10818000A8DC002070B5084E71460446304675469E
:1081900072F0C6FE04F12400FEF7A2FD3046294627
:1081A00072F0D0FE204670BD8581000870B5074E84
:1081B000044671463046754672F0B2FE044B2360A9
:1081C0003046294672F0BEFE204670BDAD810008E3
:1081D000C8F60A0870B5074E044671463046754623
:1081E00072F09EFE044B23603046294672F0AAFED0
:1081F000204670BDD581000870DA0A0870B5094EB6
:10820000044671463046754672F08AFE064B23607E
:108210002046FFF7DFFF3046294672F093FE2046E6
:1082200070BD00BFFD810008E0DA0A0870B5074E96
:10823000044671463046754672F072FE044B236068
:108240003046294672F07EFE204670BD2D82000821
:10825000B8D30A0870B5094E0446714630467546D3
:1082600072F05EFE064B23602046FFF79FFF30460C
:10827000294672F067FE204670BD00BF5582000897
:1082800070F70A0870B5094E0446714630467546C7
:1082900072F046FE064B23602046FFF7AFFF3046E4
:1082A000294672F04FFE204670BD00BF858200084F
:1082B00050DB0A0870B5094E0446714630467546D3
:1082C00072F02EFE064B23602046FFF7AFFF3046CC
:1082D000294672F037FE204670BD00BFB582000807
:1082E000A0D40A0870B5094E71460446304675465A
:1082F00072F016FE2046FFF759FF204672F018FF75
:108300003046294672F01EFE204670BDE582000808
:1083100070B5094E714604463046754672F000FE4F
:108320002046FFF757FF204672F002FF30462946ED
:1083300072F008FE204670BD1183000870B5094E2A
:10834000714604463046754672F0EAFD2046FFF756
:1083500055FF204672F0ECFE3046294672F0F2FDE1
:10836000204670BD3D83000870B5094E7146044635
:108370003046754672F0D4FD2046FFF757FF204681
:1083800072F0D6FE3046294672F0DCFD204670BD04
:108390006983000870B5094E71460446304675463B
:1083A00072F0BEFD2046FFF755FF204672F0C0FE7A
:1083B0003046294672F0C6FD204670BD9583000800
:1083C00070B5094E714604463046754672F0A8FDF8
:1083D0002046FFF757FF204672F0AAFE3046294696
:1083E00072F0B0FD204670BDC183000870B5094E23
:1083F000714604463046754672F092FD2046FFF7FE
:1084000059FF204672F094FE3046294672F09AFDDC
:10841000204670BDED83000870B50B4D71462846AF
:10842000744672F07DFD094B09481E78FBF7ACFEDF
:1084300031460278074819F05FFE28462146BDE81C
:10844000704072F07FBD00BF198400087C8300205B
:108450004A1500208C13002038B5094D7146284676
:10846000744672F05DFD07482AF0EAFF064818F0EE
:1084700045FA28462146BDE8384072F063BD00BF8A
:10848000598400084C8500200020002070B57146FA
:1084900006460B48754672F043FD00240948225CED
:1084A0001AB1204431464BF08BFECC34B4F5197F21
:1084B000F4D129460248BDE8704072F043BD00BFC8
:1084C0008D840008241C002038B5074D71462846CD
:1084D000744672F025FD1C20FFF7D8FF2846214680
:1084E000BDE8384072F02EBDC984000838B5074D8C
:1084F00071462846744672F013FD0020FFF7C6FF50
:1085000028462146BDE8384072F01CBDED840008C5
:1085100038B50B487146754672F002FD00240948D3
:10852000235C1BB1204408494BF0F6FFCC34B4F572
:10853000197FF4D129460248BDE8384072F002BDE7
:1085400011850008241C0020F185000838B571460B
:108550001D48744672F0E4FC1C4B986B0368DB68A2
:1085600098471B4B1A881B4B1988914206D01A80DA
:10857000194B1860194B00221A7011E0184B1B7828
:1085800073B1154B17491A68821A8A421D46134B5C
:1085900001D901211970197811B1134B9A4205D8EC
:1085A00021460948BDE8384072F0CCBC28600F482D
:1085B000FBF760FF0028F3D00C48002128F0E0FE14
:1085C0000A4829F017F9EBE74D850008E4DA0020A6
:1085D000E01A0020C48500200C860020081F00201F
:1085E000080E002080841E0040420F006020002002
:1085F00010B571460446124872F092FC114B2046A9
:108600001C60FBF723FF236820461B6C0121984761
:108610000D4B986B03680021DB6905229847FEF734
:108620009FFB0A48FBF726FF30B10848002128F0DD
:10863000A7FE064829F0DEF8054827F047FDFBE7CE
:10864000F1850008F0800020E4DA0020602000209E
:108650002C20002038B5074D71462846744672F02C
:108660005FFC054827F032FD2846214672F06AFC7F
:10867000002038BD55860008B4C7002038B50A4D23
:1086800071462846744672F04BFC084B084918683E
:1086900003681B6A9847074827F018FD28462146BB
:1086A00072F050FC002038BD7D860008F08000206C
:1086B000E0AC0A08F413002038B5074D714628468F
:1086C000744672F02DFC054827F000FD284621462F
:1086D00072F038FC002038BDB9860008401B00202D
:1086E00070B5274C27482DED028B7146754672F008
:1086F00017FC6378A678244843EA0626E37846EA1E
:108700000346FBF707FEB0F9003046F317069E421A
:108710000DDDA278637843EA0223E27843EA02435C
:1087200043F3170307EE903AB8EEE78A08E01648DD
:10873000FBF7F0FDB0F9000008EE100AB8EEC88AA9
:10874000124812F0B1F9C30710D51048DFED108AB6
:10875000FCF798FA20EE280AB4EEC08AF1EE10FA7F
:1087600004D40A48FCF78EFA20EE288A05482946E8
:1087700072F0E8FBB0EE480ABDEC028B70BD00BFA2
:10878000A4130020E18600084C1500200080002082
:108790000000C84270B532487146764672F0C0FBA0
:1087A000304B1B781A0754D42F48FBF78DFD90F9F6
:1087B0000030012B05D02C48FBF786FD03785B06C3
:1087C00044D52A4844F0F6FD20B9294844F0F2FD8A
:1087D00000283ED02748FBF79DFDB0F9003040F25D
:1087E0001454A34235DC2448FBF794FDB0F9003063
:1087F00040F2A365AB422CDD2048FBF78BFDB0F9BE
:108800000030A34225DC1E48FBF784FDB0F90030A0
:10881000AB421EDD1548FBF77DFDB0F90030A342E9
:1088200017DC1348FBF776FDB0F90030AB4210DDE2
:108830001448FBF76FFDB0F90030A34209DC124881
:10884000FBF768FDB0F90030AB4202DD0120FDF717
:1088500025FE31460248BDE8704072F073BB00BF90
:1088600095870008F01E0020A11500207616002034
:108870007A160020361600203A16002056160020E0
:108880005A160020961600209A16002070B5084D42
:10889000714606462846744672F042FB06F13700E0
:1088A00044F088FD28462146BDE8704072F04ABB7E
:1088B0008D88000870B5094E7146044630467546ED
:1088C00072F02EFB204627F047F9204626F00CFFD9
:1088D00030462946BDE8704072F034BBB5880008C8
:1088E000F8B506460F460C487146754672F018FBFF
:1088F00000240A48225C22B1204431463A464BF01B
:10890000E5FCCC34B4F5197FF3D129460248BDE823
:10891000F84072F017BB00BFE1880008241C00205B
:108920002DE9F04171462DED028B0546264876462D
:1089300072F0F6FA254822F03BFC27F00DF92448A6
:10894000B0EE408AFBF78CFE074630B11DB12149DD
:108950000320FFF7C5FF00242DE0FBF7C3FE04460C
:1089600030B9002DF7D003201B49FFF7B9FF22E0F3
:10897000B5EE408AF1EE10FA06D0DFED187AB4EECB
:10898000E78AF1EE10FA04DD002DE4D0032014494B
:10899000DFE71448FBF7EEFE80461348FBF7BAFC0E
:1089A000B0F90030984506DD002DD4D003200F49E2
:1089B000FFF796FF3C460448314672F0C3FABDEC1F
:1089C000028B2046BDE8F0812189000808140020B0
:1089D0008C1E0020EEAC0A0801AD0A0800004842D7
:1089E00015AD0A084C820020621500202AAD0A0845
:1089F0002DE9F0412DED028BBC4D8CB00446714643
:108A0000BB48774672F08CFA2B78DA0600F14B817E
:108A1000B848FBF759FC90F9003033B90120FDF755
:108A20001BFD0120FDF73AFD3DE1FFF7B3FE2B787A
:108A30001B0705D4002C00F036810320AE4915E059
:108A4000AC48FBF741FC90F90030012B05D0A94858
:108A5000FBF73AFC03789E071FD5A848FBF766FD95
:108A600038B9002C00F01F81A5490320FFF738FF1B
:108A700019E1A44822F0D4FBA34B9FEDA47AD3EDD7
:108A8000007AF8EEE77A30EE670AF0EEC07AF4EE9C
:108A9000C77AF1EE10FA00F30F819648FBF714FC49
:108AA00090F90030012B05D09248FBF70DFC0378BC
:108AB0005D074BD596480021FBF74EFD002800F0DE
:108AC0000081934818F006FD002800F0FF809048D0
:108AD000FBF77EFD07C88DE80700684627F03CF8E5
:108AE000DFED8C7AB4EEE70AF1EE10FA00F3F380D2
:108AF0008748FBF79BFD27F02FF8DFED877AB4EE70
:108B0000E70AF1EE10FA00F3EB80DFED847AB4EEC1
:108B1000E70AF1EE10FA00F1E3807D48FBF764FB11
:108B2000012813D97A48FBF781FD07C803AD85E812
:108B300007002846FFF7BEFE4FF000087448FBF719
:108B400053FB5FFA88F68642C0F010816948FBF754
:108B5000BBFB90F90030012B05D06648FBF7B4FB56
:108B6000037818071AD56E4B1878FBF71BFC002802
:108B700040F024816B48FBF7A7FB90F90030032BF2
:108B800000F01C81684811F0ABFF002800F08B80DA
:108B9000654811F089FF810700F117815548FBF7FF
:108BA00093FB90F90030012B05D05248FBF78CFB6A
:108BB0000378DA060BD55D4823F044FD002800F069
:108BC0000B815A4824F088F8002800F00B814948AE
:108BD000FBF77AFB90F90030012B05D04548FBF7F5
:108BE00073FB03789B065BD55148FBF76DFB90F94F
:108BF0000030002B40F0FC804E48FBF765FB90F9FD
:108C00000030002B40F0F4804B48FBF75DFB90F9FF
:108C10000030BBB14948FBF77DFBB0F90050484834
:108C2000FBF778FBB0F900300A339D4240F3F18046
:108C30004348FBF76FFBB0F9002040F28D339A42B6
:108C400040F3E7803F48FBF765FBB0F90030B3F530
:108C50007A7FC0F2E4803B48FBF75CFBB0F9003060
:108C6000B3F5FA5F00F3DB803748FBF79BFD90ED2F
:108C7000008A3648FBF7B6FDB4EEC08AF1EE10FA72
:108C800000F3D3803248FBF78DFD90ED008A314828
:108C9000FBF7A8FDB4EEC08AF1EE10FA00F3C58030
:108CA0000120FDF7D9FB1248394672F04BF90CB0A0
:108CB000BDEC028BBDE8F081002CF4D003202649E6
:108CC000D4E6002CEFD003202449CFE6002CEAD0D4
:108CD00003202349CAE6002CE5D003202149C5E63C
:108CE000002CE0D003202049C0E600BFF01E002089
:108CF000F1890008A115002040AD0A083880002045
:108D00005AAD0A0808140020B01300200000C84221
:108D1000808300200000FA4300A05A4400803943B9
:108D20007C8300206015002000800020381900207E
:108D30009F150020A0150020861500207616002023
:108D40008815002010810020F81700201C19002031
:108D5000FC1700202019002073AD0A0889AD0A080D
:108D6000A5AD0A08C4AD0A08E5AD0A083146324887
:108D7000FBF748FC07C806AE86E807003046FFF759
:108D800099FD3046294626F0C5FD09A88DED090A52
:108D9000CDED0A0A8DED0B1A26F0DEFEF6EE087A0E
:108DA000B4EEE70AF1EE10FA08F101087FF7C6AE5B
:108DB000002C3FF478AF0320204957E62046FFF708
:108DC000AFFD00287FF4DEAE6DE72046FFF7A8FD7B
:108DD00000283FF468AFE1E6002C3FF464AF0320C5
:108DE000174943E6002C3FF45EAF032015493DE6EA
:108DF0001548FBF769FA05781448FBF765FA03781C
:108E00009D427FF401AF002C3FF44DAF0320104989
:108E10002CE6002C3FF447AF03200E4926E6002C39
:108E20003FF441AF03200C4920E6002C3FF43BAF58
:108E300003200A491AE600BF80830020FDAD0A081E
:108E40001CAE0A0837AE0A089F150020A0150020A6
:108E50004FAE0A0872AE0A088DAE0A08A5AE0A081F
:108E6000F8B5714604465A48764672F059F85948A2
:108E7000FBF72AFA90F900300BB90124A2E055481B
:108E8000FBF722FA90F90030012B05D05148FBF78F
:108E90001BFA0378980712D54F4822F0C1F94F4BBF
:108EA0009FED4F7AD3ED007AF8EEE77A30EE670A5D
:108EB000F0EEC07AF4EEC77AF1EE10FA6DDC4548B8
:108EC000FBF702FA90F90030012B05D04148FBF77F
:108ED000FBF9037819070CD5424B1878FBF762FAB7
:108EE00000285FD14048FBF7EFF990F90030032BE1
:108EF00058D03848FBF7E8F990F90030012B05D03D
:108F00003448FBF7E1F903789A0612D5374D05F19D
:108F10004A00FBF7D9F990F9003053B105F14C0044
:108F2000B5F83071FBF7F6F9B0F900303FB2BB424B
:108F30003EDC2848FBF7C8F990F90030012B05D03A
:108F40002448FBF7C1F90378DB0617D5284D2948DB
:108F50002B6983EAE377A7EBE377FBF7DBF9B0F95B
:108F600000309F4229DC23486D69FBF7D3F9B0F943
:108F70000030002DB8BF6D429D421EDC1E4BD86BE9
:108F800003685B68984701287FF477AF1CB11B49E1
:108F90000320FFF7A5FC002414E0002CFBD00320E5
:108FA0001749F6E72046FFF7BBFC0028F3D0A0E7FF
:108FB000002CF0D003201349EBE7002CEBD003206A
:108FC0001149E6E70248314671F0BCFF2046F8BD82
:108FD000618E0008A115002008140020B0130020A5
:108FE0000000C8427C830020601500203C15002052
:108FF0001086002010810020E4DA0020E0AE0A088C
:1090000076AD0A08C1AE0A08D3AE0A0870B571463B
:1090100005461A48764671F083FFFFF7BBFB184BF5
:109020001B78C3F3C00434B9164B174ACC2000FB9D
:109030000530032107E0DC0908D1124B134ACC208C
:1090400000FB053003214BF041F911E0104BD86BC8
:1090500003685B689847012809D10A4B0D4ACC2068
:1090600000FB053003214BF031F9002400E001241E
:109070000248314671F066FF204670BD0D90000831
:10908000F01E0020241C0020F3AE0A0811AF0A08CD
:10909000E4DA002030AF0A082DE9F041124E044610
:1090A0000F4630467146754671F03AFF94ED007AEE
:1090B000D7ED007AB4EE677AF1EE10FA0CBF4FF0FC
:1090C00000084FF0010820463946FBF7F3FE414601
:1090D000204644F095F829460446304671F032FFA8
:1090E0002046BDE8F08100BF999000082DE9F041CD
:1090F000104E04460F4630467146754671F010FF1B
:1091000097F9003094F90080B8EB030818BF4FF0CE
:10911000010820463946FCF7E1FA4146204644F072
:109120006FF829460446304671F00CFF2046BDE832
:10913000F08100BFED9000082DE9F041104E04468B
:109140000F4630467146754671F0EAFEB7F90030B9
:10915000B4F90080B8EB030818BF4FF001082046AF
:109160003946FCF703FD4146204644F049F82946BC
:109170000446304671F0E6FE2046BDE8F08100BFAF
:109180003991000838B5074D71462846744671F08C
:10919000C7FE054842F0C2FB28462146BDE83840DC
:1091A00071F0D0BE859100085421002010B50A4806
:1091B0007146744671F0B4FE0848FBF785F890F9E3
:1091C000003013B1064817F0D7FE21460248BDE82B
:1091D000104071F0B7BE00BFAD91000864150020CB
:1091E00080830020F8B51E4E1E4F2DED028B714678
:1091F00007F142043046754671F092FE2046FBF7B7
:1092000089F8B0F900305B4207EE903A2046B8EE9C
:10921000E78AFBF77FF8B0F90000134C00EE900AE4
:10922000B0EE480AF8EEE00A204610F027F907F100
:109230004400FBF76FF8B0F9000000EE100A20467A
:10924000B8EEC00A10F056F9204610F029FE30465C
:10925000294671F077FEBDEC028B0120F8BD00BFFE
:10926000E59100083C1500201C810020F8B51E4E39
:109270001E4F2DED028B714607F1420430467546B4
:1092800071F04EFE2046FBF745F8B0F900305B4226
:1092900007EE903A2046B8EEE78AFBF73BF8B0F9C4
:1092A0000000134C00EE900AB0EE480AF8EEE00A17
:1092B000204610F0E3F807F14400FBF72BF8B0F973
:1092C000000000EE100A2046B8EEC00A10F012F9B5
:1092D000204610F0E5FD3046294671F033FEBDEC26
:1092E000028B0120F8BD00BF6D9200083C150020E4
:1092F0001C81002038B571462DED028B05462648AD
:10930000744671F00DFEFBF7EDF908B92DB93BE09D
:10931000224822F029F80028F8D0214B21480022C9
:109320001A70FBF70FFC204810F0FAF91D48FBF704
:1093300025FC1D4810F0CCF91C48FAF7EBFFB0F9FA
:1093400000301A485B4207EE903AB8EEE78AFAF727
:10935000E1FFB0F9000000EE900AB0EE480AF8EE26
:10936000E00A114810F08AF81148FAF7D3FFB0F973
:10937000000000EE100A0C48B8EEC00A10F0BAF86F
:109380000C4812F07DFA01250348214671F0DAFD00
:10939000BDEC028B284638BDF59200080814002069
:1093A000D61A0020141F00201C8100207E150020EA
:1093B00080150020CC85002070B571462DED028B04
:1093C00006461E48754671F0ABFDFBF78BF9044667
:1093D00000B956B31A4812F03FFC1A48FAF79AFF40
:1093E000B0F9003017485B4207EE903AB8EEE78AD2
:1093F000FAF790FFB0F9000000EE900AB0EE480ACC
:10940000F8EEE00A104810F039F81048FAF782FF39
:10941000B0F9000000EE100A0B48B8EEC00A10F0D8
:1094200069F8094810F03CFD01240448294671F010
:1094300089FDBDEC028B204670BD00BFB9930008CA
:10944000141F00207E1500201C81002080150020A4
:1094500070B571462DED028B06463948754671F0A0
:109460005FFDFBF73FF9044608B9002E60D0354890
:10947000354CFAF74FFFB0F9003032485B4207EE47
:10948000903AB8EEE78AFAF745FFB0F9000000EE2F
:10949000900AB0EE480AF8EEE00A2C480FF0EEFF12
:1094A0002B48FAF737FFB0F9000000EE100A274802
:1094B000B8EEC00A10F01EF8244810F0F1FC0023AA
:1094C00024486380A380FAF725FFB0F90000DFEDA0
:1094D000227A224B06EE900AF8EEE66AB2EE0E7A97
:1094E000E6EE877A1B789FED1E7A67EE877ADA09B7
:1094F000C4ED027A237809D0042262F3020362F3F6
:10950000C5031848237012F0A7FB04E062F30203BE
:1095100062F3C50323706378134843F0010363705B
:10952000FBF710FC0023A385E38584F83130012488
:109530000348294671F006FDBDEC028B204670BD44
:10954000519400087E150020441300201C81002047
:1095500080150020721500200000BE42F01E002081
:109560000AD7233C141F00206813002010B52DEDEE
:10957000028B1F4884B07146744671F0D1FCFBF732
:10958000B1F81C4B187058B101A8FBF713FB1A482F
:1095900001A912F0CFFB184801A9012212F00AFB21
:1095A0001548FBF71BFB1448B0EE408AFBF732FB73
:1095B0001248F0EE400AB0EE480A0FF05FFF0E4886
:1095C000FBF744FB0D480FF095FF0C4810F068FCCA
:1095D000FBF7DAF90A4B18600A4B054800222146CE
:1095E0001A7071F0AFFC012004B0BDEC028B10BD0D
:1095F0006D950008EA1A0020141F00201C8100202D
:10960000F0130020648300202DE9F04171462DED18
:10961000068B80464B484C4D4C4E4D4C7746F0EEF9
:10962000408AB0EE609A71F07BFCFBF7ADF9494AD5
:109630001168411AB1F57A7F034618D9B6F90010BE
:10964000A07807EE101A617841EA0021E07841EA3B
:10965000004141F3170107EE901AB8EEC77AF8EE11
:10966000E77A77EE677A77EEA87AC5ED007A07EEAB
:10967000908AB8F1000F1360B8EEE78A04DA364B2F
:109680001B7B13F0040F04E00AD0334B1B7B13F059
:10969000080F05D1D5ED007AE8EE097AC5ED007A1C
:1096A000B6F900102D48D5ED009A09EE101AFCF716
:1096B0007DFBB6F900302948B8EEC99A0AEE103A97
:1096C00039EE409AFCF78AFBB8EECAAAF0EE490AD6
:1096D00030EE0A1AB0EE690A23F012FFA27863781E
:1096E000B6F900601E4885ED000A43EA0223E278DD
:1096F00043EA024343F3170307EE903AB8EEE77AE2
:1097000007EE906AF8EEE77A77EE677A77EEE88A06
:1097100078EE808AFBF746F890ED000ADFED110A3B
:109720009FED111A28EE800A23F0EAFE0548F0EEBC
:10973000408A394671F006FC38EE880ABDEC068B8B
:10974000BDE8F08109960008E41A0020001F0020FF
:10975000A4130020FC7F0020602000201C8100203A
:1097600050150020000016C300001643F8B5194D2F
:109770002DED028B0646B0EE408A28460F46714614
:10978000744671F0CDFBB0EE480ADFED130AB7EE78
:10979000001A23F0B5FE28462146B0EE408A71F04B
:1097A000D1FB06EE907AB7EE007A37EE487AF8EE03
:1097B000E67A06EE906A67EE277AB8EEE67AE8EE89
:1097C000077ABDEC028BFDEEE77A17EE900A00B245
:1097D000F8BD00BF6D9700080000000030B52DED0A
:1097E000048B044683B048487146754671F098FB77
:1097F000002C5AD04548FAF78DFDB0F90030B3F58A
:10980000FA7F52D000214FF47A72204623F0FEFDF9
:1098100004463E48FAF77EFD4FF496714FF42F72DE
:10982000B0F9000023F0F2FD02A921F8020D37483B
:10983000FBF7AEFAB4F5FA7F40DA3548FAF76AFD7D
:10984000B0F9000008EE100A3148FAF763FDB0F9EC
:1098500000302E48E41A06EE904AB8EEE69AFAF77F
:1098600059FDB0F900402A48FAF754FDB0F900302C
:109870002748E31A08EE903AFAF74CFDB0F90030A9
:10988000C3F5FA73F8EEE88A07EE103A68EE898AB3
:10989000F8EEC77AB8EEC88AC8EEA78A38EE888A8A
:1098A000BDEEC88A18EE104AA4B21748294671F0D6
:1098B00049FB20B203B0BDEC048B30BD13481FD070
:1098C000FAF728FDB0F9000008EE100A0F48FAF781
:1098D00021FDA4F5FA74B0F90030DFED0E7A07EE41
:1098E000104AC3F57A73B8EEC77A06EE903A27EEBF
:1098F000277AB8EEC88AF8EEE67AA7EE278ACFE78D
:10990000FAF708FD0488D0E7DD9700088C150020E1
:10991000821500206F12033B70B504460E461B48AB
:109920007146754671F0FCFA032C0AD11848FBF712
:109930001DFA012802D1164826F004FC1548FEF74E
:10994000A5FF2046FAF768FF58B13046FAF764FFE2
:1099500038B91148FAF78EFD18B1104B1B78DB09A6
:109960000BD0012C03D10E480021FBF773F82946D8
:109970000648BDE8704071F0E5BA0A4BB3F9320110
:10998000FFF72CFFFBF730FAEBE700BF199900084F
:10999000842100204C85002060200020F01E002043
:1099A000541B00203C1500202DE9F04B80460E464C
:1099B000304871461D467446174671F0B1FA40466C
:1099C0002D4941F2941223F021FD41F294122A49CB
:1099D0008046304623F01AFD06462848FAF79AFCDE
:1099E000B0F9002041F294139A4203D1A7F8008005
:1099F0002E8039E02148DFF88CB0DFF88C90FAF740
:109A000089FCBBF90030B0F900209A4214D01B4801
:109A1000FAF780FC03881948ABF80030FAF77AFCB3
:109A2000B0F900009FED167A07EE900AF8EEE77A9B
:109A300067EE877AC9ED007A06EE908AD9ED007A52
:109A4000B8EEE67A06EE906A27EE277ABDEEC77A80
:109A500017EE103AB8EEE67A3B8067EE277AFDEE15
:109A6000E77A17EE903A2B8021460248BDE8F04B8A
:109A700071F068BAA99900086CEEFFFF1081002010
:109A800053046939D41A00200C0E002070B57146B9
:109A90002DED028B05462448744671F041FA2348A7
:109AA000FAF738FCB0F900307BB92148FAF732FCFC
:109AB000B0F90030B3F57A7F07D11B48214671F029
:109AC00041FABDEC028B28B270BD1948FAF722FCAE
:109AD000B0F900601548FAF71DFCB0F900301348E2
