:020000040800F2
:1040000054C100203D780708797F0708797F0708A9
:10401000797F0708797F0708797F0708797F070884
:10402000797F0708797F0708797F0708797F070874
:10403000797F0708797F0708797F0708797F070864
:10404000797F0708797F0708797F0708797F070854
:10405000797F0708797F0708797F0708797F070844
:10406000797F0708797F0708797F0708797F070834
:10407000797F0708797F0708797F0708797F070824
:10408000797F0708797F0708797F0708797F070814
:10409000797F0708797F0708797F0708797F070804
:1040A000797F0708797F0708797F0708797F0708F4
:1040B000797F0708797F0708797F0708797F0708E4
:1040C000797F0708797F0708797F0708797F0708D4
:1040D000797F0708797F0708797F0708797F0708C4
:1040E000797F0708797F0708797F0708797F0708B4
:1040F000797F0708797F0708797F0708797F0708A4
:10410000797F0708797F0708797F0708797F070893
:10411000797F0708797F0708797F0708797F070883
:10412000797F0708797F0708797F0708797F070873
:10413000797F0708797F0708797F0708797F070863
:10414000797F0708797F0708797F0708797F070853
:10415000797F0708797F0708797F0708797F070843
:10416000797F0708797F0708797F0708797F070833
:10417000797F0708797F0708797F0708797F070823
:10418000797F0708797F070838B5064D7446714670
:10419000284674F0ADF92846214674F0BBF900209A
:1041A00038BD00BF8941000838B5064D7446284621
:1041B000714674F09DF928462146BDE8384074F0F8
:1041C000A9B900BFA941000870B5074D0646714660
:1041D0002846744674F08CF996F881612846214689
:1041E00074F098F9304670BDC9410008F8B5084D23
:1041F000064674460F462846714674F079F986F8EB
:10420000E17028462146BDE8F84074F083B900BF4C
:10421000ED41000870B5064D7446714606462846C5
:1042200074F066F92846214674F074F9304670BD82
:1042300015420008F8B5084D064674460F46284654
:10424000714674F055F986F8807128462146BDE81C
:10425000F84074F05FB900BF35420008F8B5044675
:1042600071460E4804F13206754674F041F9304645
:10427000676CFFF7CFFF01783846FFF7B7FFA46BF5
:1042800034B13046FFF7C6FF01782046FFF7D2FF72
:1042900029460248BDE8F84074F03CB95D42000888
:1042A00070B5084D714606462846744674F020F9EC
:1042B0003046FFF7D3FF28462146BDE8704074F032
:1042C00029B900BFA142000870B5064D7446714679
:1042D0000646284674F00CF92846214674F01AF96F
:1042E000304670BDC942000870B5064D744671462F
:1042F0000646284674F0FCF82846214674F00AF970
:10430000304670BDE942000870B5074D064671465B
:104310002846744674F0ECF896F808612846214661
:1043200074F0F8F8304670BD0943000870B5084DC8
:10433000714606462846744674F0DAF83046FFF7B0
:10434000C3FF06782146284674F0E4F8304670BD75
:104350002D43000870B5084E044671463046754638
:1043600074F0C6F800233046A360636023602946DA
:1043700074F0D0F8204670BD5543000870B5074D65
:10438000744671460646284674F0B2F8284621461F
:1043900074F0C0F806F1580070BD00BF7D430008FE
:1043A00070B5094E714604463046754674F0A0F863
:1043B0000648FFF7E3FF07C884E8070030462946B0
:1043C000BDE8704074F0A6B8A1430008445C00202A
:1043D00038B5714604460C48754674F089F8E01EFD
:1043E000C0B20D2808D80123834042F21F101840A4
:1043F000041C18BF012400E000240348294674F07F
:1044000089F8204638BD00BFD143000870B5074D7C
:10441000744671460646284674F06AF828462146D6
:1044200074F078F806F1680070BD00BF0D44000814
:1044300070B5074D744671460646284674F058F824
:104440002846214674F066F806F18C0070BD00BF66
:104450003144000870B5074D74467146064628463B
:1044600074F046F82846214674F054F806F1B0007E
:1044700070BD00BF5544000870B5074D0646714633
:104480002846744674F034F8044B1E6028462146D2
:10449000BDE8704074F03EB879440008C87D002043
:1044A00070B5084D064671462846744674F020F8EB
:1044B000767B284606F00106214674F02BF830463C
:1044C00070BD00BFA144000870B50A4D2DED028BF0
:1044D000714606462846744674F00AF896ED058A39
:1044E0002846214674F016F8B0EE480ABDEC028B5F
:1044F00070BD00BFC944000870B50A4D2DED028B98
:10450000714606462846744673F0F2FF96ED068A19
:104510002846214673F0FEFFB0EE480ABDEC028B40
:1045200070BD00BFF944000870B50A4D2DED028B37
:10453000714606462846744673F0DAFF96ED078A00
:104540002846214673F0E6FFB0EE480ABDEC028B28
:1045500070BD00BF29450008F8B50746074D0E4657
:104560003E4471462846744673F0C2FF767B284667
:10457000214673F0CFFF3046F8BD00BF5945000813
:1045800070B50B4D714606462846744673F0B0FF71
:1045900006F10C00FFF798FE90F90060003618BF96
:1045A00001262846214673F0B5FF304670BD00BF96
:1045B0008145000870B5064D74467146064628468A
:1045C00073F096FF2846214673F0A4FF304670BD75
:1045D000B5450008F8B50A4D06460F46284671460F
:1045E000744673F085FF0C2303FB07602C30FFF744
:1045F000E1FF21460646284673F08CFF3046F8BDA1
:10460000D545000870B50B4E0446714630467546D8
:1046100073F06EFF236820461B69984701462046C9
:10462000FFF7D8FF29460446304673F073FF204653
:1046300070BD00BF05460008F8B5084D7446064633
:104640000F462846714673F053FF2846214673F003
:1046500061FF0C2303FB07601030F8BD39460008EA
:1046600070B50B4E044671463046754673F040FFF8
:10467000236820461B69984701462046FFF7DCFF68
:1046800029460446304673F045FF204670BD00BF02
:104690006146000870B5084D0646714628467446C6
:1046A00073F026FF36792846C6F34006214673F09C
:1046B00031FF304670BD00BF95460008F8B5094D82
:1046C0000F46064671462846744673F011FF38239C
:1046D00003FB07662846767F214673F01BFF3046B2
:1046E000F8BD00BFBD46000870B50A4D06467146CC
:1046F0002846744673F0FCFE96F89410304601F09C
:104700000301FFF7DBFF21460646284673F002FF50
:10471000304670BDE946000838B512487146744607
:1047200073F0E6FE104B1B78D80714D50F48FFF73F
:10473000DBFF02280FD90E48FFF7ACFF58B90D4B2D
:104740001B78190707D40C4A5278D20703D49B066A
:1047500001D4012500E000250248214673F0DAFE6D
:10476000284638BD194700086C5F0020FC64002013
:10477000445F002014620020D4130020F8B5094DD6
:104780000F46064671462846744673F0B1FE38233C
:1047900007FB03331E442846B688214673F0BAFE51
:1047A0003046F8BD7D47000870B50A4D0646714693
:1047B0002846744673F09CFE96F89410304601F03B
:1047C0000301FFF7DBFF21460646284673F0A2FEF1
:1047D000304670BDA947000870B5064D7446714655
:1047E0000646284673F084FE2846214673F092FE62
:1047F000304670BDD947000870B5064D7446714605
:104800000646284673F074FE2846214673F082FE61
:10481000304670BDF947000870B50B4D2DED028B89
:10482000714606462846744673F062FE3046FFF72E
:10483000E3FF90ED008A2146284673F06BFEB0EE50
:10484000480ABDEC028B70BD1948000838B57146A6
:1048500004460B48754673F04BFE0D2C09D8012316
:1048600003FA04F442F6030323401C1C18BF01247E
:1048700000E000240248294673F04CFE204638BD73
:104880004D48000870B5084D0646714628467446E6
:1048900073F02EFE337C43F01C033374284621460C
:1048A000BDE8704073F036BE85480008F8B5084D85
:1048B0000F46064671462846744673F019FE3B685B
:1048C000336028462146BDE8F84073F023BE00BFA0
:1048D000AD480008F7B50A4E02AC24ED010A714656
:1048E00007463046754673F003FE38462146FFF70B
:1048F000DDFF3046294673F00DFE03B0F0BD00BF6A
:10490000D5480008F7B50A4E02AC24ED010A7146FD
:1049100007463046754673F0EBFD381D2146FFF71C
:10492000C5FF3046294673F0F5FD03B0F0BD00BF6A
:1049300005490008F7B50A4E02AC24ED010A71469C
:1049400007463046754673F0D3FD07F1080021464F
:10495000FFF7ACFF3046294673F0DCFD03B0F0BD35
:1049600035490008F7B50A4E02AC24ED010A71463C
:1049700007463046754673F0BBFD38462146FFF7C3
:1049800095FF3046294673F0C5FD03B0F0BD00BF6A
:104990006549000870B50B4D2DED028B714606463A
:1049A0002846744673F0A4FD3046FFF725FF90EDCE
:1049B000008A2146284673F0ADFDB0EE480ABDECF2
:1049C000028B70BD9549000870B50B4D2DED028B23
:1049D000714606462846744673F08AFD301DFFF77F
:1049E0000BFF90ED008A2146284673F093FDB0EE50
:1049F000480ABDEC028B70BDC949000870B50C4D6A
:104A00002DED028B714606462846744673F070FD04
:104A100006F10800FFF7F0FE90ED008A21462846D7
:104A200073F078FDB0EE480ABDEC028B70BD00BF9C
:104A3000FD490008F8B50A4D06460F46284671465E
:104A4000744673F055FD96F8363067F3410386F8E7
:104A5000363028462146BDE8F84073F05BBD00BF04
:104A6000354A0008F8B5074D064674460F462846F5
:104A7000714673F03DFD777228462146BDE8F84047
:104A800073F048BD654A0008F8B50A4D06460F4662
:104A900028467146744673F02BFD96F8363067F35E
:104AA000C30386F8363028462146BDE8F84073F047
:104AB00031BD00BF894A0008F8B50A4D06460F46C9
:104AC00028467146744673F013FD96F8363067F346
:104AD000451386F8363028462146BDE8F84073F085
:104AE00019BD00BFB94A000838B5074D71462846C0
:104AF000744673F0FDFC0548FFF756FB2846214637
:104B0000BDE8384073F006BDE94A0008D0620020D5
:104B100070B5094D71462846744673F0E9FC074BA1
:104B2000986B03689B68984721460646284673F0B1
:104B3000F1FC304670BD00BF114B0008187C00200E
:104B400070B5094D064671462846744673F0D0FC90
:104B5000064B1A7866F304121A7028462146BDE8FF
:104B6000704073F0D7BC00BF414B000814620020B6
:104B700070B50C4D2DED028B7146064628467446E5
:104B800073F0B6FC06F12400FFF726FE90ED008AD4
:104B90002146284673F0BEFCB0EE480ABDEC028BFD
:104BA00070BD00BF714B000838B5064D74467146A4
:104BB000284673F09DFC2846214673F0ABFC01208B
:104BC00038BD00BFA94B000870B50A4D2DED028B12
:104BD0000646B0EE408A28467146744673F088FC5B
:104BE00086ED1C8ABDEC028B28462146BDE870404C
:104BF00073F090BCC94B000838B5084D7146284683
:104C0000744673F075FC9FED060A0648FFF7DCFF5B
:104C10002846214673F07EFC012038BDF94B000880
:104C200000000000CC63002070B5094D71460646B7
:104C30002846744673F05CFC06F10800FFF754FB4D
:104C400006882146284673F065FC304670BD00BFDB
:104C5000294C000870B50C4D2DED028B71460646AF
:104C60002846744673F044FC06F11800FFF7B4FDC3
:104C700090ED008A2146284673F04CFCB0EE480ABD
:104C8000BDEC028B70BD00BF554C000870B50C4DDB
:104C90002DED028B714606462846744673F028FCBB
:104CA00006F12800FFF7A8FD90ED008A214628466E
:104CB00073F030FCB0EE480ABDEC028B70BD00BF53
:104CC0008D4C000870B50C4D2DED028B71460646DB
:104CD0002846744673F00CFC06F12000FFF77CFDBB
:104CE00090ED008A2146284673F014FCB0EE480A85
:104CF000BDEC028B70BD00BFC54C000870B50C4DFB
:104D00002DED028B714606462846744673F0F0FB83
:104D100006F11C00FFF760FD90ED008A2146284651
:104D200073F0F8FBB0EE480ABDEC028B70BD00BF1B
:104D3000FD4C000870B50C4D2DED028B71460646FA
:104D40002846744673F0D4FB06F12C00FFF744FDAF
:104D500090ED008A2146284673F0DCFBB0EE480A4D
:104D6000BDEC028B70BD00BF354D000870B5104E14
:104D70002DED028B714604463046754673F0B8FB44
:104D800004F10800FFF728FD90ED008A04F11000FF
:104D9000FFF722FDD0ED007A38EE678A30462946CB
:104DA00073F0B8FBB0EE480ABDEC028B70BD00BFDB
:104DB0006D4D0008F8B5094D06460F462846714668
:104DC000744673F095FB337867F3410333702846DC
:104DD0002146BDE8F84073F09DBB00BFB54D00080B
:104DE00038B5714605460748744673F081FBFFF7F6
:104DF00093FC2146002818BF0546024873F08AFB41
:104E0000284638BDE14D000870B5084D064671468C
:104E10002846744673F06CFB0023736033602846A9
:104E20002146BDE8704073F075BB00BF094E000815
:104E300038B523487146744673F05AFB214B93ED05
:104E4000000AB5EE400AF1EE10FA33D01E4DD5ED52
:104E5000007AF5EE407AF1EE10FA2BD01B48FFF7FE
:104E600039FD1B4B194893ED000AFFF74BFD194B19
:104E7000164893ED000AFFF75DFD174B174893EDB9
:104E8000000AFFF76FFD164895ED000AFFF722FDB7
:104E9000144B134893ED000AFFF734FD124B1048F2
:104EA00093ED000AFFF746FD104B114893ED000A01
:104EB000FFF758FD21460248BDE8384073F02ABB91
:104EC000314E000868630020685F002080170020D2
:104ED00088620020806200208868002088180020F6
:104EE000A0170020405C00208C5F00207C13002075
:104EF0008C180020F8B5094D06460F462846714625
:104F0000744673F0F5FA337967F30003337128467A
:104F10002146BDE8F84073F0FDBA00BFF54E000829
:104F200070B5074D064671462846744673F0E0FAA0
:104F300036782846214673F0EDFA304670BD00BF42
:104F4000214F0008F8B5084E0F460446714630461A
:104F5000754673F0CDFA3B8823803046294673F0BE
:104F6000D9FA2046F8BD00BF454F000870B50A4D7C
:104F70002DED028B0646B0EE408A284671467446F7
:104F800073F0B6FA86ED048ABDEC028B2846214602
:104F9000BDE8704073F0BEBA6D4F0008F8B50E4D15
:104FA0000E4E714607462846744673F0A1FA06F184
:104FB0004E00FFF799F9B0F90030FB1A00EE103AF5
:104FC00006F53A70B8EEC00AFFF7D0FF2846214632
:104FD000BDE8F84073F09EBA9D4F00083C150020D4
:104FE000F8B5084E0F46044671463046754673F0D4
:104FF0007FFA3B6823603046294673F08BFA2046DF
:10500000F8BD00BFE14F0008F7B50A4E02AC24ED31
:10501000010A714607463046754673F069FA214623
:1050200007F11400FFF7DCFF3046294673F072FAEF
:1050300003B0F0BD09500008F8B5084E0F4604460D
:1050400071463046754673F053FA3B78237030460C
:10505000294673F05FFA2046F8BD00BF39500008BA
:10506000F7B50A4E02AC24ED010A714607463046F8
:10507000754673F03DFA214607F12C00FFF7B0FFAB
:105080003046294673F046FA03B0F0BD615000087F
:1050900070B50E4E2DED048B0446B0EE409AF0EE46
:1050A000608AB0EE418A75467146304673F020FA48
:1050B00084ED009AC4ED018A84ED028A30462946C7
:1050C00073F028FABDEC048B204670BD91500008A7
:1050D00070B5084D064671462846744673F008FAC6
:1050E00036792846C6F34006214673F013FA304657
:1050F00070BD00BFD150000870B504460E460B4885
:105100007146754673F0F4F994F840300748C3F3DC
:1051100081039E42B6BF04EBC604002494F82C40E1
:10512000294673F0F7F9204670BD00BFF95000081A
:1051300070B50A4D064671462846744673F0D8F994
:1051400096F84010304601F00301FFF7D5FF2146E5
:105150000646284673F0DEF9304670BD315100082E
:10516000F8B50F46074D064606EBC70671462846BA
:10517000744673F0BDF9368D2846214673F0CAF99E
:105180003046F8BD6151000870B50A4D06467146BB
:105190002846744673F0ACF996F84010304601F09A
:1051A0000301FFF7DDFF21460646284673F0B2F9FA
:1051B000304670BD89510008F8B50A4D06460F46C5
:1051C00028467146744673F093F906EB47001E308B
:1051D000FFF78AF806882146284673F09BF930B21B
:1051E000F8BD00BFB951000870B50A4D06467146BA
:1051F0002846744673F07CF996F84010304601F06A
:105200000301FFF7D9FF21460646284673F082F9CD
:10521000304670BDE9510008F8B50A4D06460F4604
:1052200028467146744673F063F906EB4700223056
:10523000FFF75AF806882146284673F06BF930B21A
:10524000F8BD00BF1952000870B50A4D06467146F8
:105250002846744673F04CF996F84010304601F039
:105260000301FFF7D9FF21460646284673F052F99D
:10527000304670BD4952000870B5074D064671466C
:105280002846744673F034F9B6F8946028462146EF
:1052900073F040F930B270BD7952000870B50A4D14
:1052A0002DED028B714606462846744673F020F9B0
:1052B00096ED1C8A2846214673F02CF9B0EE480A78
:1052C000BDEC028B70BD00BF9D52000870B50A4D49
:1052D0002DED028B714606462846744673F008F998
:1052E00096ED2C8A2846214673F014F9B0EE480A50
:1052F000BDEC028B70BD00BFCD52000870B50A4DE9
:105300002DED028B714606462846744673F0F0F880
:1053100096ED2F8A2846214673F0FCF8B0EE480A35
:10532000BDEC028B70BD00BFFD520008F8B5084D02
:10533000744606460F462846714673F0D9F828464B
:10534000214673F0E7F8382303FB07602630F8BDE9
:105350002D53000870B50A4D06467146284674461E
:1053600073F0C6F896F89410304601F00301FFF789
:10537000DDFF21460646284673F0CCF8304670BD66
:1053800055530008F8B5084D064674460F462846A2
:10539000714673F0ADF886F8287028462146BDE8BE
:1053A000F84073F0B7B800BF85530008F8B50A4D50
:1053B00006460F4628467146744673F099F80C234A
:1053C00003FB0760BC30FFF7F5F821460646284688
:1053D00073F0A0F83046F8BDAD53000870B50B4E21
:1053E000044671463046754673F082F823682046BD
:1053F000DB6C984701462046FFF7D8FF2946044654
:10540000304673F087F8204670BD00BFDD530008BA
:105410002DE9FF4BDFF8648071464046774673F014
:1054200067F81348FFF7DAFF124B06460068D3F817
:105430000090A0F069FD04467068D9F800B00D46F0
:10544000A0F062FDCDE90001B068A0F05DFDCDE9FE
:10545000020122464846DBF8206007492B46B04748
:105460004046394604B0BDE8F04B73F053B800BF76
:10547000385A00202062002074820A081154000863
:10548000F8B50A4D06460F4628467146744673F035
:105490002FF80C2303FB07609830FFF78BF82146A9
:1054A0000646284673F036F83046F8BD81540008A9
:1054B00070B50B4E044671463046754673F018F8C9
:1054C000236820469B6C984701462046FFF7D8FF8B
:1054D00029460446304673F01DF8204670BD00BFD3
:1054E000B1540008F8B50A4D06460F4628467146E5
:1054F000744672F0FDFF0C2303FB07607430FFF766
:1055000059F821460646284673F004F83046F8BD9F
:10551000E554000870B50B4E04467146304675469A
:1055200072F0E6FF236820469B6C984701462046B0
:10553000FFF7D8FF29460446304672F0EBFF2046BD
:1055400070BD00BF155500082DE9F04BDFF89090B5
:10555000204C8CB071464846F04672F0C9FF204698
:10556000FFF7A6FF07462046FFF7D4FF1A4BD3F8F4
:1055700000B00646DBF8003038680B93A0F0C4FC9E
:10558000044678680D46A0F0BFFCCDE90001B8687C
:10559000A0F0BAFCCDE902013068A0F0B5FCCDE97D
:1055A00004017068A0F0B0FCCDE90601B068A0F07D
:1055B000ABFCCDE908010B9B08491E6A5846224600
:1055C0002B46B047484641460CB0BDE8F04B72F060
:1055D000A1BF00BF385A00202062002090820A0834
:1055E0004955000870B5084D714606462846744670
:1055F00072F07EFF3046FEF767FE067821462846A9
:1056000072F088FF304670BDE555000870B5084D52
:10561000714606462846744672F06AFF701CFEF713
:1056200053FE06782146284672F074FF304670BD5E
:105630000D56000870B5084D71460646284674465A
:1056400072F056FFF01CFEF73FFE06782146284612
:1056500072F060FF304670BD3556000870B5084DD9
:10566000714606462846744672F042FFB01CFEF7AB
:105670002BFE06782146284672F04CFF304670BD5E
:105680005D56000838B5714604460A48754672F002
:105690002FFFB4F5966F05DBB4F5E16FD4BF01249D
:1056A000022400E000240348294672F033FF20461C
:1056B00038BD00BF85560008F7B50A4D06460F46AF
:1056C00028467146744672F013FF02A9301D01F896
:1056D000017DFFF7B1FC2846214672F01BFF03B0A5
:1056E000F0BD00BFB956000838B51548714675467B
:1056F00072F0FEFE134BB3F9EC3040F2CE4293420F
:1057000011DDB3F5AA6F10DD40F2D25293420EDDE7
:1057100040F2546293420CDD40F2D564A342CCBF08
:105720000524042406E0002404E0012402E002240D
:1057300000E003240248294672F0ECFE204638BD02
:10574000E95600083C150020F8B5084D0F460646FE
:1057500071462846744672F0CBFE3B78337028467B
:105760002146BDE8F84072F0D5BE00BF4957000899
:10577000F7B50A4D06460F4628467146744672F044
:10578000B7FE02A906F1350001F8017DFFF7DCFF45
:105790002846214672F0BEFE03B0F0BD71570008E6
:1057A00070B50A4D714606462846744672F0A0FE52
:1057B0003046FEF789FD90F90060003618BF0126DB
:1057C0002846214672F0A6FE304670BDA15700085B
:1057D00070B5084D714606462846744672F088FE3C
:1057E000B01DFEF781FD06882146284672F092FE24
:1057F00030B270BDD1570008F7B50A4D06460F46C6
:1058000028467146744672F073FE02A906F15000F4
:1058100001F8017DFFF710FC2846214672F07AFE60
:1058200003B0F0BDF957000870B5084D7146064643
:105830002846744672F05CFE3046FEF745FD067859
:105840002146284672F066FE70B270BD29580008E5
:1058500038B571462DED028B04460C487546B0EE06
:10586000408A72F045FE04F5A470FEF72DFD90F914
:1058700000300648022B08BF84ED5F8ABDEC028B26
:105880002946BDE8384072F045BE00BF51580008B7
:1058900038B571462DED028B04460C487546B0EEC6
:1058A000408A72F025FE04F5A470FEF70DFD90F914
:1058B00000300648012B08BF84ED5F8ABDEC028BE7
:1058C0002946BDE8384072F025BE00BF9158000857
:1058D000F8B5094D744606460F462846714672F0E3
:1058E00007FE2846214672F015FE0C2303FB0760D5
:1058F00000F5B270F8BD00BFD1580008F8B50F46EA
:10590000074D064606EBC70671462846744672F0F8
:10591000EFFD36692846214672F0FCFD3046F8BDA1
:10592000FD58000870B5084D064671462846744675
:1059300072F0DEFD96F894602846C6F38106214693
:1059400072F0E8FD304670BD2559000870B5074D6E
:10595000064671462846744672F0CAFD36692846E6
:10596000214672F0D7FD304670BD00BF4D5900088A
:1059700070B50B4D064671462846744672F0B8FD68
:10598000084B1A7866F3C3021A70074B5A7866F30D
:1059900004125A7028462146BDE8704072F0BABD24
:1059A0007159000814620020D07D002038B5074DE1
:1059B00071462846744672F09BFD054B00221A7012
:1059C00028462146BDE8384072F0A4BDAD59000814
:1059D000F25B002070B5074D0646714628467446B6
:1059E00072F086FDB36C9E882846214672F092FDC7
:1059F00030B270BDD559000870B50D4D71462846BE
:105A0000744672F075FD0B48FEF76EFCB0F90000AD
:105A100007EE900AFAEEEF7A2846FDEEE77A214685
:105A200017EE906AB6B272F075FD30B270BD00BF6D
:105A3000F95900088C15002070B5094D71460646CD
:105A40002846744672F054FD064B986B0268B1B25A
:105A50005268904728462146BDE8704072F05ABD12
:105A6000395A0008187C002070B5094D7146284647
:105A7000744672F03DFD074B986B0368DB689847EE
:105A800021460646284672F045FD304670BD00BFEF
:105A9000695A0008187C0020F8B5084D0F460646E4
:105AA00071462846744672F023FD3B8833802846B1
:105AB0002146BDE8F84072F02DBD00BF995A00089C
:105AC000F8B5074D064674460F462846714672F0F3
:105AD0000FFDB78028462146BDE8F84072F01ABD98
:105AE000C15A0008F8B5094D06460F4628467146CA
:105AF000744672F0FDFC3046B763FEF7AFFB2846F4
:105B00002146BDE8F84072F005BD00BFE55A000827
:105B100038B5064D74462846714672F0E9FC2846B1
:105B20002146BDE8384072F0F5BC00BF115B0008AB
:105B300070B50A4D064671462846744672F0D8FC88
:105B4000B369D3ED067AF8EEE77A2846C6ED187AFF
:105B50002146BDE8704072F0DDBC00BF315B00083B
:105B600070B50A4D2DED028B7146064628467446E7
:105B700072F0BEFC96ED2B8A2846214672F0CAFCD4
:105B8000B0EE480ABDEC028B70BD00BF615B00083F
:105B900038B50E4D2DED028B714608EE100A2846E1
:105BA000744672F0A5FC0A48FEF716FEB8EEC88AE5
:105BB000D0ED007A28EE278A2846214672F0AAFC0A
:105BC000B0EE480ABDEC028B38BD00BF915B000807
:105BD0007017002070B5094E044671463046754670
:105BE00072F086FCA0680368DB6A9847304684ED53
:105BF0001C0A2946BDE8704072F08CBCD55B0008D9
:105C000070B50A4D2DED028B714606462846744646
:105C100072F06EFC96ED168A2846214672F07AFCE8
:105C2000B0EE480ABDEC028B70BD00BF015C0008FD
:105C300070B50A4D2DED028B714606462846744616
:105C400072F056FC96ED178A2846214672F062FCE7
:105C5000B0EE480ABDEC028B70BD00BF315C00089D
:105C600070B50A4D2DED028B7146064628467446E6
:105C700072F03EFC96ED188A2846214672F04AFCE6
:105C8000B0EE480ABDEC028B70BD00BF615C00083D
:105C900070B50C4D06462DED028B714628467446B4
:105CA00072F026FCF068FFF7DBFFB0EE408ABDEE35
:105CB000C88A2846214672F02DFC18EE100ABDEC69
:105CC000028B70BD915C000870B50A4D2DED028B02
:105CD000714606462846744672F00AFC96ED198A0B
:105CE0002846214672F016FCB0EE480ABDEC028B45
:105CF00070BD00BFC95C000870B50C4D06462DEDA7
:105D0000028B71462846744672F0F2FBF068FFF78A
:105D1000DBFFB0EE408ABDEEC88A2846214672F00D
:105D2000F9FB18EE100ABDEC028B70BDF95C00089F
:105D300070B50A4D2DED028B714606462846744615
:105D400072F0D6FB96ED108A2846214672F0E2FBEF
:105D5000B0EE480ABDEC028B70BD00BF315D00089B
:105D600010B51D482DED028B7146744672F0C0FBD4
:105D70001A4B187810B11A48FFF7DAF9194B5A780C
:105D80009978DB7842EA012242EA034343F317039E
:105D9000B3F57A7F0ADB18B1134B1B78022B05D8B9
:105DA0001248FFF7C5FFB0EE408A0BE01048FEF73F
:105DB0009BFAB0F90030002BC8BF5B4207EE903A67
:105DC000B8EEE78A0448214672F0A4FBB0EE480A18
:105DD000BDEC028B10BD00BF615D0008340D0020DA
:105DE000B46400203166002084130020CC630020BE
:105DF0007C15002070B50C4D06462DED028B7146CA
:105E00002846744672F074FBF068FFF729FFB0EE85
:105E1000408ABDEEC88A2846214672F07BFB18EE08
:105E2000100ABDEC028B70BDF55D000870B50C4D1D
:105E300006462DED028B71462846744672F058FBDB
:105E4000F068FFF741FFB0EE408ABDEEC88A2846F1
:105E5000214672F05FFB18EE100ABDEC028B70BD9C
:105E60002D5E000870B5094D7146064628467446F9
:105E700072F03EFBD6ED0A7AFDEEE77A284617EE81
:105E8000906A214672F046FB304670BD655E0008A0
:105E900070B5084D064671462846744672F028FBD8
:105EA0000023F386338728462146BDE8704072F010
:105EB00031BB00BF915E000870B5074D7446714656
:105EC0000646284672F014FB2846214672F022FB53
:105ED00006F15C0070BD00BFB95E000870B5084DEA
:105EE000064671462846744672F002FB367828460C
:105EF00006F00106214672F00DFB304670BD00BF72
:105F0000DD5E000870B5064D7446714606462846AB
:105F100072F0EEFA2846214672F0FCFA304670BD67
:105F2000055F000870B50A4D2DED028B0646B0EEF8
:105F3000408A28467146744672F0DAFA86ED1C8A69
:105F4000BDEC028B28462146BDE8704072F0E2BAF3
:105F5000255F000870B50A4D2DED028B0646B0EEA8
:105F6000408A28467146744672F0C2FA86ED1D8A50
:105F7000BDEC028B28462146BDE8704072F0CABADB
:105F8000555F000870B504460D462DED028B714635
:105F90006448764672F0ACFA2188B5F900200BB25D
:105FA000002B02DD002A03DA08E009B1002A05DC33
:105FB000002AB8BF5242B2F5E16F01DD2B88A8E09C
:105FC00007EE103A002BF8EEC77A9FED578A50DDA6
:105FD000564867EE888AFEF787F9B0F90030032B40
:105FE0000CDD5248FEF780F9B0F90020042392FB43
:105FF000F3F307EE903AB8EEE77A01E0B7EE007AF5
:10600000F4EEC78AF1EE10FA08DDB4F9003007EEBD
:10601000903AF8EEE77A27EE888A15E04348FEF7D3
:1060200063F9B0F90030032B0CDD4048FEF75CF952
:10603000B0F90020042392FBF3F308EE103AB8EE17
:10604000C88A01E0B7EE008AB4F9003007EE903A52
:10605000F8EEE77A37EEC88ABDEEC88A18EE103A35
:106060009BB22380B5F900201BB29342B8BF134600
:106070004FE02E4867EEC88AFEF736F9B0F90030D7
:10608000032B0CDD2948FEF72FF9B0F9002004237B
:1060900092FBF3F307EE103AF8EEC77A01E0F7EE61
:1060A000007AF4EEE78AF1EE10FA08DDB4F9003078
:1060B00007EE903AF8EEE77A27EEC88A15E01B481B
:1060C000FEF712F9B0F90030032B0CDD1748FEF78C
:1060D0000BF9B0F90020042392FBF3F308EE103A19
:1060E000B8EEC88A01E0B7EE008AB4F9003007EED6
:1060F000903AF8EEE77A38EE278ABDEEC88A18EEB5
:10610000103A9BB22380B5F900201BB29342A8BF7E
:106110001346BDEC028B238031460248BDE8704037
:1061200072F0F8B9855F0008CDCC4C3C72150020A8
:1061300038B50C4D71462846744672F0D9F90A4BB1
:106140001A78052161F302021A70C8225A830022CC
:106150005A805A8EDA8328462146BDE8384072F0CC
:10616000D9B900BF316100084413002038B50C4D87
:1061700071462846744672F0BBF90A4B1A7805211D
:1061800061F3C5021A70C8229A8300229A809A8EFF
:106190001A8428462146BDE8384072F0BBB900BFDA
:1061A0006D6100084413002038B533482DED048B91
:1061B0007146754672F09CF9304B1A78C2F3410271
:1061C000002A51D05978C8074ED52D4C6FF30001E5
:1061D0005970B4F96E3007EE103A012AB8EEC77A5A
:1061E0000AD1284BD3ED006AB4F98E3008EE903A0C
:1061F000254BF8EEE88A09E0244BD3ED006AB4F9A8
:106200008E3008EE903A224BF8EEE88AD3ED007A11
:10621000204827EEE88A68EEA68AA7EE268AE7EEEF
:10622000278AFFF753F81B48B0EE409AFFF766F84D
:1062300020EE280A1748A9EE080ABDEEC00A10EEA3
:10624000103AA4F86E30FFF759F81248B0EE409AB1
:10625000FFF73CF820EE280AA8EE490ABDEEC00A76
:1062600010EE103AA4F88E30BDEC048B294602489B
:10627000BDE8384072F04EB9A96100086C5F00209B
:106280003C150020380D0020F8650020300D00205E
:10629000006900209C1800202DE9F0410A4D80463D
:1062A0000F4628467146744672F022F90748066880
:1062B00041463A463668B0472846214672F02AF9E8
:1062C0000020BDE8F08100BF99620008187C002022
:1062D00070B50B4D064671462846744672F008F9B3
:1062E000084B1A7866F382021A70074B5A7866F3E5
:1062F000C3025A7028462146BDE8704072F00AB9C0
:10630000D162000814620020D07D002038B57146AB
:1063100004460C48754672F0EBF80B4B1A78C2F342
:106320000011A14207D064F304121A70074B1A78C7
:1063300064F3C7121A7029460248BDE8384072F06B
:10634000E9B800BF0D6300086C5F0020D07D00201D
:1063500038B5714605460948744672F0C9F8084BCD
:1063600006481A78C2F3C001A9421CBF65F3C302F4
:106370001A702146BDE8384072F0CCB8516300086D
:106380006C5F002038B5104D2DED028B714628460C
:10639000744672F0ADF80D48FDF796FF90F90000D5
:1063A000DFED0B7A07EE100AB8EEC77AB0EE008A7E
:1063B000A7EE278A2846214672F0ACF8B0EE480ACC
:1063C000BDEC028B38BD00BF85630008711500204D
:1063D000CDCCCC3D70B5714605461048744672F080
:1063E00087F8FEF795FB06460D48FDF76DFF90F91F
:1063F0000030B3EB962F01D2002508E035B9094BE8
:10640000D86A03681B6A98470028F5D1012503481C
:10641000214672F07FF8284670BD00BFD5630008A2
:106420004B150020187C0020F8B5084D7446064630
:106430000F462846714672F05BF82846214672F0F6
:1064400069F80C2303FB07604C30F8BD2964000891
:1064500070B50B4E044671463046754672F048F8EA
:1064600023682046DB6C984701462046FFF7DCFF97
:1064700029460446304672F04DF8204670BD00BFF4
:1064800051640008F8B50F46074D064606EBC706EF
:1064900071462846744672F02BF8F6682846214665
:1064A00072F038F83046F8BD8564000870B50A4DC2
:1064B000064671462846744672F01AF896F894100B
:1064C000304601F00301FFF7DDFF2146064628466E
:1064D00072F020F8304670BDAD640008F8B5094D83
:1064E000744606460F462846714672F001F8284663
:1064F000214672F00FF8382307FB0333F0180830F9
:10650000F8BD00BFDD64000870B50A4D064671464F
:106510002846744671F0ECFF96F89410304601F06E
:106520000301FFF7DBFF21460646284671F0F2FF24
:10653000304670BD09650008F8B50C4D2DED028B95
:1065400006460F4628467146744671F0D1FF38233F
:1065500003FB076696ED0D8A2846214671F0DAFFA7
:10656000B0EE480ABDEC028BF8BD00BF39650008EB
:1065700070B50D4D06462DED028B714628467446CA
:1065800071F0B6FF96F89410304601F00301FFF762
:10659000D3FF2846B0EE408A214671F0BBFFB0EE33
:1065A000480ABDEC028B70BD7165000838B5054620
:1065B00071460848744671F09BFFA88B4FF6FF7533
:1065C000A84214BF054600252146024871F0A2FFEB
:1065D000284638BDAD650008F8B50F46074D06469C
:1065E00006EBC70671462846744671F081FF768D2A
:1065F0002846214671F08EFF3046F8BDD965000867
:1066000070B50A4D064671462846744671F070FF13
:1066100096F84010304601F00301FFF7DDFF2146F8
:106620000646284671F076FF304670BD01660008C8
:1066300070B50A4D714606462846744671F058FFFB
:10664000301DFDF741FE90F90060003618BF0126AD
:106650002846214671F05EFF304670BD3166000865
:1066600070B5074D064671462846744671F040FFE6
:1066700096F828602846214671F04CFF304670BDE0
:106680006166000870B5074D064671462846744697
:1066900071F02EFF368E2846214671F03BFF3046C2
:1066A00070BD00BF8566000870B5074D064671468F
:1066B0002846744671F01CFFF66A2846214671F0A0
:1066C00029FF304670BD00BFA966000870B5064DB1
:1066D000744671460646284671F00AFF2846214650
:1066E00071F018FF304670BDCD66000870B50D46DC
:1066F000044671462448764671F0FAFE082D3BD8D0
:1067000004EB45007230FFF7E1FF007807EE900AD6
:10671000082DF8EE677A08D094F864300BB9236C32
:106720001BB1B5EE007A67EE877AF5EEC07AF1EE2E
:1067300010FA21D9254495F88430D3B99FED137A06
:1067400094F88D40F4EE477AF1EE10FAC8BFF0EEFF
:10675000477A87EE277A06EE904AF8EEE66A012439
:1067600077EE267AFCEEE77A17EE903A85F88430D9
:1067700003E0013B85F8843000240348314671F082
:10678000C9FE204670BD00BFED660008000048420B
:1067900070B5074D744671460646284671F0A8FE4E
:1067A0002846214671F0B6FE06F19C0070BD00BF80
:1067B0009167000870B50C4D2DED028B06467146B1
:1067C000B0EE408A2846744671F092FEF068B0EE52
:1067D000480AFEF7F9F9BDEC028B28462146BDE8D0
:1067E000704071F097BE00BFB567000838B50C4621
:1067F0001D487146754671F07BFE6379DB071CD539
:106800001A48FFF7C5FFA379E279817843EA0222AB
:10681000237A42EA0342437843EA0123C17843EAF8
:10682000014342F3170243F317031344C3F3072250
:10683000A371C3F30743E2712372E279A3790C4891
:1068400043EA0223227A43EA024343F3170300EEAA
:10685000103AB8EEC00AFFF7ADFF29460248BDE87E
:10686000384071F057BE00BFED6700089C1800204B
:10687000945F002070B5094D71460646284674465F
:1068800071F036FE06F13700FDF7C4FC06782146AC
:10689000284671F03FFE304670BD00BF75680008A5
:1068A00070B5074D064671462846744671F020FEC5
:1068B000367D2846214671F02DFE304670BD00BF62
:1068C000A168000870B5074E04467146304675460B
:1068D00071F00EFE044B23603046294671F01AFE1B
:1068E000204670BDC568000858720A08F8B50A4EFF
:1068F00004460F4630467146754671F0F9FD204654
:10690000FFF7E0FF054B236030462771294671F001
:1069100001FE2046F8BD00BFED68000820CA0A0845
:1069200070B50D4C064671460C48754671F0E0FD99
:10693000206803685B690EB1094900E0094998477E
:106940002068094903685B69984729460348BDE800
:10695000704071F0DFBD00BF206200202169000897
:10696000218A0A0856700A08ED8D0A0870B5094D8B
:10697000714606462846744671F0BAFD06F5A470C5
:10698000FDF7A2FC06782146284671F0C3FD30468B
:1069900070BD00BF6D690008F8B50B4D06460F4687
:1069A00028467146744671F0A3FD0C2303FB076073
:1069B00000F5A670FDF7FEFD21460646284671F05B
:1069C000A9FD3046F8BD00BF9969000870B5094DB2
:1069D000714606462846744671F08AFD06F10800A5
:1069E000FDF772FC06782146284671F093FD30468B
:1069F00070BD00BFCD69000838B5714604460D482A
:106A0000754671F075FD0C48FDF75EFC90F900309D
:106A1000022B05D0032B06D01C1C18BF012403E059
:106A200084F0010400E004240248294671F072FD5C
:106A3000204638BDF96900087015002070B50E4D6C
:106A40002DED028B714606462846744671F050FDC6
:106A50003046FFF78DFD28462146B0EE408A71F0A2
:106A600059FDDFED067A28EE278ABCEEC88A18EEBB
:106A7000100ABDEC028B70BD3D6A00080000C842E0
:106A8000F8B5094D0F46064671462846744671F022
:106A90002FFD382303FB07662846B66B214671F0AD
:106AA00039FD3046F8BD00BF816A000870B50A4D57
:106AB000064671462846744671F01AFD96F8941001
:106AC000304601F00301FFF7DBFF2146064628466A
:106AD00071F020FD304670BDAD6A000838B513482E
:106AE000134C2DED028B7146754671F001FD114876
:106AF000FDF7FAFD01280DD90E48FFF79FFF642826
:106B000008D90C48FFF7D2FF07EE100AF8EEC77A53
:106B1000C4ED007A94ED008A0448294671F0FAFC2D
:106B2000B0EE480ABDEC028B38BD00BFDD6A00083C
:106B3000FC650020FC64002070B50A4D2DED028B31
:106B4000714606462846744671F0D2FC96ED398AA5
:106B50002846214671F0DEFCB0EE480ABDEC028BFF
:106B600070BD00BF396B000870B5084E0446714611
:106B70003046754671F0BCFC0023304663602360EC
:106B8000294671F0C7FC204670BD00BF696B000844
:106B900070B5074D744671460646284671F0A8FC4C
:106BA0002846214671F0B6FC06F50B7070BD00BF9B
:106BB000916B000838B5094D71462846744671F04E
:106BC00097FC074B01221A70FEF74EFF054B186029
:106BD00021462846BDE8384071F09CBCB56B0008E2
:106BE000280D0020D068002038B5074D7146284692
:106BF000744671F07DFC054B00221A702846214630
:106C0000BDE8384071F086BCE96B0008280D002013
:106C100070B50A4D2DED028B0646B0EE408A28462F
:106C20007146744671F064FC86ED098ABDEC028BF6
:106C300028462146BDE8704071F06CBC116C00081C
:106C400070B5084D714606462846744671F050FCF2
:106C5000B01DFDF7DFFA06782146284671F05AFC90
:106C6000304670BD416C000838B5094D7146284664
:106C7000744671F03DFC074A00231380064A1360F6
:106C8000064A138028462146BDE8384071F042BCD0
:106C9000696C00080066002080130020E860002076
:106CA00038B5714604460D48754671F021FC0C4B11
:106CB0001A8801321A800B4B1A68944288BF1C60F4
:106CC00040F6B8339C4203D9074B1A8801321A8028
:106CD00029460248BDE8384071F01CBCA16C000890
:106CE0000066002080130020E860002070B5074D8A
:106CF00071462846744671F0FBFB054B1E882846FA
:106D0000214671F007FC304670BD00BFED6C0008F5
:106D10000066002070B5074D71462846744671F034
:106D2000E7FB054B1E682846214671F0F3FB304611
:106D300070BD00BF156D00088013002070B5074DB1
:106D400071462846744671F0D3FB054B1E882846D1
:106D5000214671F0DFFB304670BD00BF3D6D00087D
:106D6000E8600020F0B5234F8BB0044671463846EA
:106D7000764671F0BDFB2048FFF70AFD6268436864
:106D8000DFED1E7AD31A06EE903A1D4BA268D3EDC2
:106D9000000A8368D31AB8EEE60AA27806EE903AA3
:106DA000637843EA0223E27843EA024343F317039A
:106DB00060EEA70AB8EEE67A01EE103A04AD20EED6
:106DC000270A60EE870AB8EEC11A2846FEF760F976
:106DD00095E807000AAB03E907003846314671F031
:106DE00099FB9DED070ADDED080A9DED091A0BB030
:106DF000F0BD00BF656D00089C1800202C7D8E3F03
:106E0000440D002038B5064D74462846714671F091
:106E10006FFB28462146BDE8384071F07BBB00BFC0
:106E2000056E000838B5714605460A48744671F08B
:106E30005FFB0023EA18043300211C2B5160F9D1B9
:106E4000002385F8203021460248BDE8384071F023
:106E500061BB00BF256E000838B504462DED028BDE
:106E600071460F48B0EE408A754671F041FB94F8C8
:106E700020200B48531CDBB2062B84F8203004EB97
:106E8000820288BF002382ED018A294688BF84F8E8
:106E9000203071F03FFBB0EE480ABDEC028B38BDEC
:106EA000596E000870B5084D06467146284674466E
:106EB00071F01EFB96F840602846C6F38106214615
:106EC00071F028FB304670BDA56E000838B5094D3D
:106ED00071462846744671F00BFB074B074918684A
:106EE00003681B6A984728462146BDE8384071F080
:106EF00011BB00BFCD6E000820620020C9820A08C5
:106F000038B5094D71462846744671F0F1FA074BC1
:106F1000074AD86B116803681B68984728462146C2
:106F200071F0F8FA002038BD016F0008187C0020CD
:106F30002062002038B5064D74467146284671F02F
:106F4000D7FA2846214671F0E5FA002038BD00BF87
:106F5000356F0008F8B5084D744606460F462846BA
:106F6000714671F0C5FA2846214671F0D3FA0C2318
:106F700003FB07600430F8BD556F000870B50B4E79
:106F8000044671463046754671F0B2FA23682046D1
:106F90009B6C984701462046FFF7DCFF29460446D4
:106FA000304671F0B7FA204670BD00BF7D6F000813
:106FB000F8B50A4D06460F4628467146744671F0EC
:106FC00097FA96F8363067F3820386F8363028460B
:106FD0002146BDE8F84071F09DBA00BFB16F0008CE
:106FE00070B50B4E044671463046754671F080FA16
:106FF000236820461B69984701462046FDF7ACFAF6
:1070000029460446304671F085FA204670BD00BF1F
:10701000E16F000838B5094D71462846744671F095
:1070200067FA074B0749186803681B6A98472846A0
:10703000214671F06FFA002038BD00BF15700008BE
:1070400020620020DE820A0838B5094D71462846C4
:10705000744671F04DFA074B986B03680021DB6BA7
:1070600098472846214671F055FA002038BD00BFE8
:1070700049700008187C00202DE9F04B5D4F5E4DF3
:107080005E4C71463846764671F032FAD5F800808B
:10709000D8F8003004F17600D3F82090FDF724F9F9
:1070A000B0F900B004F17A00FDF71EF95A465449D0
:1070B000B0F900304046C847D5F80080D8F8003015
:1070C00004F19600D3F82090FDF70EF9B0F900B066
:1070D00004F19A00FDF708F95A464A49B0F9003020
:1070E0004046C847D5F80080D8F8003004F1B60013
:1070F000D3F82090FDF7F8F8B0F900B004F1BA0029
:10710000FDF7F2F85A464049B0F900304046C8470A
:10711000D5F80080D8F8003004F1D600D3F82090DC
:10712000FDF7E2F8B0F900B004F1DA00FDF7DCF8A1
:107130005A463649B0F900304046C847D5F8008075
:10714000D8F8003004F1F600D3F82090FDF7CCF821
:10715000B0F900B004F1FA00FDF7C6F85A462C4920
:10716000B0F900304046C847D5F80080D8F8003064
:1071700004F58B70D3F82090FDF7B6F8B0F900B0A5
:1071800004F58D70FDF7B0F85A462249B0F9003089
:107190004046C847D5F80080D8F8003004F59B7009
:1071A000D3F82090FDF7A0F8B0F900B004F59D7079
:1071B000FDF79AF85A461849B0F900304046C847DA
:1071C0002D682B6804F5AB70D3F82080FDF78CF8A0
:1071D000B0F9009004F5AD70FDF786F80F49B0F9ED
:1071E00000304A462846C04738463146BDE8F04B95
:1071F00071F090B979700008206200203C150020E1
:1072000009830A0817830A0825830A0833830A08B2
:1072100041830A084F830A085D830A086B830A08C2
:1072200070B504460D462D487146764671F060F9FA
:107230002368102D47D8DFE805F0090D12161A1E35
:107240002226462A2E3246363A3E42005B692449BF
:10725000204602E05B6923492046984738E05B6995
:1072600021492046F9E75B6920492046F5E75B693B
:107270001F492046F1E75B691E492046EDE75B693F
:107280001D492046E9E75B691C492046E5E75B6943
:107290001B492046E1E75B691A492046DDE75B6947
:1072A00019492046D9E75B6918492046D5E75B694B
:1072B00017492046D1E75B6916492046CDE75B694F
:1072C00015492046C9E71B6A144920462A469847B3
:1072D00031460248BDE8704071F01CB921720008C7
:1072E00079830A0883830A0888830A0891830A0835
:1072F00096830A08B0830A089D830A08A1830A08B6
:10730000A8830A08AD830A08B7830A08BD830A0860
:10731000C3830A08C8830A08D1830A08D9830A08E4
:107320002DE9F843124C814688461248714675464D
:10733000164671F0DDF820680F4907684A463F6A33
:10734000B84720684146FFF76BFF20680B49036888
:107350001B6A9847206803681B6A0EB1084900E061
:107360000849984729460348BDE8F84371F0D2B868
:107370002062002021730008E2830A08EB830A08D8
:10738000F7830A08FB830A0870B5084D7146284642
:10739000744671F0ADF80648FEF7A0FD214606469A
:1073A000284671F0B7F8304670BD00BF89730008F9
:1073B000945F002038B5064D74467146284671F03A
:1073C00097F82846214671F0A5F8002038BD00BF87
:1073D000B573000870B5074D7446714606462846D9
:1073E00071F086F82846214671F094F806F11C00E9
:1073F00070BD00BFD573000870B50A4D2DED028B2E
:10740000714606462846744671F072F896ED0C8A6D
:107410002846214671F07EF8B0EE480ABDEC028B9A
:1074200070BD00BFF973000838B512487146754643
:1074300071F05EF81048FEF751FD044698B10F4C0C
:10744000236813B9FDF764FB2060FDF761FB246836
:107450004FF47A73001BB0FBF3F4094B1B889C427A
:1074600034BF002401240348294671F053F8204614
:1074700038BD00BF29740008945F002068620020B6
:107480007C68002038B50B487146754671F030F8BD
:10749000094B1C783CB1094B1C78033CE4B2012C2D
:1074A0008CBF002401240348294671F033F820469C
:1074B00038BD00BF85740008EA600020385C0020F9
:1074C00038B571460C48754671F012F8FDF720FB8F
:1074D0000A4B1B68C01A0A4B1A6822EAE2729042F1
:1074E0004FF0000488BF1C60034888BF0124294670
:1074F00071F010F8204638BDC1740008E013002078
:107500008462002038B5064D74467146284670F0F6
:10751000EFFF2846214670F0FDFF012038BD00BF77
:1075200005750008F8B50A4E07460C463046714608
:10753000754670F0DDFF94E8070007F11C0383E84F
:10754000070030462946BDE8F84070F0E3BF00BFB1
:1075500025750008F7B50A4E02AC24ED010A714604
:1075600007463046754670F0C3FF214607F110000C
:10757000FDF736FD3046294670F0CCFF03B0F0BD74
:107580005575000870B50C4D2DED028B7146064601
:107590002846744670F0ACFF06F11000FDF71CF9A8
:1075A00090ED008A2146284670F0B4FFB0EE480AFC
:1075B000BDEC028B70BD00BF8575000870B5074D2E
:1075C000064671462846744670F092FFF68F2846AC
:1075D000214670F09FFF304670BD00BFBD750008AA
:1075E00070B50F4D064671462846744670F080FF10
:1075F000FDF78EFAD6F805609FED0A7A0A4B07EE82
:10760000906A67EE877A1860FDEEE77A074BC3ED64
:10761000007A28462146BDE8704070F07BBF00BF6D
:10762000E175000800007A44E01300208462002025
:1076300070B50D4D064671462846744670F058FFE9
:10764000D6F805609FED097A094B07EE906A67EE60
:10765000877A2846FDEEE77A2146C3ED007ABDE839
:10766000704070F057BF00BF317600080000C8427C
:107670008462002038B5064D74462846714670F085
:1076800037FF28462146BDE8384070F043BF00BFB1
:1076900075760008F7B50C4D06460F46284671462C
:1076A000744670F025FF07EE107AF8EE477A02A9CB
:1076B00061ED017A06F10C00FDF7F8F82846214645
:1076C00070F028FF03B0F0BD9576000870B5064D48
:1076D000744671460646284670F00AFF2846214641
:1076E00070F018FF304670BDCD76000870B5084EBA
:1076F000714604463046754670F0FAFE2046FFF7A4
:10770000E5FF3046294670F005FF204670BD00BFFA
:10771000ED76000870B5084E714604463046754651
:1077200070F0E6FE2046FFF7E1FF3046294670F094
:10773000F1FE204670BD00BF1577000870B5084EF9
:10774000714604463046754670F0D2FE2046FFF77B
:10775000BDFF3046294670F0DDFE204670BD00BFFB
:107760003D77000870B5084E7146044630467546B0
:1077700070F0BEFE2046FFF7A9FF3046294670F0A4
:10778000C9FE204670BD00BF6577000870B5084E81
:10779000714604463046754670F0AAFE2046FFF753
:1077A00095FF3046294670F0B5FE204670BD00BFFB
:1077B0008D77000870B5084E714604463046754610
:1077C00070F096FE2046FFF7E1FF3046294670F044
:1077D000A1FE204670BD00BFB577000870B5074E0A
:1077E000044671463046754670F082FE044B2360B5
:1077F0003046294670F08EFE204670BDDD770008C9
:10780000B8720A0870B5094E04467146304675468E
:1078100070F06EFE2046FFF7E1FF054B2360304617
:10782000294670F077FE204670BD00BF057800083D
:1078300088D30A0870B5094E04467146304675462D
:1078400070F056FE002330466370A370E37023711E
:10785000294670F05FFE204670BD00BF35780008F5
:1078600070B5094E044671463046754670F040FECC
:1078700000233046A370E3702371A360294670F0A3
:1078800049FE204670BD00BF6178000870B50C4EFF
:10789000714604463046754670F02AFE201DFFF7FB
:1078A000B1FF04F11400FFF7C5FF04F11C00FFF75E
:1078B000D7FF3046294670F02DFE204670BD00BF30
:1078C0008D78000870B5084E7146044630467546FE
:1078D00070F00EFE04F12400FCF73CFD3046294612
:1078E00070F018FE204670BDC578000870B5074ED0
:1078F000044671463046754670F0FAFD044B23602D
:107900003046294670F006FE204670BDED7800082E
:1079100068720A0870B50C4E0446714630467546CA
:1079200070F0E6FD2046FFF7E1FF084B23600023DF
:1079300084F820302046FFF775FA3046294670F06B
:10794000E9FD204670BD00BF1579000878720A086D
:1079500070B5094E044671463046754670F0C8FD54
:107960002046FFF7D7FF054B23603046294670F0CD
:10797000D1FD204670BD00BF5179000888720A0809
:1079800070B5094E714604463046754670F0B0FD3C
:107990002046FFF79BFE2046FCF7DCFC30462946DC
:1079A00070F0B8FD204670BD8179000870B50C4EAE
:1079B0002DED028B0446F0EE408AB0EE608A7546EB
:1079C0007146304670F094FDC4ED008A84ED018A62
:1079D0003046294670F09EFDBDEC028B204670BDFE
:1079E000AD79000870B50C4E0446714630467546B8
:1079F00070F07EFD4FF07E532362236123600023ED
:107A0000A36063606361E360E361A361304629467C
:107A1000BDE8704070F07EBDE579000870B50C4E91
:107A2000714604463046754670F062FD2046FCF70C
:107A300091FC04F10C00FCF78DFC04F11800FCF73C
:107A400089FC3046294670F065FD204670BD00BFB8
:107A50001D7A00082DE9F0410A4E04460F463046D3
:107A600071467546904670F043FD00233046237101
:107A7000A760C4F80C80294670F04CFD2046BDE894
:107A8000F08100BF557A000870B5084E0446714673
:107A90003046754670F02CFD00233046237063702D
:107AA000294670F037FD204670BD00BF897A000876
:107AB00070B5084E044671463046754670F018FDA4
:107AC0000023304623706370294670F023FD204662
:107AD00070BD00BFB17A0008F8B5084E04460F46E5
:107AE00030467146754670F003FD0023304627602E
:107AF000A380294670F00EFD2046F8BDD97A000813
:107B000070B5074D064671462846744670F0F0FC85
:107B100036782846214670F0FDFC304670BD00BF27
:107B2000017B000870B5074D06467146284674462D
:107B300070F0DEFC36782846214670F0EBFC3046CB
:107B400070BD00BF257B000870B5074D0646714625
:107B50002846744670F0CCFC36782846214670F0F2
:107B6000D9FC304670BD00BF497B000870B5074D99
:107B7000064671462846744670F0BAFC36782846A8
:107B8000214670F0C7FC304670BD00BF6D7B000819
:107B900070B5074D064671462846744670F0A8FC3D
:107BA00036782846214670F0B5FC304670BD00BFDF
:107BB000917B000870B5074D06467146284674460D
:107BC00070F096FC36782846214670F0A3FC3046CB
:107BD00070BD00BFB57B000870B5074D0646714605
:107BE0002846744670F084FC36782846214670F0AA
:107BF00091FC304670BD00BFD97B000870B5074DC1
:107C0000064671462846744670F072FC367828465F
:107C1000214670F07FFC304670BD00BFFD7B000840
:107C200070B5074D064671462846744670F060FCF4
:107C300036782846214670F06DFC304670BD00BF96
:107C4000217C000870B5074D0646714628467446EB
:107C500070F04EFC36782846214670F05BFC3046CA
:107C600070BD00BF457C000870B5074D06467146E3
:107C70002846744670F03CFC36782846214670F061
:107C800049FC304670BD00BF697C000870B5074DE7
:107C9000064671462846744670F02AFC3678284617
:107CA000214670F037FC304670BD00BF8D7C000867
:107CB00070B5074D064671462846744670F018FCAC
:107CC00036782846214670F025FC304670BD00BF4E
:107CD000B17C000870B5074D0646714628467446CB
:107CE00070F006FC36782846214670F013FC3046CA
:107CF00070BD00BFD57C000870B5074D06467146C3
:107D00002846744670F0F4FB36782846214670F019
:107D100001FC304670BD00BFF97C00082DE9F04140
:107D20000E46804671460E481446754670F0E0FBDC
:107D30000C4B1C800C4B00241E60A7B21C2000FBC7
:107D40000760FFF7DDFE01340028F6D1074B044839
:107D50001F70294670F0DEFB4046BDE8F08100BF91
:107D60001D7D0008DC7D0020D87D0020D47D002012
:107D700070B5084E714604463046754670F0B8FB43
:107D800004F12400FEF7F0FE3046294670F0C2FBF5
:107D9000204670BD717D000870B5074E04467146DF
:107DA0003046754670F0A4FB044B236030462946EC
:107DB00070F0B0FB204670BD997D000890C90A089C
:107DC00070B5074E044671463046754670F090FB1C
:107DD000044B23603046294670F09CFB204670BD62
:107DE000C17D0008A0AC0A0870B5094E0446714672
:107DF0003046754670F07CFB064B23602046FFF74B
:107E0000DFFF3046294670F085FB204670BD00BF7D
:107E1000E97D000810AD0A0870B5074E04467146AA
:107E20003046754670F064FB044B236030462946AB
:107E300070F070FB204670BD197E000878A70A0814
:107E400070B5094E044671463046754670F050FBD9
:107E5000064B23602046FFF79FFF3046294670F00F
:107E600059FB204670BD00BF417E000830CA0A0899
:107E700070B5094E044671463046754670F038FBC1
:107E8000064B23602046FFF7AFFF3046294670F0CF
:107E900041FB204670BD00BF717E000880AD0A081E
:107EA00070B5094E714604463046754670F020FBA9
:107EB0002046FFF771FF204670F022FC304629462D
:107EC00070F028FB204670BDA17E000870B5094EF9
:107ED000714604463046754670F00AFB2046FFF7AF
:107EE0006FFF204670F00CFC3046294670F012FB04
:107EF000204670BDCD7E000870B5094E714604461F
:107F00003046754670F0F4FA2046FFF76DFF2046C4
:107F100070F0F6FB3046294670F0FCFA204670BD42
:107F2000F97E000870B5094E714604463046754624
:107F300070F0DEFA2046FFF76FFF204670F0E0FB9E
:107F40003046294670F0E6FA204670BD257F0008CD
:107F500070B5094E714604463046754670F0C8FA51
:107F60002046FFF76DFF204670F0CAFB30462946D9
:107F700070F0D0FA204670BD517F000870B5094EF0
:107F8000714604463046754670F0B2FA2046FFF757
:107F90006FFF204670F0B4FB3046294670F0BAFA05
:107FA000204670BD7D7F000870B50B4D7146284698
:107FB000744670F09DFA094B09481E78FCF72AF9BF
:107FC00031460278074819F01FFD28462146BDE8D2
:107FD000704070F09FBA00BFA97F00083066002093
:107FE0004A1500209013002038B5094D71462846E7
:107FF000744670F07DFA07482AF0CCFA064818F06B
:10800000B3F828462146BDE8384070F083BA00BF77
:10801000E97F00080C6800208060002070B5714680
:1080200006460B48754670F063FA00240948225C46
:108030001AB12044314649F063FECC34B4F5197FBF
:10804000F4D129460248BDE8704070F063BA00BF21
:108050001D800008DC5C002038B5074D71462846BD
:10806000744670F045FA1B20FFF7D8FF28462146DA
:10807000BDE8384070F04EBA5980000838B5074D59
:1080800071462846744670F033FA0020FFF7C6FFA9
:1080900028462146BDE8384070F03CBA7D80000893
:1080A00038B50B487146754670F022FA002409482D
:1080B000235C1BB12044084949F0C8FFCC34B4F517
:1080C000197FF4D129460248BDE8384070F022BA41
:1080D000A1800008DC5C00208181000838B5714671
:1080E0001D48744670F004FA1C4B986B0368DB68FB
:1080F00098471B4B1A881B4B1988914206D01A804F
:10810000194B1860194B00221A7011E0184B1B789C
:1081100073B1154B17491A68821A8A421D46134BD0
:1081200001D901211970197811B1134B9A4205D860
:1081300021460948BDE8384070F0ECB928600F4886
:10814000FCF7AEF90028F3D00C48002128F0DAFD46
:108150000A4829F011F8EBE7DD800008187C0020C0
:10816000E85B002084680020D0680020805F002049
:10817000280D002080841E0040420F00286100204E
:1081800010B571460446124870F0B2F9114B204602
:108190001C60FCF771F9236820461B6C012198478D
:1081A0000D4B986B036800215B6905229847FEF729
:1081B0001BFD0A48FCF774F930B10848002128F08B
:1081C000A1FD064828F0D8FF054827F093FCFBE7FF
:1081D0008181000820620020187C00202861002096
:1081E000F460002038B5074D71462846744670F09B
:1081F0007FF9054827F07EFC2846214670F08AF971
:10820000002038BDE5810008E468002038B50A4D3B
:1082100071462846744670F06BF9084B0849186897
:1082200003681B6A9847074827F064FC28462146E4
:1082300070F070F9002038BD0D8200082062002027
:1082400000840A08F413002038B5074D714628460B
:10825000744670F04DF9054827F04CFC284621463D
:1082600070F058F9002038BD498200088063002072
:1082700070B5274C27482DED028B7146754670F07E
:1082800037F96378A678244843EA0626E37846EA75
:108290000346FCF729F8B0F9003046F317069E4272
:1082A0000DDDA278637843EA0223E27843EA0243D1
:1082B00043F3170307EE903AB8EEE78A08E0164852
:1082C000FCF712F8B0F9000008EE100AB8EEC88A00
:1082D000124812F0D9F8C30710D51048DFED108A04
:1082E000FCF744FD20EE280AB4EEC08AF1EE10FA45
:1082F00004D40A48FCF73AFD20EE288A05482946AE
:1083000070F008F9B0EE480ABDEC028B70BD00BFFA
:1083100031660020718200084C1500209462002014
:108320000000C84270B532487146764670F0E0F8F9
:10833000304B1B781A0754D42F48FBF7C5FF90F930
:108340000030012B05D02C48FBF7BEFF03785B06FD
:1083500044D52A4843F094FD20B9294843F090FDC4
:1083600000283ED02748FBF7BFFFB0F9003040F2AD
:108370001454A34235DC2448FBF7B6FFB0F90030B3
:1083800040F2A365AB422CDD2048FBF7ADFFB0F90E
:108390000030A34225DC1E48FBF7A6FFB0F90030F1
:1083A000AB421EDD1548FBF79FFFB0F90030A3423A
:1083B00017DC1348FBF798FFB0F90030AB4210DD33
:1083C0001448FBF791FFB0F90030A34209DC1248D2
:1083D000FBF78AFFB0F90030AB4202DD0120FDF768
:1083E000B7FF31460248BDE8704070F093B800BF57
:1083F000258300086C5F0020A1150020F2150020E5
:10840000F6150020B2150020B6150020D215002068
:10841000D6150020121600201616002070B5084D43
:10842000714606462846744670F062F806F1370039
:1084300043F026FD28462146BDE8704070F06AB83A
:108440001D840008F8B506460F460C48714675466F
:1084500070F04EF800240A48225C22B120443146D4
:108460003A4649F0CDFCCC34B4F5197FF3D1294616
:108470000248BDE8F84070F04DB800BF45840008E0
:10848000DC5C00202DE9F04171462DED028B0546A4
:108490002648764670F02CF8254822F0B9FB27F0E4
:1084A0006FF82448B0EE408AFCF7F4F8074630B184
:1084B0001DB121490320FFF7C5FF00242DE0FCF783
:1084C0002BF9044630B9002DF7D003201B49FFF7E4
:1084D000B9FF22E0B5EE408AF1EE10FA06D0DFEDEA
:1084E000187AB4EEE78AF1EE10FA04DD002DE4D03C
:1084F00003201449DFE71448FCF756F98046134877
:10850000FBF7F2FEB0F90030984506DD002DD4D01F
:1085100003200F49FFF796FF3C46044831466FF0B1
:10852000F9FFBDEC028B2046BDE8F0818584000890
:1085300008140020445F00200E840A0821840A08E1
:108540000000484235840A08FC64002062150020BF
:108550004A840A0870B52DED028BB94E714684B07D
:108560000446B84875466FF0C3FF3378D90600F16A
:108570003281B548FBF7A8FE90F9003033B90120ED
:10858000FDF7C4FE0120FDF7E3FE24E1FFF7CAFE7C
:1085900033781A0705D4002C00F01D810320AB4965
:1085A00014E0A948FBF790FE90F90030012B05D0AC
:1085B000A548FBF789FE03789B071ED5A44B1B79C2
:1085C0003BB9002C00F00781A2490320FFF73AFFD6
:1085D00001E1A14822F054FBA04B9FEDA17AD3ED1D
:1085E000007AF8EEE77A30EE670AF0EEC07AF4EE41
:1085F000C77AF1EE10FA00F3F6809348FBF764FEB9
:1086000090F90030012B05D08F48FBF75DFE037811
:108610005E0733D593480021FBF79EFF002800F04A
:10862000E7809048FBF7ACFF002800F0E6808D481B
:10863000FBF7E8FF07C801AB83E80700184626F000
:108640009FFFDFED897AB4EEE70AF1EE10FA00F34E
:10865000DF808448FCF704F826F092FFDFED837A90
:10866000B4EEE70AF1EE10FA00F3D780DFED807A7E
:10867000B4EEE70AF1EE10FA00F1CF807248FBF792
:1086800023FE90F90030012B05D06F48FBF71CFE4C
:10869000037818071AD5774B1878FBF799FE00284E
:1086A00040F0C0807448FBF70FFE90F90030032BB8
:1086B00000F0B880714811F003FF002800F08B80B3
:1086C0006E4811F0E1FE810700F1B3805E48FBF7D0
:1086D000FBFD90F90030012B05D05B48FBF7F4FD62
:1086E0000378DA060BD5664823F0C4FC002800F0B6
:1086F000E780634823F07AFF002800F0E6805248C4
:10870000FBF7E2FD90F90030012B05D04E48FBF756
:10871000DBFD03789B065BD55A48FBF7D5FD90F946
:108720000030002B40F0D6805748FBF7CDFD90F984
:108730000030002B40F0CE805448FBF7C5FD90F987
:108740000030BBB15248FBF7CFFDB0F90060514893
:10875000FBF7CAFDB0F900300A339E4240F3CB80EC
:108760004C48FBF7C1FDB0F9002040F28D339A422E
:1087700040F3C1804848FBF7B7FDB0F90030B3F5CE
:108780007A7FC0F2BE804448FBF7AEFDB0F90030FE
:10879000B3F5FA5F00F3B5804048FCF71DF890EDA3
:1087A000008A3F48FCF738F8B4EEC08AF1EE10FAC0
:1087B00000F3AD803B48FCF70FF890ED008A3A4893
:1087C000FCF72AF8B4EEC08AF1EE10FA00F39F80AD
:1087D0000120FDF79BFD1B4829466FF09BFE04B06E
:1087E000BDEC028B70BD002CF5D003202F49EDE6C7
:1087F000002CF0D003202E49E8E61A4818F0A4FA1D
:1088000000287FF414AF002CE5D003202949DDE6D1
:10881000002CE0D003202849D8E6002CDBD0032030
:108820002649D3E62046FFF72DFE00287FF442AF0D
:10883000D1E72046FFF726FE0028CCD046E700BF50
:108840006C5F002055850008A115002060840A088F
:10885000D06200207A840A0808140020AC1300209B
:108860000000C842406600200000FA4300A05A44BD
:10887000008039433066002060150020946200209B
:10888000385A00209F150020A015002086150020D2
:10889000F215002088150020C06300207417002006
:1088A00088180020781700208C18002093840A086C
:1088B000A9840A08C5840A08E4840A0805850A0808
:1088C000002C88D00320154980E6002C83D003209B
:1088D00013497BE61348FBF7F7FC06781248FBF7D1
:1088E000F3FC03789E427FF427AF002C3FF473AF74
:1088F00003200E496AE6002C3FF46DAF03200C49BB
:1089000064E6002C3FF467AF03200A495EE6002CC2
:108910003FF461AF0320084958E600BF1D850A08EF
:1089200038850A089F150020A015002050850A08E8
:1089300073850A088E850A08A6850A08F8B5714667
:1089400004465A4876466FF0D3FD5948FBF7BCFC05
:1089500090F900300BB90124A2E05548FBF7B4FCB4
:1089600090F90030012B05D05148FBF7ADFC03789E
:10897000980712D54F4822F083F94F4B9FED4F7A5D
:10898000D3ED007AF8EEE77A30EE670AF0EEC07ABF
:10899000F4EEC77AF1EE10FA6DDC4548FBF794FC73
:1089A00090F90030012B05D04148FBF78DFC03788E
:1089B00019070CD5424B1878FBF70AFD00285FD148
:1089C0004048FBF781FC90F90030032B58D0384821
:1089D000FBF77AFC90F90030012B05D03448FBF707
:1089E00073FC03789A0612D5374D05F14A00FBF760
:1089F0006BFC90F9003053B105F14C00B5F8AC7048
:108A0000FBF772FCB0F900303FB2BB423EDC2848B5
:108A1000FBF75AFC90F90030012B05D02448FBF7F6
:108A200053FC0378DB0617D5284D29482B6983EAC8
:108A3000E377A7EBE377FBF757FCB0F900309F42F1
:108A400029DC23486D69FBF74FFCB0F90030002D9D
:108A5000B8BF6D429D421EDC1E4BD86B03685B683D
:108A6000984701287FF477AF1CB11B490320FFF71B
:108A7000E9FC002414E0002CFBD003201749F6E7A2
:108A80002046FFF7FFFC0028F3D0A0E7002CF0D031
:108A900003201349EBE7002CEBD003201149E6E754
:108AA000024831466FF036FD2046F8BD3D8900088A
:108AB000A115002008140020AC1300200000C842BB
:108AC00030660020601500203C1500209C18002016
:108AD000C0630020187C0020E1850A0896840A08FB
:108AE000C2850A08D4850A0838B5714605460E487D
:108AF00074466FF0FDFC032D10D8DFE805F0020589
:108B0000080B0320094907E00320094904E003207A
:108B1000084901E008490320FFF794FC2146024878
:108B2000BDE838406FF0F6BCE98A0008F4850A0811
:108B300006860A0818860A082A860A0870B5714649
:108B400005461A4876466FF0D3FCFFF7EBFB184B4F
:108B50001B78C3F3C00434B9164B174ACC2000FB72
:108B60000530032107E0DC0908D1124B134ACC2061
:108B700000FB0530032149F043F911E0104BD86B9D
:108B800003685B689847012809D10A4B0D4ACC203D
:108B900000FB0530032149F033F9002400E00124F3
:108BA000024831466FF0B6FC204670BD3D8B000890
:108BB0006C5F0020DC5C00203B860A0859860A08AE
:108BC000187C002078860A082DE9F041124E0446F0
:108BD0000F463046714675466FF08AFC94ED007A78
:108BE000D7ED007AB4EE677AF1EE10FA0CBF4FF0D1
:108BF00000084FF0010820463946FBF757FE414672
:108C0000204643F0B1FC2946044630466FF082FC12
:108C10002046BDE8F08100BFC98B00082DE9F04176
:108C2000104E04460F463046714675466FF060FCA4
:108C300097F9003094F90080B8EB030818BF4FF0A3
:108C4000010820463946FCF77FFD4146204643F0A7
:108C50008BFC2946044630466FF05CFC2046BDE89C
:108C6000F08100BF1D8C00082DE9F041104E044634
:108C70000F463046714675466FF03AFCB7F9003042
:108C8000B4F90080B8EB030818BF4FF00108204684
:108C90003946FCF701FF4146204643F065FC294672
:108CA000044630466FF036FC2046BDE8F08100BF38
:108CB000698C000838B5074D7146284674466FF038
:108CC00017FC054841F0D4FE28462146BDE838404F
:108CD0006FF020BCB58C0008EC61002010B50A488C
:108CE000714674466FF004FC0848FBF7EDFA90F902
:108CF000003013B1064817F079FD21460248BDE85F
:108D000010406FF007BC00BFDD8C00086415002028
:108D100040660020F8B51E4E1E4F2DED028B7146A9
:108D200007F14204304675466FF0E2FB2046FBF740
:108D3000DBFAB0F900305B4207EE903A2046B8EE1D
:108D4000E78AFBF7D1FAB0F90000134C00EE900A65
:108D5000B0EE480AF8EEE00A204610F07FF807F17E
:108D60004400FBF7C1FAB0F9000000EE100A2046FB
:108D7000B8EEC00A10F0AEF8204610F081FD304683
:108D800029466FF0C7FBBDEC028B0120F8BD00BF88
:108D9000158D00083C150020CC630020F8B51E4E50
:108DA0001E4F2DED028B714607F142043046754689
:108DB0006FF09EFB2046FBF797FAB0F900305B425C
:108DC00007EE903A2046B8EEE78AFBF78DFAB0F945
:108DD0000000134C00EE900AB0EE480AF8EEE00AEC
:108DE000204610F03BF807F14400FBF77DFAB0F99C
:108DF000000000EE100A2046B8EEC00A10F06AF833
:108E0000204610F03DFD304629466FF083FBBDEC57
:108E1000028B0120F8BD00BF9D8D00083C1500208D
:108E2000CC63002070B529482DED028B7146764643
:108E30006FF05EFB264B93F9003033F0020201D055
:108E400000253AE0234CB4F9AE30002BF8DD22487F
:108E5000FBF726FB05460028F2D0204B1B7803F0D9
:108E6000A003202BECD104F14200FBF73DFAB0F94E
:108E700000305B4207EE903A04F14200B8EEE78A18
:108E8000FBF732FAB0F9000000EE900AB0EE480AA3
:108E9000F8EEE00A12480FF0E1FF04F14400FBF79E
:108EA00023FAB0F9000000EE100A0D48B8EEC00A2F
:108EB00010F010F80A4810F0E3FC044831466FF057
:108EC00029FBBDEC028B284670BD00BF258E000833
:108ED000306600203C150020286100206C5F0020D7
:108EE000CC63002038B571462DED028B054626482F
:108EF00074466FF0FDFAFBF70FFC08B92DB93BE0A3
:108F0000224821F061FF0028F8D0214B214800229F
:108F10001A70FBF79FFE204810F0F2F81D48FBF78F
:108F2000B5FE1D4810F0C4F81C48FBF7DDF9B0F998
:108F300000301A485B4207EE903AB8EEE78AFBF73A
:108F4000D3F9B0F9000000EE900AB0EE480AF8EE4E
:108F5000E00A11480FF082FF1148FBF7C5F9B0F99C
:108F6000000000EE100A0C48B8EEC00A0FF0B2FF85
:108F70000C4812F00BF90125034821466FF0CAFA9C
:108F8000BDEC028B284638BDE58E00080814002091
:108F9000DA5B0020945F0020CC6300207E15002067
:108FA000801500209068002070B571462DED028B71
:108FB00006461E4875466FF09BFAFBF7ADFB04466C
:108FC00000B956B31A4812F0CBFA1A48FBF78CF9DD
:108FD000B0F9003017485B4207EE903AB8EEE78AE6
:108FE000FBF782F9B0F9000000EE900AB0EE480AF3
:108FF000F8EEE00A10480FF031FF1048FBF774F963
:10900000B0F9000000EE100A0B48B8EEC00A0FF0ED
:1090100061FF094810F034FC0124044829466FF030
:1090200079FABDEC028B204670BD00BFA98F000805
:10903000945F00207E150020CC6300208015002066
:1090400070B571462DED028B0646394875466FF0B6
:109050004FFAFBF761FB044608B9002E60D0354893
:10906000354CFBF741F9B0F9003032485B4207EE6E
:10907000903AB8EEE78AFBF737F9B0F9000000EE56
:10908000900AB0EE480AF8EEE00A2C480FF0E6FE2F
:109090002B48FBF729F9B0F9000000EE100A274829
:1090A000B8EEC00A0FF016FF244810F0E9FB0023C9
:1090B00024486380A380FBF717F9B0F90000DFEDC7
:1090C000227A224B06EE900AF8EEE66AB2EE0E7AAB
:1090D000E6EE877A1B789FED1E7A67EE877ADA09CB
:1090E000C4ED027A237809D0042262F3020362F30A
:1090F000C5031848237012F033FA04E062F3020348
:1091000062F3C50323706378134843F0010363706F
:10911000FBF77AFE0023A385E38584F83130012430
:10912000034829466FF0F6F9BDEC028B204670BD6E
:10913000419000087E15002044130020CC630020DD
:1091400080150020721500200000BE426C5F0020D8
:109150000AD7233C945F00206813002010B52DED42
:10916000028B1F4884B0714674466FF0C1F9FBF75B
:10917000D3FA1C4B187058B101A8FBF7EBF81A484A
:1091800001A912F05BFA184801A9012212F096F920
:109190001548FBF797FD1448B0EE408AFBF7AEFD8B
:1091A0001248F0EE400AB0EE480A0FF057FE0E48A3
:1091B000FBF7C0FD0D480FF08DFE0C4810F060FB72
:1091C000FBF7A6FC0A4B18600A4B05480022214613
:1091D0001A706FF09FF9012004B0BDEC028B10BD36
:1091E0005D910008F25B0020945F0020CC630020BA
:1091F000F0130020186600202DE9F04171462DED96
:10920000068B80464B484C4D4C4E4D4C7746F0EE0D
:10921000408AB0EE609A6FF06BF9FBF779FC494A2F
:109220001168411AC829034618D9B6F90010A07868
:1092300007EE101A617841EA0021E07841EA004126
:1092400041F3170107EE901AB8EEC77AF8EEE77A05
:1092500077EE677A77EEA87AC5ED007A07EE908A06
:10926000B8F1000F1360B8EEE78A04DA364B1B7BC7
:1092700013F0040F04E00AD0334B1B7B13F0080FEC
:1092800005D1D5ED007AE8EE097AC5ED007AB6F998
:1092900000102E48D5ED009A09EE101AFCF7B0FC2C
:1092A000B6F900302948B8EEC99A0AEE103A39EEFC
:1092B000409AFCF7BDFCB8EECAAAF0EE490A30EEBF
:1092C0000A1AB0EE690A23F023FEA2786378B6F991
:1092D00000601F4885ED000A43EA0223E27843EA72
:1092E000024343F3170307EE903AB8EEE77A07EE2E
:1092F000906AF8EEE77A77EE677A77EEE88A78EEAA
:10930000808AFBF769FA90ED000ADFED120A9FED03
:10931000121A28EE800A23F0FBFD0648F0EE408A80
:1093200039466FF0F7F838EE880ABDEC068BBDE8D9
:10933000F08100BFF9910008EC5B00206C62002016
:10934000316600208C62002028610020CC63002060
:1093500050150020000016C300001643F8B5194D43
:109360002DED028B0646B0EE408A28460F46714628
:1093700074466FF0BDF8B0EE480ADFED130AB7EEA1
:10938000001A23F0C5FD28462146B0EE408A6FF052
:10939000C1F806EE907AB7EE007A37EE487AF8EE2A
:1093A000E67A06EE906A67EE277AB8EEE67AE8EE9D
:1093B000077ABDEC028BFDEEE77A17EE900A00B259
:1093C000F8BD00BF5D9300080000000030B52DED32
:1093D000048B044683B04848714675466FF088F8A0
:1093E000002C5AD04548FAF77FFFB0F90030B3F5AA
:1093F000FA7F52D000214FF47A72204623F00EFDFE
:1094000004463E48FAF770FF4FF496714FF42F72FE
:10941000B0F9000023F002FD02A921F8020D37483F
:10942000FBF790FDB4F5FA7F40DA3548FAF75CFFB8
:10943000B0F9000008EE100A3148FAF755FFB0F90C
:1094400000302E48E41A06EE904AB8EEE69AFAF793
:109450004BFFB0F900402A48FAF746FFB0F9003058
:109460002748E31A08EE903AFAF73EFFB0F90030C9
:10947000C3F5FA73F8EEE88A07EE103A68EE898AC7
:10948000F8EEC77AB8EEC88AC8EEA78A38EE888A9E
:10949000BDEEC88A18EE104AA4B2174829466FF0EC
:1094A00039F820B203B0BDEC048B30BD13481FD097
:1094B000FAF71AFFB0F9000008EE100A0F48FAF7A1
:1094C00013FFA4F5FA74B0F90030DFED0E7A07EE61
:1094D000104AC3F57A73B8EEC77A06EE903A27EED3
:1094E000277AB8EEC88AF8EEE67AA7EE278ACFE7A1
:1094F000FAF7FAFE0488D0E7CD9300088C15002017
:10950000821500206F12033B2DE9F04B80460E467A
:10951000304871461D46744617466EF0E9FF4046D6
:109520002D4941F2941223F079FC41F294122A4918
:109530008046304623F072FC06462848FAF7D4FEEF
:10954000B0F9002041F294139A4203D1A7F80080A9
:109550002E8039E02148DFF88CB0DFF88C90FAF7E4
:10956000C3FEBBF90030B0F900209A4214D01B486A
:10957000FAF7BAFE03881948ABF80030FAF7B4FEE0
:10958000B0F900009FED167A07EE900AF8EEE77A40
:1095900067EE877AC9ED007A06EE908AD9ED007AF7
:1095A000B8EEE67A06EE906A27EE277ABDEEC77A25
:1095B00017EE103AB8EEE67A3B8067EE277AFDEEBA
:1095C000E77A17EE903A2B8021460248BDE8F04B2F
:1095D0006EF0A0BF099500086CEEFFFFC06300208D
:1095E00053046939D85B00202C0D002070B57146FA
:1095F00004461C4876466EF07BFF1B4B1D78C5F376
:1096000040053DBB204629464FF47A7223F006FC04
:10961000B0F5C87F044607DA1448FAF765FEB0F9DA
:109620000030A4F5C87009E0B0F5167F0DDD0F48D5
:10963000FAF75AFEB0F90030A4F5167058434FF40B
:10964000C87390FBF3F080B200E02846084B044654
:10965000188000E00024034831466EF05BFF20B222
:1096600070BD00BFED950008146200207E1500203B
:109670007263002070B52DED048B044682B03A4829
:10968000714675466EF034FF002C63DD00214FF407
:109690007A72204623F0C2FB04463448FAF724FECF
:1096A0004FF42F724FF49671B0F9000023F0B6FB1F
:1096B00002A921F8020D2D48FBF744FC2C48FAF7CB
:1096C00013FE0688FCF798F936B2864204DD284876
:1096D000FAF70AFE04883EE0B4F5167F36DA24482D
:1096E000FAF702FEB0F9000008EE100A2048FAF777
:1096F000FBFDB0F90030E41A07EE104AB8EEC79A45
:10970000FCF77AF904461A48FAF7EEFDB0F9003092
:109710001748E31A08EE903AFAF7E6FDB0F9003080
:10972000C3F51673F8EEE88A07EE103A68EE898AF8
:10973000F8EEC77AB8EEC88AC8EEA78A38EE888AEB
:10974000BDEEC88A18EE104AA4B204E0FCF754F942
:10975000044600E00024044829466EF0DBFE20B2F7
:1097600002B0BDEC048B70BD759600088C1500200E
:1097700082150020F8B571462DED028B044628486D
:10978000B0EE408A75466EF0B3FE2648FAF7ACFD9F
:10979000B0F90020DFED246A9FED247A042392FBC8
:1097A000F3F39BB21AB2002A214AB5EEC08AD2ED79
:1097B000027A2288D8BF0123F1EE10FA67EEC87A48
:1097C000ACBF38EE268A36EEC88A9BB287EE087A9E
:1097D000D11A1A4409B212B247EE277AFDEEE77A9F
:1097E00017EE900A00B223F019FB064620801148BC
:1097F000FAF77AFD07880F48FAF776FD7F42BFB285
:1098000039B2B0F90020304623F008FBBDEC028BE2
:10981000208029460248BDE8F8406EF07BBE00BFBC
:109820007597000872150020000070420000FA438E
:1098300044130020741500202DE9F0412148224DE9
:109840002DED028B714674466EF052FE1F48FAF7FA
:10985000C3FFD0ED007AF5EEC07AF1EE10FA02D82F
:1098600000232B7025E01A4E1A4837683B68D3F85E
:109870000880FAF729FD01783846C0473068036848
:109880005B6998471148B0EE408AFAF7A5FFDFED13
:10989000127A28EE278AD0ED007A88EE278A0021F6
:1098A000FF22BDEEC88A18EE100A00B223F0B6FA05
:1098B0002870BDEC028B21460248BDE8F0416EF0F5
:1098C00029BE00BF39980008086800206C150020E8
:1098D000DC5B00206A15002000007F4338B5074D8F
:1098E0007146284674466EF003FE054844F03AFB84
:1098F00028462146BDE838406EF00CBEDD980008D1
:10990000B013002038B5054671460D4874466EF018
:10991000EFFDD5F8065007EE905AF5EEC07AF1EE5D
:1099200010FA06DD9FED070A074827EE800A11F0BE
:1099300091FD21460248BDE838406EF0EBBD00BF06
:10994000059900080000C842945F002038B51C4803
:10995000714675466EF0CCFDFDF7B8FA4FF47A709B
:10996000FCF76AF8174C1849206803681B6A984787
:109970000021164844F076F840F6B830FCF75CF861
:10998000206803689B689847002812DC206810490B
:1099900003681B6A984700210C4844F099F840F688
:1099A000B830FCF749F8206803689B68984700289E
:1099B000D8DD034829466EF0ADFD002038BD00BF5C
:1099C0004D9900082062002092860A08A813002002
:1099D0009C860A08F8B5274D27482DED028B714665
:1099E00076466EF085FD2B78002B3BD0234C244F20
:1099F0009FED248A013B2B70637843F00103637071
:109A0000B7F96E3000EE103AB8EEC00A20EE080A40
:109A100023F034FAB7F98E70F0EE408A00EE107A37
:109A2000B8EEC00A20EE080A23F028FA16480121F1
:109A3000B0EE408AFAF7FEFF29781348D1F1010110
:109A4000B0EE680AF0EE480A38BF002113F0F6FACB
:109A50002D783DB90C482946FAF7ECFF637865F399
:109A600000036370BDEC028B31460348BDE8F8404B
:109A70006EF050BD885F0020D5990008D07D002091
:109A80003C1500206F1283399C18002038B50C4813
:109A9000714674466EF02CFD0A4821F095F940B1EC
:109AA0000848094D21F0CAF9A860064821F0A8F934
:109AB000686021460248BDE838406EF02BBD00BF0B
:109AC0008D9A0008081400203166002070B50B4DF7
:109AD00006462DED028B7146284674466EF008FD51
