:020000040800F2
:10400000F4C000203D660708796D0708796D070840
:10401000796D0708796D0708796D0708796D0708CC
:10402000796D0708796D0708796D0708796D0708BC
:10403000796D0708796D0708796D0708796D0708AC
:10404000796D0708796D0708796D0708796D07089C
:10405000796D0708796D0708796D0708796D07088C
:10406000796D0708796D0708796D0708796D07087C
:10407000796D0708796D0708796D0708796D07086C
:10408000796D0708796D0708796D0708796D07085C
:10409000796D0708796D0708796D0708796D07084C
:1040A000796D0708796D0708796D0708796D07083C
:1040B000796D0708796D0708796D0708796D07082C
:1040C000796D0708796D0708796D0708796D07081C
:1040D000796D0708796D0708796D0708796D07080C
:1040E000796D0708796D0708796D0708796D0708FC
:1040F000796D0708796D0708796D0708796D0708EC
:10410000796D0708796D0708796D0708796D0708DB
:10411000796D0708796D0708796D0708796D0708CB
:10412000796D0708796D0708796D0708796D0708BB
:10413000796D0708796D0708796D0708796D0708AB
:10414000796D0708796D0708796D0708796D07089B
:10415000796D0708796D0708796D0708796D07088B
:10416000796D0708796D0708796D0708796D07087B
:10417000796D0708796D0708796D0708796D07086B
:10418000796D0708796D070838B5064D7446714694
:10419000284673F0ADF82846214673F0BBF800209E
:1041A00038BD00BF8941000838B5064D7446284621
:1041B000714673F09DF828462146BDE8384073F0FB
:1041C000A9B800BFA941000870B5074D0646714661
:1041D0002846744673F08CF896F88161284621468B
:1041E00073F098F8304670BDC9410008F8B5084D25
:1041F000064674460F462846714673F079F886F8ED
:10420000E17028462146BDE8F84073F083B800BF4E
:10421000ED41000870B5064D7446714606462846C5
:1042200073F066F82846214673F074F8304670BD86
:1042300015420008F8B5084D064674460F46284654
:10424000714673F055F886F8807128462146BDE81E
:10425000F84073F05FB800BF35420008F8B5044677
:1042600071460E4804F13206754673F041F8304647
:10427000676CFFF7CFFF01783846FFF7B7FFA46BF5
:1042800034B13046FFF7C6FF01782046FFF7D2FF72
:1042900029460248BDE8F84073F03CB85D4200088A
:1042A00070B5084D714606462846744673F020F8EE
:1042B0003046FFF7D3FF28462146BDE8704073F033
:1042C00029B800BFA142000870B5064D744671467A
:1042D0000646284673F00CF82846214673F01AF873
:1042E000304670BDC942000870B5064D744671462F
:1042F0000646284672F0FCFF2846214673F00AF86D
:10430000304670BDE942000870B5074D064671465B
:104310002846744672F0ECFF96F80861284621465C
:1043200072F0F8FF304670BD0943000870B5084DC3
:10433000714606462846744672F0DAFF3046FFF7AB
:10434000C3FF06782146284672F0E4FF304670BD70
:104350002D43000870B5084E044671463046754638
:1043600072F0C6FF00233046A360636023602946D5
:1043700072F0D0FF204670BD5543000870B5074D60
:10438000744671460646284672F0B2FF284621461A
:1043900072F0C0FF06F1580070BD00BF7D430008F9
:1043A00070B5094E714604463046754672F0A0FF5E
:1043B0000648FFF7E3FF07C884E8070030462946B0
:1043C000BDE8704072F0A6BFA1430008B45B0020B6
:1043D00038B5714604460C48754672F089FFE01EF8
:1043E000C0B20D2808D80123834042F21F101840A4
:1043F000041C18BF012400E000240348294672F081
:1044000089FF204638BD00BFD143000870B5074D75
:10441000744671460646284672F06AFF28462146D1
:1044200072F078FF06F1680070BD00BF0D4400080F
:1044300070B5074D744671460646284672F058FF1F
:104440002846214672F066FF06F18C0070BD00BF61
:104450003144000870B5074D74467146064628463B
:1044600072F046FF2846214672F054FF06F1B00074
:1044700070BD00BF5544000870B5074D0646714633
:104480002846744672F034FF044B1E6028462146CD
:10449000BDE8704072F03EBF79440008307D0020D6
:1044A00070B5084D064671462846744672F020FFE6
:1044B000767B284606F00106214672F02BFF304637
:1044C00070BD00BFA144000870B50A4D2DED028BF0
:1044D000714606462846744672F00AFF96ED058A34
:1044E0002846214672F016FFB0EE480ABDEC028B5A
:1044F00070BD00BFC944000870B50A4D2DED028B98
:10450000714606462846744672F0F2FE96ED068A1B
:104510002846214672F0FEFEB0EE480ABDEC028B42
:1045200070BD00BFF944000870B50A4D2DED028B37
:10453000714606462846744672F0DAFE96ED078A02
:104540002846214672F0E6FEB0EE480ABDEC028B2A
:1045500070BD00BF29450008F8B50746074D0E4657
:104560003E4471462846744672F0C2FE767B284669
:10457000214672F0CFFE3046F8BD00BF5945000815
:1045800070B50B4D714606462846744672F0B0FE73
:1045900006F10C00FFF798FE90F90060003618BF96
:1045A00001262846214672F0B5FE304670BD00BF98
:1045B0008145000870B5064D74467146064628468A
:1045C00072F096FE2846214672F0A4FE304670BD79
:1045D000B5450008F8B50A4D06460F46284671460F
:1045E000744672F085FE0C2303FB07602C30FFF746
:1045F000E1FF21460646284672F08CFE3046F8BDA3
:10460000D545000870B50B4E0446714630467546D8
:1046100072F06EFE236820461B69984701462046CB
:10462000FFF7D8FF29460446304672F073FE204655
:1046300070BD00BF05460008F8B5084D7446064633
:104640000F462846714672F053FE2846214672F006
:1046500061FE0C2303FB07601030F8BD39460008EB
:1046600070B50B4E044671463046754672F040FEFA
:10467000236820461B69984701462046FFF7DCFF68
:1046800029460446304672F045FE204670BD00BF04
:104690006146000870B5084D0646714628467446C6
:1046A00072F026FE36792846C6F34006214672F09F
:1046B00031FE304670BD00BF95460008F8B5094D83
:1046C0000F46064671462846744672F011FE38239E
:1046D00003FB07662846767F214672F01BFE3046B4
:1046E000F8BD00BFBD46000870B50A4D06467146CC
:1046F0002846744672F0FCFD96F89410304601F09E
:104700000301FFF7DBFF21460646284672F002FE52
:10471000304670BDE946000838B512487146744607
:1047200072F0E6FD104B1B78D80714D50F48FFF741
:10473000DBFF02280FD90E48FFF7ACFF58B90D4B2D
:104740001B78190707D40C4A5278D20703D49B066A
:1047500001D4012500E000250248214672F0DAFD6F
:10476000284638BD19470008DC5E0020646400203C
:10477000B45E00208061002044130020F8B5094D8C
:104780000F46064671462846744672F0B1FD38233E
:1047900007FB03331E442846B688214672F0BAFD53
:1047A0003046F8BD7D47000870B50A4D0646714693
:1047B0002846744672F09CFD96F89410304601F03D
:1047C0000301FFF7DBFF21460646284672F0A2FDF3
:1047D000304670BDA947000870B5064D7446714655
:1047E0000646284672F084FD2846214672F092FD66
:1047F000304670BDD947000870B5064D7446714605
:104800000646284672F074FD2846214672F082FD65
:10481000304670BDF947000870B50B4D2DED028B89
:10482000714606462846744672F062FD3046FFF730
:10483000E3FF90ED008A2146284672F06BFDB0EE52
:10484000480ABDEC028B70BD1948000838B57146A6
:1048500004460B48754672F04BFD0D2C09D8012318
:1048600003FA04F442F6030323401C1C18BF01247E
:1048700000E000240248294672F04CFD204638BD75
:104880004D48000870B5084D0646714628467446E6
:1048900072F02EFD337C43F01C033374284621460E
:1048A000BDE8704072F036BD85480008F8B5084D87
:1048B0000F46064671462846744672F019FD3B685D
:1048C000336028462146BDE8F84072F023BD00BFA2
:1048D000AD480008F7B50A4E02AC24ED010A714656
:1048E00007463046754672F003FD38462146FFF70D
:1048F000DDFF3046294672F00DFD03B0F0BD00BF6C
:10490000D5480008F7B50A4E02AC24ED010A7146FD
:1049100007463046754672F0EBFC381D2146FFF71E
:10492000C5FF3046294672F0F5FC03B0F0BD00BF6C
:1049300005490008F7B50A4E02AC24ED010A71469C
:1049400007463046754672F0D3FC07F10800214651
:10495000FFF7ACFF3046294672F0DCFC03B0F0BD37
:1049600035490008F7B50A4E02AC24ED010A71463C
:1049700007463046754672F0BBFC38462146FFF7C5
:1049800095FF3046294672F0C5FC03B0F0BD00BF6C
:104990006549000870B50B4D2DED028B714606463A
:1049A0002846744672F0A4FC3046FFF725FF90EDD0
:1049B000008A2146284672F0ADFCB0EE480ABDECF4
:1049C000028B70BD9549000870B50B4D2DED028B23
:1049D000714606462846744672F08AFC301DFFF781
:1049E0000BFF90ED008A2146284672F093FCB0EE52
:1049F000480ABDEC028B70BDC949000870B50C4D6A
:104A00002DED028B714606462846744672F070FC06
:104A100006F10800FFF7F0FE90ED008A21462846D7
:104A200072F078FCB0EE480ABDEC028B70BD00BF9E
:104A3000FD490008F8B50A4D06460F46284671465E
:104A4000744672F055FC96F8363067F3410386F8E9
:104A5000363028462146BDE8F84072F05BBC00BF06
:104A6000354A0008F8B5074D064674460F462846F5
:104A7000714672F03DFC777228462146BDE8F84049
:104A800072F048BC654A0008F8B50A4D06460F4664
:104A900028467146744672F02BFC96F8363067F360
:104AA000C30386F8363028462146BDE8F84072F048
:104AB00031BC00BF894A0008F8B50A4D06460F46CA
:104AC00028467146744672F013FC96F8363067F348
:104AD000451386F8363028462146BDE8F84072F086
:104AE00019BC00BFB94A000838B5074D71462846C1
:104AF000744672F0FDFB0548FFF756FB2846214639
:104B0000BDE8384072F006BCE94A0008386200206F
:104B100070B5094D71462846744672F0E9FB074BA3
:104B2000986B03689B68984721460646284672F0B2
:104B3000F1FB304670BD00BF114B0008807B0020A8
:104B400070B5094D064671462846744672F0D0FB92
:104B5000064B1A7866F304121A7028462146BDE8FF
:104B6000704072F0D7BB00BF414B0008806100204D
:104B700070B50C4D2DED028B7146064628467446E5
:104B800072F0B6FB06F12400FFF726FE90ED008AD6
:104B90002146284672F0BEFBB0EE480ABDEC028BFF
:104BA00070BD00BF714B000838B5064D74467146A4
:104BB000284672F09DFB2846214672F0ABFB01208F
:104BC00038BD00BFA94B000870B50A4D2DED028B12
:104BD0000646B0EE408A28467146744672F088FB5D
:104BE00086ED1C8ABDEC028B28462146BDE870404C
:104BF00072F090BBC94B000838B5084D7146284685
:104C0000744672F075FB9FED060A0648FFF7DCFF5D
:104C10002846214672F07EFB012038BDF94B000882
:104C2000000000003463002070B5094D714606464F
:104C30002846744672F05CFB06F10800FFF754FB4F
:104C400006882146284672F065FB304670BD00BFDD
:104C5000294C000870B50C4D2DED028B71460646AF
:104C60002846744672F044FB06F11800FFF7B4FDC5
:104C700090ED008A2146284672F04CFBB0EE480ABF
:104C8000BDEC028B70BD00BF554C000870B50C4DDB
:104C90002DED028B714606462846744672F028FBBD
:104CA00006F12800FFF7A8FD90ED008A214628466E
:104CB00072F030FBB0EE480ABDEC028B70BD00BF55
:104CC0008D4C000870B50C4D2DED028B71460646DB
:104CD0002846744672F00CFB06F12000FFF77CFDBD
:104CE00090ED008A2146284672F014FBB0EE480A87
:104CF000BDEC028B70BD00BFC54C000870B50C4DFB
:104D00002DED028B714606462846744672F0F0FA85
:104D100006F11C00FFF760FD90ED008A2146284651
:104D200072F0F8FAB0EE480ABDEC028B70BD00BF1D
:104D3000FD4C000870B50C4D2DED028B71460646FA
:104D40002846744672F0D4FA06F12C00FFF744FDB1
:104D500090ED008A2146284672F0DCFAB0EE480A4F
:104D6000BDEC028B70BD00BF354D000870B5104E14
:104D70002DED028B714604463046754672F0B8FA46
:104D800004F10800FFF728FD90ED008A04F11000FF
:104D9000FFF722FDD0ED007A38EE678A30462946CB
:104DA00072F0B8FAB0EE480ABDEC028B70BD00BFDD
:104DB0006D4D0008F8B5094D06460F462846714668
:104DC000744672F095FA337867F3410333702846DE
:104DD0002146BDE8F84072F09DBA00BFB54D00080D
:104DE00038B5714605460748744672F081FAFFF7F8
:104DF00093FC2146002818BF0546024872F08AFA43
:104E0000284638BDE14D000870B5084D064671468C
:104E10002846744672F06CFA0023736033602846AB
:104E20002146BDE8704072F075BA00BF094E000817
:104E300038B523487146744672F05AFA214B93ED07
:104E4000000AB5EE400AF1EE10FA33D01E4DD5ED52
:104E5000007AF5EE407AF1EE10FA2BD01B48FFF7FE
:104E600039FD1B4B194893ED000AFFF74BFD194B19
:104E7000164893ED000AFFF75DFD174B174893EDB9
:104E8000000AFFF76FFD164895ED000AFFF722FDB7
:104E9000144B134893ED000AFFF734FD124B1048F2
:104EA00093ED000AFFF746FD104B114893ED000A01
:104EB000FFF758FD21460248BDE8384072F02ABA93
:104EC000314E0008D0620020D85E0020F01600208D
:104ED000F4610020EC610020F0670020F81700204A
:104EE00010170020B05B0020FC5E0020EC120020B8
:104EF000FC170020F8B5094D06460F4628467146B6
:104F0000744672F0F5F9337967F30003337128467C
:104F10002146BDE8F84072F0FDB900BFF54E00082B
:104F200070B5074D064671462846744672F0E0F9A2
:104F300036782846214672F0EDF9304670BD00BF44
:104F4000214F0008F8B5084E0F460446714630461A
:104F5000754672F0CDF93B8823803046294672F0C1
:104F6000D9F92046F8BD00BF454F000870B50A4D7D
:104F70002DED028B0646B0EE408A284671467446F7
:104F800072F0B6F986ED048ABDEC028B2846214604
:104F9000BDE8704072F0BEB96D4F0008F8B50E4D17
:104FA0000E4E714607462846744672F0A1F906F186
:104FB0004E00FFF799F9B0F90030FB1A00EE103AF5
:104FC00006F53A70B8EEC00AFFF7D0FF2846214632
:104FD000BDE8F84072F09EB99D4F0008AC14002067
:104FE000F8B5084E0F46044671463046754672F0D5
:104FF0007FF93B6823603046294672F08BF92046E2
:10500000F8BD00BFE14F0008F7B50A4E02AC24ED31
:10501000010A714607463046754672F069F9214625
:1050200007F11400FFF7DCFF3046294672F072F9F1
:1050300003B0F0BD09500008F8B5084E0F4604460D
:1050400071463046754672F053F93B78237030460E
:10505000294672F05FF92046F8BD00BF39500008BC
:10506000F7B50A4E02AC24ED010A714607463046F8
:10507000754672F03DF9214607F12C00FFF7B0FFAD
:105080003046294672F046F903B0F0BD6150000881
:1050900070B50E4E2DED048B0446B0EE409AF0EE46
:1050A000608AB0EE418A75467146304672F020F94A
:1050B00084ED009AC4ED018A84ED028A30462946C7
:1050C00072F028F9BDEC048B204670BD91500008A9
:1050D00070B5084D064671462846744672F008F9C8
:1050E00036792846C6F34006214672F013F9304659
:1050F00070BD00BFD150000870B504460E460B4885
:105100007146754672F0F4F894F840300748C3F3DE
:1051100081039E42B6BF04EBC604002494F82C40E1
:10512000294672F0F7F8204670BD00BFF95000081C
:1051300070B50A4D064671462846744672F0D8F896
:1051400096F84010304601F00301FFF7D5FF2146E5
:105150000646284672F0DEF8304670BD3151000830
:10516000F8B50F46074D064606EBC70671462846BA
:10517000744672F0BDF8368D2846214672F0CAF8A2
:105180003046F8BD6151000870B50A4D06467146BB
:105190002846744672F0ACF896F84010304601F09C
:1051A0000301FFF7DDFF21460646284672F0B2F8FC
:1051B000304670BD89510008F8B50A4D06460F46C5
:1051C00028467146744672F093F806EB47001E308D
:1051D000FFF78AF806882146284672F09BF830B21D
:1051E000F8BD00BFB951000870B50A4D06467146BA
:1051F0002846744672F07CF896F84010304601F06C
:105200000301FFF7D9FF21460646284672F082F8CF
:10521000304670BDE9510008F8B50A4D06460F4604
:1052200028467146744672F063F806EB4700223058
:10523000FFF75AF806882146284672F06BF830B21C
:10524000F8BD00BF1952000870B50A4D06467146F8
:105250002846744672F04CF896F84010304601F03B
:105260000301FFF7D9FF21460646284672F052F89F
:10527000304670BD4952000870B5074D064671466C
:105280002846744672F034F8B6F8946028462146F1
:1052900072F040F830B270BD7952000870B50A4D16
:1052A0002DED028B714606462846744672F020F8B2
:1052B00096ED1C8A2846214672F02CF8B0EE480A7A
:1052C000BDEC028B70BD00BF9D52000870B50A4D49
:1052D0002DED028B714606462846744672F008F89A
:1052E00096ED2C8A2846214672F014F8B0EE480A52
:1052F000BDEC028B70BD00BFCD52000870B50A4DE9
:105300002DED028B714606462846744671F0F0FF7B
:1053100096ED2F8A2846214671F0FCFFB0EE480A30
:10532000BDEC028B70BD00BFFD520008F8B5084D02
:10533000744606460F462846714671F0D9FF284646
:10534000214671F0E7FF382303FB07602630F8BDE4
:105350002D53000870B50A4D06467146284674461E
:1053600071F0C6FF96F89410304601F00301FFF784
:10537000DDFF21460646284671F0CCFF304670BD61
:1053800055530008F8B5084D064674460F462846A2
:10539000714671F0ADFF86F8287028462146BDE8B9
:1053A000F84071F0B7BF00BF85530008F8B50A4D4B
:1053B00006460F4628467146744671F099FF0C2345
:1053C00003FB0760BC30FFF7F5F821460646284688
:1053D00071F0A0FF3046F8BDAD53000870B50B4E1C
:1053E000044671463046754671F082FF23682046B8
:1053F000DB6C984701462046FFF7D8FF2946044654
:10540000304671F087FF204670BD00BFDD530008B5
:105410002DE9FF4BDFF8648071464046774671F016
:1054200067FF1348FFF7DAFF124B06460068D3F810
:1054300000909EF051FF04467068D9F800B00D4608
:105440009EF04AFFCDE90001B0689EF045FFCDE92E
:10545000020122464846DBF8206007492B46B04748
:105460004046394604B0BDE8F04B71F053BF00BF71
:10547000A85900208C61002044660A0811540008D5
:10548000F8B50A4D06460F4628467146744671F037
:105490002FFF0C2303FB07609830FFF78BF82146A2
:1054A0000646284671F036FF3046F8BD81540008A4
:1054B00070B50B4E044671463046754671F018FFC4
:1054C000236820469B6C984701462046FFF7D8FF8B
:1054D00029460446304671F01DFF204670BD00BFCE
:1054E000B1540008F8B50A4D06460F4628467146E5
:1054F000744671F0FDFE0C2303FB07607430FFF768
:1055000059F821460646284671F004FF3046F8BD9A
:10551000E554000870B50B4E04467146304675469A
:1055200071F0E6FE236820469B6C984701462046B2
:10553000FFF7D8FF29460446304671F0EBFE2046BF
:1055400070BD00BF155500082DE9F04BDFF89090B5
:10555000204C8CB071464846F04671F0C9FE20469A
:10556000FFF7A6FF07462046FFF7D4FF1A4BD3F8F4
:1055700000B00646DBF8003038680B939EF0ACFEB6
:10558000044678680D469EF0A7FECDE90001B86894
:105590009EF0A2FECDE9020130689EF09DFECDE9AD
:1055A000040170689EF098FECDE90601B0689EF097
:1055B00093FECDE908010B9B08491E6A5846224616
:1055C0002B46B047484641460CB0BDE8F04B71F061
:1055D000A1BE00BFA85900208C61002060660A08A7
:1055E0004955000870B5084D714606462846744670
:1055F00071F07EFE3046FEF767FE067821462846AB
:1056000071F088FE304670BDE555000870B5084D54
:10561000714606462846744671F06AFE701CFEF715
:1056200053FE06782146284671F074FE304670BD60
:105630000D56000870B5084D71460646284674465A
:1056400071F056FEF01CFEF73FFE06782146284614
:1056500071F060FE304670BD3556000870B5084DDB
:10566000714606462846744671F042FEB01CFEF7AD
:105670002BFE06782146284671F04CFE304670BD60
:105680005D56000838B5714604460A48754671F003
:105690002FFEB4F5966F05DBB4F5E16FD4BF01249E
:1056A000022400E000240348294671F033FE20461E
:1056B00038BD00BF85560008F7B50A4D06460F46AF
:1056C00028467146744671F013FE02A9301D01F898
:1056D000017DFFF7B1FC2846214671F01BFE03B0A7
:1056E000F0BD00BFB956000838B51548714675467B
:1056F00071F0FEFD134BB3F9EC3040F2CE42934211
:1057000011DDB3F5AA6F10DD40F2D25293420EDDE7
:1057100040F2546293420CDD40F2D564A342CCBF08
:105720000524042406E0002404E0012402E002240D
:1057300000E003240248294671F0ECFD204638BD04
:10574000E9560008AC140020F8B5084D0F4606468F
:1057500071462846744671F0CBFD3B78337028467D
:105760002146BDE8F84071F0D5BD00BF495700089B
:10577000F7B50A4D06460F4628467146744671F045
:10578000B7FD02A906F1350001F8017DFFF7DCFF46
:105790002846214671F0BEFD03B0F0BD71570008E8
:1057A00070B50A4D714606462846744671F0A0FD54
:1057B0003046FEF789FD90F90060003618BF0126DB
:1057C0002846214671F0A6FD304670BDA15700085D
:1057D00070B5084D714606462846744671F088FD3E
:1057E000B01DFEF781FD06882146284671F092FD26
:1057F00030B270BDD1570008F7B50A4D06460F46C6
:1058000028467146744671F073FD02A906F15000F6
:1058100001F8017DFFF710FC2846214671F07AFD62
:1058200003B0F0BDF957000870B5084D7146064643
:105830002846744671F05CFD3046FEF745FD06785B
:105840002146284671F066FD70B270BD29580008E7
:1058500038B571462DED028B04460C487546B0EE06
:10586000408A71F045FD04F5A470FEF72DFD90F916
:1058700000300648022B08BF84ED5F8ABDEC028B26
:105880002946BDE8384071F045BD00BF51580008B9
:1058900038B571462DED028B04460C487546B0EEC6
:1058A000408A71F025FD04F5A470FEF70DFD90F916
:1058B00000300648012B08BF84ED5F8ABDEC028BE7
:1058C0002946BDE8384071F025BD00BF9158000859
:1058D000F8B5094D744606460F462846714671F0E4
:1058E00007FD2846214671F015FD0C2303FB0760D8
:1058F00000F5B270F8BD00BFD1580008F8B50F46EA
:10590000074D064606EBC70671462846744671F0F9
:10591000EFFC36692846214671F0FCFC3046F8BDA4
:10592000FD58000870B5084D064671462846744675
:1059300071F0DEFC96F894602846C6F38106214695
:1059400071F0E8FC304670BD2559000870B5074D70
:10595000064671462846744671F0CAFC36692846E8
:10596000214671F0D7FC304670BD00BF4D5900088C
:1059700070B50B4D064671462846744671F0B8FC6A
:10598000084B1A7866F3C3021A70074B5A7866F30D
:1059900004125A7028462146BDE8704071F0BABC26
:1059A0007159000880610020387D002038B5074D0E
:1059B00071462846744671F09BFC054B00221A7014
:1059C00028462146BDE8384071F0A4BCAD59000816
:1059D000625B002070B5074D064671462846744646
:1059E00071F086FCB36C9E882846214671F092FCCB
:1059F00030B270BDD559000870B50D4D71462846BE
:105A0000744671F075FC0B48FEF76EFCB0F90000AF
:105A100007EE900AFAEEEF7A2846FDEEE77A214685
:105A200017EE906AB6B271F075FC30B270BD00BF6F
:105A3000F9590008FC14002070B5094D714606465E
:105A40002846744671F054FC064B986B0268B1B25C
:105A50005268904728462146BDE8704071F05ABC14
:105A6000395A0008807B002070B5094D71462846E0
:105A7000744671F03DFC074B986B0368DB689847F0
:105A800021460646284671F045FC304670BD00BFF1
:105A9000695A0008807B0020F8B5084D0F4606467D
:105AA00071462846744671F023FC3B8833802846B3
:105AB0002146BDE8F84071F02DBC00BF995A00089E
:105AC000F8B5074D064674460F462846714671F0F4
:105AD0000FFCB78028462146BDE8F84071F01ABC9B
:105AE000C15A0008F8B5094D06460F4628467146CA
:105AF000744671F0FDFB3046B763FEF7AFFB2846F6
:105B00002146BDE8F84071F005BC00BFE55A000829
:105B100038B5064D74462846714671F0E9FB2846B3
:105B20002146BDE8384071F0F5BB00BF115B0008AD
:105B300070B50A4D064671462846744671F0D8FB8A
:105B4000B369D3ED067AF8EEE77A2846C6ED187AFF
:105B50002146BDE8704071F0DDBB00BF315B00083D
:105B600070B50A4D2DED028B7146064628467446E7
:105B700071F0BEFB96ED2B8A2846214671F0CAFBD8
:105B8000B0EE480ABDEC028B70BD00BF615B00083F
:105B900038B50E4D2DED028B714608EE100A2846E1
:105BA000744671F0A5FB0A48FEF716FEB8EEC88AE7
:105BB000D0ED007A28EE278A2846214671F0AAFB0C
:105BC000B0EE480ABDEC028B38BD00BF915B000807
:105BD000E016002070B5094E044671463046754601
:105BE00071F086FBA0680368DB6A9847304684ED55
:105BF0001C0A2946BDE8704071F08CBBD55B0008DB
:105C000070B50A4D2DED028B714606462846744646
:105C100071F06EFB96ED168A2846214671F07AFBEC
:105C2000B0EE480ABDEC028B70BD00BF015C0008FD
:105C300070B50A4D2DED028B714606462846744616
:105C400071F056FB96ED178A2846214671F062FBEB
:105C5000B0EE480ABDEC028B70BD00BF315C00089D
:105C600070B50A4D2DED028B7146064628467446E6
:105C700071F03EFB96ED188A2846214671F04AFBEA
:105C8000B0EE480ABDEC028B70BD00BF615C00083D
:105C900070B50C4D06462DED028B714628467446B4
:105CA00071F026FBF068FFF7DBFFB0EE408ABDEE37
:105CB000C88A2846214671F02DFB18EE100ABDEC6B
:105CC000028B70BD915C000870B50A4D2DED028B02
:105CD000714606462846744671F00AFB96ED198A0D
:105CE0002846214671F016FBB0EE480ABDEC028B47
:105CF00070BD00BFC95C000870B50C4D06462DEDA7
:105D0000028B71462846744671F0F2FAF068FFF78C
:105D1000DBFFB0EE408ABDEEC88A2846214671F00E
:105D2000F9FA18EE100ABDEC028B70BDF95C0008A0
:105D300070B50A4D2DED028B714606462846744615
:105D400071F0D6FA96ED108A2846214671F0E2FAF3
:105D5000B0EE480ABDEC028B70BD00BF315D00089B
:105D600010B51D482DED028B7146744671F0C0FAD6
:105D70001A4B187810B11A48FFF7DAF9194B5A780C
:105D80009978DB7842EA012242EA034343F317039E
:105D9000B3F57A7F0ADB18B1134B1B78022B05D8B9
:105DA0001248FFF7C5FFB0EE408A0BE01048FEF73F
:105DB0009BFAB0F90030002BC8BF5B4207EE903A67
:105DC000B8EEE78A0448214671F0A4FAB0EE480A1A
:105DD000BDEC028B10BD00BF615D0008340D0020DA
:105DE0001C64002099650020F41200203463002018
:105DF000EC14002070B50C4D06462DED028B71465B
:105E00002846744671F074FAF068FFF729FFB0EE87
:105E1000408ABDEEC88A2846214671F07BFA18EE0A
:105E2000100ABDEC028B70BDF55D000870B50C4D1D
:105E300006462DED028B71462846744671F058FADD
:105E4000F068FFF741FFB0EE408ABDEEC88A2846F1
:105E5000214671F05FFA18EE100ABDEC028B70BD9E
:105E60002D5E000870B5094D7146064628467446F9
:105E700071F03EFAD6ED0A7AFDEEE77A284617EE83
:105E8000906A214671F046FA304670BD655E0008A2
:105E900070B5084D064671462846744671F028FADA
:105EA0000023F386338728462146BDE8704071F011
:105EB00031BA00BF915E000870B5074D7446714657
:105EC0000646284671F014FA2846214671F022FA57
:105ED00006F15C0070BD00BFB95E000870B5084DEA
:105EE000064671462846744671F002FA367828460E
:105EF00006F00106214671F00DFA304670BD00BF74
:105F0000DD5E000870B5064D7446714606462846AB
:105F100071F0EEF92846214671F0FCF9304670BD6B
:105F2000055F000870B50A4D2DED028B0646B0EEF8
:105F3000408A28467146744671F0DAF986ED1C8A6B
:105F4000BDEC028B28462146BDE8704071F0E2B9F5
:105F5000255F000870B50A4D2DED028B0646B0EEA8
:105F6000408A28467146744671F0C2F986ED1D8A52
:105F7000BDEC028B28462146BDE8704071F0CAB9DD
:105F8000555F000870B504460D462DED028B714635
:105F90006448764671F0ACF92188B5F900200BB25F
:105FA000002B02DD002A03DA08E009B1002A05DC33
:105FB000002AB8BF5242B2F5E16F01DD2B88A8E09C
:105FC00007EE103A002BF8EEC77A9FED578A50DDA6
:105FD000564867EE888AFEF787F9B0F90030032B40
:105FE0000CDD5248FEF780F9B0F90020042392FB43
:105FF000F3F307EE903AB8EEE77A01E0B7EE007AF5
:10600000F4EEC78AF1EE10FA08DDB4F9003007EEBD
:10601000903AF8EEE77A27EE888A15E04348FEF7D3
:1060200063F9B0F90030032B0CDD4048FEF75CF952
:10603000B0F90020042392FBF3F308EE103AB8EE17
:10604000C88A01E0B7EE008AB4F9003007EE903A52
:10605000F8EEE77A37EEC88ABDEEC88A18EE103A35
:106060009BB22380B5F900201BB29342B8BF134600
:106070004FE02E4867EEC88AFEF736F9B0F90030D7
:10608000032B0CDD2948FEF72FF9B0F9002004237B
:1060900092FBF3F307EE103AF8EEC77A01E0F7EE61
:1060A000007AF4EEE78AF1EE10FA08DDB4F9003078
:1060B00007EE903AF8EEE77A27EEC88A15E01B481B
:1060C000FEF712F9B0F90030032B0CDD1748FEF78C
:1060D0000BF9B0F90020042392FBF3F308EE103A19
:1060E000B8EEC88A01E0B7EE008AB4F9003007EED6
:1060F000903AF8EEE77A38EE278ABDEEC88A18EEB5
:10610000103A9BB22380B5F900201BB29342A8BF7E
:106110001346BDEC028B238031460248BDE8704037
:1061200071F0F8B8855F0008CDCC4C3CE21400203B
:1061300038B50C4D71462846744671F0D9F80A4BB3
:106140001A78052161F302021A70C8225A830022CC
:106150005A805A8EDA8328462146BDE8384071F0CD
:10616000D9B800BF31610008B412002038B50C4D19
:1061700071462846744671F0BBF80A4B1A7805211F
:1061800061F3C5021A70C8229A8300229A809A8EFF
:106190001A8428462146BDE8384071F0BBB800BFDC
:1061A0006D610008B412002038B533482DED048B22
:1061B0007146754671F09CF8304B1A78C2F3410273
:1061C000002A51D05978C8074ED52D4C6FF30001E5
:1061D0005970B4F96E3007EE103A012AB8EEC77A5A
:1061E0000AD1284BD3ED006AB4F98E3008EE903A0C
:1061F000254BF8EEE88A09E0244BD3ED006AB4F9A8
:106200008E3008EE903A224BF8EEE88AD3ED007A11
:10621000204827EEE88A68EEA68AA7EE268AE7EEEF
:10622000278AFFF753F81B48B0EE409AFFF766F84D
:1062300020EE280A1748A9EE080ABDEEC00A10EEA3
:10624000103AA4F86E30FFF759F81248B0EE409AB1
:10625000FFF73CF820EE280AA8EE490ABDEEC00A76
:1062600010EE103AA4F88E30BDEC048B294602489B
:10627000BDE8384071F04EB8A9610008DC5E00202E
:10628000AC140020380D002060650020300D002087
:10629000686800200C1800202DE9F0410A4D804666
:1062A0000F4628467146744671F022F80748066882
:1062B00041463A463668B0472846214671F02AF8EA
:1062C0000020BDE8F08100BF99620008807B0020BB
:1062D00070B50B4D064671462846744671F008F8B5
:1062E000084B1A7866F382021A70074B5A7866F3E5
:1062F000C3025A7028462146BDE8704071F00AB8C2
:10630000D162000880610020387D002038B57146D8
:1063100004460C48754670F0EBFF0B4B1A78C2F33D
:106320000011A14207D064F304121A70074B1A78C7
:1063300064F3C7121A7029460248BDE8384070F06D
:10634000E9BF00BF0D630008DC5E0020387D00203F
:1063500038B5714605460948744670F0C9FF084BC8
:1063600006481A78C2F3C001A9421CBF65F3C302F4
:106370001A702146BDE8384070F0CCBF5163000868
:10638000DC5E002038B5104D2DED028B714628469D
:10639000744670F0ADFF0D48FDF796FF90F90000D0
:1063A000DFED0B7A07EE100AB8EEC77AB0EE008A7E
:1063B000A7EE278A2846214670F0ACFFB0EE480AC7
:1063C000BDEC028B38BD00BF85630008E1140020DE
:1063D000CDCCCC3D70B5714605461048744670F082
:1063E00087FFFEF795FB06460D48FDF76DFF90F918
:1063F0000030B3EB962F01D2002508E035B9094BE8
:10640000D86A03681B6A98470028F5D1012503481C
:10641000214670F07FFF284670BD00BFD56300089D
:10642000BB140020807B0020F8B5084D744606465A
:106430000F462846714670F05BFF2846214670F0F3
:1064400069FF0C2303FB07604C30F8BD296400088A
:1064500070B50B4E044671463046754670F048FFE5
:1064600023682046DB6C984701462046FFF7DCFF97
:1064700029460446304670F04DFF204670BD00BFEF
:1064800051640008F8B50F46074D064606EBC706EF
:1064900071462846744670F02BFFF6682846214660
:1064A00070F038FF3046F8BD8564000870B50A4DBD
:1064B000064671462846744670F01AFF96F8941006
:1064C000304601F00301FFF7DDFF2146064628466E
:1064D00070F020FF304670BDAD640008F8B5094D7E
:1064E000744606460F462846714670F001FF28465E
:1064F000214670F00FFF382307FB0333F0180830F4
:10650000F8BD00BFDD64000870B50A4D064671464F
:106510002846744670F0ECFE96F89410304601F070
:106520000301FFF7DBFF21460646284670F0F2FE26
:10653000304670BD09650008F8B50C4D2DED028B95
:1065400006460F4628467146744670F0D1FE382341
:1065500003FB076696ED0D8A2846214670F0DAFEA9
:10656000B0EE480ABDEC028BF8BD00BF39650008EB
:1065700070B50D4D06462DED028B714628467446CA
:1065800070F0B6FE96F89410304601F00301FFF764
:10659000D3FF2846B0EE408A214670F0BBFEB0EE35
:1065A000480ABDEC028B70BD7165000838B5054620
:1065B00071460848744670F09BFEA88B4FF6FF7535
:1065C000A84214BF054600252146024870F0A2FEED
:1065D000284638BDAD650008F8B50F46074D06469C
:1065E00006EBC70671462846744670F081FE768D2C
:1065F0002846214670F08EFE3046F8BDD965000869
:1066000070B50A4D064671462846744670F070FE15
:1066100096F84010304601F00301FFF7DDFF2146F8
:106620000646284670F076FE304670BD01660008CA
:1066300070B50A4D714606462846744670F058FEFD
:10664000301DFDF741FE90F90060003618BF0126AD
:106650002846214670F05EFE304670BD3166000867
:1066600070B5074D064671462846744670F040FEE8
:1066700096F828602846214670F04CFE304670BDE2
:106680006166000870B5074D064671462846744697
:1066900070F02EFE368E2846214670F03BFE3046C6
:1066A00070BD00BF8566000870B5074D064671468F
:1066B0002846744670F01CFEF66A2846214670F0A3
:1066C00029FE304670BD00BFA966000870B5064DB2
:1066D000744671460646284670F00AFE2846214652
:1066E00070F018FE304670BDCD66000870B50D46DE
:1066F000044671462448764670F0FAFD082D3BD8D2
:1067000004EB45007230FFF7E1FF007807EE900AD6
:10671000082DF8EE677A08D094F864300BB9236C32
:106720001BB1B5EE007A67EE877AF5EEC07AF1EE2E
:1067300010FA21D9254495F88430D3B99FED137A06
:1067400094F88D40F4EE477AF1EE10FAC8BFF0EEFF
:10675000477A87EE277A06EE904AF8EEE66A012439
:1067600077EE267AFCEEE77A17EE903A85F88430D9
:1067700003E0013B85F8843000240348314670F083
:10678000C9FD204670BD00BFED660008000048420C
:1067900070B5074D744671460646284670F0A8FD50
:1067A0002846214670F0B6FD06F19C0070BD00BF82
:1067B0009167000870B50C4D2DED028B06467146B1
:1067C000B0EE408A2846744670F092FDF068B0EE54
:1067D000480AFEF7F9F9BDEC028B28462146BDE8D0
:1067E000704070F097BD00BFB567000838B50C4623
:1067F0001D487146754670F07BFD6379DB071CD53B
:106800001A48FFF7C5FFA379E279817843EA0222AB
:10681000237A42EA0342437843EA0123C17843EAF8
:10682000014342F3170243F317031344C3F3072250
:10683000A371C3F30743E2712372E279A3790C4891
:1068400043EA0223227A43EA024343F3170300EEAA
:10685000103AB8EEC00AFFF7ADFF29460248BDE87E
:10686000384070F057BD00BFED6700080C180020DD
:10687000045F002070B5094D7146064628467446EF
:1068800070F036FD06F13700FDF7C4FC06782146AE
:10689000284670F03FFD304670BD00BF75680008A7
:1068A00070B5074D064671462846744670F020FDC7
:1068B000367D2846214670F02DFD304670BD00BF64
:1068C000A168000870B5074E04467146304675460B
:1068D00070F00EFD044B23603046294670F01AFD1F
:1068E000204670BDC568000828560A08F8B50A4E4B
:1068F00004460F4630467146754670F0F9FC204656
:10690000FFF7E0FF054B236030462771294670F002
:1069100001FD2046F8BD00BFED68000890AD0A08F3
:1069200070B50D4C064671460C48754670F0E0FC9B
:10693000206803685B690EB1094900E0094998477E
:106940002068094903685B69984729460348BDE800
:10695000704070F0DFBC00BF8C610020216900082E
:10696000F16D0A0826540A08BD710A0870B5094D70
:10697000714606462846744670F0BAFC06F5A470C7
:10698000FDF7A2FC06782146284670F0C3FC30468D
:1069900070BD00BF6D690008F8B50B4D06460F4687
:1069A00028467146744670F0A3FC0C2303FB076075
:1069B00000F5A670FDF7FEFD21460646284670F05C
:1069C000A9FC3046F8BD00BF9969000870B5094DB3
:1069D000714606462846744670F08AFC06F10800A7
:1069E000FDF772FC06782146284670F093FC30468D
:1069F00070BD00BFCD69000838B5714604460D482A
:106A0000754670F075FC0C48FDF75EFC90F900309F
:106A1000022B05D0032B06D01C1C18BF012403E059
:106A200084F0010400E004240248294670F072FC5E
:106A3000204638BDF9690008E014002070B50E4DFD
:106A40002DED028B714606462846744670F050FCC8
:106A50003046FFF78DFD28462146B0EE408A70F0A3
:106A600059FCDFED067A28EE278ABCEEC88A18EEBC
:106A7000100ABDEC028B70BD3D6A00080000C842E0
:106A8000F8B5094D0F46064671462846744670F023
:106A90002FFC382303FB07662846B66B214670F0AF
:106AA00039FC3046F8BD00BF816A000870B50A4D58
:106AB000064671462846744670F01AFC96F8941003
:106AC000304601F00301FFF7DBFF2146064628466A
:106AD00070F020FC304670BDAD6A000838B5134830
:106AE000134C2DED028B7146754670F001FC114878
:106AF000FDF7FAFD01280DD90E48FFF79FFF642826
:106B000008D90C48FFF7D2FF07EE100AF8EEC77A53
:106B1000C4ED007A94ED008A0448294670F0FAFB2F
:106B2000B0EE480ABDEC028B38BD00BFDD6A00083C
:106B3000646500206464002070B50A4D2DED028B61
:106B4000714606462846744670F0D2FB96ED398AA7
:106B50002846214670F0DEFBB0EE480ABDEC028B01
:106B600070BD00BF396B000870B5084E0446714611
:106B70003046754670F0BCFB0023304663602360EE
:106B8000294670F0C7FB204670BD00BF696B000846
:106B900070B5074D744671460646284670F0A8FB4E
:106BA0002846214670F0B6FB06F50B7070BD00BF9D
:106BB000916B000838B5094D71462846744670F04F
:106BC00097FB074B01221A70FEF74EFF054B18602A
:106BD00021462846BDE8384070F09CBBB56B0008E4
:106BE000280D00203868002038B5074D714628462A
:106BF000744670F07DFB054B00221A702846214632
:106C0000BDE8384070F086BBE96B0008280D002015
:106C100070B50A4D2DED028B0646B0EE408A28462F
:106C20007146744670F064FB86ED098ABDEC028BF8
:106C300028462146BDE8704070F06CBB116C00081E
:106C400070B5084D714606462846744670F050FBF4
:106C5000B01DFDF7DFFA06782146284670F05AFB92
:106C6000304670BD416C000838B5094D7146284664
:106C7000744670F03DFB074A00231380064A1360F8
:106C8000064A138028462146BDE8384070F042BBD2
:106C9000696C000868650020F01200205860002030
:106CA00038B5714604460D48754670F021FB0C4B13
:106CB0001A8801321A800B4B1A68944288BF1C60F4
:106CC00040F6B8339C4203D9074B1A8801321A8028
:106CD00029460248BDE8384070F01CBBA16C000892
:106CE00068650020F01200205860002070B5074D44
:106CF00071462846744670F0FBFA054B1E882846FC
:106D0000214670F007FB304670BD00BFED6C0008F7
:106D10006865002070B5074D71462846744670F0CE
:106D2000E7FA054B1E682846214670F0F3FA304614
:106D300070BD00BF156D0008F012002070B5074D42
:106D400071462846744670F0D3FA054B1E882846D3
:106D5000214670F0DFFA304670BD00BF3D6D00087F
:106D600058600020F0B5234F8BB00446714638467A
:106D7000764670F0BDFA2048FFF70AFD6268436866
:106D8000DFED1E7AD31A06EE903A1D4BA268D3EDC2
:106D9000000A8368D31AB8EEE60AA27806EE903AA3
:106DA000637843EA0223E27843EA024343F317039A
:106DB00060EEA70AB8EEE67A01EE103A04AD20EED6
:106DC000270A60EE870AB8EEC11A2846FEF760F976
:106DD00095E807000AAB03E907003846314670F032
:106DE00099FA9DED070ADDED080A9DED091A0BB031
:106DF000F0BD00BF656D00080C1800202C7D8E3F93
:106E0000440D002038B5064D74462846714670F092
:106E10006FFA28462146BDE8384070F07BBA00BFC3
:106E2000056E000838B5714605460A48744670F08C
:106E30005FFA0023EA18043300211C2B5160F9D1BA
:106E4000002385F8203021460248BDE8384070F024
:106E500061BA00BF256E000838B504462DED028BDF
:106E600071460F48B0EE408A754670F041FA94F8CA
:106E700020200B48531CDBB2062B84F8203004EB97
:106E8000820288BF002382ED018A294688BF84F8E8
:106E9000203070F03FFAB0EE480ABDEC028B38BDEE
:106EA000596E000870B5084D06467146284674466E
:106EB00070F01EFA96F840602846C6F38106214617
:106EC00070F028FA304670BDA56E000838B5094D3F
:106ED00071462846744670F00BFA074B074918684C
:106EE00003681B6A984728462146BDE8384070F081
:106EF00011BA00BFCD6E00088C61002099660A08A7
:106F000038B5094D71462846744670F0F1F9074BC3
:106F1000074AD86B116803681B68984728462146C2
:106F200070F0F8F9002038BD016F0008807B002068
:106F30008C61002038B5064D74467146284670F0C5
:106F4000D7F92846214670F0E5F9002038BD00BF8A
:106F5000356F0008F8B5084D744606460F462846BA
:106F6000714670F0C5F92846214670F0D3F90C231C
:106F700003FB07600430F8BD556F000870B50B4E79
:106F8000044671463046754670F0B2F923682046D3
:106F90009B6C984701462046FFF7DCFF29460446D4
:106FA000304670F0B7F9204670BD00BF7D6F000815
:106FB000F8B50A4D06460F4628467146744670F0ED
:106FC00097F996F8363067F3820386F8363028460C
:106FD0002146BDE8F84070F09DB900BFB16F0008D0
:106FE00070B50B4E044671463046754670F080F918
:106FF000236820461B69984701462046FDF7ACFAF6
:1070000029460446304670F085F9204670BD00BF21
:10701000E16F000838B5094D71462846744670F096
:1070200067F9074B0749186803681B6A98472846A1
:10703000214670F06FF9002038BD00BF15700008C0
:107040008C610020AE660A0838B5094D71462846A5
:10705000744670F04DF9074B986B03680021DB6BA9
:1070600098472846214670F055F9002038BD00BFEA
:1070700049700008807B00202DE9F04B5D4F5E4D8C
:107080005E4C71463846764670F032F9D5F800808D
:10709000D8F8003004F17600D3F82090FDF724F9F9
:1070A000B0F900B004F17A00FDF71EF95A465449D0
:1070B000B0F900304046C847D5F80080D8F8003015
:1070C00004F19600D3F82090FDF70EF9B0F900B066
:1070D00004F19A00FDF708F95A464A49B0F9003020
:1070E0004046C847D5F80080D8F8003004F1B60013
:1070F000D3F82090FDF7F8F8B0F900B004F1BA0029
:10710000FDF7F2F85A464049B0F900304046C8470A
:10711000D5F80080D8F8003004F1D600D3F82090DC
:10712000FDF7E2F8B0F900B004F1DA00FDF7DCF8A1
:107130005A463649B0F900304046C847D5F8008075
:10714000D8F8003004F1F600D3F82090FDF7CCF821
:10715000B0F900B004F1FA00FDF7C6F85A462C4920
:10716000B0F900304046C847D5F80080D8F8003064
:1071700004F58B70D3F82090FDF7B6F8B0F900B0A5
:1071800004F58D70FDF7B0F85A462249B0F9003089
:107190004046C847D5F80080D8F8003004F59B7009
:1071A000D3F82090FDF7A0F8B0F900B004F59D7079
:1071B000FDF79AF85A461849B0F900304046C847DA
:1071C0002D682B6804F5AB70D3F82080FDF78CF8A0
:1071D000B0F9009004F5AD70FDF786F80F49B0F9ED
:1071E00000304A462846C04738463146BDE8F04B95
:1071F00070F090B8797000088C610020AC14002009
:10720000D9660A08E7660A08F5660A0803670A08E5
:1072100011670A081F670A082D670A083B670A08F2
:1072200070B504460D462D487146764670F060F8FC
:107230002368102D47D8DFE805F0090D12161A1E35
:107240002226462A2E3246363A3E42005B692449BF
:10725000204602E05B6923492046984738E05B6995
:1072600021492046F9E75B6920492046F5E75B693B
:107270001F492046F1E75B691E492046EDE75B693F
:107280001D492046E9E75B691C492046E5E75B6943
:107290001B492046E1E75B691A492046DDE75B6947
:1072A00019492046D9E75B6918492046D5E75B694B
:1072B00017492046D1E75B6916492046CDE75B694F
:1072C00015492046C9E71B6A144920462A469847B3
:1072D00031460248BDE8704070F01CB821720008C9
:1072E00049670A0853670A0858670A0861670A0865
:1072F00066670A0880670A086D670A0871670A08E6
:1073000078670A087D670A0887670A088D670A0890
:1073100093670A0898670A08A1670A08A9670A0814
:107320002DE9F843124C814688461248714675464D
:1073300016466FF0DDFF20680F4907684A463F6A2E
:10734000B84720684146FFF76BFF20680B49036888
:107350001B6A9847206803681B6A0EB1084900E061
:107360000849984729460348BDE8F8436FF0D2BF63
:107370008C61002021730008B2670A08BB670A0805
:10738000C7670A08CB670A0870B5084D71462846DA
:1073900074466FF0ADFF0648FEF7A0FD2146064695
:1073A00028466FF0B7FF304670BD00BF89730008F4
:1073B000045F002038B5064D7446714628466FF0CC
:1073C00097FF284621466FF0A5FF002038BD00BF7B
:1073D000B573000870B5074D7446714606462846D9
:1073E0006FF086FF284621466FF094FF06F11C00DF
:1073F00070BD00BFD573000870B50A4D2DED028B2E
:1074000071460646284674466FF072FF96ED0C8A68
:10741000284621466FF07EFFB0EE480ABDEC028B95
:1074200070BD00BFF973000838B512487146754643
:107430006FF05EFF1048FEF751FD044698B10F4C07
:10744000236813B9FDF764FB2060FDF761FB246836
:107450004FF47A73001BB0FBF3F4094B1B889C427A
:1074600034BF00240124034829466FF053FF20460F
:1074700038BD00BF29740008045F0020D4610020DB
:10748000E467002038B50B48714675466FF030FF51
:10749000094B1C783CB1094B1C78033CE4B2012C2D
:1074A0008CBF00240124034829466FF033FF204697
:1074B00038BD00BF857400085A600020A85B00201A
:1074C00038B571460C4875466FF012FFFDF720FB8A
:1074D0000A4B1B68C01A0A4B1A6822EAE2729042F1
:1074E0004FF0000488BF1C60034888BF0124294670
:1074F0006FF010FF204638BDC17400085013002003
:10750000F061002038B5064D7446714628466FF08C
:10751000EFFE284621466FF0FDFE012038BD00BF7A
:1075200005750008F8B50A4E07460C463046714608
:1075300075466FF0DDFE94E8070007F11C0383E851
:10754000070030462946BDE8F8406FF0E3BE00BFB3
:1075500025750008F7B50A4E02AC24ED010A714604
:107560000746304675466FF0C3FE214607F110000E
:10757000FDF736FD304629466FF0CCFE03B0F0BD76
:107580005575000870B50C4D2DED028B7146064601
:10759000284674466FF0ACFE06F11000FDF71CF9AA
:1075A00090ED008A214628466FF0B4FEB0EE480AFE
:1075B000BDEC028B70BD00BF8575000870B5074D2E
:1075C00006467146284674466FF092FEF68F2846AE
:1075D00021466FF09FFE304670BD00BFBD750008AC
:1075E00070B50F4D06467146284674466FF080FE12
:1075F000FDF78EFAD6F805609FED0A7A0A4B07EE82
:10760000906A67EE877A1860FDEEE77A074BC3ED64
:10761000007A28462146BDE870406FF07BBE00BF6F
:10762000E175000800007A4450130020F06100204A
:1076300070B50D4D06467146284674466FF058FEEB
:10764000D6F805609FED097A094B07EE906A67EE60
:10765000877A2846FDEEE77A2146C3ED007ABDE839
:1076600070406FF057BE00BF317600080000C8427E
:10767000F061002038B5064D7446284671466FF01B
:1076800037FE28462146BDE838406FF043BE00BFB4
:1076900075760008F7B50C4D06460F46284671462C
:1076A00074466FF025FE07EE107AF8EE477A02A9CD
:1076B00061ED017A06F10C00FDF7F8F82846214645
:1076C0006FF028FE03B0F0BD9576000870B5064D4A
:1076D00074467146064628466FF00AFE2846214643
:1076E0006FF018FE304670BDCD76000870B5084EBC
:1076F00071460446304675466FF0FAFD2046FFF7A6
:10770000E5FF304629466FF005FE204670BD00BFFC
:10771000ED76000870B5084E714604463046754651
:107720006FF0E6FD2046FFF7E1FF304629466FF097
:10773000F1FD204670BD00BF1577000870B5084EFA
:1077400071460446304675466FF0D2FD2046FFF77D
:10775000BDFF304629466FF0DDFD204670BD00BFFD
:107760003D77000870B5084E7146044630467546B0
:107770006FF0BEFD2046FFF7A9FF304629466FF0A7
:10778000C9FD204670BD00BF6577000870B5084E82
:1077900071460446304675466FF0AAFD2046FFF755
:1077A00095FF304629466FF0B5FD204670BD00BFFD
:1077B0008D77000870B5084E714604463046754610
:1077C0006FF096FD2046FFF7E1FF304629466FF047
:1077D000A1FD204670BD00BFB577000870B5074E0B
:1077E00004467146304675466FF082FD044B2360B7
:1077F000304629466FF08EFD204670BDDD770008CB
:1078000088560A0870B5094E0446714630467546DA
:107810006FF06EFD2046FFF7E1FF054B2360304619
:1078200029466FF077FD204670BD00BF057800083F
:10783000F8B60A0870B5094E0446714630467546DA
:107840006FF056FD002330466370A370E370237120
:1078500029466FF05FFD204670BD00BF35780008F7
:1078600070B50A4E71460446304675466FF040FDCD
:10787000201DFFF7C7FF04F11400FFF7DBFF3046C0
:1078800029466FF047FD204670BD00BF61780008B3
:1078900070B5084E71460446304675466FF028FDB7
:1078A00004F12400FCF756FD304629466FF032FD06
:1078B000204670BD9178000870B5074E04467146A9
:1078C000304675466FF014FD044B23603046294660
:1078D0006FF020FD204670BDB978000838560A08C0
:1078E00070B50C4E04467146304675466FF000FD8B
:1078F0002046FFF7E1FF084B2360002384F8203087
:107900002046FFF78FFA304629466FF003FD2046E8
:1079100070BD00BFE178000848560A0870B5094EEE
:1079200004467146304675466FF0E2FC2046FFF78C
:10793000D7FF054B2360304629466FF0EBFC20460D
:1079400070BD00BF1D79000858560A0870B5094E71
:1079500071460446304675466FF0CAFC2046FFF774
:10796000B5FE2046FCF7F6FC304629466FF0D2FC07
:10797000204670BD4D79000870B50C4E2DED028B80
:107980000446F0EE408AB0EE608A75467146304695
:107990006FF0AEFCC4ED008A84ED018A30462946C2
:1079A0006FF0B8FCBDEC028B204670BD7979000801
:1079B00070B50C4E04467146304675466FF098FC23
:1079C0004FF07E532362236123600023A360636032
:1079D0006361E360E361A36130462946BDE870401E
:1079E0006FF098BCB179000870B50C4E7146044632
:1079F000304675466FF07CFC2046FCF7ABFC04F18A
:107A00000C00FCF7A7FC04F11800FCF7A3FC3046BF
:107A100029466FF07FFC204670BD00BFE979000861
:107A20002DE9F0410A4E04460F4630467146754630
:107A300090466FF05DFC002330462371A760C4F8C8
:107A40000C8029466FF066FC2046BDE8F08100BF3F
:107A5000217A000870B5084E0446714630467546D6
:107A60006FF046FC002330462370637029466FF0A8
:107A700051FC204670BD00BF557A000870B5084E15
:107A800004467146304675466FF032FC002330469E
:107A90002370637029466FF03DFC204670BD00BF27
:107AA0007D7A0008F8B5084E04460F463046714608
:107AB00075466FF01DFC002330462760A3802946E1
:107AC0006FF028FC2046F8BDA57A000870B5074D78
:107AD00006467146284674466FF00AFC36782846FA
:107AE00021466FF017FC304670BD00BFCD7A00080C
:107AF00070B5074D06467146284674466FF0F8FB90
:107B00003678284621466FF005FC304670BD00BF30
:107B1000F17A000870B5074D06467146284674464E
:107B20006FF0E6FB3678284621466FF0F3FB3046CF
:107B300070BD00BF157B000870B5074D0646714645
:107B4000284674466FF0D4FB3678284621466FF0FD
:107B5000E1FB304670BD00BF397B000870B5074DB2
:107B600006467146284674466FF0C2FB36782846B2
:107B700021466FF0CFFB304670BD00BF5D7B000833
:107B800070B5074D06467146284674466FF0B0FB47
:107B90003678284621466FF0BDFB304670BD00BFE9
:107BA000817B000870B5074D06467146284674462D
:107BB0006FF09EFB3678284621466FF0ABFB3046CF
:107BC00070BD00BFA57B000870B5074D0646714625
:107BD000284674466FF08CFB3678284621466FF0B5
:107BE00099FB304670BD00BFC97B000870B5074DDA
:107BF00006467146284674466FF07AFB367828466A
:107C000021466FF087FB304670BD00BFED7B00085A
:107C100070B5074D06467146284674466FF068FBFE
:107C20003678284621466FF075FB304670BD00BFA0
:107C3000117C000870B5074D06467146284674460B
:107C40006FF056FB3678284621466FF063FB3046CE
:107C500070BD00BF357C000870B5074D0646714603
:107C6000284674466FF044FB3678284621466FF06C
:107C700051FB304670BD00BF597C000870B5074D00
:107C800006467146284674466FF032FB3678284621
:107C900021466FF03FFB304670BD00BF7D7C000881
:107CA00070B5074D06467146284674466FF020FBB6
:107CB0003678284621466FF02DFB304670BD00BF58
:107CC000A17C000870B5074D0646714628467446EB
:107CD0006FF00EFB3678284621466FF01BFB3046CE
:107CE00070BD00BFC57C00082DE9F0410E468046FE
:107CF00071460E48144675466FF0FAFA0C4B1C801C
:107D00000C4B00241E60A7B21C2000FB0760FFF78D
:107D1000DDFE01340028F6D1074B04481F702946C8
:107D20006FF0F8FA4046BDE8F08100BFE97C00083A
:107D3000447D0020407D00203C7D002070B5084E31
:107D400071460446304675466FF0D2FA04F12400BD
:107D5000FEF70AFF304629466FF0DCFA204670BD78
:107D60003D7D000870B5074E0446714630467546A5
:107D70006FF0BEFA044B2360304629466FF0CAFA12
:107D8000204670BD657D000800AD0A0870B5074E3D
:107D900004467146304675466FF0AAFA044B2360DC
:107DA000304629466FF0B6FA204670BD8D7D00083A
:107DB00028900A0870B5094E04467146304675464B
:107DC0006FF096FA064B23602046FFF7DFFF304640
:107DD00029466FF09FFA204670BD00BFB57D0008B0
:107DE00098900A0870B5074E0446714630467546AD
:107DF0006FF07EFA044B2360304629466FF08AFA12
:107E0000204670BDE57D0008008B0A0870B5094E5C
:107E100004467146304675466FF06AFA064B236099
:107E20002046FFF79FFF304629466FF073FA204641
:107E300070BD00BF0D7E0008A0AD0A0870B5094EE8
:107E400004467146304675466FF052FA064B236081
:107E50002046FFF7AFFF304629466FF05BFA204619
:107E600070BD00BF3D7E000808910A0870B5094E3C
:107E700071460446304675466FF03AFA2046FFF7E1
:107E800071FF20466FF03CFB304629466FF042FA06
:107E9000204670BD6D7E000870B5094E71460446DF
:107EA000304675466FF024FA2046FFF76FFF2046F4
:107EB0006FF026FB304629466FF02CFA204670BD45
:107EC000997E000870B5094E7146044630467546E5
:107ED0006FF00EFA2046FFF76DFF20466FF010FBA3
:107EE000304629466FF016FA204670BDC57E000860
:107EF00070B5094E71460446304675466FF0F8F984
:107F00002046FFF76FFF20466FF0FAFA3046294609
:107F10006FF000FA204670BDF17E000870B5094E82
:107F200071460446304675466FF0E2F92046FFF789
:107F30006DFF20466FF0E4FA304629466FF0EAF90B
:107F4000204670BD1D7F000870B5094E714604467D
:107F5000304675466FF0CCF92046FFF76FFF20469C
:107F60006FF0CEFA304629466FF0D4F9204670BD46
:107F7000497F000870B50B4D7146284674466FF076
:107F8000B7F9094B09481E78FCF744F931460278E5
:107F9000074819F01DFD28462146BDE870406FF0E6
:107FA000B9B900BF757F000898650020BA14002099
:107FB0000013002038B5094D7146284674466FF00D
:107FC00097F907482AF004FB064818F0B1F828464C
:107FD0002146BDE838406FF09DB900BFB57F00086D
:107FE00074670020F05F002070B5714606460B48AC
:107FF00075466FF07DF900240948225C1AB12044CF
:10800000314649F021FECC34B4F5197FF4D129462C
:108010000248BDE870406FF07DB900BFE97F0008FD
:108020004C5C002038B5074D7146284674466FF009
:108030005FF91B20FFF7D8FF28462146BDE83840EE
:108040006FF068B92580000838B5074D714628469D
:1080500074466FF04DF90020FFF7C6FF2846214611
:10806000BDE838406FF056B94980000838B50B4874
:10807000714675466FF03CF900240948235C1BB13A
:108080002044084949F086FFCC34B4F5197FF4D177
:1080900029460248BDE838406FF03CB96D800008C1
:1080A0004C5C00204D81000838B571461D4874466F
:1080B0006FF01EF91C4B986B0368DB6898471B4BED
:1080C0001A881B4B1988914206D01A80194B1860E8
:1080D000194B00221A7011E0184B1B7873B1154B25
:1080E00017491A68821A8A421D46134B01D9012189
:1080F0001970197811B1134B9A4205D821460948D5
:10810000BDE838406FF006B928600F48FCF7C8F9A1
:108110000028F3D00C48002128F088FD0A4828F0F8
:10812000BFFFEBE7A9800008807B0020585B0020A0
:10813000EC67002038680020F05E0020280D002049
:1081400080841E0040420F009860002010B57146E8
:10815000044612486FF0CCF8114B20461C60FCF727
:108160008BF9236820461B6C012198470D4B986BB7
:10817000036800215B6905229847FEF735FD0A4830
:10818000FCF78EF930B10848002128F04FFD064871
:1081900028F086FF054827F041FCFBE74D810008E9
:1081A0008C610020807B00209860002064600020AB
:1081B00038B5074D7146284674466FF099F8054862
:1081C00027F02CFC284621466FF0A4F8002038BD8B
:1081D000B18100084C68002038B50A4D7146284628
:1081E00074466FF085F8084B0849186803681B6AE5
:1081F0009847074827F012FC284621466FF08AF876
:10820000002038BDD98100088C610020D0670A08A1
:108210006413002038B5074D7146284674466FF048
:1082200067F8054827F0FAFB284621466FF072F8F8
:10823000002038BD15820008E862002070B5274C88
:1082400027482DED028B714675466FF051F8637823
:10825000A678244843EA0626E37846EA0346FCF774
:1082600043F8B0F9003046F317069E420DDDA278C0
:10827000637843EA0223E27843EA024343F31703B5
:1082800007EE903AB8EEE78A08E01648FCF72CF8BB
:10829000B0F9000008EE100AB8EEC88A124812F0D1
:1082A000D7F8C30710D51048DFED108AFCF75EFD44
:1082B00020EE280AB4EEC08AF1EE10FA04D40A487F
:1082C000FCF754FD20EE288A054829466FF022F875
:1082D000B0EE480ABDEC028B70BD00BF996500206E
:1082E0003D820008BC140020006200200000C8424B
:1082F00070B53248714676466EF0FAFF304B1B7807
:108300001A0754D42F48FBF7DFFF90F90030012BF8
:1083100005D02C48FBF7D8FF03785B0644D52A48E4
:1083200043F054FD20B9294843F050FD00283ED0C9
:108330002748FBF7D9FFB0F9003040F21454A342AC
:1083400035DC2448FBF7D0FFB0F9003040F2A365DC
:10835000AB422CDD2048FBF7C7FFB0F90030A34249
:1083600025DC1E48FBF7C0FFB0F90030AB421EDD34
:108370001548FBF7B9FFB0F90030A34217DC1348EA
:10838000FBF7B2FFB0F90030AB4210DD1448FBF749
:10839000ABFFB0F90030A34209DC1248FBF7A4FFA1
:1083A000B0F90030AB4202DD0120FDF7D1FF3146CC
:1083B0000248BDE870406EF0ADBF00BFF18200081A
:1083C000DC5E0020111500206215002066150020DB
:1083D00022150020261500204215002046150020F9
:1083E000821500208615002070B5084D714606469E
:1083F000284674466EF07CFF06F1370043F0E6FC39
:1084000028462146BDE870406EF084BFE98300082D
:10841000F8B506460F460C48714675466EF068FF83
:1084200000240A48225C22B1204431463A4649F0F1
:108430008BFCCC34B4F5197FF3D129460248BDE852
:10844000F8406EF067BF00BF118400084C5C00204C
:108450002DE9F04171462DED028B05462648764602
:108460006EF046FF254822F067FB27F01DF82448F0
:10847000B0EE408AFCF70EF9074630B11DB1214934
:108480000320FFF7C5FF00242DE0FCF745F9044663
:1084900030B9002DF7D003201B49FFF7B9FF22E0C8
:1084A000B5EE408AF1EE10FA06D0DFED187AB4EEA0
:1084B000E78AF1EE10FA04DD002DE4D00320144920
:1084C000DFE71448FCF770F980461348FBF70CFF10
:1084D000B0F90030984506DD002DD4D003200F49B7
:1084E000FFF796FF3C46044831466EF013FFBDECA3
:1084F000028B2046BDE8F0815184000878130020EB
:10850000B45E0020DE670A08F1670A0800004842EE
:1085100005680A0864640020D21400201A680A085A
:1085200070B52DED028BB94E714684B00446B84843
:1085300075466EF0DDFE3378D90600F13281B5481C
:10854000FBF7C2FE90F9003033B90120FDF7DEFEE3
:108550000120FDF7FDFE24E1FFF7CAFE33781A077C
:1085600005D4002C00F01D810320AB4914E0A9487C
:10857000FBF7AAFE90F90030012B05D0A548FBF7C8
:10858000A3FE03789B071ED5A44B1B793BB9002C97
:1085900000F00781A2490320FFF73AFF01E1A1485B
:1085A00022F002FBA04B9FEDA17AD3ED007AF8EE0A
:1085B000E77A30EE670AF0EEC07AF4EEC77AF1EEB1
:1085C00010FA00F3F6809348FBF77EFE90F9003036
:1085D000012B05D08F48FBF777FE03785E0733D574
:1085E00093480021FBF7B8FF002800F0E78090488F
:1085F000FBF7C6FF002800F0E6808D48FCF702F884
:1086000007C801AB83E80700184626F04DFFDFEDF1
:10861000897AB4EEE70AF1EE10FA00F3DF808448BD
:10862000FCF71EF826F040FFDFED837AB4EEE70A90
:10863000F1EE10FA00F3D780DFED807AB4EEE70AAE
:10864000F1EE10FA00F1CF807248FBF73DFE90F991
:108650000030012B05D06F48FBF736FE0378180772
:108660001AD5774B1878FBF7B3FE002840F0C0808E
:108670007448FBF729FE90F90030032B00F0B88016
:10868000714811F001FF002800F08B806E4811F056
:10869000DFFE810700F1B3805E48FBF715FE90F91D
:1086A0000030012B05D05B48FBF70EFE0378DA069D
:1086B0000BD5664823F072FC002800F0E780634881
:1086C00023F028FF002800F0E6805248FBF7FCFD6D
:1086D00090F90030012B05D04E48FBF7F5FD0378EB
:1086E0009B065BD55A48FBF7EFFD90F90030002B55
:1086F00040F0D6805748FBF7E7FD90F90030002B9B
:1087000040F0CE805448FBF7DFFD90F90030BBB15C
:108710005248FBF7E9FDB0F900605148FBF7E4FD72
:10872000B0F900300A339E4240F3CB804C48FBF74F
:10873000DBFDB0F9002040F28D339A4240F3C18056
:108740004848FBF7D1FDB0F90030B3F57A7FC0F2AD
:10875000BE804448FBF7C8FDB0F90030B3F5FA5FBE
:1087600000F3B5804048FCF737F890ED008A3F48A9
:10877000FCF752F8B4EEC08AF1EE10FA00F3AD80C7
:108780003B48FCF729F890ED008A3A48FCF744F89A
:10879000B4EEC08AF1EE10FA00F39F800120FDF7DD
:1087A000B5FD1B4829466EF0B5FD04B0BDEC028B4B
:1087B00070BD002CF5D003202F49EDE6002CF0D041
:1087C00003202E49E8E61A4818F0A2FA00287FF4A0
:1087D00014AF002CE5D003202949DDE6002CE0D0C1
:1087E00003202849D8E6002CDBD003202649D3E615
:1087F0002046FFF72DFE00287FF442AFD1E7204648
:10880000FFF726FE0028CCD046E700BFDC5E002044
:10881000218500081115002030680A083862002000
:108820004A680A08781300201C1300200000C84280
:10883000A86500200000FA4300A05A440080394394
:1088400098650020D014002000620020A859002064
:108850000F15002010150020F614002062150020CE
:10886000F814002028630020E4160020F8170020E8
:10887000E8160020FC17002063680A0879680A08D7
:1088800095680A08B4680A08D5680A08002C88D0D8
:108890000320154980E6002C83D0032013497BE692
:1088A0001348FBF711FD06781248FBF70DFD03781E
:1088B0009E427FF427AF002C3FF473AF03200E4994
:1088C0006AE6002C3FF46DAF03200C4964E6002CEF
:1088D0003FF467AF03200A495EE6002C3FF461AF26
:1088E0000320084958E600BFED680A0808690A082D
:1088F0000F1500201015002020690A0843690A0896
:108900005E690A0876690A08F8B5714604465A484D
:1089100076466EF0EDFC5948FBF7D6FC90F9003036
:108920000BB90124A2E05548FBF7CEFC90F90030CA
:10893000012B05D05148FBF7C7FC0378980712D5E7
:108940004F4822F031F94F4B9FED4F7AD3ED007A2B
:10895000F8EEE77A30EE670AF0EEC07AF4EEC77A06
:10896000F1EE10FA6DDC4548FBF7AEFC90F90030F3
:10897000012B05D04148FBF7A7FC037819070CD55C
:10898000424B1878FBF724FD00285FD14048FBF7E5
:108990009BFC90F90030032B58D03848FBF794FC2F
:1089A00090F90030012B05D03448FBF78DFC03789B
:1089B0009A0612D5374D05F14A00FBF785FC90F970
:1089C000003053B105F14C00B5F8AC70FBF78CFCEE
:1089D000B0F900303FB2BB423EDC2848FBF774FCE4
:1089E00090F90030012B05D02448FBF76DFC03788B
:1089F000DB0617D5284D29482B6983EAE377A7EBD7
:108A0000E377FBF771FCB0F900309F4229DC234883
:108A10006D69FBF769FCB0F90030002DB8BF6D42FD
:108A20009D421EDC1E4BD86B03685B68984701288B
:108A30007FF477AF1CB11B490320FFF7E9FC00244A
:108A400014E0002CFBD003201749F6E72046FFF77F
:108A5000FFFC0028F3D0A0E7002CF0D0032013493E
:108A6000EBE7002CEBD003201149E6E70248314642
:108A70006EF050FC2046F8BD098900081115002051
:108A8000781300201C1300200000C84298650020C5
:108A9000D0140020AC1400200C1800202863002003
:108AA000807B0020B1690A0866680A0892690A0892
:108AB000A4690A0838B5714605460E4874466EF03A
:108AC00017FC032D10D8DFE805F00205080B032082
:108AD000094907E00320094904E00320084901E0AF
:108AE00008490320FFF794FC21460248BDE83840BE
:108AF0006EF010BCB58A0008C4690A08D6690A0875
:108B0000E8690A08FA690A0870B5714605461A4804
:108B100076466EF0EDFBFFF7EBFB184B1B78C3F3CB
:108B2000C00434B9164B174ACC2000FB0530032192
:108B300007E0DC0908D1124B134ACC2000FB0530BA
:108B4000032149F001F911E0104BD86B03685B6811
:108B50009847012809D10A4B0D4ACC2000FB05306B
:108B6000032149F0F1F8002400E0012402483146D5
:108B70006EF0D0FB204670BD098B0008DC5E002043
:108B80004C5C00200B6A0A08296A0A08807B0020D6
:108B9000486A0A082DE9F041124E04460F46304655
:108BA000714675466EF0A4FB94ED007AD7ED007A1D
:108BB000B4EE677AF1EE10FA0CBF4FF000084FF0F8
:108BC000010820463946FBF771FE4146204643F036
:108BD00071FC2946044630466EF09CFB2046BDE8F9
:108BE000F08100BF958B00082DE9F041104E04463E
:108BF0000F463046714675466EF07AFB97F90030A5
:108C000094F90080B8EB030818BF4FF00108204624
:108C10003946FCF799FD4146204643F04BFC294676
:108C2000044630466EF076FB2046BDE8F08100BF7A
:108C3000E98B00082DE9F041104E04460F463046FE
:108C4000714675466EF054FBB7F90030B4F90080F8
:108C5000B8EB030818BF4FF0010820463946FCF76F
:108C60001BFF4146204643F025FC2946044630467A
:108C70006EF050FB2046BDE8F08100BF358C000847
:108C800038B5074D7146284674466EF031FB0548ED
:108C900041F00CFF28462146BDE838406EF03ABB53
:108CA000818C00085C61002010B50A48714674464A
:108CB0006EF01EFB0848FBF707FB90F9003013B17C
:108CC000064817F077FD21460248BDE810406EF0D7
:108CD00021BB00BFA98C0008D4140020A865002087
:108CE000F8B51E4E1E4F2DED028B714607F1420462
:108CF000304675466EF0FCFA2046FBF7F5FAB0F9FF
:108D000000305B4207EE903A2046B8EEE78AFBF768
:108D1000EBFAB0F90000134C00EE900AB0EE480AEE
:108D2000F8EEE00A204610F07DF807F14400FBF76A
:108D3000DBFAB0F9000000EE100A2046B8EEC00AD7
:108D400010F0ACF8204610F07FFD304629466EF05A
:108D5000E1FABDEC028B0120F8BD00BFE18C0008F8
:108D6000AC14002034630020F8B51E4E1E4F2DEDCC
:108D7000028B714607F14204304675466EF0B8FA30
:108D80002046FBF7B1FAB0F900305B4207EE903AAB
:108D90002046B8EEE78AFBF7A7FAB0F90000134CBB
:108DA00000EE900AB0EE480AF8EEE00A204610F015
:108DB00039F807F14400FBF797FAB0F9000000EE2C
:108DC000100A2046B8EEC00A10F068F8204610F0ED
:108DD0003BFD304629466EF09DFABDEC028B01202A
:108DE000F8BD00BF698D0008AC140020346300207A
:108DF00070B529482DED028B714676466EF078FAF3
:108E0000264B93F9003033F0020201D000253AE0FE
:108E1000234CB4F9AE30002BF8DD2248FBF740FBC1
:108E200005460028F2D0204B1B7803F0A003202B2E
:108E3000ECD104F14200FBF757FAB0F900305B4285
:108E400007EE903A04F14200B8EEE78AFBF74CFADD
:108E5000B0F9000000EE900AB0EE480AF8EEE00A21
:108E600012480FF0DFFF04F14400FBF73DFAB0F9C0
:108E7000000000EE100A0D48B8EEC00A10F00EF81F
:108E80000A4810F0E1FC044831466EF043FABDECAC
:108E9000028B284670BD00BFF18D00089865002048
:108EA000AC14002098600020DC5E002034630020B9
:108EB00038B571462DED028B0546264874466EF096
:108EC00017FAFBF729FC08B92DB93BE0224821F03D
:108ED0000FFF0028F8D0214B214800221A70FBF721
:108EE000B9FE204810F0F0F81D48FBF7CFFE1D48F2
:108EF00010F0C2F81C48FBF7F7F9B0F900301A4837
:108F00005B4207EE903AB8EEE78AFBF7EDF9B0F96D
:108F1000000000EE900AB0EE480AF8EEE00A1148B0
:108F20000FF080FF1148FBF7DFF9B0F9000000EE09
:108F3000100A0C48B8EEC00A0FF0B0FF0C4812F04F
:108F400009F90125034821466EF0E4F9BDEC028BD6
:108F5000284638BDB18E0008781300204A5B0020F7
:108F6000045F002034630020EE140020F014002081
:108F7000F867002070B571462DED028B06461E483D
:108F800075466EF0B5F9FBF7C7FB044600B956B35A
:108F90001A4812F0C9FA1A48FBF7A6F9B0F90030DE
:108FA00017485B4207EE903AB8EEE78AFBF79CF968
:108FB000B0F9000000EE900AB0EE480AF8EEE00AC0
:108FC00010480FF02FFF1048FBF78EF9B0F90000A2
:108FD00000EE100A0B48B8EEC00A0FF05FFF094818
:108FE00010F032FC0124044829466EF093F9BDECE0
:108FF000028B204670BD00BF758F0008045F002003
:10900000EE14002034630020F014002070B5714687
:109010002DED028B0646394875466EF069F9FBF76F
:109020007BFB044608B9002E60D03548354CFBF771
:109030005BF9B0F9003032485B4207EE903AB8EE87
:10904000E78AFBF751F9B0F9000000EE900AB0EEA4
:10905000480AF8EEE00A2C480FF0E4FE2B48FBF734
:1090600043F9B0F9000000EE100A2748B8EEC00A34
:109070000FF014FF244810F0E7FB0023244863801E
:10908000A380FBF731F9B0F90000DFED227A224B23
:1090900006EE900AF8EEE66AB2EE0E7AE6EE877A0F
:1090A0001B789FED1E7A67EE877ADA09C4ED027AA3
:1090B000237809D0042262F3020362F3C50318483F
:1090C000237012F031FA04E062F3020362F3C50385
:1090D00023706378134843F001036370FBF794FE39
:1090E0000023A385E38584F8313001240348294611
:1090F0006EF010F9BDEC028B204670BD0D9000089B
:10910000EE140020B412002034630020F01400207C
:10911000E21400200000BE42DC5E00200AD7233C9F
:10912000045F0020D812002010B52DED028B1F48DF
:1091300084B0714674466EF0DBF8FBF7EDFA1C4B19
:10914000187058B101A8FBF705F91A4801A912F0E7
:1091500059FA184801A9012212F094F91548FBF7B1
:10916000B1FD1448B0EE408AFBF7C8FD1248F0EE9E
:10917000400AB0EE480A0FF055FE0E48FBF7DAFD44
:109180000D480FF08BFE0C4810F05EFBFBF7C0FCA7
:109190000A4B18600A4B0548002221461A706EF0EF
:1091A000B9F8012004B0BDEC028B10BD2991000874
:1091B000625B0020045F0020346300206013002005
:1091C000806500202DE9F04171462DED068B80462B
:1091D0004B484C4D4C4E4D4C7746F0EE408AB0EE2D
:1091E000609A6EF085F8FBF793FC494A1168411AC2
:1091F000C829034618D9B6F90010A07807EE101A4E
:10920000617841EA0021E07841EA004141F3170129
:1092100007EE901AB8EEC77AF8EEE77A77EE677A3B
:1092200077EEA87AC5ED007A07EE908AB8F1000FC4
:109230001360B8EEE78A04DA364B1B7B13F0040F99
:1092400004E00AD0334B1B7B13F0080F05D1D5ED9A
:10925000007AE8EE097AC5ED007AB6F900102E48DA
:10926000D5ED009A09EE101AFCF7CAFCB6F90030E9
:109270002948B8EEC99A0AEE103A39EE409AFCF73E
:10928000D7FCB8EECAAAF0EE490A30EE0A1AB0EEE0
:10929000690A23F0D1FDA2786378B6F900601F480F
:1092A00085ED000A43EA0223E27843EA024343F3EE
:1092B000170307EE903AB8EEE77A07EE906AF8EEF9
:1092C000E77A77EE677A77EEE88A78EE808AFBF7BE
:1092D00083FA90ED000ADFED120A9FED121A28EED4
:1092E000800A23F0A9FD0648F0EE408A39466EF068
:1092F00011F838EE880ABDEC068BBDE8F08100BF9E
:10930000C59100085C5B0020D861002099650020B1
:10931000F86100209860002034630020C014002011
:10932000000016C300001643F8B5194D2DED028B51
:109330000646B0EE408A28460F46714674466DF0E8
:10934000D7FFB0EE480ADFED130AB7EE001A23F09C
:1093500073FD28462146B0EE408A6DF0DBFF06EE35
:10936000907AB7EE007A37EE487AF8EEE67A06EEB3
:10937000906A67EE277AB8EEE67AE8EE077ABDECF7
:10938000028BFDEEE77A17EE900A00B2F8BD00BF3F
:10939000299300080000000030B52DED048B044631
:1093A00083B04848714675466DF0A2FF002C5AD034
:1093B0004548FAF799FFB0F90030B3F5FA7F52D07B
:1093C00000214FF47A72204623F0BCFC04463E484C
:1093D000FAF78AFF4FF496714FF42F72B0F900003C
:1093E00023F0B0FC02A921F8020D3748FBF7AAFDD3
:1093F000B4F5FA7F40DA3548FAF776FFB0F90000A5
:1094000008EE100A3148FAF76FFFB0F900302E4825
:10941000E41A06EE904AB8EEE69AFAF765FFB0F95C
:1094200000402A48FAF760FFB0F900302748E31AF5
:1094300008EE903AFAF758FFB0F90030C3F5FA7326
:10944000F8EEE88A07EE103A68EE898AF8EEC77AF5
:10945000B8EEC88AC8EEA78A38EE888ABDEEC88AF8
:1094600018EE104AA4B2174829466DF053FF20B2F7
:1094700003B0BDEC048B30BD13481FD0FAF734FFA6
:10948000B0F9000008EE100A0F48FAF72DFFA4F516
:10949000FA74B0F90030DFED0E7A07EE104AC3F52A
:1094A0007A73B8EEC77A06EE903A27EE277AB8EECE
:1094B000C88AF8EEE67AA7EE278ACFE7FAF714FF14
:1094C0000488D0E799930008FC140020F2140020CF
:1094D0006F12033B2DE9F04B80460E463048714633
:1094E0001D46744617466DF003FF40462D4941F274
:1094F000941223F027FC41F294122A498046304608
:1095000023F020FC06462848FAF7EEFEB0F90020CA
:1095100041F294139A4203D1A7F800802E8039E0DB
:109520002148DFF88CB0DFF88C90FAF7DDFEBBF94C
:109530000030B0F900209A4214D01B48FAF7D4FE4C
:1095400003881948ABF80030FAF7CEFEB0F90000F6
:109550009FED167A07EE900AF8EEE77A67EE877AC3
:10956000C9ED007A06EE908AD9ED007AB8EEE67A77
:1095700006EE906A27EE277ABDEEC77A17EE103A0C
:10958000B8EEE67A3B8067EE277AFDEEE77A17EED3
:10959000903A2B8021460248BDE8F04B6DF0BABEF0
:1095A000D59400086CEEFFFF28630020530469394E
:1095B000485B00202C0D002070B5714604461C4805
:1095C00076466DF095FE1B4B1D78C5F340053DBBFF
:1095D000204629464FF47A7223F0B4FBB0F5C87FD9
:1095E000044607DA1448FAF77FFEB0F90030A4F514
:1095F000C87009E0B0F5167F0DDD0F48FAF774FE6C
:10960000B0F90030A4F5167058434FF4C87390FBBE
:10961000F3F080B200E02846084B0446188000E0D2
:109620000024034831466DF075FE20B270BD00BFC6
:10963000B995000880610020EE140020DA62002055
:1096400070B52DED048B044682B03A4871467546DC
:109650006DF04EFE002C63DD00214FF47A7220463F
:1096600023F070FB04463448FAF73EFE4FF42F72A5
:109670004FF49671B0F9000023F064FB02A921F8C1
:10968000020D2D48FBF75EFC2C48FAF72DFE0688EC
:10969000FCF7B2F936B2864204DD2848FAF724FE18
:1096A00004883EE0B4F5167F36DA2448FAF71CFE4B
:1096B000B0F9000008EE100A2048FAF715FEB0F9DC
:1096C0000030E41A07EE104AB8EEC79AFCF794F996
:1096D00004461A48FAF708FEB0F900301748E31AB2
:1096E00008EE903AFAF700FEB0F90030C3F51673B1
:1096F000F8EEE88A07EE103A68EE898AF8EEC77A43
:10970000B8EEC88AC8EEA78A38EE888ABDEEC88A45
:1097100018EE104AA4B204E0FCF76EF9044600E02B
:109720000024044829466DF0F5FD20B202B0BDECDE
:10973000048B70BD41960008FC140020F214002038
:10974000F8B571462DED028B04462848B0EE408AEC
:1097500075466DF0CDFD2648FAF7C6FDB0F900203C
:10976000DFED246A9FED247A042392FBF3F39BB28E
:109770001AB2002A214AB5EEC08AD2ED027A2288B6
:10978000D8BF0123F1EE10FA67EEC87AACBF38EE0D
:10979000268A36EEC88A9BB287EE087AD11A1A4416
:1097A00009B212B247EE277AFDEEE77A17EE900A79
:1097B00000B223F0C7FA064620801148FAF794FD5C
:1097C00007880F48FAF790FD7F42BFB239B2B0F96F
:1097D0000020304623F0B6FABDEC028B20802946EB
:1097E0000248BDE8F8406DF095BD00BF4197000804
:1097F000E2140020000070420000FA43B41200207E
:10980000E41400202DE9F0412148224D2DED028B7A
:10981000714674466DF06CFD1F48FAF7DDFFD0ED20
:10982000007AF5EEC07AF1EE10FA02D800232B7020
:1098300025E01A4E1A4837683B68D3F80880FAF7D3
:1098400043FD01783846C047306803685B69984734
:109850001148B0EE408AFAF7BFFFDFED127A28EE2A
:10986000278AD0ED007A88EE278A0021FF22BDEEFC
:10987000C88A18EE100A00B223F064FA2870BDEC12
:10988000028B21460248BDE8F0416DF043BD00BFA8
:109890000598000870670020DC1400204C5B002055
:1098A000DA14002000007F4338B5074D7146284682
:1098B00074466DF01DFD054844F0F8FA284621462F
:1098C000BDE838406DF026BDA9980008201300209F
:1098D00038B5054671460D4874466DF009FDD5F85A
:1098E000065007EE905AF5EEC07AF1EE10FA06DD5A
:1098F0009FED070A074827EE800A11F08FFD2146E9
:109900000248BDE838406DF005BD00BFD1980008A1
:109910000000C842045F002038B51C4871467546F7
:109920006DF0E6FCFDF7D2FA4FF47A70FCF784F89C
:10993000174C1849206803681B6A9847002116488D
:1099400044F034F840F6B830FCF776F82068036845
:109950009B689847002812DC2068104903681B6A3E
:10996000984700210C4844F057F840F6B830FCF70F
:1099700063F8206803689B6898470028D8DD03488F
:1099800029466DF0C7FC002038BD00BF19990008BA
:109990008C610020626A0A08181300206C6A0A08A9
:1099A000F8B5274D27482DED028B714676466DF0B0
:1099B0009FFC2B78002B3BD0234C244F9FED248A17
:1099C000013B2B70637843F001036370B7F96E308D
:1099D00000EE103AB8EEC00A20EE080A23F0E2F9D1
:1099E000B7F98E70F0EE408A00EE107AB8EEC00A39
:1099F00020EE080A23F0D6F916480121B0EE408A7D
:109A0000FBF718F829781348D1F10101B0EE680A84
:109A1000F0EE480A38BF002113F0F4FA2D783DB972
:109A20000C482946FBF706F8637865F3000363707A
:109A3000BDEC028B31460348BDE8F8406DF06ABCCE
:109A4000F85E0020A1990008387D0020AC140020A9
:109A50006F1283390C18002038B50C4871467446D3
:109A60006DF046FC0A4821F043F940B10848094D21
:109A700021F078F9A860064821F056F9686021467F
:109A80000248BDE838406DF045BC00BF599A000857
:109A9000781300209965002070B50B4D06462DED1A
:109AA000028B7146284674466DF022FCF0680FF078
:109AB00067FB2846B0EE408A21466DF02BFCB0EEE5
:109AC000480ABDEC028B70BD999A000838B5114860
:109AD000114C714675466DF00BFC104B1B7823F052
