:020000040800F2
:1040000024C000201D0F0708591607085916070875
:1040100059160708591607085916070859160708A8
:104020005916070859160708591607085916070898
:104030005916070859160708591607085916070888
:104040005916070859160708591607085916070878
:104050005916070859160708591607085916070868
:104060005916070859160708591607085916070858
:104070005916070859160708591607085916070848
:104080005916070859160708591607085916070838
:104090005916070859160708591607085916070828
:1040A0005916070859160708591607085916070818
:1040B0005916070859160708591607085916070808
:1040C00059160708591607085916070859160708F8
:1040D00059160708591607085916070859160708E8
:1040E00059160708591607085916070859160708D8
:1040F00059160708591607085916070859160708C8
:1041000059160708591607085916070859160708B7
:1041100059160708591607085916070859160708A7
:104120005916070859160708591607085916070897
:104130005916070859160708591607085916070887
:104140005916070859160708591607085916070877
:104150005916070859160708591607085916070867
:104160005916070859160708591607085916070857
:104170005916070859160708591607085916070847
:10418000591607085916070838B5064D74462846CB
:1041900071466DF01DFD28462146BDE838406DF0A2
:1041A00029BD00BF8941000870B5074D064671461C
:1041B000284674466DF00CFD96F88161284621462C
:1041C0006DF018FD304670BDA941000838B5064DA8
:1041D0007446714628466DF0FBFC284621466DF07A
:1041E00009FD002038BD00BFCD410008F8B5084DDD
:1041F000064674460F46284671466DF0E9FC86F87F
:10420000E17028462146BDE8F8406DF0F3BC00BFE0
:10421000ED41000870B5064D7446714606462846C5
:104220006DF0D6FC284621466DF0E4FC304670BDAA
:1042300015420008F8B5084D064674460F46284654
:1042400071466DF0C5FC86F8807128462146BDE8B0
:10425000F8406DF0CFBC00BF35420008F8B5044609
:1042600071460E4804F1320675466DF0B1FC3046D9
:10427000676CFFF7CFFF01783846FFF7B7FFA46BF5
:1042800034B13046FFF7C6FF01782046FFF7D2FF72
:1042900029460248BDE8F8406DF0ACBC5D4200081C
:1042A00070B5084D71460646284674466DF090FC80
:1042B0003046FFF7D3FF28462146BDE870406DF039
:1042C00099BC00BFA142000870B5064D7446714606
:1042D000064628466DF07CFC284621466DF08AFC97
:1042E000304670BDC9420008F8B5084D7446064610
:1042F0000F46284671466DF06BFC284621466DF04E
:1043000079FC0C2303FB07600430F8BDE942000888
:1043100070B50B4E04467146304675466DF058FC3C
:10432000236820469B6C984701462046FFF7DCFF38
:104330002946044630466DF05DFC204670BD00BF46
:104340001143000870B50C4D2DED028B71460646E9
:10435000284674466DF03CFC96ED058ADFED077A41
:1043600028EE278A284621466DF044FCB0EE480A24
:10437000BDEC028B70BD00BF454300080000C84281
:10438000F8B50C4D2DED028B06460F4628467146BA
:1043900074466DF01DFC382303FB076696ED0D8A0D
:1043A000284621466DF026FCB0EE480ABDEC028B93
:1043B000F8BD00BF8143000870B50D4D06462DEDD8
:1043C000028B7146284674466DF002FC96F89410F4
:1043D000304601F00301FFF7D3FF2846B0EE408AD4
:1043E00021466DF007FCB0EE480ABDEC028B70BDB3
:1043F000B943000870B5084D064671462846744614
:104400006DF0E6FB96F836602846C6F34016214666
:104410006DF0F0FB304670BDF543000870B5064DF9
:1044200074467146064628466DF0D2FB2846214662
:104430006DF0E0FB304670BD1D44000870B5074DBF
:1044400006467146284674466DF0C2FBB67A284689
:1044500021466DF0CFFB304670BD00BF3D440008E3
:1044600070B5084D71460646284674466DF0B0FB9F
:104470003046FFF729FF0678214628466DF0BAFB43
:10448000304670BD6144000870B5094D714628463C
:1044900074466DF09DFB074B986B03689B689847CB
:1044A0002146064628466DF0A5FB304670BD00BF8C
:1044B00089440008187C002038B50A4D714628460A
:1044C00074466DF085FB084A00231380074A136089
:1044D000FFF7DAFF064B186021462846BDE8384052
:1044E0006DF088BBB9440008325D0020E860002010
:1044F0001C67002070B50B4D714606462846744671
:104500006DF066FB06F10900FFF7DEFE90F9006032
:10451000003618BF0126284621466DF06BFB304659
:1045200070BD00BFF5440008F8B5094D0F460646BA
:104530007146284674466DF04BFB382303FB076633
:104540002846767F21466DF055FB3046F8BD00BF0A
:104550002945000870B50A4D06467146284674463E
:104560006DF036FB96F89410304601F00301FFF72A
:10457000DBFF2146064628466DF03CFB304670BD09
:104580005545000870B50A4D2DED028B7146064663
:10459000284674466DF01CFB96ED058A2846214698
:1045A0006DF028FBB0EE480ABDEC028B70BD00BF79
:1045B0008545000870B5064D744671460646284686
:1045C0006DF006FB284621466DF014FB304670BDA9
:1045D000B5450008F8B5094D744606460F4628460D
:1045E00071466DF0F5FA284621466DF003FB38233D
:1045F00007FB0333F0180830F8BD00BFD5450008AD
:1046000070B50A4D06467146284674466DF0E0FACC
:1046100096F89410304601F00301FFF7DBFF2146C6
:10462000064628466DF0E6FA304670BD01460008A1
:10463000F8B5084E0F4604467146304675466DF093
:10464000C7FA3B882380304629466DF0D3FA2046CE
:10465000F8BD00BF3146000870B5074D06467146EB
:10466000284674466DF0B4FA3678284621466DF037
:10467000C1FA304670BD00BF5946000838B5074D35
:104680007146284674466DF0A3FA054B00225A6025
:1046900028462146BDE838406DF0ACBA7D4600089A
:1046A000A467002038B50D4D7146284674466DF05C
:1046B0008FFA0B4B99785A78DB7842EA012242EA6A
:1046C0000342084B42F317021A60FFF7D7FF284650
:1046D0002146BDE838406DF08DBA00BFA546000800
:1046E00000670020A467002038B51648714674465C
:1046F0006DF06EFA1448FFF791FE0368002B0ADA9A
:10470000124B5A789D78DB7842EA052545EA034545
:1047100045F317050FE00C48FFF780FE0C4B1B68B4
:104720005A789D78DB7842EA052545EA0345036817
:1047300045F317051D44034821466DF05BFA2846F2
:1047400038BD00BFE9460008B4180020006700200B
:10475000D060002038B5064D7446284671466DF08D
:1047600037FA28462146BDE838406DF043BA00BF0D
:104770005547000838B504467146124875466DF035
:1047800027FA6378A178104A43EA0121E37841EAE5
:104790000341237841F31701DB0711600CD50B4B64
:1047A0001B6858789C78DB7840EA042040EA034391
:1047B00043F317031944116029460248BDE8384005
:1047C0006DF018BA75470008A4670020D06000207B
:1047D00070B5074D74467146064628466DF0F8F9E7
:1047E000284621466DF006FA06F11C0070BD00BF98
:1047F000D147000870B5084E0446714630467546EC
:104800006DF0E6F9002330466360236029466DF0C1
:10481000F1F9204670BD00BFF54700082DE9F041D1
:10482000084E7546044690460F46304671466DF078
:10483000CFF9304684E8800129466DF0DBF9204647
:10484000BDE8F0811D4800082DE9F3418846044683
:1048500071461B4877466DF0BBF96846FFF7CAFF03
:104860001848FFF731FD90F90030984505D900212F
:1048700020460A46FFF7D2FF1AE0134B5D6A4FEA63
:10488000C8081FFA88F82B6808F5766189B2DB68DA
:104890002846984700902B6808F664781FFA88F13C
:1048A000DB682846984701909DE8030084E80300F0
:1048B000034839466DF09EF9204602B0BDE8F0810C
:1048C0004948000859180020187C0020F8B5084D08
:1048D0000F4606467146284674466DF079F93B78D6
:1048E000337028462146BDE8F8406DF083B900BF1B
:1048F000CD480008F8B5104D7146284674466DF055
:1049000067F90E4B0E481B685A789E78DB7842EAAE
:10491000062646EA03460B4B1B6846F317069E1B0A
:10492000FFF748FE2146078828466DF063F96420AA
:1049300017FB0060F8BD00BFF5480008D0600020FC
:104940008E180020A467002038B5174D2DED028B7E
:104950007146284674466DF03BF9144BDFED147A2E
:1049600099785A78DB7842EA012242EA0342114BF5
:104970001B6898785978DB7841EA002141EA0343C3
:1049800042F3170243F31703D31A08EE103AB8EEB6
:10499000C88A284628EE278A21466DF02BF9B0EE0A
:1049A000480ABDEC028B38BD494900080067002069
:1049B0000AD7233CD060002038B5094D71462846FF
:1049C00074466DF005F90748074903680C225B69D6
:1049D000984728462146BDE838406DF00BB900BF26
:1049E000B949000864620020385D002070B50A4DA6
:1049F0002DED028B0646B0EE408A2846714674467D
:104A00006DF0E6F886ED078ABDEC028B284621465C
:104A1000BDE870406DF0EEB8ED49000838B50446C9
:104A20007146204875466DF0D3F8A278637843EA62
:104A30000223E27843EA024343F3170306EE903A77
:104A40002378DB07F8EEE67A10D4174B1B685A7808
:104A50009978DB7842EA012242EA034343F31703E1
:104A600006EE903AB8EEE67A77EEC77A0F4B0D482D
:104A700099785A78DB7842EA012242EA034343F309
:104A8000170306EE903AB8EEE67A2946B4EEE77AD6
:104A9000F1EE10FAD4BF002401246DF0ABF82046EB
:104AA00038BD00BF1D4A0008D0600020006700200C
:104AB00038B50446714628482DED028B75466DF0D9
:104AC00087F86378A178254A43EA0121E37841EA2F
:104AD0000341234B9C785878DB7840EA042040EA75
:104AE000034341F3170143F31703CB1A53601D4BE4
:104AF0001B78033BDBB2012B144621D91A48FFF780
:104B000059FDB0F90030002B22DD6368DFED177A24
:104B1000154883EAE372A2EBE37208EE102AB8EEBE
:104B2000C88A28EE278AFFF745FDB0F9000007EE96
:104B3000900AF8EEE77AB4EEE78AF1EE10FA07D4BD
:104B4000BDEC028B29460448BDE838406DF052B8F0
:104B500000236360F4E700BFB14A0008A4670020A7
:104B60000067002054100020F61800200AD7233CCC
:104B700010B571460E4874466DF02AF80D48FFF7DF
:104B800019FDB0F900300C48002B0C4BB4BFFF22CC
:104B900001221A730A4A03681360436853608368EA
:104BA000936021460248BDE810406DF023B800BF75
:104BB000714B0008561800200067002018160020CE
:104BC0008C5D002038B5084D7146284674466CF05F
:104BD000FFFF064B00229A605A6028462146BDE836
:104BE00038406DF007B800BFC54B0008181600200C
:104BF00070B5064D74467146064628466CF0E8FFCF
:104C0000284621466CF0F6FF304670BDF14B000897
:104C100070B50A4D2DED028B714606462846744646
:104C20006CF0D6FF96ED058A284621466CF0E2FF2F
:104C3000B0EE480ABDEC028B70BD00BF114C0008FD
:104C400070B50A4D2DED028B714606462846744616
:104C50006CF0BEFF96ED068A284621466CF0CAFF2E
:104C6000B0EE480ABDEC028B70BD00BF414C00089D
:104C700070B50A4D2DED028B7146064628467446E6
:104C80006CF0A6FF96ED078A284621466CF0B2FF2D
:104C9000B0EE480ABDEC028B70BD00BF714C00083D
:104CA00070B5084D71460646284674466CF090FF74
:104CB0003046FFF709FB0678214628466CF09AFF3C
:104CC000304670BDA14C000870B5084D71460646CF
:104CD000284674466CF07CFF701CFFF7F5FA0678E6
:104CE000214628466CF086FF304670BDC94C00084E
:104CF00070B5084D71460646284674466CF068FF4C
:104D0000B01CFFF7E1FA0678214628466CF072FFE6
:104D1000304670BDF14C000870B5084D714606462E
:104D2000284674466CF054FFF01CFFF7CDFA067865
:104D3000214628466CF05EFF304670BD194D0008D4
:104D4000F8B50F46074D064606EBC70671462846DE
:104D500074466CF03DFF368D284621466CF04AFFC4
:104D60003046F8BD414D000870B50A4D0646714603
:104D7000284674466CF02CFF96F84010304601F03F
:104D80000301FFF7DDFF2146064628466CF032FF9F
:104D9000304670BD694D0008F8B50F46074D064610
:104DA00006EBC7067146284674466CF011FF768DF7
:104DB000284621466CF01EFF3046F8BD994D00088C
:104DC00070B50A4D06467146284674466CF000FFE1
:104DD00096F84010304601F00301FFF7DDFF214651
:104DE000064628466CF006FF304670BDC14D0008EF
:104DF00038B5074D7146284674466CF0E9FE054803
:104E0000FFF7C2F928462146BDE838406CF0F2BEF3
:104E1000F14D0008C861002038B571462DED028BB8
:104E200004460C487546B0EE408A6CF0D1FE04F59D
:104E3000A470FFF749FA90F900300648022B08BF2A
:104E400084ED5F8ABDEC028B2946BDE838406CF0EA
:104E5000D1BE00BF194E000870B5074D0646714619
:104E6000284674466CF0B4FE044B1E60284621466A
:104E7000BDE870406CF0BEBE594E0008C47D0020F5
:104E800038B5064D7446284671466CF0A1FE28469A
:104E90002146BDE838406CF0ADBE00BF814E000831
:104EA00070B5084D06467146284674466CF090FE73
:104EB000054B1A6832441A6028462146BDE8704006
:104EC0006CF098BEA14E0008A467002070B5074D95
:104ED00074467146064628466CF07AFE28462146FE
:104EE0006CF088FE06F12D0070BD00BFCD4E0008AD
:104EF000F8B50E4D7146284674466CF069FE0C4BB1
:104F00000C485A789E78DB7842EA062646EA034641
:104F1000FFF750FB21460788284646F317066CF03A
:104F200069FE4FF69C7017FB0060F8BDF14E00085B
:104F3000006700208E180020F8B5084D71462846FD
:104F400074466CF045FE064B1E68FFF7D1FF214604
:104F5000074628466CF04EFEF01BF8BD394F00089E
:104F6000A467002038B50D48714674466CF030FED9
:104F70000B48FFF7A9F990F9003043B10948FFF752
:104F8000A3F990F90030042B01DD012500E0002594
:104F9000024821466CF02EFE284638BD654F0008B9
:104FA000581800205918002070B5074D7146284642
:104FB00074466CF00DFE054B1E78284621466CF0B9
:104FC00019FE304670BD00BFA94F00080400002044
:104FD0002DE9F04171462A48F0466CF0F9FD294868
:104FE000FFF7E8FA04882848FFF7E4FAB0F9003040
:104FF00024B2A34201DB00263AE02348FFF7DAFAA5
:10500000B0F90030002BF6D0FFF772FF04461E48BF
:10501000FFF7D0FA064620469AF068F80446B6F93B
:1050200000000D469AF062F80022184B9AF0C4F87E
:10503000174B1B6806465A789878DB7842EA0020BE
:1050400040EA034040F317000F469AF04FF802463B
:105050000B463046394699F0FDFE02460B46204687
:1050600029464FF001069AF019FB00B90646F6B240
:10507000034841466CF0BEFD3046BDE8F08100BFFC
:10508000D14F00085E1800205C1800200000594035
:10509000D06000202DE9F04171462A48F0466CF0BE
:1050A00097FD2948FFF786FA04882848FFF782FA17
:1050B000B0F9003024B2A34201DB00263AE02248D6
:1050C000FFF778FAB0F90030002BF6D0FFF710FFA9
:1050D00004461D48FFF76EFA064620469AF006F889
:1050E0000446B6F900000D469AF000F80022184B6D
:1050F0009AF062F8174B1B6806465A789878DB7866
:1051000042EA002040EA034040F317000F4699F0BE
:10511000EDFF02460B463046394699F09BFE0246AB
:105120000B46204629464FF001069AF0D5FA00B901
:105130000646F6B2034841466CF05CFD3046BDE8D9
:10514000F08100BF955000085E1800205C18002018
:1051500000005940D060002070B50A4D2DED028B43
:1051600071460646284674466CF032FD96ED048A78
:10517000284621466CF03EFDB0EE480ABDEC028B9D
:1051800070BD00BF5951000838B571462DED028B36
:1051900005460D4874466CF01BFD95ED060ADFEDE3
:1051A0000B7A0948B4EEE70AF1EE10FAD4BFB0EE7C
:1051B000678AB0EE408A21466CF01CFDB0EE480ACA
:1051C000BDEC028B38BD00BF895100080000000013
:1051D000F8B571462DED028B3B483C4C3C4E754674
:1051E0006CF0F6FC3B48FFF7ADF83B48B0EE408A68
:1051F000FFF714F9036823603378063BDBB2012B19
:1052000018D83648FFF7D6F9B0F900703448FFF7E0
:10521000D1F9B0F900303248FF1A324B1B68B3F9AC
:1052200002305F43FFF7C6F9B0F90020642302FBA8
:10523000037727603378052B15D92B48FFF7EEF855
:105240000368002B0FDD294B2268D3ED007AF8EEBE
:10525000E77A78EE277AFDEEE77A17EE903A9342F6
:1052600001DD1A4A13603378092B07D9204BB3F9B3
:105270000030002B02DD22681344236017482668A3
:10528000FFF798F90388642413FB04F39E4207DDBB
:105290001248FFF78FF9038813FB04F40B4B1C60D3
:1052A000144803689B699847DFED137A134B06484F
:1052B00090EE278A294683ED008ABDEC028BBDE87B
:1052C000F8406CF097BC00BFD1510008E85C0020AA
:1052D0005E100020AC670020B0180020F6630020AC
:1052E000F463002010160020C418002094670020EA
:1052F00038160020646200200000C842E4680020E4
:1053000070B5064D74467146064628466CF060FC42
:10531000284621466CF06EFC304670BD01530008F3
:10532000F8B50A4D06460F462846714674466CF09D
:105330004FFC0C2303FB07602C30FFF7E1FF2146F5
:10534000064628466CF056FC3046F8BD215300084E
:10535000F8B5084D744606460F46284671466CF06F
:1053600037FC284621466CF045FC0C2303FB076004
:105370001030F8BD51530008F8B5094D06460F46E8
:105380002846714674466CF023FC3046B763FEF73E
:1053900065FF28462146BDE8F8406CF02BBC00BFF5
:1053A0007953000810B50A48714674466CF010FC39
:1053B0000848FEF72FFF0378012B02D1064B074A5E
:1053C0001A6021460248BDE810406CF013BC00BFD3
:1053D000A55300084818002084100020AC5D002070
:1053E00070B5084D06467146284674466CF0F0FBD1
:1053F00096F83660284606F0010621466CF0FAFB66
:10540000304670BDE153000838B571460B4875460B
:105410006CF0DEFBFFF738F8094B1B68C01A094B2C
:105420001A680024904288BF1C60044888BF012489
:1054300029466CF0DFFB204638BD00BF0954000848
:105440003C1600203416002038B571460B487546CE
:105450006CF0BEFB0A4B0B491A680968074822EA40
:10546000E27291424FF0000438BF1C60294638BFF9
:1054700001246CF0BFFB204638BD00BF4954000832
:10548000341600209C67002038B5174C1748714629
:1054900075466CF09DFBB4F90030002B04DAB4F9CA
:1054A0000030002B12DC06E0FFF722FD104B1B68DA
:1054B000984206DAF3E7FFF71BFD0D4B1B68984295
:1054C00004DC0B4B00221A60012407E0B4F9000051
:1054D0000A2390FBF3F0FFF7E3FC0024034829467E
:1054E0006CF088FB204638BDAC6000208954000871
:1054F00034160020F8B5114D7146284674466CF0FC
:1055000067FB0F4B0F481E6833685F6AFFF752F85E
:10551000B0F900300C4983EAE372A2EBE37200EECB
:10552000102A0A4B304693F90C20B8EEC00AB8474F
:1055300028462146BDE8F8406CF05CBBF5540008F5
:1055400084100020561800208C5D002018160020C2
:1055500038B5074D7446714628466CF039FBFFF7A5
:10556000C9FF284621466CF045FB002038BD00BF2E
:1055700051550008F8B5094D0F46064671462846B4
:1055800074466CF025FB382303FB07662846B66B90
:1055900021466CF02FFB3046F8BD00BF7555000862
:1055A00070B50A4D06467146284674466CF010FBED
:1055B00096F89410304601F00301FFF7DBFF214617
:1055C000064628466CF016FB304670BDA155000813
:1055D000F8B50F46074D064606EBC7067146284646
:1055E00074466CF0F5FA3669284621466CF002FBE9
:1055F0003046F8BDD155000870B50A4D06467146D3
:10560000284674466CF0E4FA96F89410304601F09F
:105610000301FFF7DDFF2146064628466CF0EAFA53
:10562000304670BDF9550008F8B5084D7446064679
:105630000F46284671466CF0CBFA284621466CF09E
:10564000D9FA382303FB07602630F8BD2956000835
:1056500070B50A4D06467146284674466CF0B8FA95
:1056600096F89410304601F00301FFF7DDFF214664
:10567000064628466CF0BEFA304670BD515600080A
:1056800070B50C4E2DED028B0446F0EE408AB0EE64
:10569000608A7546714630466CF09AFAC4ED008A0D
:1056A00084ED018A304629466CF0A4FABDEC028BE9
:1056B000204670BD8156000870B5074D744671468E
:1056C000064628466CF084FA284621466CF092FA89
:1056D00006F19C0070BD00BFB956000870B5084DBA
:1056E00006467146284674466CF072FA96F8946045
:1056F0002846C6F3810621466CF07CFA304670BD20
:10570000DD56000870B57146214875466CF060FAA8
:10571000204B21481C6B2368DE68FEF7D5FD01781D
:1057200001392046C9B2B0476FF46172821892B253
:1057300040F212539A421BD8A0F2CF439BB2812B66
:1057400018D96FF4AA63C3189BB2812B14D9A0F2A5
:10575000D3539BB2812B11D9A0F255639BB2802BFE
:105760000ED940F2D564A0428CBF0524002408E085
:10577000FF2406E0012404E0022402E0032400E008
:105780000424034829466CF035FA204670BD00BF5A
:1057900005570008187C00208418002070B5124DB1
:1057A0007146284674466CF013FA104B5A789E786E
:1057B000DB7842EA062646EA03460D4B1B689978D9
:1057C0005A78DB7842EA012242EA034343F31703A3
:1057D00046F31706F61A2846002EB8BF7642214631
:1057E0006CF008FA304670BD9D5700080067002035
:1057F000D060002038B571460446144875466CF0F8
:10580000E7F904F10900FEF75FFD90F900300BB9EC
:10581000002415E004F10800FEF756FD90F9003071
:10582000002BF5D02046FFF7E3F9D0ED007AF0EE3B
:10583000E77AF5EEC07AF1EE10FAE9DD94F820404F
:10584000024829466CF0D6F9204638BDF5570008C5
:1058500038B51048714675466CF0BAF90E48FEF737
:1058600033FD90F9003023B10C4B1B780BB10124B0
:1058700009E00B4B1B780A2B04D10A4B1C78C4F3AC
:10588000800404B90024034829466CF0B3F920468B
:1058900038BD00BF51580008D8180020C01A002099
:1058A0005E1000206C10002070B5064D74467146E5
:1058B000064628466CF08CF9284621466CF09AF989
:1058C000304670BDA958000838B51C482DED028B34
:1058D000714675466CF07CF9194B1B780A2B01D088
:1058E000002422E0174C2378DB07F9D41648FEF792
:1058F000EBFC90F90030002BF2D0144894ED038AB1
:10590000FFF776F9D0ED007AB4EEE78AF1EE10FAFF
:10591000E6DA0F4AB4F91030526903F57A739A4205
:10592000DEDC0948FEF7D0FC0478044829466CF018
:1059300061F9BDEC028B60B238BD00BFC9580008E8
:105940005E1000206C100020E5180020E8180020F0
:10595000C41A002038B50B48714674466CF038F90B
:105960000948FEF7B1FC90F900300BB1064800E0A1
:105970000648FEF7A9FC0578024821466CF03AF982
:10598000284638BD55590008F1180020F163002061
:1059900070B50A48714674466CF01AF9084B1B78CA
:1059A00033B1084D2B681E68FEF7CEFF2846B0477E
:1059B00021460248BDE870406CF01CB991590008BE
:1059C0003B16002064620020F8B50A4D06460F46DB
:1059D0002846714674466CF0FBF896F8363067F34B
:1059E000451386F8363028462146BDE8F8406CF06D
:1059F00001B900BFC959000870B5094D7146284664
:105A000074466CF0E5F8074B986B0368DB689847C1
:105A10002146064628466CF0EDF8304670BD00BFC2
:105A2000F9590008187C0020F8B5074D0646744661
:105A30000F46284671466CF0CBF8B78028462146C1
:105A4000BDE8F8406CF0D6B8295A0008F8B5084D02
:105A50000F4606467146284674466CF0B9F83B88F6
:105A6000338028462146BDE8F8406CF0C3B800BF3B
:105A70004D5A0008F8B5084D0F46064671462846AF
:105A800074466CF0A5F83B68336028462146BDE8B3
:105A9000F8406CF0AFB800BF755A0008F8B5084E72
:105AA0000F4604467146304675466CF091F83B78D7
:105AB0002370304629466CF09DF82046F8BD00BFA3
:105AC0009D5A0008F8B5074D064674460F4628460D
:105AD00071466CF07DF8F76328462146BDE8F84032
:105AE0006CF088B8C55A000870B5094D7146064675
:105AF000284674466CF06CF8064B986B0268B1B29D
:105B00005268904728462146BDE870406CF072B854
:105B1000E95A0008187C0020F8B50A4D06460F46E1
:105B20002846714674466CF053F896F8363067F3A1
:105B3000820386F8363028462146BDE8F8406CF0EE
:105B400059B800BF195B0008F8B5084D0646744601
:105B50000F46284671466CF03BF886F828702846B8
:105B60002146BDE8F8406CF045B800BF495B00082D
:105B7000F8B50A4D06460F462846714674466CF045
:105B800027F896F8363067F3041386F8363028463F
:105B90002146BDE8F8406CF02DB800BF715B0008ED
:105BA00070B50E4E2DED048B0446B0EE409AF0EE2B
:105BB000608AB0EE418A7546714630466CF008F84E
:105BC00084ED009AC4ED018A84ED028A30462946AC
:105BD0006CF010F8BDEC048B204670BDA15B000892
:105BE0002DE9F0410D4F0546884638467146764608
:105BF0006BF0EEFF0A4B5C6B236820462946DB689E
:105C0000984723682046294642465B6998473846AC
:105C10003146BDE8F0416BF0EDBF00BFE15B00082D
:105C2000187C002070B5094D71460646284674461A
:105C30006BF0CEFF06F10800FEF7BCFC068821469B
:105C400028466BF0D7FF304670BD00BF255C0008CA
:105C50002DE9F0410A4D80460F46284671467446AC
:105C60006BF0B6FF0748066841463A463668B047CB
:105C7000284621466BF0BEFF0020BDE8F08100BF42
:105C8000515C0008187C002070B57146054610482C
:105C900074466BF09DFFFEF7F7FB06460D48FEF7D6
:105CA00013FB90F90030B3EB962F01D2002508E0EA
:105CB00035B9094BD86A03681B6A98470028F5D1A3
:105CC0000125034821466BF095FF284670BD00BFB3
:105CD000895C00082F180020187C002070B51D4832
:105CE000714674466BF074FF1B48FEF733FC0128C5
:105CF0000CD91948FEF760FBF1EE047AB4EEE70A1E
:105D0000F1EE10FAB4BF0025012500E0012513488B
:105D1000FFF770FD60B11148FEF734FCF1EE047A34
:105D2000B4EEE70AF1EE10FAB4BF0026012600E057
:105D30000126FFF733FDB0F5FA7F04DD002D14BF17
:105D40003546002500E00025024821466BF052FF51
:105D5000284670BDDD5C000850640020AC67002060
:105D6000F8B50746074D0E463E4471462846744630
:105D70006BF02EFF767B284621466BF03BFF3046CA
:105D8000F8BD00BF615D000870B5074D064671465D
:105D9000284674466BF01CFF96F820602846214682
:105DA0006BF028FF304670BD895D000870B5084D66
:105DB00071460646284674466BF00AFF3046FEF7E9
:105DC00083FA0678214628466BF014FF70B270BD46
:105DD000AD5D0008F8B50F46074D064606EBC70651
:105DE0007146284674466BF0F3FEF6682846214655
:105DF0006BF000FF3046F8BDD55D000870B50A4D68
:105E000006467146284674466BF0E2FE96F89410FA
:105E1000304601F00301FFF7DDFF21460646284624
:105E20006BF0E8FE304670BDFD5D000838B50546F4
:105E30007146084874466BF0CBFEA88B4FF6FF7591
:105E4000A84214BF05460025214602486BF0D2FE49
:105E5000284638BD2D5E000838B5064D74462846E4
:105E600071466BF0B5FE28462146BDE838406BF020
:105E7000C1BE00BF595E000870B504460E460B480F
:105E8000714675466BF0A4FE94F840300748C3F3A2
:105E900081039E42B6BF04EBC604002494F82C4054
:105EA00029466BF0A7FE204670BD00BF795E000852
:105EB00070B50A4D06467146284674466BF088FE5A
:105EC00096F84010304601F00301FFF7D5FF214658
:105ED000064628466BF08EFE304670BDB15E000867
:105EE00070B50D4604467146244876466BF070FE48
:105EF000082D3BD804EB45007230FFF7D5FC007845
:105F000007EE900A082DF8EE677A08D094F864300E
:105F10000BB9236C1BB1B5EE007A67EE877AF5EE0C
:105F2000C07AF1EE10FA21D9254495F88430D3B91E
:105F30009FED137A94F88D40F4EE477AF1EE10FA63
:105F4000C8BFF0EE477A87EE277A06EE904AF8EE61
:105F5000E66A012477EE267AFCEEE77A17EE903AAD
:105F600085F8843003E0013B85F884300024034841
:105F700031466BF03FFE204670BD00BFE15E000879
:105F80000000484238B50C461A48714675466BF019
:105F90001FFEA379E27943EA0222237A42EA03420E
:105FA00042F31702144BC2F307219970C2F3074161
:105FB000D97061795A70C90712D5104908684178BB
:105FC0008478C07841EA042141EA004141F3170195
:105FD0000A44C2F307215A70C2F307429970DA707B
:105FE0001A7804486FF300021A702946BDE8384059
:105FF0006BF000BE855F00088C5D0020D060002043
:1060000070B5094D71460646284674466BF0E0FDB2
:1060100006F13700FEF7FEF80678214628466BF0B9
:10602000E9FD304670BD00BF0160000870B5074E45
:1060300004467146304675466BF0CAFD044B23603A
:10604000304629466BF0D6FD204670BD2D60000815
:10605000A8040A08F8B50A4E04460F4630467146B1
:1060600075466BF0B5FD2046FFF7E0FF054B23605A
:106070003046277129466BF0BDFD2046F8BD00BFB4
:106080005560000810600A0870B5094D7146064653
:10609000284674466BF09CFD06F10800FEF714F9E3
:1060A0000678214628466BF0A5FD304670BD00BF3E
:1060B0008960000838B50848714675466BF088FD60
:1060C000064B186808B1847800E004460248294667
:1060D0006BF090FD204638BDB5600008746000206C
:1060E00038B5714605460A4874466BF071FD0023C9
:1060F000EA18043300211C2B5160F9D1002385F8E4
:10610000203021460248BDE838406BF073BD00BF27
:10611000E160000870B50A4E044671463046754687
:106120006BF056FD00236360A360E360236163614D
:106130000023237630462946BDE870406BF05ABDF7
:106140001561000870B5094E044671463046754623
:106150006BF03EFD2046FFF7DDFF002363763046FF
:106160002946BDE870406BF045BD00BF45610008A1
:1061700038B504462DED028B71460E48B0EE408ACC
:1061800075466BF025FD227E0A48531CDBB2042BBA
:10619000237604EB820288BF002382ED018A294620
:1061A00088BF23766BF026FDB0EE480ABDEC028B6B
:1061B00038BD00BF7161000838B5714604462DED49
:1061C000028B1648B0EE408A75466BF001FD204602
:1061D000B0EE480AFFF7CCFF637EDFED117A042BA7
:1061E00094BF0133052363760023E21892ED017A10
:1061F0000433142B77EE877AF7D1647E074808EED4
:10620000104AB8EEC88A294687EE888A6BF0F2FCFD
:10621000B0EE480ABDEC028B38BD00BFB961000882
:106220000000000038B504462DED028B71460F4882
:10623000B0EE408A75466BF0CBFC94F820200B48FA
:10624000531CDBB2062B84F8203004EB820288BF9B
:10625000002382ED018A294688BF84F820306BF044
:10626000C9FCB0EE480ABDEC028B38BD25620008BF
:1062700038B5094D7146284674466BF0A9FC074BAA
:10628000074AD86B116803681B689847284621465F
:106290006BF0B0FC002038BD71620008187C002053
:1062A0009C61002070B50D4C064671460C48754641
:1062B0006BF08EFC206803681B6A0EB1094900E090
:1062C000094998472068094903681B6A9847294685
:1062D0000348BDE870406BF08DBC00BF9C6100209E
:1062E000A56200082EAB0A085E020A08BB110A0864
:1062F00038B5094D7146284674466BF069FC074B6A
:106300000749186803681B6A984728462146BDE874
:1063100038406BF06FBC00BFF16200089C61002048
:10632000C2110A0870B5094D7146064628467446E2
:106330006BF04EFC064B986B0268B1B25268904706
:1063400028462146BDE870406BF054BC2563000828
:10635000187C002070B50B4E0446714630467546D9
:106360006BF036FC236820461B699847014620469F
:10637000FFF7F6FC2946044630466BF03BFC20460E
:1063800070BD00BF5563000870B50B4E04467146E2
:10639000304675466BF01CFC236820461B69984705
:1063A00001462046FEF7BCFF2946044630466BF006
:1063B00021FC204670BD00BF8963000870B50B4EFC
:1063C00004467146304675466BF002FC2368204651
:1063D0001B69984701462046FEF7BAFF2946044646
:1063E00030466BF007FC204670BD00BFBD6300085F
:1063F000F8B5084D744606460F46284671466BF0C0
:10640000E7FB284621466BF0F5FB0C2303FB0760F6
:106410004C30F8BDF163000870B50B4E0446714670
:10642000304675466BF0D4FB23682046DB6C9847FA
:1064300001462046FFF7DCFF2946044630466BF054
:10644000D9FB204670BD00BF19640008F8B5094D9E
:106450000F4606467146284674466BF0B9FB382352
:1064600007FB03331E442846B67921466BF0C2FB76
:106470003046F8BD4D64000870B50A4D06467146B9
:10648000284674466BF0A4FB96F89410304601F051
:106490000301FFF7DBFF2146064628466BF0AAFB07
:1064A000304670BD79640008F8B571461548164C41
:1064B00075466BF08DFBFFF71BFF4FF47A70FFF70B
:1064C00031FF2068114903681B6A98472646104B24
:1064D000DC68236820469B68984738B123682046CB
:1064E0001F681B699847C1B22046B84730680368E7
:1064F0009B6898470028EADD024829466BF07AFB42
:106500000020F8BDA96400089C610020D7110A088A
:10651000187C0020F0B5174E044687B0304671460F
:1065200075466BF055FB144B677918682288016833
:10653000A3780097B4F80370019794F807E0A7795F
:1065400047EA0E2794F808E047EA0E4747F3170793
:106550000297D4F809700397D4F80D4004940C6A9C
:106560000649A0473046294607B0BDE8F0406BF029
:1065700041BB00BF156500089C610020FE110A08A0
:1065800070B504460D462948714676466BF020FBEF
:1065900023680F2D3ED8DFE805F0080C1115191DF2
:1065A0002529213D2D31353D3D395B692049204666
:1065B00002E05B691F492046984730E05B691E494D
:1065C0002046F9E75B691D492046F5E75B691C49F0
:1065D0002046F1E75B691B492046EDE75B691A49F4
:1065E0002046E9E75B6919492046E5E75B691849F8
:1065F0002046E1E75B6917492046DDE75B691649FC
:106600002046D9E75B6915492046D5E75B691449FF
:106610002046D1E71B6A134920462A46984731464F
:106620000248BDE870406BF0E5BA00BF8165000824
:106630003A120A0841120A0848120A0852120A08B5
:106640005B120A0860120A0866120A086F120A082A
:1066500075120A08E9190A087C120A0880120A0849
:1066600087120A088E120A0838B5094D7146284665
:1066700074466BF0ADFA074B0749186803685B690D
:10668000984728462146BDE838406BF0B3BA00BFB2
:10669000696600089C61002097120A0838B5094D08
:1066A0007146284674466BF093FA074B0749186801
:1066B00003681B6A9847284621466BF09BFA002026
:1066C00038BD00BF9D6600089C61002099120A0831
:1066D00038B5094D7146284674466BF079FA074B78
:1066E000986B03680021DB6B9847284621466BF0C6
:1066F00081FA002038BD00BFD1660008187C002058
:1067000070B5114E1148714675466BF061FA3068EC
:106710000F4903681B6A984700240E4B586A0368A8
:10672000A1B25B69002201349847B4F5805FF4D1CF
:106730003068094903681B6A984729460348BDE841
:1067400070406BF057BA00BF9C61002001670008E1
:1067500020130A08187C002031130A0838B5104DA0
:106760001048714674466BF033FA28680E49036886
:106770001B6A9847286803681B699847431CF9D02F
:1067800020F0200000B2592803D1FFF7B9FF0025FF
:1067900000E0FF25034821466BF02CFA68B238BDB3
:1067A0009C6100205D67000837130A08F8B5084DA2
:1067B0000F4606467146284674466BF009FA3B6858
:1067C000336028462146BDE8F8406BF013BA00BF9D
:1067D000AD670008F8B50A4E04460F4630467146CC
:1067E00075466BF0F5F92046FFF720FC054B304667
:1067F00084E8880029466BF0FDF92046F8BD00BF0B
:10680000D567000820600A08F8B50A4D06460F460D
:106810002846714674466BF0DBF90C2303FB0760D6
:10682000BC30FEF76DFD2146064628466BF0E2F9C6
:106830003046F8BD0968000870B50B4E0446714635
:10684000304675466BF0C4F923682046DB6C9847E8
:1068500001462046FFF7D8FF2946044630466BF034
:10686000C9F9204670BD00BF396800082DE9FF4B0B
:10687000DFF864807146404677466BF0A9F913480B
:10688000FFF7DAFF124B06460068D3F8009098F045
:106890003FFC04467068D9F800B00D4698F038FC0B
:1068A000CDE90001B06898F033FCCDE90201224641
:1068B0004846DBF8206007492B46B047404639463A
:1068C00004B0BDE8F04B6BF095B900BF50650020F7
:1068D0009C61002092130A086D680008F8B50A4D03
:1068E00006460F462846714674466BF071F90C2334
:1068F00003FB07609830FEF703FD21460646284655
:106900006BF078F93046F8BDDD68000870B50B4EC5
:1069100004467146304675466BF05AF923682046A6
:106920009B6C984701462046FFF7D8FF294604464E
:1069300030466BF05FF9204670BD00BF0D6900085E
:10694000F8B50A4D06460F462846714674466BF068
:106950003FF90C2303FB07607430FEF7D1FC21469E
:10696000064628466BF046F93046F8BD41690008F6
:1069700070B50B4E04467146304675466BF028F9EB
:10698000236820469B6C984701462046FFF7D8FFB6
:106990002946044630466BF02DF9204670BD00BFF5
:1069A000716900082DE9F04BDFF89880224C8CB01B
:1069B0007146404677466BF00BF92046FFF7A6FF7D
:1069C00005684268D0F808B00B922046FFF7D0FF68
:1069D0001A49D1F800900646D9F800300A932846A3
:1069E00098F096FB0B9A044610460D4698F090FBE3
:1069F000CDE90001584698F08BFBCDE902013068E3
:106A000098F086FBCDE90401706898F081FBCDE930
:106A10000601B06898F07CFBCDE908010A9B0849A3
:106A20001E6A484622462B46B047404639460CB0BF
:106A3000BDE8F04B6BF0DEB8506500209C61002093
:106A4000B5130A08A569000838B5094D71462846EE
:106A500074466BF0BDF8074B0749186803681B6A5A
:106A6000984728462146BDE838406BF0C3B800BFC0
:106A7000496A00089C610020F4130A082DE9FF4BC5
:106A8000834F844D844C7146384676466BF0A0F8AF
:106A9000D5F800802068D8F800300A30D3F820906C
:106AA000FDF788FDB0F90020206803920C30FDF757
:106AB00081FDB0F900B02068784C0E30FDF77AFD0A
:106AC000B0F900307649039A009340465B46C847C8
:106AD000D5F800802068D8F800300A30D3F820902C
:106AE000FDF768FDB0F90020206803920C30FDF737
:106AF00061FDB0F900B020686A4C0E30FDF75AFD18
:106B0000B0F900306849039A009340465B46C84795
:106B1000D5F800802068D8F800300A30D3F82090EB
:106B2000FDF748FDB0F90020206803920C30FDF716
:106B300041FDB0F900B020685C4C0E30FDF73AFD25
:106B4000B0F900305A49039A009340465B46C84763
:106B5000D5F800802068D8F800300A30D3F82090AB
:106B6000FDF728FDB0F90020206803920C30FDF7F6
:106B700021FDB0F900B020684E4C0E30FDF71AFD33
:106B8000B0F900304C49039A009340465B46C84731
:106B9000D5F80080D8F8003004F5B170D3F8209013
:106BA000FDF708FDB0F90020039204F5B270FDF77F
:106BB00001FDB0F900B004F5B370FDF7FBFCB0F9CE
:106BC00000303E49039A009340465B46C847D5F8DB
:106BD0000080D8F8003004F5C170D3F82090FDF79C
:106BE000E9FCB0F90020039204F5C270FDF7E2FC65
:106BF000B0F900B004F5C370FDF7DCFCB0F900306B
:106C00002F49039A009340465B46C847D5F8008059
:106C1000D8F8003004F5D170D3F82090FDF7CAFC05
:106C2000B0F90020039204F5D270FDF7C3FCB0F96F
:106C300000B004F5D370FDF7BDFCB0F90030039A45
:106C40002049009340465B46C8472D682B6804F5F1
:106C5000E170D3F82080FDF7ADFCB0F900B004F589
:106C6000E270FDF7A7FCB0F9009004F5E370FDF7C2
:106C7000A1FCB0F900300093284613495A464B4610
:106C8000C0473846314604B0BDE8F04B6AF0B2BFA9
:106C90007D6A00089C610020A860002098610020A7
:106CA00006140A081016002019140A08EC630020C4
:106CB0002C140A08201800203F140A0852140A084D
:106CC00065140A0878140A088B140A0838B50546B2
:106CD0007146094874466AF07BFF6B79064813F0E9
:106CE000040F064B14BFFF2201221A732146BDE890
:106CF00038406AF07FBF00BFCD6C00081816002036
:106D000070B50F4D06467146284674466AF060FF1E
:106D1000FDF7BAFBD6F805609FED0A7A0A4B07EE3D
:106D2000906A67EE877A1860FDEEE77A074BC3ED4D
:106D3000007A28462146BDE870406AF05BBF00BF7C
:106D4000016D000800007A443C1600203416002033
:106D500070B50B4D06467146284674466AF038FFFA
:106D6000D6F80520074B07EE902AFDEEE77A284675
:106D7000C3ED007A2146BDE870406AF03BBF00BF1A
:106D8000516D00083416002038B5094D714628466B
:106D900074466AF01DFFFDF785FCFEF7A9F8054B68
:106DA000186021462846BDE838406AF023BF00BF7E
:106DB000896D0008A4670020F8B5044671461A489A
:106DC0001A4D76466AF004FFD4F80930E779002BB3
:106DD000B8BF5B422B80A37943EA0727237A144C80
:106DE00047EA034747F317072760FEF781F8874212
:106DF00002DA2B885B422B80FFF7C6FFB5F9000053
:106E00000A2390FBF3F0FEF74BF80A4B22785A70F6
:106E100062789A70A278DA70FDF730FC3146024849
:106E2000BDE8F8406AF0E6BEB96D0008AC6000202D
:106E3000341600208C5D0020F7B50C4D06460F4639
:106E40002846714674466AF0C3FE07EE107AF8EEE3
:106E5000477A02A961ED017A06F10C00FFF7A6FC62
:106E6000284621466AF0C6FE03B0F0BD396E000820
:106E700070B5064D74467146064628466AF0A8FE6F
:106E8000284621466AF0B6FE304670BD716E000895
:106E900070B5084E71460446304675466AF098FE55
:106EA0002046FFF7E5FF304629466AF0A3FE20465C
:106EB00070BD00BF916E000870B5084E7146044663
:106EC000304675466AF084FE2046FFF7D1FF304613
:106ED00029466AF08FFE204670BD00BFB96E0008DB
:106EE00070B5154E71460446304675466AF070FE20
:106EF0002046FFF7E1FF601CFFF7DEFFA01CFFF755
:106F0000DBFFE01CFFF7D8FF201DFFF7C1FFA01D2E
:106F1000FFF7BEFF04F10800FFF7BAFF04F10A0013
:106F2000FFF7B6FF04F10C00FFF7C6FF3046294615
:106F30006AF060FE204670BDE16E000870B5084E34
:106F400071460446304675466AF042FE2046FFF719
:106F50008FFF304629466AF04DFE204670BD00BFC7
:106F60003D6F000870B5084E7146044630467546C0
:106F70006AF02EFE2046FFF77BFF304629466AF076
:106F800039FE204670BD00BF656F000870B5084E21
:106F900071460446304675466AF01AFE2046FFF7F1
:106FA0008BFF304629466AF025FE204670BD00BFA3
:106FB0008D6F000870B5074E044671463046754621
:106FC0006AF006FE044B2360304629466AF012FE42
:106FD000204670BDB56F000858050A0870B5094E07
:106FE00004467146304675466AF0F2FD2046FFF7CA
:106FF000E1FF054B2360304629466AF0FBFD204641
:1070000070BD00BFDD6F0008E8680A0870B5094E62
:1070100004467146304675466AF0DAFD0023304674
:107020006370A370E370237129466AF0E3FD204684
:1070300070BD00BF0D70000870B50A4E7146044661
:10704000304675466AF0C4FD201DFFF7C7FF04F106
:107050001400FFF7DBFF304629466AF0CBFD2046DF
:1070600070BD00BF3970000870B5084E0446714607
:10707000304675466AF0ACFD00233046A36063607D
:10708000236029466AF0B6FD204670BD697000088D
:1070900070B5084E71460446304675466AF098FD54
:1070A00004F12400FFF7E0FF304629466AF0A2FD14
:1070B000204670BD9170000870B5074E04467146B9
:1070C000304675466AF084FD044B236030462946FD
:1070D0006AF090FD204670BDB970000858040A0897
:1070E00070B50C4E04467146304675466AF070FD28
:1070F0002046FFF7E1FF084B2360002384F820308F
:107100002046FEF7EDFF304629466AF073FD204623
:1071100070BD00BFE170000868040A0870B5094E30
:1071200004467146304675466AF052FD2046FFF728
:10713000D7FF054B2360304629466AF05BFD2046A9
:1071400070BD00BF1D71000878040A0870B5094EB3
:1071500071460446304675466AF03AFD2046FFF710
:1071600087FE2046FFF780FF304629466AF042FD41
:10717000204670BD4D71000870B5084E044671463A
:10718000304675466AF024FD002330466360236074
:1071900029466AF02FFD204670BD00BF79710008B6
:1071A00070B50C4E04467146304675466AF010FDC7
:1071B0004FF07E532362236123600023A36063604A
:1071C0006361E360E361A36130462946BDE8704036
:1071D0006AF010BDA171000870B50C4E71460446EE
:1071E000304675466AF0F4FC2046FFF73DFF04F197
:1071F0000C00FFF739FF04F11800FFF735FF3046A8
:1072000029466AF0F7FC204670BD00BFD97100081E
:1072100070B5074E04467146304675466AF0D8FC94
:10722000044B2360304629466AF0E4FC204670BDDA
:1072300011720008D0040A0870B5074E0446714662
:10724000304675466AF0C4FC044B2360304629463C
:107250006AF0D0FC204670BD3972000810050A089B
:1072600070B50B4E04467146304675466AF0B0FC68
:107270002046FFF721FF074B23600023237620469B
:10728000FEF748FF304629466AF0B4FC204670BD40
:107290006172000838050A0870B50A4E0446714646
:1072A000304675466AF094FC2046FFF7D9FF064B3E
:1072B000236000233046637629466AF09BFC204613
:1072C00070BD00BF9972000848050A0870B5114EDC
:1072D00071460446304675466AF07AFC2046FFF750
:1072E00041FE201DFFF73EFE04F10800FFF73AFEC5
:1072F00004F10C00FFF736FE04F11000FFF7C8FDA3
:1073000004F11200FFF7C4FD304629466AF072FC12
:10731000204670BDCD720008F8B5084E04460F46F1
:107320003046714675466AF053FC002330462760AC
:10733000A38029466AF05EFC2046F8BD1973000858
:107340002DE9F0410A4E04460F4630467146754617
:1073500090466AF03DFC002330462371A760C4F8D4
:107360000C8029466AF046FC2046BDE8F08100BF4B
:107370004173000870B5074E0446714630467546A5
:107380006AF026FC044B2360304629466AF032FC42
:10739000204670BD75730008B8040A08F8B50C4E95
:1073A00004460F463046714675466AF011FC204689
:1073B000FFF7E0FF074B236000236360FF233046A5
:1073C000A760237329466AF015FC2046F8BD00BF6C
:1073D0009D73000820440A0870B5094E04467146A2
:1073E000304675466AF0F4FB2046FFF7C3FF054BB5
:1073F0002360304629466AF0FDFB204670BD00BF81
:10740000D973000818450A0870B5074D064671463D
:10741000284674466AF0DCFB3678284621466AF036
:10742000E9FB304670BD00BF0974000870B5074D18
:1074300006467146284674466AF0CAFB36782846E6
:1074400021466AF0D7FB304670BD00BF2D7400089E
:1074500070B5074D06467146284674466AF0B8FB7B
:107460003678284621466AF0C5FB304670BD00BF1D
:107470005174000870B5074D06467146284674469B
:107480006AF0A6FB3678284621466AF0B3FB304600
:1074900070BD00BF7574000870B5074D0646714693
:1074A000284674466AF094FB3678284621466AF0EE
:1074B000A1FB304670BD00BF9974000870B5074D40
:1074C00006467146284674466AF082FB367828469E
:1074D00021466AF08FFB304670BD00BFBD740008C6
:1074E00070B5074D06467146284674466AF070FB33
:1074F0003678284621466AF07DFB304670BD00BFD5
:10750000E174000870B5074D06467146284674467A
:107510006AF05EFB3678284621466AF06BFB3046FF
:1075200070BD00BF0575000870B5074D0646714671
:10753000284674466AF04CFB3678284621466AF0A5
:1075400059FB304670BD00BF297500082DE9F04198
:107550000E46804671460E48144675466AF038FB62
:107560000C4B1C800C4B00241E60A7B21C2000FB9F
:107570000760FFF749FF01340028F6D1074B0448A4
:107580001F7029466AF036FB4046BDE8F08100BF17
:107590004D750008D87D0020D47D0020D07D0020CE
:1075A00070B5074D74467146064628466AF010FBD2
:1075B000284621466AF01EFB06F50B7070BD00BF21
:1075C000A175000870B5074E0446714630467546F1
:1075D0006AF0FEFA044B2360304629466AF00AFB43
:1075E000204670BDC5750008805F0A0870B5074E5B
:1075F00004467146304675466AF0EAFA044B236049
:10760000304629466AF0F6FA204670BDED7500084E
:10761000D0420A0870B5094E044671463046754698
:107620006AF0D6FA064B23602046FFF7DFFF3046AC
:1076300029466AF0DFFA204670BD00BF15760008C3
:1076400040430A0870B5094E0446714630467546F7
:107650006AF0BEFA064B23602046FFF7B3FF3046C0
:1076600029466AF0C7FA204670BD00BF457600087B
:1076700030600A0870B5094E0446714630467546BA
:107680006AF0A6FA064B23602046FFF7C3FF304698
:1076900029466AF0AFFA204670BD00BF7576000833
:1076A000B0430A0870B5094E714604463046754627
:1076B0006AF08EFA2046FFF785FF20466AF090FBBD
:1076C000304629466AF096FA204670BDA576000835
:1076D00070B5094E71460446304675466AF078FA30
:1076E0002046FFF783FF20466AF07AFB30462946A2
:1076F0006AF080FA204670BDD176000870B5094E58
:1077000071460446304675466AF062FA2046FFF735
:1077100081FF20466AF064FB304629466AF06AFA27
:10772000204670BDFD76000870B5094E71460446CE
:10773000304675466AF04CFA2046FFF783FF204634
:107740006AF04EFB304629466AF054FA204670BD76
:107750002977000870B5094E7146044630467546D3
:107760006AF036FA2046FFF785FF20466AF038FBBC
:10777000304629466AF03EFA204670BD557700082B
:1077800070B50B4D7146284674466AF021FA094BD4
:1077900009481E78FCF73EFD31460278074813F091
:1077A00033FB28462146BDE870406AF023BA00BF8B
:1077B000817700085E1000202E180020F8150020A8
:1077C00010B571468AB00E4874466AF001FA0D4849
:1077D00041F002F90B480C4941F012F80B4BD86B01
:1077E00003686946DB68984718B10648694641F066
:1077F00071F8034821466AF0FDF90AB010BD00BFD8
:10780000C1770008385D00209E140A08187C00200B
:10781000F8B571460646174875466AF0D9F9164814
:10782000FCF7FCFD046834401DD0144E33780BB1D6
:10783000002418E01248FCF7DDFD30B90E48FCF7D3
:10784000EDFD046814F480340DD00E48FCF7F6FD0D
:1078500040B90D4B1F7801242FB93470FFF7B0FFEA
:10786000377000E00124034829466AF0C3F9204636
:10787000F8BD00BF11780008A8180020E8680020B3
:10788000C41A0020385D0020F866002070B5094D4C
:10789000094E7146284674466AF09AF9304640F01F
:1078A00075FA304640F008FB28462146BDE8704096
:1078B0006AF0A0B98D780008385D002038B5084D11
:1078C0007146284674466AF083F90648064940F036
:1078D0005FFB28462146BDE838406AF08BB900BFFF
:1078E000BD780008385D00205065002010B50A48BA
:1078F000714674466AF06CF90848FCF7E5FC90F9AB
:10790000003013B1064812F0EBFB21460248BDE8F7
:1079100010406AF06FB900BFED780008CC18002065
:107920005816002038B5094D7146284674466AF04D
:107930004FF9074822F0FAFD064811F033FF2846B8
:107940002146BDE838406AF055B900BF25790008E6
:1079500020670020B4600020F8B5714607460C4847
:1079600075466AF035F90024E6B2304644F098F8DE
:10797000372804D9074831463A4610F085F90134D2
:10798000032CF1D129460248BDE8F8406AF032B92B
:1079900059790008AC67002070B535482DED028B91
:1079A000714674466AF014F93248FCF7A3FD0028CA
:1079B00055D03148FCF7CEFD022850D92E48FCF7AF
:1079C000FBFCF1EE007AB4EEE70AF1EE10FA46D4D1
:1079D0002848FCF7D7FD2948B0EE408AFCF7EAFDBD
:1079E000B0F9000007EE900AF8EEE77AB4EEE78A05
:1079F000F1EE10FA12D52048FCF7DEFC1F48B0EE7D
:107A0000408AFCF7D7FDB0F9000007EE900AF8EEC7
:107A1000677AB4EEE78AF1EE10FA20D4184D194ACD
:107A20002B691268002BB8BF5B42934217DC1648E3
:107A30006E69FCF7BFFDB0F900309E420FDC134BBE
:107A40006A691B689A420ADB0B48FCF7D9FD0546B8
:107A50002946084810F036F82846FFF77DFFBDECB0
:107A6000028B21460248BDE870406AF0C3B800BFEF
:107A700099790008AC67002050640020F46300206E
:107A8000C41A0020A4610020F86300207C6000205C
:107A9000F8B507460E460E48714675466AF098F8E6
:107AA00000240C48225C22B120443946324643F07F
:107AB00063F8CC34B4F5197FF3D13146064840F071
:107AC0009FFE29460248BDE8F8406AF093B800BF1F
:107AD000917A0008E05D0020385D002038B57146DD
:107AE0000C4874466AF074F8FDF704FD0A4B996877
:107AF0005A6891424FF0000505DD012007495D609D
:107B0000FFF7C6FF0125034821466AF073F82846AF
:107B100038BD00BFDD7A000818160020C0140A081E
:107B200070B5144C1448714675466AF051F8FDF76B
:107B3000E1FC26695EB9114B186803681B6B984716
:107B400008B900240FE0FCF79FFC2061F9E7FCF77F
:107B50009BFC23696269C01A9042F2D9012008494E
:107B6000FFF796FF0124044829466AF043F82046AF
:107B700070BD00BF18160020217B00088410002073
:107B8000E3140A0838B51548714675466AF020F8BE
:107B9000FDF7B0FC124B13481C68FCF70BFDB0F965
:107BA0000030002B05DD0F48FCF704FDB0F9003074
:107BB00000E000239C4206D90B4B186803681B6B3E
:107BC0009847044620B101200849FFF761FF0124CE
:107BD000024829466AF00EF8204638BD857B000829
:107BE0009C670020521800208410002004150A0809
:107BF000F8B5714605461848764669F0E9FF2DB399
:107C0000012401201549164FFFF742FF4FF4AF61E1
:107C100020463C70FDF7E4FF4FF4C870FDF764FFA9
:107C20004FF4C8612046FDF7DBFFC820FDF75CFF7D
:107C3000204640F2DC51FDF7D3FF013D00234FF415
:107C4000C8703B70EDB2FDF74FFFD8E731460248F0
:107C5000BDE8F84069F0CEBFF17B000811150A08B5
:107C6000F015002038B5714605460A48744669F09B
:107C7000AFFF0A2D07D10848FCF7EEFC012802D11E
:107C8000054820F017FE21460248BDE8384069F05B
:107C9000B1BF00BF657C00084861002070B5084D89
:107CA000714606462846744669F092FF06F11800B0
:107CB0000BF0ACFE28462146BDE8704069F09ABF43
:107CC0009D7C000870B5084D7146064628467446EE
:107CD00069F07EFF06F118000BF098FE2846214659
:107CE000BDE8704069F086BFC57C000838B5094D15
:107CF00071462846744669F06BFF0748FFF7CEFFD0
:107D00000648FFF7DFFF28462146BDE8384069F006
:107D100071BF00BFED7C0008605C0020406800205F
:107D200070B5084D714606462846744669F050FF06
:107D300006F118000BF022FC28462146BDE87040F1
:107D400069F058BF217D000870B5084D71460646A0
:107D50002846744669F03CFF06F118000BF00EFC53
:107D600028462146BDE8704069F044BF497D0008BF
:107D700038B5094D71462846744669F029FF074811
:107D8000FFF7CEFF0648FFF7DFFF28462146BDE894
:107D9000384069F02FBF00BF717D0008605C002093
:107DA0004068002070B5714606460B48754669F07C
:107DB0000FFF00240948225C1AB12044314642F0EA
:107DC0005BFECC34B4F5197FF4D129460248BDE8F6
:107DD000704069F00FBF00BFA57D0008E05D002086
:107DE0002DE9F043394E3A4885B07146754669F041
:107DF000EFFE336883B9374BD86B03681B6998472C
:107E0000B0F52F7F50D30120BC2165F055FB3060C9
:107E1000002849D0FE2303742F48FCF755FA90F947
:107E20000030002B4FF0000706DC04A92A4801F8B7
:107E3000017DFCF74BFD42E02748FCF745FA90F93D
:107E40000030FCB29C4207F1010810DA3368684642
:107E5000214604F1030903EBC909FCF7F5FC9DE891
:107E6000030009F1040383E803004746E4E73068B0
:107E7000164F00F8244B611E1FF018F9A0B13968A5
:107E80000A7801F11C00013A24311FF09DF858B91D
:107E90003A6812499070012318465370FFF7F8FDB5
:107EA0001420FFF77FFF0AE004A9002301F8013D39
:107EB0000B48FCF70BFD03200A49FFF7E9FD0448D6
:107EC000294669F097FE05B0BDE8F0837460002094
:107ED000E17D0008187C0020591800201E150A08B2
:107EE000581800202F150A08F8B505460E460C480C
:107EF0007146744669F06CFE0A4B1A681F4612B947
:107F00000DB1FFF76DFF3B681BB15D719E710125DF
:107F100000E01D460248214669F06CFE2846F8BD87
:107F2000E97E00087460002070B57146044612486E
:107F3000124E754669F04CFE032C15D13378032B95
:107F400012D00F48FCF7C0F990F90030012B0BD18B
:107F500000200221FFF7C8FF10B92046094901E0BF
:107F600009492046FFF794FD347029460248BDE8D0
:107F7000704069F03FBE00BF297F00085410002008
:107F80006218002045150A0868150A082DE9FF4BFC
:107F90002E487146754669F01BFE2D4B1B78002B51
:107FA0003ED02C4B1B78002B3AD12B4B2B4C1B7803
:107FB0000A2B0FD12378DA0701D402200BE02848DE
:107FC000FCF706FC8378152B37D123789B0734D533
:107FD000042000E00120234EFFF7A6FF33685F680E
:107FE000FCF788FC204BB4F908401A681F4B93F843
:107FF00000801F4BB3F8009003928346FCF7A4FC6B
:108000000FFA89F30193304600945946039A434688
:10801000B8474FF40060FFF7FBFB08B1FCF7CCFC5E
:10802000144810F0E5FD1448FCF7E0FC0748294629
:1080300004B0BDE8F04B69F0DDBD0948FCF7C8FBB2
:108040008378152BC6D10320C5E700BF8D7F0008BC
:108050003B160020786000205E1000206C1000208D
:108060004861002064620020E85C00205410002079
:108070000C610020C8610020AC670020F8B51948E9
:10808000194D7146744669F0A3FD1848FCF71CF9B8
:1080900090F90000B0B1164B14481E6B3368DF68CE
:1080A000FCF712F9017801393046C9B2B84740F2FD
:1080B000D663984205D92B6801201BB9FFF790FEC3
:1080C0000AE000202B683BB1DA781A719042D87030
:1080D00002D00121FFF708FF21460248BDE8F84021
:1080E00069F088BD7D800008746000205A18002067
:1080F000187C002070B5134D13487146764669F020
:1081000067FDFFF7BBFF2C68B4B11048FCF7DCF843
:1081100090F900306BB1FCF725FF044648B10B48DD
:10812000FCF7D2F890F90030022B05D02B685C796F
:1081300014B92B6800249C700348314669F05AFD3D
:10814000204670BD74600020F5800008581800209B
:1081500038B50D487146754669F03AFDFFF7CAFF1C
:10816000044650B1094B1B6843B19B7833B1084BAF
:108170001C780F3C18BF012400E001240248294666
:1081800069F038FD204638BD518100087460002038
:108190005E10002038B5074D71462846744669F0D8
:1081A00017FD1B20FFF7FEFD28462146BDE838409D
:1081B00069F020BD9581000810B5714618487446D5
:1081C00069F006FD174818491DF0E8FD174B184ADD
:1081D0001B78BCEEC00A0B2B82ED000A154A82ED1B
:1081E000000A0CD00F2B0AD00A2B10D1FCF7ACFBE5
:1081F000F3EE047AB4EEE70AF1EE10FA03DC0A4873
:10820000FCF70CFC18B10848FCF752FC01E0FCF745
:1082100035FA21460248BDE8104069F0EBBC00BFCA
:10822000B9810008006700208C5D00205E100020EE
:10823000BC6100209C67002070B571461348144D46
:10824000744669F0C5FC13484FF0FF3121F0DEFBA6
:10825000431C064602D1104B6B6110E00F491048D9
:108260001DF0D0FD301A1DF073FC07EE900AB8EE39
:10827000E77ADFED0C7A67EE277AC5ED057A2146BD
:108280000248BDE8704069F0B5BC00BF3982000803
:108290006C100020486100200000B4428C5D00207A
:1082A000EC6600200AD7233C10B571461748744687
:1082B00069F08EFC1648FCF77DF9B0F900301548DE
:1082C000002B154BB4BFFF2201221A73134A036817
:1082D000136043685360836811489360114A0368D0
:1082E00013604368536083689360FCF7DBF9FFF722
:1082F0004DFEFFF761FFFFF79FFFFCF763FC214690
:108300000248BDE8104069F075BC00BFA9820008B2
:10831000561800200067002018160020EC66002088
:10832000A96100208C5D002038B51048104C7146C2
:10833000754669F04DFC0F4B186803681B69984738
:10834000A268034612B12068181A00E001202360D9
:108350001DF0FEFBA36894F90C2002FB0030A06026
:1083600029460248BDE8384069F044BC298300082A
:1083700018160020841000202DE9F8437146324879
:10838000DFF8E080314F324C324E754669F020FC08
:108390003148FCF785FC0138C0B244F0E3FBC8F873
:1083A00000002D48FCF790FC0138C0B244F0DAFB25
:1083B00038602948FCF7B0FC0138C0B244F0D2FB69
:1083C00020602548FCF794FC0138C0B244F0CAFB99
:1083D00041F294113060D8F8000044F08BF838680E
:1083E00041F2941144F086F8306841F2941144F05F
:1083F00081F820680021642244F060F8174810F0EA
:1084000007F828B9154810F04DF90128074605D09E
:1084100029460D48BDE8F84369F0ECBB104B0E4807
:108420005E6B3368D3F82480FCF776FC81462068C5
:108430000A30FCF7BFF809F1FF31028807FA01F1B1
:108440003046C047E4E700BF798300089861002008
:1084500010160020EC630020AE6000208C6000202D
:10846000187C0020A860002038B5084D71462846C9
:10847000744669F0ADFB43F0ABFE054821F0CEFC3D
:1084800028462146BDE8384069F0B4BB698400083D
:108490002067002038B5074D71462846744669F0BC
:1084A00097FB05483AF07AFA28462146BDE838405D
:1084B00069F0A0BB958400081061002010B50A483F
:1084C0007146744669F084FB0848FBF7FDFE90F99D
:1084D000003013B1064811F0A7FC21460248BDE860
:1084E000104069F087BB00BFBD840008CC18002095
:1084F0005816002038B5074D71462846744669F075
:1085000067FB05483DF042FB28462146BDE8384060
:1085100069F070BBF5840008D015002038B50B4811
:108520007146754669F054FB00240948235C1BB171
:108530002044084942F046FCCC34B4F5197FF4D10C
:1085400029460248BDE8384069F054BB1D85000843
:10855000E05D00205985000838B5714604460F4893
:1085600069F036FB0E4B9D6B2B682846DB6A0021B9
:10857000012298472B6800215B692846052298470D
:10858000084B20461C60FCF767FC236820461B6CE8
:1085900001219847044820F051F9FBE7598500086C
:1085A000187C00209C610020D460002038B50A4D62
:1085B00071462846744669F00BFB084B0849186859
:1085C00003681B6A9847074820F038F92846214677
:1085D00069F010FB002038BDAD8500089C610020CB
:1085E00085150A08EC68002038B50A4D7146284602
:1085F000744669F0EDFA084B0849186803681B6A6D
:108600009847074820F01AF92846214669F0F2FAFF
:10861000002038BDE98500089C61002091150A08FA
:108620004016002038B5074D71462846744669F05B
:10863000CFFA054820F002F92846214669F0DAFA17
:10864000002038BD25860008985D002070B5164DC5
:108650002DED028B7146064628467446B0EE408AE0
:1086600069F0B6FA3046FCF785F8B0EE480ADFED5F
:108670000F0AB7EE001A1DF0F5F80D4B5B685B4270
:1086800007EE103AF8EEC77A20EE270ABDEEC00AD0
:1086900010EE100AFCF704FCBDEC028B28462146C4
:1086A000BDE8704069F0A6BA4D86000800000000E1
:1086B000A467002070B505460C46144871467646FE
:1086C00069F086FA6B78AA78A17843EA0222EB78FF
:1086D00042EA0342637843EA0123E1780C4C43EA1F
:1086E000014342F3170243F317039A42D8BF1146DE
:1086F0002068CCBF19461A461DF052F8206031465A
:108700000248BDE8704069F075BA00BFB586000840
:10871000A467002010B522487146744669F058FAE3
:10872000204B1B78063BDBB2012B1BD91E4B186874
:1087300003681B6B984770B91C4B1B681E2B0AD92A
:108740001B4A12681E2A06D912E01A48FCF7BEFB23
:108750008378712B02D01848FCF70CF8FCF7ECFB7F
:10876000164B186021460E48BDE8104069F042BA29
:10877000134949680029E8D01E3B07EE103A1E3A1B
:10878000B8EE470A07EE102AF8EE477A0A4880EE5C
:10879000270AFFF75BFF08480A49FFF78BFFDDE771
:1087A000158700085E100020841000209C670020C0
:1087B000BC610020486100208C5D0020E86600203C
:1087C000A4670020EC66002070B50C4D0C4E71467D
:1087D0002846744669F0FCF90A4B186803681B6860
:1087E0009847094B30601A6851421CF0D9FF214666
:1087F00030602846BDE8704069F0FCB9C9870008C0
:10880000E815002084100020A46100202DE9F0412B
:108810000F4D104E71462846744669F0D9F90E483E
:108820000368DB6898470D4B306007460C48D3F867
:108830000080FDF739F84146B0F9002038461CF0B9
:10884000AFFF214630602846BDE8F04169F0D2B95B
:108850000D88000890670020646200207C60002082
:10886000F863002038B5084D71462846744669F013
:10887000AFF90648064940F0DFF828462146BDE832
:10888000384069F0B7B900BF65880008385D00203E
:10889000C861002070B5084D7146064628467446EA
:1088A00069F096F906F137003BF022F92846214697
:1088B000BDE8704069F09EB995880008F8B571462A
:1088C00006464C484C4C754669F082F94B484C4B77
:1088D00007784C4AC7F3C00EBEF1000F0AD02168DA
:1088E00019606168596007F0F707A168996047F05F
:1088F000100707E011681960516859609168996024
:108900006EF304173168116071685160B16891604D
:10891000516807703B4B31BB996821BB6168596056
:10892000A168987899605978334E41EA0021D87847
:1089300041EA004141F31701A9B9B478707840EADF
:108940000420F47840EA044040F31700C0F3072401
:108950005870C0F30740D87018789C7061F300001D
:1089600061F3C30018701278264BD1071ED56FF340
:10897000000298781A705A7842EA0020DA7840EAC1
:108980000240214A11684A788C78C97842EA042268
:1089900042EA014240F3170042F317020244C2F3D5
:1089A00007215A70C2F307429970DA70124E144CC4
:1089B000144A304621461DF06BFA48B10120134994
:1089C000FFF766F83368236073686360B368A36079
:1089D0000C48FBF7CFFEFCF7F5F8FFF7EDFBFFF7D0
:1089E0002BFCFCF7EFF829460248BDE8F84069F097
:1089F00001B900BFBD880008006700206C1000208E
:108A0000EC6600208C5D0020D06000205F160A0814
:108A100070B5184E044671463046754669F0D8F870
:108A2000601DFFF74BFFB4F80330134A03EB8303D9
:108A300003EB83039B001381104B9878597841EA2C
:108A40000021D87841EA004141F3170151600C49F7
:108A50000968486889680A300A3158609960137853
:108A60006FF30003137030462946BDE8704069F08B
:108A7000C1B800BF118A00086C1000208C5D002076
:108A8000D060002070B5084D7146064628467446F1
:108A900069F09EF8701DFFF711FF28462146BDE8DA
:108AA000704069F0A7B800BF858A000870B5084D0E
:108AB000714606462846744669F08AF8701DFFF72D
:108AC000FDFE28462146BDE8704069F093B800BF1E
:108AD000AD8A000870B5094E7146044630467546A9
:108AE00069F076F8601DFFF7E9FE2046FEF7EEF824
:108AF00030462946BDE8704069F07CB8D58A000848
:108B000070B50D4E044671463046754669F060F802
:108B1000601DFFF7D3FEB4F8032048F6A043D2B29D
:108B20005A43064B20465A60FEF7D0F83046294695
:108B3000BDE8704069F05EB8018B0008181600208F
:108B400070B50E4E044671463046754669F040F8E1
:108B5000601DFFF7B3FE0A4B00221A61B4F8032030
:108B60004FF47A714A4320465A61FEF7AFF8304617
:108B70002946BDE8704069F03DB800BF418B000850
:108B80001816002070B53D4C3D482DED028B714606
:108B9000764669F01DF82378DBB93A4B1B68B3F9C8
:108BA0000230B3B9384B1B68B3F902308BB9374880
:108BB000FBF7D0FC01280CD93448FBF7FDFBF0EEA5
:108BC000087AB4EEE70AF1EE10FA02DBA368002B94
:108BD0003BD0A368294D4BB12D4B986B03689B6824
:108BE0009847AB68C01AB0F5FA7F35D8237823B31D
:108BF000284D294C2B6823606B686360AB68A360C9
:108C00001E4BDFED267A93ED018A2549B8EEC88A1E
:108C1000284628EE278A1DF0C1F8DFED220A2046FB
:108C200070EE200AB0EE480A1DF0B8F91E4B186825
:108C3000036829461B6A22469847BDEC028B3146E1
:108C40000F48BDE8704068F0D5BF114B986B0368C2
:108C50009B689847A060BCE701232B700B4800235A
:108C6000AB60FCF79DFC0E490A4A0B6813604B6829
:108C700053608B6868609360B8E700BF106700209E
:108C8000858B0008A8600020EC6300205064002061
:108C9000187C0020EC6600208C5D00200AD7233C65
:108CA0000067002000007A4484100020F8B50B4FC4
:108CB000044671463846764668F08AFF94F8941068
:108CC000204601F0030115F01BFF04460D4638460F
:108CD000314668F08FFF20462946F8BDAD8C00086C
:108CE00010B50C487146744668F072FF0A4810F0DF
:108CF0003BFD4FF48050FEF78BFD28B10748084933
:108D0000084A094B3FF0F8FA21460248BDE81040F6
:108D100068F070BFE18C0008B4600020385D00206E
:108D2000C41A0020506400200067002038B50B4DA5
:108D300071462846744668F04BFF0948FCF788FCEA
:108D4000014608480EF030F907480FF0BFFD2846ED
:108D50002146BDE8384068F04DBF00BF2D8D0008AA
:108D600050640020C41A0020C861002070B5094E6C
:108D7000714604463046754668F02AFF20461EF0CC
:108D800093FC20461EF094FB30462946BDE8704017
:108D900068F030BF6D8D000810B52DED028B2348B3
:108DA00084B07146744668F013FF2148FBF7D2FB8C
:108DB000012833D91F480EF03FFB1E488DED000AF5
:108DC000CDED010A0EF082F9034693ED000AD3EDD2
:108DD000030A02A8FCF754FC02A8FFF7C7FF02A889
:108DE00069461EF021FB1448B0EE408AFBF716FBE3
:108DF0000368002B0FDD1048FBF710FBD0ED007A65
:108E00009FED0E7AF8EEE77AE8EE477AFDEEE77A24
:108E100017EE903A00E00023094A13600348214608
:108E200068F0E8FE04B0BDEC028B10BD998D00081F
:108E300050640020C41A0020C41800200000C8425A
:108E4000946700202DE9FF4B2A487146774668F069
:108E5000BFFEFDF74DFA4FF47A70FDF763FA002478
:108E60006420FDF75FFA2448244E12F059FB224893
:108E7000FCF7C2FBA042054627D01F48FCF7BCFB0D
:108E800005461D48FCF7E4FBD6F800808178D8F849
:108E90000030C478D3F820904378D0F808B0426806
:108EA0001548039243EA012343EA044444F31704B8
:108EB000642394FBF3F4FDF7DFFA0094019010496A
:108EC000039A40465B46C84704E030680D49036892
:108ED0001B6A9847306803689B689847002801DC44
:108EE0002C46BDE70348394668F084FE002004B0F4
:108EF000BDE8F08B458E0008506400209C61002086
:108F000071160A08981D0A082DE9E841144E7146A9
:108F100080463046754668F05BFE124B12485A7820
:108F20009F78DB7842EA072747EA0347FCF7C4FB50
:108F3000827843780D4943EA0223C2780C4843EA19
:108F4000024347F3170743F317034246FB1A3EF069
:108F500029FE30462946BDE8E84168F04BBE00BF17
:108F6000098F000800670020C41A00205064002008
:108F7000385D0020F8B516487146764668F028FE40
:108F8000144812F0CDFA00251248FCF7A7FBECB20A
:108F9000844217D20F48104F2146FCF719FB57F8AF
:108FA000243098420CD00B482146FCF711FB47F8BF
:108FB00024000420FEF72CFC10B12046FFF7A4FF8C
:108FC0000135E1E731460248BDE8F84068F012BEDD
:108FD000758F000850640020486400202DE9F0419E
:108FE00071462DED028B80463448764668F0F0FDE0
:108FF0003348FBF769F9334B04781B780A2B0AD105
:10900000314B1B78DB0706D43048FBF75DF990F94C
:109010000030002B4DD1002C43D02D4D2D4B286816
:1090200093ED008A0E30FBF7C5FAB0F9007028689E
:109030000A30FBF7BFFA06EE904ADFED277AB0F967
:1090400000302C68B8EEE67A68EE277AFB1A67EEF5
:10905000877A07EE103AB8EEC77AF7EE006AB0EEFC
:10906000C77A67EE877AB4F90800F4EE667AF1EE13
:1090700010FA48BFF0EE667A06EE908AB8EEE67A0D
:1090800077EE676A77EE877AFDEEE66AFDEEE77ABD
:1090900016EE901A17EE902A09B212B21CF068FB75
:1090A0002081BDEC028B31460448BDE8F04168F0F8
:1090B000A1BD0648FBF708F90478ACE7DD8F00088E
:1090C000F26300205E1000206C100020F0180020D9
:1090D00010160020000000200AD7233C2DE9F04B99
:1090E00017468846834671462C48764668F070FDE0
:1090F000B8F800903C882A48A9F2DC59A4F2DC5464
:109100000FFA89F924B2FBF773FDC4EB090307EEEC
:10911000903A90ED007A2248F8EEE77A4C4467EEF8
:10912000877AFDEEE77A17EE905AFBF761FD07EEBE
:10913000904A90ED007AF8EEE77AADB267EE877A62
:10914000FDEEE77A17EE904AA4B2BBF1040F0BD8FC
:10915000DFE80BF01E0A080306006D42ADB203E023
:109160006D42ADB26442A4B228B20E494FF41672F9
:109170001CF0FEFA0B4905464FF4167220B21CF0A3
:10918000F7FA05F2DC5500F2DC50A8F80050388000
:1091900031460248BDE8F04B68F02CBDDD90000878
:1091A0009C180020A8FDFFFF70B50F4D71462846A2
:1091B000744668F00DFD0D4B186843F099FBDFED28
:1091C0000C7A40EE277A64220021FDEEE77A17EE52
:1091D000900A00B21CF0CCFA21460646284668F0F8
:1091E00009FDF0B270BD00BFA99100081016002063
:1091F0000000484238B571462DED028B1F48744679
:1092000068F0E6FCFFF7D0FF05461D48FBF75CF869
:1092100090F900309D4228DA1948FBF755F890F98B
:10922000003017485D1B07EE105AF8EEC78AFBF7AF
:109230004BF890F9000008EE100AB8EEC88A114801
:1092400088EE888AFBF7B6F90F4BB0F9000093ED72
:10925000007AF8EEC77A07EE100AB8EEC77AE8EEA1
:10926000477AFDEEE77AC3ED007ABDEC028B21462A
:109270000248BDE8384068F0BDBC00BFF591000869
:10928000F363002042180020906700202DE9F04190
:109290002148224D2DED028B7146744668F098FCF2
:1092A0001F48FBF7A5FCD0ED007AF5EEC07AF1EE91
:1092B00010FA02D800232B7025E01A4E1A4837689E
:1092C0003B68D3F80880FAF7FFFF01783846C047BB
:1092D000306803685B6998471148B0EE408AFBF735
:1092E00087FCDFED127A28EE278AD0ED007A88EE2F
:1092F000278A0021FF22BDEEC88A18EE100A00B2AC
:109300001CF036FA2870BDEC028B21460248BDE8FD
:10931000F04168F06FBC00BF8D9200080C67002020
:10932000D4180020EC150020D118002000007F4345
:1093300010B52DED028B2A4882B07146744668F054
:1093400047FC284801A90DF005FE08B3264BDDEDCA
:10935000017A93ED037AF4EEC77AF1EE10FAF5EEA6
:10936000C07AC8BFC3ED037AF1EE10FA09DD1F48D9
:10937000FBF73EFCDDED017A90ED000A80EE270A56
:1093800001E0B0EE000AF6EE000AB0EE001A18E0B6
:10939000174B1B68B3F90430002B0CDD07EE903A35
:1093A000B8EEE70ADFED137A87EE800AF6EE007A70
:1093B00030EE270A01E09FED100ADFED100A9FED65
:1093C0000E1A1CF04FFA06482146B0EE408A68F0AB
:1093D00011FCB0EE480A02B0BDEC028B10BD00BF1C
:1093E00031930008C41A00206C100020441800209B
:1093F000101600200000B4418FC2D53F9A99193F42
:1094000070B51C481C4D2DED028B71467446B0EEB4
:10941000408A68F0DDFBFCF71BFA184B58B11A685C
:10942000296902F58C4050300029186003DAA2F552
:109430008C42503A1A60124A12491278022A06D116
:109440000A68B2F90220003218BF012200E00022AF
:109450000E6819682B690C48C91AB0EE480A0BF05F
:1094600095F9B080BDEC028B21460248BDE8704002
:1094700068F0C0BB01940008C41A0020E815002061
:109480005E100020A8600020605C0020F8B55A4FF4
:109490005A485B4D5B4C2DED048B71467646B0EE21
:1094A000408A68F095FB3B685748B3F90230DFED1E
:1094B000579A09EE103AFBF77DF8B0F900002B68D7
:1094C00007EE900AB8EEC99AB3F902305048F8EEA8
:1094D000E77A29EE299A08EE903A29EE279AFBF7C7
:1094E00069F8B0F90000F8EEE88A07EE900A68EE35
:1094F000A99AF8EEE77A474869EEA78AFAF7E4FEF8
:1095000090F9003023B1B5EE409AF1EE10FA17D081
:10951000002341482370B0EE490AF0EE480A3F6844
:109520000BF012F9B8803B48FAF7CEFE90F9003004
:10953000002B56D0F5EE408AF1EE10FA2ED050E016
:10954000237823B901232370002363600DE033489F
:109550000DF0A0FD324BD4ED017AD3ED006A90ED11
:10956000007AE6EE877AC4ED017A94ED010A1CF0E8
:1095700049F9DFED2C7A294B27481A692A4B3F68B5
:1095800020EE670ABDEEC00A10EE101A0A441A60F7
:10959000B0EE480A01220BF0F9F8C3E76178194BE5
:1095A0001E4A19B901215970516999601F49A36870
:1095B0000B6051691E482C68591AB0EE480A002207
:1095C0000AF074FE1B4BA0801B680C485A881A4B8B
:1095D0009A805A80BDEC048B3146BDE8F84068F0B3
:1095E00009BB0023B0EE680AF0EE480A1048637029
:1095F0002C680AF015FDE5E7A86000208D940008AE
:109600009861002080600020901800205304693980
:109610009218002094180020605C0020C41A0020DA
:10962000000000200000C842E815002090670020DC
:1096300040680020EC6300202C5D002070B51D48C0
:109640007146754668F0C4FA1B48FAF73DFE90F97A
:10965000004044B3194B986B03689B689847184BBC
:109660001B69C01AB0F57A7F1CD8164C206842F0EE
:1096700055FF23681E8850B11348FAF79BFFB0F9D5
:10968000004036B2B442CCBF002401240BE00E48A7
:10969000FAF790FFB0F9004036B2B442B4BF0024EC
:1096A000012400E001240348294668F0A3FA20467B
:1096B00070BD00BF3D96000868180020187C00208F
:1096C00034610020101600206A18002038B51748B1
:1096D0007146754668F07CFA154B1C788CB11548BC
:1096E000FAF7F2FD90F90030BBB1FEF731FD044608
:1096F00098B1114BB3F902307BB9FFF79FFF60B906
:109700000EE00D4B1B789B0709D50C48FAF7DCFDE2
:1097100090F90030022B02D102E0002400E0012485
:109720000248294668F066FA204638BDCD96000802
:109730003B160020D9180020346100206D1800204D
:1097400070B50C462DED028B7146054620487646D5
:1097500068F03EFA284630F90C3B08EE103AFAF76A
:1097600029FFB0F90000B4F900309FED1A7A9FED9F
:109770001A6A07EE900AB8EEC88AF8EEE77A06EEA3
:10978000903A78EE677AF8EEE66AF0EEE77AF4EE71
:10979000C77AF1EE10FA58BFF0EE477A66EE866AA5
:1097A00037EE677A284666EE877AFDEEE77A17EE9F
:1097B000903A238042F088FFBDEC028BB4F9003070
:1097C0001844208031460248BDE8704068F012BA63
:1097D000419700080000C8430AD7233B38B57146BB
:1097E0001248134C754668F0F3F9124B1868036879
:1097F000DB689847014610480BF06CF96080FFF772
:1098000065FF20B10D4BA11C1868FFF799FFB4F953
:1098100002000B4941F294121BF0AAFF2946608016
:109820000248BDE8384068F0E5B900BFDD970008A0
:109830002C5D002084100020C4630020EC63002015
:109840006CEEFFFF70B52648264E2DED028B71465B
:109850007546B0EE408A68F0BBF9234B1B78022BAB
:1098600006D13368B3F90210003118BF012100E0BE
:109870000021B0EE480A1D481D4C0BF089F91D4B24
:10988000A0801B681C48B3F9043008EE103AFBF7BF
:10989000AFF9B4F9043090ED007A184907EE903A28
:1098A000B8EEC88AF8EEE77A3368E7EE087A41F254
:1098B0009412FDEEE77A17EE900A80B2A0805B88E2
:1098C000184480B2A08000B21BF052FFBDEC028BA6
:1098D000A08029460248BDE8704068F08BB900BFFF
:1098E00045980008EC6300205E100020F45C002026
:1098F0002C5D0020A8600020301800206CEEFFFFD7
:1099000038B5134D13487146744668F061F92868FC
:10991000114903681B6A9847286803681B699847C0
:10992000431CF9D020F0200000B2592808D139F0AA
:1099300017FD074B0949186803681B6A9847FEE73B
:109940000448214668F056F94FF0FF3038BD00BF9B
:109950009C610020019900089A160A08E5160A0879
:109960002DE9F041104E04460F46304671467546CB
:1099700068F02EF9B7F90030B4F90080B8EB0308AD
:1099800018BF4FF0010820463946FCF75FF8414602
:1099900020463AF021FC29460446304668F02AF970
:1099A0002046BDE8F08100BF61990008F7B5254861
:1099B000254C7146754668F00BF939F0BFFF50B978
:1099C0002068224903681B6A9847214B2149986BFC
:1099D00003689B6B984720483AF08AF830B11E48DC
:1099E000FAF7E8FDB0F900300D2B18D020681B49BC
:1099F00003681B6A984739F0B3FC02A90D2221F8CD
:109A0000022D1548FFF7ACFF2068154903689B69D4
:109A100098470C48294668F0EDF803B0F0BDFBF715
:109A2000EBFF07463AF050F912210E483AF0C4FF16
:109A3000246823681E6AFBF7DFFF0B49C21B204620
:109A4000B047E6E7AD9900089C6100201E170A08A0
:109A5000187C002033170A082018002047170A082E
:109A60006B170A08143C0A0871170A082DE9F0411F
:109A7000104E04460F4630467146754668F0A8F809
:109A800097F9003094F90080B8EB030818BF4FF045
:109A9000010820463946FAF719FF414620463AF0B8
:109AA0009BFB29460446304668F0A4F82046BDE8F2
:109AB000F08100BF6D9A00082DE9F0410F4E044679
:109AC0000F4630467146754668F082F83B6821685B
:109AD000B1EB030818BF4FF0010820463946FBF7E9
