:020000040800F2
:10400000B4C10020D5F906081101070811010708FD
:10401000110107081101070811010708110107081C
:10402000110107081101070811010708110107080C
:1040300011010708110107081101070811010708FC
:1040400011010708110107081101070811010708EC
:1040500011010708110107081101070811010708DC
:1040600011010708110107081101070811010708CC
:1040700011010708110107081101070811010708BC
:1040800011010708110107081101070811010708AC
:10409000110107081101070811010708110107089C
:1040A000110107081101070811010708110107088C
:1040B000110107081101070811010708110107087C
:1040C000110107081101070811010708110107086C
:1040D000110107081101070811010708110107085C
:1040E000110107081101070811010708110107084C
:1040F000110107081101070811010708110107083C
:10410000110107081101070811010708110107082B
:10411000110107081101070811010708110107081B
:10412000110107081101070811010708110107080B
:1041300011010708110107081101070811010708FB
:1041400011010708110107081101070811010708EB
:1041500011010708110107081101070811010708DB
:1041600011010708110107081101070811010708CB
:1041700011010708110107081101070811010708BB
:10418000110107081101070838B5064D7446284685
:1041900071466CF07DFA28462146BDE838406CF047
:1041A00089BA00BF8941000870B5074D06467146BF
:1041B000284674466CF06CFA96F8816128462146D0
:1041C0006CF078FA304670BDA941000838B5064D4C
:1041D0007446714628466CF05BFA284621466CF01E
:1041E00069FA002038BD00BFCD410008F8B5084D80
:1041F000064674460F46284671466CF049FA86F822
:10420000E17028462146BDE8F8406CF053BA00BF83
:10421000ED41000870B5064D7446714606462846C5
:104220006CF036FA284621466CF044FA304670BDF0
:1042300015420008F8B5084D064674460F46284654
:1042400071466CF025FA86F8807128462146BDE853
:10425000F8406CF02FBA00BF35420008F8B50446AC
:1042600071460E4804F1320675466CF011FA30467C
:10427000676CFFF7CFFF01783846FFF7B7FFA46BF5
:1042800034B13046FFF7C6FF01782046FFF7D2FF72
:1042900029460248BDE8F8406CF00CBA5D420008BF
:1042A00070B5084D71460646284674466CF0F0F924
:1042B0003046FFF7D3FF28462146BDE870406CF03A
:1042C000F9B900BFA142000870B5064D74467146A9
:1042D000064628466CF0DCF9284621466CF0EAF9DF
:1042E000304670BDC9420008F8B5084D7446064610
:1042F0000F46284671466CF0CBF9284621466CF0F3
:10430000D9F90C2303FB07600430F8BDE94200082B
:1043100070B50B4E04467146304675466CF0B8F9E0
:10432000236820469B6C984701462046FFF7DCFF38
:104330002946044630466CF0BDF9204670BD00BFEA
:104340001143000870B50C4D2DED028B71460646E9
:10435000284674466CF09CF996ED058ADFED077AE5
:1043600028EE278A284621466CF0A4F9B0EE480AC8
:10437000BDEC028B70BD00BF454300080000C84281
:10438000F8B50C4D2DED028B06460F4628467146BA
:1043900074466CF07DF9382303FB076696ED0D8AB1
:1043A000284621466CF086F9B0EE480ABDEC028B37
:1043B000F8BD00BF8143000870B50D4D06462DEDD8
:1043C000028B7146284674466CF062F996F8941098
:1043D000304601F00301FFF7D3FF2846B0EE408AD4
:1043E00021466CF067F9B0EE480ABDEC028B70BD57
:1043F000B943000870B5084D064671462846744614
:104400006CF046F996F836602846C6F34016214609
:104410006CF050F9304670BDF543000870B5064D9C
:1044200074467146064628466CF032F92846214605
:104430006CF040F9304670BD1D44000870B5074D62
:1044400006467146284674466CF022F9B67A28462C
:1044500021466CF02FF9304670BD00BF3D44000886
:1044600070B5084D71460646284674466CF010F942
:104470003046FFF729FF0678214628466CF01AF9E6
:10448000304670BD6144000870B5094D714628463C
:1044900074466CF0FDF8074B986B03689B6898476F
:1044A0002146064628466CF005F9304670BD00BF2F
:1044B00089440008487C002038B50A4D71462846DA
:1044C00074466CF0E5F8084A00231380074A13602D
:1044D000FFF7DAFF064B186021462846BDE8384052
:1044E0006CF0E8B8B9440008625D00201861002053
:1044F0004C67002070B50B4D714606462846744641
:104500006CF0C6F806F10900FFF7DEFE90F90060D6
:10451000003618BF0126284621466CF0CBF83046FD
:1045200070BD00BFF5440008F8B5094D0F460646BA
:104530007146284674466CF0ABF8382303FB0766D7
:104540002846767F21466CF0B5F83046F8BD00BFAE
:104550002945000870B50A4D06467146284674463E
:104560006CF096F896F89410304601F00301FFF7CE
:10457000DBFF2146064628466CF09CF8304670BDAD
:104580005545000870B50A4D2DED028B7146064663
:10459000284674466CF07CF896ED058A284621463C
:1045A0006CF088F8B0EE480ABDEC028B70BD00BF1D
:1045B0008545000870B5064D744671460646284686
:1045C0006CF066F8284621466CF074F8304670BDF1
:1045D000B5450008F8B5094D744606460F4628460D
:1045E00071466CF055F8284621466CF063F8382384
:1045F00007FB0333F0180830F8BD00BFD5450008AD
:1046000070B50A4D06467146284674466CF040F86F
:1046100096F89410304601F00301FFF7DBFF2146C6
:10462000064628466CF046F8304670BD0146000844
:10463000F8B5084E0F4604467146304675466CF094
:1046400027F83B882380304629466CF033F8204613
:10465000F8BD00BF3146000870B5074D06467146EB
:10466000284674466CF014F83678284621466CF0DB
:1046700021F8304670BD00BF5946000838B5074DD7
:104680007146284674466CF003F8054B00225A60C8
:1046900028462146BDE838406CF00CB87D4600083D
:1046A000D467002038B50D4D7146284674466BF02E
:1046B000EFFF0B4B99785A78DB7842EA012242EA05
:1046C0000342084B42F317021A60FFF7D7FF284650
:1046D0002146BDE838406BF0EDBF00BFA54600089D
:1046E00030670020D467002038B5164871467446FC
:1046F0006BF0CEFF1448FFF791FE0368002B0ADA37
:10470000124B5A789D78DB7842EA052545EA034545
:1047100045F317050FE00C48FFF780FE0C4B1B68B4
:104720005A789D78DB7842EA052545EA0345036817
:1047300045F317051D44034821466BF0BBFF28468F
:1047400038BD00BFE9460008E418002030670020AB
:104750000061002038B5064D7446284671466BF05E
:1047600097FF28462146BDE838406BF0A3BF00BF45
:104770005547000838B504467146124875466BF037
:1047800087FF6378A178104A43EA0121E37841EA80
:104790000341237841F31701DB0711600CD50B4B64
:1047A0001B6858789C78DB7840EA042040EA034391
:1047B00043F317031944116029460248BDE8384005
:1047C0006BF078BF75470008D467002000610020B7
:1047D00070B5074D74467146064628466BF058FF83
:1047E000284621466BF066FF06F11C0070BD00BF35
:1047F000D147000870B5084E0446714630467546EC
:104800006BF046FF002330466360236029466BF05F
:1048100051FF204670BD00BFF54700082DE9F0416B
:10482000084E7546044690460F46304671466BF07A
:104830002FFF304684E8800129466BF03BFF20467D
:10484000BDE8F0811D4800082DE9F3418846044683
:1048500071461B4877466BF01BFF6846FFF7CAFF9F
:104860001848FFF731FD90F90030984505D900212F
:1048700020460A46FFF7D2FF1AE0134B5D6A4FEA63
:10488000C8081FFA88F82B6808F5766189B2DB68DA
:104890002846984700902B6808F664781FFA88F13C
:1048A000DB682846984701909DE8030084E80300F0
:1048B000034839466BF0FEFE204602B0BDE8F081A9
:1048C0004948000889180020487C0020F8B5084DA8
:1048D0000F4606467146284674466BF0D9FE3B7873
:1048E000337028462146BDE8F8406BF0E3BE00BFB8
:1048F000CD480008F8B5104D7146284674466BF057
:10490000C7FE0E4B0E481B685A789E78DB7842EA49
:10491000062646EA03460B4B1B6846F317069E1B0A
:10492000FFF748FE2146078828466BF0C3FE642047
:1049300017FB0060F8BD00BFF548000800610020CB
:10494000BE180020D467002038B5174D2DED028B1E
:104950007146284674466BF09BFE144BDFED147ACB
:1049600099785A78DB7842EA012242EA0342114BF5
:104970001B6898785978DB7841EA002141EA0343C3
:1049800042F3170243F31703D31A08EE103AB8EEB6
:10499000C88A284628EE278A21466BF08BFEB0EEA7
:1049A000480ABDEC028B38BD494900083067002039
:1049B0000AD7233C0061002038B5094D71462846CE
:1049C00074466BF065FE0748074903680C225B6973
:1049D000984728462146BDE838406BF06BBE00BFC3
:1049E000B949000894620020685D002070B50A4D46
:1049F0002DED028B0646B0EE408A2846714674467D
:104A00006BF046FE86ED078ABDEC028B28462146F8
:104A1000BDE870406BF04EBEED49000838B5044665
:104A20007146204875466BF033FEA278637843EAFE
:104A30000223E27843EA024343F3170306EE903A77
:104A40002378DB07F8EEE67A10D4174B1B685A7808
:104A50009978DB7842EA012242EA034343F31703E1
:104A600006EE903AB8EEE67A77EEC77A0F4B0D482D
:104A700099785A78DB7842EA012242EA034343F309
:104A8000170306EE903AB8EEE67A2946B4EEE77AD6
:104A9000F1EE10FAD4BF002401246BF00BFE204687
:104AA00038BD00BF1D4A00080061002030670020AB
:104AB00038B50446714628482DED028B75466BF0DB
:104AC000E7FD6378A178254A43EA0121E37841EACA
:104AD0000341234B9C785878DB7840EA042040EA75
:104AE000034341F3170143F31703CB1A53601D4BE4
:104AF0001B78033BDBB2012B144621D91A48FFF780
:104B000059FDB0F90030002B22DD6368DFED177A24
:104B1000154883EAE372A2EBE37208EE102AB8EEBE
:104B2000C88A28EE278AFFF745FDB0F9000007EE96
:104B3000900AF8EEE77AB4EEE78AF1EE10FA07D4BD
:104B4000BDEC028B29460448BDE838406BF0B2BD8D
:104B500000236360F4E700BFB14A0008D467002077
:104B60003067002054100020261900200AD7233C6B
:104B700010B571460E4874466BF08AFD0D48FFF77C
:104B800019FDB0F900300C48002B0C4BB4BFFF22CC
:104B900001221A730A4A03681360436853608368EA
:104BA000936021460248BDE810406BF083BD00BF12
:104BB000714B00088618002030670020481600203E
:104BC000BC5D002038B5084D7146284674466BF030
:104BD0005FFD064B00229A605A6028462146BDE8D8
:104BE00038406BF067BD00BFC54B00084816002079
:104BF00070B5064D74467146064628466BF048FD72
:104C0000284621466BF056FD304670BDF14B00083A
:104C100070B50A4D2DED028B714606462846744646
:104C20006BF036FD96ED058A284621466BF042FD75
:104C3000B0EE480ABDEC028B70BD00BF114C0008FD
:104C400070B50A4D2DED028B714606462846744616
:104C50006BF01EFD96ED068A284621466BF02AFD74
:104C6000B0EE480ABDEC028B70BD00BF414C00089D
:104C700070B50A4D2DED028B7146064628467446E6
:104C80006BF006FD96ED078A284621466BF012FD73
:104C9000B0EE480ABDEC028B70BD00BF714C00083D
:104CA00070B5084D71460646284674466BF0F0FC18
:104CB0003046FFF709FB0678214628466BF0FAFCE0
:104CC000304670BDA14C000870B5084D71460646CF
:104CD000284674466BF0DCFC701CFFF7F5FA06788A
:104CE000214628466BF0E6FC304670BDC94C0008F2
:104CF00070B5084D71460646284674466BF0C8FCF0
:104D0000B01CFFF7E1FA0678214628466BF0D2FC8A
:104D1000304670BDF14C000870B5084D714606462E
:104D2000284674466BF0B4FCF01CFFF7CDFA067809
:104D3000214628466BF0BEFC304670BD194D000878
:104D4000F8B50F46074D064606EBC70671462846DE
:104D500074466BF09DFC368D284621466BF0AAFC0C
:104D60003046F8BD414D000870B50A4D0646714603
:104D7000284674466BF08CFC96F84010304601F0E3
:104D80000301FFF7DDFF2146064628466BF092FC43
:104D9000304670BD694D0008F8B50F46074D064610
:104DA00006EBC7067146284674466BF071FC768D9B
:104DB000284621466BF07EFC3046F8BD994D000830
:104DC00070B50A4D06467146284674466BF060FC85
:104DD00096F84010304601F00301FFF7DDFF214651
:104DE000064628466BF066FC304670BDC14D000893
:104DF00038B5074D7146284674466BF049FC0548A6
:104E0000FFF7C2F928462146BDE838406BF052BC96
:104E1000F14D0008F861002038B571462DED028B88
:104E200004460C487546B0EE408A6BF031FC04F540
:104E3000A470FFF749FA90F900300648022B08BF2A
:104E400084ED5F8ABDEC028B2946BDE838406BF0EB
:104E500031BC00BF194E000870B5074D06467146BB
:104E6000284674466BF014FC044B1E60284621460D
:104E7000BDE870406BF01EBC594E0008F47D002068
:104E800038B5064D7446284671466BF001FC28463D
:104E90002146BDE838406BF00DBC00BF814E0008D4
:104EA00070B5084D06467146284674466BF0F0FB17
:104EB000054B1A6832441A6028462146BDE8704006
:104EC0006BF0F8BBA14E0008D467002070B5074D09
:104ED00074467146064628466BF0DAFB28462146A2
:104EE0006BF0E8FB06F12D0070BD00BFCD4E000851
:104EF000F8B50E4D7146284674466BF0C9FB0C4B55
:104F00000C485A789E78DB7842EA062646EA034641
:104F1000FFF750FB21460788284646F317066BF03B
:104F2000C9FB4FF69C7017FB0060F8BDF14E0008FE
:104F300030670020BE180020F8B5084D714628469D
:104F400074466BF0A5FB064B1E68FFF7D1FF2146A8
:104F5000074628466BF0AEFBF01BF8BD394F000842
:104F6000D467002038B50D48714674466BF090FB4D
:104F70000B48FFF7A9F990F9003043B10948FFF752
:104F8000A3F990F90030042B01DD012500E0002594
:104F9000024821466BF08EFB284638BD654F00085D
:104FA000881800208918002070B5074D71462846E2
:104FB00074466BF06DFB054B1E78284621466BF05E
:104FC00079FB304670BD00BFA94F000804000020E7
:104FD0002DE9F04171462A48F0466BF059FB29480B
:104FE000FFF7E8FA04882848FFF7E4FAB0F9003040
:104FF00024B2A34201DB00263AE02348FFF7DAFAA5
:10500000B0F90030002BF6D0FFF772FF04461E48BF
:10501000FFF7D0FA0646204698F070F90446B6F934
:1050200000000D4698F06AF90022184B98F0CCF970
:10503000174B1B6806465A789878DB7842EA0020BE
:1050400040EA034040F317000F4698F057F9024634
:105050000B463046394698F005F802460B46204686
:1050600029464FF0010698F021FC00B90646F6B239
:10507000034841466BF01EFB3046BDE8F08100BF9F
:10508000D14F00088E1800208C18002000005940D5
:10509000006100202DE9F04171462A48F0466BF08E
:1050A000F7FA2948FFF786FA04882848FFF782FABA
:1050B000B0F9003024B2A34201DB00263AE02248D6
:1050C000FFF778FAB0F90030002BF6D0FFF710FFA9
:1050D00004461D48FFF76EFA0646204698F00EF982
:1050E0000446B6F900000D4698F008F90022184B66
:1050F00098F06AF9174B1B6806465A789878DB785F
:1051000042EA002040EA034040F317000F4698F0BF
:10511000F5F802460B463046394697F0A3FF0246A3
:105120000B46204629464FF0010698F0DDFB00B9FA
:105130000646F6B2034841466BF0BCFA3046BDE87D
:10514000F08100BF955000088E1800208C180020B8
:10515000000059400061002070B50A4D2DED028B12
:1051600071460646284674466BF092FA96ED048A1C
:10517000284621466BF09EFAB0EE480ABDEC028B41
:1051800070BD00BF5951000838B571462DED028B36
:1051900005460D4874466BF07BFA95ED060ADFED87
:1051A0000B7A0948B4EEE70AF1EE10FAD4BFB0EE7C
:1051B000678AB0EE408A21466BF07CFAB0EE480A6E
:1051C000BDEC028B38BD00BF895100080000000013
:1051D000F8B571462DED028B3B483C4C3C4E754674
:1051E0006BF056FA3B48FFF7ADF83B48B0EE408A0B
:1051F000FFF714F9036823603378063BDBB2012B19
:1052000018D83648FFF7D6F9B0F900703448FFF7E0
:10521000D1F9B0F900303248FF1A324B1B68B3F9AC
:1052200002305F43FFF7C6F9B0F90020642302FBA8
:10523000037727603378052B15D92B48FFF7EEF855
:105240000368002B0FDD294B2268D3ED007AF8EEBE
:10525000E77A78EE277AFDEEE77A17EE903A9342F6
:1052600001DD1A4A13603378092B07D9204BB3F9B3
:105270000030002B02DD22681344236017482668A3
:10528000FFF798F90388642413FB04F39E4207DDBB
:105290001248FFF78FF9038813FB04F40B4B1C60D3
:1052A000144803689B699847DFED137A134B06484F
:1052B00090EE278A294683ED008ABDEC028BBDE87B
:1052C000F8406BF0F7B900BFD1510008185D00201D
:1052D0005E100020DC670020E0180020266400201B
:1052E0002464002040160020F4180020C467002029
:1052F00068160020946200200000C8421469002053
:1053000070B5064D74467146064628466BF0C0F9E6
:10531000284621466BF0CEF9304670BD0153000897
:10532000F8B50A4D06460F462846714674466BF09E
:10533000AFF90C2303FB07602C30FFF7E1FF214698
:10534000064628466BF0B6F93046F8BD21530008F2
:10535000F8B5084D744606460F46284671466BF070
:1053600097F9284621466BF0A5F90C2303FB07604B
:105370001030F8BD51530008F8B5094D06460F46E8
:105380002846714674466BF083F93046B763FEF7E2
:1053900065FF28462146BDE8F8406BF08BB900BF99
:1053A0007953000810B50A48714674466BF070F9DD
:1053B0000848FEF72FFF0378012B02D1064B074A5E
:1053C0001A6021460248BDE810406BF073B900BF77
:1053D000A55300087818002084100020DC5D002010
:1053E00070B5084D06467146284674466BF050F974
:1053F00096F83660284606F0010621466BF05AF909
:10540000304670BDE153000838B571460B4875460B
:105410006BF03EF9FFF738F8094B1B68C01A094BCF
:105420001A680024904288BF1C60044888BF012489
:1054300029466BF03FF9204638BD00BF09540008EB
:105440006C1600206416002038B571460B4875466E
:105450006BF01EF90A4B0B491A680968074822EAE3
:10546000E27291424FF0000438BF1C60294638BFF9
:1054700001246BF01FF9204638BD00BF49540008D5
:1054800064160020CC67002038B5174C17487146C9
:1054900075466BF0FDF8B4F90030002B04DAB4F96E
:1054A0000030002B12DC06E0FFF722FD104B1B68DA
:1054B000984206DAF3E7FFF71BFD0D4B1B68984295
:1054C00004DC0B4B00221A60012407E0B4F9000051
:1054D0000A2390FBF3F0FFF7E3FC0024034829467E
:1054E0006BF0E8F8204638BDDC60002089540008E5
:1054F00064160020F8B5114D7146284674466BF0CD
:10550000C7F80F4B0F481E6833685F6AFFF752F801
:10551000B0F900300C4983EAE372A2EBE37200EECB
:10552000102A0A4B304693F90C20B8EEC00AB8474F
:1055300028462146BDE8F8406BF0BCB8F554000899
:105540008410002086180020BC5D00204816002032
:1055500038B5074D7446714628466BF099F8FFF749
:10556000C9FF284621466BF0A5F8002038BD00BFD2
:1055700051550008F8B5094D0F46064671462846B4
:1055800074466BF085F8382303FB07662846B66B34
:1055900021466BF08FF83046F8BD00BF7555000806
:1055A00070B50A4D06467146284674466BF070F891
:1055B00096F89410304601F00301FFF7DBFF214617
:1055C000064628466BF076F8304670BDA1550008B7
:1055D000F8B50F46074D064606EBC7067146284646
:1055E00074466BF055F83669284621466BF062F830
:1055F0003046F8BDD155000870B50A4D06467146D3
:10560000284674466BF044F896F89410304601F042
:105610000301FFF7DDFF2146064628466BF04AF8F6
:10562000304670BDF9550008F8B5084D7446064679
:105630000F46284671466BF02BF8284621466BF042
:1056400039F8382303FB07602630F8BD29560008D7
:1056500070B50A4D06467146284674466BF018F838
:1056600096F89410304601F00301FFF7DDFF214664
:10567000064628466BF01EF8304670BD51560008AD
:1056800070B50C4E2DED028B0446F0EE408AB0EE64
:10569000608A7546714630466AF0FAFFC4ED008AAA
:1056A00084ED018A304629466BF004F8BDEC028B8C
:1056B000204670BD8156000870B5074D744671468E
:1056C000064628466AF0E4FF284621466AF0F2FFC3
:1056D00006F19C0070BD00BFB956000870B5084DBA
:1056E00006467146284674466AF0D2FF96F89460E2
:1056F0002846C6F3810621466AF0DCFF304670BDBD
:10570000DD56000870B57146214875466AF0C0FF45
:10571000204B21481C6B2368DE68FEF7D5FD01781D
:1057200001392046C9B2B0476FF46172821892B253
:1057300040F212539A421BD8A0F2CF439BB2812B66
:1057400018D96FF4AA63C3189BB2812B14D9A0F2A5
:10575000D3539BB2812B11D9A0F255639BB2802BFE
:105760000ED940F2D564A0428CBF0524002408E085
:10577000FF2406E0012404E0022402E0032400E008
:105780000424034829466AF095FF204670BD00BFF7
:1057900005570008487C0020B418002070B5124D51
:1057A0007146284674466AF073FF104B5A789E780B
:1057B000DB7842EA062646EA03460D4B1B689978D9
:1057C0005A78DB7842EA012242EA034343F31703A3
:1057D00046F31706F61A2846002EB8BF7642214631
:1057E0006AF068FF304670BD9D57000830670020A2
:1057F0000061002038B571460446144875466AF0C9
:1058000047FF04F10900FEF75FFD90F900300BB986
:10581000002415E004F10800FEF756FD90F9003071
:10582000002BF5D02046FFF7E3F9D0ED007AF0EE3B
:10583000E77AF5EEC07AF1EE10FAE9DD94F820404F
:10584000024829466AF036FF204638BDF557000861
:1058500038B51048714675466AF01AFF0E48FEF7D3
:1058600033FD90F9003023B10C4B1B780BB10124B0
:1058700009E00B4B1B780A2B04D10A4B1C78C4F3AC
:10588000800404B90024034829466AF013FF204627
:1058900038BD00BF5158000808190020F01A002038
:1058A0005E1000206C10002070B5064D74467146E5
:1058B000064628466AF0ECFE284621466AF0FAFEC3
:1058C000304670BDA958000838B51C482DED028B34
:1058D000714675466AF0DCFE194B1B780A2B01D025
:1058E000002422E0174C2378DB07F9D41648FEF792
:1058F000EBFC90F90030002BF2D0144894ED038AB1
:10590000FFF776F9D0ED007AB4EEE78AF1EE10FAFF
:10591000E6DA0F4AB4F91030526903F57A739A4205
:10592000DEDC0948FEF7D0FC0478044829466AF01A
:10593000C1FEBDEC028B60B238BD00BFC958000883
:105940005E1000206C10002015190020181900208E
:10595000F41A002038B50B48714674466AF098FE78
:105960000948FEF7B1FC90F900300BB1064800E0A1
:105970000648FEF7A9FC0578024821466AF09AFE1F
:10598000284638BD555900082119002021640020FF
:1059900070B50A48714674466AF07AFE084B1B7867
:1059A00033B1084D2B681E68FEF7CEFF2846B0477E
:1059B00021460248BDE870406AF07CBE915900085B
:1059C0006B16002094620020F8B50A4D06460F467B
:1059D0002846714674466AF05BFE96F8363067F3E7
:1059E000451386F8363028462146BDE8F8406AF06F
:1059F00061BE00BFC959000870B5094D71462846FF
:105A000074466AF045FE074B986B0368DB6898475D
:105A10002146064628466AF04DFE304670BD00BF5E
:105A2000F9590008487C0020F8B5074D0646744631
:105A30000F46284671466AF02BFEB780284621465D
:105A4000BDE8F8406AF036BE295A0008F8B5084D9E
:105A50000F4606467146284674466AF019FE3B8892
:105A6000338028462146BDE8F8406AF023BE00BFD7
:105A70004D5A0008F8B5084D0F46064671462846AF
:105A800074466AF005FE3B68336028462146BDE84F
:105A9000F8406AF00FBE00BF755A0008F8B5084E0E
:105AA0000F4604467146304675466AF0F1FD3B7874
:105AB0002370304629466AF0FDFD2046F8BD00BF40
:105AC0009D5A0008F8B5074D064674460F4628460D
:105AD00071466AF0DDFDF76328462146BDE8F840CF
:105AE0006AF0E8BDC55A000870B5094D7146064612
:105AF000284674466AF0CCFD064B986B0268B1B23A
:105B00005268904728462146BDE870406AF0D2BDF1
:105B1000E95A0008487C0020F8B50A4D06460F46B1
:105B20002846714674466AF0B3FD96F8363067F33E
:105B3000820386F8363028462146BDE8F8406AF0F0
:105B4000B9BD00BF195B0008F8B5084D064674469C
:105B50000F46284671466AF09BFD86F82870284655
:105B60002146BDE8F8406AF0A5BD00BF495B0008CA
:105B7000F8B50A4D06460F462846714674466AF047
:105B800087FD96F8363067F3041386F836302846DA
:105B90002146BDE8F8406AF08DBD00BF715B00088A
:105BA00070B50E4E2DED048B0446B0EE409AF0EE2B
:105BB000608AB0EE418A7546714630466AF068FDEB
:105BC00084ED009AC4ED018A84ED028A30462946AC
:105BD0006AF070FDBDEC048B204670BDA15B00082F
:105BE0002DE9F0410D4F0546884638467146764608
:105BF0006AF04EFD0A4B5C6B236820462946DB6841
:105C0000984723682046294642465B6998473846AC
:105C10003146BDE8F0416AF04DBD00BFE15B0008D0
:105C2000487C002070B5094D7146064628467446EA
:105C30006AF02EFD06F10800FEF7BCFC068821463E
:105C400028466AF037FD304670BD00BF255C00086D
:105C50002DE9F0410A4D80460F46284671467446AC
:105C60006AF016FD0748066841463A463668B0476E
:105C7000284621466AF01EFD0020BDE8F08100BFE5
:105C8000515C0008487C002070B5714605461048FC
:105C900074466AF0FDFCFEF7F7FB06460D48FEF77A
:105CA00013FB90F90030B3EB962F01D2002508E0EA
:105CB00035B9094BD86A03681B6A98470028F5D1A3
:105CC0000125034821466AF0F5FC284670BD00BF57
:105CD000895C00085F180020487C002070B51D48D2
:105CE000714674466AF0D4FC1B48FEF733FC012869
:105CF0000CD91948FEF760FBF1EE047AB4EEE70A1E
:105D0000F1EE10FAB4BF0025012500E0012513488B
:105D1000FFF770FD60B11148FEF734FCF1EE047A34
:105D2000B4EEE70AF1EE10FAB4BF0026012600E057
:105D30000126FFF733FDB0F5FA7F04DD002D14BF17
:105D40003546002500E00025024821466AF0B2FCF5
:105D5000284670BDDD5C000880640020DC67002000
:105D6000F8B50746074D0E463E4471462846744630
:105D70006AF08EFC767B284621466AF09BFC304612
:105D8000F8BD00BF615D000870B5074D064671465D
:105D9000284674466AF07CFC96F820602846214626
:105DA0006AF088FC304670BD895D000870B5084D0A
:105DB00071460646284674466AF06AFC3046FEF78D
:105DC00083FA0678214628466AF074FC70B270BDEA
:105DD000AD5D0008F8B50F46074D064606EBC70651
:105DE0007146284674466AF053FCF66828462146F8
:105DF0006AF060FC3046F8BDD55D000870B50A4D0C
:105E000006467146284674466AF042FC96F894109D
:105E1000304601F00301FFF7DDFF21460646284624
:105E20006AF048FC304670BDFD5D000838B5054697
:105E30007146084874466AF02BFCA88B4FF6FF7534
:105E4000A84214BF05460025214602486AF032FCEC
:105E5000284638BD2D5E000838B5064D74462846E4
:105E600071466AF015FC28462146BDE838406AF0C4
:105E700021BC00BF595E000870B504460E460B48B1
:105E8000714675466AF004FC94F840300748C3F345
:105E900081039E42B6BF04EBC604002494F82C4054
:105EA00029466AF007FC204670BD00BF795E0008F5
:105EB00070B50A4D06467146284674466AF0E8FBFE
:105EC00096F84010304601F00301FFF7D5FF214658
:105ED000064628466AF0EEFB304670BDB15E00080B
:105EE00070B50D4604467146244876466AF0D0FBEC
:105EF000082D3BD804EB45007230FFF7D5FC007845
:105F000007EE900A082DF8EE677A08D094F864300E
:105F10000BB9236C1BB1B5EE007A67EE877AF5EE0C
:105F2000C07AF1EE10FA21D9254495F88430D3B91E
:105F30009FED137A94F88D40F4EE477AF1EE10FA63
:105F4000C8BFF0EE477A87EE277A06EE904AF8EE61
:105F5000E66A012477EE267AFCEEE77A17EE903AAD
:105F600085F8843003E0013B85F884300024034841
:105F700031466AF09FFB204670BD00BFE15E00081D
:105F80000000484238B50C461A48714675466AF01A
:105F90007FFBA379E27943EA0222237A42EA0342B1
:105FA00042F31702144BC2F307219970C2F3074161
:105FB000D97061795A70C90712D5104908684178BB
:105FC0008478C07841EA042141EA004141F3170195
:105FD0000A44C2F307215A70C2F307429970DA707B
:105FE0001A7804486FF300021A702946BDE8384059
:105FF0006AF060BB855F0008BC5D00200061002086
:1060000070B5094D71460646284674466AF040FB55
:1060100006F13700FEF7FEF80678214628466AF0BA
:1060200049FB304670BD00BF0160000870B5074EE7
:1060300004467146304675466AF02AFB044B2360DD
:10604000304629466AF036FB204670BD2D600008B8
:10605000B8E60908F8B50A4E04460F4630467146C0
:1060600075466AF015FB2046FFF7E0FF054B2360FD
:106070003046277129466AF01DFB2046F8BD00BF57
:1060800055600008E0410A0870B5094D71460646A2
:10609000284674466AF0FCFA06F10800FEF714F987
:1060A0000678214628466AF005FB304670BD00BFE1
:1060B0008960000838B50848714675466AF0E8FA04
:1060C000064B186808B1847800E004460248294667
:1060D0006AF0F0FA204638BDB5600008A4600020E0
:1060E00038B5714605460A4874466AF0D1FA00236D
:1060F000EA18043300211C2B5160F9D1002385F8E4
:10610000203021460248BDE838406AF0D3BA00BFCB
:10611000E160000870B50A4E044671463046754687
:106120006AF0B6FA00236360A360E36023616361F1
:106130000023237630462946BDE870406AF0BABA9B
:106140001561000870B5094E044671463046754623
:106150006AF09EFA2046FFF7DDFF002363763046A3
:106160002946BDE870406AF0A5BA00BF4561000845
:1061700038B504462DED028B71460E48B0EE408ACC
:1061800075466AF085FA227E0A48531CDBB2042B5E
:10619000237604EB820288BF002382ED018A294620
:1061A00088BF23766AF086FAB0EE480ABDEC028B0F
:1061B00038BD00BF7161000838B5714604462DED49
:1061C000028B1648B0EE408A75466AF061FA2046A6
:1061D000B0EE480AFFF7CCFF637EDFED117A042BA7
:1061E00094BF0133052363760023E21892ED017A10
:1061F0000433142B77EE877AF7D1647E074808EED4
:10620000104AB8EEC88A294687EE888A6AF052FAA0
:10621000B0EE480ABDEC028B38BD00BFB961000882
:106220000000000038B504462DED028B71460F4882
:10623000B0EE408A75466AF02BFA94F820200B489D
:10624000531CDBB2062B84F8203004EB820288BF9B
:10625000002382ED018A294688BF84F820306AF045
:1062600029FAB0EE480ABDEC028B38BD2562000861
:1062700038B5094D7146284674466AF009FA074B4D
:10628000074AD86B116803681B689847284621465F
:106290006AF010FA002038BD71620008487C0020C6
:1062A000CC61002070B50D4C064671460C48754611
:1062B0006AF0EEF9206803681B6A0EB1094900E034
:1062C000094998472068094903681B6A9847294685
:1062D0000348BDE870406AF0EDB900BFCC61002012
:1062E000A5620008768C0A086EE40908CBF3090859
:1062F00038B5094D7146284674466AF0C9F9074B0E
:106300000749186803681B6A984728462146BDE874
:1063100038406AF0CFB900BFF1620008CC610020BC
:10632000D2F3090870B5094D7146064628467446F1
:106330006AF0AEF9064B986B0268B1B252689047AA
:1063400028462146BDE870406AF0B4B925630008CC
:10635000487C002070B50B4E0446714630467546A9
:106360006AF096F9236820461B6998470146204643
:10637000FFF7F6FC2946044630466AF09BF92046B2
:1063800070BD00BF5563000870B50B4E04467146E2
:10639000304675466AF07CF9236820461B699847A9
:1063A00001462046FEF7BCFF2946044630466AF007
:1063B00081F9204670BD00BF8963000870B50B4E9F
:1063C00004467146304675466AF062F923682046F5
:1063D0001B69984701462046FEF7BAFF2946044646
:1063E00030466AF067F9204670BD00BFBD63000803
:1063F000F8B5084D744606460F46284671466AF0C1
:1064000047F9284621466AF055F90C2303FB07603B
:106410004C30F8BDF163000870B50B4E0446714670
:10642000304675466AF034F923682046DB6C98479D
:1064300001462046FFF7DCFF2946044630466AF055
:1064400039F9204670BD00BF19640008F8B5094D40
:106450000F4606467146284674466AF019F93823F5
:1064600007FB03331E442846B67921466AF022F919
:106470003046F8BD4D64000870B50A4D06467146B9
:10648000284674466AF004F996F89410304601F0F4
:106490000301FFF7DBFF2146064628466AF00AF9AA
:1064A000304670BD79640008F8B571461548164C41
:1064B00075466AF0EDF8FFF71BFF4FF47A70FFF7AF
:1064C00031FF2068114903681B6A98472646104B24
:1064D000DC68236820469B68984738B123682046CB
:1064E0001F681B699847C1B22046B84730680368E7
:1064F0009B6898470028EADD024829466AF0DAF8E6
:106500000020F8BDA9640008CC610020E7F3090869
:10651000487C0020F0B5174E044687B030467146DF
:1065200075466AF0B5F8144B6779186822880168D7
:10653000A3780097B4F80370019794F807E0A7795F
:1065400047EA0E2794F808E047EA0E4747F3170793
:106550000297D4F809700397D4F80D4004940C6A9C
:106560000649A0473046294607B0BDE8F0406AF02A
:10657000A1B800BF15650008CC6100200EF4090821
:1065800070B504460D462948714676466AF080F893
:1065900023680F2D3ED8DFE805F0080C1115191DF2
:1065A0002529213D2D31353D3D395B692049204666
:1065B00002E05B691F492046984730E05B691E494D
:1065C0002046F9E75B691D492046F5E75B691C49F0
:1065D0002046F1E75B691B492046EDE75B691A49F4
:1065E0002046E9E75B6919492046E5E75B691849F8
:1065F0002046E1E75B6917492046DDE75B691649FC
:106600002046D9E75B6915492046D5E75B691449FF
:106610002046D1E71B6A134920462A46984731464F
:106620000248BDE870406AF045B800BF81650008C7
:106630004AF4090851F4090858F4090862F40908F1
:106640006BF4090870F4090876F409087FF4090866
:1066500085F40908F9FB09088CF4090890F4090885
:1066600097F409089EF4090838B5094D7146284683
:1066700074466AF00DF8074B0749186803685B69B0
:10668000984728462146BDE838406AF013B800BF55
:1066900069660008CC610020A7F4090838B5094DE7
:1066A00071462846744669F0F3FF074B074918689E
:1066B00003681B6A98472846214669F0FBFF0020C3
:1066C00038BD00BF9D660008CC610020A9F4090810
:1066D00038B5094D71462846744669F0D9FF074B15
:1066E000986B03680021DB6B98472846214669F0C8
:1066F000E1FF002038BD00BFD1660008487C0020C3
:1067000070B5114E11487146754669F0C1FF306889
:106710000F4903681B6A984700240E4B586A0368A8
:10672000A1B25B69002201349847B4F5805FF4D1CF
:106730003068094903681B6A984729460348BDE841
:10674000704069F0B7BF00BFCC610020016700084E
:1067500030F50908487C002041F5090838B5104D8E
:1067600010487146744669F093FF28680E49036823
:106770001B6A9847286803681B699847431CF9D02F
:1067800020F0200000B2592803D1FFF7B9FF0025FF
:1067900000E0FF250348214669F08CFF68B238BD50
:1067A000CC6100205D67000847F50908F8B5084D81
:1067B0000F46064671462846744669F069FF3B68F5
:1067C000336028462146BDE8F84069F073BF00BF3A
:1067D000AD670008F8B50A4E04460F4630467146CC
:1067E000754669F055FF2046FFF720FC054B304603
:1067F00084E88800294669F05DFF2046F8BD00BFA7
:10680000D5670008F0410A08F8B50A4D06460F465C
:1068100028467146744669F03BFF0C2303FB076072
:10682000BC30FEF76DFD21460646284669F042FF62
:106830003046F8BD0968000870B50B4E0446714635
:106840003046754669F024FF23682046DB6C984784
:1068500001462046FFF7D8FF29460446304669F036
:1068600029FF204670BD00BF396800082DE9FF4BA5
:10687000DFF8648071464046774669F009FF1348A7
:10688000FFF7DAFF124B06460068D3F8009096F047
:1068900047FD04467068D9F800B00D4696F040FDFB
:1068A000CDE90001B06896F03BFDCDE9020122463A
:1068B0004846DBF8206007492B46B047404639463A
:1068C00004B0BDE8F04B69F0F5BE00BF8065002064
:1068D000CC610020A2F509086D680008F8B50A4DE2
:1068E00006460F4628467146744669F0D1FE0C23D1
:1068F00003FB07609830FEF703FD21460646284655
:1069000069F0D8FE3046F8BDDD68000870B50B4E62
:10691000044671463046754669F0BAFE2368204643
:106920009B6C984701462046FFF7D8FF294604464E
:10693000304669F0BFFE204670BD00BF0D690008FB
:10694000F8B50A4D06460F4628467146744669F06A
:106950009FFE0C2303FB07607430FEF7D1FC214639
:106960000646284669F0A6FE3046F8BD4169000893
:1069700070B50B4E044671463046754669F088FE88
:10698000236820469B6C984701462046FFF7D8FFB6
:1069900029460446304669F08DFE204670BD00BF92
:1069A000716900082DE9F04BDFF89880224C8CB01B
:1069B00071464046774669F06BFE2046FFF7A6FF1A
:1069C00005684268D0F808B00B922046FFF7D0FF68
:1069D0001A49D1F800900646D9F800300A932846A3
:1069E00096F09EFC0B9A044610460D4696F098FCD5
:1069F000CDE90001584696F093FCCDE902013068DC
:106A000096F08EFCCDE90401706896F089FCCDE922
:106A10000601B06896F084FCCDE908010A9B08499C
:106A20001E6A484622462B46B047404639460CB0BF
:106A3000BDE8F04B69F03EBE80650020CC610020CF
:106A4000C5F50908A569000838B5094D71462846FD
:106A5000744669F01DFE074B0749186803681B6AF6
:106A6000984728462146BDE8384069F023BE00BF5C
:106A7000496A0008CC61002004F609082DE9FF4BA3
:106A8000834F844D844C71463846764669F000FE4B
:106A9000D5F800802068D8F800300A30D3F820906C
:106AA000FDF788FDB0F90020206803920C30FDF757
:106AB00081FDB0F900B02068784C0E30FDF77AFD0A
:106AC000B0F900307649039A009340465B46C847C8
:106AD000D5F800802068D8F800300A30D3F820902C
:106AE000FDF768FDB0F90020206803920C30FDF737
:106AF00061FDB0F900B020686A4C0E30FDF75AFD18
:106B0000B0F900306849039A009340465B46C84795
:106B1000D5F800802068D8F800300A30D3F82090EB
:106B2000FDF748FDB0F90020206803920C30FDF716
:106B300041FDB0F900B020685C4C0E30FDF73AFD25
:106B4000B0F900305A49039A009340465B46C84763
:106B5000D5F800802068D8F800300A30D3F82090AB
:106B6000FDF728FDB0F90020206803920C30FDF7F6
:106B700021FDB0F900B020684E4C0E30FDF71AFD33
:106B8000B0F900304C49039A009340465B46C84731
:106B9000D5F80080D8F8003004F5B170D3F8209013
:106BA000FDF708FDB0F90020039204F5B270FDF77F
:106BB00001FDB0F900B004F5B370FDF7FBFCB0F9CE
:106BC00000303E49039A009340465B46C847D5F8DB
:106BD0000080D8F8003004F5C170D3F82090FDF79C
:106BE000E9FCB0F90020039204F5C270FDF7E2FC65
:106BF000B0F900B004F5C370FDF7DCFCB0F900306B
:106C00002F49039A009340465B46C847D5F8008059
:106C1000D8F8003004F5D170D3F82090FDF7CAFC05
:106C2000B0F90020039204F5D270FDF7C3FCB0F96F
:106C300000B004F5D370FDF7BDFCB0F90030039A45
:106C40002049009340465B46C8472D682B6804F5F1
:106C5000E170D3F82080FDF7ADFCB0F900B004F589
:106C6000E270FDF7A7FCB0F9009004F5E370FDF7C2
:106C7000A1FCB0F900300093284613495A464B4610
:106C8000C0473846314604B0BDE8F04B69F012BD4C
:106C90007D6A0008CC610020D8600020C861002017
:106CA00016F609084016002029F609081C64002081
:106CB0003CF60908501800204FF6090862F609084A
:106CC00075F6090888F609089BF6090838B50546DF
:106CD00071460948744669F0DBFC6B79064813F08D
:106CE000040F064B14BFFF2201221A732146BDE890
:106CF000384069F0DFBC00BFCD6C000848160020AA
:106D000070B50F4D064671462846744669F0C0FCC2
:106D1000FDF7BAFBD6F805609FED0A7A0A4B07EE3D
:106D2000906A67EE877A1860FDEEE77A074BC3ED4D
:106D3000007A28462146BDE8704069F0BBBC00BF20
:106D4000016D000800007A446C16002064160020D3
:106D500070B50B4D064671462846744669F098FC9E
:106D6000D6F80520074B07EE902AFDEEE77A284675
:106D7000C3ED007A2146BDE8704069F09BBC00BFBE
:106D8000516D00086416002038B5094D714628463B
:106D9000744669F07DFCFDF785FCFEF7A9F8054B0C
:106DA000186021462846BDE8384069F083BC00BF22
:106DB000896D0008D4670020F8B5044671461A486A
:106DC0001A4D764669F064FCD4F80930E779002B57
:106DD000B8BF5B422B80A37943EA0727237A144C80
:106DE00047EA034747F317072760FEF781F8874212
:106DF00002DA2B885B422B80FFF7C6FFB5F9000053
:106E00000A2390FBF3F0FEF74BF80A4B22785A70F6
:106E100062789A70A278DA70FDF730FC3146024849
:106E2000BDE8F84069F046BCB96D0008DC600020A0
:106E300064160020BC5D0020F7B50C4D06460F46D9
:106E400028467146744669F023FC07EE107AF8EE86
:106E5000477A02A961ED017A06F10C00FFF7A6FC62
:106E60002846214669F026FC03B0F0BD396E0008C3
:106E700070B5064D744671460646284669F008FC12
:106E80002846214669F016FC304670BD716E000838
:106E900070B5084E714604463046754669F0F8FBF9
:106EA0002046FFF7E5FF3046294669F003FC2046FF
:106EB00070BD00BF916E000870B5084E7146044663
:106EC0003046754669F0E4FB2046FFF7D1FF3046B7
:106ED000294669F0EFFB204670BD00BFB96E00087F
:106EE00070B5154E714604463046754669F0D0FBC4
:106EF0002046FFF7E1FF601CFFF7DEFFA01CFFF755
:106F0000DBFFE01CFFF7D8FF201DFFF7C1FFA01D2E
:106F1000FFF7BEFF04F10800FFF7BAFF04F10A0013
:106F2000FFF7B6FF04F10C00FFF7C6FF3046294615
:106F300069F0C0FB204670BDE16E000870B5084ED8
:106F4000714604463046754669F0A2FB2046FFF7BD
:106F50008FFF3046294669F0ADFB204670BD00BF6B
:106F60003D6F000870B5084E7146044630467546C0
:106F700069F08EFB2046FFF77BFF3046294669F01B
:106F800099FB204670BD00BF656F000870B5084EC4
:106F9000714604463046754669F07AFB2046FFF795
:106FA0008BFF3046294669F085FB204670BD00BF47
:106FB0008D6F000870B5074E044671463046754621
:106FC00069F066FB044B23603046294669F072FB8A
:106FD000204670BDB56F000868E7090870B5094E16
:106FE000044671463046754669F052FB2046FFF76D
:106FF000E1FF054B23603046294669F05BFB2046E4
:1070000070BD00BFDD6F0008B84A0A0870B5094EB0
:10701000044671463046754669F03AFB0023304617
:107020006370A370E3702371294669F043FB204627
:1070300070BD00BF0D70000870B50A4E7146044661
:107040003046754669F024FB201DFFF7C7FF04F1A9
:107050001400FFF7DBFF3046294669F02BFB204682
:1070600070BD00BF3970000870B5084E0446714607
:107070003046754669F00CFB00233046A360636020
:107080002360294669F016FB204670BD6970000830
:1070900070B5084E714604463046754669F0F8FAF8
:1070A00004F12400FFF7E0FF3046294669F002FBB7
:1070B000204670BD9170000870B5074E04467146B9
:1070C0003046754669F0E4FA044B236030462946A1
:1070D00069F0F0FA204670BDB970000868E609084A
:1070E00070B50C4E044671463046754669F0D0FACC
:1070F0002046FFF7E1FF084B2360002384F820308F
:107100002046FEF7EDFF3046294669F0D3FA2046C7
:1071100070BD00BFE170000878E6090870B5094E3F
:10712000044671463046754669F0B2FA2046FFF7CC
:10713000D7FF054B23603046294669F0BBFA20464D
:1071400070BD00BF1D71000888E6090870B5094EC2
:10715000714604463046754669F09AFA2046FFF7B4
:1071600087FE2046FFF780FF3046294669F0A2FAE5
:10717000204670BD4D71000870B5084E044671463A
:107180003046754669F084FA002330466360236018
:10719000294669F08FFA204670BD00BF797100085A
:1071A00070B50C4E044671463046754669F070FA6B
:1071B0004FF07E532362236123600023A36063604A
:1071C0006361E360E361A36130462946BDE8704036
:1071D00069F070BAA171000870B50C4E7146044692
:1071E0003046754669F054FA2046FFF73DFF04F13A
:1071F0000C00FFF739FF04F11800FFF735FF3046A8
:10720000294669F057FA204670BD00BFD9710008C1
:1072100070B5074E044671463046754669F038FA37
:10722000044B23603046294669F044FA204670BD7D
:1072300011720008E0E6090870B5074E0446714671
:107240003046754669F024FA044B236030462946DF
:1072500069F030FA204670BD3972000820E709084D
:1072600070B50B4E044671463046754669F010FA0B
:107270002046FFF721FF074B23600023237620469B
:10728000FEF748FF3046294669F014FA204670BDE3
:107290006172000848E7090870B50A4E0446714655
:1072A0003046754669F0F4F92046FFF7D9FF064BE2
:1072B0002360002330466376294669F0FBF92046B7
:1072C00070BD00BF9972000858E7090870B5114EEB
:1072D000714604463046754669F0DAF92046FFF7F4
:1072E00041FE201DFFF73EFE04F10800FFF73AFEC5
:1072F00004F10C00FFF736FE04F11000FFF7C8FDA3
:1073000004F11200FFF7C4FD3046294669F0D2F9B6
:10731000204670BDCD720008F8B5084E04460F46F1
:1073200030467146754669F0B3F900233046276050
:10733000A380294669F0BEF92046F8BD19730008FC
:107340002DE9F0410A4E04460F4630467146754617
:10735000904669F09DF9002330462371A760C4F878
:107360000C80294669F0A6F92046BDE8F08100BFEF
:107370004173000870B5074E0446714630467546A5
:1073800069F086F9044B23603046294669F092F98A
:10739000204670BD75730008C8E60908F8B50C4EA4
:1073A00004460F4630467146754669F071F920462D
:1073B000FFF7E0FF074B236000236360FF233046A5
:1073C000A7602373294669F075F92046F8BD00BF10
:1073D0009D73000808260A0870B5094E04467146D8
:1073E0003046754669F054F92046FFF7C3FF054B58
:1073F00023603046294669F05DF9204670BD00BF24
:10740000D973000800270A0870B5074D0646714673
:107410002846744669F03CF936782846214669F0DA
:1074200049F9304670BD00BF0974000870B5074DBA
:10743000064671462846744669F02AF93678284689
:10744000214669F037F9304670BD00BF2D74000841
:1074500070B5074D064671462846744669F018F91E
:1074600036782846214669F025F9304670BD00BFC0
:107470005174000870B5074D06467146284674469B
:1074800069F006F936782846214669F013F9304646
:1074900070BD00BF7574000870B5074D0646714693
:1074A0002846744669F0F4F836782846214669F093
:1074B00001F9304670BD00BF9974000870B5074DE2
:1074C000064671462846744669F0E2F83678284642
:1074D000214669F0EFF8304670BD00BFBD7400086A
:1074E00070B5074D064671462846744669F0D0F8D7
:1074F00036782846214669F0DDF8304670BD00BF79
:10750000E174000870B5074D06467146284674467A
:1075100069F0BEF836782846214669F0CBF8304647
:1075200070BD00BF0575000870B5074D0646714671
:107530002846744669F0ACF836782846214669F04A
:10754000B9F8304670BD00BF297500082DE9F0413B
:107550000E46804671460E481446754669F098F806
:107560000C4B1C800C4B00241E60A7B21C2000FB9F
:107570000760FFF749FF01340028F6D1074B0448A4
:107580001F70294669F096F84046BDE8F08100BFBB
:107590004D750008087E0020047E0020007E00203B
:1075A00070B5074D744671460646284669F070F876
:1075B0002846214669F07EF806F50B7070BD00BFC5
:1075C000A175000870B5074E0446714630467546F1
:1075D00069F05EF8044B23603046294669F06AF88A
:1075E000204670BDC575000850410A0870B5074EA9
:1075F000044671463046754669F04AF8044B2360EC
:107600003046294669F056F8204670BDED750008F1
:10761000B8240A0870B5094E0446714630467546CE
:1076200069F036F8064B23602046FFF7DFFF30464F
:10763000294669F03FF8204670BD00BF1576000866
:1076400028250A0870B5094E04467146304675462D
:1076500069F01EF8064B23602046FFF7B3FF304663
:10766000294669F027F8204670BD00BF457600081E
:1076700000420A0870B5094E044671463046754608
:1076800069F006F8064B23602046FFF7C3FF30463B
:10769000294669F00FF8204670BD00BF75760008D6
:1076A00098250A0870B5094E71460446304675465D
:1076B00068F0EEFF2046FFF785FF204669F0F0F8FE
:1076C0003046294668F0F6FF204670BDA5760008D2
:1076D00070B5094E714604463046754668F0D8FFCD
:1076E0002046FFF783FF204669F0DAF83046294646
:1076F00068F0E0FF204670BDD176000870B5094EF5
:10770000714604463046754668F0C2FF2046FFF7D2
:1077100081FF204669F0C4F83046294668F0CAFF68
:10772000204670BDFD76000870B5094E71460446CE
:107730003046754668F0ACFF2046FFF783FF2046D1
:1077400069F0AEF83046294668F0B4FF204670BDB7
:107750002977000870B5094E7146044630467546D3
:1077600068F096FF2046FFF785FF204669F098F8FD
:107770003046294668F09EFF204670BD55770008C8
:1077800070B50B4D71462846744668F081FF094B71
:1077900009481E78FCF73EFD31460278074813F091
:1077A00033FB28462146BDE8704068F083BF00BF28
:1077B000817700085E1000205E1800202816002047
:1077C00010B571468AB00E48744668F061FF0D48E6
:1077D00041F0D6F80B480C4940F0E6FF0B4BD86B54
:1077E00003686946DB68984718B10648694641F066
:1077F00045F80348214668F05DFF0AB010BD00BFA0
:10780000C1770008685D0020AEF60908487C0020BA
:10781000F8B5714606461748754668F039FF1648B0
:10782000FCF7FCFD046834401DD0144E33780BB1D6
:10783000002418E01248FCF7DDFD30B90E48FCF7D3
:10784000EDFD046814F480340DD00E48FCF7F6FD0D
:1078500040B90D4B1F7801242FB93470FFF7B0FFEA
:10786000377000E001240348294668F023FF2046D2
:10787000F8BD00BF11780008D81800201869002052
:10788000F41A0020685D00202867002070B5094DBB
:10789000094E71462846744668F0FAFE304640F0BC
:1078A00049FA304640F0DCFA28462146BDE87040EF
:1078B00068F000BF8D780008685D002038B5084D7D
:1078C00071462846744668F0E3FE0648064940F0D3
:1078D00033FB28462146BDE8384068F0EBBE00BFC8
:1078E000BD780008685D00208065002010B50A485A
:1078F0007146744668F0CCFE0848FCF7E5FC90F948
:10790000003013B1064812F0EBFB21460248BDE8F7
:10791000104068F0CFBE00BFED780008FC180020D2
:107920008816002038B5094D71462846744668F01F
:10793000AFFE074822F0CEFD064811F033FF28467F
:107940002146BDE8384068F0B5BE00BF2579000883
:1079500050670020E4600020F8B5714607460C48E7
:10796000754668F095FE0024E6B2304644F06CF8A7
:10797000372804D9074831463A4610F085F90134D2
:10798000032CF1D129460248BDE8F84068F092BEC8
:1079900059790008DC67002070B535482DED028B61
:1079A0007146744668F074FE3248FCF7A3FD002867
:1079B00055D03148FCF7CEFD022850D92E48FCF7AF
:1079C000FBFCF1EE007AB4EEE70AF1EE10FA46D4D1
:1079D0002848FCF7D7FD2948B0EE408AFCF7EAFDBD
:1079E000B0F9000007EE900AF8EEE77AB4EEE78A05
:1079F000F1EE10FA12D52048FCF7DEFC1F48B0EE7D
:107A0000408AFCF7D7FDB0F9000007EE900AF8EEC7
:107A1000677AB4EEE78AF1EE10FA20D4184D194ACD
:107A20002B691268002BB8BF5B42934217DC1648E3
:107A30006E69FCF7BFFDB0F900309E420FDC134BBE
:107A40006A691B689A420ADB0B48FCF7D9FD0546B8
:107A50002946084810F036F82846FFF77DFFBDECB0
:107A6000028B21460248BDE8704068F023BE00BF8B
:107A700099790008DC6700208064002024640020DD
:107A8000F41A0020D461002028640020AC6000209B
:107A9000F8B507460E460E487146754668F0F8FD83
:107AA00000240C48225C22B120443946324643F07F
:107AB00037F8CC34B4F5197FF3D13146064840F09D
:107AC00073FE29460248BDE8F84068F0F3BD00BFE8
:107AD000917A0008105E0020685D002038B571467C
:107AE0000C48744668F0D4FDFDF704FD0A4B996814
:107AF0005A6891424FF0000505DD012007495D609D
:107B0000FFF7C6FF01250348214668F0D3FD28464C
:107B100038BD00BFDD7A000848160020D0F60908FD
:107B200070B5144C14487146754668F0B1FDFDF708
:107B3000E1FC26695EB9114B186803681B6B984716
:107B400008B900240FE0FCF79FFC2061F9E7FCF77F
:107B50009BFC23696269C01A9042F2D9012008494E
:107B6000FFF796FF01240448294668F0A3FD20464C
:107B700070BD00BF48160020217B00088410002043
:107B8000F3F6090838B515487146754668F080FD6A
:107B9000FDF7B0FC124B13481C68FCF70BFDB0F965
:107BA0000030002B05DD0F48FCF704FDB0F9003074
:107BB00000E000239C4206D90B4B186803681B6B3E
:107BC0009847044620B101200849FFF761FF0124CE
:107BD0000248294668F06EFD204638BD857B0008C6
:107BE000CC670020821800208410002014F70908B8
:107BF000F8B5714605461848764668F049FD2DB33C
:107C0000012401201549164FFFF742FF4FF4AF61E1
:107C100020463C70FDF7E4FF4FF4C870FDF764FFA9
:107C20004FF4C8612046FDF7DBFFC820FDF75CFF7D
:107C3000204640F2DC51FDF7D3FF013D00234FF415
:107C4000C8703B70EDB2FDF74FFFD8E731460248F0
:107C5000BDE8F84068F02EBDF17B000821F7090867
:107C60002016002038B5714605460A48744668F06B
:107C70000FFD0A2D07D10848FCF7EEFC012802D1C0
:107C8000054820F0EBFD21460248BDE8384068F089
:107C900011BD00BF657C00087861002070B5084DFB
:107CA000714606462846744668F0F2FC06F1180054
:107CB0000BF0ACFE28462146BDE8704068F0FABCE7
:107CC0009D7C000870B5084D7146064628467446EE
:107CD00068F0DEFC06F118000BF098FE28462146FD
:107CE000BDE8704068F0E6BCC57C000838B5094DB9
:107CF00071462846744668F0CBFC0748FFF7CEFF74
:107D00000648FFF7DFFF28462146BDE8384068F007
:107D1000D1BC00BFED7C0008905C002070680020A2
:107D200070B5084D714606462846744668F0B0FCAA
:107D300006F118000BF022FC28462146BDE87040F1
:107D400068F0B8BC217D000870B5084D7146064644
:107D50002846744668F09CFC06F118000BF00EFCF7
:107D600028462146BDE8704068F0A4BC497D000863
:107D700038B5094D71462846744668F089FC0748B5
:107D8000FFF7CEFF0648FFF7DFFF28462146BDE894
:107D9000384068F08FBC00BF717D0008905C002007
:107DA0007068002070B5714606460B48754668F04D
:107DB0006FFC00240948225C1AB12044314642F08D
:107DC0002FFECC34B4F5197FF4D129460248BDE822
:107DD000704068F06FBC00BFA57D0008105E0020F9
:107DE0002DE9F043394E3A4885B07146754668F042
:107DF0004FFC336883B9374BD86B03681B699847CE
:107E0000B0F52F7F50D30120BC2164F0B1F8306071
:107E1000002849D0FE2303742F48FCF755FA90F947
:107E20000030002B4FF0000706DC04A92A4801F8B7
:107E3000017DFCF74BFD42E02748FCF745FA90F93D
:107E40000030FCB29C4207F1010810DA3368684642
:107E5000214604F1030903EBC909FCF7F5FC9DE891
:107E6000030009F1040383E803004746E4E73068B0
:107E7000164F00F8244B611E1FF0ECF8A0B13968D2
:107E80000A7801F11C00013A24311FF071F858B949
:107E90003A6812499070012318465370FFF7F8FDB5
:107EA0001420FFF77FFF0AE004A9002301F8013D39
:107EB0000B48FCF70BFD03200A49FFF7E9FD0448D6
:107EC000294668F0F7FB05B0BDE8F083A460002008
:107ED000E17D0008487C0020891800202EF7090861
:107EE000881800203FF70908F8B505460E460C48EB
:107EF0007146744668F0CCFB0A4B1A681F4612B9EB
:107F00000DB1FFF76DFF3B681BB15D719E710125DF
:107F100000E01D460248214668F0CCFB2846F8BD2B
:107F2000E97E0008A460002070B57146044612483E
:107F3000124E754668F0ACFB032C15D13378032B39
:107F400012D00F48FCF7C0F990F90030012B0BD18B
:107F500000200221FFF7C8FF10B92046094901E0BF
:107F600009492046FFF794FD347029460248BDE8D0
:107F7000704068F09FBB00BF297F000854100020AC
:107F80009218002055F7090878F709082DE9FF4BEA
:107F90002E487146754668F07BFB2D4B1B78002BF5
:107FA0003ED02C4B1B78002B3AD12B4B2B4C1B7803
:107FB0000A2B0FD12378DA0701D402200BE02848DE
:107FC000FCF706FC8378152B37D123789B0734D533
:107FD000042000E00120234EFFF7A6FF33685F680E
:107FE000FCF788FC204BB4F908401A681F4B93F843
:107FF00000801F4BB3F8009003928346FCF7A4FC6B
:108000000FFA89F30193304600945946039A434688
:10801000B8474FF40060FFF7FBFB08B1FCF7CCFC5E
:10802000144810F0E5FD1448FCF7E0FC0748294629
:1080300004B0BDE8F04B68F03DBB0948FCF7C8FB55
:108040008378152BC6D10320C5E700BF8D7F0008BC
:108050006B160020A86000205E1000206C1000202D
:108060007861002094620020185D002054100020E8
:108070003C610020F8610020DC670020F8B5194859
:10808000194D7146744668F003FB1848FCF71CF95B
:1080900090F90000B0B1164B14481E6B3368DF68CE
:1080A000FCF712F9017801393046C9B2B84740F2FD
:1080B000D663984205D92B6801201BB9FFF790FEC3
:1080C0000AE000202B683BB1DA781A719042D87030
:1080D00002D00121FFF708FF21460248BDE8F84021
:1080E00068F0E8BA7D800008A46000208A180020AB
:1080F000487C002070B5134D13487146764668F0F1
:10810000C7FAFFF7BBFF2C68B4B11048FCF7DCF8E6
:1081100090F900306BB1FCF725FF044648B10B48DD
:10812000FCF7D2F890F90030022B05D02B685C796F
:1081300014B92B6800249C700348314668F0BAFAE1
:10814000204670BDA4600020F5800008881800203B
:1081500038B50D487146754668F09AFAFFF7CAFFC0
:10816000044650B1094B1B6843B19B7833B1084BAF
:108170001C780F3C18BF012400E001240248294666
:1081800068F098FA204638BD51810008A4600020AC
:108190005E10002038B5074D71462846744668F0D9
:1081A00077FA1B20FFF7FEFD28462146BDE8384040
:1081B00068F080BA9581000810B571461848744679
:1081C00068F066FA174818491DF0BCFD174B184AAD
:1081D0001B78BCEEC00A0B2B82ED000A154A82ED1B
:1081E000000A0CD00F2B0AD00A2B10D1FCF7ACFBE5
:1081F000F3EE047AB4EEE70AF1EE10FA03DC0A4873
:10820000FCF70CFC18B10848FCF752FC01E0FCF745
:1082100035FA21460248BDE8104068F04BBA00BF6D
:10822000B981000830670020BC5D00205E1000208E
:10823000EC610020CC67002070B571461348144DE6
:10824000744668F025FA13484FF0FF3121F0B2FB75
:10825000431C064602D1104B6B6110E00F491048D9
:108260001DF0A4FD301A1DF047FC07EE900AB8EE91
:10827000E77ADFED0C7A67EE277AC5ED057A2146BD
:108280000248BDE8704068F015BA00BF39820008A6
:108290006C100020786100200000B442BC5D00201A
:1082A0001C6700200AD7233C10B571461748744656
:1082B00068F0EEF91648FCF77DF9B0F90030154882
:1082C000002B154BB4BFFF2201221A73134A036817
:1082D000136043685360836811489360114A0368D0
:1082E00013604368536083689360FCF7DBF9FFF722
:1082F0004DFEFFF761FFFFF79FFFFCF763FC214690
:108300000248BDE8104068F0D5B900BFA982000856
:108310008618002030670020481600201C670020C7
:10832000D9610020BC5D002038B51048104C714662
:10833000754668F0ADF90F4B186803681B699847DC
:10834000A268034612B12068181A00E001202360D9
:108350001DF0D2FBA36894F90C2002FB0030A06052
:1083600029460248BDE8384068F0A4B929830008CE
:1083700048160020841000202DE9F8437146324849
:10838000DFF8E080314F324C324E754668F080F9AC
:108390003148FCF785FC0138C0B244F0B7FBC8F89F
:1083A00000002D48FCF790FC0138C0B244F0AEFB51
:1083B00038602948FCF7B0FC0138C0B244F0A6FB95
:1083C00020602548FCF794FC0138C0B244F09EFBC5
:1083D00041F294113060D8F8000044F05FF838683A
:1083E00041F2941144F05AF8306841F2941144F08B
:1083F00055F820680021642244F034F8174810F042
:1084000007F828B9154810F04DF90128074605D09E
:1084100029460D48BDE8F84368F04CB9104B0E48AA
:108420005E6B3368D3F82480FCF776FC81462068C5
:108430000A30FCF7BFF809F1FF31028807FA01F1B1
:108440003046C047E4E700BF79830008C8610020D8
:10845000401600201C640020DE600020BC6000206C
:10846000487C0020D860002038B5084D7146284669
:10847000744668F00DF943F07FFE054821F0A2FC38
:1084800028462146BDE8384068F014B969840008E0
:108490005067002038B5074D71462846744668F08D
:1084A000F7F805483AF04EFA28462146BDE838402C
:1084B00068F000B9958400084061002010B50A48B2
:1084C0007146744668F0E4F80848FBF7FDFE90F941
:1084D000003013B1064811F0A7FC21460248BDE860
:1084E000104068F0E7B800BFBD840008FC18002009
:1084F0008816002038B5074D71462846744668F046
:10850000C7F805483DF016FB28462146BDE838402F
:1085100068F0D0B8F58400080016002038B50B4884
:108520007146754668F0B4F800240948235C1BB115
:108530002044084942F01AFCCC34B4F5197FF4D138
:1085400029460248BDE8384068F0B4B81D850008E7
:10855000105E00205985000838B5714604460F4862
:1085600068F096F80E4B9D6B2B682846DB6A00215D
:10857000012298472B6800215B692846052298470D
:10858000084B20461C60FCF767FC236820461B6CE8
:1085900001219847044820F025F9FBE75985000898
:1085A000487C0020CC6100200461002038B50A4DD1
:1085B00071462846744668F06BF8084B08491868FD
:1085C00003681B6A9847074820F00CF928462146A3
:1085D00068F070F8002038BDAD850008CC6100203F
:1085E00095F709081C69002038B50A4D71462846E0
:1085F000744668F04DF8084B0849186803681B6A10
:108600009847074820F0EEF82846214668F052F8CF
:10861000002038BDE9850008CC610020A1F70908D9
:108620007016002038B5074D71462846744668F02C
:108630002FF8054820F0D6F82846214668F03AF889
:10864000002038BD25860008C85D002070B5164D95
:108650002DED028B7146064628467446B0EE408AE0
:1086600068F016F83046FCF785F8B0EE480ADFED02
:108670000F0AB7EE001A1DF0C9F80D4B5B685B429C
:1086800007EE103AF8EEC77A20EE270ABDEEC00AD0
:1086900010EE100AFCF704FCBDEC028B28462146C4
:1086A000BDE8704068F006B84D8600080000000084
:1086B000D467002070B505460C46144871467646CE
:1086C00067F0E6FF6B78AA78A17843EA0222EB789C
:1086D00042EA0342637843EA0123E1780C4C43EA1F
:1086E000014342F3170243F317039A42D8BF1146DE
:1086F0002068CCBF19461A461DF026F82060314686
:108700000248BDE8704067F0D5BF00BFB5860008DD
:10871000D467002010B522487146744667F0B8FF50
:10872000204B1B78063BDBB2012B1BD91E4B186874
:1087300003681B6B984770B91C4B1B681E2B0AD92A
:108740001B4A12681E2A06D912E01A48FCF7BEFB23
:108750008378712B02D01848FCF70CF8FCF7ECFB7F
:10876000164B186021460E48BDE8104067F0A2BFC6
:10877000134949680029E8D01E3B07EE103A1E3A1B
:10878000B8EE470A07EE102AF8EE477A0A4880EE5C
:10879000270AFFF75BFF08480A49FFF78BFFDDE771
:1087A000158700085E10002084100020CC67002090
:1087B000EC61002078610020BC5D0020186700207B
:1087C000D46700201C67002070B50C4D0C4E71461C
:1087D0002846744667F05CFF0A4B186803681B68FC
:1087E0009847094B30601A6851421CF0ADFF214692
:1087F00030602846BDE8704067F05CBFC98700085C
:108800001816002084100020D46100202DE9F041CA
:108810000F4D104E71462846744667F039FF0E48DA
:108820000368DB6898470D4B306007460C48D3F867
:108830000080FDF739F84146B0F9002038461CF0B9
:1088400083FF214630602846BDE8F04167F032BF23
:108850000D880008C067002094620020AC600020F2
:108860002864002038B5084D71462846744667F0E4
:108870000FFF0648064940F0B3F828462146BDE8F8
:10888000384067F017BF00BF65880008685D0020AA
:10889000F861002070B5084D7146064628467446BA
:1088A00067F0F6FE06F137003BF0F6F82846214661
:1088B000BDE8704067F0FEBE95880008F8B57146C7
:1088C00006464C484C4C754667F0E2FE4B484C4B14
:1088D00007784C4AC7F3C00EBEF1000F0AD02168DA
:1088E00019606168596007F0F707A168996047F05F
:1088F000100707E011681960516859609168996024
:108900006EF304173168116071685160B16891604D
:10891000516807703B4B31BB996821BB6168596056
:10892000A168987899605978334E41EA0021D87847
:1089300041EA004141F31701A9B9B478707840EADF
:108940000420F47840EA044040F31700C0F3072401
:108950005870C0F30740D87018789C7061F300001D
:1089600061F3C30018701278264BD1071ED56FF340
:10897000000298781A705A7842EA0020DA7840EAC1
:108980000240214A11684A788C78C97842EA042268
:1089900042EA014240F3170042F317020244C2F3D5
:1089A00007215A70C2F307429970DA70124E144CC4
:1089B000144A304621461DF03FFA48B101201349C0
:1089C000FFF766F83368236073686360B368A36079
:1089D0000C48FBF7CFFEFCF7F5F8FFF7EDFBFFF7D0
:1089E0002BFCFCF7EFF829460248BDE8F84067F099
:1089F00061BE00BFBD880008306700206C100020F9
:108A00001C670020BC5D0020006100206FF8090891
:108A100070B5184E044671463046754667F038FE0C
:108A2000601DFFF74BFFB4F80330134A03EB8303D9
:108A300003EB83039B001381104B9878597841EA2C
:108A40000021D87841EA004141F3170151600C49F7
:108A50000968486889680A300A3158609960137853
:108A60006FF30003137030462946BDE8704067F08D
:108A700021BE00BF118A00086C100020BC5D0020E0
:108A80000061002070B5084D7146064628467446C0
:108A900067F0FEFD701DFFF711FF28462146BDE877
:108AA000704067F007BE00BF858A000870B5084DAA
:108AB000714606462846744667F0EAFD701DFFF7CA
:108AC000FDFE28462146BDE8704067F0F3BD00BFBB
:108AD000AD8A000870B5094E7146044630467546A9
:108AE00067F0D6FD601DFFF7E9FE2046FEF7EEF8C1
:108AF00030462946BDE8704067F0DCBDD58A0008E5
:108B000070B50D4E044671463046754667F0C0FD9F
:108B1000601DFFF7D3FEB4F8032048F6A043D2B29D
:108B20005A43064B20465A60FEF7D0F83046294695
:108B3000BDE8704067F0BEBD018B000848160020FC
:108B400070B50E4E044671463046754667F0A0FD7E
:108B5000601DFFF7B3FE0A4B00221A61B4F8032030
:108B60004FF47A714A4320465A61FEF7AFF8304617
:108B70002946BDE8704067F09DBD00BF418B0008ED
:108B80004816002070B53D4C3D482DED028B7146D6
:108B9000764667F07DFD2378DBB93A4B1B68B3F965
:108BA0000230B3B9384B1B68B3F902308BB9374880
:108BB000FBF7D0FC01280CD93448FBF7FDFBF0EEA5
:108BC000087AB4EEE70AF1EE10FA02DBA368002B94
:108BD0003BD0A368294D4BB12D4B986B03689B6824
:108BE0009847AB68C01AB0F5FA7F35D8237823B31D
:108BF000284D294C2B6823606B686360AB68A360C9
:108C00001E4BDFED267A93ED018A2549B8EEC88A1E
:108C1000284628EE278A1DF095F8DFED220A204627
:108C200070EE200AB0EE480A1DF08CF91E4B186851
:108C3000036829461B6A22469847BDEC028B3146E1
:108C40000F48BDE8704067F035BD114B986B036865
:108C50009B689847A060BCE701232B700B4800235A
:108C6000AB60FCF79DFC0E490A4A0B6813604B6829
:108C700053608B6868609360B8E700BF406700206E
:108C8000858B0008D86000201C64002080640020D0
:108C9000487C00201C670020BC5D00200AD7233CD4
:108CA0003067002000007A4484100020F8B50B4F94
:108CB000044671463846764667F0EAFC94F894100C
:108CC000204601F0030115F01BFF04460D4638460F
:108CD000314667F0EFFC20462946F8BDAD8C000810
:108CE00010B50C487146744667F0D2FC0A4810F083
:108CF0003BFD4FF48050FEF78BFD28B10748084933
:108D0000084A094B3FF0CCFA21460248BDE8104022
:108D100067F0D0BCE18C0008E4600020685D0020B2
:108D2000F41A0020806400203067002038B50B4D15
:108D300071462846744667F0ABFC0948FCF788FC8E
:108D4000014608480EF030F907480FF0BFFD2846ED
:108D50002146BDE8384067F0ADBC00BF2D8D00084E
:108D600080640020F41A0020F861002070B5094EDC
:108D7000714604463046754667F08AFC20461EF070
:108D800067FC20461EF068FB30462946BDE870406F
:108D900067F090BC6D8D000810B52DED028B234857
:108DA00084B07146744667F073FC2148FBF7D2FB30
:108DB000012833D91F480EF03FFB1E488DED000AF5
:108DC000CDED010A0EF082F9034693ED000AD3EDD2
:108DD000030A02A8FCF754FC02A8FFF7C7FF02A889
:108DE00069461EF0F5FA1448B0EE408AFBF716FB10
:108DF0000368002B0FDD1048FBF710FBD0ED007A65
:108E00009FED0E7AF8EEE77AE8EE477AFDEEE77A24
:108E100017EE903A00E00023094A13600348214608
:108E200067F048FC04B0BDEC028B10BD998D0008C2
:108E300080640020F41A0020F41800200000C842CA
:108E4000C46700202DE9FF4B2A487146774667F03A
:108E50001FFCFDF74DFA4FF47A70FDF763FA00241A
:108E60006420FDF75FFA2448244E12F059FB224893
:108E7000FCF7C2FBA042054627D01F48FCF7BCFB0D
:108E800005461D48FCF7E4FBD6F800808178D8F849
:108E90000030C478D3F820904378D0F808B0426806
:108EA0001548039243EA012343EA044444F31704B8
:108EB000642394FBF3F4FDF7DFFA0094019010496A
:108EC000039A40465B46C84704E030680D49036892
:108ED0001B6A9847306803689B689847002801DC44
:108EE0002C46BDE70348394667F0E4FB002004B098
:108EF000BDE8F08B458E000880640020CC61002026
:108F000081F80908A8FF09082DE9E841144E7146C7
:108F100080463046754667F0BBFB124B12485A78C4
:108F20009F78DB7842EA072747EA0347FCF7C4FB50
:108F3000827843780D4943EA0223C2780C4843EA19
:108F4000024347F3170743F317034246FB1A3EF069
:108F5000FDFD30462946BDE8E84167F0ABBB00BFE8
:108F6000098F000830670020F41A00208064002078
:108F7000685D0020F8B516487146764667F088FBB4
:108F8000144812F0CDFA00251248FCF7A7FBECB20A
:108F9000844217D20F48104F2146FCF719FB57F8AF
:108FA000243098420CD00B482146FCF711FB47F8BF
:108FB00024000420FEF72CFC10B12046FFF7A4FF8C
:108FC0000135E1E731460248BDE8F84067F072BB81
:108FD000758F000880640020786400202DE9F0413E
:108FE00071462DED028B80463448764667F050FB83
:108FF0003348FBF769F9334B04781B780A2B0AD105
:10900000314B1B78DB0706D43048FBF75DF990F94C
:109010000030002B4DD1002C43D02D4D2D4B286816
:1090200093ED008A0E30FBF7C5FAB0F9007028689E
:109030000A30FBF7BFFA06EE904ADFED277AB0F967
:1090400000302C68B8EEE67A68EE277AFB1A67EEF5
:10905000877A07EE103AB8EEC77AF7EE006AB0EEFC
:10906000C77A67EE877AB4F90800F4EE667AF1EE13
:1090700010FA48BFF0EE667A06EE908AB8EEE67A0D
:1090800077EE676A77EE877AFDEEE66AFDEEE77ABD
:1090900016EE901A17EE902A09B212B21CF03CFBA1
:1090A0002081BDEC028B31460448BDE8F04167F0F9
:1090B00001BB0648FBF708F90478ACE7DD8F000830
:1090C000226400205E1000206C1000202019002077
:1090D00040160020000000200AD7233C2DE9F04B69
:1090E00017468846834671462C48764667F0D0FA84
:1090F000B8F800903C882A48A9F2DC59A4F2DC5464
:109100000FFA89F924B2FBF773FDC4EB090307EEEC
:10911000903A90ED007A2248F8EEE77A4C4467EEF8
:10912000877AFDEEE77A17EE905AFBF761FD07EEBE
:10913000904A90ED007AF8EEE77AADB267EE877A62
:10914000FDEEE77A17EE904AA4B2BBF1040F0BD8FC
:10915000DFE80BF01E0A080306006D42ADB203E023
:109160006D42ADB26442A4B228B20E494FF41672F9
:109170001CF0D2FA0B4905464FF4167220B21CF0CF
:10918000CBFA05F2DC5500F2DC50A8F8005038802C
:1091900031460248BDE8F04B67F08CBADD9000081C
:1091A000CC180020A8FDFFFF70B50F4D7146284672
:1091B000744667F06DFA0D4B186843F06DFBDFEDF8
:1091C0000C7A40EE277A64220021FDEEE77A17EE52
:1091D000900A00B21CF0A0FA21460646284667F025
:1091E00069FAF0B270BD00BFA991000840160020D6
:1091F0000000484238B571462DED028B1F48744679
:1092000067F046FAFFF7D0FF05461D48FBF75CF80C
:1092100090F900309D4228DA1948FBF755F890F98B
:10922000003017485D1B07EE105AF8EEC78AFBF7AF
:109230004BF890F9000008EE100AB8EEC88A114801
:1092400088EE888AFBF7B6F90F4BB0F9000093ED72
:10925000007AF8EEC77A07EE100AB8EEC77AE8EEA1
:10926000477AFDEEE77AC3ED007ABDEC028B21462A
:109270000248BDE8384067F01DBA00BFF59100080C
:109280002364002072180020C06700202DE9F041FF
:109290002148224D2DED028B7146744667F0F8F996
:1092A0001F48FBF7A5FCD0ED007AF5EEC07AF1EE91
:1092B00010FA02D800232B7025E01A4E1A4837689E
:1092C0003B68D3F80880FAF7FFFF01783846C047BB
:1092D000306803685B6998471148B0EE408AFBF735
:1092E00087FCDFED127A28EE278AD0ED007A88EE2F
:1092F000278A0021FF22BDEEC88A18EE100A00B2AC
:109300001CF00AFA2870BDEC028B21460248BDE829
:10931000F04167F0CFB900BF8D9200083C67002094
:10932000041900201C1600200119002000007F43B2
:1093300010B52DED028B2A4882B07146744667F055
:10934000A7F9284801A90DF005FE08B3264BDDED6D
:10935000017A93ED037AF4EEC77AF1EE10FAF5EEA6
:10936000C07AC8BFC3ED037AF1EE10FA09DD1F48D9
:10937000FBF73EFCDDED017A90ED000A80EE270A56
:1093800001E0B0EE000AF6EE000AB0EE001A18E0B6
:10939000174B1B68B3F90430002B0CDD07EE903A35
:1093A000B8EEE70ADFED137A87EE800AF6EE007A70
:1093B00030EE270A01E09FED100ADFED100A9FED65
:1093C0000E1A1CF023FA06482146B0EE408A67F0D8
:1093D00071F9B0EE480A02B0BDEC028B10BD00BFBF
:1093E00031930008F41A00206C100020741800203B
:1093F000401600200000B4418FC2D53F9A99193F12
:1094000070B51C481C4D2DED028B71467446B0EEB4
:10941000408A67F03DF9FCF71BFA184B58B11A68FF
:10942000296902F58C4050300029186003DAA2F552
:109430008C42503A1A60124A12491278022A06D116
:109440000A68B2F90220003218BF012200E00022AF
:109450000E6819682B690C48C91AB0EE480A0BF05F
:1094600095F9B080BDEC028B21460248BDE8704002
:1094700067F020B901940008F41A002018160020A3
:109480005E100020D8600020905C0020F8B55A4F94
:109490005A485B4D5B4C2DED048B71467646B0EE21
:1094A000408A67F0F5F83B685748B3F90230DFEDC2
:1094B000579A09EE103AFBF77DF8B0F900002B68D7
:1094C00007EE900AB8EEC99AB3F902305048F8EEA8
:1094D000E77A29EE299A08EE903A29EE279AFBF7C7
:1094E00069F8B0F90000F8EEE88A07EE900A68EE35
:1094F000A99AF8EEE77A474869EEA78AFAF7E4FEF8
:1095000090F9003023B1B5EE409AF1EE10FA17D081
:10951000002341482370B0EE490AF0EE480A3F6844
:109520000BF012F9B8803B48FAF7CEFE90F9003004
:10953000002B56D0F5EE408AF1EE10FA2ED050E016
:10954000237823B901232370002363600DE033489F
:109550000DF0A0FD324BD4ED017AD3ED006A90ED11
:10956000007AE6EE877AC4ED017A94ED010A1CF0E8
:109570001DF9DFED2C7A294B27481A692A4B3F68E1
:1095800020EE670ABDEEC00A10EE101A0A441A60F7
:10959000B0EE480A01220BF0F9F8C3E76178194BE5
:1095A0001E4A19B901215970516999601F49A36870
:1095B0000B6051691E482C68591AB0EE480A002207
:1095C0000AF074FE1B4BA0801B680C485A881A4B8B
:1095D0009A805A80BDEC048B3146BDE8F84067F0B4
:1095E00069B80023B0EE680AF0EE480A10486370CC
:1095F0002C680AF015FDE5E7D86000208D9400087E
:10960000C8610020B0600020C018002053046939F0
:10961000C2180020C4180020905C0020F41A00201A
:10962000000000200000C84218160020C06700207B
:10963000706800201C6400205C5D002070B51D482F
:109640007146754667F024F81B48FAF73DFE90F91D
:10965000004044B3194B986B03689B689847184BBC
:109660001B69C01AB0F57A7F1CD8164C206842F0EE
:1096700029FF23681E8850B11348FAF79BFFB0F901
:10968000004036B2B442CCBF002401240BE00E48A7
:10969000FAF790FFB0F9004036B2B442B4BF0024EC
:1096A000012400E001240348294667F003F820461E
:1096B00070BD00BF3D96000898180020487C00202F
:1096C00064610020401600209A18002038B5174821
:1096D0007146754666F0DCFF154B1C788CB1154859
:1096E000FAF7F2FD90F90030BBB1FEF731FD044608
:1096F00098B1114BB3F902307BB9FFF79FFF60B906
:109700000EE00D4B1B789B0709D50C48FAF7DCFDE2
:1097100090F90030022B02D102E0002400E0012485
:109720000248294666F0C6FF204638BDCD9600089F
:109730006B16002009190020646100209D1800208C
:1097400070B50C462DED028B7146054620487646D5
:1097500066F09EFF284630F90C3B08EE103AFAF707
:1097600029FFB0F90000B4F900309FED1A7A9FED9F
:109770001A6A07EE900AB8EEC88AF8EEE77A06EEA3
:10978000903A78EE677AF8EEE66AF0EEE77AF4EE71
:10979000C77AF1EE10FA58BFF0EE477A66EE866AA5
:1097A00037EE677A284666EE877AFDEEE77A17EE9F
:1097B000903A238042F05CFFBDEC028BB4F900309C
:1097C0001844208031460248BDE8704066F072BF00
:1097D000419700080000C8430AD7233B38B57146BB
:1097E0001248134C754666F053FF124B1868036815
:1097F000DB689847014610480BF06CF96080FFF772
:1098000065FF20B10D4BA11C1868FFF799FFB4F953
:1098100002000B4941F294121BF07EFF2946608042
:109820000248BDE8384066F045BF00BFDD9700083C
:109830005C5D002084100020F46300201C64002084
:109840006CEEFFFF70B52648264E2DED028B71465B
:109850007546B0EE408A66F01BFF234B1B78022B47
:1098600006D13368B3F90210003118BF012100E0BE
:109870000021B0EE480A1D481D4C0BF089F91D4B24
:10988000A0801B681C48B3F9043008EE103AFBF7BF
:10989000AFF9B4F9043090ED007A184907EE903A28
:1098A000B8EEC88AF8EEE77A3368E7EE087A41F254
:1098B0009412FDEEE77A17EE900A80B2A0805B88E2
:1098C000184480B2A08000B21BF026FFBDEC028BD2
:1098D000A08029460248BDE8704066F0EBBE00BF9C
:1098E000459800081C6400205E100020245D0020C4
:1098F0005C5D0020D8600020601800206CEEFFFF47
:1099000038B5134D13487146744666F0C1FE286899
:10991000114903681B6A9847286803681B699847C0
:10992000431CF9D020F0200000B2592808D139F0AA
:10993000EBFC074B0949186803681B6A9847FEE768
:109940000448214666F0B6FE4FF0FF3038BD00BF38
:10995000CC61002001990008AAF80908F5F8090867
:109960002DE9F041104E04460F46304671467546CB
:1099700066F08EFEB7F90030B4F90080B8EB03084A
:1099800018BF4FF0010820463946FCF75FF8414602
:1099900020463AF0F5FB29460446304666F08AFE3A
:1099A0002046BDE8F08100BF61990008F7B5254861
:1099B000254C7146754666F06BFE39F093FF50B941
:1099C0002068224903681B6A9847214B2149986BFC
:1099D00003689B6B984720483AF05EF830B11E4808
:1099E000FAF7E8FDB0F900300D2B18D020681B49BC
:1099F00003681B6A984739F087FC02A90D2221F8F9
:109A0000022D1548FFF7ACFF2068154903689B69D4
:109A100098470C48294666F04DFE03B0F0BDFBF7B1
:109A2000EBFF07463AF024F912210E483AF098FF6E
:109A3000246823681E6AFBF7DFFF0B49C21B204620
:109A4000B047E6E7AD990008CC6100202EF909087F
:109A5000487C002043F909085018002057F90908EC
:109A60007BF90908001E0A0881F909082DE9F0416F
:109A7000104E04460F4630467146754666F008FEA5
:109A800097F9003094F90080B8EB030818BF4FF045
:109A9000010820463946FAF719FF414620463AF0B8
:109AA0006FFB29460446304666F004FE2046BDE8BA
:109AB000F08100BF6D9A00082DE9F0410F4E044679
:109AC0000F4630467146754666F0E2FD3B682168F8
:109AD000B1EB030818BF4FF0010820463946FBF7E9
