:020000040800F2
:1040000064BF00202D7B07086982070869820708C2
:1040100069820708698207086982070869820708B8
:1040200069820708698207086982070869820708A8
:104030006982070869820708698207086982070898
:104040006982070869820708698207086982070888
:104050006982070869820708698207086982070878
:104060006982070869820708698207086982070868
:104070006982070869820708698207086982070858
:104080006982070869820708698207086982070848
:104090006982070869820708698207086982070838
:1040A0006982070869820708698207086982070828
:1040B0006982070869820708698207086982070818
:1040C0006982070869820708698207086982070808
:1040D00069820708698207086982070869820708F8
:1040E00069820708698207086982070869820708E8
:1040F00069820708698207086982070869820708D8
:1041000069820708698207086982070869820708C7
:1041100069820708698207086982070869820708B7
:1041200069820708698207086982070869820708A7
:104130006982070869820708698207086982070897
:104140006982070869820708698207086982070887
:104150006982070869820708698207086982070877
:104160006982070869820708698207086982070867
:104170006982070869820708698207086982070857
:10418000698207086982070838B5064D744671468A
:10419000284674F025FB2846214674F033FB0020A6
:1041A00038BD00BF8941000838B5064D7446284621
:1041B000714674F015FB28462146BDE8384074F07E
:1041C00021BB00BFA941000870B5074D06467146E6
:1041D0002846744674F004FB96F88161284621460F
:1041E00074F010FB304670BDC9410008F8B5084DA9
:1041F000064674460F462846714674F0F1FA86F872
:10420000E17028462146BDE8F84074F0FBBA00BFD3
:10421000ED41000870B5064D7446714606462846C5
:1042200074F0DEFA2846214674F0ECFA304670BD90
:1042300015420008F8B5084D064674460F46284654
:10424000714674F0CDFA86F8807128462146BDE8A3
:10425000F84074F0D7BA00BF35420008F8B50446FC
:1042600071460E4804F13206754674F0B9FA3046CC
:10427000676CFFF7CFFF01783846FFF7B7FFA46BF5
:1042800034B13046FFF7C6FF01782046FFF7D2FF72
:1042900029460248BDE8F84074F0B4BA5D4200080F
:1042A00070B5084D714606462846744674F098FA73
:1042B0003046FFF7D3FF28462146BDE8704074F032
:1042C000A1BA00BFA142000870B5064D7446714600
:1042D0000646284674F084FA2846214674F092FA7D
:1042E000304670BDC942000870B5064D744671462F
:1042F0000646284674F074FA2846214674F082FA7D
:10430000304670BDE942000870B5074D064671465B
:104310002846744674F064FA96F8086128462146E7
:1043200074F070FA304670BD0943000870B5084D4E
:10433000714606462846744674F052FA3046FFF736
:10434000C3FF06782146284674F05CFA304670BDFB
:104350002D43000870B5084E044671463046754638
:1043600074F03EFA00233046A36063602360294660
:1043700074F048FA204670BD5543000870B5074DEB
:10438000744671460646284674F02AFA28462146A5
:1043900074F038FA06F1580070BD00BF7D43000884
:1043A00070B5094E714604463046754674F018FAE9
:1043B0000648FFF7E3FF07C884E8070030462946B0
:1043C000BDE8704074F01EBAA1430008945B002061
:1043D00038B5714604460C48754674F001FAE01E83
:1043E000C0B20D2808D80123834042F21F101840A4
:1043F000041C18BF012400E000240348294674F07F
:1044000001FA204638BD00BFD143000870B5074D02
:10441000744671460646284674F0E2F9284621465D
:1044200074F0F0F906F1680070BD00BF0D4400089B
:1044300070B5074D744671460646284674F0D0F9AB
:104440002846214674F0DEF906F18C0070BD00BFED
:104450003144000870B5074D74467146064628463B
:1044600074F0BEF92846214674F0CCF906F1B0008C
:1044700070BD00BF5544000870B5074D0646714633
:104480002846744674F0ACF9044B1E602846214659
:10449000BDE8704074F0B6B979440008107D002082
:1044A00070B5084D064671462846744674F098F972
:1044B000767B284606F00106214674F0A3F93046C3
:1044C00070BD00BFA144000870B50A4D2DED028BF0
:1044D000714606462846744674F082F996ED058AC0
:1044E0002846214674F08EF9B0EE480ABDEC028BE6
:1044F00070BD00BFC944000870B50A4D2DED028B98
:10450000714606462846744674F06AF996ED068AA6
:104510002846214674F076F9B0EE480ABDEC028BCD
:1045200070BD00BFF944000870B50A4D2DED028B37
:10453000714606462846744674F052F996ED078A8D
:104540002846214674F05EF9B0EE480ABDEC028BB5
:1045500070BD00BF29450008F8B50746074D0E4657
:104560003E4471462846744674F03AF9767B2846F4
:10457000214674F047F93046F8BD00BF59450008A0
:1045800070B50B4D714606462846744674F028F9FE
:1045900006F10C00FFF798FE90F90060003618BF96
:1045A00001262846214674F02DF9304670BD00BF23
:1045B0008145000870B5064D74467146064628468A
:1045C00074F00EF92846214674F01CF9304670BD8F
:1045D000B5450008F8B50A4D06460F46284671460F
:1045E000744674F0FDF80C2303FB07602C30FFF7D2
:1045F000E1FF21460646284674F004F93046F8BD2E
:10460000D545000870B50B4E0446714630467546D8
:1046100074F0E6F8236820461B6998470146204657
:10462000FFF7D8FF29460446304674F0EBF82046E1
:1046300070BD00BF05460008F8B5084D7446064633
:104640000F462846714674F0CBF82846214674F090
:10465000D9F80C2303FB07601030F8BD3946000879
:1046600070B50B4E044671463046754674F0B8F886
:10467000236820461B69984701462046FFF7DCFF68
:1046800029460446304674F0BDF8204670BD00BF90
:104690006146000870B5084D0646714628467446C6
:1046A00074F09EF836792846C6F34006214674F029
:1046B000A9F8304670BD00BF95460008F8B5094D11
:1046C0000F46064671462846744674F089F838232A
:1046D00003FB07662846767F214674F093F8304640
:1046E000F8BD00BFBD46000870B50A4D06467146CC
:1046F0002846744674F074F896F89410304601F029
:104700000301FFF7DBFF21460646284674F07AF8DE
:10471000304670BDE946000838B512487146744607
:1047200074F05EF8104B1B78D80714D50F48FFF7CC
:10473000DBFF02280FD90E48FFF7ACFF58B90D4B2D
:104740001B78190707D40C4A5278D20703D49B066A
:1047500001D4012500E000250248214674F052F8FA
:10476000284638BD19470008BC5E0020446400207C
:10477000945E00206061002024130020F8B5094DEC
:104780000F46064671462846744674F029F83823C9
:1047900007FB03331E442846B688214674F032F8DE
:1047A0003046F8BD7D47000870B50A4D0646714693
:1047B0002846744674F014F896F89410304601F0C8
:1047C0000301FFF7DBFF21460646284674F01AF87E
:1047D000304670BDA947000870B5064D7446714655
:1047E0000646284673F0FCFF2846214674F00AF876
:1047F000304670BDD947000870B5064D7446714605
:104800000646284673F0ECFF2846214673F0FAFF6F
:10481000304670BDF947000870B50B4D2DED028B89
:10482000714606462846744673F0DAFF3046FFF7B5
:10483000E3FF90ED008A2146284673F0E3FFB0EED7
:10484000480ABDEC028B70BD1948000838B57146A6
:1048500004460B48754673F0C3FF0D2C09D801239D
:1048600003FA04F442F6030323401C1C18BF01247E
:1048700000E000240248294673F0C4FF204638BDFA
:104880004D48000870B5084D0646714628467446E6
:1048900073F0A6FF337C43F01C0333742846214693
:1048A000BDE8704073F0AEBF85480008F8B5084D0C
:1048B0000F46064671462846744673F091FF3B68E2
:1048C000336028462146BDE8F84073F09BBF00BF27
:1048D000AD480008F7B50A4E02AC24ED010A714656
:1048E00007463046754673F07BFF38462146FFF792
:1048F000DDFF3046294673F085FF03B0F0BD00BFF1
:10490000D5480008F7B50A4E02AC24ED010A7146FD
:1049100007463046754673F063FF381D2146FFF7A2
:10492000C5FF3046294673F06DFF03B0F0BD00BFF0
:1049300005490008F7B50A4E02AC24ED010A71469C
:1049400007463046754673F04BFF07F108002146D5
:10495000FFF7ACFF3046294673F054FF03B0F0BDBB
:1049600035490008F7B50A4E02AC24ED010A71463C
:1049700007463046754673F033FF38462146FFF749
:1049800095FF3046294673F03DFF03B0F0BD00BFF0
:104990006549000870B50B4D2DED028B714606463A
:1049A0002846744673F01CFF3046FFF725FF90ED54
:1049B000008A2146284673F025FFB0EE480ABDEC78
:1049C000028B70BD9549000870B50B4D2DED028B23
:1049D000714606462846744673F002FF301DFFF705
:1049E0000BFF90ED008A2146284673F00BFFB0EED6
:1049F000480ABDEC028B70BDC949000870B50C4D6A
:104A00002DED028B714606462846744673F0E8FE8B
:104A100006F10800FFF7F0FE90ED008A21462846D7
:104A200073F0F0FEB0EE480ABDEC028B70BD00BF23
:104A3000FD490008F8B50A4D06460F46284671465E
:104A4000744673F0CDFE96F8363067F3410386F86E
:104A5000363028462146BDE8F84073F0D3BE00BF8B
:104A6000354A0008F8B5074D064674460F462846F5
:104A7000714673F0B5FE777228462146BDE8F840CE
:104A800073F0C0BE654A0008F8B50A4D06460F46E9
:104A900028467146744673F0A3FE96F8363067F3E5
:104AA000C30386F8363028462146BDE8F84073F047
:104AB000A9BE00BF894A0008F8B50A4D06460F4650
:104AC00028467146744673F08BFE96F8363067F3CD
:104AD000451386F8363028462146BDE8F84073F085
:104AE00091BE00BFB94A000838B5074D7146284647
:104AF000744673F075FE0548FFF756FB28462146BD
:104B0000BDE8384073F07EBEE94A00081862002014
:104B100070B5094D71462846744673F061FE074B27
:104B2000986B03689B68984721460646284673F0B1
:104B300069FE304670BD00BF114B0008607B00204D
:104B400070B5094D064671462846744673F048FE16
:104B5000064B1A7866F304121A7028462146BDE8FF
:104B6000704073F04FBE00BF414B000860610020F1
:104B700070B50C4D2DED028B7146064628467446E5
:104B800073F02EFE06F12400FFF726FE90ED008A5A
:104B90002146284673F036FEB0EE480ABDEC028B83
:104BA00070BD00BF714B000838B5064D74467146A4
:104BB000284673F015FE2846214673F023FE012097
:104BC00038BD00BFA94B000870B50A4D2DED028B12
:104BD0000646B0EE408A28467146744673F000FEE1
:104BE00086ED1C8ABDEC028B28462146BDE870404C
:104BF00073F008BEC94B000838B5084D7146284609
:104C0000744673F0EDFD9FED060A0648FFF7DCFFE2
:104C10002846214673F0F6FD012038BDF94B000807
:104C2000000000001463002070B5094D714606466F
:104C30002846744673F0D4FD06F10800FFF754FBD4
:104C400006882146284673F0DDFD304670BD00BF62
:104C5000294C000870B50C4D2DED028B71460646AF
:104C60002846744673F0BCFD06F11800FFF7B4FD4A
:104C700090ED008A2146284673F0C4FDB0EE480A44
:104C8000BDEC028B70BD00BF554C000870B50C4DDB
:104C90002DED028B714606462846744673F0A0FD42
:104CA00006F12800FFF7A8FD90ED008A214628466E
:104CB00073F0A8FDB0EE480ABDEC028B70BD00BFDA
:104CC0008D4C000870B50C4D2DED028B71460646DB
:104CD0002846744673F084FD06F12000FFF77CFD42
:104CE00090ED008A2146284673F08CFDB0EE480A0C
:104CF000BDEC028B70BD00BFC54C000870B50C4DFB
:104D00002DED028B714606462846744673F068FD09
:104D100006F11C00FFF760FD90ED008A2146284651
:104D200073F070FDB0EE480ABDEC028B70BD00BFA1
:104D3000FD4C000870B50C4D2DED028B71460646FA
:104D40002846744673F04CFD06F12C00FFF744FD35
:104D500090ED008A2146284673F054FDB0EE480AD3
:104D6000BDEC028B70BD00BF354D000870B5104E14
:104D70002DED028B714604463046754673F030FDCA
:104D800004F10800FFF728FD90ED008A04F11000FF
:104D9000FFF722FDD0ED007A38EE678A30462946CB
:104DA00073F030FDB0EE480ABDEC028B70BD00BF61
:104DB0006D4D0008F8B5094D06460F462846714668
:104DC000744673F00DFD337867F341033370284662
:104DD0002146BDE8F84073F015BD00BFB54D000891
:104DE00038B5714605460748744673F0F9FCFFF77D
:104DF00093FC2146002818BF0546024873F002FDC7
:104E0000284638BDE14D000870B5084D064671468C
:104E10002846744673F0E4FC002373603360284630
:104E20002146BDE8704073F0EDBC00BF094E00089C
:104E300038B523487146744673F0D2FC214B93ED8C
:104E4000000AB5EE400AF1EE10FA33D01E4DD5ED52
:104E5000007AF5EE407AF1EE10FA2BD01B48FFF7FE
:104E600039FD1B4B194893ED000AFFF74BFD194B19
:104E7000164893ED000AFFF75DFD174B174893EDB9
:104E8000000AFFF76FFD164895ED000AFFF722FDB7
:104E9000144B134893ED000AFFF734FD124B1048F2
:104EA00093ED000AFFF746FD104B114893ED000A01
:104EB000FFF758FD21460248BDE8384073F0A2BC18
:104EC000314E0008B0620020B85E0020D0160020ED
:104ED000D4610020CC610020D0670020D8170020CA
:104EE000F0160020905B0020DC5E0020CC12002039
:104EF000DC170020F8B5094D06460F4628467146D6
:104F0000744673F06DFC337967F300033371284600
:104F10002146BDE8F84073F075BC00BFF54E0008AF
:104F200070B5074D064671462846744673F058FC26
:104F300036782846214673F065FC304670BD00BFC8
:104F4000214F0008F8B5084E0F460446714630461A
:104F5000754673F045FC3B8823803046294673F044
:104F600051FC2046F8BD00BF454F000870B50A4D02
:104F70002DED028B0646B0EE408A284671467446F7
:104F800073F02EFC86ED048ABDEC028B2846214688
:104F9000BDE8704073F036BC6D4F0008F8B50E4D9B
:104FA0000E4E714607462846744673F019FC06F10A
:104FB0004E00FFF799F9B0F90030FB1A00EE103AF5
:104FC00006F53A70B8EEC00AFFF7D0FF2846214632
:104FD000BDE8F84073F016BC9D4F00088C1400200B
:104FE000F8B5084E0F46044671463046754673F0D4
:104FF000F7FB3B6823603046294673F003FC2046EC
:10500000F8BD00BFE14F0008F7B50A4E02AC24ED31
:10501000010A714607463046754673F0E1FB2146AA
:1050200007F11400FFF7DCFF3046294673F0EAFB76
:1050300003B0F0BD09500008F8B5084E0F4604460D
:1050400071463046754673F0CBFB3B782370304693
:10505000294673F0D7FB2046F8BD00BF3950000841
:10506000F7B50A4E02AC24ED010A714607463046F8
:10507000754673F0B5FB214607F12C00FFF7B0FF32
:105080003046294673F0BEFB03B0F0BD6150000806
:1050900070B50E4E2DED048B0446B0EE409AF0EE46
:1050A000608AB0EE418A75467146304673F098FBCF
:1050B00084ED009AC4ED018A84ED028A30462946C7
:1050C00073F0A0FBBDEC048B204670BD915000082E
:1050D00070B5084D064671462846744673F080FB4D
:1050E00036792846C6F34006214673F08BFB3046DE
:1050F00070BD00BFD150000870B504460E460B4885
:105100007146754673F06CFB94F840300748C3F362
:1051100081039E42B6BF04EBC604002494F82C40E1
:10512000294673F06FFB204670BD00BFF9500008A0
:1051300070B50A4D064671462846744673F050FB1A
:1051400096F84010304601F00301FFF7D5FF2146E5
:105150000646284673F056FB304670BD31510008B4
:10516000F8B50F46074D064606EBC70671462846BA
:10517000744673F035FB368D2846214673F042FBAA
:105180003046F8BD6151000870B50A4D06467146BB
:105190002846744673F024FB96F84010304601F020
:1051A0000301FFF7DDFF21460646284673F02AFB80
:1051B000304670BD89510008F8B50A4D06460F46C5
:1051C00028467146744673F00BFB06EB47001E3011
:1051D000FFF78AF806882146284673F013FB30B2A1
:1051E000F8BD00BFB951000870B50A4D06467146BA
:1051F0002846744673F0F4FA96F84010304601F0F1
:105200000301FFF7D9FF21460646284673F0FAFA54
:10521000304670BDE9510008F8B50A4D06460F4604
:1052200028467146744673F0DBFA06EB47002230DD
:10523000FFF75AF806882146284673F0E3FA30B2A1
:10524000F8BD00BF1952000870B50A4D06467146F8
:105250002846744673F0C4FA96F84010304601F0C0
:105260000301FFF7D9FF21460646284673F0CAFA24
:10527000304670BD4952000870B5074D064671466C
:105280002846744673F0ACFAB6F894602846214676
:1052900073F0B8FA30B270BD7952000870B50A4D9B
:1052A0002DED028B714606462846744673F098FA37
:1052B00096ED1C8A2846214673F0A4FAB0EE480AFF
:1052C000BDEC028B70BD00BF9D52000870B50A4D49
:1052D0002DED028B714606462846744673F080FA1F
:1052E00096ED2C8A2846214673F08CFAB0EE480AD7
:1052F000BDEC028B70BD00BFCD52000870B50A4DE9
:105300002DED028B714606462846744673F068FA06
:1053100096ED2F8A2846214673F074FAB0EE480ABB
:10532000BDEC028B70BD00BFFD520008F8B5084D02
:10533000744606460F462846714673F051FA2846D1
:10534000214673F05FFA382303FB07602630F8BD6F
:105350002D53000870B50A4D06467146284674461E
:1053600073F03EFA96F89410304601F00301FFF70F
:10537000DDFF21460646284673F044FA304670BDEC
:1053800055530008F8B5084D064674460F462846A2
:10539000714673F025FA86F8287028462146BDE844
:1053A000F84073F02FBA00BF85530008F8B50A4DD6
:1053B00006460F4628467146744673F011FA0C23D0
:1053C00003FB0760BC30FFF7F5F821460646284688
:1053D00073F018FA3046F8BDAD53000870B50B4EA7
:1053E000044671463046754673F0FAF92368204644
:1053F000DB6C984701462046FFF7D8FF2946044654
:10540000304673F0FFF9204670BD00BFDD53000841
:105410002DE9FF4BDFF8648071464046774673F014
:10542000DFF91348FFF7DAFF124B06460068D3F89E
:105430000090A0F021FE04467068D9F800B00D4637
:10544000A0F01AFECDE90001B068A0F015FECDE98C
:10545000020122464846DBF8206007492B46B04748
:105460004046394604B0BDE8F04B73F0CBB900BFFD
:10547000885900206C610020E4830A081154000858
:10548000F8B50A4D06460F4628467146744673F035
:10549000A7F90C2303FB07609830FFF78BF8214630
:1054A0000646284673F0AEF93046F8BD8154000830
:1054B00070B50B4E044671463046754673F090F950
:1054C000236820469B6C984701462046FFF7D8FF8B
:1054D00029460446304673F095F9204670BD00BF5A
:1054E000B1540008F8B50A4D06460F4628467146E5
:1054F000744673F075F90C2303FB07607430FFF7F3
:1055000059F821460646284673F07CF93046F8BD26
:10551000E554000870B50B4E04467146304675469A
:1055200073F05EF9236820469B6C9847014620463D
:10553000FFF7D8FF29460446304673F063F920464A
:1055400070BD00BF155500082DE9F04BDFF89090B5
:10555000204C8CB071464846F04673F041F9204625
:10556000FFF7A6FF07462046FFF7D4FF1A4BD3F8F4
:1055700000B00646DBF8003038680B93A0F07CFDE5
:10558000044678680D46A0F077FDCDE90001B868C3
:10559000A0F072FDCDE902013068A0F06DFDCDE90B
:1055A00004017068A0F068FDCDE90601B068A0F0C4
:1055B00063FDCDE908010B9B08491E6A5846224647
:1055C0002B46B047484641460CB0BDE8F04B73F05F
:1055D00019B900BF885900206C61002000840A08B6
:1055E0004955000870B5084D714606462846744670
:1055F00073F0F6F83046FEF767FE06782146284637
:1056000073F000F9304670BDE555000870B5084DDF
:10561000714606462846744673F0E2F8701CFEF7A1
:1056200053FE06782146284673F0ECF8304670BDEC
:105630000D56000870B5084D71460646284674465A
:1056400073F0CEF8F01CFEF73FFE067821462846A0
:1056500073F0D8F8304670BD3556000870B5084D67
:10566000714606462846744673F0BAF8B01CFEF739
:105670002BFE06782146284673F0C4F8304670BDEC
:105680005D56000838B5714604460A48754673F001
:10569000A7F8B4F5966F05DBB4F5E16FD4BF01242C
:1056A000022400E000240348294673F0ABF82046AA
:1056B00038BD00BF85560008F7B50A4D06460F46AF
:1056C00028467146744673F08BF802A9301D01F824
:1056D000017DFFF7B1FC2846214673F093F803B033
:1056E000F0BD00BFB956000838B51548714675467B
:1056F00073F076F8134BB3F9EC3040F2CE4293429C
:1057000011DDB3F5AA6F10DD40F2D25293420EDDE7
:1057100040F2546293420CDD40F2D564A342CCBF08
:105720000524042406E0002404E0012402E002240D
:1057300000E003240248294673F064F8204638BD8F
:10574000E95600088C140020F8B5084D0F460646AF
:1057500071462846744673F043F83B783370284608
:105760002146BDE8F84073F04DB800BF4957000826
:10577000F7B50A4D06460F4628467146744673F043
:105780002FF802A906F1350001F8017DFFF7DCFFD3
:105790002846214673F036F803B0F0BD7157000873
:1057A00070B50A4D714606462846744673F018F8DF
:1057B0003046FEF789FD90F90060003618BF0126DB
:1057C0002846214673F01EF8304670BDA1570008E8
:1057D00070B5084D714606462846744673F000F8C9
:1057E000B01DFEF781FD06882146284673F00AF8B1
:1057F00030B270BDD1570008F7B50A4D06460F46C6
:1058000028467146744672F0EBFF02A906F150007B
:1058100001F8017DFFF710FC2846214672F0F2FFE7
:1058200003B0F0BDF957000870B5084D7146064643
:105830002846744672F0D4FF3046FEF745FD0678E0
:105840002146284672F0DEFF70B270BD295800086C
:1058500038B571462DED028B04460C487546B0EE06
:10586000408A72F0BDFF04F5A470FEF72DFD90F99B
:1058700000300648022B08BF84ED5F8ABDEC028B26
:105880002946BDE8384072F0BDBF00BF515800083E
:1058900038B571462DED028B04460C487546B0EEC6
:1058A000408A72F09DFF04F5A470FEF70DFD90F99B
:1058B00000300648012B08BF84ED5F8ABDEC028BE7
:1058C0002946BDE8384072F09DBF00BF91580008DE
:1058D000F8B5094D744606460F462846714672F0E3
:1058E0007FFF2846214672F08DFF0C2303FB0760E3
:1058F00000F5B270F8BD00BFD1580008F8B50F46EA
:10590000074D064606EBC70671462846744672F0F8
:1059100067FF36692846214672F074FF3046F8BDAD
:10592000FD58000870B5084D064671462846744675
:1059300072F056FF96F894602846C6F38106214619
:1059400072F060FF304670BD2559000870B5074DF4
:10595000064671462846744672F042FF366928466C
:10596000214672F04FFF304670BD00BF4D59000810
:1059700070B50B4D064671462846744672F030FFEE
:10598000084B1A7866F3C3021A70074B5A7866F30D
:1059900004125A7028462146BDE8704072F032BFAA
:1059A0007159000860610020187D002038B5074D4E
:1059B00071462846744672F013FF054B00221A7098
:1059C00028462146BDE8384072F01CBFAD5900089A
:1059D000425B002070B5074D064671462846744666
:1059E00072F0FEFEB36C9E882846214672F00AFFD4
:1059F00030B270BDD559000870B50D4D71462846BE
:105A0000744672F0EDFE0B48FEF76EFCB0F9000034
:105A100007EE900AFAEEEF7A2846FDEEE77A214685
:105A200017EE906AB6B272F0EDFE30B270BD00BFF4
:105A3000F9590008DC14002070B5094D714606467E
:105A40002846744672F0CCFE064B986B0268B1B2E1
:105A50005268904728462146BDE8704072F0D2BE99
:105A6000395A0008607B002070B5094D7146284600
:105A7000744672F0B5FE074B986B0368DB68984775
:105A800021460646284672F0BDFE304670BD00BF76
:105A9000695A0008607B0020F8B5084D0F4606469D
:105AA00071462846744672F09BFE3B883380284638
:105AB0002146BDE8F84072F0A5BE00BF995A000823
:105AC000F8B5074D064674460F462846714672F0F3
:105AD00087FEB78028462146BDE8F84072F092BEA6
:105AE000C15A0008F8B5094D06460F4628467146CA
:105AF000744672F075FE3046B763FEF7AFFB28467A
:105B00002146BDE8F84072F07DBE00BFE55A0008AE
:105B100038B5064D74462846714672F061FE284637
:105B20002146BDE8384072F06DBE00BF115B000831
:105B300070B50A4D064671462846744672F050FE0E
:105B4000B369D3ED067AF8EEE77A2846C6ED187AFF
:105B50002146BDE8704072F055BE00BF315B0008C1
:105B600070B50A4D2DED028B7146064628467446E7
:105B700072F036FE96ED2B8A2846214672F042FEE0
:105B8000B0EE480ABDEC028B70BD00BF615B00083F
:105B900038B50E4D2DED028B714608EE100A2846E1
:105BA000744672F01DFE0A48FEF716FEB8EEC88A6B
:105BB000D0ED007A28EE278A2846214672F022FE90
:105BC000B0EE480ABDEC028B38BD00BF915B000807
:105BD000C016002070B5094E044671463046754621
:105BE00072F0FEFDA0680368DB6A9847304684EDDA
:105BF0001C0A2946BDE8704072F004BED55B00085F
:105C000070B50A4D2DED028B714606462846744646
:105C100072F0E6FD96ED168A2846214672F0F2FDF6
:105C2000B0EE480ABDEC028B70BD00BF015C0008FD
:105C300070B50A4D2DED028B714606462846744616
:105C400072F0CEFD96ED178A2846214672F0DAFDF5
:105C5000B0EE480ABDEC028B70BD00BF315C00089D
:105C600070B50A4D2DED028B7146064628467446E6
:105C700072F0B6FD96ED188A2846214672F0C2FDF4
:105C8000B0EE480ABDEC028B70BD00BF615C00083D
:105C900070B50C4D06462DED028B714628467446B4
:105CA00072F09EFDF068FFF7DBFFB0EE408ABDEEBC
:105CB000C88A2846214672F0A5FD18EE100ABDECF0
:105CC000028B70BD915C000870B50A4D2DED028B02
:105CD000714606462846744672F082FD96ED198A92
:105CE0002846214672F08EFDB0EE480ABDEC028BCC
:105CF00070BD00BFC95C000870B50C4D06462DEDA7
:105D0000028B71462846744672F06AFDF068FFF710
:105D1000DBFFB0EE408ABDEEC88A2846214672F00D
:105D200071FD18EE100ABDEC028B70BDF95C000825
:105D300070B50A4D2DED028B714606462846744615
:105D400072F04EFD96ED108A2846214672F05AFDFB
:105D5000B0EE480ABDEC028B70BD00BF315D00089B
:105D600010B51D482DED028B7146744672F038FD5A
:105D70001A4B187810B11A48FFF7DAF9194B5A780C
:105D80009978DB7842EA012242EA034343F317039E
:105D9000B3F57A7F0ADB18B1134B1B78022B05D8B9
:105DA0001248FFF7C5FFB0EE408A0BE01048FEF73F
:105DB0009BFAB0F90030002BC8BF5B4207EE903A67
:105DC000B8EEE78A0448214672F01CFDB0EE480A9E
:105DD000BDEC028B10BD00BF615D0008340D0020DA
:105DE000FC63002079650020D41200201463002099
:105DF000CC14002070B50C4D06462DED028B71467B
:105E00002846744672F0ECFCF068FFF729FFB0EE0C
:105E1000408ABDEEC88A2846214672F0F3FC18EE8F
:105E2000100ABDEC028B70BDF55D000870B50C4D1D
:105E300006462DED028B71462846744672F0D0FC62
:105E4000F068FFF741FFB0EE408ABDEEC88A2846F1
:105E5000214672F0D7FC18EE100ABDEC028B70BD23
:105E60002D5E000870B5094D7146064628467446F9
:105E700072F0B6FCD6ED0A7AFDEEE77A284617EE08
:105E8000906A214672F0BEFC304670BD655E000827
:105E900070B5084D064671462846744672F0A0FC5F
:105EA0000023F386338728462146BDE8704072F010
:105EB000A9BC00BF915E000870B5074D74467146DD
:105EC0000646284672F08CFC2846214672F09AFC61
:105ED00006F15C0070BD00BFB95E000870B5084DEA
:105EE000064671462846744672F07AFC3678284693
:105EF00006F00106214672F085FC304670BD00BFF9
:105F0000DD5E000870B5064D7446714606462846AB
:105F100072F066FC2846214672F074FC304670BD73
:105F2000055F000870B50A4D2DED028B0646B0EEF8
:105F3000408A28467146744672F052FC86ED1C8AEF
:105F4000BDEC028B28462146BDE8704072F05ABC79
:105F5000255F000870B50A4D2DED028B0646B0EEA8
:105F6000408A28467146744672F03AFC86ED1D8AD6
:105F7000BDEC028B28462146BDE8704072F042BC61
:105F8000555F000870B504460D462DED028B714635
:105F90006448764672F024FC2188B5F900200BB2E3
:105FA000002B02DD002A03DA08E009B1002A05DC33
:105FB000002AB8BF5242B2F5E16F01DD2B88A8E09C
:105FC00007EE103A002BF8EEC77A9FED578A50DDA6
:105FD000564867EE888AFEF787F9B0F90030032B40
:105FE0000CDD5248FEF780F9B0F90020042392FB43
:105FF000F3F307EE903AB8EEE77A01E0B7EE007AF5
:10600000F4EEC78AF1EE10FA08DDB4F9003007EEBD
:10601000903AF8EEE77A27EE888A15E04348FEF7D3
:1060200063F9B0F90030032B0CDD4048FEF75CF952
:10603000B0F90020042392FBF3F308EE103AB8EE17
:10604000C88A01E0B7EE008AB4F9003007EE903A52
:10605000F8EEE77A37EEC88ABDEEC88A18EE103A35
:106060009BB22380B5F900201BB29342B8BF134600
:106070004FE02E4867EEC88AFEF736F9B0F90030D7
:10608000032B0CDD2948FEF72FF9B0F9002004237B
:1060900092FBF3F307EE103AF8EEC77A01E0F7EE61
:1060A000007AF4EEE78AF1EE10FA08DDB4F9003078
:1060B00007EE903AF8EEE77A27EEC88A15E01B481B
:1060C000FEF712F9B0F90030032B0CDD1748FEF78C
:1060D0000BF9B0F90020042392FBF3F308EE103A19
:1060E000B8EEC88A01E0B7EE008AB4F9003007EED6
:1060F000903AF8EEE77A38EE278ABDEEC88A18EEB5
:10610000103A9BB22380B5F900201BB29342A8BF7E
:106110001346BDEC028B238031460248BDE8704037
:1061200072F070BB855F0008CDCC4C3CC2140020DF
:1061300038B50C4D71462846744672F051FB0A4B37
:106140001A78052161F302021A70C8225A830022CC
:106150005A805A8EDA8328462146BDE8384072F0CC
:1061600051BB00BF316100089412002038B50C4DBE
:1061700071462846744672F033FB0A4B1A780521A3
:1061800061F3C5021A70C8229A8300229A809A8EFF
:106190001A8428462146BDE8384072F033BB00BF60
:1061A0006D6100089412002038B533482DED048B42
:1061B0007146754672F014FB304B1A78C2F34102F7
:1061C000002A51D05978C8074ED52D4C6FF30001E5
:1061D0005970B4F96E3007EE103A012AB8EEC77A5A
:1061E0000AD1284BD3ED006AB4F98E3008EE903A0C
:1061F000254BF8EEE88A09E0244BD3ED006AB4F9A8
:106200008E3008EE903A224BF8EEE88AD3ED007A11
:10621000204827EEE88A68EEA68AA7EE268AE7EEEF
:10622000278AFFF753F81B48B0EE409AFFF766F84D
:1062300020EE280A1748A9EE080ABDEEC00A10EEA3
:10624000103AA4F86E30FFF759F81248B0EE409AB1
:10625000FFF73CF820EE280AA8EE490ABDEEC00A76
:1062600010EE103AA4F88E30BDEC048B294602489B
:10627000BDE8384072F0C6BAA9610008BC5E0020D3
:106280008C140020380D002040650020300D0020C7
:1062900048680020EC1700202DE9F0410A4D8046A7
:1062A0000F4628467146744672F09AFA0748066807
:1062B00041463A463668B0472846214672F0A2FA6F
:1062C0000020BDE8F08100BF99620008607B0020DB
:1062D00070B50B4D064671462846744672F080FA3A
:1062E000084B1A7866F382021A70074B5A7866F3E5
:1062F000C3025A7028462146BDE8704072F082BA47
:10630000D162000860610020187D002038B5714618
:1063100004460C48754672F063FA0B4B1A78C2F3C8
:106320000011A14207D064F304121A70074B1A78C7
:1063300064F3C7121A7029460248BDE8384072F06B
:1063400061BA00BF0D630008BC5E0020187D00200C
:1063500038B5714605460948744672F041FA084B53
:1063600006481A78C2F3C001A9421CBF65F3C302F4
:106370001A702146BDE8384072F044BA51630008F3
:10638000BC5E002038B5104D2DED028B71462846BD
:10639000744672F025FA0D48FDF796FF90F900005B
:1063A000DFED0B7A07EE100AB8EEC77AB0EE008A7E
:1063B000A7EE278A2846214672F024FAB0EE480A52
:1063C000BDEC028B38BD00BF85630008C1140020FE
:1063D000CDCCCC3D70B5714605461048744672F080
:1063E000FFF9FEF795FB06460D48FDF76DFF90F9A6
:1063F0000030B3EB962F01D2002508E035B9094BE8
:10640000D86A03681B6A98470028F5D1012503481C
:10641000214672F0F7F9284670BD00BFD563000829
:106420009B140020607B0020F8B5084D744606469A
:106430000F462846714672F0D3F92846214672F07D
:10644000E1F90C2303FB07604C30F8BD2964000818
:1064500070B50B4E044671463046754672F0C0F971
:1064600023682046DB6C984701462046FFF7DCFF97
:1064700029460446304672F0C5F9204670BD00BF7B
:1064800051640008F8B50F46074D064606EBC706EF
:1064900071462846744672F0A3F9F66828462146EC
:1064A00072F0B0F93046F8BD8564000870B50A4D49
:1064B000064671462846744672F092F996F8941092
:1064C000304601F00301FFF7DDFF2146064628466E
:1064D00072F098F9304670BDAD640008F8B5094D0A
:1064E000744606460F462846714672F079F92846EA
:1064F000214672F087F9382307FB0333F018083080
:10650000F8BD00BFDD64000870B50A4D064671464F
:106510002846744672F064F996F89410304601F0FB
:106520000301FFF7DBFF21460646284672F06AF9B1
:10653000304670BD09650008F8B50C4D2DED028B95
:1065400006460F4628467146744672F049F93823CC
:1065500003FB076696ED0D8A2846214672F052F934
:10656000B0EE480ABDEC028BF8BD00BF39650008EB
:1065700070B50D4D06462DED028B714628467446CA
:1065800072F02EF996F89410304601F00301FFF7EF
:10659000D3FF2846B0EE408A214672F033F9B0EEC0
:1065A000480ABDEC028B70BD7165000838B5054620
:1065B00071460848744672F013F9A88B4FF6FF75C0
:1065C000A84214BF054600252146024872F01AF978
:1065D000284638BDAD650008F8B50F46074D06469C
:1065E00006EBC70671462846744672F0F9F8768DB8
:1065F0002846214672F006F93046F8BDD9650008F4
:1066000070B50A4D064671462846744672F0E8F8A1
:1066100096F84010304601F00301FFF7DDFF2146F8
:106620000646284672F0EEF8304670BD0166000856
:1066300070B50A4D714606462846744672F0D0F889
:10664000301DFDF741FE90F90060003618BF0126AD
:106650002846214672F0D6F8304670BD31660008F3
:1066600070B5074D064671462846744672F0B8F874
:1066700096F828602846214672F0C4F8304670BD6E
:106680006166000870B5074D064671462846744697
:1066900072F0A6F8368E2846214672F0B3F83046DE
:1066A00070BD00BF8566000870B5074D064671468F
:1066B0002846744672F094F8F66A2846214672F02D
:1066C000A1F8304670BD00BFA966000870B5064D40
:1066D000744671460646284672F082F828462146DE
:1066E00072F090F8304670BDCD66000870B50D466A
:1066F000044671462448764672F072F8082D3BD85D
:1067000004EB45007230FFF7E1FF007807EE900AD6
:10671000082DF8EE677A08D094F864300BB9236C32
:106720001BB1B5EE007A67EE877AF5EEC07AF1EE2E
:1067300010FA21D9254495F88430D3B99FED137A06
:1067400094F88D40F4EE477AF1EE10FAC8BFF0EEFF
:10675000477A87EE277A06EE904AF8EEE66A012439
:1067600077EE267AFCEEE77A17EE903A85F88430D9
:1067700003E0013B85F8843000240348314672F081
:1067800041F8204670BD00BFED6600080000484299
:1067900070B5074D744671460646284672F020F8DB
:1067A0002846214672F02EF806F19C0070BD00BF0D
:1067B0009167000870B50C4D2DED028B06467146B1
:1067C000B0EE408A2846744672F00AF8F068B0EEDF
:1067D000480AFEF7F9F9BDEC028B28462146BDE8D0
:1067E000704072F00FB800BFB567000838B50C46AE
:1067F0001D487146754671F0F3FF6379DB071CD5C0
:106800001A48FFF7C5FFA379E279817843EA0222AB
:10681000237A42EA0342437843EA0123C17843EAF8
:10682000014342F3170243F317031344C3F3072250
:10683000A371C3F30743E2712372E279A3790C4891
:1068400043EA0223227A43EA024343F3170300EEAA
:10685000103AB8EEC00AFFF7ADFF29460248BDE87E
:10686000384071F0CFBF00BFED670008EC17002083
:10687000E45E002070B5094D714606462846744610
:1068800071F0AEFF06F13700FDF7C4FC0678214633
:10689000284671F0B7FF304670BD00BF756800082C
:1068A00070B5074D064671462846744671F098FF4C
:1068B000367D2846214671F0A5FF304670BD00BFE9
:1068C000A168000870B5074E04467146304675460B
:1068D00071F086FF044B23603046294671F092FF29
:1068E000204670BDC5680008C8730A08F8B50A4E8E
:1068F00004460F4630467146754671F071FF2046DA
:10690000FFF7E0FF054B236030462771294671F001
:1069100079FF2046F8BD00BFED68000870CB0A087B
:1069200070B50D4C064671460C48754671F058FF1F
:10693000206803685B690EB1094900E0094998477E
:106940002068094903685B69984729460348BDE800
:10695000704071F057BF00BF6C61002021690008D2
:10696000918B0A08C6710A085D8F0A0870B5094D37
:10697000714606462846744671F032FF06F5A4704B
:10698000FDF7A2FC06782146284671F03BFF304611
:1069900070BD00BF6D690008F8B50B4D06460F4687
:1069A00028467146744671F01BFF0C2303FB0760F9
:1069B00000F5A670FDF7FEFD21460646284671F05B
:1069C00021FF3046F8BD00BF9969000870B5094D38
:1069D000714606462846744671F002FF06F108002B
:1069E000FDF772FC06782146284671F00BFF304611
:1069F00070BD00BFCD69000838B5714604460D482A
:106A0000754671F0EDFE0C48FDF75EFC90F9003024
:106A1000022B05D0032B06D01C1C18BF012403E059
:106A200084F0010400E004240248294671F0EAFEE3
:106A3000204638BDF9690008C014002070B50E4D1D
:106A40002DED028B714606462846744671F0C8FE4D
:106A50003046FFF78DFD28462146B0EE408A71F0A2
:106A6000D1FEDFED067A28EE278ABCEEC88A18EE42
:106A7000100ABDEC028B70BD3D6A00080000C842E0
:106A8000F8B5094D0F46064671462846744671F022
:106A9000A7FE382303FB07662846B66B214671F034
:106AA000B1FE3046F8BD00BF816A000870B50A4DDE
:106AB000064671462846744671F092FE96F8941088
:106AC000304601F00301FFF7DBFF2146064628466A
:106AD00071F098FE304670BDAD6A000838B51348B5
:106AE000134C2DED028B7146754671F079FE1148FD
:106AF000FDF7FAFD01280DD90E48FFF79FFF642826
:106B000008D90C48FFF7D2FF07EE100AF8EEC77A53
:106B1000C4ED007A94ED008A0448294671F072FEB3
:106B2000B0EE480ABDEC028B38BD00BFDD6A00083C
:106B3000446500204464002070B50A4D2DED028BA1
:106B4000714606462846744671F04AFE96ED398A2B
:106B50002846214671F056FEB0EE480ABDEC028B85
:106B600070BD00BF396B000870B5084E0446714611
:106B70003046754671F034FE002330466360236072
:106B8000294671F03FFE204670BD00BF696B0008CA
:106B900070B5074D744671460646284671F020FED2
:106BA0002846214671F02EFE06F50B7070BD00BF21
:106BB000916B000838B5094D71462846744671F04E
:106BC0000FFE074B01221A70FEF74EFF054B1860AF
:106BD00021462846BDE8384071F014BEB56B000868
:106BE000280D00201868002038B5074D714628464A
:106BF000744671F0F5FD054B00221A7028462146B7
:106C0000BDE8384071F0FEBDE96B0008280D00209A
:106C100070B50A4D2DED028B0646B0EE408A28462F
:106C20007146744671F0DCFD86ED098ABDEC028B7D
:106C300028462146BDE8704071F0E4BD116C0008A3
:106C400070B5084D714606462846744671F0C8FD79
:106C5000B01DFDF7DFFA06782146284671F0D2FD17
:106C6000304670BD416C000838B5094D7146284664
:106C7000744671F0B5FD074A00231380064A13607D
:106C8000064A138028462146BDE8384071F0BABD57
:106C9000696C000848650020D01200203860002090
:106CA00038B5714604460D48754671F099FD0C4B98
:106CB0001A8801321A800B4B1A68944288BF1C60F4
:106CC00040F6B8339C4203D9074B1A8801321A8028
:106CD00029460248BDE8384071F094BDA16C000817
:106CE00048650020D01200203860002070B5074DA4
:106CF00071462846744671F073FD054B1E88284680
:106D0000214671F07FFD304670BD00BFED6C00087C
:106D10004865002070B5074D71462846744671F0ED
:106D20005FFD054B1E682846214671F06BFD30461D
:106D300070BD00BF156D0008D012002070B5074D62
:106D400071462846744671F04BFD054B1E88284657
:106D5000214671F057FD304670BD00BF3D6D000803
:106D600038600020F0B5234F8BB00446714638469A
:106D7000764671F035FD2048FFF70AFD62684368EA
:106D8000DFED1E7AD31A06EE903A1D4BA268D3EDC2
:106D9000000A8368D31AB8EEE60AA27806EE903AA3
:106DA000637843EA0223E27843EA024343F317039A
:106DB00060EEA70AB8EEE67A01EE103A04AD20EED6
:106DC000270A60EE870AB8EEC11A2846FEF760F976
:106DD00095E807000AAB03E907003846314671F031
:106DE00011FD9DED070ADDED080A9DED091A0BB0B6
:106DF000F0BD00BF656D0008EC1700202C7D8E3FB4
:106E0000440D002038B5064D74462846714671F091
:106E1000E7FC28462146BDE8384071F0F3BC00BFCE
:106E2000056E000838B5714605460A48744671F08B
:106E3000D7FC0023EA18043300211C2B5160F9D140
:106E4000002385F8203021460248BDE8384071F023
:106E5000D9BC00BF256E000838B504462DED028B65
:106E600071460F48B0EE408A754671F0B9FC94F84F
:106E700020200B48531CDBB2062B84F8203004EB97
:106E8000820288BF002382ED018A294688BF84F8E8
:106E9000203071F0B7FCB0EE480ABDEC028B38BD73
:106EA000596E000870B5084D06467146284674466E
:106EB00071F096FC96F840602846C6F3810621469C
:106EC00071F0A0FC304670BDA56E000838B5094DC4
:106ED00071462846744671F083FC074B07491868D1
:106EE00003681B6A984728462146BDE8384071F080
:106EF00089BC00BFCD6E00086C61002039840A088F
:106F000038B5094D71462846744671F069FC074B47
:106F1000074AD86B116803681B68984728462146C2
:106F200071F070FC002038BD016F0008607B00200C
:106F30006C61002038B5064D74467146284671F0E4
:106F40004FFC2846214671F05DFC002038BD00BF93
:106F5000356F0008F8B5084D744606460F462846BA
:106F6000714671F03DFC2846214671F04BFC0C2324
:106F700003FB07600430F8BD556F000870B50B4E79
:106F8000044671463046754671F02AFC2368204657
:106F90009B6C984701462046FFF7DCFF29460446D4
:106FA000304671F02FFC204670BD00BF7D6F000899
:106FB000F8B50A4D06460F4628467146744671F0EC
:106FC0000FFC96F8363067F3820386F83630284691
:106FD0002146BDE8F84071F015BC00BFB16F000854
:106FE00070B50B4E044671463046754671F0F8FB9D
:106FF000236820461B69984701462046FDF7ACFAF6
:1070000029460446304671F0FDFB204670BD00BFA6
:10701000E16F000838B5094D71462846744671F095
:10702000DFFB074B0749186803681B6A9847284627
:10703000214671F0E7FB002038BD00BF1570000845
:107040006C6100204E840A0838B5094D7146284607
:10705000744671F0C5FB074B986B03680021DB6B2E
:1070600098472846214671F0CDFB002038BD00BF6F
:1070700049700008607B00202DE9F04B5D4F5E4DAC
:107080005E4C71463846764671F0AAFBD5F8008012
:10709000D8F8003004F17600D3F82090FDF724F9F9
:1070A000B0F900B004F17A00FDF71EF95A465449D0
:1070B000B0F900304046C847D5F80080D8F8003015
:1070C00004F19600D3F82090FDF70EF9B0F900B066
:1070D00004F19A00FDF708F95A464A49B0F9003020
:1070E0004046C847D5F80080D8F8003004F1B60013
:1070F000D3F82090FDF7F8F8B0F900B004F1BA0029
:10710000FDF7F2F85A464049B0F900304046C8470A
:10711000D5F80080D8F8003004F1D600D3F82090DC
:10712000FDF7E2F8B0F900B004F1DA00FDF7DCF8A1
:107130005A463649B0F900304046C847D5F8008075
:10714000D8F8003004F1F600D3F82090FDF7CCF821
:10715000B0F900B004F1FA00FDF7C6F85A462C4920
:10716000B0F900304046C847D5F80080D8F8003064
:1071700004F58B70D3F82090FDF7B6F8B0F900B0A5
:1071800004F58D70FDF7B0F85A462249B0F9003089
:107190004046C847D5F80080D8F8003004F59B7009
:1071A000D3F82090FDF7A0F8B0F900B004F59D7079
:1071B000FDF79AF85A461849B0F900304046C847DA
:1071C0002D682B6804F5AB70D3F82080FDF78CF8A0
:1071D000B0F9009004F5AD70FDF786F80F49B0F9ED
:1071E00000304A462846C04738463146BDE8F04B95
:1071F00071F008BB797000086C6100208C140020CD
:1072000079840A0887840A0895840A08A3840A08EE
:10721000B1840A08BF840A08CD840A08DB840A08FE
:1072200070B504460D462D487146764671F0D8FA81
:107230002368102D47D8DFE805F0090D12161A1E35
:107240002226462A2E3246363A3E42005B692449BF
:10725000204602E05B6923492046984738E05B6995
:1072600021492046F9E75B6920492046F5E75B693B
:107270001F492046F1E75B691E492046EDE75B693F
:107280001D492046E9E75B691C492046E5E75B6943
:107290001B492046E1E75B691A492046DDE75B6947
:1072A00019492046D9E75B6918492046D5E75B694B
:1072B00017492046D1E75B6916492046CDE75B694F
:1072C00015492046C9E71B6A144920462A469847B3
:1072D00031460248BDE8704071F094BA217200084E
:1072E000E9840A08F3840A08F8840A0801850A0870
:1072F00006850A0820850A080D850A0811850A08EE
:1073000018850A081D850A0827850A082D850A0898
:1073100033850A0838850A0841850A0849850A081C
:107320002DE9F843124C814688461248714675464D
:10733000164671F055FA20680F4907684A463F6AB9
:10734000B84720684146FFF76BFF20680B49036888
:107350001B6A9847206803681B6A0EB1084900E061
:107360000849984729460348BDE8F84371F04ABAEE
:107370006C6100202173000852850A085B850A08A9
:1073800067850A086B850A0870B5084D714628465E
:10739000744671F025FA0648FEF7A0FD2146064620
:1073A000284671F02FFA304670BD00BF897300087F
:1073B000E45E002038B5064D74467146284671F0EB
:1073C0000FFA2846214671F01DFA002038BD00BF93
:1073D000B573000870B5074D7446714606462846D9
:1073E00071F0FEF92846214671F00CFA06F11C00F6
:1073F00070BD00BFD573000870B50A4D2DED028B2E
:10740000714606462846744671F0EAF996ED0C8AF4
:107410002846214671F0F6F9B0EE480ABDEC028B21
:1074200070BD00BFF973000838B512487146754643
:1074300071F0D6F91048FEF751FD044698B10F4C93
:10744000236813B9FDF764FB2060FDF761FB246836
:107450004FF47A73001BB0FBF3F4094B1B889C427A
:1074600034BF002401240348294671F0CBF920469B
:1074700038BD00BF29740008E45E0020B46100201C
:10748000C467002038B50B487146754671F0A8F9FD
:10749000094B1C783CB1094B1C78033CE4B2012C2D
:1074A0008CBF002401240348294671F0ABF9204623
:1074B00038BD00BF857400083A600020885B00205A
:1074C00038B571460C48754671F08AF9FDF720FB16
:1074D0000A4B1B68C01A0A4B1A6822EAE2729042F1
:1074E0004FF0000488BF1C60034888BF0124294670
:1074F00071F088F9204638BDC174000830130020AF
:10750000D061002038B5064D74467146284671F0AA
:1075100067F92846214671F075F9012038BD00BF92
:1075200005750008F8B50A4E07460C463046714608
:10753000754671F055F994E8070007F11C0383E8DC
:10754000070030462946BDE8F84071F05BB900BF3E
:1075500025750008F7B50A4E02AC24ED010A714604
:1075600007463046754671F03BF9214607F1100099
:10757000FDF736FD3046294671F044F903B0F0BD01
:107580005575000870B50C4D2DED028B7146064601
:107590002846744671F024F906F11000FDF71CF935
:1075A00090ED008A2146284671F02CF9B0EE480A89
:1075B000BDEC028B70BD00BF8575000870B5074D2E
:1075C000064671462846744671F00AF9F68F284639
:1075D000214671F017F9304670BD00BFBD75000837
:1075E00070B50F4D064671462846744671F0F8F89E
:1075F000FDF78EFAD6F805609FED0A7A0A4B07EE82
:10760000906A67EE877A1860FDEEE77A074BC3ED64
:10761000007A28462146BDE8704071F0F3B800BFFB
:10762000E175000800007A4430130020D06100208A
:1076300070B50D4D064671462846744671F0D0F877
:10764000D6F805609FED097A094B07EE906A67EE60
:10765000877A2846FDEEE77A2146C3ED007ABDE839
:10766000704071F0CFB800BF317600080000C8420A
:10767000D061002038B5064D74462846714671F039
:10768000AFF828462146BDE8384071F0BBB800BFCE
:1076900075760008F7B50C4D06460F46284671462C
:1076A000744671F09DF807EE107AF8EE477A02A959
:1076B00061ED017A06F10C00FDF7F8F82846214645
:1076C00071F0A0F803B0F0BD9576000870B5064DD6
:1076D000744671460646284671F082F828462146CF
:1076E00071F090F8304670BDCD76000870B5084E48
:1076F000714604463046754671F072F82046FFF731
:10770000E5FF3046294671F07DF8204670BD00BF88
:10771000ED76000870B5084E714604463046754651
:1077200071F05EF82046FFF7E1FF3046294671F020
:1077300069F8204670BD00BF1577000870B5084E87
:10774000714604463046754671F04AF82046FFF708
:10775000BDFF3046294671F055F8204670BD00BF88
:107760003D77000870B5084E7146044630467546B0
:1077700071F036F82046FFF7A9FF3046294671F030
:1077800041F8204670BD00BF6577000870B5084E0F
:10779000714604463046754671F022F82046FFF7E0
:1077A00095FF3046294671F02DF8204670BD00BF88
:1077B0008D77000870B5084E714604463046754610
:1077C00071F00EF82046FFF7E1FF3046294671F0D0
:1077D00019F8204670BD00BFB577000870B5074E98
:1077E000044671463046754670F0FAFF044B23603C
:1077F0003046294671F006F8204670BDDD77000856
:1078000028740A0870B5094E04467146304675461C
:1078100070F0E6FF2046FFF7E1FF054B236030469E
:10782000294670F0EFFF204670BD00BF05780008C4
:10783000D8D40A0870B5094E0446714630467546DC
:1078400070F0CEFF002330466370A370E3702371A5
:10785000294670F0D7FF204670BD00BF357800087C
:1078600070B50A4E714604463046754670F0B8FF52
:10787000201DFFF7C7FF04F11400FFF7DBFF3046C0
:10788000294670F0BFFF204670BD00BF6178000838
:1078900070B5084E714604463046754670F0A0FF3C
:1078A00004F12400FCF756FD3046294670F0AAFF8B
:1078B000204670BD9178000870B5074E04467146A9
:1078C0003046754670F08CFF044B236030462946E5
:1078D00070F098FF204670BDB9780008D8730A0888
:1078E00070B50C4E044671463046754670F078FF10
:1078F0002046FFF7E1FF084B2360002384F8203087
:107900002046FFF78FFA3046294670F07BFF20466D
:1079100070BD00BFE1780008E8730A0870B5094E31
:10792000044671463046754670F05AFF2046FFF710
:10793000D7FF054B23603046294670F063FF204691
:1079400070BD00BF1D790008F8730A0870B5094EB4
:10795000714604463046754670F042FF2046FFF7F8
:10796000B5FE2046FCF7F6FC3046294670F04AFF8B
:10797000204670BD4D79000870B50C4E2DED028B80
:107980000446F0EE408AB0EE608A75467146304695
:1079900070F026FFC4ED008A84ED018A3046294646
:1079A00070F030FFBDEC028B204670BD7979000885
:1079B00070B50C4E044671463046754670F010FFA7
:1079C0004FF07E532362236123600023A360636032
:1079D0006361E360E361A36130462946BDE870401E
:1079E00070F010BFB179000870B50C4E71460446B6
:1079F0003046754670F0F4FE2046FCF7ABFC04F10F
:107A00000C00FCF7A7FC04F11800FCF7A3FC3046BF
:107A1000294670F0F7FE204670BD00BFE9790008E6
:107A20002DE9F0410A4E04460F4630467146754630
:107A3000904670F0D5FE002330462371A760C4F84D
:107A40000C80294670F0DEFE2046BDE8F08100BFC4
:107A5000217A000870B5084E0446714630467546D6
:107A600070F0BEFE0023304623706370294670F02C
:107A7000C9FE204670BD00BF557A000870B5084E9B
:107A8000044671463046754670F0AAFE0023304623
:107A900023706370294670F0B5FE204670BD00BFAC
:107AA0007D7A0008F8B5084E04460F463046714608
:107AB000754670F095FE002330462760A380294666
:107AC00070F0A0FE2046F8BDA57A000870B5074DFD
:107AD000064671462846744670F082FE367828467F
:107AE000214670F08FFE304670BD00BFCD7A000891
:107AF00070B5074D064671462846744670F070FE14
:107B000036782846214670F07DFE304670BD00BFB5
:107B1000F17A000870B5074D06467146284674464E
:107B200070F05EFE36782846214670F06BFE3046D7
:107B300070BD00BF157B000870B5074D0646714645
:107B40002846744670F04CFE36782846214670F080
:107B500059FE304670BD00BF397B000870B5074D37
:107B6000064671462846744670F03AFE3678284636
:107B7000214670F047FE304670BD00BF5D7B0008B7
:107B800070B5074D064671462846744670F028FECB
:107B900036782846214670F035FE304670BD00BF6D
:107BA000817B000870B5074D06467146284674462D
:107BB00070F016FE36782846214670F023FE3046D7
:107BC00070BD00BFA57B000870B5074D0646714625
:107BD0002846744670F004FE36782846214670F038
:107BE00011FE304670BD00BFC97B000870B5074D5F
:107BF000064671462846744670F0F2FD36782846EF
:107C0000214670F0FFFD304670BD00BFED7B0008DF
:107C100070B5074D064671462846744670F0E0FD83
:107C200036782846214670F0EDFD304670BD00BF25
:107C3000117C000870B5074D06467146284674460B
:107C400070F0CEFD36782846214670F0DBFD3046D8
:107C500070BD00BF357C000870B5074D0646714603
:107C60002846744670F0BCFD36782846214670F0F0
:107C7000C9FD304670BD00BF597C000870B5074D86
:107C8000064671462846744670F0AAFD36782846A6
:107C9000214670F0B7FD304670BD00BF7D7C000806
:107CA00070B5074D064671462846744670F098FD3B
:107CB00036782846214670F0A5FD304670BD00BFDD
:107CC000A17C000870B5074D0646714628467446EB
:107CD00070F086FD36782846214670F093FD3046D8
:107CE00070BD00BFC57C00082DE9F0410E468046FE
:107CF00071460E481446754670F072FD0C4B1C80A0
:107D00000C4B00241E60A7B21C2000FB0760FFF78D
:107D1000DDFE01340028F6D1074B04481F702946C8
:107D200070F070FD4046BDE8F08100BFE97C0008BE
:107D3000247D0020207D00201C7D002070B5084E91
:107D4000714604463046754670F04AFD04F1240041
:107D5000FEF70AFF3046294670F054FD204670BDFC
:107D60003D7D000870B5074E0446714630467546A5
:107D700070F036FD044B23603046294670F042FD1A
:107D8000204670BD657D0008E0CA0A0870B5074E40
:107D9000044671463046754670F022FD044B236060
:107DA0003046294670F02EFD204670BD8D7D0008BE
:107DB000F0AD0A0870B5094E044671463046754666
:107DC00070F00EFD064B23602046FFF7DFFF3046C4
:107DD000294670F017FD204670BD00BFB57D000834
:107DE00060AE0A0870B5074E0446714630467546C7
:107DF00070F0F6FC044B23603046294670F002FD1B
:107E0000204670BDE57D0008C8A80A0870B5094E77
:107E1000044671463046754670F0E2FC064B23601E
:107E20002046FFF79FFF3046294670F0EBFC2046C6
:107E300070BD00BF0D7E000880CB0A0870B5094EEA
:107E4000044671463046754670F0CAFC064B236006
:107E50002046FFF7AFFF3046294670F0D3FC20469E
:107E600070BD00BF3D7E0008D0AE0A0870B5094E57
:107E7000714604463046754670F0B2FC2046FFF766
:107E800071FF204670F0B4FD3046294670F0BAFC10
:107E9000204670BD6D7E000870B5094E71460446DF
:107EA0003046754670F09CFC2046FFF76FFF204679
:107EB00070F09EFD3046294670F0A4FC204670BD4F
:107EC000997E000870B5094E7146044630467546E5
:107ED00070F086FC2046FFF76DFF204670F088FDAD
:107EE0003046294670F08EFC204670BDC57E0008E5
:107EF00070B5094E714604463046754670F070FC08
:107F00002046FFF76FFF204670F072FD304629468D
:107F100070F078FC204670BDF17E000870B5094E07
:107F2000714604463046754670F05AFC2046FFF70D
:107F30006DFF204670F05CFD3046294670F062FC13
:107F4000204670BD1D7F000870B5094E714604467D
:107F50003046754670F044FC2046FFF76FFF204620
:107F600070F046FD3046294670F04CFC204670BD4E
:107F7000497F000870B50B4D71462846744670F075
:107F80002FFC094B09481E78FCF744F9314602786A
:107F9000074819F01DFD28462146BDE8704070F0E5
:107FA00031BC00BF757F0008786500209A1400205E
:107FB000E012002038B5094D71462846744670F02D
:107FC0000FFC07482AF032FB064818F0B1F82846A3
:107FD0002146BDE8384070F015BC00BFB57F0008F1
:107FE00054670020D05F002070B5714606460B48EC
:107FF000754670F0F5FB00240948225C1AB1204454
:10800000314649F051FECC34B4F5197FF4D12946FC
:108010000248BDE8704070F0F5BB00BFE97F000882
:108020002C5C002038B5074D71462846744670F028
:10803000D7FB1B20FFF7D8FF28462146BDE8384074
:1080400070F0E0BB2580000838B5074D7146284622
:10805000744670F0C5FB0020FFF7C6FF2846214696
:10806000BDE8384070F0CEBB4980000838B50B48F9
:108070007146754670F0B4FB00240948235C1BB1BF
:108080002044084949F0B6FFCC34B4F5197FF4D147
:1080900029460248BDE8384070F0B4BB6D80000846
:1080A0002C5C00204D81000838B571461D4874468F
:1080B00070F096FB1C4B986B0368DB6898471B4B72
:1080C0001A881B4B1988914206D01A80194B1860E8
:1080D000194B00221A7011E0184B1B7873B1154B25
:1080E00017491A68821A8A421D46134B01D9012189
:1080F0001970197811B1134B9A4205D821460948D5
:10810000BDE8384070F07EBB28600F48FCF7C8F926
:108110000028F3D00C48002128F0B4FD0A4828F0CC
:10812000EBFFEBE7A9800008607B0020385B0020B4
:10813000CC67002018680020D05E0020280D0020A9
:1081400080841E0040420F007860002010B5714608
:108150000446124870F044FB114B20461C60FCF7AB
:108160008BF9236820461B6C012198470D4B986BB7
:10817000036800215B6905229847FEF735FD0A4830
:10818000FCF78EF930B10848002128F07BFD064845
:1081900028F0B2FF054827F06DFCFBE74D81000891
:1081A0006C610020607B002078600020446000202B
:1081B00038B5074D71462846744670F011FB0548E6
:1081C00027F058FC2846214670F01CFB002038BDE3
:1081D000B18100082C68002038B50A4D7146284648
:1081E000744670F0FDFA084B0849186803681B6A6A
:1081F0009847074827F03EFC2846214670F002FBCE
:10820000002038BDD98100086C61002070850A0803
:108210004413002038B5074D71462846744670F067
:10822000DFFA054827F026FC2846214670F0EAFAD6
:10823000002038BD15820008C862002070B5274CA8
:1082400027482DED028B7146754670F0C9FA6378A8
:10825000A678244843EA0626E37846EA0346FCF774
:1082600043F8B0F9003046F317069E420DDDA278C0
:10827000637843EA0223E27843EA024343F31703B5
:1082800007EE903AB8EEE78A08E01648FCF72CF8BB
:10829000B0F9000008EE100AB8EEC88A124812F0D1
:1082A000D7F8C30710D51048DFED108AFCF75EFD44
:1082B00020EE280AB4EEC08AF1EE10FA04D40A487F
:1082C000FCF754FD20EE288A0548294670F09AFAFA
:1082D000B0EE480ABDEC028B70BD00BF796500208E
:1082E0003D8200089C140020E06100200000C8428C
:1082F00070B532487146764670F072FA304B1B7892
:108300001A0754D42F48FBF7DFFF90F90030012BF8
:1083100005D02C48FBF7D8FF03785B0644D52A48E4
:1083200043F082FD20B9294843F07EFD00283ED06D
:108330002748FBF7D9FFB0F9003040F21454A342AC
:1083400035DC2448FBF7D0FFB0F9003040F2A365DC
:10835000AB422CDD2048FBF7C7FFB0F90030A34249
:1083600025DC1E48FBF7C0FFB0F90030AB421EDD34
:108370001548FBF7B9FFB0F90030A34217DC1348EA
:10838000FBF7B2FFB0F90030AB4210DD1448FBF749
:10839000ABFFB0F90030A34209DC1248FBF7A4FFA1
:1083A000B0F90030AB4202DD0120FDF7D1FF3146CC
:1083B0000248BDE8704070F025BA00BFF1820008A5
:1083C000BC5E0020F114002042150020461500205C
:1083D0000215002006150020221500202615002079
:1083E000621500206615002070B5084D71460646DE
:1083F0002846744670F0F4F906F1370043F014FD96
:1084000028462146BDE8704070F0FCB9E9830008B9
:10841000F8B506460F460C487146754670F0E0F90F
:1084200000240A48225C22B1204431463A4649F0F1
:10843000BBFCCC34B4F5197FF3D129460248BDE822
:10844000F84070F0DFB900BF118400082C5C0020F8
:108450002DE9F04171462DED028B05462648764602
:1084600070F0BEF9254822F093FB27F049F8244824
:10847000B0EE408AFCF70EF9074630B11DB1214934
:108480000320FFF7C5FF00242DE0FCF745F9044663
:1084900030B9002DF7D003201B49FFF7B9FF22E0C8
:1084A000B5EE408AF1EE10FA06D0DFED187AB4EEA0
:1084B000E78AF1EE10FA04DD002DE4D00320144920
:1084C000DFE71448FCF770F980461348FBF70CFF10
:1084D000B0F90030984506DD002DD4D003200F49B7
:1084E000FFF796FF3C460448314670F08BF9BDEC2F
:1084F000028B2046BDE8F08151840008581300200B
:10850000945E00207E850A0891850A080000484292
:10851000A5850A0844640020B2140020BA850A0820
:1085200070B52DED028BB94E714684B00446B84843
:10853000754670F055F93378D90600F13281B548A7
:10854000FBF7C2FE90F9003033B90120FDF7DEFEE3
:108550000120FDF7FDFE24E1FFF7CAFE33781A077C
:1085600005D4002C00F01D810320AB4914E0A9487C
:10857000FBF7AAFE90F90030012B05D0A548FBF7C8
:10858000A3FE03789B071ED5A44B1B793BB9002C97
:1085900000F00781A2490320FFF73AFF01E1A1485B
:1085A00022F02EFBA04B9FEDA17AD3ED007AF8EEDE
:1085B000E77A30EE670AF0EEC07AF4EEC77AF1EEB1
:1085C00010FA00F3F6809348FBF77EFE90F9003036
:1085D000012B05D08F48FBF777FE03785E0733D574
:1085E00093480021FBF7B8FF002800F0E78090488F
:1085F000FBF7C6FF002800F0E6808D48FCF702F884
:1086000007C801AB83E80700184626F079FFDFEDC5
:10861000897AB4EEE70AF1EE10FA00F3DF808448BD
:10862000FCF71EF826F06CFFDFED837AB4EEE70A64
:10863000F1EE10FA00F3D780DFED807AB4EEE70AAE
:10864000F1EE10FA00F1CF807248FBF73DFE90F991
:108650000030012B05D06F48FBF736FE0378180772
:108660001AD5774B1878FBF7B3FE002840F0C0808E
:108670007448FBF729FE90F90030032B00F0B88016
:10868000714811F001FF002800F08B806E4811F056
:10869000DFFE810700F1B3805E48FBF715FE90F91D
:1086A0000030012B05D05B48FBF70EFE0378DA069D
:1086B0000BD5664823F09EFC002800F0E780634855
:1086C00023F054FF002800F0E6805248FBF7FCFD41
:1086D00090F90030012B05D04E48FBF7F5FD0378EB
:1086E0009B065BD55A48FBF7EFFD90F90030002B55
:1086F00040F0D6805748FBF7E7FD90F90030002B9B
:1087000040F0CE805448FBF7DFFD90F90030BBB15C
:108710005248FBF7E9FDB0F900605148FBF7E4FD72
:10872000B0F900300A339E4240F3CB804C48FBF74F
:10873000DBFDB0F9002040F28D339A4240F3C18056
:108740004848FBF7D1FDB0F90030B3F57A7FC0F2AD
:10875000BE804448FBF7C8FDB0F90030B3F5FA5FBE
:1087600000F3B5804048FCF737F890ED008A3F48A9
:10877000FCF752F8B4EEC08AF1EE10FA00F3AD80C7
:108780003B48FCF729F890ED008A3A48FCF744F89A
:10879000B4EEC08AF1EE10FA00F39F800120FDF7DD
:1087A000B5FD1B48294670F02DF804B0BDEC028BD6
:1087B00070BD002CF5D003202F49EDE6002CF0D041
:1087C00003202E49E8E61A4818F0A2FA00287FF4A0
:1087D00014AF002CE5D003202949DDE6002CE0D0C1
:1087E00003202849D8E6002CDBD003202649D3E615
:1087F0002046FFF72DFE00287FF442AFD1E7204648
:10880000FFF726FE0028CCD046E700BFBC5E002064
:1088100021850008F1140020D0850A081862002084
:10882000EA850A0858130020FC1200200000C84204
:10883000886500200000FA4300A05A4400803943B4
:1088400078650020B0140020E061002088590020E5
:10885000EF140020F0140020D61400204215002050
:10886000D814002008630020C4160020D817002068
:10887000C8160020DC17002003860A0819860A089B
:1088800035860A0854860A0875860A08002C88D09E
:108890000320154980E6002C83D0032013497BE692
:1088A0001348FBF711FD06781248FBF70DFD03781E
:1088B0009E427FF427AF002C3FF473AF03200E4994
:1088C0006AE6002C3FF46DAF03200C4964E6002CEF
:1088D0003FF467AF03200A495EE6002C3FF461AF26
:1088E0000320084958E600BF8D860A08A8860A08B2
:1088F000EF140020F0140020C0860A08E3860A085E
:10890000FE860A0816870A08F8B5714604465A48D2
:1089100076466FF065FF5948FBF7D6FC90F90030BA
:108920000BB90124A2E05548FBF7CEFC90F90030CA
:10893000012B05D05148FBF7C7FC0378980712D5E7
:108940004F4822F05DF94F4B9FED4F7AD3ED007AFF
:10895000F8EEE77A30EE670AF0EEC07AF4EEC77A06
:10896000F1EE10FA6DDC4548FBF7AEFC90F90030F3
:10897000012B05D04148FBF7A7FC037819070CD55C
:10898000424B1878FBF724FD00285FD14048FBF7E5
:108990009BFC90F90030032B58D03848FBF794FC2F
:1089A00090F90030012B05D03448FBF78DFC03789B
:1089B0009A0612D5374D05F14A00FBF785FC90F970
:1089C000003053B105F14C00B5F8AC70FBF78CFCEE
:1089D000B0F900303FB2BB423EDC2848FBF774FCE4
:1089E00090F90030012B05D02448FBF76DFC03788B
:1089F000DB0617D5284D29482B6983EAE377A7EBD7
:108A0000E377FBF771FCB0F900309F4229DC234883
:108A10006D69FBF769FCB0F90030002DB8BF6D42FD
:108A20009D421EDC1E4BD86B03685B68984701288B
:108A30007FF477AF1CB11B490320FFF7E9FC00244A
:108A400014E0002CFBD003201749F6E72046FFF77F
:108A5000FFFC0028F3D0A0E7002CF0D0032013493E
:108A6000EBE7002CEBD003201149E6E70248314642
:108A70006FF0C8FE2046F8BD09890008F1140020F7
:108A800058130020FC1200200000C8427865002026
:108A9000B01400208C140020EC1700200863002084
:108AA000607B002051870A0806860A0832870A0878
:108AB00044870A0838B5714605460E4874466FF07B
:108AC0008FFE032D10D8DFE805F00205080B032008
:108AD000094907E00320094904E00320084901E0AF
:108AE00008490320FFF794FC21460248BDE83840BE
:108AF0006FF088BEB58A000864870A0876870A087E
:108B000088870A089A870A0870B5714605461A4888
:108B100076466FF065FEFFF7EBFB184B1B78C3F34F
:108B2000C00434B9164B174ACC2000FB0530032192
:108B300007E0DC0908D1124B134ACC2000FB0530BA
:108B4000032149F031F911E0104BD86B03685B68E1
:108B50009847012809D10A4B0D4ACC2000FB05306B
:108B6000032149F021F9002400E0012402483146A4
:108B70006FF048FE204670BD098B0008BC5E0020E7
:108B80002C5C0020AB870A08C9870A08607B00209C
:108B9000E8870A082DE9F041124E04460F46304698
:108BA000714675466FF01CFE94ED007AD7ED007AA1
:108BB000B4EE677AF1EE10FA0CBF4FF000084FF0F8
:108BC000010820463946FBF771FE4146204643F036
:108BD0009FFC2946044630466FF014FE2046BDE84F
:108BE000F08100BF958B00082DE9F041104E04463E
:108BF0000F463046714675466FF0F2FD97F900302A
:108C000094F90080B8EB030818BF4FF00108204624
:108C10003946FCF799FD4146204643F079FC294648
:108C2000044630466FF0EEFD2046BDE8F08100BFFF
:108C3000E98B00082DE9F041104E04460F463046FE
:108C4000714675466FF0CCFDB7F90030B4F900807D
:108C5000B8EB030818BF4FF0010820463946FCF76F
:108C60001BFF4146204643F053FC2946044630464C
:108C70006FF0C8FD2046BDE8F08100BF358C0008CC
:108C800038B5074D7146284674466FF0A9FD054872
:108C900041F03AFF28462146BDE838406FF0B2BDAA
:108CA000818C00083C61002010B50A48714674466A
:108CB0006FF096FD0848FBF707FB90F9003013B101
:108CC000064817F077FD21460248BDE810406FF0D6
:108CD00099BD00BFA98C0008B4140020886500204D
:108CE000F8B51E4E1E4F2DED028B714607F1420462
:108CF000304675466FF074FD2046FBF7F5FAB0F983
:108D000000305B4207EE903A2046B8EEE78AFBF768
:108D1000EBFAB0F90000134C00EE900AB0EE480AEE
:108D2000F8EEE00A204610F07DF807F14400FBF76A
:108D3000DBFAB0F9000000EE100A2046B8EEC00AD7
:108D400010F0ACF8204610F07FFD304629466FF059
:108D500059FDBDEC028B0120F8BD00BFE18C00087D
:108D60008C14002014630020F8B51E4E1E4F2DED0C
:108D7000028B714607F14204304675466FF030FDB4
:108D80002046FBF7B1FAB0F900305B4207EE903AAB
:108D90002046B8EEE78AFBF7A7FAB0F90000134CBB
:108DA00000EE900AB0EE480AF8EEE00A204610F015
:108DB00039F807F14400FBF797FAB0F9000000EE2C
:108DC000100A2046B8EEC00A10F068F8204610F0ED
:108DD0003BFD304629466FF015FDBDEC028B0120AE
:108DE000F8BD00BF698D00088C14002014630020BA
:108DF00070B529482DED028B714676466FF0F0FC78
:108E0000264B93F9003033F0020201D000253AE0FE
:108E1000234CB4F9AE30002BF8DD2248FBF740FBC1
:108E200005460028F2D0204B1B7803F0A003202B2E
:108E3000ECD104F14200FBF757FAB0F900305B4285
:108E400007EE903A04F14200B8EEE78AFBF74CFADD
:108E5000B0F9000000EE900AB0EE480AF8EEE00A21
:108E600012480FF0DFFF04F14400FBF73DFAB0F9C0
:108E7000000000EE100A0D48B8EEC00A10F00EF81F
:108E80000A4810F0E1FC044831466FF0BBFCBDEC31
:108E9000028B284670BD00BFF18D00087865002068
:108EA0008C14002078600020BC5E00201463002039
:108EB00038B571462DED028B0546264874466FF095
:108EC0008FFCFBF729FC08B92DB93BE0224821F0C3
:108ED0003BFF0028F8D0214B214800221A70FBF7F5
:108EE000B9FE204810F0F0F81D48FBF7CFFE1D48F2
:108EF00010F0C2F81C48FBF7F7F9B0F900301A4837
:108F00005B4207EE903AB8EEE78AFBF7EDF9B0F96D
:108F1000000000EE900AB0EE480AF8EEE00A1148B0
:108F20000FF080FF1148FBF7DFF9B0F9000000EE09
:108F3000100A0C48B8EEC00A0FF0B0FF0C4812F04F
:108F400009F90125034821466FF05CFCBDEC028B5A
:108F5000284638BDB18E0008581300202A5B002037
:108F6000E45E002014630020CE140020D014002002
:108F7000D867002070B571462DED028B06461E485D
:108F800075466FF02DFCFBF7C7FB044600B956B3DE
:108F90001A4812F0C9FA1A48FBF7A6F9B0F90030DE
:108FA00017485B4207EE903AB8EEE78AFBF79CF968
:108FB000B0F9000000EE900AB0EE480AF8EEE00AC0
:108FC00010480FF02FFF1048FBF78EF9B0F90000A2
:108FD00000EE100A0B48B8EEC00A0FF05FFF094818
:108FE00010F032FC0124044829466FF00BFCBDEC64
:108FF000028B204670BD00BF758F0008E45E002024
:10900000CE14002014630020D014002070B57146E7
:109010002DED028B0646394875466FF0E1FBFBF7F4
:109020007BFB044608B9002E60D03548354CFBF771
:109030005BF9B0F9003032485B4207EE903AB8EE87
:10904000E78AFBF751F9B0F9000000EE900AB0EEA4
:10905000480AF8EEE00A2C480FF0E4FE2B48FBF734
:1090600043F9B0F9000000EE100A2748B8EEC00A34
:109070000FF014FF244810F0E7FB0023244863801E
:10908000A380FBF731F9B0F90000DFED227A224B23
:1090900006EE900AF8EEE66AB2EE0E7AE6EE877A0F
:1090A0001B789FED1E7A67EE877ADA09C4ED027AA3
:1090B000237809D0042262F3020362F3C50318483F
:1090C000237012F031FA04E062F3020362F3C50385
:1090D00023706378134843F001036370FBF794FE39
:1090E0000023A385E38584F8313001240348294611
:1090F0006FF088FBBDEC028B204670BD0D90000820
:10910000CE1400209412002014630020D0140020FC
:10911000C21400200000BE42BC5E00200AD7233CDF
:10912000E45E0020B812002010B52DED028B1F4820
:1091300084B0714674466FF053FBFBF7EDFA1C4B9D
:10914000187058B101A8FBF705F91A4801A912F0E7
:1091500059FA184801A9012212F094F91548FBF7B1
:10916000B1FD1448B0EE408AFBF7C8FD1248F0EE9E
:10917000400AB0EE480A0FF055FE0E48FBF7DAFD44
:109180000D480FF08BFE0C4810F05EFBFBF7C0FCA7
:109190000A4B18600A4B0548002221461A706FF0EE
:1091A00031FB012004B0BDEC028B10BD29910008F9
:1091B000425B0020E45E0020146300204013002086
:1091C000606500202DE9F04171462DED068B80464B
:1091D0004B484C4D4C4E4D4C7746F0EE408AB0EE2D
:1091E000609A6FF0FDFAFBF793FC494A1168411A47
:1091F000C829034618D9B6F90010A07807EE101A4E
:10920000617841EA0021E07841EA004141F3170129
:1092100007EE901AB8EEC77AF8EEE77A77EE677A3B
:1092200077EEA87AC5ED007A07EE908AB8F1000FC4
:109230001360B8EEE78A04DA364B1B7B13F0040F99
:1092400004E00AD0334B1B7B13F0080F05D1D5ED9A
:10925000007AE8EE097AC5ED007AB6F900102E48DA
:10926000D5ED009A09EE101AFCF7CAFCB6F90030E9
:109270002948B8EEC99A0AEE103A39EE409AFCF73E
:10928000D7FCB8EECAAAF0EE490A30EE0A1AB0EEE0
:10929000690A23F0FDFDA2786378B6F900601F48E3
:1092A00085ED000A43EA0223E27843EA024343F3EE
:1092B000170307EE903AB8EEE77A07EE906AF8EEF9
:1092C000E77A77EE677A77EEE88A78EE808AFBF7BE
:1092D00083FA90ED000ADFED120A9FED121A28EED4
:1092E000800A23F0D5FD0648F0EE408A39466FF03B
:1092F00089FA38EE880ABDEC068BBDE8F08100BF24
:10930000C59100083C5B0020B86100207965002011
:10931000D86100207860002014630020A014002091
:10932000000016C300001643F8B5194D2DED028B51
:109330000646B0EE408A28460F46714674466FF0E6
:109340004FFAB0EE480ADFED130AB7EE001A23F029
:109350009FFD28462146B0EE408A6FF053FA06EE94
:10936000907AB7EE007A37EE487AF8EEE67A06EEB3
:10937000906A67EE277AB8EEE67AE8EE077ABDECF7
:10938000028BFDEEE77A17EE900A00B2F8BD00BF3F
:10939000299300080000000030B52DED048B044631
:1093A00083B04848714675466FF01AFA002C5AD0BF
:1093B0004548FAF799FFB0F90030B3F5FA7F52D07B
:1093C00000214FF47A72204623F0E8FC04463E4820
:1093D000FAF78AFF4FF496714FF42F72B0F900003C
:1093E00023F0DCFC02A921F8020D3748FBF7AAFDA7
:1093F000B4F5FA7F40DA3548FAF776FFB0F90000A5
:1094000008EE100A3148FAF76FFFB0F900302E4825
:10941000E41A06EE904AB8EEE69AFAF765FFB0F95C
:1094200000402A48FAF760FFB0F900302748E31AF5
:1094300008EE903AFAF758FFB0F90030C3F5FA7326
:10944000F8EEE88A07EE103A68EE898AF8EEC77AF5
:10945000B8EEC88AC8EEA78A38EE888ABDEEC88AF8
:1094600018EE104AA4B2174829466FF0CBF920B283
:1094700003B0BDEC048B30BD13481FD0FAF734FFA6
:10948000B0F9000008EE100A0F48FAF72DFFA4F516
:10949000FA74B0F90030DFED0E7A07EE104AC3F52A
:1094A0007A73B8EEC77A06EE903A27EE277AB8EECE
:1094B000C88AF8EEE67AA7EE278ACFE7FAF714FF14
:1094C0000488D0E799930008DC140020D21400200F
:1094D0006F12033B2DE9F04B80460E463048714633
:1094E0001D46744617466FF07BF940462D4941F200
:1094F000941223F053FC41F294122A4980463046DC
:1095000023F04CFC06462848FAF7EEFEB0F900209E
:1095100041F294139A4203D1A7F800802E8039E0DB
:109520002148DFF88CB0DFF88C90FAF7DDFEBBF94C
:109530000030B0F900209A4214D01B48FAF7D4FE4C
:1095400003881948ABF80030FAF7CEFEB0F90000F6
:109550009FED167A07EE900AF8EEE77A67EE877AC3
:10956000C9ED007A06EE908AD9ED007AB8EEE67A77
:1095700006EE906A27EE277ABDEEC77A17EE103A0C
:10958000B8EEE67A3B8067EE277AFDEEE77A17EED3
:10959000903A2B8021460248BDE8F04B6FF032B97B
:1095A000D59400086CEEFFFF08630020530469396E
:1095B000285B00202C0D002070B5714604461C4825
:1095C00076466FF00DF91B4B1D78C5F340053DBB8A
:1095D000204629464FF47A7223F0E0FBB0F5C87FAD
:1095E000044607DA1448FAF77FFEB0F90030A4F514
:1095F000C87009E0B0F5167F0DDD0F48FAF774FE6C
:10960000B0F90030A4F5167058434FF4C87390FBBE
:10961000F3F080B200E02846084B0446188000E0D2
:109620000024034831466FF0EDF820B270BD00BF52
:10963000B995000860610020CE140020BA620020B5
:1096400070B52DED048B044682B03A4871467546DC
:109650006FF0C6F8002C63DD00214FF47A722046CB
:1096600023F09CFB04463448FAF73EFE4FF42F7279
:109670004FF49671B0F9000023F090FB02A921F895
:10968000020D2D48FBF75EFC2C48FAF72DFE0688EC
:10969000FCF7B2F936B2864204DD2848FAF724FE18
:1096A00004883EE0B4F5167F36DA2448FAF71CFE4B
:1096B000B0F9000008EE100A2048FAF715FEB0F9DC
:1096C0000030E41A07EE104AB8EEC79AFCF794F996
:1096D00004461A48FAF708FEB0F900301748E31AB2
:1096E00008EE903AFAF700FEB0F90030C3F51673B1
:1096F000F8EEE88A07EE103A68EE898AF8EEC77A43
:10970000B8EEC88AC8EEA78A38EE888ABDEEC88A45
:1097100018EE104AA4B204E0FCF76EF9044600E02B
:109720000024044829466FF06DF820B202B0BDEC69
:10973000048B70BD41960008DC140020D214002078
:10974000F8B571462DED028B04462848B0EE408AEC
:1097500075466FF045F82648FAF7C6FDB0F90020C7
:10976000DFED246A9FED247A042392FBF3F39BB28E
:109770001AB2002A214AB5EEC08AD2ED027A2288B6
:10978000D8BF0123F1EE10FA67EEC87AACBF38EE0D
:10979000268A36EEC88A9BB287EE087AD11A1A4416
:1097A00009B212B247EE277AFDEEE77A17EE900A79
:1097B00000B223F0F3FA064620801148FAF794FD30
:1097C00007880F48FAF790FD7F42BFB239B2B0F96F
:1097D0000020304623F0E2FABDEC028B20802946BF
:1097E0000248BDE8F8406FF00DB800BF419700088F
:1097F000C2140020000070420000FA4394120020BE
:10980000C41400202DE9F0412148224D2DED028B9A
:10981000714674466EF0E4FF1F48FAF7DDFFD0EDA5
:10982000007AF5EEC07AF1EE10FA02D800232B7020
:1098300025E01A4E1A4837683B68D3F80880FAF7D3
:1098400043FD01783846C047306803685B69984734
:109850001148B0EE408AFAF7BFFFDFED127A28EE2A
:10986000278AD0ED007A88EE278A0021FF22BDEEFC
:10987000C88A18EE100A00B223F090FA2870BDECE6
:10988000028B21460248BDE8F0416EF0BBBF00BF2D
:109890000598000850670020BC1400202C5B0020B5
:1098A000BA14002000007F4338B5074D71462846A2
:1098B00074466EF095FF054844F028FB2846214683
:1098C000BDE838406EF09EBFA99800080013002044
:1098D00038B5054671460D4874466EF081FFD5F8DF
:1098E000065007EE905AF5EEC07AF1EE10FA06DD5A
:1098F0009FED070A074827EE800A11F08FFD2146E9
:109900000248BDE838406EF07DBF00BFD198000826
:109910000000C842E45E002038B51C487146754618
:109920006EF05EFFFDF7D2FA4FF47A70FCF784F820
:10993000174C1849206803681B6A9847002116488D
:1099400044F064F840F6B830FCF776F82068036815
:109950009B689847002812DC2068104903681B6A3E
:10996000984700210C4844F087F840F6B830FCF7DF
:1099700063F8206803689B6898470028D8DD03488F
:1099800029466EF03FFF002038BD00BF199900083E
:109990006C61002002880A08F81200200C880A086E
:1099A000F8B5274D27482DED028B714676466EF0AF
:1099B00017FF2B78002B3BD0234C244F9FED248A9C
:1099C000013B2B70637843F001036370B7F96E308D
:1099D00000EE103AB8EEC00A20EE080A23F00EFAA4
:1099E000B7F98E70F0EE408A00EE107AB8EEC00A39
:1099F00020EE080A23F002FA16480121B0EE408A50
:109A0000FBF718F829781348D1F10101B0EE680A84
:109A1000F0EE480A38BF002113F0F4FA2D783DB972
:109A20000C482946FBF706F8637865F3000363707A
:109A3000BDEC028B31460348BDE8F8406EF0E2BE53
:109A4000D85E0020A1990008187D00208C14002009
:109A50006F128339EC17002038B50C4871467446F4
:109A60006EF0BEFE0A4821F06FF940B10848094D7A
:109A700021F0A4F9A860064821F082F96860214627
:109A80000248BDE838406EF0BDBE00BF599A0008DC
:109A9000581300207965002070B50B4D06462DED5A
:109AA000028B7146284674466EF09AFEF0680FF0FD
:109AB00067FB2846B0EE408A21466EF0A3FEB0EE6A
:109AC000480ABDEC028B70BD999A000838B5114860
:109AD000114C714675466EF083FE104B1B7823F0D7
