:020000040800F2
:10400000E4BD00207D500708B9570708B9570708D5
:10401000B9570708B9570708B9570708B957070824
:10402000B9570708B9570708B9570708B957070814
:10403000B9570708B9570708B9570708B957070804
:10404000B9570708B9570708B9570708B9570708F4
:10405000B9570708B9570708B9570708B9570708E4
:10406000B9570708B9570708B9570708B9570708D4
:10407000B9570708B9570708B9570708B9570708C4
:10408000B9570708B9570708B9570708B9570708B4
:10409000B9570708B9570708B9570708B9570708A4
:1040A000B9570708B9570708B9570708B957070894
:1040B000B9570708B9570708B9570708B957070884
:1040C000B9570708B9570708B9570708B957070874
:1040D000B9570708B9570708B9570708B957070864
:1040E000B9570708B9570708B9570708B957070854
:1040F000B9570708B9570708B9570708B957070844
:10410000B9570708B9570708B9570708B957070833
:10411000B9570708B9570708B9570708B957070823
:10412000B9570708B9570708B9570708B957070813
:10413000B9570708B9570708B9570708B957070803
:10414000B9570708B9570708B9570708B9570708F3
:10415000B9570708B9570708B9570708B9570708E3
:10416000B9570708B9570708B9570708B9570708D3
:10417000B9570708B9570708B9570708B9570708C3
:10418000B9570708B957070838B5064D7446714640
:10419000284671F0CDFD2846214671F0DBFD002058
:1041A00038BD00BF89410008F8B50B4E0446714682
:1041B0003046754671F0BCFD236820461F6ADB6CF3
:1041C000984701462046B84729460446304671F0D4
:1041D000C1FD2046F8BD00BFA9410008F8B50B4E4F
:1041E000044671463046754671F0A2FD23682046AC
:1041F0009F6A9B6C984701462046B847294604466B
:10420000304671F0A7FD2046F8BD00BFDD41000833
:1042100038B5714605460948744671F089FD28464F
:10422000FFF7C2FF10B12846FFF7D8FF0546214629
:10423000024871F08FFD284638BD00BF11420008CA
:1042400038B5064D74462846714671F071FD284612
:104250002146BDE8384071F07DBD00BF41420008F5
:1042600038B5064D74467146284671F061FD284602
:10427000214671F06FFD012038BD00BF614200088A
:1042800038B5064D74467146284671F051FD2846F2
:10429000214671F05FFD002038BD00BF814200085B
:1042A000F8B5084D064674460F462846714671F02B
:1042B0003FFD86F8E17028462146BDE8F84071F0E0
:1042C00049BD00BFA142000870B5064D7446714655
:1042D0000646284671F02CFD2846214671F03AFD2D
:1042E000304670BDC9420008F8B5084D0646744610
:1042F0000F462846714671F01BFD86F880712846EE
:104300002146BDE8F84071F025BD00BFE942000834
:10431000F8B5044671460E4804F13206754671F050
:1043200007FD3046676CFFF7CFFF01783846FFF78F
:10433000B7FFA46B34B13046FFF7C6FF01782046C3
:10434000FFF7D2FF29460248BDE8F84071F002BDF0
:104350001143000870B5084D71460646284674465C
:1043600071F0E6FC3046FFF7D3FF28462146BDE852
:10437000704071F0EFBC00BF5543000870B5064DAA
:10438000744671460646284671F0D2FC28462146FE
:1043900071F0E0FC304670BD7D43000870B5064DFD
:1043A000744671460646284671F0C2FC28462146EE
:1043B00071F0D0FC304670BD9D43000870B5074DCC
:1043C000064671462846744671F0B2FC96F80861BC
:1043D0002846214671F0BEFC304670BDBD43000842
:1043E00070B5084D714606462846744671F0A0FC2B
:1043F0003046FFF7C3FF06782146284671F0AAFC35
:10440000304670BDE143000870B5084E0446714661
:104410003046754671F08CFC00233046A360636023
:104420002360294671F096FC204670BD09440008BF
:1044300070B5074D744671460646284671F078FC03
:104440002846214671F086FC06F1580070BD00BF79
:104450003144000870B5094E714604463046754631
:1044600071F066FC0648FFF7E3FF07C884E8070021
:1044700030462946BDE8704071F06CBC55440008D8
:10448000B818002038B5714604460C48754671F0DE
:104490004FFCE01EC0B20D2808D80123834042F231
:1044A0001F101840041C18BF012400E0002403481A
:1044B000294671F04FFC204638BD00BF85440008F6
:1044C00070B5074D744671460646284671F030FCBB
:1044D0002846214671F03EFC06F1680070BD00BF21
:1044E000C144000870B5074D74467146064628461B
:1044F00071F01EFC2846214671F02CFC06F18C0060
:1045000070BD00BFE544000870B5074D74467146A4
:104510000646284671F00CFC2846214671F01AFC2C
:1045200006F1B00070BD00BF0945000870B5074D29
:10453000064671462846744671F0FAFB044B1E602D
:1045400028462146BDE8704071F004BC2D450008A6
:10455000507B002070B5084D0646714628467446CB
:1045600071F0E6FB767B284606F00106214671F0E5
:10457000F1FB304670BD00BF5545000870B50A4DCF
:104580002DED028B714606462846744671F0D0FB2D
:1045900096ED058A2846214671F0DCFBB0EE480A0C
:1045A000BDEC028B70BD00BF7D45000870B50A4DA3
:1045B0002DED028B714606462846744671F0B8FB15
:1045C00096ED068A2846214671F0C4FBB0EE480AF3
:1045D000BDEC028B70BD00BFAD45000870B50A4D43
:1045E0002DED028B714606462846744671F0A0FBFD
:1045F00096ED078A2846214671F0ACFBB0EE480ADA
:10460000BDEC028B70BD00BFDD450008F8B5074664
:10461000074D0E463E4471462846744671F088FBAD
:10462000767B2846214671F095FB3046F8BD00BFE9
:104630000D46000870B50B4D714606462846744677
:1046400071F076FB06F10C00FFF798FE90F9006020
:10465000003618BF01262846214671F07BFB304604
:1046600070BD00BF3546000870B5064D74467146F2
:104670000646284671F05CFB2846214671F06AFB2D
:10468000304670BD69460008F8B50A4D06460F462B
:1046900028467146744671F04BFB0C2303FB076000
:1046A0002C30FFF7E1FF21460646284671F052FB09
:1046B0003046F8BD8946000870B50B4E0446714679
:1046C0003046754671F034FB236820461B699847D5
:1046D00001462046FFF7D8FF29460446304671F0D0
:1046E00039FB204670BD00BFB9460008F8B5084D3B
:1046F000744606460F462846714671F019FB284657
:10470000214671F027FB0C2303FB07601030F8BD36
:10471000ED46000870B50B4E0446714630467546AE
:1047200071F006FB236820461B6998470146204626
:10473000FFF7DCFF29460446304671F00BFB2046AC
:1047400070BD00BF1547000870B5084D064671469C
:104750002846744671F0ECFA36792846C6F34006CE
:10476000214671F0F7FA304670BD00BF4947000896
:10477000F8B5094D0F46064671462846744671F055
:10478000D7FA382303FB07662846767F214671F067
:10479000E1FA3046F8BD00BF7147000870B50A4D18
:1047A000064671462846744671F0C2FA96F894108F
:1047B000304601F00301FFF7DBFF2146064628469D
:1047C00071F0C8FA304670BD9D47000838B51248F0
:1047D0007146744671F0ACFA104B1B78D80714D5AB
:1047E0000F48FFF7DBFF02280FD90E48FFF7ACFF99
:1047F00058B90D4B1B78190707D40C4A5278D207C9
:1048000003D49B0601D4012500E00025024821467F
:1048100071F0A0FA284638BDCD470008E01B002003
:104820000C210020B81B0020881E002074120020DC
:10483000F8B5094D0F46064671462846744671F094
:1048400077FA382307FB03331E442846B6882146EF
:1048500071F080FA3046F8BD3148000870B50A4D55
:10486000064671462846744671F062FA96F894102E
:10487000304601F00301FFF7DBFF214606462846DC
:1048800071F068FA304670BD5D48000870B5064D9D
:10489000744671460646284671F04AFA2846214673
:1048A00071F058FA304670BD8D48000870B5064D5D
:1048B000744671460646284671F03AFA2846214663
:1048C00071F048FA304670BDAD48000870B50B4D28
:1048D0002DED028B714606462846744671F028FA83
:1048E0003046FFF7E3FF90ED008A2146284671F03D
:1048F00031FAB0EE480ABDEC028B70BDCD4800081D
:1049000038B5714604460B48754671F011FA0D2C06
:1049100009D8012303FA04F442F6030323401C1CC4
:1049200018BF012400E000240248294671F012FA61
:10493000204638BD0149000870B5084D064671464D
:104940002846744671F0F4F9337C43F01C03337449
:1049500028462146BDE8704071F0FCB9394900088D
:10496000F8B5084D0F46064671462846744671F064
:10497000DFF93B68336028462146BDE8F84071F016
:10498000E9B900BF61490008F7B50A4E02AC24ED51
:10499000010A714607463046754671F0C9F9384636
:1049A0002146FFF7DDFF3046294671F0D3F903B009
:1049B000F0BD00BF89490008F7B50A4E02AC24EDEE
:1049C000010A714607463046754671F0B1F9381D47
:1049D0002146FFF7C5FF3046294671F0BBF903B009
:1049E000F0BD00BFB9490008F7B50A4E02AC24ED8E
:1049F000010A714607463046754671F099F907F18C
:104A000008002146FFF7ACFF3046294671F0A2F9B5
:104A100003B0F0BDE9490008F7B50A4E02AC24ED39
:104A2000010A714607463046754671F081F93846ED
:104A30002146FFF795FF3046294671F08BF903B008
:104A4000F0BD00BF194A000870B50B4D2DED028B6B
:104A5000714606462846744671F06AF93046FFF7FB
:104A600025FF90ED008A2146284671F073F9B0EEDB
:104A7000480ABDEC028B70BD494A000870B50B4D69
:104A80002DED028B714606462846744671F050F9AA
:104A9000301DFFF70BFF90ED008A2146284671F08C
:104AA00059F9B0EE480ABDEC028B70BD7D4A000892
:104AB00070B50C4D2DED028B7146064628467446A6
:104AC00071F036F906F10800FFF7F0FE90ED008A6C
:104AD0002146284671F03EF9B0EE480ABDEC028B43
:104AE00070BD00BFB14A0008F8B50A4D06460F4632
:104AF00028467146744671F01BF996F8363067F314
:104B0000410386F8363028462146BDE8F84071F06A
:104B100021B900BFE94A0008F8B5074D06467446BA
:104B20000F462846714671F003F9777228462146F0
:104B3000BDE8F84071F00EB9194B0008F8B50A4D00
:104B400006460F4628467146744671F0F1F896F80D
:104B5000363067F3C30386F8363028462146BDE871
:104B6000F84071F0F7B800BF3D4B0008F8B50A4DAA
:104B700006460F4628467146744671F0D9F896F8F5
:104B8000363067F3451386F8363028462146BDE8AF
:104B9000F84071F0DFB800BF6D4B000838B5074D25
:104BA00071462846744671F0C3F80548FFF748FB84
:104BB00028462146BDE8384071F0CCB89D4B00082E
:104BC000381F002070B5094D71462846744671F0B3
:104BD000AFF8074B986B03689B68984721460646D9
:104BE000284671F0B7F8304670BD00BFC54B0008CD
:104BF000A079002070B5094D0646714628467446D6
:104C000071F096F8064B1A7866F304121A7028466B
:104C10002146BDE8704071F09DB800BFF54B00081B
:104C2000881E002070B50C4D2DED028B7146064696
:104C30002846744671F07CF806F12400FFF726FE42
:104C400090ED008A2146284671F084F8B0EE480ABB
:104C5000BDEC028B70BD00BF254C000838B5064D79
:104C600074467146284671F063F82846214671F073
:104C700071F8012038BD00BF5D4C000870B50A4DC9
:104C80002DED028B0646B0EE408A284671467446EA
:104C900071F04EF886ED1C8ABDEC028B2846214649
:104CA000BDE8704071F056B87D4C000838B5084D2D
:104CB00071462846744671F03BF89FED060A064897
:104CC000FFF7DCFF2846214671F044F8012038BD8B
:104CD000AD4C0008000000002020002070B5094DF8
:104CE000714606462846744671F022F806F108001F
:104CF000FFF754FB06882146284671F02BF8304612
:104D000070BD00BFDD4C000870B50C4D2DED028B61
:104D1000714606462846744671F00AF806F11800F6
:104D2000FFF7B4FD90ED008A2146284671F012F895
:104D3000B0EE480ABDEC028B70BD00BF094D000803
:104D400070B50C4D2DED028B714606462846744613
:104D500070F0EEFF06F12800FFF7A8FD90ED008A45
:104D60002146284670F0F6FFB0EE480ABDEC028BF3
:104D700070BD00BF414D000870B50C4D2DED028B8C
:104D8000714606462846744670F0D2FF06F12000B0
:104D9000FFF77CFD90ED008A2146284670F0DAFF8F
:104DA000B0EE480ABDEC028B70BD00BF794D000823
:104DB00070B50C4D2DED028B7146064628467446A3
:104DC00070F0B6FF06F11C00FFF760FD90ED008A61
:104DD0002146284670F0BEFFB0EE480ABDEC028BBB
:104DE00070BD00BFB14D000870B50C4D2DED028BAC
:104DF000714606462846744670F09AFF06F12C006C
:104E0000FFF744FD90ED008A2146284670F0A2FF8E
:104E1000B0EE480ABDEC028B70BD00BFE94D000842
:104E200070B5104E2DED028B714604463046754626
:104E300070F07EFF04F10800FFF728FD90ED008A76
:104E400004F11000FFF722FDD0ED007A38EE678AFA
:104E50003046294670F07EFFB0EE480ABDEC028B6A
:104E600070BD00BF214E0008F8B5094D06460F463B
:104E700028467146744670F05BFF337867F3410350
:104E8000337028462146BDE8F84070F063BF00BF8C
:104E9000694E000838B5714605460748744670F0FB
:104EA00047FFFFF793FC2146002818BF054602483C
:104EB00070F050FF284638BD954E000870B5084D7B
:104EC000064671462846744670F032FF0023736030
:104ED000336028462146BDE8704070F03BBF00BFFC
:104EE000BD4E000838B523487146744670F020FF67
:104EF000214B93ED000AB5EE400AF1EE10FA33D0E3
:104F00001E4DD5ED007AF5EE407AF1EE10FA2BD079
:104F10001B48FFF739FD1B4B194893ED000AFFF7BB
:104F20004BFD194B164893ED000AFFF75DFD174B3B
:104F3000174893ED000AFFF76FFD164895ED000A3C
:104F4000FFF722FD144B134893ED000AFFF734FDE1
:104F5000124B104893ED000AFFF746FD104B114825
:104F600093ED000AFFF758FD21460248BDE838409E
:104F700070F0F0BEE54E0008BC1F0020DC1B0020D6
:104F800020160020F81E0020F01E002070240020B3
:104F90002817002040160020B4180020001C002014
:104FA0001C1200202C170020F8B5094D06460F46AC
:104FB00028467146744670F0BBFE337967F30003F0
:104FC000337128462146BDE8F84070F0C3BE00BFEB
:104FD000A94F000870B5074D06467146284674462D
:104FE00070F0A6FE36782846214670F0B3FE3046B3
:104FF00070BD00BFD54F0008F8B5084E0F460446F7
:1050000071463046754670F093FE3B8823803046EB
:10501000294670F09FFE2046F8BD00BFF94F0008FA
:1050200070B50A4D2DED028B0646B0EE408A28463B
:105030007146744670F07CFE86ED048ABDEC028BEE
:1050400028462146BDE8704070F084BE215000081B
:10505000F8B50E4D0E4E714607462846744670F060
:1050600067FE06F14E00FFF799F9B0F90030FB1A20
:1050700000EE103A06F53A70B8EEC00AFFF7D0FF1E
:1050800028462146BDE8F84070F064BE5150000843
:10509000DC130020F8B5084E0F4604467146304632
:1050A000754670F045FE3B6823603046294670F037
:1050B00051FE2046F8BD00BF95500008F7B50A4ED6
:1050C00002AC24ED010A714607463046754670F081
:1050D0002FFE214607F11400FFF7DCFF304629467A
:1050E00070F038FE03B0F0BDBD500008F8B5084EB2
:1050F0000F46044671463046754670F019FE3B78FF
:1051000023703046294670F025FE2046F8BD00BFCA
:10511000ED500008F7B50A4E02AC24ED010A7146C5
:1051200007463046754670F003FE214607F12C0015
:10513000FFF7B0FF3046294670F00CFE03B0F0BD1B
:105140001551000870B50E4E2DED048B0446B0EEDF
:10515000409AF0EE608AB0EE418A7546714630465C
:1051600070F0E6FD84ED009AC4ED018A84ED028AB8
:105170003046294670F0EEFDBDEC048B204670BD34
:105180004551000870B5084D0646714628467446DC
:1051900070F0CEFD36792846C6F34006214670F001
:1051A000D9FD304670BD00BF8551000838B5064DA9
:1051B00074467146284670F0BBFD2846214670F0C3
:1051C000C9FD002038BD00BFAD51000870B5074DC6
:1051D000064671462846744670F0AAFDB6F89460FB
:1051E0002846214670F0B6FD30B270BDCD510008A2
:1051F00070B50A4D2DED028B714606462846744661
:1052000070F096FD96ED1C8A2846214670F0A2FDAE
:10521000B0EE480ABDEC028B70BD00BFF151000832
:1052200070B50A4D2DED028B714606462846744630
:1052300070F07EFD96ED2C8A2846214670F08AFD9E
:10524000B0EE480ABDEC028B70BD00BF21520008D1
:1052500070B50A4D2DED028B714606462846744600
:1052600070F066FD96ED2F8A2846214670F072FD9B
:10527000B0EE480ABDEC028B70BD00BF5152000871
:10528000F8B5084D744606460F462846714670F03C
:105290004FFD2846214670F05DFD382303FB076073
:1052A0002630F8BD8152000870B50A4D0646714699
:1052B0002846744670F03CFD96F89410304601F094
:1052C0000301FFF7DDFF21460646284670F042FD48
:1052D000304670BDA9520008F8B5084D0646744620
:1052E0000F462846714670F023FD86F82870284640
:1052F0002146BDE8F84070F02DBD00BFD95200082E
:10530000F8B50A4D06460F4628467146744670F0B9
:105310000FFD0C2303FB0760BC30FFF7A5F9214606
:105320000646284670F016FD3046F8BD01530008C9
:1053300070B50B4E044671463046754670F0F8FC69
:1053400023682046DB6C984701462046FFF7D8FFCC
:1053500029460446304670F0FDFC204670BD00BF73
:10536000315300082DE9FF4BDFF864807146404659
:10537000774670F0DDFC1348FFF7DAFF124B064664
:105380000068D3F800909DF097FC04467068D9F847
:1053900000B00D469DF090FCCDE90001B0689DF095
:1053A0008BFCCDE9020122464846DBF82060074924
:1053B0002B46B0474046394604B0BDE8F04B70F08C
:1053C000C9BC00BF40170020941E002074500A087A
:1053D00065530008F8B50A4D06460F462846714643
:1053E000744670F0A5FC0C2303FB07609830FFF7B0
:1053F0003BF921460646284670F0ACFC3046F8BD25
:10540000D553000870B50B4E0446714630467546BC
:1054100070F08EFC236820469B6C9847014620461E
:10542000FFF7D8FF29460446304670F093FC20462B
:1054300070BD00BF05540008F8B50A4D06460F467A
:1054400028467146744670F073FC0C2303FB07601A
:105450007430FFF709F921460646284670F07AFCB9
:105460003046F8BD3954000870B50B4E04467146FD
:105470003046754670F05CFC236820469B6C98476C
:1054800001462046FFF7D8FF29460446304670F013
:1054900061FC204670BD00BF695400082DE9F04B47
:1054A000DFF89090204C8CB071464846F04670F082
:1054B0003FFC2046FFF7A6FF07462046FFF7D4FF34
:1054C0001A4BD3F800B00646DBF8003038680B936F
:1054D0009DF0F2FB044678680D469DF0EDFBCDE9AA
:1054E0000001B8689DF0E8FBCDE9020130689DF04D
:1054F000E3FBCDE9040170689DF0DEFBCDE9060118
:10550000B0689DF0D9FBCDE908010B9B08491E6AE4
:10551000584622462B46B047484641460CB0BDE8A7
:10552000F04B70F017BC00BF40170020941E002005
:1055300090500A089D54000870B5084D7146064603
:105540002846744670F0F4FB3046FEF717FF0678E5
:105550002146284670F0FEFB304670BD39550008E4
:1055600070B5084D714606462846744670F0E0FB5B
:10557000701CFEF703FF06782146284670F0EAFB10
:10558000304670BD6155000870B5084D714606463D
:105590002846744670F0CCFBF01CFEF7EFFE067850
:1055A0002146284670F0D6FB304670BD895500086C
:1055B00070B5084D714606462846744670F0B8FB33
:1055C000B01CFEF7DBFE06782146284670F0C2FBD1
:1055D000304670BDB155000838B5714604460A48DA
:1055E000754670F0A5FBB4F5966F05DBB4F5E16F79
:1055F000D4BF0124022400E000240348294670F0AF
:10560000A9FB204638BD00BFD9550008F7B50A4DA3
:1056100006460F4628467146744670F089FB02A97B
:10562000301D01F8017DFFF761FD2846214670F02D
:1056300091FB03B0F0BD00BF0D56000838B515480A
:105640007146754670F074FB134BB3F9EC3040F2C1
:10565000CE42934211DDB3F5AA6F10DD40F2D25273
:1056600093420EDD40F2546293420CDD40F2D56469
:10567000A342CCBF0524042406E0002404E0012456
:1056800002E0022400E003240248294670F062FB95
:10569000204638BD3D560008DC130020F8B5084D03
:1056A0000F46064671462846744670F041FB3B782B
:1056B000337028462146BDE8F84070F04BBB00BF70
:1056C0009D560008F7B50A4D06460F462846714616
:1056D000744670F02DFB02A906F1350001F8017D3A
:1056E000FFF7DCFF2846214670F034FB03B0F0BD25
:1056F000C556000870B50A4D7146064628467446E0
:1057000070F016FB3046FEF739FE90F90060003667
:1057100018BF01262846214670F01CFB304670BD9C
:10572000F556000870B5084D714606462846744681
:1057300070F0FEFAB01DFEF731FE068821462846BD
:1057400070F008FB30B270BD25570008F7B50A4D60
:1057500006460F4628467146744670F0E9FA02A9DB
:1057600006F1500001F8017DFFF7C0FC28462146F4
:1057700070F0F0FA03B0F0BD4D57000870B5084D59
:10578000714606462846744670F0D2FA3046FEF757
:10579000F5FD06782146284670F0DCFA70B270BD3F
:1057A0007D57000838B571462DED028B04460C4834
:1057B0007546B0EE408A70F0BBFA04F5A470FEF7AF
:1057C000DDFD90F900300648022B08BF84ED5F8AAA
:1057D000BDEC028B2946BDE8384070F0BBBA00BF73
:1057E000A557000838B571462DED028B04460C48CC
:1057F0007546B0EE408A70F09BFA04F5A470FEF78F
:10580000BDFD90F900300648012B08BF84ED5F8A8A
:10581000BDEC028B2946BDE8384070F09BBA00BF52
:10582000E5570008F8B5094D744606460F46284668
:10583000714670F07DFA2846214670F08BFA0C23F1
:1058400003FB076000F5B270F8BD00BF25580008E3
:10585000F8B50F46074D064606EBC70671462846C3
:10586000744670F065FA36692846214670F072FA7F
:105870003046F8BD5158000870B5084D06467146CF
:105880002846744670F054FA96F894602846C6F399
:105890008106214670F05EFA304670BD79580008E6
:1058A00070B5074D064671462846744670F040FABA
:1058B00036692846214670F04DFA304670BD00BF6B
:1058C000A158000870B50B4D06467146284674462F
:1058D00070F02EFA084B1A7866F3C3021A70074B61
:1058E0005A7866F304125A7028462146BDE8704083
:1058F00070F030BAC5580008881E0020587B002080
:1059000038B5074D71462846744670F011FA054BBC
:1059100000221A7028462146BDE8384070F01ABAB5
:10592000015900086618002070B5074D06467146FB
:105930002846744670F0FCF9B36C9E8828462146D0
:1059400070F008FA30B270BD2959000870B50D4DDD
:1059500071462846744670F0EBF90B48FEF71EFDC1
:10596000B0F9000007EE900AFAEEEF7A2846FDEE55
:10597000E77A214617EE906AB6B270F0EBF930B2D2
:1059800070BD00BF4D5900082C14002070B5094DA2
:1059900071462846744670F0CBF9074B986B036844
:1059A000DB68984721460646284670F0D3F9304612
:1059B00070BD00BF8D590008A0790020F8B5084DD2
:1059C0000F46064671462846744670F0B1F93B888A
:1059D000338028462146BDE8F84070F0BBB900BFCF
:1059E000BD590008F8B5074D064674460F462846CF
:1059F000714670F09DF9B78028462146BDE8F84011
:105A000070F0A8B9E5590008F8B5094D06460F46EB
:105A100028467146744670F08BF93046B763FEF73E
:105A200077FC28462146BDE8F84070F093B900BFE6
:105A3000095A000838B5064D74462846714670F07C
:105A400077F928462146BDE8384070F083B900BF99
:105A5000355A000870B5094D714606462846744609
:105A600070F066F9064B986B0268B1B252689047C5
:105A700028462146BDE8704070F06CB9555A0008C0
:105A8000A079002070B50A4D064671462846744636
:105A900070F04EF9B369D3ED067AF8EEE77A28464E
:105AA000C6ED187A2146BDE8704070F053B900BFCA
:105AB000855A000870B50A4D2DED028B71460646D9
:105AC0002846744670F034F996ED2B8A2846214614
:105AD00070F040F9B0EE480ABDEC028B70BD00BF1B
:105AE000B55A000838B50E4D2DED028B714608EE03
:105AF000100A2846744670F01BF90A48FEF7C6FEE5
:105B0000B8EEC88AD0ED007A28EE278A28462146CA
:105B100070F020F9B0EE480ABDEC028B38BD00BF32
:105B2000E55A00081016002070B5094E044671466B
:105B30003046754670F0FCF8A0680368DB6A984749
:105B4000304684ED1C0A2946BDE8704070F002B969
:105B5000295B000870B50A4D2DED028B7146064693
:105B60002846744670F0E4F896ED168A28462146D9
:105B700070F0F0F8B0EE480ABDEC028B70BD00BFCB
:105B8000555B000870B50A4D2DED028B7146064637
:105B90002846744670F0CCF896ED178A28462146C0
:105BA00070F0D8F8B0EE480ABDEC028B70BD00BFB3
:105BB000855B000870B50A4D2DED028B71460646D7
:105BC0002846744670F0B4F896ED188A28462146A7
:105BD00070F0C0F8B0EE480ABDEC028B70BD00BF9B
:105BE000B55B000870B50C4D06462DED028B714675
:105BF0002846744670F09CF8F068FFF7DBFFB0EEC3
:105C0000408ABDEEC88A2846214670F0A3F818EEF7
:105C1000100ABDEC028B70BDE55B000870B50A4D43
:105C20002DED028B714606462846744670F080F8CA
:105C300096ED198A2846214670F08CF8B0EE480A95
:105C4000BDEC028B70BD00BF1D5C000870B50C4D33
:105C500006462DED028B71462846744670F068F8B2
:105C6000F068FFF7DBFFB0EE408ABDEEC88A284639
:105C7000214670F06FF818EE100ABDEC028B70BD73
:105C80004D5C000870B50A4D2DED028B714606463D
:105C90002846744670F04CF896ED108A2846214646
:105CA00070F058F8B0EE480ABDEC028B70BD00BF32
:105CB000855C000810B571462DED028B15487446C1
:105CC00070F036F8144B5A789978DB7842EA012262
:105CD00042EA034343F31703B3F57A7F05DB0F482A
:105CE000FFF7D0FFB0EE408A0BE00D48FEF756FB01
:105CF000B0F90030002BC8BF5B4207EE903AB8EE17
:105D0000E78A0448214670F025F8B0EE480ABDEC59
:105D1000028B10BDB55C000841220020202000202D
:105D20001C14002070B50C4D06462DED028B7146FB
:105D3000284674466FF0FCFFF068FFF73BFFB0EEBB
:105D4000408ABDEEC88A2846214670F003F818EE56
:105D5000100ABDEC028B70BD255D000870B50C4DBE
:105D600006462DED028B7146284674466FF0E0FF23
:105D7000F068FFF753FFB0EE408ABDEEC88A2846B0
:105D800021466FF0E7FF18EE100ABDEC028B70BDE4
:105D90005D5D000870B5094D71460646284674469B
:105DA0006FF0C6FFD6ED0A7AFDEEE77A284617EEC9
:105DB000906A21466FF0CEFF304670BD955D0008B9
:105DC00070B5084D06467146284674466FF0B0FF20
:105DD0000023F386338728462146BDE870406FF0E4
:105DE000B9BF00BFC15D000870B5074D744671466C
:105DF000064628466FF09CFF284621466FF0AAFF12
:105E000006F15C0070BD00BFE95D000870B5084D8B
:105E100006467146284674466FF08AFF3678284653
:105E200006F0010621466FF095FF304670BD00BFB9
:105E30000D5E000870B5064D74467146064628464C
:105E40006FF076FF284621466FF084FF304670BD24
:105E5000355E000870B50A4D2DED028B0646B0EE9A
:105E6000408A2846714674466FF062FF86ED1C8AB0
:105E7000BDEC028B28462146BDE870406FF06ABF3A
:105E8000555E000870B50A4D2DED028B0646B0EE4A
:105E9000408A2846714674466FF04AFF86ED1D8A97
:105EA000BDEC028B28462146BDE870406FF052BF22
:105EB000855E000870B504460D462DED028B7146D7
:105EC000644876466FF034FF2188B5F900200BB2A4
:105ED000002B02DD002A03DA08E009B1002A05DC04
:105EE000002AB8BF5242B2F5E16F01DD2B88A8E06D
:105EF00007EE103A002BF8EEC77A9FED578A50DD77
:105F0000564867EE888AFEF749FAB0F90030032B4D
:105F10000CDD5248FEF742FAB0F90020042392FB50
:105F2000F3F307EE903AB8EEE77A01E0B7EE007AC5
:105F3000F4EEC78AF1EE10FA08DDB4F9003007EE8E
:105F4000903AF8EEE77A27EE888A15E04348FEF7A4
:105F500025FAB0F90030032B0CDD4048FEF71EFA9D
:105F6000B0F90020042392FBF3F308EE103AB8EEE8
:105F7000C88A01E0B7EE008AB4F9003007EE903A23
:105F8000F8EEE77A37EEC88ABDEEC88A18EE103A06
:105F90009BB22380B5F900201BB29342B8BF1346D1
:105FA0004FE02E4867EEC88AFEF7F8F9B0F90030E6
:105FB000032B0CDD2948FEF7F1F9B0F9002004238A
:105FC00092FBF3F307EE103AF8EEC77A01E0F7EE32
:105FD000007AF4EEE78AF1EE10FA08DDB4F9003049
:105FE00007EE903AF8EEE77A27EEC88A15E01B48EC
:105FF000FEF7D4F9B0F90030032B0CDD1748FEF79B
:10600000CDF9B0F90020042392FBF3F308EE103A27
:10601000B8EEC88A01E0B7EE008AB4F9003007EEA6
:10602000903AF8EEE77A38EE278ABDEEC88A18EE85
:10603000103A9BB22380B5F900201BB29342A8BF4F
:106040001346BDEC028B238031460248BDE8704008
:106050006FF080BEB55E0008CDCC4C3C1214002021
:1060600038B50C4D7146284674466FF061FE0A4BF8
:106070001A78052161F302021A70C8225A8300229D
:106080005A805A8EDA8328462146BDE838406FF0A0
:1060900061BE00BF61600008E411002038B50C4DFE
:1060A0007146284674466FF043FE0A4B1A78052164
:1060B00061F3C5021A70C8229A8300229A809A8ED0
:1060C0001A8428462146BDE838406FF043BE00BF21
:1060D0009D600008E411002038B533482DED048B95
:1060E000714675466FF024FE304B1A78C2F34102B8
:1060F000002A51D05978C8074ED52D4C6FF30001B6
:106100005970B4F96E3007EE103A012AB8EEC77A2A
:106110000AD1284BD3ED006AB4F98E3008EE903ADC
:10612000254BF8EEE88A09E0244BD3ED006AB4F978
:106130008E3008EE903A224BF8EEE88AD3ED007AE2
:10614000204827EEE88A68EEA68AA7EE268AE7EEC0
:10615000278AFFF765F81B48B0EE409AFFF778F8FA
:1061600020EE280A1748A9EE080ABDEEC00A10EE74
:10617000103AA4F86E30FFF76BF81248B0EE409A70
:10618000FFF74EF820EE280AA8EE490ABDEEC00A35
:1061900010EE103AA4F88E30BDEC048B294602486C
:1061A000BDE838406FF0D6BDD9600008E01B002084
:1061B000DC1300201C0D002008220020140D0020FC
:1061C00084660020C02400202DE9F0410A4D80465D
:1061D0000F462846714674466FF0AAFD07480668C8
:1061E00041463A463668B047284621466FF0B2FD30
:1061F0000020BDE8F08100BFC9610008A07900203F
:1062000070B50B4D06467146284674466FF090FDFA
:10621000084B1A7866F382021A70074B5A7866F3B5
:10622000C3025A7028462146BDE870406FF092BD07
:1062300001620008881E0020587B002038B5714696
:1062400004460C4875466FF073FD0B4B1A78C2F389
:106250000011A14207D064F304121A70074B1A7898
:1062600064F3C7121A7029460248BDE838406FF03F
:1062700071BD00BF3D620008E01B0020587B00207C
:1062800038B571460546094874466FF051FD084B14
:1062900006481A78C2F3C001A9421CBF65F3C302C5
:1062A0001A702146BDE838406FF054BD8162000885
:1062B000E01B002038B5104D2DED028B71462846AD
:1062C00074466FF035FD0D48FEF758F890F9000060
:1062D000DFED0B7A07EE100AB8EEC77AB0EE008A4F
:1062E000A7EE278A284621466FF034FDB0EE480A13
:1062F000BDEC028B38BD00BFB56200081114002050
:10630000CDCCCC3D70B571460546104874466FF053
:106310000FFDFEF757FC06460D48FEF72FF890F9E3
:106320000030B3EB962F01D2002508E035B9094BB8
:10633000D86A03681B6A98470028F5D101250348ED
:1063400021466FF007FD284670BD00BF05630008B9
:10635000EB130020A0790020F8B5084D74460646DE
:106360000F46284671466FF0E3FC284621466FF041
:10637000F1FC0C2303FB07604C30F8BD59630008A7
:1063800070B50B4E04467146304675466FF0D0FC32
:1063900023682046DB6C984701462046FFF7DCFF68
:1063A0002946044630466FF0D5FC204670BD00BF3C
:1063B00081630008F8B50F46074D064606EBC70691
:1063C0007146284674466FF0B3FCF66828462146AD
:1063D0006FF0C0FC3046F8BDB563000870B50A4DDB
:1063E00006467146284674466FF0A2FC96F8941053
:1063F000304601F00301FFF7DDFF2146064628463F
:106400006FF0A8FC304670BDDD630008F8B5094D9B
:10641000744606460F46284671466FF089FC2846AA
:1064200021466FF097FC382307FB0333F018083040
:10643000F8BD00BF0D64000870B50A4D06467146F0
:10644000284674466FF074FC96F89410304601F0BC
:106450000301FFF7DBFF2146064628466FF07AFC72
:10646000304670BD39640008F8B50C4D2DED028B37
:1064700006460F462846714674466FF059FC38238D
:1064800003FB076696ED0D8A284621466FF062FCF5
:10649000B0EE480ABDEC028BF8BD00BF696400088D
:1064A00070B50D4D06462DED028B7146284674469B
:1064B0006FF03EFC96F89410304601F00301FFF7B0
:1064C000D3FF2846B0EE408A21466FF043FCB0EE81
:1064D000480ABDEC028B70BDA164000838B50546C2
:1064E0007146084874466FF023FCA88B4FF6FF7581
:1064F000A84214BF05460025214602486FF02AFC39
:10650000284638BDDD64000870B50A4D7146064660
:10651000284674466FF00CFC301DFDF72FFF90F9F4
:106520000060003618BF0126284621466FF012FC95
:10653000304670BD0965000870B5074D06467146C6
:10654000284674466FF0F4FB96F8286028462146EA
:106550006FF000FC304670BD3965000870B5074D1E
:1065600006467146284674466FF0E2FB368E284692
:1065700021466FF0EFFB304670BD00BF5D6500083F
:1065800070B5074D06467146284674466FF0D0FB3D
:10659000F66A284621466FF0DDFB304670BD00BF2D
:1065A0008165000870B5064D74467146064628465A
:1065B0006FF0BEFB284621466FF0CCFB304670BD25
:1065C000A565000870B50D46044671462448764618
:1065D0006FF0AEFB082D3BD804EB45007230FFF79F
:1065E000E1FF007807EE900A082DF8EE677A08D0F0
:1065F00094F864300BB9236C1BB1B5EE007A67EEEA
:10660000877AF5EEC07AF1EE10FA21D9254495F893
:106610008430D3B99FED137A94F88D40F4EE477A25
:10662000F1EE10FAC8BFF0EE477A87EE277A06EE51
:10663000904AF8EEE66A012477EE267AFCEEE77AD5
:1066400017EE903A85F8843003E0013B85F88430FA
:106650000024034831466FF07DFB204670BD00BF2B
:10666000C56500080000484270B5074D7446714684
:10667000064628466FF05CFB284621466FF06AFB11
:1066800006F19C0070BD00BF6966000870B50C4D36
:106690002DED028B06467146B0EE408A28467446C0
:1066A0006FF046FBF068B0EE480AFEF7E7FABDEC83
:1066B000028B28462146BDE870406FF04BBB00BFFF
:1066C0008D66000838B50C461D48714675466FF05A
:1066D0002FFB6379DB071CD51A48FFF7C5FFA379A9
:1066E000E279817843EA0222237A42EA034243783C
:1066F00043EA0123C17843EA014342F3170243F31B
:1067000017031344C3F30722A371C3F30743E271D2
:106710002372E279A3790C4843EA0223227A43EAFE
:10672000024343F3170300EE103AB8EEC00AFFF736
:10673000ADFF29460248BDE838406FF00BBB00BFF3
:10674000C5660008C0240020081C002070B5094D53
:1067500071460646284674466FF0EAFA06F137009D
:10676000FDF7B2FD0678214628466FF0F3FA304671
:1067700070BD00BF4D67000870B5074D06467146F5
:10678000284674466FF0D4FA367D284621466FF0CD
:10679000E1FA304670BD00BF7967000870B5074E5A
:1067A00004467146304675466FF0C2FA044B2360CA
:1067B000304629466FF0CEFA204670BD9D6700082E
:1067C00008400A08F8B50A4E04460F46304671469E
:1067D00075466FF0ADFA2046FFF7E0FF054B2360EA
:1067E0003046277129466FF0B5FA2046F8BD00BF44
:1067F000C567000830970A0870B50D4C064671460B
:106800000C4875466FF094FA206803685B690EB116
:10681000094900E0094998472068094903685B690C
:10682000984729460348BDE870406FF093BA00BF0F
:10683000941E0020F9670008F2560A08063E0A086E
:10684000AE5B0A0870B5094D714606462846744687
:106850006FF06EFA06F5A470FDF790FD06782146FC
:1068600028466FF077FA304670BD00BF45680008D3
:10687000F8B50B4D06460F462846714674466FF034
:1068800057FA0C2303FB076000F5A670FDF7ECFE3A
:106890002146064628466FF05DFA3046F8BD00BF37
:1068A0007168000870B5094D714606462846744661
:1068B0006FF03EFA06F10800FDF760FD067821460C
:1068C00028466FF047FA304670BD00BFA568000843
:1068D00038B5714604460D4875466FF029FA0C48E4
:1068E000FDF74CFD90F90030022B05D0032B06D0AC
:1068F0001C1C18BF012403E084F0010400E0042400
:10690000024829466FF026FA204638BDD1680008B3
:106910001014002070B50E4D2DED028B7146064609
:10692000284674466FF004FA3046FFF7B9FD284652
:106930002146B0EE408A6FF00DFADFED067A28EEC0
:10694000278ABCEEC88A18EE100ABDEC028B70BD17
:10695000156900080000C842F8B5094D0F46064603
:106960007146284674466FF0E3F9382303FB076647
:106970002846B66B21466FF0EDF93046F8BD00BFF2
:106980005969000870B50A4D064671462846744696
:106990006FF0CEF996F89410304601F00301FFF73E
:1069A000DBFF2146064628466FF0D4F9304670BD1D
:1069B0008569000838B51348134C2DED028B7146DC
:1069C00075466FF0B5F91148FDF7E8FE01280DD9BD
:1069D0000E48FFF79FFF642808D90C48FFF7D2FF45
:1069E00007EE100AF8EEC77AC4ED007A94ED008A3B
:1069F000044829466FF0AEF9B0EE480ABDEC028BB0
:106A000038BD00BFB56900080C2200200C21002011
:106A100070B50A4D2DED028B714606462846744628
:106A20006FF086F996ED398A284621466FF092F983
:106A3000B0EE480ABDEC028B70BD00BF116A0008C1
:106A400070B5084E04467146304675466FF070F9D1
:106A5000002330466360236029466FF07BF92046AF
:106A600070BD00BF416A000870B5074D744671469D
:106A7000064628466FF05CF9284621466FF06AF911
:106A800006F50B7070BD00BF696A000838B5094D86
:106A90007146284674466FF04BF9074B01221A7075
:106AA000FEF774FF054B186021462846BDE83840C4
:106AB0006FF050B98D6A00080C0D0020B82400203A
:106AC00038B5074D7146284674466FF031F9054BCD
:106AD00000221A7028462146BDE838406FF03AB9C6
:106AE000C16A00080C0D002070B50A4D2DED028B17
:106AF0000646B0EE408A2846714674466FF018F993
:106B000086ED098ABDEC028B28462146BDE870401F
:106B10006FF020B9E96A000870B5084D7146064665
:106B2000284674466FF004F9B01DFDF7CDFB0678DA
:106B3000214628466FF00EF9304670BD196B0008EB
:106B400038B5094D7146284674466FF0F1F8074A8A
:106B500000231380064A1360064A13802846214604
:106B6000BDE838406FF0F6B8416B000810220020F5
:106B7000201200205C1D002038B5714604460D48E7
:106B800075466FF0D5F80C4B1A8801321A800B4B02
:106B90001A68944288BF1C6040F6B8339C4203D9FF
:106BA000074B1A8801321A8029460248BDE838404E
:106BB0006FF0D0B8796B000810220020201200205E
:106BC0005C1D002070B5074D7146284674466FF075
:106BD000AFF8054B1E88284621466FF0BBF83046BB
:106BE00070BD00BFC56B00081022002070B5074DB6
:106BF0007146284674466FF09BF8054B1E68284680
:106C000021466FF0A7F8304670BD00BFED6B00085D
:106C10002012002070B5074D7146284674466FF06B
:106C200087F8054B1E88284621466FF093F83046BA
:106C300070BD00BF156C00085C1D0020F0B5234F2F
:106C40008BB004467146384676466FF071F820489E
:106C5000FFF70AFD62684368DFED1E7AD31A06EE7D
:106C6000903A1D4BA268D3ED000A8368D31AB8EEA0
:106C7000E60AA27806EE903A637843EA0223E278C5
:106C800043EA024343F3170360EEA70AB8EEE67A3D
:106C900001EE103A04AD20EE270A60EE870AB8EE46
:106CA000C11A2846FEF74EFA95E807000AAB03E939
:106CB0000700384631466FF04DF89DED070ADDEDCF
:106CC000080A9DED091A0BB0F0BD00BF3D6C00082D
:106CD000C02400202C7D8E3F280D002038B5064DA5
:106CE0007446284671466FF023F828462146BDE8D1
:106CF00038406FF02FB800BFDD6C000838B5714622
:106D000005460A4874466FF013F80023EA18043366
:106D100000211C2B5160F9D1002385F82030214639
:106D20000248BDE838406FF015B800BFFD6C0008A0
:106D300038B504462DED028B71460F48B0EE408AFF
:106D400075466EF0F5FF94F820200B48531CDBB21B
:106D5000062B84F8203004EB820288BF002382EDEA
:106D6000018A294688BF84F820306EF0F3FFB0EE28
:106D7000480ABDEC028B38BD316D000838B5094DAD
:106D80007146284674466EF0D3FF074B074AD86B0E
:106D9000116803681B689847284621466EF0DAFFA1
:106DA000002038BD7D6D0008A0790020941E0020D1
:106DB00038B5094D7146284674466EF0B9FF074B49
:106DC0000749186803681B6A984728462146BDE8AA
:106DD00038406EF0BFBF00BFB16D0008941E0020A8
:106DE000C9500A0838B5064D7446714628466EF0FB
:106DF0009FFF284621466EF0ADFF002038BD00BF42
:106E0000E56D0008F8B5084D744606460F4628465D
:106E100071466EF08DFF284621466EF09BFF0C23D5
:106E200003FB07600430F8BD056E000870B50B4E1B
:106E300004467146304675466EF07AFF2368204658
:106E40009B6C984701462046FFF7DCFF2946044625
:106E500030466EF07FFF204670BD00BF2D6E0008EB
:106E6000F8B50A4D06460F462846714674466EF040
:106E70005FFF96F8363067F3820386F8363028468F
:106E80002146BDE8F8406EF065BF00BF616E0008A6
:106E900070B50B4E04467146304675466EF048FF9D
:106EA000236820461B69984701462046FDF7AEFB44
:106EB0002946044630466EF04DFF204670BD00BFA7
:106EC000916E000838B5094D7146284674466EF03B
:106ED0002FFF074B0749186803681B6A9847284625
:106EE00021466EF037FF002038BD00BFC56E000898
:106EF000941E0020DE500A0838B5094D7146284618
:106F000074466EF015FF074B986B03680021DB6B2E
:106F10009847284621466EF01DFF002038BD00BF6F
:106F2000F96E0008A07900202DE9F04B5D4F5E4D11
:106F30005E4C7146384676466EF0FAFED5F8008013
:106F4000D8F8003004F17600D3F82090FDF726FA47
:106F5000B0F900B004F17A00FDF720FA5A4654491E
:106F6000B0F900304046C847D5F80080D8F8003066
:106F700004F19600D3F82090FDF710FAB0F900B0B4
:106F800004F19A00FDF70AFA5A464A49B0F900306E
:106F90004046C847D5F80080D8F8003004F1B60064
:106FA000D3F82090FDF7FAF9B0F900B004F1BA0077
:106FB000FDF7F4F95A464049B0F900304046C84759
:106FC000D5F80080D8F8003004F1D600D3F820902E
:106FD000FDF7E4F9B0F900B004F1DA00FDF7DEF9ED
:106FE0005A463649B0F900304046C847D5F80080C7
:106FF000D8F8003004F1F600D3F82090FDF7CEF970
:10700000B0F900B004F1FA00FDF7C8F95A462C496E
:10701000B0F900304046C847D5F80080D8F80030B5
:1070200004F58B70D3F82090FDF7B8F9B0F900B0F3
:1070300004F58D70FDF7B2F95A462249B0F90030D7
:107040004046C847D5F80080D8F8003004F59B705A
:10705000D3F82090FDF7A2F9B0F900B004F59D70C7
:10706000FDF79CF95A461849B0F900304046C84728
:107070002D682B6804F5AB70D3F82080FDF78EF9EE
:10708000B0F9009004F5AD70FDF788F90F49B0F93B
:1070900000304A462846C04738463146BDE8F04BE6
:1070A0006EF058BE296F0008941E0020DC130020EB
:1070B00009510A0817510A0825510A0833510A08CC
:1070C00041510A084F510A085D510A086B510A08DC
:1070D00070B504460D462D48714676466EF028FE82
:1070E0002368102D47D8DFE805F0090D12161A1E87
:1070F0002226462A2E3246363A3E42005B69244911
:10710000204602E05B6923492046984738E05B69E6
:1071100021492046F9E75B6920492046F5E75B698C
:107120001F492046F1E75B691E492046EDE75B6990
:107130001D492046E9E75B691C492046E5E75B6994
:107140001B492046E1E75B691A492046DDE75B6998
:1071500019492046D9E75B6918492046D5E75B699C
:1071600017492046D1E75B6916492046CDE75B69A0
:1071700015492046C9E71B6A144920462A46984704
:1071800031460248BDE870406EF0E4BDD1700008A1
:1071900079510A0883510A0888510A0891510A084E
:1071A00096510A08B0510A089D510A08A1510A08CF
:1071B000A8510A08AD510A08B7510A08BD510A087A
:1071C000C3510A08C8510A08D1510A08D9510A08FE
:1071D0002DE9F843124C814688461248714675469F
:1071E00016466EF0A5FD20680F4907684A463F6ABB
:1071F000B84720684146FFF76BFF20680B490368DA
:107200001B6A9847206803681B6A0EB1084900E0B2
:107210000849984729460348BDE8F8436EF09ABDEF
:10722000941E0020D1710008E2510A08EB510A08AF
:10723000F7510A08FB510A0870B5084D71462846F7
:1072400074466EF075FD0648FEF7E0FD21460646E1
:1072500028466EF07FFD304670BD00BF39720008D1
:10726000081C002038B5064D7446714628466EF05D
:107270005FFD284621466EF06DFD002038BD00BF41
:107280006572000870B5074D74467146064628467B
:107290006EF04EFD284621466EF05CFD06F11C00A6
:1072A00070BD00BF8572000870B50A4D2DED028BD0
:1072B00071460646284674466EF03AFD96ED0C8AF5
:1072C000284621466EF046FDB0EE480ABDEC028B22
:1072D00070BD00BFA972000838B5124871467546E6
:1072E0006EF026FD1048FEF791FD044698B10F4C54
:1072F000236813B9FDF766FC2060FDF763FC246882
:107300004FF47A73001BB0FBF3F4094B1B889C42CB
:1073100034BF00240124034829466EF01BFD20469B
:1073200038BD00BFD9720008081C0020D81E0020FC
:107330006424002038B50B48714675466EF0F8FCA1
:10734000094B1C783CB1094B1C78033CE4B2012C7E
:107350008CBF00240124034829466EF0FBFC204624
:1073600038BD00BF357300085E1D0020AC1800203A
:1073700038B571460C4875466EF0DAFCFDF722FC14
:107380000A4B1B68C01A0A4B1A6822EAE272904242
:107390004FF0000488BF1C60034888BF01242946C1
:1073A0006EF0D8FC204638BD7173000880120020B2
:1073B000F41E002038B5064D7446714628466EF01E
:1073C000B7FC284621466EF0C5FC012038BD00BF41
:1073D000B5730008F8B50A4E07460C4630467146AC
:1073E00075466EF0A5FC94E8070007F11C0383E8DE
:1073F000070030462946BDE8F8406EF0ABBC00BF40
:10740000D5730008F7B50A4E02AC24ED010A7146A7
:107410000746304675466EF08BFC214607F110009A
:10742000FDF738FE304629466EF094FC03B0F0BDFF
:107430000574000870B50C4D2DED028B71460646A3
:10744000284674466EF074FC06F11000FDF71EFA33
:1074500090ED008A214628466EF07CFCB0EE480A8A
:10746000BDEC028B70BD00BF3574000870B5074DD0
:1074700006467146284674466EF05AFCF68F28463A
:1074800021466EF067FC304670BD00BF6D74000889
:1074900070B50F4D06467146284674466EF048FC9E
:1074A000FDF790FBD6F805609FED0A7A0A4B07EED0
:1074B000906A67EE877A1860FDEEE77A074BC3EDB6
:1074C000007A28462146BDE870406EF043BC00BFFC
:1074D0009174000800007A4480120020F41E0020FD
:1074E00070B50D4D06467146284674466EF020FC78
:1074F000D6F805609FED097A094B07EE906A67EEB2
:10750000877A2846FDEEE77A2146C3ED007ABDE88A
:1075100070406EF01FBC00BFE17400080000C8425C
:10752000F41E002038B5064D7446284671466EF0AC
:10753000FFFB28462146BDE838406EF00BBC00BF7B
:1075400025750008F7B50C4D06460F4628467146CE
:1075500074466EF0EDFB07EE107AF8EE477A02A95A
:1075600061ED017A06F10C00FDF7FAF92846214693
:107570006EF0F0FB03B0F0BD4575000870B5064D28
:1075800074467146064628466EF0D2FB28462146D0
:107590006EF0E0FB304670BD7D75000870B5084E9A
:1075A00071460446304675466EF0C2FB2046FFF732
:1075B000E5FF304629466EF0CDFB204670BD00BF8A
:1075C0009D75000870B5084E7146044630467546F4
:1075D0006EF0AEFB2046FFF7E1FF304629466EF025
:1075E000B9FB204670BD00BFC575000870B5084ED8
:1075F00071460446304675466EF09AFB2046FFF70A
:10760000BDFF304629466EF0A5FB204670BD00BF89
:10761000ED75000870B5084E714604463046754653
:107620006EF086FB2046FFF7A9FF304629466EF034
:1076300091FB204670BD00BF1576000870B5084E5E
:1076400071460446304675466EF072FB2046FFF7E1
:1076500095FF304629466EF07DFB204670BD00BF89
:107660003D76000870B5084E7146044630467546B2
:107670006EF05EFB2046FFF7E1FF304629466EF0D4
:1076800069FB204670BD00BF6576000870B5074EE7
:1076900004467146304675466EF04AFB044B236043
:1076A000304629466EF056FB204670BD8D760008A8
:1076B00068400A0870B5094E044671463046754662
:1076C0006EF036FB2046FFF7E1FF054B23603046A6
:1076D00029466EF03FFB204670BD00BFB57600081E
:1076E00020A00A0870B5094E04467146304675461A
:1076F0006EF01EFB002330466370A370E3702371AD
:1077000029466EF027FB204670BD00BFE5760008D5
:1077100070B50A4E71460446304675466EF008FB59
:10772000201DFFF7C7FF04F11400FFF7DBFF304611
:1077300029466EF00FFB204670BD00BF1177000890
:1077400070B5084E71460446304675466EF0F0FA44
:1077500004F12400FCF758FE304629466EF0FAFA90
:10776000204670BD4177000870B5074E044671464B
:10777000304675466EF0DCFA044B236030462946ED
:107780006EF0E8FA204670BD6977000818400A08D4
:1077900070B50C4E04467146304675466EF0C8FA18
:1077A0002046FFF7E1FF084B2360002384F82030D8
:1077B0002046FFF7A3FA304629466EF0CBFA204662
:1077C00070BD00BF9177000828400A0870B5094EC7
:1077D00004467146304675466EF0AAFA2046FFF719
:1077E000D7FF054B2360304629466EF0B3FA20469A
:1077F00070BD00BFCD77000838400A0870B5094E4B
:1078000071460446304675466EF092FA2046FFF700
:10781000B5FE2046FCF7F8FD304629466EF09AFA90
:10782000204670BDFD77000870B50C4E2DED028B23
:107830000446F0EE408AB0EE608A754671463046E6
:107840006EF076FAC4ED008A84ED018A304629464E
:107850006EF080FABDEC028B204670BD29780008DE
:1078600070B50C4E04467146304675466EF060FAAF
:107870004FF07E532362236123600023A360636083
:107880006361E360E361A36130462946BDE870406F
:107890006EF060BA6178000870B50C4E714604460F
:1078A000304675466EF044FA2046FCF7ADFD04F113
:1078B0000C00FCF7A9FD04F11800FCF7A5FD30460B
:1078C00029466EF047FA204670BD00BF997800083F
:1078D0002DE9F0410A4E04460F4630467146754682
:1078E00090466EF025FA002330462371A760C4F855
:1078F0000C8029466EF02EFA2046BDE8F08100BFCC
:10790000D178000870B5084E044671463046754679
:107910006EF00EFA002330462370637029466EF035
:1079200019FA204670BD00BF0579000870B5084EF1
:1079300004467146304675466EF0FAF9002330462B
:107940002370637029466EF005FA204670BD00BFB3
:107950002D790008F8B5084E04460F4630467146AA
:1079600075466EF0E5F9002330462760A38029466E
:107970006EF0F0F92046F8BD5579000870B5074D56
:1079800006467146284674466EF0D2F93678284687
:1079900021466EF0DFF9304670BD00BF7D790008EA
:1079A00070B5074D06467146284674466EF0C0F91C
:1079B0003678284621466EF0CDF9304670BD00BFBE
:1079C000A179000870B5074D0646714628467446F1
:1079D0006EF0AEF93678284621466EF0BBF9304697
:1079E00070BD00BFC579000870B5074D06467146E9
:1079F000284674466EF09CF93678284621466EF08B
:107A0000A9F9304670BD00BFE979000870B5074D8F
:107A100006467146284674466EF08AF9367828463E
:107A200021466EF097F9304670BD00BF0D7A000810
:107A300070B5074D06467146284674466EF078F9D3
:107A40003678284621466EF085F9304670BD00BF75
:107A5000317A000870B5074D0646714628467446CF
:107A60006EF066F93678284621466EF073F9304696
:107A700070BD00BF557A000870B5074D06467146C7
:107A8000284674466EF054F93678284621466EF042
:107A900061F9304670BD00BF797A000870B5074DB6
:107AA00006467146284674466EF042F936782846F6
:107AB00021466EF04FF9304670BD00BF9D7A000838
:107AC00070B5074D06467146284674466EF030F98B
:107AD0003678284621466EF03DF9304670BD00BF2D
:107AE000C17A000870B5074D0646714628467446AF
:107AF0006EF01EF93678284621466EF02BF9304696
:107B000070BD00BFE57A000870B5074D06467146A6
:107B1000284674466EF00CF93678284621466EF0F9
:107B200019F9304670BD00BF097B000870B5074DDC
:107B300006467146284674466EF0FAF836782846AE
:107B400021466EF007F9304670BD00BF2D7B00085E
:107B500070B5074D06467146284674466EF0E8F843
:107B60003678284621466EF0F5F8304670BD00BFE5
:107B7000517B000870B5074D06467146284674468D
:107B80006EF0D6F83678284621466EF0E3F8304697
:107B900070BD00BF757B00082DE9F0410E468046A0
:107BA00071460E48144675466EF0C2F80C4B1C80A8
:107BB0000C4B00241E60A7B21C2000FB0760FFF7DF
:107BC000DDFE01340028F6D1074B04481F7029461A
:107BD0006EF0C0F84046BDE8F08100BF997B000818
:107BE000647B0020607B00205C7B002070B5084E29
:107BF00071460446304675466EF09AF804F124004A
:107C0000FEF71EFF304629466EF0A4F8204670BDF0
:107C1000ED7B000870B5074E044671463046754648
:107C20006EF086F8044B2360304629466EF092F8D9
:107C3000204670BD157C000828960A0870B5074ECE
:107C400004467146304675466EF072F8044B236068
:107C5000304629466EF07EF8204670BD3D7C000817
:107C600050790A0870B5094E04467146304675468B
:107C70006EF05EF8064B23602046FFF7DFFF3046CC
:107C800029466EF067F8204670BD00BF657C00088D
:107C9000C0790A0870B5074E0446714630467546ED
:107CA0006EF046F8044B2360304629466EF052F8D9
:107CB000204670BD957C000828740A0870B5094EEE
:107CC00004467146304675466EF032F8064B236026
:107CD0002046FFF79FFF304629466EF03BF82046CE
:107CE00070BD00BFBD7C0008B8960A0870B5094E8B
:107CF00004467146304675466EF01AF8064B23600E
:107D00002046FFF7AFFF304629466EF023F82046A5
:107D100070BD00BFED7C0008307A0A0870B5094ECE
:107D200071460446304675466EF002F82046FFF76D
:107D300071FF20466EF004F9304629466EF00AF8CD
:107D4000204670BD1D7D000870B5094E7146044681
:107D5000304675466DF0ECFF2046FFF76FFF20467A
:107D60006EF0EEF8304629466DF0F4FF204670BD07
:107D7000497D000870B5094E714604463046754687
:107D80006DF0D6FF2046FFF76DFF20466EF0D8F865
:107D9000304629466DF0DEFF204670BD757D000837
:107DA00070B5094E71460446304675466DF0C0FF09
:107DB0002046FFF76FFF20466EF0C2F83046294696
:107DC0006DF0C8FF204670BDA17D000870B5094E5A
:107DD00071460446304675466DF0AAFF2046FFF70F
:107DE0006DFF20466EF0ACF8304629466DF0B2FFCC
:107DF000204670BDCD7D000870B5094E7146044621
:107E0000304675466DF094FF2046FFF76FFF204621
:107E10006EF096F8304629466DF09CFF204670BD06
:107E2000F97D000870B50B4D7146284674466DF01B
:107E30007FFF094B09481E78FCF746FA3146027865
:107E4000074819F08DFA28462146BDE870406DF0CC
:107E500081BF00BF257E000840220020EA130020D9
:107E60003012002070B5714606460B4875466DF01D
:107E70005FFF00240948225C1AB12044314648F0D3
:107E800033FCCC34B4F5197FF4D129460248BDE85F
:107E900070406DF05FBF00BF657E00085019002084
:107EA00038B5074D7146284674466DF041FF0820ED
:107EB000FFF7D8FF28462146BDE838406DF04ABF9D
:107EC000A17E000838B5074D7146284674466DF00E
:107ED0002FFF1B20FFF7C6FF28462146BDE838408C
:107EE0006DF038BFC57E000838B5074D714628468D
:107EF00074466DF01DFF0020FFF7B4FF28462146B1
:107F0000BDE838406DF026BFE97E000838B5094D60
:107F10007146284674466DF00BFF074829F040FE75
:107F2000064817F0AFFE28462146BDE838406DF000
:107F300011BF00BF0D7F0008F4230020F41C0020B7
:107F400038B50B48714675466DF0F2FE00240948BD
:107F5000235C1BB12044084948F06CFDCC34B4F5D7
:107F6000197FF4D129460248BDE838406DF0F2BED1
:107F7000417F0008501900202180000838B5714663
:107F80001D4874466DF0D4FE1C4B986B0368DB688B
:107F900098471B4B1A881B4B1988914206D01A80B0
:107FA000194B1860194B00221A7011E0184B1B78FE
:107FB00073B1154B17491A68821A8A421D46134B32
:107FC00001D901211970197811B1134B9A4205D8C2
:107FD00021460948BDE838406DF0BCBE28600F4816
:107FE000FCF7B8FA0028F3D00C48002128F006F975
:107FF0000A4828F03DFBEBE77D7F0008A0790020D0
:108000005C1800206C240020B8240020F41B002001
:108010000C0D002080841E0040420F00A01D002097
:1080200010B57146044612486DF082FE114B204691
:108030001C60FCF77BFA236820461B6C01219847E3
:108040000D4B986B036800215B6905229847FEF78A
:1080500037FD0A48FCF77EFA30B10848002128F0C5
:10806000CDF8064828F004FB054826F0BFFFFBE7E3
:1080700021800008941E0020A0790020A01D00206F
:108080006C1D002038B5074D7146284674466DF0CA
:108090004FFE054826F0AAFF284621466DF05AFEFD
:1080A000002038BD858000086866002038B50A4D7C
:1080B0007146284674466DF03BFE084B0849186827
:1080C00003681B6A9847074826F090FF2846214618
:1080D0006DF040FE002038BDAD800008941E0020E9
:1080E00000520A089412002038B5074D7146284600
:1080F00074466DF01DFE054826F078FF284621469F
:108100006DF028FE002038BDE9800008D41F002053
:1081100070B5274C27482DED028B714675466DF0E2
:1081200007FE6378A678244843EA0626E37846EA01
:108130000346FCF733F9B0F9003046F317069E42C8
:108140000DDDA278637843EA0223E27843EA024332
:1081500043F3170307EE903AB8EEE78A08E01648B3
:10816000FCF71CF9B0F9000008EE100AB8EEC88A56
:10817000124811F0C5FEC30710D51048DFED108A74
:10818000FCF74EFE20EE280AB4EEC08AF1EE10FA9B
:1081900004D40A48FCF744FE20EE288A0548294604
:1081A0006DF0D8FDB0EE480ABDEC028B70BD00BF8B
:1081B0004122002011810008EC130020001F002044
:1081C0000000C84270B53248714676466DF0B0FD89
:1081D000304B1B781A0754D42F48FCF7CFF890F98E
:1081E0000030012B05D02C48FCF7C8F803785B065B
:1081F00044D52A4843F0D2F820B9294843F0CEF8B4
:1082000000283ED02748FCF7C9F8B0F9003040F20A
:108210001454A34235DC2448FCF7C0F8B0F9003010
:1082200040F2A365AB422CDD2048FCF7B7F8B0F96B
:108230000030A34225DC1E48FCF7B0F8B0F900304E
:10824000AB421EDD1548FCF7A9F8B0F90030A34297
:1082500017DC1348FCF7A2F8B0F90030AB4210DD90
:108260001448FCF79BF8B0F90030A34209DC12482F
:10827000FCF794F8B0F90030AB4202DD0120FDF7C5
:10828000FFFF31460248BDE870406DF063BD00BF9E
:10829000C5810008E01B002041140020921400203A
:1082A000961400205214002056140020721400204E
:1082B00076140020B2140020B614002070B5084DCA
:1082C00071460646284674466DF032FD06F13700C9
:1082D00043F064F828462146BDE870406DF03ABD91
:1082E000BD820008F8B506460F460C487146754633
:1082F0006DF01EFD00240A48225C22B12044314664
:108300003A4648F071FACC34B4F5197FF3D12946D6
:108310000248BDE8F8406DF01DBD00BFE5820008D1
:10832000501900202DE9F04171462DED028B0546D4
:10833000264876466DF0FCFC254822F051F926F0DF
:108340009BFB2448B0EE408AFCF7FEF9074630B1AB
:108350001DB121490320FFF7C5FF00242DE0FCF7E4
:1083600035FA044630B9002DF7D003201B49FFF73A
:10837000B9FF22E0B5EE408AF1EE10FA06D0DFED4B
:10838000187AB4EEE78AF1EE10FA04DD002DE4D09D
:1083900003201449DFE71448FCF760FA80461348CD
:1083A000FBF7FCFFB0F90030984506DD002DD4D076
:1083B00003200F49FFF796FF3C46044831466DF015
:1083C000C9FCBDEC028B2046BDE8F0812583000886
:1083D000A8120020B81B00200E520A0821520A08D9
:1083E0000000484235520A080C21002002140020E7
:1083F0004A520A0870B52DED028BB94E714684B011
:108400000446B84875466DF093FC3378D90600F100
:108410003281B548FBF7B2FF90F9003033B9012043
:10842000FDF70CFF0120FDF72BFF24E1FFF7CAFE4B
:1084300033781A0705D4002C00F01D810320AB49C6
:1084400014E0A948FBF79AFF90F90030012B05D002
:10845000A548FBF793FF03789B071ED5A44B1B7918
:108460003BB9002C00F00781A2490320FFF73AFF37
:1084700001E1A14822F0ECF8A04B9FEDA17AD3EDE9
:10848000007AF8EEE77A30EE670AF0EEC07AF4EEA2
:10849000C77AF1EE10FA00F3F6809348FBF76EFF0F
:1084A00090F90030012B05D08F48FBF767FF037868
:1084B0005E0733D593480021FCF7A8F8002800F0A8
:1084C000E7809048FCF7B6F8002800F0E6808D4879
:1084D000FCF7F2F807C801AB83E80700184626F05E
:1084E000CBFADFED897AB4EEE70AF1EE10FA00F389
:1084F000DF808448FCF70EF926F0BEFADFED837AC0
:10850000B4EEE70AF1EE10FA00F3D780DFED807ADF
:10851000B4EEE70AF1EE10FA00F1CF807248FBF7F3
:108520002DFF90F90030012B05D06F48FBF726FF97
:10853000037818071AD5774B1878FBF7A3FF0028A4
:1085400040F0C0807448FBF719FF90F90030032B0E
:1085500000F0B880714811F0EFFC002800F08B802B
:108560006E4811F0CDFC810700F1B3805E48FBF747
:1085700005FF90F90030012B05D05B48FBF7FEFEAC
:108580000378DA060BD5664823F010FA002800F0CD
:10859000E7806348FBF73CFE002800F0E680524885
:1085A000FBF7ECFE90F90030012B05D04E48FBF7AD
:1085B000E5FE03789B065BD55A48FBF7DFFE90F992
:1085C0000030002B40F0D6805748FBF7D7FE90F9DB
:1085D0000030002B40F0CE805448FBF7CFFE90F9DE
:1085E0000030BBB15248FBF7D9FEB0F900605148EA
:1085F000FBF7D4FEB0F900300A339E4240F3CB8043
:108600004C48FBF7CBFEB0F9002040F28D339A4284
:1086100040F3C1804848FBF7C1FEB0F90030B3F524
:108620007A7FC0F2BE804448FBF7B8FEB0F9003054
:10863000B3F5FA5F00F3B5804048FCF727F990EDF9
:10864000008A3F48FCF742F9B4EEC08AF1EE10FA16
:1086500000F3AD803B48FCF719F990ED008A3A48E9
:10866000FCF734F9B4EEC08AF1EE10FA00F39F8003
:108670000120FDF7E3FD1B4829466DF06BFB04B0BC
:10868000BDEC028B70BD002CF5D003202F49EDE628
:10869000002CF0D003202E49E8E61A4818F000F824
:1086A00000287FF414AF002CE5D003202949DDE633
:1086B000002CE0D003202849D8E6002CDBD0032092
:1086C0002649D3E62046FFF72DFE00287FF442AF6F
:1086D000D1E72046FFF726FE0028CCD046E700BFB2
:1086E000E01B0020F58300084114002060520A08B6
:1086F000381F00207A520A08A81200204C120020CD
:108700000000C842502200200000FA4300A05A4452
:10871000008039434022002000140020001F002068
:10872000401700203F140020401400202614002091
:108730009214002028140020142000201416002079
:1087400028170020181600202C17002093520A0822
:10875000A9520A08C5520A08E4520A0805530A0831
:10876000002C88D00320154980E6002C83D00320FC
:1087700013497BE61348FBF701FE06781248FBF726
:10878000FDFD03789E427FF427AF002C3FF473AFCA
:1087900003200E496AE6002C3FF46DAF03200C491C
:1087A00064E6002C3FF467AF03200A495EE6002C24
:1087B0003FF461AF0320084958E600BF1D530A0883
:1087C00038530A083F1400204014002050530A0870
:1087D00073530A088E530A08A6530A08F8B571465F
:1087E00004465A4876466DF0A3FA5948FBF7C6FD91
:1087F00090F900300BB90124A2E05548FBF7BEFD0B
:1088000090F90030012B05D05148FBF7B7FD0378F4
:10881000980712D54F4821F01BFF4F4B9FED4F7A21
:10882000D3ED007AF8EEE77A30EE670AF0EEC07A20
:10883000F4EEC77AF1EE10FA6DDC4548FBF79EFDC9
:1088400090F90030012B05D04148FBF797FD0378E4
:1088500019070CD5424B1878FBF714FE00285FD19E
:108860004048FBF78BFD90F90030032B58D0384877
:10887000FBF784FD90F90030012B05D03448FBF75D
:108880007DFD03789A0612D5374D05F14A00FBF7B6
:1088900075FD90F9003053B105F14C00B5F8AC709E
:1088A000FBF77CFDB0F900303FB2BB423EDC28480C
:1088B000FBF764FD90F90030012B05D02448FBF74D
:1088C0005DFD0378DB0617D5284D29482B6983EA1F
:1088D000E377A7EBE377FBF761FDB0F900309F4248
:1088E00029DC23486D69FBF759FDB0F90030002DF4
:1088F000B8BF6D429D421EDC1E4BD86B03685B689F
:10890000984701287FF477AF1CB11B490320FFF77C
:10891000E9FC002414E0002CFBD003201749F6E703
:108920002046FFF7FFFC0028F3D0A0E7002CF0D092
:1089300003201349EBE7002CEBD003201149E6E7B5
:10894000024831466DF006FA2046F8BDDD87000882
:1089500041140020A81200204C1200200000C84240
:108960004022002000140020DC130020C02400203E
:1089700014200020A0790020E1530A0896520A082A
:10898000C2530A08D4530A0838B5714605460E4842
:1089900074466DF0CDF9032D10D8DFE805F002051F
:1089A000080B0320094907E00320094904E00320DC
:1089B000084901E008490320FFF794FC21460248DA
:1089C000BDE838406DF0C6B989890008F4530A083B
:1089D00006540A0818540A082A540A0870B5714641
:1089E00005461A4876466DF0A3F9FFF7EBFB184BE6
:1089F0001B78C3F3C00434B9164B174ACC2000FBD4
:108A00000530032107E0DC0908D1124B134ACC20C2
:108A100000FB0530032147F0E7FE11E0104BD86B57
:108A200003685B689847012809D10A4B0D4ACC209E
:108A300000FB0530032147F0D7FE002400E00124AD
:108A4000024831466DF086F9204670BDDD89000888
:108A5000E01B0020501900203B540A0859540A0812
:108A6000A079002078540A082DE9F041124E0446FE
:108A70000F463046714675466DF05AF994ED007A0E
:108A8000D7ED007AB4EE677AF1EE10FA0CBF4FF032
:108A900000084FF0010820463946FBF761FF4146C8
:108AA000204642F0EFFF2946044630466DF052F969
:108AB0002046BDE8F08100BF698A00082DE9F04139
:108AC000104E04460F463046714675466DF030F93B
:108AD00097F9003094F90080B8EB030818BF4FF005
:108AE000010820463946FCF7D9FD4146204642F0B0
:108AF000C9FF2946044630466DF02CF92046BDE8F2
:108B0000F08100BFBD8A00082DE9F041104E0446F7
:108B10000F463046714675466DF00AF9B7F90030D8
:108B2000B4F90080B8EB030818BF4FF001082046E5
:108B30003946FCF743FF4146204642F0A3FF294651
:108B4000044630466DF006F92046BDE8F08100BFCE
:108B5000098B000838B5074D7146284674466DF0FC
:108B6000E7F8054841F08AFA28462146BDE8384032
:108B70006DF0F0B8558B0008641E0020F8B51E4E4D
:108B80001E4F2DED028B714607F1420430467546AB
:108B90006DF0CEF82046FBF701FCB0F900305B42E7
:108BA00007EE903A2046B8EEE78AFBF7F7FBB0F9FC
:108BB0000000134C00EE900AB0EE480AF8EEE00A0E
:108BC00020460FF087FE07F14400FBF7E7FBB0F902
:108BD000000000EE100A2046B8EEC00A0FF0B6FE04
:108BE000204610F089FB304629466DF0B3F8BDEC05
:108BF000028B0120F8BD00BF7D8B0008DC13002034
:108C000020200020F8B51E4E1E4F2DED028B714620
:108C100007F14204304675466DF08AF82046FBF7AE
:108C2000BDFBB0F900305B4207EE903A2046B8EE4B
:108C3000E78AFBF7B3FBB0F90000134C00EE900A93
:108C4000B0EE480AF8EEE00A20460FF043FE07F1C6
:108C50004400FBF7A3FBB0F9000000EE100A204629
:108C6000B8EEC00A0FF072FE204610F045FB304609
:108C700029466DF06FF8BDEC028B0120F8BD00BFF6
:108C8000058C0008DC1300202020002070B5294846
:108C90002DED028B714676466DF04AF8264B93F91E
:108CA000003033F0020201D000253AE0234CB4F941
:108CB000AE30002BF8DD2248FBF74CFC05460028BF
:108CC000F2D0204B1B7803F0A003202BECD104F151
:108CD0004200FBF763FBB0F900305B4207EE903ACD
:108CE00004F14200B8EEE78AFBF758FBB0F9000048
:108CF00000EE900AB0EE480AF8EEE00A12480FF0D3
:108D0000E9FD04F14400FBF749FBB0F9000000EE77
:108D1000100A0D48B8EEC00A0FF018FE0A4810F00D
:108D2000EBFA044831466DF015F8BDEC028B28468D
:108D300070BD00BF8D8C000840220020DC13002095
:108D4000A01D0020E01B00202020002038B5714627
:108D50002DED028B0546264874466CF0E9FFFBF7C3
:108D600035FD08B92DB93BE0224821F015FD00285A
:108D7000F8D0214B214800221A70FBF7C5FF20488C
:108D80000FF0FAFE1D48FBF7DBFF1D480FF0CCFE8D
:108D90001C48FBF703FBB0F900301A485B4207EEB2
:108DA000903AB8EEE78AFBF7F9FAB0F9000000EE66
:108DB000900AB0EE480AF8EEE00A11480FF08AFD7A
:108DC0001148FBF7EBFAB0F9000000EE100A0C486E
:108DD000B8EEC00A0FF0BAFD0C4811F013FF0125E0
:108DE000034821466CF0B6FFBDEC028B284638BD27
:108DF0004D8D0008A81200204E180020081C0020ED
:108E0000202000201E1400202014002078240020A0
:108E100070B571462DED028B06461E4875466CF006
:108E200087FFFBF7D3FC044600B956B31A4812F08B
:108E3000D3F81A48FBF7B2FAB0F9003017485B4292
:108E400007EE903AB8EEE78AFBF7A8FAB0F900000F
:108E500000EE900AB0EE480AF8EEE00A10480FF073
:108E600039FD1048FBF79AFAB0F9000000EE100A3D
:108E70000B48B8EEC00A0FF069FD094810F03CFA43
:108E80000124044829466CF065FFBDEC028B2046A6
:108E900070BD00BF118E0008081C00201E140020A9
:108EA000202000202014002070B571462DED028B8B
:108EB0000646394875466CF03BFFFBF787FC0446D5
:108EC00008B9002E60D03548354CFBF767FAB0F989
:108ED000003032485B4207EE903AB8EEE78AFBF783
:108EE0005DFAB0F9000000EE900AB0EE480AF8EE24
:108EF000E00A2C480FF0EEFC2B48FBF74FFAB0F9D4
:108F0000000000EE100A2748B8EEC00A0FF01EFD60
:108F1000244810F0F1F9002324486380A380FBF774
:108F20003DFAB0F90000DFED227A224B06EE900AFE
:108F3000F8EEE66AB2EE0E7AE6EE877A1B789FEDDF
:108F40001E7A67EE877ADA09C4ED027A237809D0AF
:108F5000042262F3020362F3C5031848237012F07F
:108F60003BF804E062F3020362F3C5032370637805
:108F7000134843F001036370FBF7A0FF0023A385B0
:108F8000E38584F831300124034829466CF0E2FE81
:108F9000BDEC028B204670BDA98E00081E14002077
:108FA000E4110020202000202014002012140020B2
:108FB0000000BE42E01B00200AD7233C081C002012
:108FC0000812002010B52DED028B1F4884B07146A9
:108FD00074466CF0ADFEFBF7F9FB1C4B187058B1F2
:108FE00001A8FBF711FA1A4801A912F063F8184812
:108FF00001A9012211F09EFF1548FBF7BDFE1448A0
:10900000B0EE408AFBF7D4FE1248F0EE400AB0EE14
:10901000480A0FF05FFC0E48FBF7E6FE0D480FF024
:1090200095FC0C4810F068F9FBF7CCFD0A4B186072
:109030000A4B0548002221461A706CF08BFE012075
:1090400004B0BDEC028B10BDC58F0008661800206F
:10905000081C002020200020901200202822002040
:10906000F8B5194D2DED028B0646B0EE408A284624
:109070000F46714674466CF05BFEB0EE480ADFEDB9
:10908000130AB7EE001A23F0BFF928462146B0EEC6
:10909000408A6CF05FFE06EE907AB7EE007A37EE0B
:1090A000487AF8EEE67A06EE906A67EE277AB8EE2E
:1090B000E67AE8EE077ABDEC028BFDEEE77A17EE72
:1090C000900A00B2F8BD00BF6190000800000000E7
:1090D00030B52DED048B044683B048487146754683
:1090E0006CF026FE002C5AD04548FBF757F9B0F932
:1090F0000030B3F5FA7F52D000214FF47A72204647
:1091000023F008F904463E48FBF748F94FF49671FE
:109110004FF42F72B0F9000023F0FCF802A921F8F7
:10912000020D3748FBF768FFB4F5FA7F40DA35489F
:10913000FBF734F9B0F9000008EE100A3148FBF7EC
:109140002DF9B0F900302E48E41A06EE904AB8EE38
:10915000E69AFBF723F9B0F900402A48FBF71EF91D
:10916000B0F900302748E31A08EE903AFBF716F9F9
:10917000B0F90030C3F5FA73F8EEE88A07EE103A5A
:1091800068EE898AF8EEC77AB8EEC88AC8EEA78A70
:1091900038EE888ABDEEC88A18EE104AA4B2174885
:1091A00029466CF0D7FD20B203B0BDEC048B30BD76
:1091B00013481FD0FBF7F2F8B0F9000008EE100AD0
:1091C0000F48FBF7EBF8A4F5FA74B0F90030DFEDC7
:1091D0000E7A07EE104AC3F57A73B8EEC77A06EE38
:1091E000903A27EE277AB8EEC88AF8EEE67AA7EE2C
:1091F000278ACFE7FBF7D2F80488D0E7D1900008A0
:109200002C140020221400206F12033B2DE9F04B98
:1092100080460E46304871461D46744617466CF02F
:1092200087FD40462D4941F2941223F073F841F234
:1092300094122A498046304623F06CF806462848A6
:10924000FBF7ACF8B0F9002041F294139A4203D135
:10925000A7F800802E8039E02148DFF88CB0DFF8D5
:109260008C90FBF79BF8BBF90030B0F900209A42D4
:1092700014D01B48FBF792F803881948ABF800306C
:10928000FBF78CF8B0F900009FED167A07EE900A14
:10929000F8EEE77A67EE877AC9ED007A06EE908AF3
:1092A000D9ED007AB8EEE67A06EE906A27EE277AD4
:1092B000BDEEC77A17EE103AB8EEE67A3B8067EE5D
:1092C000277AFDEEE77A17EE903A2B802146024886
:1092D000BDE8F04B6CF03EBD0D9200086CEEFFFF58
:1092E00014200020530469394C180020100D002070
:1092F00070B5714604461C4876466CF019FD1B4B50
:109300001D78C5F340053DBB204629464FF47A72CF
:1093100023F000F8B0F5C87F044607DA1448FBF7DD
:109320003DF8B0F90030A4F5C87009E0B0F5167F3B
:109330000DDD0F48FBF732F8B0F90030A4F51670D8
:1093400058434FF4C87390FBF3F080B200E0284616
:10935000084B0446188000E00024034831466CF0B6
:10936000F9FC20B270BD00BFF1920008881E0020F9
:109370001E140020C61F002070B52DED048B04467E
:1093800082B03A48714675466CF0D2FC002C63DD21
:1093900000214FF47A72204622F0BCFF0446344884
:1093A000FAF7FCFF4FF42F724FF49671B0F90000FA
:1093B00022F0B0FF02A921F8020D2D48FBF71CFE98
:1093C0002C48FAF7EBFF0688FCF7C0FA36B2864263
:1093D00004DD2848FAF7E2FF04883EE0B4F5167F82
:1093E00036DA2448FAF7DAFFB0F9000008EE100A7E
:1093F0002048FAF7D3FFB0F90030E41A07EE104A1C
:10940000B8EEC79AFCF7A2FA04461A48FAF7C6FF64
:10941000B0F900301748E31A08EE903AFAF7BEFFA9
:10942000B0F90030C3F51673F8EEE88A07EE103A8B
:1094300068EE898AF8EEC77AB8EEC88AC8EEA78ABD
:1094400038EE888ABDEEC88A18EE104AA4B204E04D
:10945000FCF77CFA044600E00024044829466CF03E
:1094600079FC20B202B0BDEC048B70BD799300088A
:109470002C14002022140020F8B571462DED028B2B
:1094800004462848B0EE408A75466CF051FC2648E8
:10949000FAF784FFB0F90020DFED246A9FED247A0B
:1094A000042392FBF3F39BB21AB2002A214AB5EED1
:1094B000C08AD2ED027A2288D8BF0123F1EE10FAD9
:1094C00067EEC87AACBF38EE268A36EEC88A9BB201
:1094D00087EE087AD11A1A4409B212B247EE277AF7
:1094E000FDEEE77A17EE900A00B222F013FF06466F
:1094F00020801148FAF752FF07880F48FAF74EFF0D
:109500007F42BFB239B2B0F90020304622F002FFEC
:10951000BDEC028B208029460248BDE8F8406CF083
:1095200019BC00BF7994000812140020000070429A
:109530000000FA43E4110020141400202DE9F0414A
:109540002148224D2DED028B714674466CF0F0FBE4
:109550001F48FBF79BF9D0ED007AF5EEC07AF1EEEB
:1095600010FA02D800232B7025E01A4E1A483768EB
:109570003B68D3F80880FAF701FF01783846C04706
:10958000306803685B6998471148B0EE408AFBF782
:109590007DF9DFED127A28EE278AD0ED007A88EE89
:1095A000278A0021FF22BDEEC88A18EE100A00B2F9
:1095B00022F0B0FE2870BDEC028B21460248BDE8C7
:1095C000F0416CF0C7BB00BF3D950008F0230020C0
:1095D0000C140020501800200A14002000007F43C3
:1095E00038B5074D7146284674466CF0A1FB054816
:1095F00043F086FA28462146BDE838406CF0AABB05
:10960000E19500085012002038B5054671460D4816
:1096100074466CF08DFBD5F8065007EE905AF5EEC7
:10962000C07AF1EE10FA06DD9FED070A074827EE33
:10963000800A11F04BFC21460248BDE838406CF02E
:1096400089BB00BF099600080000C842081C002022
:1096500038B51C48714675466CF06AFBFDF7A8FBEF
:109660004FF47A70FCF7F6F9174C18492068036834
:109670001B6A98470021164842F0E2FF40F6B830D6
:10968000FCF7E8F9206803689B689847002812DC1B
:109690002068104903681B6A984700210C4843F072
:1096A00005F840F6B830FCF7D5F9206803689B68E8
:1096B00098470028D8DD034829466CF04BFB002072
:1096C00038BD00BF51960008941E002092540A082D
:1096D000481200209C540A08F8B5274D27482DED64
:1096E000028B714676466CF023FB2B78002B3BD027
:1096F000234C244F9FED248A013B2B70637843F069
:1097000001036370B7F96E3000EE103AB8EEC00A8C
:1097100020EE080A22F02EFEB7F98E70F0EE408A95
:1097200000EE107AB8EEC00A20EE080A22F022FEFF
:1097300016480121B0EE408AFBF7D6F92978134884
:10974000D1F10101B0EE680AF0EE480A38BF0021FD
:1097500013F0B0F92D783DB90C482946FBF7C4F950
:10976000637865F300036370BDEC028B31460348F8
:10977000BDE8F8406CF0EEBAFC1B0020D99600085A
:10978000587B0020DC1300206F128339C024002096
:1097900038B50C48714674466CF0CAFA0A4820F095
:1097A000FBFF40B10848094D21F030F8A860064899
:1097B00021F00EF8686021460248BDE838406CF0A0
:1097C000C9BA00BF91970008A812002041220020CA
:1097D00070B50B4D06462DED028B7146284674463A
:1097E0006CF0A6FAF0680FF023FA2846B0EE408A33
:1097F00021466CF0AFFAB0EE480ABDEC028B70BDAA
:10980000D197000838B51148114C714675466CF077
:109810008FFA104B1B7823F00202052A03D10E4861
:10982000FFF7D6FF04E0032B07D10B4811F06EFCC5
:10983000BCEEC00A84ED000A01E000232360294643
:109840000248BDE838406CF085BA00BF05980008B2
:109850006824002040220020081C002038B57146F2
:109860000C4875466CF064FAFFF7CCFF0A4B0B49C5
:109870001A680968074822EAE27291424FF0000430
:1098800038BF1C60294638BF01246CF063FA2046BB
:1098900038BD00BF5D980008F41E00206824002039
:1098A00038B50F480F4C714675466CF041FA0E4BB7
:1098B0001B7823F00202052A03D10C4812F05EFA4D
:1098C00004E0032B04D1094812F07EFA206001E085
:1098D0000023236029460248BDE838406CF03ABABC
:1098E000A19800083C17002040220020081C0020FE
:1098F00010B50948714674466CF01AFA074B93F993
:109900000030032B02D1064826F032FB21460248E4
:10991000BDE810406CF01EBAF1980008402200200B
:10992000101D002038B5084D7146284674466CF06D
:10993000FFF90648064944F05FFE28462146BDE887
:1099400038406CF007BA00BF25990008681800205D
:10995000381F002070B50F4D8AB071460646284664
:1099600074466CF0E5F928226846002165F050FF46
:109970006946304625F0F6FD0748FBF7AFF96A4621
:109980000146064844F0CEF9284621466CF0E2F93B
:109990000AB070BD55990008101D002068180020FD
:1099A00070B50B48714675466CF0C2F92824094E13
:1099B0000949306803685B699847013CF7D1306812
:1099C00049F000F829460248BDE870406CF0C2B981
:1099D000A1990008941E002084D00A0838B5714669
:1099E00004460A4875466CF0A3F9002C07DD084BC5
:1099F00008491868013C24B249F030F8F5E72946D7
:109A00000248BDE838406CF0A5B900BFDD990008F8
:109A1000941E0020E9710A0838B50D4D714628469C
:109A200074466CF085F90B4B0B49186803681B6A88
:109A30009847FFF7B5FFFBF795FCFBF72FFD0220DA
:109A4000FFF7CCFF28462146BDE838406CF082B9CC
:109A5000199A0008941E0020A7540A0838B50C4D26
:109A60007146284674466CF063F90A4B0A49186837
:109A7000036878221B6A9847FFF792FF0220FFF7DE
:109A8000ADFF28462146BDE838406CF063B900BF01
:109A90005D9A0008941E0020AC540A0838B50C4D9D
:109AA0007146284674466CF043F90A4B0A49186817
:109AB00003681B6A9847FFF773FFFDF735FA02202A
:109AC000FFF78CFF28462146BDE838406CF042B9CC
:109AD0009D9A0008941E0020B8540A0870B50E4DD7
