:020000040800F2
:1040000034BE00206D660708A96D0708A96D070872
:10401000A96D0708A96D0708A96D0708A96D07080C
:10402000A96D0708A96D0708A96D0708A96D0708FC
:10403000A96D0708A96D0708A96D0708A96D0708EC
:10404000A96D0708A96D0708A96D0708A96D0708DC
:10405000A96D0708A96D0708A96D0708A96D0708CC
:10406000A96D0708A96D0708A96D0708A96D0708BC
:10407000A96D0708A96D0708A96D0708A96D0708AC
:10408000A96D0708A96D0708A96D0708A96D07089C
:10409000A96D0708A96D0708A96D0708A96D07088C
:1040A000A96D0708A96D0708A96D0708A96D07087C
:1040B000A96D0708A96D0708A96D0708A96D07086C
:1040C000A96D0708A96D0708A96D0708A96D07085C
:1040D000A96D0708A96D0708A96D0708A96D07084C
:1040E000A96D0708A96D0708A96D0708A96D07083C
:1040F000A96D0708A96D0708A96D0708A96D07082C
:10410000A96D0708A96D0708A96D0708A96D07081B
:10411000A96D0708A96D0708A96D0708A96D07080B
:10412000A96D0708A96D0708A96D0708A96D0708FB
:10413000A96D0708A96D0708A96D0708A96D0708EB
:10414000A96D0708A96D0708A96D0708A96D0708DB
:10415000A96D0708A96D0708A96D0708A96D0708CB
:10416000A96D0708A96D0708A96D0708A96D0708BB
:10417000A96D0708A96D0708A96D0708A96D0708AB
:10418000A96D0708A96D070838B5064D7446714634
:10419000284673F0C5F82846214673F0D3F800206E
:1041A00038BD00BF89410008F8B50B4E0446714682
:1041B0003046754673F0B4F8236820461F6ADB6CFE
:1041C000984701462046B84729460446304673F0D2
:1041D000B9F82046F8BD00BFA9410008F8B50B4E5C
:1041E000044671463046754673F09AF823682046B7
:1041F0009F6A9B6C984701462046B847294604466B
:10420000304673F09FF82046F8BD00BFDD4100083E
:1042100038B5714605460948744673F081F828465A
:10422000FFF7C2FF10B12846FFF7D8FF0546214629
:10423000024873F087F8284638BD00BF11420008D5
:1042400038B5064D74462846714673F069F828461D
:104250002146BDE8384073F075B800BF4142000800
:1042600038B5064D74467146284673F059F828460D
:10427000214673F067F8012038BD00BF6142000895
:1042800038B5064D74467146284673F049F82846FD
:10429000214673F057F8002038BD00BF8142000866
:1042A000F8B5084D064674460F462846714673F029
:1042B00037F886F8E17028462146BDE8F84073F0EB
:1042C00041B800BFA142000870B5064D7446714662
:1042D0000646284673F024F82846214673F032F843
:1042E000304670BDC9420008F8B5084D0646744610
:1042F0000F462846714673F013F886F880712846F9
:104300002146BDE8F84073F01DB800BFE94200083F
:10431000F8B5044671460E4804F13206754672F04F
:10432000FFFF3046676CFFF7CFFF01783846FFF795
:10433000B7FFA46B34B13046FFF7C6FF01782046C3
:10434000FFF7D2FF29460248BDE8F84072F0FABFF5
:104350001143000870B5084D71460646284674465C
:1043600072F0DEFF3046FFF7D3FF28462146BDE856
:10437000704072F0E7BF00BF5543000870B5064DAE
:10438000744671460646284672F0CAFF2846214602
:1043900072F0D8FF304670BD7D43000870B5064D01
:1043A000744671460646284672F0BAFF28462146F2
:1043B00072F0C8FF304670BD9D43000870B5074DD0
:1043C000064671462846744672F0AAFF96F80861C0
:1043D0002846214672F0B6FF304670BDBD43000846
:1043E00070B5084D714606462846744672F098FF2F
:1043F0003046FFF7C3FF06782146284672F0A2FF39
:10440000304670BDE143000870B5084E0446714661
:104410003046754672F084FF00233046A360636027
:104420002360294672F08EFF204670BD09440008C3
:1044300070B5074D744671460646284672F070FF07
:104440002846214672F07EFF06F1580070BD00BF7D
:104450003144000870B5094E714604463046754631
:1044600072F05EFF0648FFF7E3FF07C884E8070025
:1044700030462946BDE8704072F064BF55440008DC
:104480004819002038B5714604460C48754672F04C
:1044900047FFE01EC0B20D2808D80123834042F236
:1044A0001F101840041C18BF012400E0002403481A
:1044B000294672F047FF204638BD00BF85440008FA
:1044C00070B5074D744671460646284672F028FFBF
:1044D0002846214672F036FF06F1680070BD00BF25
:1044E000C144000870B5074D74467146064628461B
:1044F00072F016FF2846214672F024FF06F18C0068
:1045000070BD00BFE544000870B5074D74467146A4
:104510000646284672F004FF2846214672F012FF34
:1045200006F1B00070BD00BF0945000870B5074D29
:10453000064671462846744672F0F2FE044B1E6031
:1045400028462146BDE8704072F0FCBE2D450008AB
:10455000E07B002070B5084D06467146284674463B
:1045600072F0DEFE767B284606F00106214672F0E8
:10457000E9FE304670BD00BF5545000870B50A4DD4
:104580002DED028B714606462846744672F0C8FE31
:1045900096ED058A2846214672F0D4FEB0EE480A10
:1045A000BDEC028B70BD00BF7D45000870B50A4DA3
:1045B0002DED028B714606462846744672F0B0FE19
:1045C00096ED068A2846214672F0BCFEB0EE480AF7
:1045D000BDEC028B70BD00BFAD45000870B50A4D43
:1045E0002DED028B714606462846744672F098FE01
:1045F00096ED078A2846214672F0A4FEB0EE480ADE
:10460000BDEC028B70BD00BFDD450008F8B5074664
:10461000074D0E463E4471462846744672F080FEB1
:10462000767B2846214672F08DFE3046F8BD00BFED
:104630000D46000870B50B4D714606462846744677
:1046400072F06EFE06F10C00FFF798FE90F9006024
:10465000003618BF01262846214672F073FE304608
:1046600070BD00BF3546000870B5064D74467146F2
:104670000646284672F054FE2846214672F062FE35
:10468000304670BD69460008F8B50A4D06460F462B
:1046900028467146744672F043FE0C2303FB076004
:1046A0002C30FFF7E1FF21460646284672F04AFE0D
:1046B0003046F8BD8946000870B50B4E0446714679
:1046C0003046754672F02CFE236820461B699847D9
:1046D00001462046FFF7D8FF29460446304672F0CF
:1046E00031FE204670BD00BFB9460008F8B5084D40
:1046F000744606460F462846714672F011FE28465B
:10470000214672F01FFE0C2303FB07601030F8BD3A
:10471000ED46000870B50B4E0446714630467546AE
:1047200072F0FEFD236820461B699847014620462B
:10473000FFF7DCFF29460446304672F003FE2046B0
:1047400070BD00BF1547000870B5084D064671469C
:104750002846744672F0E4FD36792846C6F34006D2
:10476000214672F0EFFD304670BD00BF494700089A
:10477000F8B5094D0F46064671462846744672F054
:10478000CFFD382303FB07662846767F214672F06B
:10479000D9FD3046F8BD00BF7147000870B50A4D1D
:1047A000064671462846744672F0BAFD96F8941093
:1047B000304601F00301FFF7DBFF2146064628469D
:1047C00072F0C0FD304670BD9D47000838B51248F4
:1047D0007146744672F0A4FD104B1B78D80714D5AF
:1047E0000F48FFF7DBFF02280FD90E48FFF7ACFF99
:1047F00058B90D4B1B78190707D40C4A5278D207C9
:1048000003D49B0601D4012500E00025024821467F
:1048100072F098FD284638BDCD470008701C002076
:104820009C210020481C0020181F00200413002099
:10483000F8B5094D0F46064671462846744672F093
:104840006FFD382307FB03331E442846B6882146F4
:1048500072F078FD3046F8BD3148000870B50A4D59
:10486000064671462846744672F05AFD96F8941032
:10487000304601F00301FFF7DBFF214606462846DC
:1048800072F060FD304670BD5D48000870B5064DA1
:10489000744671460646284672F042FD2846214677
:1048A00072F050FD304670BD8D48000870B5064D61
:1048B000744671460646284672F032FD2846214667
:1048C00072F040FD304670BDAD48000870B50B4D2C
:1048D0002DED028B714606462846744672F020FD87
:1048E0003046FFF7E3FF90ED008A2146284672F03C
:1048F00029FDB0EE480ABDEC028B70BDCD48000822
:1049000038B5714604460B48754672F009FD0D2C0A
:1049100009D8012303FA04F442F6030323401C1CC4
:1049200018BF012400E000240248294672F00AFD65
:10493000204638BD0149000870B5084D064671464D
:104940002846744672F0ECFC337C43F01C0333744D
:1049500028462146BDE8704072F0F4BC3949000891
:10496000F8B5084D0F46064671462846744672F063
:10497000D7FC3B68336028462146BDE8F84072F01A
:10498000E1BC00BF61490008F7B50A4E02AC24ED56
:10499000010A714607463046754672F0C1FC38463A
:1049A0002146FFF7DDFF3046294672F0CBFC03B00D
:1049B000F0BD00BF89490008F7B50A4E02AC24EDEE
:1049C000010A714607463046754672F0A9FC381D4B
:1049D0002146FFF7C5FF3046294672F0B3FC03B00D
:1049E000F0BD00BFB9490008F7B50A4E02AC24ED8E
:1049F000010A714607463046754672F091FC07F190
:104A000008002146FFF7ACFF3046294672F09AFCB9
:104A100003B0F0BDE9490008F7B50A4E02AC24ED39
:104A2000010A714607463046754672F079FC3846F1
:104A30002146FFF795FF3046294672F083FC03B00C
:104A4000F0BD00BF194A000870B50B4D2DED028B6B
:104A5000714606462846744672F062FC3046FFF7FF
:104A600025FF90ED008A2146284672F06BFCB0EEDF
:104A7000480ABDEC028B70BD494A000870B50B4D69
:104A80002DED028B714606462846744672F048FCAE
:104A9000301DFFF70BFF90ED008A2146284672F08B
:104AA00051FCB0EE480ABDEC028B70BD7D4A000897
:104AB00070B50C4D2DED028B7146064628467446A6
:104AC00072F02EFC06F10800FFF7F0FE90ED008A70
:104AD0002146284672F036FCB0EE480ABDEC028B47
:104AE00070BD00BFB14A0008F8B50A4D06460F4632
:104AF00028467146744672F013FC96F8363067F318
:104B0000410386F8363028462146BDE8F84072F069
:104B100019BC00BFE94A0008F8B5074D06467446BF
:104B20000F462846714672F0FBFB777228462146F5
:104B3000BDE8F84072F006BC194B0008F8B50A4D04
:104B400006460F4628467146744672F0E9FB96F811
:104B5000363067F3C30386F8363028462146BDE871
:104B6000F84072F0EFBB00BF3D4B0008F8B50A4DAE
:104B700006460F4628467146744672F0D1FB96F8F9
:104B8000363067F3451386F8363028462146BDE8AF
:104B9000F84072F0D7BB00BF6D4B000838B5074D29
:104BA00071462846744672F0BBFB0548FFF748FB88
:104BB00028462146BDE8384072F0C4BB9D4B000832
:104BC000C81F002070B5094D71462846744672F022
:104BD000A7FB074B986B03689B68984721460646DE
:104BE000284672F0AFFB304670BD00BFC54B0008D1
:104BF000307A002070B5094D064671462846744645
:104C000072F08EFB064B1A7866F304121A7028466F
:104C10002146BDE8704072F095BB00BFF54B00081F
:104C2000181F002070B50C4D2DED028B7146064605
:104C30002846744672F074FB06F12400FFF726FE46
:104C400090ED008A2146284672F07CFBB0EE480ABF
:104C5000BDEC028B70BD00BF254C000838B5064D79
:104C600074467146284672F05BFB2846214672F076
:104C700069FB012038BD00BF5D4C000870B50A4DCE
:104C80002DED028B0646B0EE408A284671467446EA
:104C900072F046FB86ED1C8ABDEC028B284621464D
:104CA000BDE8704072F04EBB7D4C000838B5084D31
:104CB00071462846744672F033FB9FED060A06489B
:104CC000FFF7DCFF2846214672F03CFB012038BD8F
:104CD000AD4C000800000000B020002070B5094D68
:104CE000714606462846744672F01AFB06F1080023
:104CF000FFF754FB06882146284672F023FB304616
:104D000070BD00BFDD4C000870B50C4D2DED028B61
:104D1000714606462846744672F002FB06F11800FA
:104D2000FFF7B4FD90ED008A2146284672F00AFB99
:104D3000B0EE480ABDEC028B70BD00BF094D000803
:104D400070B50C4D2DED028B714606462846744613
:104D500072F0E6FA06F12800FFF7A8FD90ED008A50
:104D60002146284672F0EEFAB0EE480ABDEC028BFE
:104D700070BD00BF414D000870B50C4D2DED028B8C
:104D8000714606462846744672F0CAFA06F12000BB
:104D9000FFF77CFD90ED008A2146284672F0D2FA9A
:104DA000B0EE480ABDEC028B70BD00BF794D000823
:104DB00070B50C4D2DED028B7146064628467446A3
:104DC00072F0AEFA06F11C00FFF760FD90ED008A6C
:104DD0002146284672F0B6FAB0EE480ABDEC028BC6
:104DE00070BD00BFB14D000870B50C4D2DED028BAC
:104DF000714606462846744672F092FA06F12C0077
:104E0000FFF744FD90ED008A2146284672F09AFA99
:104E1000B0EE480ABDEC028B70BD00BFE94D000842
:104E200070B5104E2DED028B714604463046754626
:104E300072F076FA04F10800FFF728FD90ED008A81
:104E400004F11000FFF722FDD0ED007A38EE678AFA
:104E50003046294672F076FAB0EE480ABDEC028B75
:104E600070BD00BF214E0008F8B5094D06460F463B
:104E700028467146744672F053FA337867F341035B
:104E8000337028462146BDE8F84072F05BBA00BF97
:104E9000694E000838B5714605460748744672F0F9
:104EA0003FFAFFF793FC2146002818BF0546024849
:104EB00072F048FA284638BD954E000870B5084D86
:104EC000064671462846744672F02AFA002373603B
:104ED000336028462146BDE8704072F033BA00BF07
:104EE000BD4E000838B523487146744672F018FA72
:104EF000214B93ED000AB5EE400AF1EE10FA33D0E3
:104F00001E4DD5ED007AF5EE407AF1EE10FA2BD079
:104F10001B48FFF739FD1B4B194893ED000AFFF7BB
:104F20004BFD194B164893ED000AFFF75DFD174B3B
:104F3000174893ED000AFFF76FFD164895ED000A3C
:104F4000FFF722FD144B134893ED000AFFF734FDE1
:104F5000124B104893ED000AFFF746FD104B114825
:104F600093ED000AFFF758FD21460248BDE838409E
:104F700072F0E8B9E54E00084C2000206C1C0020BF
:104F8000B0160020881F0020801F00200025002070
:104F9000B8170020D016002044190020901C0020D3
:104FA000AC120020BC170020F8B5094D06460F468C
:104FB00028467146744672F0B3F9337967F30003FB
:104FC000337128462146BDE8F84072F0BBB900BFF6
:104FD000A94F000870B5074D06467146284674462D
:104FE00072F09EF936782846214672F0ABF93046C9
:104FF00070BD00BFD54F0008F8B5084E0F460446F7
:1050000071463046754672F08BF93B8823803046F6
:10501000294672F097F92046F8BD00BFF94F000805
:1050200070B50A4D2DED028B0646B0EE408A28463B
:105030007146744672F074F986ED048ABDEC028BF9
:1050400028462146BDE8704072F07CB92150000826
:10505000F8B50E4D0E4E714607462846744672F05E
:105060005FF906F14E00FFF799F9B0F90030FB1A2D
:1050700000EE103A06F53A70B8EEC00AFFF7D0FF1E
:1050800028462146BDE8F84072F05CB9515000084E
:105090006C140020F8B5084E0F46044671463046A1
:1050A000754672F03DF93B6823603046294672F040
:1050B00049F92046F8BD00BF95500008F7B50A4EE3
:1050C00002AC24ED010A714607463046754672F07F
:1050D00027F9214607F11400FFF7DCFF3046294687
:1050E00072F030F903B0F0BDBD500008F8B5084EBD
:1050F0000F46044671463046754672F011F93B780A
:1051000023703046294672F01DF92046F8BD00BFD5
:10511000ED500008F7B50A4E02AC24ED010A7146C5
:1051200007463046754672F0FBF8214607F12C0021
:10513000FFF7B0FF3046294672F004F903B0F0BD26
:105140001551000870B50E4E2DED048B0446B0EEDF
:10515000409AF0EE608AB0EE418A7546714630465C
:1051600072F0DEF884ED009AC4ED018A84ED028AC3
:105170003046294672F0E6F8BDEC048B204670BD3F
:105180004551000870B5084D0646714628467446DC
:1051900072F0C6F836792846C6F34006214672F00A
:1051A000D1F8304670BD00BF8551000838B5064DB6
:1051B00074467146284672F0B3F82846214672F0CC
:1051C000C1F8002038BD00BFAD51000870B5074DD3
:1051D000064671462846744672F0A2F8B6F8946006
:1051E0002846214672F0AEF830B270BDCD510008AD
:1051F00070B50A4D2DED028B714606462846744661
:1052000072F08EF896ED1C8A2846214672F09AF8C4
:10521000B0EE480ABDEC028B70BD00BFF151000832
:1052200070B50A4D2DED028B714606462846744630
:1052300072F076F896ED2C8A2846214672F082F8B4
:10524000B0EE480ABDEC028B70BD00BF21520008D1
:1052500070B50A4D2DED028B714606462846744600
:1052600072F05EF896ED2F8A2846214672F06AF8B1
:10527000B0EE480ABDEC028B70BD00BF5152000871
:10528000F8B5084D744606460F462846714672F03A
:1052900047F82846214672F055F8382303FB07608B
:1052A0002630F8BD8152000870B50A4D0646714699
:1052B0002846744672F034F896F89410304601F09F
:1052C0000301FFF7DDFF21460646284672F03AF853
:1052D000304670BDA9520008F8B5084D0646744620
:1052E0000F462846714672F01BF886F8287028464B
:1052F0002146BDE8F84072F025B800BFD952000839
:10530000F8B50A4D06460F4628467146744672F0B7
:1053100007F80C2303FB0760BC30FFF7A5F9214613
:105320000646284672F00EF83046F8BD01530008D4
:1053300070B50B4E044671463046754671F0F0FF6D
:1053400023682046DB6C984701462046FFF7D8FFCC
:1053500029460446304671F0F5FF204670BD00BF77
:10536000315300082DE9FF4BDFF864807146404659
:10537000774671F0D5FF1348FFF7DAFF124B064668
:105380000068D3F800909FF017FC04467068D9F8C5
:1053900000B00D469FF010FCCDE90001B0689FF011
:1053A0000BFCCDE9020122464846DBF820600749A4
:1053B0002B46B0474046394604B0BDE8F04B71F08B
:1053C000C1BF00BFD0170020241F0020746F0A083F
:1053D00065530008F8B50A4D06460F462846714643
:1053E000744671F09DFF0C2303FB07609830FFF7B4
:1053F0003BF921460646284671F0A4FF3046F8BD29
:10540000D553000870B50B4E0446714630467546BC
:1054100071F086FF236820469B6C98470146204622
:10542000FFF7D8FF29460446304671F08BFF20462F
:1054300070BD00BF05540008F8B50A4D06460F467A
:1054400028467146744671F06BFF0C2303FB07601E
:105450007430FFF709F921460646284671F072FFBD
:105460003046F8BD3954000870B50B4E04467146FD
:105470003046754671F054FF236820469B6C984770
:1054800001462046FFF7D8FF29460446304671F012
:1054900059FF204670BD00BF695400082DE9F04B4C
:1054A000DFF89090204C8CB071464846F04671F081
:1054B00037FF2046FFF7A6FF07462046FFF7D4FF39
:1054C0001A4BD3F800B00646DBF8003038680B936F
:1054D0009FF072FB044678680D469FF06DFBCDE9A6
:1054E0000001B8689FF068FBCDE9020130689FF0C9
:1054F00063FBCDE9040170689FF05EFBCDE9060116
:10550000B0689FF059FBCDE908010B9B08491E6A62
:10551000584622462B46B047484641460CB0BDE8A7
:10552000F04B71F00FBF00BFD0170020241F0020E8
:10553000906F0A089D54000870B5084D71460646E4
:105540002846744671F0ECFE3046FEF717FF0678E9
:105550002146284671F0F6FE304670BD39550008E8
:1055600070B5084D714606462846744671F0D8FE5F
:10557000701CFEF703FF06782146284671F0E2FE14
:10558000304670BD6155000870B5084D714606463D
:105590002846744671F0C4FEF01CFEF7EFFE067854
:1055A0002146284671F0CEFE304670BD8955000870
:1055B00070B5084D714606462846744671F0B0FE37
:1055C000B01CFEF7DBFE06782146284671F0BAFED5
:1055D000304670BDB155000838B5714604460A48DA
:1055E000754671F09DFEB4F5966F05DBB4F5E16F7D
:1055F000D4BF0124022400E000240348294671F0AE
:10560000A1FE204638BD00BFD9550008F7B50A4DA8
:1056100006460F4628467146744671F081FE02A97F
:10562000301D01F8017DFFF761FD2846214671F02C
:1056300089FE03B0F0BD00BF0D56000838B515480F
:105640007146754671F06CFE134BB3F9EC3040F2C5
:10565000CE42934211DDB3F5AA6F10DD40F2D25273
:1056600093420EDD40F2546293420CDD40F2D56469
:10567000A342CCBF0524042406E0002404E0012456
:1056800002E0022400E003240248294671F05AFE99
:10569000204638BD3D5600086C140020F8B5084D72
:1056A0000F46064671462846744671F039FE3B782F
:1056B000337028462146BDE8F84071F043BE00BF74
:1056C0009D560008F7B50A4D06460F462846714616
:1056D000744671F025FE02A906F1350001F8017D3E
:1056E000FFF7DCFF2846214671F02CFE03B0F0BD29
:1056F000C556000870B50A4D7146064628467446E0
:1057000071F00EFE3046FEF739FE90F9006000366B
:1057100018BF01262846214671F014FE304670BDA0
:10572000F556000870B5084D714606462846744681
:1057300071F0F6FDB01DFEF731FE068821462846C1
:1057400071F000FE30B270BD25570008F7B50A4D64
:1057500006460F4628467146744671F0E1FD02A9DF
:1057600006F1500001F8017DFFF7C0FC28462146F4
:1057700071F0E8FD03B0F0BD4D57000870B5084D5D
:10578000714606462846744671F0CAFD3046FEF75B
:10579000F5FD06782146284671F0D4FD70B270BD43
:1057A0007D57000838B571462DED028B04460C4834
:1057B0007546B0EE408A71F0B3FD04F5A470FEF7B3
:1057C000DDFD90F900300648022B08BF84ED5F8AAA
:1057D000BDEC028B2946BDE8384071F0B3BD00BF77
:1057E000A557000838B571462DED028B04460C48CC
:1057F0007546B0EE408A71F093FD04F5A470FEF793
:10580000BDFD90F900300648012B08BF84ED5F8A8A
:10581000BDEC028B2946BDE8384071F093BD00BF56
:10582000E5570008F8B5094D744606460F46284668
:10583000714671F075FD2846214671F083FD0C23F9
:1058400003FB076000F5B270F8BD00BF25580008E3
:10585000F8B50F46074D064606EBC70671462846C3
:10586000744671F05DFD36692846214671F06AFD87
:105870003046F8BD5158000870B5084D06467146CF
:105880002846744671F04CFD96F894602846C6F39D
:105890008106214671F056FD304670BD79580008EA
:1058A00070B5074D064671462846744671F038FDBE
:1058B00036692846214671F045FD304670BD00BF6F
:1058C000A158000870B50B4D06467146284674462F
:1058D00071F026FD084B1A7866F3C3021A70074B65
:1058E0005A7866F304125A7028462146BDE8704083
:1058F00071F028BDC5580008181F0020E87B002063
:1059000038B5074D71462846744671F009FD054BC0
:1059100000221A7028462146BDE8384071F012BDB9
:1059200001590008F618002070B5074D064671466B
:105930002846744671F0F4FCB36C9E8828462146D4
:1059400071F000FD30B270BD2959000870B50D4DE1
:1059500071462846744671F0E3FC0B48FEF71EFDC5
:10596000B0F9000007EE900AFAEEEF7A2846FDEE55
:10597000E77A214617EE906AB6B271F0E3FC30B2D6
:1059800070BD00BF4D590008BC14002070B5094D12
:1059900071462846744671F0C3FC074B986B036848
:1059A000DB68984721460646284671F0CBFC304616
:1059B00070BD00BF8D590008307A0020F8B5084D41
:1059C0000F46064671462846744671F0A9FC3B888E
:1059D000338028462146BDE8F84071F0B3BC00BFD3
:1059E000BD590008F8B5074D064674460F462846CF
:1059F000714671F095FCB78028462146BDE8F84015
:105A000071F0A0BCE5590008F8B5094D06460F46EF
:105A100028467146744671F083FC3046B763FEF742
:105A200077FC28462146BDE8F84071F08BBC00BFEA
:105A3000095A000838B5064D74462846714671F07B
:105A40006FFC28462146BDE8384071F07BBC00BFA2
:105A5000355A000870B5094D714606462846744609
:105A600071F05EFC064B986B0268B1B252689047C9
:105A700028462146BDE8704071F064BC555A0008C4
:105A8000307A002070B50A4D0646714628467446A5
:105A900071F046FCB369D3ED067AF8EEE77A284652
:105AA000C6ED187A2146BDE8704071F04BBC00BFCE
:105AB000855A000870B50A4D2DED028B71460646D9
:105AC0002846744671F02CFC96ED2B8A2846214618
:105AD00071F038FCB0EE480ABDEC028B70BD00BF1F
:105AE000B55A000838B50E4D2DED028B714608EE03
:105AF000100A2846744671F013FC0A48FEF7C6FEE9
:105B0000B8EEC88AD0ED007A28EE278A28462146CA
:105B100071F018FCB0EE480ABDEC028B38BD00BF36
:105B2000E55A0008A016002070B5094E04467146DB
:105B30003046754671F0F4FBA0680368DB6A98474D
:105B4000304684ED1C0A2946BDE8704071F0FABB6E
:105B5000295B000870B50A4D2DED028B7146064693
:105B60002846744671F0DCFB96ED168A28462146DD
:105B700071F0E8FBB0EE480ABDEC028B70BD00BFCF
:105B8000555B000870B50A4D2DED028B7146064637
:105B90002846744671F0C4FB96ED178A28462146C4
:105BA00071F0D0FBB0EE480ABDEC028B70BD00BFB7
:105BB000855B000870B50A4D2DED028B71460646D7
:105BC0002846744671F0ACFB96ED188A28462146AB
:105BD00071F0B8FBB0EE480ABDEC028B70BD00BF9F
:105BE000B55B000870B50C4D06462DED028B714675
:105BF0002846744671F094FBF068FFF7DBFFB0EEC7
:105C0000408ABDEEC88A2846214671F09BFB18EEFB
:105C1000100ABDEC028B70BDE55B000870B50A4D43
:105C20002DED028B714606462846744671F078FBCE
:105C300096ED198A2846214671F084FBB0EE480A99
:105C4000BDEC028B70BD00BF1D5C000870B50C4D33
:105C500006462DED028B71462846744671F060FBB6
:105C6000F068FFF7DBFFB0EE408ABDEEC88A284639
:105C7000214671F067FB18EE100ABDEC028B70BD77
:105C80004D5C000870B50A4D2DED028B714606463D
:105C90002846744671F044FB96ED108A284621464A
:105CA00071F050FBB0EE480ABDEC028B70BD00BF36
:105CB000855C000810B571462DED028B15487446C1
:105CC00071F02EFB144B5A789978DB7842EA012266
:105CD00042EA034343F31703B3F57A7F05DB0F482A
:105CE000FFF7D0FFB0EE408A0BE00D48FEF756FB01
:105CF000B0F90030002BC8BF5B4207EE903AB8EE17
:105D0000E78A0448214671F01DFBB0EE480ABDEC5D
:105D1000028B10BDB55C0008D1220020B02000200D
:105D2000AC14002070B50C4D06462DED028B71466B
:105D30002846744671F0F4FAF068FFF73BFFB0EEC6
:105D4000408ABDEEC88A2846214671F0FBFA18EE5B
:105D5000100ABDEC028B70BD255D000870B50C4DBE
:105D600006462DED028B71462846744671F0D8FA2E
:105D7000F068FFF753FFB0EE408ABDEEC88A2846B0
:105D8000214671F0DFFA18EE100ABDEC028B70BDEF
:105D90005D5D000870B5094D71460646284674469B
:105DA00071F0BEFAD6ED0A7AFDEEE77A284617EED4
:105DB000906A214671F0C6FA304670BD955D0008C4
:105DC00070B5084D064671462846744671F0A8FA2B
:105DD0000023F386338728462146BDE8704071F0E2
:105DE000B1BA00BFC15D000870B5074D7446714679
:105DF0000646284671F094FA2846214671F0A2FA28
:105E000006F15C0070BD00BFE95D000870B5084D8B
:105E1000064671462846744671F082FA367828465E
:105E200006F00106214671F08DFA304670BD00BFC4
:105E30000D5E000870B5064D74467146064628464C
:105E400071F06EFA2846214671F07CFA304670BD3A
:105E5000355E000870B50A4D2DED028B0646B0EE9A
:105E6000408A28467146744671F05AFA86ED1C8ABB
:105E7000BDEC028B28462146BDE8704071F062BA45
:105E8000555E000870B50A4D2DED028B0646B0EE4A
:105E9000408A28467146744671F042FA86ED1D8AA2
:105EA000BDEC028B28462146BDE8704071F04ABA2D
:105EB000855E000870B504460D462DED028B7146D7
:105EC0006448764671F02CFA2188B5F900200BB2AF
:105ED000002B02DD002A03DA08E009B1002A05DC04
:105EE000002AB8BF5242B2F5E16F01DD2B88A8E06D
:105EF00007EE103A002BF8EEC77A9FED578A50DD77
:105F0000564867EE888AFEF749FAB0F90030032B4D
:105F10000CDD5248FEF742FAB0F90020042392FB50
:105F2000F3F307EE903AB8EEE77A01E0B7EE007AC5
:105F3000F4EEC78AF1EE10FA08DDB4F9003007EE8E
:105F4000903AF8EEE77A27EE888A15E04348FEF7A4
:105F500025FAB0F90030032B0CDD4048FEF71EFA9D
:105F6000B0F90020042392FBF3F308EE103AB8EEE8
:105F7000C88A01E0B7EE008AB4F9003007EE903A23
:105F8000F8EEE77A37EEC88ABDEEC88A18EE103A06
:105F90009BB22380B5F900201BB29342B8BF1346D1
:105FA0004FE02E4867EEC88AFEF7F8F9B0F90030E6
:105FB000032B0CDD2948FEF7F1F9B0F9002004238A
:105FC00092FBF3F307EE103AF8EEC77A01E0F7EE32
:105FD000007AF4EEE78AF1EE10FA08DDB4F9003049
:105FE00007EE903AF8EEE77A27EEC88A15E01B48EC
:105FF000FEF7D4F9B0F90030032B0CDD1748FEF79B
:10600000CDF9B0F90020042392FBF3F308EE103A27
:10601000B8EEC88A01E0B7EE008AB4F9003007EEA6
:10602000903AF8EEE77A38EE278ABDEEC88A18EE85
:10603000103A9BB22380B5F900201BB29342A8BF4F
:106040001346BDEC028B238031460248BDE8704008
:1060500071F078B9B55E0008CDCC4C3CA21400209C
:1060600038B50C4D71462846744671F059F90A4B03
:106070001A78052161F302021A70C8225A8300229D
:106080005A805A8EDA8328462146BDE8384071F09E
:1060900059B900BF616000087412002038B50C4D7A
:1060A00071462846744671F03BF90A4B1A7805216F
:1060B00061F3C5021A70C8229A8300229A809A8ED0
:1060C0001A8428462146BDE8384071F03BB900BF2C
:1060D0009D6000087412002038B533482DED048B04
:1060E0007146754671F01CF9304B1A78C2F34102C3
:1060F000002A51D05978C8074ED52D4C6FF30001B6
:106100005970B4F96E3007EE103A012AB8EEC77A2A
:106110000AD1284BD3ED006AB4F98E3008EE903ADC
:10612000254BF8EEE88A09E0244BD3ED006AB4F978
:106130008E3008EE903A224BF8EEE88AD3ED007AE2
:10614000204827EEE88A68EEA68AA7EE268AE7EEC0
:10615000278AFFF765F81B48B0EE409AFFF778F8FA
:1061600020EE280A1748A9EE080ABDEEC00A10EE74
:10617000103AA4F86E30FFF76BF81248B0EE409A70
:10618000FFF74EF820EE280AA8EE490ABDEEC00A35
:1061900010EE103AA4F88E30BDEC048B294602486C
:1061A000BDE8384071F0CEB8D9600008701C0020FE
:1061B0006C1400201C0D002098220020140D0020DB
:1061C00014670020502500202DE9F0410A4D80463B
:1061D0000F4628467146744671F0A2F807480668D3
:1061E00041463A463668B0472846214671F0AAF83B
:1061F0000020BDE8F08100BFC9610008307A0020AE
:1062000070B50B4D064671462846744671F088F805
:10621000084B1A7866F382021A70074B5A7866F3B5
:10622000C3025A7028462146BDE8704071F08AB812
:1062300001620008181F0020E87B002038B5714675
:1062400004460C48754671F06BF80B4B1A78C2F394
:106250000011A14207D064F304121A70074B1A7898
:1062600064F3C7121A7029460248BDE8384071F03D
:1062700069B800BF3D620008701C0020E87B002068
:1062800038B5714605460948744671F049F8084B1F
:1062900006481A78C2F3C001A9421CBF65F3C302C5
:1062A0001A702146BDE8384071F04CB88162000890
:1062B000701C002038B5104D2DED028B714628461C
:1062C000744671F02DF80D48FEF758F890F900006B
:1062D000DFED0B7A07EE100AB8EEC77AB0EE008A4F
:1062E000A7EE278A2846214671F02CF8B0EE480A1E
:1062F000BDEC028B38BD00BFB5620008A1140020C0
:10630000CDCCCC3D70B5714605461048744671F051
:1063100007F8FEF757FC06460D48FEF72FF890F9F0
:106320000030B3EB962F01D2002508E035B9094BB8
:10633000D86A03681B6A98470028F5D101250348ED
:10634000214670F0FFFF284670BD00BF05630008BE
:106350007B140020307A0020F8B5084D74460646BC
:106360000F462846714670F0DBFF2846214670F044
:10637000E9FF0C2303FB07604C30F8BD59630008AC
:1063800070B50B4E044671463046754670F0C8FF36
:1063900023682046DB6C984701462046FFF7DCFF68
:1063A00029460446304670F0CDFF204670BD00BF40
:1063B00081630008F8B50F46074D064606EBC70691
:1063C00071462846744670F0ABFFF66828462146B1
:1063D00070F0B8FF3046F8BDB563000870B50A4DDF
:1063E000064671462846744670F09AFF96F8941057
:1063F000304601F00301FFF7DDFF2146064628463F
:1064000070F0A0FF304670BDDD630008F8B5094D9F
:10641000744606460F462846714670F081FF2846AE
:10642000214670F08FFF382307FB0333F018083044
:10643000F8BD00BF0D64000870B50A4D06467146F0
:106440002846744670F06CFF96F89410304601F0C0
:106450000301FFF7DBFF21460646284670F072FF76
:10646000304670BD39640008F8B50C4D2DED028B37
:1064700006460F4628467146744670F051FF382391
:1064800003FB076696ED0D8A2846214670F05AFFF9
:10649000B0EE480ABDEC028BF8BD00BF696400088D
:1064A00070B50D4D06462DED028B7146284674469B
:1064B00070F036FF96F89410304601F00301FFF7B4
:1064C000D3FF2846B0EE408A214670F03BFFB0EE85
:1064D000480ABDEC028B70BDA164000838B50546C2
:1064E00071460848744670F01BFFA88B4FF6FF7585
:1064F000A84214BF054600252146024870F022FF3D
:10650000284638BDDD64000870B50A4D7146064660
:106510002846744670F004FF301DFDF72FFF90F9F8
:106520000060003618BF01262846214670F00AFF99
:10653000304670BD0965000870B5074D06467146C6
:106540002846744670F0ECFE96F8286028462146EE
:1065500070F0F8FE304670BD3965000870B5074D23
:10656000064671462846744670F0DAFE368E284696
:10657000214670F0E7FE304670BD00BF5D65000843
:1065800070B5074D064671462846744670F0C8FE41
:10659000F66A2846214670F0D5FE304670BD00BF31
:1065A0008165000870B5064D74467146064628465A
:1065B00070F0B6FE2846214670F0C4FE304670BD2D
:1065C000A565000870B50D46044671462448764618
:1065D00070F0A6FE082D3BD804EB45007230FFF7A3
:1065E000E1FF007807EE900A082DF8EE677A08D0F0
:1065F00094F864300BB9236C1BB1B5EE007A67EEEA
:10660000877AF5EEC07AF1EE10FA21D9254495F893
:106610008430D3B99FED137A94F88D40F4EE477A25
:10662000F1EE10FAC8BFF0EE477A87EE277A06EE51
:10663000904AF8EEE66A012477EE267AFCEEE77AD5
:1066400017EE903A85F8843003E0013B85F88430FA
:1066500000240348314670F075FE204670BD00BF2F
:10666000C56500080000484270B5074D7446714684
:106670000646284670F054FE2846214670F062FE19
:1066800006F19C0070BD00BF6966000870B50C4D36
:106690002DED028B06467146B0EE408A28467446C0
:1066A00070F03EFEF068B0EE480AFEF7E7FABDEC87
:1066B000028B28462146BDE8704070F043BE00BF03
:1066C0008D66000838B50C461D487146754670F059
:1066D00027FE6379DB071CD51A48FFF7C5FFA379AE
:1066E000E279817843EA0222237A42EA034243783C
:1066F00043EA0123C17843EA014342F3170243F31B
:1067000017031344C3F30722A371C3F30743E271D2
:106710002372E279A3790C4843EA0223227A43EAFE
:10672000024343F3170300EE103AB8EEC00AFFF736
:10673000ADFF29460248BDE8384070F003BE00BFF7
:10674000C566000850250020981C002070B5094D32
:10675000714606462846744670F0E2FD06F13700A1
:10676000FDF7B2FD06782146284670F0EBFD304675
:1067700070BD00BF4D67000870B5074D06467146F5
:106780002846744670F0CCFD367D2846214670F0D0
:10679000D9FD304670BD00BF7967000870B5074E5F
:1067A000044671463046754670F0BAFD044B2360CE
:1067B0003046294670F0C6FD204670BD9D67000832
:1067C000085F0A08F8B50A4E04460F46304671467F
:1067D000754670F0A5FD2046FFF7E0FF054B2360EE
:1067E00030462771294670F0ADFD2046F8BD00BF48
:1067F000C567000870B60A0870B50D4C06467146AC
:106800000C48754670F08CFD206803685B690EB11A
:10681000094900E0094998472068094903685B690C
:10682000984729460348BDE8704070F08BBD00BF13
:10683000241F0020F9670008F2750A08065D0A089F
:10684000AE7A0A0870B5094D714606462846744668
:1068500070F066FD06F5A470FDF790FD0678214600
:10686000284670F06FFD304670BD00BF45680008D7
:10687000F8B50B4D06460F4628467146744670F033
:106880004FFD0C2303FB076000F5A670FDF7ECFE3F
:1068900021460646284670F055FD3046F8BD00BF3B
:1068A0007168000870B5094D714606462846744661
:1068B00070F036FD06F10800FDF760FD0678214610
:1068C000284670F03FFD304670BD00BFA568000847
:1068D00038B5714604460D48754670F021FD0C48E8
:1068E000FDF74CFD90F90030022B05D0032B06D0AC
:1068F0001C1C18BF012403E084F0010400E0042400
:106900000248294670F01EFD204638BDD1680008B7
:10691000A014002070B50E4D2DED028B7146064679
:106920002846744670F0FCFC3046FFF7B9FD284657
:106930002146B0EE408A70F005FDDFED067A28EEC4
:10694000278ABCEEC88A18EE100ABDEC028B70BD17
:10695000156900080000C842F8B5094D0F46064603
:1069600071462846744670F0DBFC382303FB07664B
:106970002846B66B214670F0E5FC3046F8BD00BFF6
:106980005969000870B50A4D064671462846744696
:1069900070F0C6FC96F89410304601F00301FFF742
:1069A000DBFF21460646284670F0CCFC304670BD21
:1069B0008569000838B51348134C2DED028B7146DC
:1069C000754670F0ADFC1148FDF7E8FE01280DD9C1
:1069D0000E48FFF79FFF642808D90C48FFF7D2FF45
:1069E00007EE100AF8EEC77AC4ED007A94ED008A3B
:1069F0000448294670F0A6FCB0EE480ABDEC028BB4
:106A000038BD00BFB56900089C2200209C210020F1
:106A100070B50A4D2DED028B714606462846744628
:106A200070F07EFC96ED398A2846214670F08AFC8B
:106A3000B0EE480ABDEC028B70BD00BF116A0008C1
:106A400070B5084E044671463046754670F068FCD5
:106A50000023304663602360294670F073FC2046B3
:106A600070BD00BF416A000870B5074D744671469D
:106A70000646284670F054FC2846214670F062FC19
:106A800006F50B7070BD00BF696A000838B5094D86
:106A900071462846744670F043FC074B01221A7079
:106AA000FEF774FF054B186021462846BDE83840C4
:106AB00070F048BC8D6A00080C0D002048250020AD
:106AC00038B5074D71462846744670F029FC054BD1
:106AD00000221A7028462146BDE8384070F032BCCA
:106AE000C16A00080C0D002070B50A4D2DED028B17
:106AF0000646B0EE408A28467146744670F010FC97
:106B000086ED098ABDEC028B28462146BDE870401F
:106B100070F018BCE96A000870B5084D7146064669
:106B20002846744670F0FCFBB01DFDF7CDFB0678DF
:106B30002146284670F006FC304670BD196B0008EF
:106B400038B5094D71462846744670F0E9FB074A8E
:106B500000231380064A1360064A13802846214604
:106B6000BDE8384070F0EEBB416B0008A022002069
:106B7000B0120020EC1D002038B5714604460D48C7
:106B8000754670F0CDFB0C4B1A8801321A800B4B06
:106B90001A68944288BF1C6040F6B8339C4203D9FF
:106BA000074B1A8801321A8029460248BDE838404E
:106BB00070F0C8BB796B0008A0220020B012002042
:106BC000EC1D002070B5074D71462846744670F0E4
:106BD000A7FB054B1E882846214670F0B3FB3046C4
:106BE00070BD00BFC56B0008A022002070B5074D26
:106BF00071462846744670F093FB054B1E68284684
:106C0000214670F09FFB304670BD00BFED6B000861
:106C1000B012002070B5074D71462846744670F0DA
:106C20007FFB054B1E882846214670F08BFB3046C3
:106C300070BD00BF156C0008EC1D0020F0B5234F9F
:106C40008BB0044671463846764670F069FB2048A2
:106C5000FFF70AFD62684368DFED1E7AD31A06EE7D
:106C6000903A1D4BA268D3ED000A8368D31AB8EEA0
:106C7000E60AA27806EE903A637843EA0223E278C5
:106C800043EA024343F3170360EEA70AB8EEE67A3D
:106C900001EE103A04AD20EE270A60EE870AB8EE46
:106CA000C11A2846FEF74EFA95E807000AAB03E939
:106CB00007003846314670F045FB9DED070ADDEDD3
:106CC000080A9DED091A0BB0F0BD00BF3D6C00082D
:106CD000502500202C7D8E3F280D002038B5064D14
:106CE00074462846714670F01BFB28462146BDE8D5
:106CF000384070F027BB00BFDD6C000838B5714626
:106D000005460A48744670F00BFB0023EA1804336A
:106D100000211C2B5160F9D1002385F82030214639
:106D20000248BDE8384070F00DBB00BFFD6C0008A4
:106D300038B504462DED028B71460F48B0EE408AFF
:106D4000754670F0EDFA94F820200B48531CDBB226
:106D5000062B84F8203004EB820288BF002382EDEA
:106D6000018A294688BF84F8203070F0EBFAB0EE33
:106D7000480ABDEC028B38BD316D000838B5094DAD
:106D800071462846744670F0CBFA074B074AD86B19
:106D9000116803681B6898472846214670F0D2FAAC
:106DA000002038BD7D6D0008307A0020241F0020AF
:106DB00038B5094D71462846744670F0B1FA074B54
:106DC0000749186803681B6A984728462146BDE8AA
:106DD000384070F0B7BA00BFB16D0008241F002022
:106DE000C96F0A0838B5064D74467146284670F0DA
:106DF00097FA2846214670F0A5FA002038BD00BF5A
:106E0000E56D0008F8B5084D744606460F4628465D
:106E1000714670F085FA2846214670F093FA0C23EB
:106E200003FB07600430F8BD056E000870B50B4E1B
:106E3000044671463046754670F072FA2368204663
:106E40009B6C984701462046FFF7DCFF2946044625
:106E5000304670F077FA204670BD00BF2D6E0008F6
:106E6000F8B50A4D06460F4628467146744670F03E
:106E700057FA96F8363067F3820386F8363028469C
:106E80002146BDE8F84070F05DBA00BF616E0008B1
:106E900070B50B4E044671463046754670F040FAA8
:106EA000236820461B69984701462046FDF7AEFB44
:106EB00029460446304670F045FA204670BD00BFB2
:106EC000916E000838B5094D71462846744670F039
:106ED00027FA074B0749186803681B6A9847284632
:106EE000214670F02FFA002038BD00BFC56E0008A3
:106EF000241F0020DE6F0A0838B5094D7146284668
:106F0000744670F00DFA074B986B03680021DB6B39
:106F100098472846214670F015FA002038BD00BF7A
:106F2000F96E0008307A00202DE9F04B5D4F5E4D80
:106F30005E4C71463846764670F0F2F9D5F800801E
:106F4000D8F8003004F17600D3F82090FDF726FA47
:106F5000B0F900B004F17A00FDF720FA5A4654491E
:106F6000B0F900304046C847D5F80080D8F8003066
:106F700004F19600D3F82090FDF710FAB0F900B0B4
:106F800004F19A00FDF70AFA5A464A49B0F900306E
:106F90004046C847D5F80080D8F8003004F1B60064
:106FA000D3F82090FDF7FAF9B0F900B004F1BA0077
:106FB000FDF7F4F95A464049B0F900304046C84759
:106FC000D5F80080D8F8003004F1D600D3F820902E
:106FD000FDF7E4F9B0F900B004F1DA00FDF7DEF9ED
:106FE0005A463649B0F900304046C847D5F80080C7
:106FF000D8F8003004F1F600D3F82090FDF7CEF970
:10700000B0F900B004F1FA00FDF7C8F95A462C496E
:10701000B0F900304046C847D5F80080D8F80030B5
:1070200004F58B70D3F82090FDF7B8F9B0F900B0F3
:1070300004F58D70FDF7B2F95A462249B0F90030D7
:107040004046C847D5F80080D8F8003004F59B705A
:10705000D3F82090FDF7A2F9B0F900B004F59D70C7
:10706000FDF79CF95A461849B0F900304046C84728
:107070002D682B6804F5AB70D3F82080FDF78EF9EE
:10708000B0F9009004F5AD70FDF788F90F49B0F93B
:1070900000304A462846C04738463146BDE8F04BE6
:1070A00070F050B9296F0008241F00206C140020D4
:1070B00009700A0817700A0825700A0833700A0850
:1070C00041700A084F700A085D700A086B700A0860
:1070D00070B504460D462D487146764670F020F98D
:1070E0002368102D47D8DFE805F0090D12161A1E87
:1070F0002226462A2E3246363A3E42005B69244911
:10710000204602E05B6923492046984738E05B69E6
:1071100021492046F9E75B6920492046F5E75B698C
:107120001F492046F1E75B691E492046EDE75B6990
:107130001D492046E9E75B691C492046E5E75B6994
:107140001B492046E1E75B691A492046DDE75B6998
:1071500019492046D9E75B6918492046D5E75B699C
:1071600017492046D1E75B6916492046CDE75B69A0
:1071700015492046C9E71B6A144920462A46984704
:1071800031460248BDE8704070F0DCB8D1700008AC
:1071900079700A0883700A0888700A0891700A08D2
:1071A00096700A08B0700A089D700A08A1700A0853
:1071B000A8700A08AD700A08B7700A08BD700A08FE
:1071C000C3700A08C8700A08D1700A08D9700A0882
:1071D0002DE9F843124C814688461248714675469F
:1071E000164670F09DF820680F4907684A463F6AC6
:1071F000B84720684146FFF76BFF20680B490368DA
:107200001B6A9847206803681B6A0EB1084900E0B2
:107210000849984729460348BDE8F84370F092B8FA
:10722000241F0020D1710008E2700A08EB700A08E0
:10723000F7700A08FB700A0870B5084D71462846B9
:10724000744670F06DF80648FEF7E0FD21460646EC
:10725000284670F077F8304670BD00BF39720008DC
:10726000981C002038B5064D74467146284670F0CB
:1072700057F82846214670F065F8002038BD00BF59
:107280006572000870B5074D74467146064628467B
:1072900070F046F82846214670F054F806F11C00BC
:1072A00070BD00BF8572000870B50A4D2DED028BD0
:1072B000714606462846744670F032F896ED0C8A00
:1072C0002846214670F03EF8B0EE480ABDEC028B2D
:1072D00070BD00BFA972000838B5124871467546E6
:1072E00070F01EF81048FEF791FD044698B10F4C5F
:1072F000236813B9FDF766FC2060FDF763FC246882
:107300004FF47A73001BB0FBF3F4094B1B889C42CB
:1073100034BF002401240348294670F013F82046A6
:1073200038BD00BFD9720008981C0020681F0020DB
:10733000F424002038B50B48714675466FF0F0FF15
:10734000094B1C783CB1094B1C78033CE4B2012C7E
:107350008CBF00240124034829466FF0F3FF204628
:1073600038BD00BF35730008EE1D00203C19002019
:1073700038B571460C4875466FF0D2FFFDF722FC18
:107380000A4B1B68C01A0A4B1A6822EAE272904242
:107390004FF0000488BF1C60034888BF01242946C1
:1073A0006FF0D0FF204638BD717300081013002025
:1073B000841F002038B5064D7446714628466FF08C
:1073C000AFFF284621466FF0BDFF012038BD00BF4A
:1073D000B5730008F8B50A4E07460C4630467146AC
:1073E00075466FF09DFF94E8070007F11C0383E8E2
:1073F000070030462946BDE8F8406FF0A3BF00BF44
:10740000D5730008F7B50A4E02AC24ED010A7146A7
:107410000746304675466FF083FF214607F110009E
:10742000FDF738FE304629466FF08CFF03B0F0BD03
:107430000574000870B50C4D2DED028B71460646A3
:10744000284674466FF06CFF06F11000FDF71EFA37
:1074500090ED008A214628466FF074FFB0EE480A8E
:10746000BDEC028B70BD00BF3574000870B5074DD0
:1074700006467146284674466FF052FFF68F28463E
:1074800021466FF05FFF304670BD00BF6D7400088D
:1074900070B50F4D06467146284674466FF040FFA2
:1074A000FDF790FBD6F805609FED0A7A0A4B07EED0
:1074B000906A67EE877A1860FDEEE77A074BC3EDB6
:1074C000007A28462146BDE870406FF03BBF00BF00
:1074D0009174000800007A4410130020841F0020DB
:1074E00070B50D4D06467146284674466FF018FF7C
:1074F000D6F805609FED097A094B07EE906A67EEB2
:10750000877A2846FDEEE77A2146C3ED007ABDE88A
:1075100070406FF017BF00BFE17400080000C84260
:10752000841F002038B5064D7446284671466FF01A
:10753000F7FE28462146BDE838406FF003BF00BF84
:1075400025750008F7B50C4D06460F4628467146CE
:1075500074466FF0E5FE07EE107AF8EE477A02A95E
:1075600061ED017A06F10C00FDF7FAF92846214693
:107570006FF0E8FE03B0F0BD4575000870B5064D2C
:1075800074467146064628466FF0CAFE28462146D4
:107590006FF0D8FE304670BD7D75000870B5084E9E
:1075A00071460446304675466FF0BAFE2046FFF736
:1075B000E5FF304629466FF0C5FE204670BD00BF8E
:1075C0009D75000870B5084E7146044630467546F4
:1075D0006FF0A6FE2046FFF7E1FF304629466FF028
:1075E000B1FE204670BD00BFC575000870B5084EDD
:1075F00071460446304675466FF092FE2046FFF70E
:10760000BDFF304629466FF09DFE204670BD00BF8D
:10761000ED75000870B5084E714604463046754653
:107620006FF07EFE2046FFF7A9FF304629466FF037
:1076300089FE204670BD00BF1576000870B5084E63
:1076400071460446304675466FF06AFE2046FFF7E5
:1076500095FF304629466FF075FE204670BD00BF8D
:107660003D76000870B5084E7146044630467546B2
:107670006FF056FE2046FFF7E1FF304629466FF0D7
:1076800061FE204670BD00BF6576000870B5074EEC
:1076900004467146304675466FF042FE044B236047
:1076A000304629466FF04EFE204670BD8D760008AC
:1076B000685F0A0870B5094E044671463046754643
:1076C0006FF02EFE2046FFF7E1FF054B23603046AA
:1076D00029466FF037FE204670BD00BFB576000822
:1076E00060BF0A0870B5094E0446714630467546BB
:1076F0006FF016FE002330466370A370E3702371B1
:1077000029466FF01FFE204670BD00BFE5760008D9
:1077100070B50A4E71460446304675466FF000FE5D
:10772000201DFFF7C7FF04F11400FFF7DBFF304611
:1077300029466FF007FE204670BD00BF1177000894
:1077400070B5084E71460446304675466FF0E8FD48
:1077500004F12400FCF758FE304629466FF0F2FD94
:10776000204670BD4177000870B5074E044671464B
:10777000304675466FF0D4FD044B236030462946F1
:107780006FF0E0FD204670BD69770008185F0A08B9
:1077900070B50C4E04467146304675466FF0C0FD1C
:1077A0002046FFF7E1FF084B2360002384F82030D8
:1077B0002046FFF7A3FA304629466FF0C3FD204666
:1077C00070BD00BF91770008285F0A0870B5094EA8
:1077D00004467146304675466FF0A2FD2046FFF71D
:1077E000D7FF054B2360304629466FF0ABFD20469E
:1077F00070BD00BFCD770008385F0A0870B5094E2C
:1078000071460446304675466FF08AFD2046FFF704
:10781000B5FE2046FCF7F8FD304629466FF092FD94
:10782000204670BDFD77000870B50C4E2DED028B23
:107830000446F0EE408AB0EE608A754671463046E6
:107840006FF06EFDC4ED008A84ED018A3046294652
:107850006FF078FDBDEC028B204670BD29780008E2
:1078600070B50C4E04467146304675466FF058FDB3
:107870004FF07E532362236123600023A360636083
:107880006361E360E361A36130462946BDE870406F
:107890006FF058BD6178000870B50C4E7146044613
:1078A000304675466FF03CFD2046FCF7ADFD04F117
:1078B0000C00FCF7A9FD04F11800FCF7A5FD30460B
:1078C00029466FF03FFD204670BD00BF9978000843
:1078D0002DE9F0410A4E04460F4630467146754682
:1078E00090466FF01DFD002330462371A760C4F859
:1078F0000C8029466FF026FD2046BDE8F08100BFD0
:10790000D178000870B5084E044671463046754679
:107910006FF006FD002330462370637029466FF038
:1079200011FD204670BD00BF0579000870B5084EF6
:1079300004467146304675466FF0F2FC002330462F
:107940002370637029466FF0FDFC204670BD00BFB8
:107950002D790008F8B5084E04460F4630467146AA
:1079600075466FF0DDFC002330462760A380294672
:107970006FF0E8FC2046F8BD5579000870B5074D5A
:1079800006467146284674466FF0CAFC367828468B
:1079900021466FF0D7FC304670BD00BF7D790008EE
:1079A00070B5074D06467146284674466FF0B8FC20
:1079B0003678284621466FF0C5FC304670BD00BFC2
:1079C000A179000870B5074D0646714628467446F1
:1079D0006FF0A6FC3678284621466FF0B3FC30469F
:1079E00070BD00BFC579000870B5074D06467146E9
:1079F000284674466FF094FC3678284621466FF08E
:107A0000A1FC304670BD00BFE979000870B5074D94
:107A100006467146284674466FF082FC3678284642
:107A200021466FF08FFC304670BD00BF0D7A000814
:107A300070B5074D06467146284674466FF070FCD7
:107A40003678284621466FF07DFC304670BD00BF79
:107A5000317A000870B5074D0646714628467446CF
:107A60006FF05EFC3678284621466FF06BFC30469E
:107A700070BD00BF557A000870B5074D06467146C7
:107A8000284674466FF04CFC3678284621466FF045
:107A900059FC304670BD00BF797A000870B5074DBB
:107AA00006467146284674466FF03AFC36782846FA
:107AB00021466FF047FC304670BD00BF9D7A00083C
:107AC00070B5074D06467146284674466FF028FC8F
:107AD0003678284621466FF035FC304670BD00BF31
:107AE000C17A000870B5074D0646714628467446AF
:107AF0006FF016FC3678284621466FF023FC30469E
:107B000070BD00BFE57A000870B5074D06467146A6
:107B1000284674466FF004FC3678284621466FF0FC
:107B200011FC304670BD00BF097B000870B5074DE1
:107B300006467146284674466FF0F2FB36782846B2
:107B400021466FF0FFFB304670BD00BF2D7B000863
:107B500070B5074D06467146284674466FF0E0FB47
:107B60003678284621466FF0EDFB304670BD00BFE9
:107B7000517B000870B5074D06467146284674468D
:107B80006FF0CEFB3678284621466FF0DBFB30469F
:107B900070BD00BF757B00082DE9F0410E468046A0
:107BA00071460E48144675466FF0BAFB0C4B1C80AC
:107BB0000C4B00241E60A7B21C2000FB0760FFF7DF
:107BC000DDFE01340028F6D1074B04481F7029461A
:107BD0006FF0B8FB4046BDE8F08100BF997B00081C
:107BE000F47B0020F07B0020EC7B002070B5084E79
:107BF00071460446304675466FF092FB04F124004E
:107C0000FEF71EFF304629466FF09CFB204670BDF4
:107C1000ED7B000870B5074E044671463046754648
:107C20006FF07EFB044B2360304629466FF08AFBE1
:107C3000204670BD157C000868B50A0870B5074E6F
:107C400004467146304675466FF06AFB044B23606C
:107C5000304629466FF076FB204670BD3D7C00081B
:107C600078980A0870B5094E044671463046754644
:107C70006FF056FB064B23602046FFF7DFFF3046D0
:107C800029466FF05FFB204670BD00BF657C000891
:107C9000E8980A0870B5074E0446714630467546A6
:107CA0006FF03EFB044B2360304629466FF04AFBE1
:107CB000204670BD957C000850930A0870B5094EA7
:107CC00004467146304675466FF02AFB064B23602A
:107CD0002046FFF79FFF304629466FF033FB2046D2
:107CE00070BD00BFBD7C0008F8B50A0870B5094E2C
:107CF00004467146304675466FF012FB064B236012
:107D00002046FFF7AFFF304629466FF01BFB2046A9
:107D100070BD00BFED7C000858990A0870B5094E87
:107D200071460446304675466FF0FAFA2046FFF772
:107D300071FF20466FF0FCFB304629466FF002FBD6
:107D4000204670BD1D7D000870B5094E7146044681
:107D5000304675466FF0E4FA2046FFF76FFF204685
:107D60006FF0E6FB304629466FF0ECFA204670BD16
:107D7000497D000870B5094E714604463046754687
:107D80006FF0CEFA2046FFF76DFF20466FF0D0FB74
:107D9000304629466FF0D6FA204670BD757D000842
:107DA00070B5094E71460446304675466FF0B8FA14
:107DB0002046FFF76FFF20466FF0BAFB304629469A
:107DC0006FF0C0FA204670BDA17D000870B5094E65
:107DD00071460446304675466FF0A2FA2046FFF71A
:107DE0006DFF20466FF0A4FB304629466FF0AAFADB
:107DF000204670BDCD7D000870B5094E7146044621
:107E0000304675466FF08CFA2046FFF76FFF20462C
:107E10006FF08EFB304629466FF094FA204670BD15
:107E2000F97D000870B50B4D7146284674466FF019
:107E300077FA094B09481E78FCF746FA3146027872
:107E4000074819F08DFA28462146BDE870406FF0CA
:107E500079BA00BF257E0008D02200207A140020C5
:107E6000C012002070B5714606460B4875466FF08B
:107E700057FA00240948225C1AB12044314648F0E0
:107E80005FFCCC34B4F5197FF4D129460248BDE833
:107E900070406FF057BA00BF657E0008E0190020FF
:107EA00038B5074D7146284674466FF039FA0820F8
:107EB000FFF7D8FF28462146BDE838406FF042BAA8
:107EC000A17E000838B5074D7146284674466FF00C
:107ED00027FA1B20FFF7C6FF28462146BDE8384099
:107EE0006FF030BAC57E000838B5074D7146284698
:107EF00074466FF015FA0020FFF7B4FF28462146BC
:107F0000BDE838406FF01EBAE97E000838B5094D6B
:107F10007146284674466FF003FA074829F06CFE54
:107F2000064817F0AFFE28462146BDE838406FF0FE
:107F300009BA00BF0D7F000884240020841D0020A2
:107F400038B50B48714675466FF0EAF900240948C8
:107F5000235C1BB12044084948F098FDCC34B4F5AB
:107F6000197FF4D129460248BDE838406FF0EAB9DC
:107F7000417F0008E01900202180000838B57146D3
:107F80001D4874466FF0CCF91C4B986B0368DB6896
:107F900098471B4B1A881B4B1988914206D01A80B0
:107FA000194B1860194B00221A7011E0184B1B78FE
:107FB00073B1154B17491A68821A8A421D46134B32
:107FC00001D901211970197811B1134B9A4205D8C2
:107FD00021460948BDE838406FF0B4B928600F4821
:107FE000FCF7B8FA0028F3D00C48002128F032F949
:107FF0000A4828F069FBEBE77D7F0008307A002013
:10800000EC180020FC24002048250020841C0020BF
:108010000C0D002080841E0040420F00301E002006
:1080200010B57146044612486FF07AF9114B20469C
:108030001C60FCF77BFA236820461B6C01219847E3
:108040000D4B986B036800215B6905229847FEF78A
:1080500037FD0A48FCF77EFA30B10848002128F0C5
:10806000F9F8064828F030FB054826F0EBFFFBE75F
:1080700021800008241F0020307A0020301E0020BC
:10808000FC1D002038B5074D7146284674466FF038
:1080900047F9054826F0D6FF284621466FF052F9E9
:1080A000002038BD85800008F866002038B50A4DEC
:1080B0007146284674466FF033F9084B0849186832
:1080C00003681B6A9847074826F0BCFF28462146EC
:1080D0006FF038F9002038BDAD800008241F002063
:1080E00000710A082413002038B5074D7146284650
:1080F00074466FF015F9054826F0A4FF284621467E
:108100006FF020F9002038BDE980000864200020CD
:1081100070B5274C27482DED028B714675466FF0E0
:10812000FFF86378A678244843EA0626E37846EA0F
:108130000346FCF733F9B0F9003046F317069E42C8
:108140000DDDA278637843EA0223E27843EA024332
:1081500043F3170307EE903AB8EEE78A08E01648B3
:10816000FCF71CF9B0F9000008EE100AB8EEC88A56
:10817000124811F0C5FEC30710D51048DFED108A74
:10818000FCF74EFE20EE280AB4EEC08AF1EE10FA9B
:1081900004D40A48FCF744FE20EE288A0548294604
:1081A0006FF0D0F8B0EE480ABDEC028B70BD00BF96
:1081B000D1220020118100087C140020901F002093
:1081C0000000C84270B53248714676466FF0A8F894
:1081D000304B1B781A0754D42F48FCF7CFF890F98E
:1081E0000030012B05D02C48FCF7C8F803785B065B
:1081F00044D52A4843F0FEF820B9294843F0FAF85C
:1082000000283ED02748FCF7C9F8B0F9003040F20A
:108210001454A34235DC2448FCF7C0F8B0F9003010
:1082200040F2A365AB422CDD2048FCF7B7F8B0F96B
:108230000030A34225DC1E48FCF7B0F8B0F900304E
:10824000AB421EDD1548FCF7A9F8B0F90030A34297
:1082500017DC1348FCF7A2F8B0F90030AB4210DD90
:108260001448FCF79BF8B0F90030A34209DC12482F
:10827000FCF794F8B0F90030AB4202DD0120FDF7C5
:10828000FFFF31460248BDE870406FF05BB800BFA9
:10829000C5810008701C0020D11400202215002088
:1082A00026150020E2140020E6140020021500200C
:1082B00006150020421500204615002070B5084D17
:1082C00071460646284674466FF02AF806F13700D4
:1082D00043F090F828462146BDE870406FF032B870
:1082E000BD820008F8B506460F460C487146754633
:1082F0006FF016F800240A48225C22B1204431466F
:108300003A4648F09DFACC34B4F5197FF3D12946AA
:108310000248BDE8F8406FF015B800BFE5820008DC
:10832000E01900202DE9F04171462DED028B054644
:10833000264876466EF0F4FF254822F07DF926F0B7
:10834000C7FB2448B0EE408AFCF7FEF9074630B17F
:108350001DB121490320FFF7C5FF00242DE0FCF7E4
:1083600035FA044630B9002DF7D003201B49FFF73A
:10837000B9FF22E0B5EE408AF1EE10FA06D0DFED4B
:10838000187AB4EEE78AF1EE10FA04DD002DE4D09D
:1083900003201449DFE71448FCF760FA80461348CD
:1083A000FBF7FCFFB0F90030984506DD002DD4D076
:1083B00003200F49FFF796FF3C46044831466EF014
:1083C000C1FFBDEC028B2046BDE8F081258300088B
:1083D00038130020481C00200E710A0821710A0879
:1083E0000000484235710A089C21002092140020A8
:1083F0004A710A0870B52DED028BB94E714684B0F2
:108400000446B84875466EF08BFF3378D90600F104
:108410003281B548FBF7B2FF90F9003033B9012043
:10842000FDF70CFF0120FDF72BFF24E1FFF7CAFE4B
:1084300033781A0705D4002C00F01D810320AB49C6
:1084400014E0A948FBF79AFF90F90030012B05D002
:10845000A548FBF793FF03789B071ED5A44B1B7918
:108460003BB9002C00F00781A2490320FFF73AFF37
:1084700001E1A14822F018F9A04B9FEDA17AD3EDBC
:10848000007AF8EEE77A30EE670AF0EEC07AF4EEA2
:10849000C77AF1EE10FA00F3F6809348FBF76EFF0F
:1084A00090F90030012B05D08F48FBF767FF037868
:1084B0005E0733D593480021FCF7A8F8002800F0A8
:1084C000E7809048FCF7B6F8002800F0E6808D4879
:1084D000FCF7F2F807C801AB83E80700184626F05E
:1084E000F7FADFED897AB4EEE70AF1EE10FA00F35D
:1084F000DF808448FCF70EF926F0EAFADFED837A94
:10850000B4EEE70AF1EE10FA00F3D780DFED807ADF
:10851000B4EEE70AF1EE10FA00F1CF807248FBF7F3
:108520002DFF90F90030012B05D06F48FBF726FF97
:10853000037818071AD5774B1878FBF7A3FF0028A4
:1085400040F0C0807448FBF719FF90F90030032B0E
:1085500000F0B880714811F0EFFC002800F08B802B
:108560006E4811F0CDFC810700F1B3805E48FBF747
:1085700005FF90F90030012B05D05B48FBF7FEFEAC
:108580000378DA060BD5664823F03CFA002800F0A1
:10859000E7806348FBF73CFE002800F0E680524885
:1085A000FBF7ECFE90F90030012B05D04E48FBF7AD
:1085B000E5FE03789B065BD55A48FBF7DFFE90F992
:1085C0000030002B40F0D6805748FBF7D7FE90F9DB
:1085D0000030002B40F0CE805448FBF7CFFE90F9DE
:1085E0000030BBB15248FBF7D9FEB0F900605148EA
:1085F000FBF7D4FEB0F900300A339E4240F3CB8043
:108600004C48FBF7CBFEB0F9002040F28D339A4284
:1086100040F3C1804848FBF7C1FEB0F90030B3F524
:108620007A7FC0F2BE804448FBF7B8FEB0F9003054
:10863000B3F5FA5F00F3B5804048FCF727F990EDF9
:10864000008A3F48FCF742F9B4EEC08AF1EE10FA16
:1086500000F3AD803B48FCF719F990ED008A3A48E9
:10866000FCF734F9B4EEC08AF1EE10FA00F39F8003
:108670000120FDF7E3FD1B4829466EF063FE04B0C0
:10868000BDEC028B70BD002CF5D003202F49EDE628
:10869000002CF0D003202E49E8E61A4818F000F824
:1086A00000287FF414AF002CE5D003202949DDE633
:1086B000002CE0D003202849D8E6002CDBD0032092
:1086C0002649D3E62046FFF72DFE00287FF442AF6F
:1086D000D1E72046FFF726FE0028CCD046E700BFB2
:1086E000701C0020F5830008D114002060710A0876
:1086F000C81F00207A710A0838130020DC120020FD
:108700000000C842E02200200000FA4300A05A44C2
:1087100000803943D022002090140020901F0020B8
:10872000D0170020CF140020D0140020B614002051
:1087300022150020B8140020A4200020A416002038
:10874000B8170020A8160020BC17002093710A0853
:10875000A9710A08C5710A08E4710A0805720A08B5
:10876000002C88D00320154980E6002C83D00320FC
:1087700013497BE61348FBF701FE06781248FBF726
:10878000FDFD03789E427FF427AF002C3FF473AFCA
:1087900003200E496AE6002C3FF46DAF03200C491C
:1087A00064E6002C3FF467AF03200A495EE6002C24
:1087B0003FF461AF0320084958E600BF1D720A0864
:1087C00038720A08CF140020D014002050720A0812
:1087D00073720A088E720A08A6720A08F8B5714602
:1087E00004465A4876466EF09BFD5948FBF7C6FD95
:1087F00090F900300BB90124A2E05548FBF7BEFD0B
:1088000090F90030012B05D05148FBF7B7FD0378F4
:10881000980712D54F4821F047FF4F4B9FED4F7AF5
:10882000D3ED007AF8EEE77A30EE670AF0EEC07A20
:10883000F4EEC77AF1EE10FA6DDC4548FBF79EFDC9
:1088400090F90030012B05D04148FBF797FD0378E4
:1088500019070CD5424B1878FBF714FE00285FD19E
:108860004048FBF78BFD90F90030032B58D0384877
:10887000FBF784FD90F90030012B05D03448FBF75D
:108880007DFD03789A0612D5374D05F14A00FBF7B6
:1088900075FD90F9003053B105F14C00B5F8AC709E
:1088A000FBF77CFDB0F900303FB2BB423EDC28480C
:1088B000FBF764FD90F90030012B05D02448FBF74D
:1088C0005DFD0378DB0617D5284D29482B6983EA1F
:1088D000E377A7EBE377FBF761FDB0F900309F4248
:1088E00029DC23486D69FBF759FDB0F90030002DF4
:1088F000B8BF6D429D421EDC1E4BD86B03685B689F
:10890000984701287FF477AF1CB11B490320FFF77C
:10891000E9FC002414E0002CFBD003201749F6E703
:108920002046FFF7FFFC0028F3D0A0E7002CF0D092
:1089300003201349EBE7002CEBD003201149E6E7B5
:10894000024831466EF0FEFC2046F8BDDD87000887
:10895000D114002038130020DC1200200000C8428F
:10896000D0220020901400206C14002050250020FC
:10897000A4200020307A0020E1720A0896710A08CB
:10898000C2720A08D4720A0838B5714605460E4804
:1089900074466EF0C5FC032D10D8DFE805F0020523
:1089A000080B0320094907E00320094904E00320DC
:1089B000084901E008490320FFF794FC21460248DA
:1089C000BDE838406EF0BEBC89890008F4720A0820
:1089D00006730A0818730A082A730A0870B57146E4
:1089E00005461A4876466EF09BFCFFF7EBFB184BEA
:1089F0001B78C3F3C00434B9164B174ACC2000FBD4
:108A00000530032107E0DC0908D1124B134ACC20C2
:108A100000FB0530032147F013FF11E0104BD86B2A
:108A200003685B689847012809D10A4B0D4ACC209E
:108A300000FB0530032147F003FF002400E0012480
:108A4000024831466EF07EFC204670BDDD8900088C
:108A5000701C0020E01900203B730A0859730A08B3
:108A6000307A002078730A082DE9F041124E04464E
:108A70000F463046714675466EF052FC94ED007A12
:108A8000D7ED007AB4EE677AF1EE10FA0CBF4FF032
:108A900000084FF0010820463946FBF761FF4146C8
:108AA000204643F01BF82946044630466EF04AFC47
:108AB0002046BDE8F08100BF698A00082DE9F04139
:108AC000104E04460F463046714675466EF028FC3F
:108AD00097F9003094F90080B8EB030818BF4FF005
:108AE000010820463946FCF7D9FD4146204642F0B0
:108AF000F5FF2946044630466EF024FC2046BDE8CA
:108B0000F08100BFBD8A00082DE9F041104E0446F7
:108B10000F463046714675466EF002FCB7F90030DC
:108B2000B4F90080B8EB030818BF4FF001082046E5
:108B30003946FCF743FF4146204642F0CFFF294625
:108B4000044630466EF0FEFB2046BDE8F08100BFD3
:108B5000098B000838B5074D7146284674466EF0FB
:108B6000DFFB054841F0B6FA28462146BDE838400B
:108B70006EF0E8BB558B0008F41E0020F8B51E4EC1
:108B80001E4F2DED028B714607F1420430467546AB
:108B90006EF0C6FB2046FBF701FCB0F900305B42EB
:108BA00007EE903A2046B8EEE78AFBF7F7FBB0F9FC
:108BB0000000134C00EE900AB0EE480AF8EEE00A0E
:108BC00020460FF087FE07F14400FBF7E7FBB0F902
:108BD000000000EE100A2046B8EEC00A0FF0B6FE04
:108BE000204610F089FB304629466EF0ABFBBDEC09
:108BF000028B0120F8BD00BF7D8B00086C140020A3
:108C0000B0200020F8B51E4E1E4F2DED028B714690
:108C100007F14204304675466EF082FB2046FBF7B2
:108C2000BDFBB0F900305B4207EE903A2046B8EE4B
:108C3000E78AFBF7B3FBB0F90000134C00EE900A93
:108C4000B0EE480AF8EEE00A20460FF043FE07F1C6
:108C50004400FBF7A3FBB0F9000000EE100A204629
:108C6000B8EEC00A0FF072FE204610F045FB304609
:108C700029466EF067FBBDEC028B0120F8BD00BFFA
:108C8000058C00086C140020B020002070B5294825
:108C90002DED028B714676466EF042FB264B93F922
:108CA000003033F0020201D000253AE0234CB4F941
:108CB000AE30002BF8DD2248FBF74CFC05460028BF
:108CC000F2D0204B1B7803F0A003202BECD104F151
:108CD0004200FBF763FBB0F900305B4207EE903ACD
:108CE00004F14200B8EEE78AFBF758FBB0F9000048
:108CF00000EE900AB0EE480AF8EEE00A12480FF0D3
:108D0000E9FD04F14400FBF749FBB0F9000000EE77
:108D1000100A0D48B8EEC00A0FF018FE0A4810F00D
:108D2000EBFA044831466EF00DFBBDEC028B284691
:108D300070BD00BF8D8C0008D02200206C14002074
:108D4000301E0020701C0020B020002038B5714675
:108D50002DED028B0546264874466EF0E1FAFBF7CE
:108D600035FD08B92DB93BE0224821F041FD00282E
:108D7000F8D0214B214800221A70FBF7C5FF20488C
:108D80000FF0FAFE1D48FBF7DBFF1D480FF0CCFE8D
:108D90001C48FBF703FBB0F900301A485B4207EEB2
:108DA000903AB8EEE78AFBF7F9FAB0F9000000EE66
:108DB000900AB0EE480AF8EEE00A11480FF08AFD7A
:108DC0001148FBF7EBFAB0F9000000EE100A0C486E
:108DD000B8EEC00A0FF0BAFD0C4811F013FF0125E0
:108DE000034821466EF0AEFABDEC028B284638BD32
:108DF0004D8D000838130020DE180020981C00203C
:108E0000B0200020AE140020B0140020082500205F
:108E100070B571462DED028B06461E4875466EF004
:108E20007FFAFBF7D3FC044600B956B31A4812F098
:108E3000D3F81A48FBF7B2FAB0F9003017485B4292
:108E400007EE903AB8EEE78AFBF7A8FAB0F900000F
:108E500000EE900AB0EE480AF8EEE00A10480FF073
:108E600039FD1048FBF79AFAB0F9000000EE100A3D
:108E70000B48B8EEC00A0FF069FD094810F03CFA43
:108E80000124044829466EF05DFABDEC028B2046B1
:108E900070BD00BF118E0008981C0020AE14002089
:108EA000B0200020B014002070B571462DED028B6B
:108EB0000646394875466EF033FAFBF787FC0446E0
:108EC00008B9002E60D03548354CFBF767FAB0F989
:108ED000003032485B4207EE903AB8EEE78AFBF783
:108EE0005DFAB0F9000000EE900AB0EE480AF8EE24
:108EF000E00A2C480FF0EEFC2B48FBF74FFAB0F9D4
:108F0000000000EE100A2748B8EEC00A0FF01EFD60
:108F1000244810F0F1F9002324486380A380FBF774
:108F20003DFAB0F90000DFED227A224B06EE900AFE
:108F3000F8EEE66AB2EE0E7AE6EE877A1B789FEDDF
:108F40001E7A67EE877ADA09C4ED027A237809D0AF
:108F5000042262F3020362F3C5031848237012F07F
:108F60003BF804E062F3020362F3C5032370637805
:108F7000134843F001036370FBF7A0FF0023A385B0
:108F8000E38584F831300124034829466EF0DAF98C
:108F9000BDEC028B204670BDA98E0008AE140020E7
:108FA00074120020B0200020B0140020A214002071
:108FB0000000BE42701C00200AD7233C981C0020F1
:108FC0009812002010B52DED028B1F4884B0714619
:108FD00074466EF0A5F9FBF7F9FB1C4B187058B1FD
:108FE00001A8FBF711FA1A4801A912F063F8184812
:108FF00001A9012211F09EFF1548FBF7BDFE1448A0
:10900000B0EE408AFBF7D4FE1248F0EE400AB0EE14
:10901000480A0FF05FFC0E48FBF7E6FE0D480FF024
:1090200095FC0C4810F068F9FBF7CCFD0A4B186072
:109030000A4B0548002221461A706EF083F9012080
:1090400004B0BDEC028B10BDC58F0008F6180020DF
:10905000981C0020B020002020130020B8220020FF
:10906000F8B5194D2DED028B0646B0EE408A284624
:109070000F46714674466EF053F9B0EE480ADFEDC4
:10908000130AB7EE001A23F0EBF928462146B0EE9A
:10909000408A6EF057F906EE907AB7EE007A37EE16
:1090A000487AF8EEE67A06EE906A67EE277AB8EE2E
:1090B000E67AE8EE077ABDEC028BFDEEE77A17EE72
:1090C000900A00B2F8BD00BF6190000800000000E7
:1090D00030B52DED048B044683B048487146754683
:1090E0006EF01EF9002C5AD04548FBF757F9B0F93D
:1090F0000030B3F5FA7F52D000214FF47A72204647
:1091000023F034F904463E48FBF748F94FF49671D2
:109110004FF42F72B0F9000023F028F902A921F8CA
:10912000020D3748FBF768FFB4F5FA7F40DA35489F
:10913000FBF734F9B0F9000008EE100A3148FBF7EC
:109140002DF9B0F900302E48E41A06EE904AB8EE38
:10915000E69AFBF723F9B0F900402A48FBF71EF91D
:10916000B0F900302748E31A08EE903AFBF716F9F9
:10917000B0F90030C3F5FA73F8EEE88A07EE103A5A
:1091800068EE898AF8EEC77AB8EEC88AC8EEA78A70
:1091900038EE888ABDEEC88A18EE104AA4B2174885
:1091A00029466EF0CFF820B203B0BDEC048B30BD81
:1091B00013481FD0FBF7F2F8B0F9000008EE100AD0
:1091C0000F48FBF7EBF8A4F5FA74B0F90030DFEDC7
:1091D0000E7A07EE104AC3F57A73B8EEC77A06EE38
:1091E000903A27EE277AB8EEC88AF8EEE67AA7EE2C
:1091F000278ACFE7FBF7D2F80488D0E7D1900008A0
:10920000BC140020B21400206F12033B2DE9F04B78
:1092100080460E46304871461D46744617466EF02D
:109220007FF840462D4941F2941223F09FF841F215
:1092300094122A498046304623F098F8064628487A
:10924000FBF7ACF8B0F9002041F294139A4203D135
:10925000A7F800802E8039E02148DFF88CB0DFF8D5
:109260008C90FBF79BF8BBF90030B0F900209A42D4
:1092700014D01B48FBF792F803881948ABF800306C
:10928000FBF78CF8B0F900009FED167A07EE900A14
:10929000F8EEE77A67EE877AC9ED007A06EE908AF3
:1092A000D9ED007AB8EEE67A06EE906A27EE277AD4
:1092B000BDEEC77A17EE103AB8EEE67A3B8067EE5D
:1092C000277AFDEEE77A17EE903A2B802146024886
:1092D000BDE8F04B6EF036B80D9200086CEEFFFF63
:1092E000A420002053046939DC180020100D002050
:1092F00070B5714604461C4876466EF011F81B4B5B
:109300001D78C5F340053DBB204629464FF47A72CF
:1093100023F02CF8B0F5C87F044607DA1448FBF7B1
:109320003DF8B0F90030A4F5C87009E0B0F5167F3B
:109330000DDD0F48FBF732F8B0F90030A4F51670D8
:1093400058434FF4C87390FBF3F080B200E0284616
:10935000084B0446188000E00024034831466DF0B5
:10936000F1FF20B270BD00BFF1920008181F00206D
:10937000AE1400205620002070B52DED048B04465D
:1093800082B03A48714675466DF0CAFF002C63DD25
:1093900000214FF47A72204622F0E8FF0446344858
:1093A000FAF7FCFF4FF42F724FF49671B0F90000FA
:1093B00022F0DCFF02A921F8020D2D48FBF71CFE6C
:1093C0002C48FAF7EBFF0688FCF7C0FA36B2864263
:1093D00004DD2848FAF7E2FF04883EE0B4F5167F82
:1093E00036DA2448FAF7DAFFB0F9000008EE100A7E
:1093F0002048FAF7D3FFB0F90030E41A07EE104A1C
:10940000B8EEC79AFCF7A2FA04461A48FAF7C6FF64
:10941000B0F900301748E31A08EE903AFAF7BEFFA9
:10942000B0F90030C3F51673F8EEE88A07EE103A8B
:1094300068EE898AF8EEC77AB8EEC88AC8EEA78ABD
:1094400038EE888ABDEEC88A18EE104AA4B204E04D
:10945000FCF77CFA044600E00024044829466DF03D
:1094600071FF20B202B0BDEC048B70BD799300088F
:10947000BC140020B2140020F8B571462DED028B0B
:1094800004462848B0EE408A75466DF049FF2648EC
:10949000FAF784FFB0F90020DFED246A9FED247A0B
:1094A000042392FBF3F39BB21AB2002A214AB5EED1
:1094B000C08AD2ED027A2288D8BF0123F1EE10FAD9
:1094C00067EEC87AACBF38EE268A36EEC88A9BB201
:1094D00087EE087AD11A1A4409B212B247EE277AF7
:1094E000FDEEE77A17EE900A00B222F03FFF064643
:1094F00020801148FAF752FF07880F48FAF74EFF0D
:109500007F42BFB239B2B0F90020304622F02EFFC0
:10951000BDEC028B208029460248BDE8F8406DF082
:1095200011BF00BF79940008A2140020000070420F
:109530000000FA4374120020A41400202DE9F04129
:109540002148224D2DED028B714674466DF0E8FEE8
:109550001F48FBF79BF9D0ED007AF5EEC07AF1EEEB
:1095600010FA02D800232B7025E01A4E1A483768EB
:109570003B68D3F80880FAF701FF01783846C04706
:10958000306803685B6998471148B0EE408AFBF782
:109590007DF9DFED127A28EE278AD0ED007A88EE89
:1095A000278A0021FF22BDEEC88A18EE100A00B2F9
:1095B00022F0DCFE2870BDEC028B21460248BDE89B
:1095C000F0416DF0BFBE00BF3D9500088024002033
:1095D0009C140020E01800209A14002000007F4313
:1095E00038B5074D7146284674466DF099FE05481A
:1095F00043F0B2FA28462146BDE838406DF0A2BEDD
:10960000E1950008E012002038B5054671460D4886
:1096100074466DF085FED5F8065007EE905AF5EECB
:10962000C07AF1EE10FA06DD9FED070A074827EE33
:10963000800A11F04BFC21460248BDE838406DF02D
:1096400081BE00BF099600080000C842981C002097
:1096500038B51C48714675466DF062FEFDF7A8FBF3
:109660004FF47A70FCF7F6F9174C18492068036834
:109670001B6A98470021164843F00EF840F6B830B0
:10968000FCF7E8F9206803689B689847002812DC1B
:109690002068104903681B6A984700210C4843F072
:1096A00031F840F6B830FCF7D5F9206803689B68BC
:1096B00098470028D8DD034829466DF043FE002076
:1096C00038BD00BF51960008241F002092730A087D
:1096D000D81200209C730A08F8B5274D27482DEDB5
:1096E000028B714676466DF01BFE2B78002B3BD02B
:1096F000234C244F9FED248A013B2B70637843F069
:1097000001036370B7F96E3000EE103AB8EEC00A8C
:1097100020EE080A22F05AFEB7F98E70F0EE408A69
:1097200000EE107AB8EEC00A20EE080A22F04EFED3
:1097300016480121B0EE408AFBF7D6F92978134884
:10974000D1F10101B0EE680AF0EE480A38BF0021FD
:1097500013F0B0F92D783DB90C482946FBF7C4F950
:10976000637865F300036370BDEC028B31460348F8
:10977000BDE8F8406DF0E6BD8C1C0020D9960008CD
:10978000E87B00206C1400206F12833950250020E4
:1097900038B50C48714674466DF0C2FD0A4821F098
:1097A00027F840B10848094D21F05CF8A860064848
:1097B00021F03AF8686021460248BDE838406DF073
:1097C000C1BD00BF9197000838130020D1220020AE
:1097D00070B50B4D06462DED028B7146284674463A
:1097E0006DF09EFDF0680FF023FA2846B0EE408A37
:1097F00021466DF0A7FDB0EE480ABDEC028B70BDAE
:10980000D197000838B51148114C714675466DF076
:1098100087FD104B1B7823F00202052A03D10E4866
:10982000FFF7D6FF04E0032B07D10B4811F06EFCC5
:10983000BCEEC00A84ED000A01E000232360294643
:109840000248BDE838406DF07DBD00BF05980008B6
:10985000F8240020D0220020981C002038B5714642
:109860000C4875466DF05CFDFFF7CCFF0A4B0B49C9
:109870001A680968074822EAE27291424FF0000430
:1098800038BF1C60294638BF01246DF05BFD2046BF
:1098900038BD00BF5D980008841F0020F824002018
:1098A00038B50F480F4C714675466DF039FD0E4BBB
:1098B0001B7823F00202052A03D10C4812F05EFA4D
:1098C00004E0032B04D1094812F07EFA206001E085
:1098D0000023236029460248BDE838406DF032BDC0
:1098E000A1980008CC170020D0220020981C00204E
:1098F00010B50948714674466DF012FD074B93F997
:109900000030032B02D1064826F05EFB21460248B8
:10991000BDE810406DF016BDF1980008D02200207F
:10992000A01D002038B5084D7146284674466DF0DC
:10993000F7FC0648064944F08BFE28462146BDE860
:1099400038406DF0FFBC00BF25990008F8180020D2
:10995000C81F002070B50F4D8AB0714606462846D4
:1099600074466DF0DDFC28226846002167F048FA55
:109970006946304625F022FE0748FBF7AFF96A46F4
:109980000146064844F0FAF9284621466DF0DAFC13
:109990000AB070BD55990008A01D0020F8180020DD
:1099A00070B50B48714675466DF0BAFC2824094E17
:1099B0000949306803685B699847013CF7D1306812
:1099C00049F02CF829460248BDE870406DF0BABC59
:1099D000A1990008241F00207CF00A0838B57146C0
:1099E00004460A4875466DF09BFC002C07DD084BC9
:1099F00008491868013C24B249F05CF8F5E72946AB
:109A00000248BDE838406DF09DBC00BFDD990008FC
:109A1000241F00200E910A0838B50D4D71462846C6
:109A200074466DF07DFC0B4B0B49186803681B6A8C
:109A30009847FFF7B5FFFBF795FCFBF72FFD0220DA
:109A4000FFF7CCFF28462146BDE838406DF07ABCD0
:109A5000199A0008241F0020A7730A0838B50C4D76
:109A60007146284674466DF05BFC0A4B0A4918683B
:109A7000036878221B6A9847FFF792FF0220FFF7DE
:109A8000ADFF28462146BDE838406DF05BBC00BF05
:109A90005D9A0008241F0020AC730A0838B50C4DED
:109AA0007146284674466DF03BFC0A4B0A4918681B
:109AB00003681B6A9847FFF773FFFDF735FA02202A
:109AC000FFF78CFF28462146BDE838406DF03ABCD0
:109AD0009D9A0008241F0020B8730A0870B50E4D27
