:020000040800F2
:10400000F4200120E5300708213807082138070887
:104010002138070821380708213807082138070800
:1040200021380708213807082138070821380708F0
:1040300021380708213807082138070821380708E0
:1040400021380708213807082138070821380708D0
:1040500021380708213807082138070821380708C0
:1040600021380708213807082138070821380708B0
:1040700021380708213807082138070821380708A0
:104080002138070821380708213807082138070890
:104090002138070821380708213807082138070880
:1040A0002138070821380708213807082138070870
:1040B0002138070821380708213807082138070860
:1040C0002138070821380708213807082138070850
:1040D0002138070821380708213807082138070840
:1040E0002138070821380708213807082138070830
:1040F0002138070821380708213807082138070820
:10410000213807082138070821380708213807080F
:1041100021380708213807082138070821380708FF
:1041200021380708213807082138070821380708EF
:1041300021380708213807082138070821380708DF
:1041400021380708213807082138070821380708CF
:1041500021380708213807082138070821380708BF
:1041600021380708213807082138070821380708AF
:10417000213807082138070821380708213807089F
:10418000213807082138070838B5064D74462846F7
:1041900071466FF005FE28462146BDE838406FF0B5
:1041A00011BE00BF8941000870B5074D0646714633
:1041B000284674466FF0F4FD96F881612846214642
:1041C0006FF000FE304670BDA941000870B5064D85
:1041D00074467146064628466FF0E2FD28462146A1
:1041E0006FF0F0FD304670BDCD41000838B5064D8A
:1041F0007446714628466FF0D3FD284621466FF07D
:10420000E1FD002038BD00BFED410008F8B5084DC4
:10421000064674460F46284671466FF0C1FD86F883
:10422000E17028462146BDE8F8406FF0CBBD00BFE5
:104230000D420008F8B5084D064674460F4628465C
:1042400071466FF0ADFD86F8807128462146BDE8C5
:10425000F8406FF0B7BD00BF35420008F8B504461E
:1042600071460E4804F1320675466FF099FD3046EE
:10427000676CFFF7ABFF01783846FFF7C7FFA46B09
:1042800034B13046FFF7A2FF01782046FFF7D2FF96
:1042900029460248BDE8F8406FF094BD5D42000831
:1042A00070B5084D71460646284674466FF078FD95
:1042B0003046FFF7D3FF28462146BDE870406FF037
:1042C00081BD00BFA142000870B5064D744671461D
:1042D000064628466FF064FD284621466FF072FDC1
:1042E000304670BDC942000870B5064D744671462F
:1042F000064628466FF054FD284621466FF062FDC1
:10430000304670BDE9420008F8B5084D74460646CF
:104310000F46284671466FF043FD284621466FF050
:1043200051FD0C2303FB07600430F8BD094300086E
:1043300070B50B4E04467146304675466FF030FD41
:1043400023682046DB6C984701462046FFF7DCFFD8
:104350002946044630466FF035FD204670BD00BF4B
:104360003143000870B50C4D2DED028B71460646A9
:10437000284674466FF014FD96ED058ADFED077A46
:1043800028EE278A284621466FF01CFDB0EE480A29
:10439000BDEC028B70BD00BF654300080000C84241
:1043A000F8B50C4D2DED028B06460F46284671469A
:1043B00074466FF0F5FC382303FB076696ED0D8A13
:1043C000284621466FF0FEFCB0EE480ABDEC028B99
:1043D000F8BD00BFA143000870B50D4D06462DED98
:1043E000028B7146284674466FF0DAFC96F89410FA
:1043F000304601F00301FFF7D3FF2846B0EE408AB4
:1044000021466FF0DFFCB0EE480ABDEC028B70BDB8
:10441000D943000870B5084D0646714628467446D3
:104420006FF0BEFC96F836602846C6F3401621466B
:104430006FF0C8FC304670BD1544000870B5064DDD
:1044400074467146064628466FF0AAFC2846214667
:104450006FF0B8FC304670BD3D44000870B5074DA4
:1044600006467146284674466FF09AFCB67A28468E
:1044700021466FF0A7FC304670BD00BF5D440008C8
:1044800070B5084D71460646284674466FF088FCA4
:104490003046FFF719FF0678214628466FF092FC58
:1044A000304670BD8144000870B5094D71462846FC
:1044B00074466FF075FC074B986B03689B689847D0
:1044C0002146064628466FF07DFC304670BD00BF91
:1044D000A944000874DB002038B50A4D714628460F
:1044E00074466FF05DFC084A00231380074A13608E
:1044F000FFF7DAFF064B186021462846BDE8384032
:104500006FF060BCD94400081A5E0020F061002002
:1045100064C6002070B50B4D7146064628467446A9
:104520006FF03EFC06F10900FFF7CEFE90F9006047
:10453000003618BF0126284621466FF043FC30465E
:1045400070BD00BF15450008F8B5094D0F46064679
:104550007146284674466FF023FC382303FB076638
:104560002846767F21466FF02DFC3046F8BD00BF0F
:104570004945000870B50A4D0646714628467446FE
:104580006FF00EFC96F89410304601F00301FFF72F
:10459000DBFF2146064628466FF014FC304670BD0E
:1045A0007545000870B50A4D2DED028B7146064623
:1045B000284674466FF0F4FB96ED058A284621469E
:1045C0006FF000FCB0EE480ABDEC028B70BD00BF7E
:1045D000A545000870B5064D744671460646284646
:1045E0006FF0DEFB284621466FF0ECFB304670BDD5
:1045F000D5450008F8B5094D744606460F462846CD
:1046000071466FF0CDFB284621466FF0DBFB382367
:1046100007FB0333F0180830F8BD00BFF54500086C
:1046200070B50A4D06467146284674466FF0B8FBD1
:1046300096F89410304601F00301FFF7DBFF2146A6
:10464000064628466FF0BEFB304670BD2146000886
:10465000F8B5084E0F4604467146304675466FF071
:104660009FFB3B882380304629466FF0ABFB2046FA
:10467000F8BD00BF5146000870B5074D06467146AB
:10468000284674466FF08CFB3678284621466FF03A
:1046900099FB304670BD00BF7946000838B5074D1C
:1046A0007146284674466FF07BFB054B00225A602A
:1046B00028462146BDE838406FF084BB9D4600087F
:1046C000ECC6002038B51648714674466FF068FB9A
:1046D0001448FFF7B3FE0368002B0ADA124B5A782E
:1046E0009D78DB7842EA052545EA034545F3170541
:1046F0000FE00C48FFF7A2FE0C4B1B685A789D7820
:10470000DB7842EA052545EA0345036845F31705CA
:104710001D44034821466FF055FB284638BD00BFB5
:10472000C5460008A0190020F4160020D86100201A
:1047300038B5714605460A4874466FF031FB0948A2
:10474000FFF7C2FD90F900301BB12B7843F008034E
:104750002B7021460248BDE838406FF033BB00BFE4
:1047600031470008DD19002070B5074D74467146C9
:10477000064628466FF014FB284621466FF022FBC0
:1047800006F1180070BD00BF6947000870B5074DFD
:1047900006467146284674466FF002FB7688284626
:1047A00021466FF00FFB304670BD00BF8D470008FB
:1047B00038B50C48714674466FF0F2FA0A48FFF7B4
:1047C000E5FFB0F5006F05D20748FFF7DFFFC0F344
:1047D000C70500E0FF25034821466FF0F3FA28469D
:1047E00038BD00BFB147000864C3002070B5084E53
:1047F00004467146304675466FF0D2FA00233046C3
:104800006360236029466FF0DDFA204670BD00BF6B
:10481000ED4700082DE9F041084E754604469046E4
:104820000F46304671466FF0BBFA304684E880018F
:1048300029466FF0C7FA2046BDE8F0811548000808
:10484000F8B5084D0F4606467146284674466FF087
:10485000A7FA3B78337028462146BDE8F8406FF050
:10486000B1BA00BF4148000838B505462DED028BAE
:104870000D48714674466FF093FAE86CFFF77AFEC4
:10488000012805D9E86CFFF7A7FDB0EE408A01E0EA
:104890009FED068A044821466FF094FAB0EE480A6C
:1048A000BDEC028B38BD00BF694800080000000065
:1048B00038B51948194D2DED028B714674466FF0CD
:1048C0006FFA174B986B03689B689847AB6841F287
:1048D0008832C01A904202D99FED128A12E0124823
:1048E000FFF7F2FC90F90030002BF5D00F4B1B784E
:1048F0000A2BF1D10E4B1B78033BDBB2012BEBD81B
:1049000095ED018A044821466FF05CFAB0EE480A42
:10491000BDEC028B38BD00BFB14800083CC8002088
:1049200074DB002000000000E319002006110020C5
:10493000FC10002038B5174D2DED028B714628462E
:1049400074466FF02DFA144BDFED147A99785A788B
:10495000DB7842EA012242EA0342114B1B68987855
:104960005978DB7841EA002141EA034342F3170218
:1049700043F31703D31A08EE103AB8EEC88A284654
:1049800028EE278A21466FF01DFAB0EE480ABDECEA
:10499000028B38BD35490008F41600200AD7233CA5
:1049A000D861002038B5094D7146284674466FF02D
:1049B000F7F90748074903680C225B6998472846BE
:1049C0002146BDE838406FF0FDB900BFA549000899
:1049D000ACC10020245E002070B50A4D2DED028B85
:1049E0000646B0EE408A2846714674466FF0D8F904
:1049F00086ED078ABDEC028B28462146BDE8704053
:104A00006FF0E0B9D949000810B571460E487446F8
:104A10006FF0C6F90D48FFF7DDFDB0F900300C4826
:104A2000002B0C4BB4BFFF2201221A730A4A036801
:104A30001360436853608368936021460248BDE871
:104A400010406FF0BFB900BF094A000842190020AA
:104A5000F416002000170020785E002038B5084DBD
:104A60007146284674466FF09BF9064B00229A6007
:104A70005A6028462146BDE838406FF0A3B900BF10
:104A80005D4A00080017002070B50A4D2DED028B1D
:104A900071460646284674466FF082F996ED078AFD
:104AA000284621466FF08EF9B0EE480ABDEC028B25
:104AB00070BD00BF894A000870B50A4D2DED028B0C
:104AC00071460646284674466FF06AF996ED098AE3
:104AD000284621466FF076F9B0EE480ABDEC028B0D
:104AE00070BD00BFB94A000870B50A4D2DED028BAC
:104AF00071460646284674466FF052F996ED0A8ACA
:104B0000284621466FF05EF9B0EE480ABDEC028BF4
:104B100070BD00BFE94A000870B5084D71460646F1
:104B2000284674466FF03CF93046FFF7CDFB067817
:104B3000214628466FF046F9304670BD194B0008F3
:104B400070B5084D71460646284674466FF028F940
:104B5000701CFFF7B9FB0678214628466FF032F942
:104B6000304670BD414B000870B5084D7146064691
:104B7000284674466FF014F9B01CFFF7A5FB0678C1
:104B8000214628466FF01EF9304670BD694B00087B
:104B900070B5084D71460646284674466FF000F918
:104BA000F01CFFF791FB0678214628466FF00AF9C2
:104BB000304670BD914B0008F8B50F46074D0646CC
:104BC00006EBC7067146284674466FF0E9F8368D45
:104BD000284621466FF0F6F83046F8BDB94B00087C
:104BE00070B50A4D06467146284674466FF0D8F8EF
:104BF00096F84010304601F00301FFF7DDFF214633
:104C0000064628466FF0DEF8304670BDE14B0008DE
:104C1000F8B50F46074D064606EBC706714628460F
:104C200074466FF0BDF8768D284621466FF0CAF8BD
:104C30003046F8BD114C000870B50A4D0646714665
:104C4000284674466FF0ACF896F84010304601F0F4
:104C50000301FFF7DDFF2146064628466FF0B2F854
:104C6000304670BD394C0008F8B50A4D06460F466F
:104C70002846714674466FF093F806EB47002230E1
:104C8000FFF7A8FC0688214628466FF09BF830B253
:104C9000F8BD00BF694C000870B50A4D0646714664
:104CA000284674466FF07CF896F84010304601F0C4
:104CB0000301FFF7D9FF2146064628466FF082F828
:104CC000304670BD994C000870B504460E460B483E
:104CD000714675466FF064F894F840300748C3F3A6
:104CE00081039E42B6BF04EBC604002494F82C4016
:104CF00029466FF067F8204670BD00BFC94C000818
:104D000070B50A4D06467146284674466FF048F85D
:104D100096F84010304601F00301FFF7D5FF214619
:104D2000064628466FF04EF8304670BD014D00082B
:104D300038B5074D7146284674466FF031F805487E
:104D4000FFF722FA28462146BDE838406FF03AB80E
:104D5000314D000810C1002038B571462DED028B91
:104D600004460C487546B0EE408A6FF019F804F519
:104D7000A470FFF7A9FA90F900300648022B08BF8B
:104D800084ED5F8ABDEC028B2946BDE838406FF0A8
:104D900019B800BF594D000870B5074D0646714659
:104DA000284674466EF0FCFF044B1E6028462146E0
:104DB000BDE870406FF006B8994D000824DD002072
:104DC00038B50848714675466EF0EAFF064B18681C
:104DD00008B1847800E00446024829466EF0F2FFEC
:104DE000204638BDC14D00087461002038B57146B9
:104DF0000546094874466EF0D3FF084B1A682A44EA
:104E00001A601A7A12B1DA681544DD602146024848
:104E1000BDE838406EF0D6BFED4D0008ECC600206E
:104E200070B5074D74467146064628466EF0B8FFC9
:104E3000284621466EF0C6FF06F1290070BD00BF6E
:104E4000214E0008F8B50E4D7146284674466EF0A6
:104E5000A7FF0C4B0C485A789E78DB7842EA06266E
:104E600046EA0346FFF7B6FB21460788284646F385
:104E700017066EF0A7FF4FF69C7017FB0060F8BD99
:104E8000454E0008F41600207A19002038B50D4868
:104E9000714674466EF084FF0B48FFF715FA90F9DF
:104EA000003043B10948FFF70FFA90F90030042BA6
:104EB00001DD012500E00025024821466EF082FF59
:104EC000284638BD8D4E00084419002045190020A1
:104ED00070B5074D7146284674466EF061FF054B6C
:104EE0001E78284621466EF06DFF304670BD00BF2B
:104EF000D14E0008FD1000202DE9F04171462A48EE
:104F0000F0466EF04DFF2948FFF764FB04882848FF
:104F1000FFF760FBB0F9003024B2A34201DB0026AA
:104F20003AE02348FFF756FBB0F90030002BF6D0EB
:104F3000FFF788FF04461E48FFF74CFB0646204655
:104F40009BF00CFE0446B6F900000D469BF006FEF1
:104F50000022184B9BF068FE174B1B6806465A78D8
:104F60009878DB7842EA002040EA034040F31700DB
:104F70000F469BF0F3FD02460B46304639469BF048
:104F8000A1FC02460B46204629464FF001069CF044
:104F9000BDF800B90646F6B2034841466EF012FF6E
:104FA0003046BDE8F08100BFF94E00084A190020E4
:104FB0004819002000005940D86100202DE9F04137
:104FC00071462A48F0466EF0EBFE2948FFF702FBD7
:104FD00004882848FFF7FEFAB0F9003024B2A34253
:104FE00001DB00263AE02248FFF7F4FAB0F900307E
:104FF000002BF6D0FFF726FF04461D48FFF7EAFA1C
:10500000064620469BF0AAFD0446B6F900000D4670
:105010009BF0A4FD0022184B9BF006FE174B1B686B
:1050200006465A789878DB7842EA002040EA034046
:1050300040F317000F469BF091FD02460B463046A9
:1050400039469BF03FFC02460B46204629464FF06E
:1050500001069CF079F800B90646F6B203484146CD
:105060006EF0B0FE3046BDE8F08100BFBD4F0008D5
:105070004A1900204819002000005940D86100203A
:1050800070B50A4D2DED028B7146064628467446D2
:105090006EF086FE96ED048A284621466EF092FE5A
:1050A000B0EE480ABDEC028B70BD00BF8150000815
:1050B00038B571462DED028B05460D4874466EF0ED
:1050C0006FFE95ED060ADFED0B7A0948B4EEE70AAC
:1050D000F1EE10FAD4BFB0EE678AB0EE408A2146F6
:1050E0006EF070FEB0EE480ABDEC028B38BD00BF1A
:1050F000B150000800000000F8B571462DED028B9C
:105100003B483C4C3C4E75466EF04AFE3B48FFF730
:1051100029F93B48B0EE408AFFF790F90368236015
:105120003378063BDBB2012B18D83648FFF752FA2A
:10513000B0F900703448FFF74DFAB0F9003032484A
:10514000FF1A324B1B68B3F902305F43FFF742FA94
:10515000B0F90020642302FB037727603378052B26
:1051600015D92B48FFF76AF90368002B0FDD294B8F
:105170002268D3ED007AF8EEE77A78EE277AFDEE32
:10518000E77A17EE903A934201DD1A4A13603378BA
:10519000092B07D9204BB3F90030002B02DD226820
:1051A0001344236017482668FFF714FA0388642421
:1051B00013FB04F39E4207DD1248FFF70BFA038846
:1051C00013FB04F40B4B1C60144803689B6998475D
:1051D000DFED137A134B064890EE278A294683EDBC
:1051E000008ABDEC028BBDE8F8406EF0EBBD00BF5D
:1051F000F9500008D45D00200611002000C70020EF
:105200009C1900204EC300204CC30020F016002043
:10521000AC190020DCC6002020170020ACC1002003
:105220000000C8424CC8002070B5064D7446714657
:10523000064628466EF0B4FD284621466EF0C2FDB3
:10524000304670BD29520008F8B50A4D06460F4693
:105250002846714674466EF0A3FD0C2303FB0760DD
:105260002C30FFF7E1FF2146064628466EF0AAFDE6
:105270003046F8BD49520008F8B5084D7446064658
:105280000F46284671466EF08BFD284621466EF08B
:1052900099FD0C2303FB07601030F8BD795200081C
:1052A000F8B5094D06460F462846714674466EF01D
:1052B00077FD3046B763FEF7D1FF28462146BDE8AB
:1052C000F8406EF07FBD00BFA152000810B50A483B
:1052D000714674466EF064FD0848FEF777FF037868
:1052E000012B02D1064B074A1A6021460248BDE84D
:1052F00010406EF067BD00BFCD5200083419002089
:1053000030110020985E002070B5084D06467146A9
:10531000284674466EF044FD96F83660284606F03E
:10532000010621466EF04EFD304670BD095300085F
:1053300070B5074D74467146064628466EF030FD3E
:10534000284621466EF03EFD06F19C0070BD00BF70
:105350003153000870B5084E044671463046754614
:105360006EF01EFD00233046A36063602360294673
:105370006EF028FD204670BD55530008F8B50A4D63
:105380000F4606467146284674466EF009FD3823DE
:1053900003FB0766284696F84C60214606F0010696
:1053A0006EF010FD3046F8BD7D53000870B50A4D13
:1053B00006467146284674466EF0F2FC96F8941044
:1053C000304601F00301FFF7D9FF21460646284683
:1053D0006EF0F8FC304670BDAD53000838B571462C
:1053E0000B4875466EF0DCFCFFF75EF8094B1B6856
:1053F000C01A094B1A680024904288BF1C600448F8
:1054000088BF012429466EF0DDFC204638BD00BF70
:10541000DD530008241700201C17002038B5714602
:105420000B4875466EF0BCFC0A4B0B491A680968BC
:10543000074822EAE27291424FF0000438BF1C6034
:10544000294638BF01246EF0BDFC204638BD00BFA0
:105450001D5400081C170020E4C6002038B5174C66
:105460001748714675466EF09BFCB4F90030002B6E
:1054700004DAB4F90030002B12DC06E0FFF7E2FC9E
:10548000104B1B68984206DAF3E7FFF7DBFC0D4B85
:105490001B68984204DC0B4B00221A60012407E0D1
:1054A000B4F900000A2390FBF3F0FFF79FFC0024FF
:1054B000034829466EF086FC204638BDB0610020C6
:1054C0005D5400081C170020F8B5114D71462846A0
:1054D00074466EF065FC0F4B0F481E6833685F6AB8
:1054E000FFF778F8B0F900300C4983EAE372A2EBD9
:1054F000E37200EE102A0A4B304693F90C20B8EE06
:10550000C00AB84728462146BDE8F8406EF05ABCAC
:10551000C95400083011002042190020785E002094
:105520000017002038B5074D7446714628466EF0C6
:1055300037FCFFF7C9FF284621466EF043FC0020E8
:1055400038BD00BF25550008F8B5094D0F46064681
:105550007146284674466EF023FC382303FB076629
:105560002846B66B21466EF02DFC3046F8BD00BFD4
:105570004955000870B50A4D0646714628467446DE
:105580006EF00EFC96F89410304601F00301FFF720
:10559000DBFF2146064628466EF014FC304670BDFF
:1055A00075550008F8B50F46074D064606EBC706C9
:1055B0007146284674466EF0F3FB3669284621464C
:1055C0006EF000FC3046F8BDA555000870B50A4DD8
:1055D00006467146284674466EF0E2FB96F8941033
:1055E000304601F00301FFF7DDFF2146064628465D
:1055F0006EF0E8FB304670BDCD550008F8B5084D9B
:10560000744606460F46284671466EF0C9FB28468A
:1056100021466EF0D7FB382303FB07602630F8BD28
:10562000FD55000870B50A4D064671462846744679
:105630006EF0B6FB96F89410304601F00301FFF7C8
:10564000DDFF2146064628466EF0BCFB304670BDA5
:105650002556000870B50C4E2DED028B0446F0EE79
:10566000408AB0EE608A7546714630466EF098FB0F
:10567000C4ED008A84ED018A304629466EF0A2FB13
:10568000BDEC028B204670BD5556000870B5084D24
:1056900006467146284674466EF082FB96F8946082
:1056A0002846C6F3810621466EF08CFB304670BD5D
:1056B0008D56000870B57146214875466EF070FB36
:1056C000204B21481C6B2368DE68FEF7FDFD017846
:1056D00001392046C9B2B0476FF46172821892B2A4
:1056E00040F212539A421BD8A0F2CF439BB2812BB7
:1056F00018D96FF4AA63C3189BB2812B14D9A0F2F6
:10570000D3539BB2812B11D9A0F255639BB2802B4E
:105710000ED940F2D564A0428CBF0524002408E0D5
:10572000FF2406E0012404E0022402E0032400E058
:105730000424034829466EF045FB204670BD00BF97
:10574000B556000874DB00207019002070B5124DAA
:105750007146284674466EF023FB104B5A789E78AB
:10576000DB7842EA062646EA03460D4B1B68997829
:105770005A78DB7842EA012242EA034343F31703F3
:1057800046F31706F61A2846002EB8BF7642214681
:105790006EF018FB304670BD4D570008F41600201F
:1057A000D861002038B571460446154875466EF03C
:1057B000F7FA04F10900FEF787FD90F900300BB904
:1057C000002417E004F10800FEF77EFD90F9003098
:1057D000002BF5D02046FEF787FDD0ED007AF0EEE5
:1057E000E77AF5EEC07AF1EE10FAE9DD94F82040A0
:1057F00004F00104024829466EF0E4FA204638BD60
:10580000A557000838B51048714675466EF0C8FABD
:105810000E48FEF759FD90F9003023B10C4B1B7870
:105820000BB1012409E00B4B1B780A2B04D10A4B66
:105830001C78C4F3800404B90024034829466EF0A0
:10584000C1FA204638BD00BF05580008C019002025
:10585000AC1B0020061100201411002070B5064D6D
:1058600074467146064628466EF09AFA2846214646
:105870006EF0A8FA304670BD5D58000838B50B4888
:10588000714674466EF08CFA0948FEF71DFD90F9DA
:1058900000300BB1064800E00648FEF715FD05781C
:1058A000024821466EF08EFA284638BD7D58000821
:1058B000D919002049C3002070B50A4871467446C2
:1058C0006EF06EFA084B1B7833B1084D2B681E68DA
:1058D000FFF730F82846B04721460248BDE870403F
:1058E0006EF070BAB958000823170020ACC1002030
:1058F000F8B50A4D06460F462846714674466EF0C6
:105900004FFA96F8363067F3451386F83630284656
:105910002146BDE8F8406EF055BA00BFF1580008C6
:1059200070B5094D7146284674466EF039FA074B3A
:10593000986B0368DB6898472146064628466EF058
:1059400041FA304670BD00BF2159000874DB0020C9
:10595000F8B5074D064674460F46284671466EF068
:105960001FFAB78028462146BDE8F8406EF02ABAF3
:1059700051590008F8B5084D0F46064671462846AD
:1059800074466EF00DFA3B88338028462146BDE808
:10599000F8406EF017BA00BF75590008F8B5084D09
:1059A0000F4606467146284674466EF0F9F93B6884
:1059B000336028462146BDE8F8406EF003BA00BFC8
:1059C0009D590008F8B5084E0F460446714630460A
:1059D00075466EF0E5F93B782370304629466EF047
:1059E000F1F92046F8BD00BFC5590008F8B5074DCC
:1059F000064674460F46284671466EF0D1F9F763A5
:105A000028462146BDE8F8406EF0DCB9ED590008A3
:105A100070B5094D71460646284674466EF0C0F9C9
:105A2000064B986B0268B1B25268904728462146EF
:105A3000BDE870406EF0C6B9115A000874DB002052
:105A4000F8B50A4D06460F462846714674466EF074
:105A5000A7F996F8363067F3820386F83630284681
:105A60002146BDE8F8406EF0ADB900BF415A0008CC
:105A7000F8B5084D064674460F46284671466EF046
:105A80008FF986F8287028462146BDE8F8406EF068
:105A900099B900BF715A0008F8B50A4D06460F467D
:105AA0002846714674466EF07BF996F8363067F3F7
:105AB000041386F8363028462146BDE8F8406EF0DB
:105AC00081B900BF995A000870B50E4E2DED048BB8
:105AD0000446B0EE409AF0EE608AB0EE418A754618
:105AE000714630466EF05CF984ED009AC4ED018A8F
:105AF00084ED028A304629466EF064F9BDEC048BD1
:105B0000204670BDC95A00082DE9F0410D4F0546E9
:105B100088463846714676466EF042F90A4B5C6B11
:105B2000236820462946DB68984723682046294693
:105B300042465B69984738463146BDE8F0416EF011
:105B400041B900BF095B000874DB002070B5094D46
:105B500071460646284674466EF022F906F10800A2
:105B6000FEF738FD0688214628466EF02BF93046B0
:105B700070BD00BF4D5B00082DE9F0410A4D804625
:105B80000F462846714674466EF00AF907480668C3
:105B900041463A463668B047284621466EF012F92B
:105BA0000020BDE8F08100BF795B000874DB0020B5
:105BB00070B571460546104874466EF0F1F8FEF770
:105BC00073FC06460D48FEF77FFB90F90030B3EBFF
:105BD000962F01D2002508E035B9094BD86A036831
:105BE0001B6A98470028F5D10125034821466EF02D
:105BF000E9F8284670BD00BFB15B00081719002006
:105C000074DB002070B51D48714674466EF0C8F80C
:105C10001B48FEF7AFFC01280CD91948FEF7DCFB46
:105C2000F1EE047AB4EEE70AF1EE10FAB4BF002503
:105C3000012500E001251348FFF7B4FD60B11148CC
:105C4000FEF7B0FCF1EE047AB4EEE70AF1EE10FADA
:105C5000B4BF0026012600E00126FFF777FDB0F56E
:105C6000FA7F04DD002D14BF3546002500E0002535
:105C7000024821466EF0A6F8284670BD055C000873
:105C800068C3002000C7002070B5094D0646714664
:105C9000284674466EF084F8367906F00306F31E43
:105CA0005E425E41284621466EF08CF8304670BD5B
:105CB000895C0008F8B50746074D0E463E4471461C
:105CC000284674466EF06CF8767B284621466EF0C6
:105CD00079F83046F8BD00BFB55C000870B5084DD6
:105CE00006467146284674466EF05AF896F82060CB
:105CF000284606F0010621466EF064F8304670BD75
:105D0000DD5C000870B5084D7146064628467446AD
:105D10006EF046F83046FEF7D7FA06782146284658
:105D20006EF050F870B270BD055D0008F8B50F4612
:105D3000074D064606EBC7067146284674466EF0C8
:105D40002FF8F668284621466EF03CF83046F8BD3C
:105D50002D5D000870B50A4D06467146284674460A
:105D60006EF01EF896F89410304601F00301FFF72C
:105D7000DDFF2146064628466EF024F8304670BD09
:105D8000555D000838B505467146084874466EF002
:105D900007F8288B4FF6FF75A84214BF054600256B
:105DA000214602486EF00EF8284638BD855D000891
:105DB00038B5064D7446284671466DF0F1FF284609
:105DC0002146BDE838406DF0FDBF00BFB15D000861
:105DD00070B50D4604467146244876466DF0E0FFE6
:105DE000082D3BD804EB45007230FFF737FD0078F3
:105DF00007EE900A082DF8EE677A08D094F8643020
:105E00000BB9236C1BB1B5EE007A67EE877AF5EE1D
:105E1000C07AF1EE10FA21D9254495F88430D3B92F
:105E20009FED137A94F88D40F4EE477AF1EE10FA74
:105E3000C8BFF0EE477A87EE277A06EE904AF8EE72
:105E4000E66A012477EE267AFCEEE77A17EE903ABE
:105E500085F8843003E0013B85F884300024034852
:105E600031466DF0AFFF204670BD00BFD15D000828
:105E70000000484238B50C461A48714675466DF028
:105E80008FFFA379E27943EA0222237A42EA0342AE
:105E900042F31702144BC2F307219970C2F3074172
:105EA000D97061795A70C90712D5104908684178CC
:105EB0008478C07841EA042141EA004141F31701A6
:105EC0000A44C2F307215A70C2F307429970DA708C
:105ED0001A7804486FF300021A702946BDE838406A
:105EE0006DF070BF755E0008785E0020D8610020FC
:105EF00070B5094D71460646284674466DF050FF50
:105F000006F13700FEF762F90678214628466DF063
:105F100059FF304670BD00BFF15E000870B5074EF6
:105F200004467146304675466DF03AFF044B2360D7
:105F3000304629466DF046FF204670BD1D5F0008C3
:105F4000401F0A08F8B50A4E04460F46304671460F
:105F500075466DF025FF2046FFF7E0FF054B2360F7
:105F60003046277129466DF02DFF2046F8BD00BF51
:105F7000455F000800800A0870B5094D7146284643
:105F800074466DF00DFF0748FEF700FC21460646FB
:105F900028466DF017FF0F23B6FBF3F0C0B270BDBB
:105FA000795F000840DD002070B5084D7146064657
:105FB000284674466DF0F4FE301DFEF785F906782C
:105FC000214628466DF0FEFE304670BDA95F0008F0
:105FD00038B5714605460A4874466DF0E1FE002367
:105FE000EA18043300211C2B5160F9D1002385F8F5
:105FF000203021460248BDE838406DF0E3BE00BFC6
:10600000D15F000870B50A4E0446714630467546A9
:106010006DF0C6FE00236360A360E36023616361EB
:106020000023237630462946BDE870406DF0CABE95
:106030000560000870B5094E044671463046754645
:106040006DF0AEFE2046FFF7DDFF0023637630469D
:106050002946BDE870406DF0B5BE00BF3560000850
:1060600038B504462DED028B71460E48B0EE408ADD
:1060700075466DF095FE227E0A48531CDBB2042B58
:10608000237604EB820288BF002382ED018A294631
:1060900088BF23766DF096FEB0EE480ABDEC028B09
:1060A00038BD00BF6160000838B5714604462DED6B
:1060B000028B1648B0EE408A75466DF071FE2046A0
:1060C000B0EE480AFFF7CCFF637EDFED117A042BB8
:1060D00094BF0133052363760023E21892ED017A21
:1060E0000433142B77EE877AF7D1647E074808EEE5
:1060F000104AB8EEC88A294687EE888A6DF062FE9B
:10610000B0EE480ABDEC028B38BD00BFA9600008A4
:106110000000000038B504462DED028B71460F4893
:10612000B0EE408A75466DF03BFE94F820200B4897
:10613000531CDBB2062B84F8203004EB820288BFAC
:10614000002382ED018A294688BF84F820306DF053
:1061500039FEB0EE480ABDEC028B38BD156100086F
:1061600038B5094D7146284674466DF019FE074B47
:10617000074AD86B116803681B6898472846214670
:106180006DF020FE002038BD6161000874DB002046
:10619000A4C0002070B50D4C064671460C487546EB
:1061A0006DF0FEFD206803681B6A0EB1094900E02E
:1061B000094998472068094903681B6A9847294696
:1061C0000348BDE870406DF0FDBD00BFA4C00020D5
:1061D00095610008E6CB0A08F21C0A08562D0A0849
:1061E00038B5094D7146284674466DF0D9FD074B08
:1061F0000749186803681B6A984728462146BDE886
:1062000038406DF0DFBD00BFE1610008A4C0002090
:106210005D2D0A0870B5094D71460646284674463C
:106220006DF0BEFD064B986B0268B1B252689047A4
:1062300028462146BDE870406DF0C4BD15620008D7
:1062400074DB002070B50B4E04467146304675462F
:106250006DF0A6FD236820461B699847014620463D
:10626000FFF728FD2946044630466DF0ABFD204679
:1062700070BD00BF4562000870B50B4E0446714604
:10628000304675466DF08CFD236820461B699847A3
:1062900001462046FEF7D8FF2946044630466DF0F9
:1062A00091FD204670BD00BF7962000870B50B4EAD
:1062B00004467146304675466DF072FD23682046EF
:1062C0001B69984701462046FEF7D6FF294604463B
:1062D00030466DF077FD204670BD00BFAD6200080E
:1062E000F8B5084D744606460F46284671466DF0CF
:1062F00057FD284621466DF065FD0C2303FB076022
:106300004C30F8BDE162000870B50B4E0446714692
:10631000304675466DF044FD236820461B6D984756
:1063200001462046FFF7DCFF2946044630466DF063
:1063300049FD204670BD00BF09630008F8B5094D4E
:106340000F4606467146284674466DF029FD3823EF
:1063500007FB03331E442846B67921466DF032FD13
:106360003046F8BD3D63000870B50A4D06467146DB
:10637000284674466DF014FD96F89410304601F0EE
:106380000301FFF7DBFF2146064628466DF01AFDA4
:10639000304670BD69630008F8B571461548164C63
:1063A00075466DF0FDFCFFF71BFF4FF47A70FFF7A9
:1063B00031FF2068114903681B6A98472646104B35
:1063C000DC68236820469B68984738B123682046DC
:1063D0001F681B699847C1B22046B84730680368F8
:1063E0009B6898470028EADD024829466DF0EAFCE0
:1063F0000020F8BD99630008A4C00020722D0A088F
:1064000074DB0020F0B5174E044687B03046714665
:1064100075466DF0C5FC144B6779186822880168D1
:10642000A3780097B4F80370019794F807E0A77970
:1064300047EA0E2794F808E047EA0E4747F31707A4
:106440000297D4F809700397D4F80D4004940C6AAD
:106450000649A0473046294607B0BDE8F0406DF038
:10646000B1BC00BF05640008A4C00020992D0A0833
:1064700070B504460D462948714676466DF090FC8D
:1064800023680F2D3ED8DFE805F0080C1115191D03
:106490002529213D2D31353D3D395B692049204677
:1064A00002E05B691F492046984730E05B691E495E
:1064B0002046F9E75B691D492046F5E75B691C4901
:1064C0002046F1E75B691B492046EDE75B691A4905
:1064D0002046E9E75B6919492046E5E75B69184909
:1064E0002046E1E75B6917492046DDE75B6916490D
:1064F0002046D9E75B6915492046D5E75B69144911
:106500002046D1E71B6A134920462A469847314660
:106510000248BDE870406DF055BC00BF71640008D2
:10652000D52D0A08DC2D0A08E32D0A08ED2D0A08EE
:10653000F62D0A08FB2D0A08012E0A080A2E0A0861
:10654000102E0A0821350A08172E0A081B2E0A08E1
:10655000222E0A08292E0A0838B5094D7146284608
:1065600074466DF01DFC074B0749186803685B69AA
:10657000984728462146BDE838406DF023BC00BF4F
:1065800059650008A4C00020322E0A0838B5094D0C
:106590007146284674466DF003FC074B074918689E
:1065A00003681B6A9847284621466DF00BFC0020C3
:1065B00038BD00BF8D650008A4C00020342E0A0835
:1065C00038B5094D7146284674466DF0E9FB074B16
:1065D000986B036800215B6C9847284621466DF054
:1065E000F1FB002038BD00BFC165000874DB00204E
:1065F000F8B5084D0F4606467146284674466DF0BC
:10660000CFFB3B68336028462146BDE8F8406DF07B
:10661000D9BB00BFF1650008F8B50A4E04460F4625
:106620003046714675466DF0BBFB2046FFF776FCA1
:10663000054B304684E8880029466DF0C3FB2046B0
:10664000F8BD00BF1966000810800A08F8B50A4DA9
:1066500006460F462846714674466DF0A1FB0C2392
:1066600003FB0760BC30FEF7DFFD214606462846E7
:106670006DF0A8FB3046F8BD4D66000870B50B4EB6
:1066800004467146304675466DF08AFB2368204605
:106690001B6D984701462046FFF7D8FF2946044660
:1066A00030466DF08FFB204670BD00BF7D66000850
:1066B0002DE9FF4BDFF864807146404677466DF068
:1066C0006FFB1348FFF7DAFF124B06460068D3F85A
:1066D00000909AF055FA04467068D9F800B00D465B
:1066E0009AF04EFACDE90001B0689AF049FACDE986
:1066F000020122464846DBF8206007492B46B04796
:106700004046394604B0BDE8F04B6DF05BBB00BFBE
:1067100068C40020A4C00020BB2E0A08B16600088F
:10672000F8B50A4D06460F462846714674466DF088
:1067300037FB0C2303FB07609830FEF775FD2146FD
:10674000064628466DF03EFB3046F8BD216700083E
:1067500070B50B4E04467146304675466DF020FB11
:1067600023682046DB6C984701462046FFF7D8FF98
:106770002946044630466DF025FB204670BD00BF1B
:1067800051670008F8B50A4D06460F46284671467F
:1067900074466DF005FB0C2303FB07607430FEF7B5
:1067A00043FD2146064628466DF00CFB3046F8BDF9
:1067B0008567000870B50B4E044671463046754635
:1067C0006DF0EEFA23682046DB6C984701462046C0
:1067D000FFF7D8FF2946044630466DF0F3FA20460D
:1067E00070BD00BFB56700082DE9F04BDFF8988059
:1067F000224C8CB07146404677466DF0D1FA204667
:10680000FFF7A6FF05684268D0F808B00B92204653
:10681000FFF7D0FF1A49D1F800900646D9F80030AA
:106820000A9328469AF0ACF90B9A044610460D4696
:106830009AF0A6F9CDE9000158469AF0A1F9CDE900
:10684000020130689AF09CF9CDE9040170689AF071
:1068500097F9CDE90601B0689AF092F9CDE90801FF
:106860000A9B08491E6A484622462B46B0474046C6
:1068700039460CB0BDE8F04B6DF0A4BA68C40020F6
:10688000A4C00020DE2E0A08E967000838B5094DCB
:106890007146284674466DF083FA074B074918681D
:1068A00003681B6A984728462146BDE838406DF0CA
:1068B00089BA00BF8D680008A4C000201D2F0A08F7
:1068C0002DE9FF4B834F844D844C71463846764604
:1068D0006DF066FAD5F800802068D8F800300A30EC
:1068E000D3F82090FDF776FEB0F9002020680392DF
:1068F0000C30FDF76FFEB0F900B02068784C0E3018
:10690000FDF768FEB0F900307649039A00934046DF
:106910005B46C847D5F800802068D8F800300A30B8
:10692000D3F82090FDF756FEB0F9002020680392BE
:106930000C30FDF74FFEB0F900B020686A4C0E3005
:10694000FDF748FEB0F900306849039A00934046CD
:106950005B46C847D5F800802068D8F800300A3078
:10696000D3F82090FDF736FEB0F90020206803929E
:106970000C30FDF72FFEB0F900B020685C4C0E30F3
:10698000FDF728FEB0F900305A49039A00934046BB
:106990005B46C847D5F800802068D8F800300A3038
:1069A000D3F82090FDF716FEB0F90020206803927E
:1069B0000C30FDF70FFEB0F900B020684E4C0E30E1
:1069C000FDF708FEB0F900304C49039A00934046A9
:1069D0005B46C847D5F80080D8F8003004F5B3709E
:1069E000D3F82090FDF7F6FDB0F90020039204F5EE
:1069F000B470FDF7EFFDB0F900B004F5B570FDF728
:106A0000E9FDB0F900303E49039A009340465B46E9
:106A1000C847D5F80080D8F8003004F5C370D3F823
:106A20002090FDF7D7FDB0F90020039204F5C47063
:106A3000FDF7D0FDB0F900B004F5C570FDF7CAFD53
:106A4000B0F900302F49039A009340465B46C8478F
:106A5000D5F80080D8F8003004F5D370D3F8209032
:106A6000FDF7B8FDB0F90020039204F5D470FDF7EE
:106A7000B1FDB0F900B004F5D570FDF7ABFDB0F98C
:106A80000030039A2049009340465B46C8472D6872
:106A90002B6804F5E370D3F82080FDF79BFDB0F977
:106AA00000B004F5E470FDF795FDB0F9009004F531
:106AB000E570FDF78FFDB0F90030009328461349CB
:106AC0005A464B46C0473846314604B0BDE8F04B05
:106AD0006DF078B9C1680008A4C00020AC61002046
:106AE0001C5E00202F2F0A08F0160020422F0A08F3
:106AF00044C30020552F0A0808190020682F0A08EF
:106B00007B2F0A088E2F0A08A12F0A08B42F0A0823
:106B100038B505467146094874466DF041F96B7900
:106B2000064813F0040F064B14BFFF2201221A730C
:106B30002146BDE838406DF045B900BF116B000833
:106B40000017002070B50F4D064671462846744662
:106B50006DF026F9FDF7A8FCD6F805609FED0A7ADE
:106B60000A4B07EE906A67EE877A1860FDEEE77AC7
:106B7000074BC3ED007A28462146BDE870406DF012
:106B800021B900BF456B000800007A44241700209B
:106B90001C17002070B50B4D0646714628467446FA
:106BA0006DF0FEF8D6F80520074B07EE902AFDEEB3
:106BB000E77A2846C3ED007A2146BDE870406DF0C3
:106BC00001B900BF956B00081C170020F7B50C4DEC
:106BD00006460F462846714674466DF0E1F807EE0A
:106BE000107AF8EE477A02A961ED017A06F10C00FD
:106BF000FFF7FEFC284621466DF0E4F803B0F0BD37
:106C0000CD6B000870B5064D7446714606462846A1
:106C10006DF0C6F8284621466DF0D4F8304670BDB8
:106C2000056C000870B5084E71460446304675463E
:106C30006DF0B6F82046FFF7E5FF304629466DF0C7
:106C4000C1F8204670BD00BF256C000870B5084E25
:106C500071460446304675466DF0A2F82046FFF7AF
:106C6000D1FF304629466DF0ADF8204670BD00BF1B
:106C70004D6C000870B5174E714604463046754697
:106C80006DF08EF82046FFF7CDFF601CFFF7CAFFBE
:106C9000A01CFFF7C7FFE01CFFF7C4FF201DFFF794
:106CA000D5FFA01DFFF7D2FF04F10800FFF7CEFFCC
:106CB00004F10A00FFF7CAFF04F10C00FFF7B2FF6E
:106CC00004F10E00FFF7C2FF304629466DF07AF856
:106CD000204670BD756C000870B5084E71460446BC
:106CE000304675466DF05CF82046FFF78BFF304666
:106CF00029466DF067F8204670BD00BFD96C0008CA
:106D000070B5084E71460446304675466DF048F839
:106D10002046FFF777FF304629466DF053F82046AE
:106D200070BD00BF016D000870B5084E7146044685
:106D3000304675466DF034F82046FFF773FF304655
:106D400029466DF03FF8204670BD00BF296D000850
:106D500070B5074E04467146304675466DF020F812
:106D6000044B2360304629466DF02CF8204670BD58
:106D7000516D0008F01F0A0870B5094E04467146AF
:106D8000304675466DF00CF82046FFF7E1FF054BE5
:106D90002360304629466DF015F8204670BD00BFCF
:106DA000796D0008E0880A0870B5094E04467146FE
:106DB000304675466CF0F4FF002330466370A370D4
:106DC000E370237129466CF0FDFF204670BD00BFC3
:106DD000A96D000870B5094E0446714630467546E7
:106DE0006CF0DEFF00233046A370E3702371A360D4
:106DF00029466CF0E7FF204670BD00BFD56D000846
:106E000070B50C4E71460446304675466CF0C8FFAE
:106E1000201DFFF7B1FF04F11400FFF7C5FF04F1D7
:106E20001C00FFF7D7FF304629466CF0CBFF204609
:106E300070BD00BF016E000870B5084E7146044673
:106E4000304675466CF0ACFF04F12400FEF782FA80
:106E5000304629466CF0B6FF204670BD396E0008FA
:106E600070B5074E04467146304675466CF098FF83
:106E7000044B2360304629466CF0A4FF204670BDC9
:106E8000616E0008F01E0A0870B50C4E044671468B
:106E9000304675466CF084FF2046FFF7E1FF084B53
:106EA0002360002384F820302046FFF791F8304615
:106EB00029466CF087FF204670BD00BF896E000830
:106EC000001F0A0870B5094E0446714630467546E3
:106ED0006CF066FF2046FFF7D7FF054B2360304676
:106EE00029466CF06FFF204670BD00BFC56E0008DC
:106EF000101F0A0870B5094E7146044630467546A3
:106F00006CF04EFF2046FFF77DFE2046FEF722FA8A
:106F1000304629466CF056FF204670BDF56E0008DD
:106F200070B5084E04467146304675466CF038FF21
:106F3000002330466360236029466CF043FF2046FF
:106F400070BD00BF216F000870B50C4E044671463D
:106F5000304675466CF024FF4FF07E532362236168
:106F600023600023A36063606361E360E361A36166
:106F700030462946BDE870406CF024BF496F0008D8
:106F800070B50C4E71460446304675466CF008FFED
:106F90002046FEF7DFF904F10C00FEF7DBF904F1FF
:106FA0001800FEF7D7F9304629466CF00BFF204653
:106FB00070BD00BF816F000870B5074E0446714672
:106FC000304675466CF0ECFE044B23603046294693
:106FD0006CF0F8FE204670BDB96F0008681F0A0803
:106FE00070B5074E04467146304675466CF0D8FEC3
:106FF000044B2360304629466CF0E4FE204670BD09
:10700000E16F0008A81F0A0870B50B4E04467146D0
:10701000304675466CF0C4FE2046FFF721FF074B53
:107020002360002323762046FEF7ECFF30462946F6
:107030006CF0C8FE204670BD09700008D01F0A0819
:1070400070B50A4E04467146304675466CF0A8FE8F
:107050002046FFF7D9FF064B2360002330466376B6
:1070600029466CF0AFFE204670BD00BF417000089D
:10707000E01F0A0870B5114E714604463046754649
:107080006CF08EFE2046FFF73BFE201DFFF738FE1A
:1070900004F10800FFF734FE04F10C00FFF730FEA6
:1070A00004F11000FFF7D2FD04F11200FFF7CEFD4E
:1070B000304629466CF086FE204670BD757000088B
:1070C000F8B50B4E04460F463046714675466CF0D7
:1070D00067FE002330462760A380A371A360A381CD
:1070E000E3812374638229466CF06CFE2046F8BD70
:1070F000C17000082DE9F0410A4E04460F463046A3
:107100007146754690466CF04BFE00233046237165
:10711000A760C4F80C8029466CF054FE2046BDE8F8
:10712000F08100BFF570000870B5074E0446714647
:10713000304675466CF034FE044B236030462946D9
:107140006CF040FE204670BD29710008501F0A08EF
:10715000F8B50C4E04460F463046714675466CF045
:107160001FFE2046FFF7E0FF074B2360002363600C
:10717000FF233046A760237329466CF023FE204688
:10718000F8BD00BF51710008A0640A0870B5094E2F
:1071900004467146304675466CF002FE2046FFF705
:1071A000C3FF054B2360304629466CF00BFE20469A
:1071B00070BD00BF8D71000898650A0870B5074D55
:1071C00006467146284674466CF0EAFD3678284635
:1071D00021466CF0F7FD304670BD00BFBD71000860
:1071E00070B5074D06467146284674466CF0D8FDCA
:1071F0003678284621466CF0E5FD304670BD00BF6C
:10720000E171000870B5074D064671462846744680
:107210006CF0C6FD3678284621466CF0D3FD30462A
:1072200070BD00BF0572000870B5074D0646714677
:10723000284674466CF0B4FD3678284621466CF03A
:10724000C1FD304670BD00BF2972000870B5074D02
:1072500006467146284674466CF0A2FD36782846EC
:1072600021466CF0AFFD304670BD00BF4D72000886
:1072700070B5074D06467146284674466CF090FD81
:107280003678284621466CF09DFD304670BD00BF23
:107290007172000870B5074D06467146284674465F
:1072A0006CF07EFD3678284621466CF08BFD30462A
:1072B00070BD00BF9572000870B5074D0646714657
:1072C000284674466CF06CFD3678284621466CF0F2
:1072D00079FD304670BD00BFB972000870B5074D2A
:1072E00006467146284674466CF05AFD36782846A4
:1072F00021466CF067FD304670BD00BFDD720008AE
:1073000070B5074D06467146284674466CF048FD38
:107310003678284621466CF055FD304670BD00BFDA
:10732000017300082DE9F0410E46804671460C4875
:1073300075466CF035FD0B4B00241E60A7B21C2077
:1073400000FB0760FFF73AFF01340028F6D1064B37
:1073500003481F7029466CF035FD4046BDE8F081BA
:107360002573000838DD002034DD002070B5074D9E
:1073700074467146064628466CF012FD28462146A2
:107380006CF020FD06F50B7070BD00BF6D7300083A
:1073900070B5074E04467146304675466CF000FDE8
:1073A000044B2360304629466CF00CFD204670BD2E
:1073B00091730008687F0A0870B5074E044671464D
:1073C000304675466CF0ECFC044B23603046294691
:1073D0006CF0F8FC204670BDB973000850630A08D1
:1073E00070B5094E04467146304675466CF0D8FCBF
:1073F000064B23602046FFF7DFFF304629466CF03E
:10740000E1FC204670BD00BFE1730008C0630A08BC
:1074100070B5094E04467146304675466CF0C0FCA6
:10742000064B23602046FFF7B3FF304629466CF039
:10743000C9FC204670BD00BF1174000820800A08F6
:1074400070B5094E04467146304675466CF0A8FC8E
:10745000064B23602046FFF7C3FF304629466CF0F9
:10746000B1FC204670BD00BF4174000830640A08BA
:1074700070B5094E71460446304675466CF090FC76
:107480002046FFF785FF20466CF092FD30462946E6
:107490006CF098FC204670BD7174000870B5094E00
:1074A00071460446304675466CF07AFC2046FFF77C
:1074B00083FF20466CF07CFD304629466CF082FC50
:1074C000204670BD9D74000870B5094E7146044693
:1074D000304675466CF064FC2046FFF781FF20467D
:1074E0006CF066FD304629466CF06CFC204670BDA1
:1074F000C974000870B5094E714604463046754699
:107500006CF04EFC2046FFF783FF20466CF050FDE8
:10751000304629466CF056FC204670BDF5740008D4
:1075200070B5094E71460446304675466CF038FC1D
:107530002046FFF785FF20466CF03AFD304629468D
:107540006CF040FC204670BD2175000838B5074D31
:107550007146284674466CF023FC054841F0C2FC95
:1075600028462146BDE838406CF02CBC4D7500081B
:10757000A462002070B50B4D7146284674466CF02D
:107580000FFC094B09481E78FCF720FE31460278B3
:10759000074814F0CDFF28462146BDE870406CF046
:1075A00011BC00BF757500080611002016190020D7
:1075B000D816002010B571468AB00E4874466CF09B
:1075C000EFFB0D4844F0ACFC0B480C4944F0BCFB0D
:1075D0000B4BD86B03686946DB68984718B10648BF
:1075E000694644F01BFC034821466CF0EBFB0AB0F3
:1075F00010BD00BFB5750008245E0020C72F0A0823
:1076000074DB0020F8B571460646174875466CF0E5
:10761000C7FB1648FCF712FF046834401DD0144E17
:1076200033780BB1002418E01248FCF7F3FE30B9B0
:107630000E48FCF703FF046814F480340DD00E48A4
:10764000FCF70CFF40B90D4B1F7801242FB93470A3
:10765000FFF7B0FF377000E00124034829466CF0C3
:10766000B1FB2046F8BD00BF057600089419002044
:1076700050C80020B01B0020245E002010C600204F
:1076800070B5094D094E7146284674466CF088FB6A
:10769000304643F003FE304643F096FE284621462E
:1076A000BDE870406CF08EBB81760008245E00203F
:1076B00038B5084D7146284674466CF071FB064893
:1076C000064943F009FF28462146BDE838406CF0E2
:1076D00079BB00BFB1760008245E002068C400209A
:1076E00010B50A48714674466CF05AFB0848FCF71E
:1076F000EBFD90F9003013B1064814F085F82146EF
:107700000248BDE810406CF05DBB00BFE1760008A8
:10771000B41900204017002038B5094D714628469D
:1077200074466CF03DFB074824F01EFB064813F03E
:10773000BDFB28462146BDE838406CF043BB00BF86
:107740001977000868C60020B8610020F8B57146B6
:1077500007460F4875466CF023FB0024CC22624399
:107760000C4BD35CE6B24BB1304647F0A3FC372854
:1077700004DD094831463A4611F090FD0134032CEE
:10778000ECD129460248BDE8F8406CF01BBB00BFB5
:107790004D770008CC5E002000C7002070B535484A
:1077A0002DED028B714674466CF0FAFA3248FCF704
:1077B000B1FE002855D03148FCF7DCFE022850D934
:1077C0002E48FCF709FEF1EE007AB4EEE70AF1EE7E
:1077D00010FA46D42848FCF7E5FE2948B0EE408A66
:1077E000FCF7F8FEB0F9000007EE900AF8EEE77A31
:1077F000B4EEE78AF1EE10FA12D52048FCF7ECFD62
:107800001F48B0EE408AFCF7E5FEB0F9000007EE35
:10781000900AF8EE677AB4EEE78AF1EE10FA20D417
:10782000184D194A2B691268002BB8BF5B4293426E
:1078300017DC16486E69FCF7CDFEB0F900309E42A9
:107840000FDC134B6A691B689A420ADB0B48FCF792
:10785000E7FE05462946084811F03EFC2846FFF79A
:1078600075FFBDEC028B21460248BDE870406CF00C
:10787000A9BA00BF9D77000800C7002068C3002098
:107880004CC30020B01B0020ACC0002050C300201F
:107890007C61002038B5714605460A4874466CF094
:1078A0007FFA0A2D07D10848FCF7E6FE012802D12D
:1078B000054822F0A3FB21460248BDE838406CF0A1
:1078C00081BA00BF957800085462002070B5084D59
:1078D00071460646284674466CF062FA06F11800B6
:1078E0000CF0FAFF28462146BDE870406CF06ABAF9
:1078F000CD78000870B5084D714606462846744696
:107900006CF04EFA06F118000CF0E6FF284621460E
:10791000BDE870406CF056BAF578000838B5094DEE
:107920007146284674466CF03BFA0748FFF7CEFFD5
:107930000648FFF7DFFF28462146BDE838406CF0D7
:1079400041BA00BF1D7900084C5D002098C7002097
:1079500070B5084D71460646284674466CF020FA0C
:1079600006F118000CF070FD28462146BDE8704075
:107970006CF028BA5179000870B5084D714606467A
:10798000284674466CF00CFA06F118000CF05CFD09
:1079900028462146BDE870406CF014BA7979000899
:1079A00038B5094D7146284674466CF0F9F9074818
:1079B000FFF7CEFF0648FFF7DFFF28462146BDE868
:1079C00038406CF0FFB900BFA17900084C5D002081
:1079D00098C7002073B5714619481A4C75466CF06B
:1079E000DFF9194B99785A78DB7842EA012242EAAA
:1079F000034343F317032360FCF750FE1348FCF7DF
:107A000063FC90F9003026462BB1114801A90122F0
:107A100041F048F938B900233372094829466CF01F
:107A2000D1F902B070BDDFED0B7A9DED017A67EE02
:107A3000277A0123FDEEE77A2372C4ED037AECE79F
:107A4000D5790008ECC60020F4160020DD190020CE
:107A5000A46200200000C84238B5094D714628468E
:107A600074466CF09DF9FFF7B5FFFDF7EBF9054B98
:107A7000186021462846BDE838406CF0A3B900BF25
:107A8000597A0008ECC60020F8B5044671461A4839
:107A90001A4D76466CF084F9D4F80930E779002B5A
:107AA000B8BF5B422B80A37943EA0727237A144CA3
:107AB00047EA034747F317072760FDF7C3F98742F3
:107AC00002DA2B885B422B80FFF7C6FFB5F9000076
:107AD0000A2390FBF3F0FDF789F90A4B22785A70DC
:107AE00062789A70A278DA70FCF7D8FD31460248C5
:107AF000BDE8F8406CF066B9897A0008B0610020F2
:107B00001C170020785E0020F7B504467146264811
:107B1000264D76466CF044F96378A178227843EAE2
:107B20000121E37841EA034141F31701D0072960BD
:107B30000CD51F4B1B6858789F78DB7840EA0720EC
:107B400040EA034343F3170319442960120728D579
:107B5000184801A9012241F0A5F810B301232B72A6
:107B6000A278637843EA0222E37842EA0342237868
:107B700042F31702DB07EA600DD40D4B1B685978FE
:107B80009878DB7841EA002141EA034343F3170385
:107B9000D21A064BDA60044831466CF013F903B090
:107BA000F0BD00232B72F6E7097B0008ECC600202D
:107BB000D8610020A462002037B5044671463948D8
:107BC00075466CF0EDF82378190706D5364801A9FB
:107BD000012241F067F800283CD1A278637843EA9B
:107BE0000223E27843EA024343F3170306EE903A96
:107BF0002378DA07F8EEE67A10D42C4B1B685A7813
:107C00009978DB7842EA012242EA034343F31703FF
:107C100006EE903AB8EEE67A77EEC77A244B5A78B9
:107C20009978DB7842EA012242EA034343F31703DF
:107C300006EE103AB8EEC67AB4EEE77AF1EE10FA34
:107C400018482946D4BF002401246CF0BBF8204614
:107C500003B030BDA27863789FED167A43EA022321
:107C6000E27843EA024343F3170307EE903A23789E
:107C7000F8EEE77ADB0767EE877A10D40B4B1B68C8
:107C80005A789978DB7842EA012242EA034343F3C7
:107C9000170306EE103AF8EEC66AE6EEC77A9DEDD7
:107CA000017AC9E7B97B0008A4620020D8610020EE
:107CB000F41600200AD7233C70B52DED028B054643
:107CC00071463448344C82B076466CF069F86B7873
:107CD000AA7843EA0222EB7842EA03422F4B597812
:107CE0009878DB7841EA002141EA034342F3170226
:107CF00043F31703D31A63602B781B0707D5237A46
:107D00002BB1274801A9012240F0CCFF78BB254BBD
:107D10001B78033BDBB2012B21D92348FCF75AFC2B
:107D2000B0F90030002B31DD6368DFED207A1E48AA
:107D300083EAE372A2EBE37208EE102AB8EEC88A77
:107D400028EE278AFCF746FCB0F9000007EE900AFF
:107D5000F8EEE77AB4EEE78AF1EE10FA16D40D48A1
:107D600031466CF02FF802B0BDEC028B70BD94ED83
:107D7000037ADDED016AF8EEC77A9FED0D7AE6EE43
:107D8000C77AFDEEE77AC4ED017AC0E700236360AD
:107D9000E5E700BFB97C0008ECC60020F41600201F
:107DA000A4620020FC100020E01900200AD7233C28
:107DB0000000C84273B5164C1648714675466BF004
:107DC000EFFF237A26462BB1134801A9012240F088
:107DD00069FF20B93468FDF735F8241A11E094EDF5
:107DE000037AD4ED046AF8EEC77A9FED0C7AE6EEDA
:107DF000877ADDED016AE6EEC77AFDEEE77A17EEE7
:107E0000904A044829466BF0DDFF204602B070BD61
:107E1000ECC60020B57D0008A46200200000C84226
:107E20002DE9F0412DED028B3F4C404882B0714668
:107E300077466BF0B5FF6378A07843EA0020E378DB
:107E400040EA034040F3170098F088FE34A3D3E9DA
:107E5000002398F0E9FE99F0C9F9237813F0010F97
:107E600008EE100AA04623D13148FDF761FA064614
:107E700018EE100A98F084FE73780446B07843EA4E
:107E80000020F37840EA034040F317000D4698F0D5
:107E900065FE23A3D3E9002398F0C6FE02460B46F5
:107EA0002046294698F00CFD99F0A0F908EE100A3A
:107EB00098F800301B070AD51E4801A9012240F09E
:107EC000F1FE20B1DDED017A37EEC88A1CE0FCF747
:107ED000B9FF04461648FDF72BFA42788178C3783B
:107EE00042EA012207EE104A42EA034343F3170332
:107EF000F8EEC77A07EE103AB8EEC77A37EEC77ACF
:107F0000DFED0D7A97EE278A084839466BF05AFF65
:107F1000B0EE480A02B0BDEC028BBDE8F08100BFB4
:107F20007B14AE47E17A843F785E0020217E000812
:107F3000B01B0020A46200200AD7233CAFF30080CE
:107F4000F7B50E4604467146174877466BF028FF92
:107F50006846FCF74BFC1548FCF7B6F990F9003081
:107F60009E4215D8FCF724FC864211D2F600B6B228
:107F700031460F4848F0DAFC04360090B1B20C48A4
:107F800048F0D4FC01909DE8030084E8030004E07D
:107F9000002120460A46FCF73DFC034839466BF0B9
:107FA00011FF204603B0F0BD417F000845190020B5
:107FB00064C3002070B5714606460B4875466BF0E9
:107FC000EFFE00240948225C1AB12044314646F0F5
:107FD0002BF8CC34B4F5197FF4D129460248BDE81A
:107FE00070406BF0EFBE00BFB57F0008CC5E002094
:107FF00038B5074D7146284674466BF0D1FE1C20FB
:10800000FFF7D8FF28462146BDE838406BF0DABEBE
:10801000F17F000870B5164D2DED028B71460646B6
:1080200028467446B0EE408A6BF0BAFE3046FFF741
:108030006BFDB0EE480ADFED0F0AB7EE001A1EF036
:10804000C1FF0D4B5B685B4207EE103AF8EEC77A52
:1080500020EE270ABDEEC00A10EE100AFCF7C6FE9D
:10806000BDEC028B28462146BDE870406BF0AABEED
:108070001580000800000000ECC6002070B54048E4
:108080002DED028B714674466BF08AFE3D4B1B78DA
:10809000062B06D13C4B3D489E69FCF79BFA0388B2
:1080A00026E03B4D286803681B6B984710B19FED95
:1080B000398A5CE0286803681B699847364B064696
:1080C000324893ED008AFCF785FAB0F90000DFED45
:1080D000310A01EE100AB8EE488AB8EEC11AB0EEC5
:1080E000480A1EF06FFFBDEEC00A10EE103A9BB2B8
:1080F0001DB2002DDBDD2448FCF7B6FBF7EE007A5D
:10810000B4EEE70AF1EE10FAB0EE408ACFD423487D
:108110000268D2699047B6EE001A20EE010A80EE9E
:10812000081AB5EEC01AF1EE10FAC0D907EE106ABF
:1081300007EE905AB8EEC70A9FED198A194820EE4B
:10814000080AF8EEE70A40F04DFE174B5B68002B7B
:1081500005DA07EE103AF8EEC77AA7EE880ADFEDE7
:108160000D0A9FED121A1EF02DFFB0EE408A044852
:1081700021466BF027FEB0EE480ABDEC028B70BDC5
:108180007D80000806110020B01B0020DE190020B1
:108190003011002000000000E4C60020ACC1002027
:1081A0000AD7233CA4620020ECC6002000007A44D9
:1081B00070B52DED028B2B4C2B48DFED2C8A82B055
:1081C000714675466BF0ECFD237A26466BB194ED53
:1081D000037ADFED277A2748B8EEC70A01A920EE17
:1081E000270A012240F0AEFDF0B9234B23481B685B
:1081F0005A789C78DB7842EA042444EA03443368E2
:1082000044F317041C1BFCF7E5F90288642312FBF6
:108210000344FCF74DFB07EE104AF8EEC77AE0EE98
:10822000287ABDEEE78A13E0FFF728FFDDED017A3B
:1082300084ED040A37EE800A8DED010AFCF738FB65
:108240009DED018A30EE080A20EE288ABDEEC88A2C
:10825000054829466BF0B6FD18EE100A02B0BDECD9
:10826000028B70BDECC60020B18100080000C8423E
:108270000AD7233CA4620020D86100207A1900208C
:1082800010B57146184874466BF08AFD17481849B6
:108290001FF050F9174B184A1B78BCEEC00A0B2B85
:1082A00082ED000A154A82ED000A0CD00F2B0AD08D
:1082B0000A2B10D1FCF73EFBF3EE047AB4EEE70A8A
:1082C000F1EE10FA03DC0A48FFF776FC18B1084813
:1082D000FFF7F2FC01E0FCF7E1F921460248BDE8B6
:1082E00010406BF06FBD00BF81820008F4160020C3
:1082F000785E00200611002008C10020E4C600209E
:1083000070B571461348144D74466BF049FD13481F
:108310004FF0FF3122F018FC431C064602D1104BEF
:108320006B6110E00F4910481FF038F9301A1EF049
:10833000D1FF07EE900AB8EEE77ADFED0C7A67EE30
:10834000277AC5ED057A21460248BDE870406BF0FA
:1083500039BD00BF018300081411002054620020C1
:108360000000B442785E002004C600200AD7233CF7
:1083700038B51048104C714675466BF011FD0F4B27
:10838000186803681B699847A268034612B1206801
:10839000181A00E0012023601EF09CFFA36894F9E6
:1083A0000C2002FB0030A06029460248BDE838409E
:1083B0006BF008BD71830008001700203011002009
:1083C000F8B507460E460E48714675466BF0E8FC58
:1083D00000240C48225C22B120443946324645F044
:1083E000A9FECC34B4F5197FF3D13146064843F0E9
:1083F000ABFC29460248BDE8F8406BF0E3BC00BF87
:10840000C1830008CC5E0020245E00202DE9F043EB
:10841000414C424885B0714675466BF0C1FC2368FB
:108420002746FBB93E4BD86B03681B699847B0F5EC
:10843000087F5ED30120202167F022F906462060E4
:10844000002856D0FCF7B4F90146082067F018F967
:10845000F0612068C6691EB967F088F9266048E0B7
:10846000FE2303742F48FBF72FFF90F90030002BF9
:108470004FF0000606DC04A92A4801F8016DFCF75C
:10848000DFF941E02748FBF71FFF90F90030F4B215
:108490009C4206F101090EDA3B6821466846D3F892
:1084A0001C80FFF74DFD9DE8030008EBC40484E841
:1084B00003004E46E6E73B68174ED8691C7008304B
:1084C000611E20F097F9A0B13368D8691A7800F1DD
:1084D0000801013A20F01CF958B93268124990702D
:1084E000012318465370FFF76BFF1420FFF762FD5E
:1084F0000AE004A9002301F8013D0C48FCF7A0F9AB
:1085000003200B49FFF75CFF044829466BF05AFC37
:1085100005B0BDE8F08300BF746100200D84000841
:1085200074DB002045190020E82F0A0844190020B8
:10853000F92F0A08F8B505460E460C4871467446F0
:108540006BF02EFC0A4B1A681F4612B90DB1FFF7EB
:108550005DFF3B681BB15D719E71012500E01D460A
:10856000024821466BF02EFC2846F8BD35850008F0
:1085700074610020F8B51948194D714674466BF0C6
:108580000FFC1848FBF7A0FE90F90000B0B1164BA5
:1085900014481E6B3368DF68FBF796FE01780139DB
:1085A0003046C9B2B84740F2D663984205D92B6825
:1085B00001201BB9FFF72AFF0AE000202B683BB11E
:1085C000DA781A719042D87002D00121FFF7B2FF19
:1085D00021460248BDE8F8406BF0F4BB7585000801
:1085E000746100204619002074DB002070B5134D23
:1085F0001348714676466BF0D3FBFFF7BBFF2C6840
:10860000B4B11048FBF760FE90F900306BB1FCF795
:108610003DFC044648B10B48FBF756FE90F900308C
:10862000022B05D02B685C7914B92B6800249C7050
:10863000034831466BF0C6FB204670BD74610020D4
:10864000ED8500084419002038B50D48714675467F
:108650006BF0A6FBFFF7CAFF044650B1094B1B683D
:1086600043B19B7833B1084B1C780F3C18BF0124F1
:1086700000E00124024829466BF0A4FB204638BDE7
:1086800049860008746100200611002070B571460B
:1086900004461248124E75466BF082FB032C15D12E
:1086A0003378032B12D00F48FBF70EFE90F9003001
:1086B000012B0BD100200221FFF73CFF10B920460F
:1086C000094901E009492046FFF77AFE347029463E
:1086D0000248BDE870406BF075BB00BF8D86000896
:1086E000FC1000204E1900200F300A0832300A0812
:1086F0002DE9FF4B2E48714675466BF051FB2D4B13
:108700001B78002B3ED02C4B1B78002B3AD12B4BE7
:108710002B4C1B780A2B0FD12378DA0701D40220C7
:108720000BE02848FCF720F88378152B37D1237805
:108730009B0734D5042000E00120234EFFF7A6FF5D
:1087400033685F68FFF734FD204BB4F908401A68BE
:108750001F4B93F800801F4BB3F8009003928346A1
:10876000FCF7E8F80FFA89F3019330460094594674
:10877000039A4346B8474FF40060FEF743FF08B141
:10878000FCF710F9144811F069FD1448FCF724F9BE
:108790000748294604B0BDE8F04B6BF013BB09480D
:1087A000FBF7E2FF8378152BC6D10320C5E700BF96
:1087B000F1860008231700207861002006110020B0
:1087C0001411002054620020ACC10020D45D0020B0
:1087D000FC1000201462002010C1002000C70020FF
:1087E00010B57146174874466BF0DAFA1648FBF775
:1087F000F1FEB0F900301548002B154BB4BFFF2235
:1088000001221A73134A0368136043685360836834
:1088100011489360114A036813604368536083688A
:108820009360FFF7D7F8FFF763FFFFF729FDFFF726
:1088300067FDFCF713F921460248BDE810406BF0D4
:10884000C1BA00BFE187000842190020F4160020D9
:108850000017002004C60020F8C00020785E002029
:1088600038B571460C4874466BF09AFAFCF72CFE4A
:108870000A4B99685A6891424FF0000505DD0120C6
:1088800007495D60FFF79CFD0125034821466BF019
:1088900099FA284638BD00BF6188000800170020FB
:1088A0004F300A0870B5144C1448714675466BF089
:1088B00077FAFCF709FE26695EB9114B1868036860
:1088C0001B6B984708B900240FE0FBF7EDFD206112
:1088D000F9E7FBF7E9FD23696269C01A9042F2D912
:1088E00001200849FFF76CFD0124044829466BF07C
:1088F00069FA204670BD00BF00170020A588000857
:108900003011002072300A0838B515487146754696
:108910006BF046FAFCF7D8FD124B13481C68FBF7C6
:1089200059FEB0F90030002B05DD0F48FBF752FE71
:10893000B0F9003000E000239C4206D90B4B1868C8
:1089400003681B6B9847044620B101200849FFF7D4
:1089500037FD0124024829466BF034FA204638BD21
:1089600009890008E4C600203E19002030110020CB
:1089700093300A0870B525482DED028B7146754677
:108980006BF00EFA224B1B780A2B04D1214B1B787B
:10899000D90706D524E0052B22D11E4B1B789A0659
:1089A0001ED51D481B4CFBF78FFC90F900305BB1C6
:1089B0001A4894ED038AFBF797FCD0ED007AB4EEE9
:1089C000E78AF1EE10FA14DB2378124E9B0607D5E6
:1089D00001201349FFF7F4FC33786FF3451333702C
:1089E00000240A4829466BF0EDF9BDEC028B60B219
:1089F00070BD0C4AB4F91030526903F57A739A428B
:108A0000E2DC0548FBF760FC0478EAE775890008BA
:108A10000611002014110020CD190020D0190020CB
:108A2000A0300A08B01B0020F8B57146054618486A
:108A300076466BF0B5F92DB3012401201549164F88
:108A4000FFF7BEFC4FF4AF6120463C70FDF75CF8C9
:108A50004FF4C870FCF7DCFF4FF4C8612046FDF707
:108A600053F8C820FCF7D4FF204640F2DC51FDF754
:108A70004BF8013D00234FF4C8703B70EDB2FCF79A
:108A8000C7FFD8E731460248BDE8F8406BF09AB915
:108A9000298A0008AF300A08D01600202DE9F843D3
:108AA00071463248DFF8E080314F324C324E754625
:108AB0006BF076F93148FCF72FF80138C0B247F077
:108AC000E5FBC8F800002D48FCF73AF80138C0B2C1
:108AD00047F0DCFB38602948FCF75AF80138C0B28F
:108AE00047F0D4FB20602548FCF73EF80138C0B2BF
:108AF00047F0CCFB41F294113060D8F8000047F009
:108B00008DF8386841F2941147F088F8306841F2E6
:108B1000941147F083F820680021642247F062F83E
:108B2000174810F091FF28B9154811F0D9F801281D
:108B3000074605D029460D48BDE8F8436BF042B919
:108B4000104B0E485E6B3368D3F82480FCF720F896
:108B5000814620680A30FBF73DFD09F1FF310288AC
:108B600007FA01F13046C047E4E700BF9D8A0008DC
:108B70001C5E0020F016002044C30020B2610020DB
:108B80009061002074DB0020AC61002038B5084DF6
:108B90007146284674466BF003F946F035FE0548E9
:108BA00022F05AFD28462146BDE838406BF00AB94C
:108BB0008D8B000868C60020F0B52DED028B714644
:108BC00083B03C483C4C75466BF0EAF83B48FCF7F8
:108BD00007F806463948FCF75FF807463748FCF7C0
:108BE0008FF800285FD0BE425DDA354B1B78002B32
:108BF00059D034480FF070FDDFED337A90ED088ADC
:108C0000237B07EE106A28EE278AF8EEC77A092B35
:108C100028EE278A02D80133237301E00123237051
:108C20002378002B37D0FBF785FE284B1B7AF0EE1C
:108C3000408A53B1264801A9012240F033F858B1C7
:108C4000DDED017A37EEC88A08E02248FBF73CFBED
:108C500090F90030002BEDD138EEC88A1E4EB06B73
:108C600003689B689847A268134B801A41F28831C9
:108C7000884209D8DFED197A93ED017A28EE278A28
:108C8000DFED177AA7EE278AB06B83ED018A0368C0
:108C90009B689847A060074829466BF093F803B09B
:108CA000BDEC028BF0BD0023237323709FED0D8A72
:108CB000B6E700BFB98B00083CC80020B4C0002054
:108CC000B0C00020B01B00200AD7233CECC6002017
:108CD000A4620020DD19002074DB0020CDCC4C3EC6
:108CE000CDCC4C3F0000000038B5074D71462846FA
:108CF00074466BF055F805483BF03CFA284621468F
:108D0000BDE838406BF05EB8E98C000818620020BE
:108D100010B50A48714674466BF042F80848FBF7F4
:108D2000D3FA90F9003013B1064812F011FC214635
:108D30000248BDE810406BF045B800BF118D000837
:108D4000B41900204017002038B5074D7146284659
:108D500074466BF025F805483EF07CFB284621461A
:108D6000BDE838406BF02EB8498D0008B0160020E1
:108D700038B50B48714675466BF012F80024094867
:108D8000235C1BB12044084945F0FAFACC34B4F511
:108D9000197FF4D129460248BDE838406BF012B87B
:108DA000718D0008CC5E0020AD8D000838B571468D
:108DB00004460F486AF0F4FF0E4B9D6B2B68284663
:108DC0005B6B0021012298472B680021DB69284654
:108DD00005229847084B20461C60FBF7DDFF2368FF
:108DE00020461B6C01219847044821F0CBF8FBE793
:108DF000AD8D000874DB0020A4C00020DC610020E1
:108E000038B50A4D7146284674466AF0C9FF084BCA
:108E10000849186803681B6A9847074821F0B2F8A8
:108E2000284621466AF0CEFF002038BD018E00089A
:108E3000A4C00020BC300A0854C8002038B50A4D30
:108E40007146284674466AF0ABFF084B084918681B
:108E500003681B6A9847074821F094F82846214682
:108E60006AF0B0FF002038BD3D8E0008A4C000208D
:108E7000C8300A082C17002038B5074D714628461F
:108E800074466AF08DFF054821F07CF8284621469B
:108E90006AF098FF002038BD798E0008845E0020BB
:108EA000F7B51148714674466AF07AFF0F4B1B788C
:108EB0002BB90F4B1D78003518BF012500E00225A6
:108EC0000C4EB768FBF77CFF3169009103462946D9
:108ED00009483A460DF006F80348214603B0BDE8BC
:108EE000F0406AF06FBF00BFA18E0008231700207A
:108EF000061100204062002018C60020F8B5714617
:108F000006464C484C4C75466AF04AFF4B484C4B61
:108F100007784C4AC7F3C00EBEF1000F0AD0216893
:108F200019606168596007F0F707A168996047F018
:108F3000100707E0116819605168596091689960DD
:108F40006EF304173168116071685160B168916007
:108F5000516807703B4B31BB996821BB6168596010
:108F6000A168987899605978334E41EA0021D87801
:108F700041EA004141F31701A9B9B478707840EA99
:108F80000420F47840EA044040F31700C0F30724BB
:108F90005870C0F30740D87018789C7061F30000D7
:108FA00061F3C30018701278264BD1071ED56FF3FA
:108FB000000298781A705A7842EA0020DA7840EA7B
:108FC0000240214A11684A788C78C97842EA042222
:108FD00042EA014240F3170042F317020244C2F38F
:108FE00007215A70C2F307429970DA70124E144C7E
:108FF000144A304621461EF017FB48B101201349A0
:10900000FFF7DEF93368236073686360B368A360B9
:109010000C48FEF779FDFBF721FDFFF731F9FFF76B
:109020006FF9FBF71BFD29460248BDE8F8406AF0DE
:10903000C9BE00BFFD8E0008F416002014110020E8
:1090400004C60020785E0020D861002096310A080E
:1090500070B5184E04467146304675466AF0A0FE5B
:10906000601DFFF74BFFB4F80330134A03EB830393
:1090700003EB83039B001381104B9878597841EAE6
:109080000021D87841EA004141F3170151600C49B1
:109090000968486889680A300A315860996013780D
:1090A0006FF30003137030462946BDE870406AF044
:1090B00089BE00BF5190000814110020785E002086
:1090C000D861002070B5084D7146064628467446A2
:1090D0006AF066FE701DFFF711FF28462146BDE8C5
:1090E00070406AF06FBE00BFC590000870B5084DB3
:1090F00071460646284674466AF052FE701DFFF718
:10910000FDFE28462146BDE870406AF05BBE00BF08
:10911000ED90000870B5094E71460446304675461C
:109120006AF03EFE601DFFF7E9FE2046FDF7F0FC09
:1091300030462946BDE870406AF044BE15910008EB
:1091400070B50D4E04467146304675466AF028FEED
:10915000601DFFF7D3FEB4F8032048F6A043D2B257
:109160005A43064B20465A60FDF7D2FC304629464A
:10917000BDE870406AF026BE41910008001700204B
:1091800070B50E4E04467146304675466AF008FECC
:10919000601DFFF7B3FE0A4B00221A61B4F80320EA
:1091A0004FF47A714A4320465A61FDF7B1FC3046CC
:1091B0002946BDE870406AF005BE00BF81910008F5
:1091C0000017002070B53D4C3D482DED028B7146D7
:1091D00076466AF0E5FD2378DBB93A4B1B68B3F9B4
:1091E0000230B3B9384B1B68B3F902308BB937483A
:1091F000FBF7C0F901280CD93448FBF7EDF8F0EE85
:10920000087AB4EEE70AF1EE10FA02DBA368002B4D
:109210003BD0A368294D4BB12D4B986B03689B68DD
:109220009847AB68C01AB0F5FA7F35D8237823B3D6
:10923000284D294C2B6823606B686360AB68A36082
:109240001E4BDFED267A93ED018A2549B8EEC88AD8
:10925000284628EE278A1EF06DF9DFED220A204607
:1092600070EE200AB0EE480A1EF064FA1E4B186831
:10927000036829461B6A22469847BDEC028B31469B
:109280000F48BDE870406AF09DBD114B986B0368B4
:109290009B689847A060BCE701232B700B48002314
:1092A000AB60FCF767F90E490A4A0B6813604B681C
:1092B00053608B6868609360B8E700BF58C60020B1
:1092C000C5910008AC61002044C3002068C30020A1
:1092D00074DB002004C60020785E00200AD7233CFF
:1092E000F416002000007A443011002070B50546C5
:1092F0000C461448714676466AF052FD6B78AA789F
:10930000A17843EA0222EB7842EA0342637843EA17
:109310000123E1780C4C43EA014342F3170243F383
:1093200017039A42D8BF11462068CCBF19461A4687
:109330001DF0E6FD206031460248BDE870406AF04D
:1093400041BD00BFED920008ECC60020F0B52DED48
:10935000028B414F414D424C85B0714638467646AE
:109360006AF01EFD2868696801AB03C3A86818602D
:10937000294620461EF012F96B78AA78A178DFED15
:10938000397ADFED390A43EA0222EB7842EA0342F6
:10939000637843EA0123E17843EA014342F3170289
:1093A00043F31703D31A07EE103A304BB8EEC77ADF
:1093B00093ED008A27EE277AB8EE488A87EE088A6E
:1093C00007EE100AB8EEC70A01A820EE270A1EF021
:1093D000B1F9019BA178264843F3172307EE103A11
:1093E000F8EEC77A9FED237AE8EE077AFDEEE77A8A
:1093F00017EE903A43F31703C3F307228DF80620C4
:10940000C3F307428DF8072062788DF8053042EAF1
:109410000122E17842EA014242F317029B1A164AFE
:1094200001A953601EF086F801A92046B0EE408ADB
:109430001EF080F888EE000A01A8FEF7EBFD01A8F7
:109440002146FFF753FF384631466AF0BBFC05B0B2
:10945000BDEC028BF0BD00BF4D930008785E00208C
:1094600004C600200AD7233C0000FA4308C10020AC
:10947000F416002000504347ECC6002070B52B487E
:10948000714674466AF08CFC294B1B78063BDBB2B4
:10949000012B3DD9274B1B78042B03D12648FEF71F
:1094A00033FB31E0032B02D1FFF750FF2CE0234BBD
:1094B000186803681B6B98470028EFD1204E33686B
:1094C0001E2BEBD91F4D2B681E2BE7D91E4B5B685B
:1094D00023B31E481E49184A1EF0A6F8F0B9336897
:1094E00015481E3B07EE103A2B681E3BB8EE470AA4
:1094F00007EE103AF8EE477A80EE270AFEF78AFD6B
:109500000D481349FFF7F2FEFEF754FC114B1860AB
:1095100021460648BDE870406AF054BC0E48FBF78F
:109520007FFC8378712BB9D1EEE700BF7D940008F2
:1095300006110020FC100020785E00203011002071
:10954000E4C6002008C10020ECC60020F41600206C
:1095500004C6002000C600205462002070B50C4DE7
:109560000C4E7146284674466AF01AFC0A4B18687D
:1095700003681B689847094B30601A6851421DF018
:10958000BFFC214630602846BDE870406AF01ABC36
:109590005D950008C816002030110020ACC00020E6
:1095A0002DE9F0410F4D104E7146284674466AF081
:1095B000F7FB0E480368DB6898470D4B30600746A1
:1095C0000C48D3F80080FCF749F94146B0F9002077
:1095D00038461DF095FC214630602846BDE8F04134
:1095E0006AF0F0BBA1950008D8C60020ACC10020ED
:1095F0007C61002050C3002038B5084D71462846D4
:1096000074466AF0CDFB0648064942F0B9FC28468C
:109610002146BDE838406AF0D5BB00BFF995000887
:10962000245E002010C1002070B5084D714606462A
:10963000284674466AF0B4FB06F137003CF088FA1D
:1096400028462146BDE870406AF0BCBB2996000858
:10965000F8B50B4F04467146384676466AF0A0FBD3
:1096600094F89410204601F0030116F0B5FD04466D
:109670000D46384631466AF0A5FB20462946F8BD1E
:109680005196000810B50C48714674466AF088FB84
:109690000A4811F0EDFB4FF48050FDF7B3FF28B1FD
:1096A00007480849084A094B42F0CAF821460248CF
:1096B000BDE810406AF086BB85960008B8610020BE
:1096C000245E0020B01B002068C30020F416002098
:1096D00038B50B4D7146284674466AF061FB09485F
:1096E000FBF7A0FF014608480EF064FF074810F0A2
:1096F0000BFC28462146BDE838406AF063BB00BF3A
:10970000D196000868C30020B01B002010C10020C3
:1097100070B5094E71460446304675466AF040FB06
:1097200020461FF065FB20461FF066FA30462946AA
:10973000BDE870406AF046BB1197000810B52DEDEA
:10974000028B234884B0714674466AF029FB214895
:10975000FAF710FF012833D91F480FF08FF91E4880
:109760008DED000ACDED010A0EF0B6FF034693ED34
:10977000000AD3ED030A02A8FBF76CFF02A8FFF76B
:10978000C7FF02A869461FF0F3F91448B0EE408AFB
:10979000FAF754FE0368002B0FDD1048FAF74EFE6F
:1097A000D0ED007A9FED0E7AF8EEE77AE8EE477A90
:1097B000FDEEE77A17EE903A00E00023094A1360C5
:1097C000034821466AF0FEFA04B0BDEC028B10BDDE
:1097D0003D97000868C30020B01B0020AC19002092
:1097E0000000C842DCC600202DE9FF4B2A48714624
:1097F00077466AF0D5FAFCF7F3FC4FF47A70FCF781
:1098000009FD00246420FCF705FD2448244E13F0D4
:109810001BFA2248FBF7DAFEA042054627D01F4874
:10982000FBF7D4FE05461D48FBF7FCFED6F800808A
:109830008178D8F80030C478D3F820904378D0F8F5
:1098400008B042681548039243EA012343EA0444FE
:1098500044F31704642394FBF3F4FCF785FD0094B0
:1098600001901049039A40465B46C84704E03068BF
:109870000D4903681B6A9847306803689B689847DE
:10988000002801DC2C46BDE7034839466AF09AFA05
:10989000002004B0BDE8F08BE997000868C3002001
:1098A000A4C00020A8310A0847390A082DE9E84178
:1098B000144E71468046304675466AF071FA124B76
:1098C00012485A789F78DB7842EA072747EA03472D
:1098D000FBF72EFD827843780D4943EA0223C278D4
:1098E0000C4843EA024347F3170743F31703424682
:1098F000FB1A41F0DFFB30462946BDE8E8416AF03B
:1099000061BA00BFAD980008F4160020B01B00201B
:1099100068C30020245E0020F8B5164871467646DC
:109920006AF03EFA144813F08FF900251248FBF74D
:10993000ADFEECB2844217D20F48104F2146FBF720
:1099400031FE57F8243098420CD00B482146FBF7E3
:1099500029FE47F824000420FDF754FE10B12046EC
:10996000FFF7A4FF0135E1E731460248BDE8F840C2
:109970006AF028BA1999000868C300205CC3002067
:109980002DE9F04171462DED028B80463448764634
:109990006AF006FA3348FAF797FC334B04781B78E1
:1099A0000A2B0AD1314B1B78DB0706D43048FAF773
:1099B0008BFC90F90030002B4DD1002C43D02D4D65
:1099C0002D4B286893ED008A0E30FAF703FEB0F9AC
:1099D000007028680A30FAF7FDFD06EE904ADFEDC8
:1099E000277AB0F900302C68B8EEE67A68EE277A6C
:1099F000FB1A67EE877A07EE103AB8EEC77AF7EEF1
:109A0000006AB0EEC77A67EE877AB4F90800F4EE20
:109A1000667AF1EE10FA48BFF0EE667A06EE908AAA
:109A2000B8EEE67A77EE676A77EE877AFDEEE66A59
:109A3000FDEEE77A16EE901A17EE902A09B212B2EE
:109A40001DF046FA2081BDEC028B31460448BDE88A
:109A5000F0416AF0B7B90648FAF736FC0478ACE78B
:109A6000819900084AC3002006110020141100202B
:109A7000D8190020F0160020000000200AD7233C4F
:109A80002DE9F04B17468846834671462C487646AA
:109A90006AF086F9B8F800903C882A48A9F2DC59A7
:109AA000A4F2DC540FFA89F924B2FAF71DFCC4EBD6
:109AB000090307EE903A90ED007A2248F8EEE77A33
:109AC0004C4467EE877AFDEEE77A17EE905AFAF784
:109AD0000BFC07EE904A90ED007AF8EEE77AADB213
