:020000040800F2
:10400000941F01205D830708998A0708998A070889
:10401000998A0708998A0708998A0708998A0708D8
:10402000998A0708998A0708998A0708998A0708C8
:10403000998A0708998A0708998A0708998A0708B8
:10404000998A0708998A0708998A0708998A0708A8
:10405000998A0708998A0708998A0708998A070898
:10406000998A0708998A0708998A0708998A070888
:10407000998A0708998A0708998A0708998A070878
:10408000998A0708998A0708998A0708998A070868
:10409000998A0708998A0708998A0708998A070858
:1040A000998A0708998A0708998A0708998A070848
:1040B000998A0708998A0708998A0708998A070838
:1040C000998A0708998A0708998A0708998A070828
:1040D000998A0708998A0708998A0708998A070818
:1040E000998A0708998A0708998A0708998A070808
:1040F000998A0708998A0708998A0708998A0708F8
:10410000998A0708998A0708998A0708998A0708E7
:10411000998A0708998A0708998A0708998A0708D7
:10412000998A0708998A0708998A0708998A0708C7
:10413000998A0708998A0708998A0708998A0708B7
:10414000998A0708998A0708998A0708998A0708A7
:10415000998A0708998A0708998A0708998A070897
:10416000998A0708998A0708998A0708998A070887
:10417000998A0708998A0708998A0708998A070877
:10418000998A0708998A070870B5064D74467146E2
:104190000646284674F03CFF2846214674F04AFF44
:1041A000304670BD8941000838B5064D74467146E9
:1041B000284674F02DFF2846214674F03BFF00206E
:1041C00038BD00BFA941000838B5064D74462846E1
:1041D000714674F01DFF28462146BDE8384074F052
:1041E00029BF00BFC941000870B5074D064671469A
:1041F0002846744674F00CFF96F8816128462146E3
:1042000074F018FF304670BDE9410008F8B5084D5C
:10421000064674460F462846714674F0F9FE86F845
:10422000E17028462146BDE8F84074F003BF00BFA6
:104230000D420008F8B5084D064674460F4628465C
:10424000714674F0E5FE86F8807128462146BDE887
:10425000F84074F0EFBE00BF35420008F8B50446E0
:1042600071460E4804F13206754674F0D1FE3046B0
:10427000676CFFF789FF01783846FFF7C7FFA46B2B
:1042800034B13046FFF780FF01782046FFF7D2FFB8
:1042900029460248BDE8F84074F0CCBE5D420008F3
:1042A00070B5084D714606462846744674F0B0FE57
:1042B0003046FFF7D3FF28462146BDE8704074F032
:1042C000B9BE00BFA142000870B5064D74467146E4
:1042D0000646284674F09CFE2846214674F0AAFE45
:1042E000304670BDC942000870B5064D744671462F
:1042F0000646284674F08CFE2846214674F09AFE45
:10430000304670BDE942000870B5074D064671465B
:104310002846744674F07CFE96F8086128462146CB
:1043200074F088FE304670BD0943000870B5084D32
:10433000714606462846744674F06AFE3046FFF71A
:10434000C3FF06782146284674F074FE304670BDDF
:104350002D43000870B5074D744671460646284641
:1043600074F056FE2846214674F064FE06F15800AB
:1043700070BD00BF5543000838B5714604460C486F
:10438000754674F045FEE01EC0B20D2808D8012322
:10439000834042F21F101840041C18BF012400E0A3
:1043A00000240348294674F045FE204638BD00BF6E
:1043B0007943000870B5074D744671460646284695
:1043C00074F026FE2846214674F034FE06F168009B
:1043D00070BD00BFB543000870B5074D7446714607
:1043E0000646284674F014FE2846214674F022FE44
:1043F00006F18C0070BD00BFD943000870B5074DB1
:10440000744671460646284674F002FE2846214648
:1044100074F010FE06F1B00070BD00BFFD4300084F
:1044200070B5074D064671462846744674F0F0FD97
:10443000044B1E6028462146BDE8704074F0FABD6A
:1044400021440008C0DB002070B5084D06467146C7
:104450002846744674F0DCFD767B284606F001069B
:10446000214674F0E7FD304670BD00BF49440008A6
:1044700070B50A4D2DED028B7146064628467446EE
:1044800074F0C6FD96ED078A2846214674F0D2FDE9
:10449000B0EE480ABDEC028B70BD00BF714400084D
:1044A00070B50A4D2DED028B7146064628467446BE
:1044B00074F0AEFD96ED098A2846214674F0BAFDE7
:1044C000B0EE480ABDEC028B70BD00BFA1440008ED
:1044D00070B50A4D2DED028B71460646284674468E
:1044E00074F096FD96ED0A8A2846214674F0A2FDE6
:1044F000B0EE480ABDEC028B70BD00BFD14400088D
:1045000070B5094D064671462846744674F080FD24
:10451000367906F00306F31E5E425E4128462146C8
:1045200074F088FD304670BD01450008F8B50746B7
:10453000074D0E463E4471462846744674F068FDA9
:10454000767B2846214674F075FD3046F8BD00BFE5
:104550002D45000870B5064D74467146064628463E
:1045600074F056FD2846214674F064FD304670BD57
:1045700055450008F8B50A4D06460F4628467146CF
:10458000744674F045FD0C2303FB07602C30FFF7E5
:10459000E1FF21460646284674F04CFD3046F8BD42
:1045A0007545000870B50B4E044671463046754699
:1045B00074F02EFD236820461B699847014620466B
:1045C000FFF7D8FF29460446304674F033FD2046F5
:1045D00070BD00BFA5450008F8B5084D74460646F5
:1045E0000F462846714674F013FD2846214674F0A4
:1045F00021FD0C2303FB07601030F8BDD9450008EE
:1046000070B50B4E044671463046754674F000FD99
:10461000236820461B69984701462046FFF7DCFFC8
:1046200029460446304674F005FD204670BD00BFA3
:104630000146000870B5084D064671462846744686
:1046400074F0E6FC36792846C6F34006214674F03D
:10465000F1FC304670BD00BF35460008F8B5094D85
:104660000F46064671462846744674F0D1FC38233E
:1046700003FB07662846767F214674F0DBFC304654
:10468000F8BD00BF5D46000870B50A4D064671468C
:104690002846744674F0BCFC96F89410304601F03D
:1046A0000301FFF7DBFF21460646284674F0C2FCF3
:1046B000304670BD8946000838B5124871467446C8
:1046C00074F0A6FC104B1B78D80714D50F48FFF7E1
:1046D000DBFF02280FD90E48FFF7ACFF58B90D4B8E
:1046E0001B78190707D40C4A5278D20703D49B06CB
:1046F00001D4012500E000250248214674F09AFC0F
:10470000284638BDB9460008BC1D00205481002051
:10471000941D002020200020AC130020F8B5094D86
:104720000F46064671462846744674F071FC3823DD
:1047300007FB03331E442846B688214674F07AFCF2
:104740003046F8BD1D47000870B50A4D0646714653
:104750002846744674F05CFC96F89410304601F0DC
:104760000301FFF7DBFF21460646284674F062FC92
:10477000304670BD49470008F8B5084D74460646F6
:104780000F462846714674F043FC2846214674F0D3
:1047900051FC0C2303FB07600430F8BD7947000887
:1047A00070B50B4E044671463046754674F030FCC9
:1047B00023682046DB6C984701462046FFF7DCFF64
:1047C00029460446304674F035FC204670BD00BFD3
:1047D000A1470008F8B5084D744606460F4628461E
:1047E000714674F015FC2846214674F023FC0C2316
:1047F00003FB07604C30F8BDD547000870B50B4E81
:10480000044671463046754674F002FC2368204623
:104810001B6D984701462046FFF7DCFF29460446FA
:10482000304674F007FC204670BD00BFFD4700080D
:1048300070B5064D744671460646284674F0E8FB8E
:104840002846214674F0F6FB304670BD314800081A
:1048500070B5064D744671460646284674F0D8FB7E
:104860002846214674F0E6FB304670BD51480008EA
:1048700070B50B4D2DED028B7146064628467446E9
:1048800074F0C6FB3046FFF7E3FF90ED008A214647
:10489000284674F0CFFBB0EE480ABDEC028B70BD29
:1048A0007148000838B5714604460B48754674F0E7
:1048B000AFFB0D2C09D8012303FA04F442F60303DD
:1048C00023401C1C18BF012400E000240248294694
:1048D00074F0B0FB204638BDA548000870B5084DFF
:1048E000064671462846744674F092FB337C43F0CA
:1048F0001C03337428462146BDE8704074F09ABB0F
:10490000DD48000870B50B4D7146064628467446D2
:1049100074F07EFB06F10C00FFF7D6FC90F9006006
:10492000003618BF01262846214674F083FB304626
:1049300070BD00BF05490008F8B5084D0F46064692
:1049400071462846744674F063FB3B683360284622
:104950002146BDE8F84074F06DBB00BF394900083E
:10496000F7B50A4E02AC24ED010A714607463046FF
:10497000754674F04DFB38462146FFF7DDFF3046A3
:10498000294674F057FB03B0F0BD00BF6149000831
:10499000F7B50A4E02AC24ED010A714607463046CF
:1049A000754674F035FB381D2146FFF7C5FF3046CC
:1049B000294674F03FFB03B0F0BD00BF91490008E9
:1049C000F7B50A4E02AC24ED010A7146074630469F
:1049D000754674F01DFB07F108002146FFF7ACFF98
:1049E0003046294674F026FB03B0F0BDC1490008EB
:1049F000F7B50A4E02AC24ED010A7146074630466F
:104A0000754674F005FB38462146FFF795FF3046A2
:104A1000294674F00FFB03B0F0BD00BFF149000858
:104A200070B50B4D2DED028B714606462846744637
:104A300074F0EEFA3046FFF70BFF90ED008A214646
:104A4000284674F0F7FAB0EE480ABDEC028B70BD50
:104A5000214A000870B50B4D2DED028B71460646BC
:104A60002846744674F0D4FA301DFFF7F1FE90ED3D
:104A7000008A2146284674F0DDFAB0EE480ABDEC03
:104A8000028B70BD554A000870B50C4D2DED028BA0
:104A9000714606462846744674F0BAFA06F10800D4
:104AA000FFF7D6FE90ED008A2146284674F0C2FA40
:104AB000B0EE480ABDEC028B70BD00BF894A000809
:104AC000F8B50A4D06460F4628467146744674F0FE
:104AD0009FFA96F8363067F3410386F83630284659
:104AE0002146BDE8F84074F0A5BA00BFC14A0008ED
:104AF000F8B5074D064674460F462846714674F0D1
:104B000087FA777228462146BDE8F84074F092BAD9
:104B1000F14A0008F8B50A4D06460F462846714688
:104B2000744674F075FA96F8363067F3C30386F866
:104B3000363028462146BDE8F84074F07BBA00BF05
:104B4000154B0008F8B50A4D06460F462846714633
:104B5000744674F05DFA96F8363067F3451386F8BC
:104B6000363028462146BDE8F84074F063BA00BFED
:104B7000454B000838B5074D71462846744674F019
:104B800047FA0548FFF720FB28462146BDE8384094
:104B900074F050BA754B0008287F002070B5094D9D
:104BA00071462846744674F033FA074B986B0368D5
:104BB0009B68984721460646284674F03BFA3046E3
:104BC00070BD00BF9D4B000810DA002070B5094D84
:104BD000064671462846744674F01AFA064B1A784F
:104BE00066F304121A7028462146BDE8704074F03E
:104BF00021BA00BFCD4B00082020002070B50C4D1D
:104C00002DED028B714606462846744674F000FA74
:104C100006F12400FFF70CFE90ED008A214628469D
:104C200074F008FAB0EE480ABDEC028B70BD00BF0C
:104C3000FD4B000838B5064D74467146284674F0A1
:104C4000E7F92846214674F0F5F9012038BD00BF88
:104C5000354C000870B50A4D2DED028B0646B0EEBE
:104C6000408A28467146744674F0D2F986ED1C8A53
:104C7000BDEC028B28462146BDE8704074F0DAB9DD
:104C8000554C000838B5084D71462846744674F0F6
:104C9000BFF99FED060A0648FFF7DCFF28462146CC
:104CA00074F0C8F9012038BD854C000800000000F0
:104CB0002480002070B5094D71460646284674468A
:104CC00074F0A6F906F10800FFF70EFB06882146EE
:104CD000284674F0AFF9304670BD00BFB54C0008EF
:104CE00070B50C4D2DED028B714606462846744674
:104CF00074F08EF906F11800FFF79AFD90ED008A26
:104D00002146284674F096F9B0EE480ABDEC028BB5
:104D100070BD00BFE14C000870B50C4D2DED028B4D
:104D2000714606462846744674F072F906F128006A
:104D3000FFF78EFD90ED008A2146284674F07AF93F
:104D4000B0EE480ABDEC028B70BD00BF194D0008E3
:104D500070B5084E044671463046754674F058F9F1
:104D600000233046A36063602360294674F062F933
:104D7000204670BD514D000870B50C4D2DED028BD5
:104D8000714606462846744674F042F906F1200042
:104D9000FFF74EFD90ED008A2146284674F04AF94F
:104DA000B0EE480ABDEC028B70BD00BF794D000823
:104DB00070B50C4D2DED028B7146064628467446A3
:104DC00074F026F906F11C00FFF732FD90ED008A21
:104DD0002146284674F02EF9B0EE480ABDEC028B4D
:104DE00070BD00BFB14D000870B50C4D2DED028BAC
:104DF000714606462846744674F00AF906F12C00FE
:104E0000FFF716FD90ED008A2146284674F012F94E
:104E1000B0EE480ABDEC028B70BD00BFE94D000842
:104E200070B5104E2DED028B714604463046754626
:104E300074F0EEF804F10800FFF7FAFC90ED008A38
:104E400004F11000FFF7F4FCD0ED007A38EE678A29
:104E50003046294674F0EEF8B0EE480ABDEC028BFD
:104E600070BD00BF214E000870B5074D74467146F5
:104E70000646284674F0CCF82846214674F0DAF845
:104E800006F19C0070BD00BF694E0008F8B5094DE1
:104E900006460F4628467146744674F0B9F83378D2
:104EA00067F34103337028462146BDE8F84074F0AB
:104EB000C1B800BF8D4E000838B571460546074899
:104EC000744674F0A5F8FFF7F7FB2146002818BFD9
:104ED0000546024874F0AEF8284638BDB94E0008C1
:104EE00070B5084D064671462846744674F090F831
:104EF00000237360336028462146BDE8704074F09B
:104F000099B800BFE14E000838B523487146744691
:104F100074F07EF8214B93ED000AB5EE400AF1EEF5
:104F200010FA33D01E4DD5ED007AF5EE407AF1EE51
:104F300010FA2BD01B48FFF713FD1B4B194893EDBC
:104F4000000AFFF725FD194B164893ED000AFFF7FD
:104F500037FD174B174893ED000AFFF749FD164838
:104F600095ED000AFFF7FCFC144B134893ED000A83
:104F7000FFF70EFD124B104893ED000AFFF720FDDE
:104F8000104B114893ED000AFFF732FD214602480D
:104F9000BDE8384074F04EB8094F0008C07F0020CB
:104FA000B81D002060170020E07E0020D87E002081
:104FB000E08400206818002080170020901A00204C
:104FC000DC1D00204C1300206C180020F8B5094DA2
:104FD00006460F4628467146744674F019F8337930
:104FE00067F30003337128462146BDE8F84074F0AA
:104FF00021B800BFCD4F000870B5074D0646714679
:105000002846744674F004F836782846214674F031
:1050100011F8304670BD00BFF94F0008F8B5084ED2
:105020000F46044671463046754673F0F1FF3B88E3
:1050300023803046294673F0FDFF2046F8BD00BFAF
:105040001D50000870B50A4D2DED028B0646B0EEDE
:10505000408A28467146744673F0DAFF86ED048A6A
:10506000BDEC028B28462146BDE8704073F0E2BFDC
:1050700045500008F8B50E4D0E4E714607462846BD
:10508000744673F0C5FF06F14E00FFF72DF9B0F935
:105090000030FB1A00EE103A06F53C70B8EEC00A7C
:1050A000FFF7D0FF28462146BDE8F84073F0C2BFA5
:1050B0007550000814150020F8B5084E0F46044638
:1050C00071463046754673F0A3FF3B682360304657
:1050D000294673F0AFFF2046F8BD00BFB950000865
:1050E000F7B50A4E02AC24ED010A71460746304678
:1050F000754673F08DFF214607F11400FFF7DCFFC2
:105100003046294673F096FF03B0F0BDE150000829
:10511000F8B5084E0F46044671463046754673F0A2
:1051200077FF3B7823703046294673F083FF204693
:10513000F8BD00BF11510008F7B50A4E02AC24EDCE
:10514000010A714607463046754673F061FF2146F5
:1051500007F12C00FFF7B0FF3046294673F06AFFD5
:1051600003B0F0BD3951000870B50E4E2DED048B23
:105170000446B0EE409AF0EE608AB0EE418A754681
:105180007146304673F044FF84ED009AC4ED018A05
:1051900084ED028A3046294673F04CFFBDEC048B47
:1051A000204670BD6951000870B5084D064671462D
:1051B0002846744673F02CFF36792846C6F340061D
:1051C000214673F037FF304670BD00BFA95100087B
:1051D00070B504460E460B487146754673F018FFCD
:1051E00094F840300748C3F381039E42B6BF04EBF6
:1051F000C604002494F82C40294673F01BFF204677
:1052000070BD00BFD151000870B50A4D0646714609
:105210002846744673F0FCFE96F84010304601F0C4
:105220000301FFF7D5FF21460646284673F002FF2B
:10523000304670BD09520008F8B50F46074D0646C6
:1052400006EBC70671462846744673F0E1FE368DBC
:105250002846214673F0EEFE3046F8BD395200086C
:1052600070B50A4D064671462846744673F0D0FE66
:1052700096F84010304601F00301FFF7DDFF2146AC
:105280000646284673F0D6FE304670BD61520008CF
:10529000F8B50A4D06460F4628467146744673F027
:1052A000B7FE06EB47001E30FFF71EF806882146C2
:1052B000284673F0BFFE30B2F8BD00BF915200081F
:1052C00070B50A4D064671462846744673F0A0FE36
:1052D00096F84010304601F00301FFF7D9FF214650
:1052E0000646284673F0A6FE304670BDC15200083F
:1052F000F8B50A4D06460F4628467146744673F0C7
:1053000087FE06EB47002230FEF7EEFF06882146B7
:10531000284673F08FFE30B2F8BD00BFF15200088E
:1053200070B50A4D064671462846744673F070FE05
:1053300096F84010304601F00301FFF7D9FF2146EF
:105340000646284673F076FE304670BD21530008AD
:1053500070B5074D064671462846744673F058FEF0
:10536000B6F894602846214673F064FE30B270BDF2
:105370005153000870B50A4D2DED028B714606465B
:105380002846744673F044FE96ED1C8A2846214652
:1053900073F050FEB0EE480ABDEC028B70BD00BF4A
:1053A0007553000870B50A4D2DED028B7146064607
:1053B0002846744673F02CFE96ED2C8A284621462A
:1053C00073F038FEB0EE480ABDEC028B70BD00BF32
:1053D000A553000870B50A4D2DED028B71460646A7
:1053E0002846744673F014FE96ED2F8A284621460F
:1053F00073F020FEB0EE480ABDEC028B70BD00BF1A
:10540000D5530008F8B5084D744606460F462846A1
:10541000714673F0FDFD2846214673F00BFE3823DC
:1054200003FB07602630F8BD0554000870B50A4D2F
:10543000064671462846744673F0EAFD96F89410C5
:10544000304601F00301FFF7DDFF214606462846FE
:1054500073F0F0FD304670BD2D540008F8B5084DCE
:10546000064674460F462846714673F0D1FD86F80D
:10547000287028462146BDE8F84073F0DBBD00BF28
:105480005D540008F8B50A4D06460F462846714699
:10549000744673F0BDFD0C2303FB0760BC30FFF7BF
:1054A00059F821460646284673F0C4FD3046F8BD3B
:1054B0008554000870B50B4E04467146304675465B
:1054C00073F0A6FD236820461B6D984701462046D1
:1054D000FFF7D8FF29460446304673F0ABFD20465F
:1054E00070BD00BFB55400082DE9FF4BDFF86480A4
:1054F00071464046774673F08BFD1348FFF7DAFF9D
:10550000124B06460068D3F80090A0F01DFE04463A
:105510007068D9F800B00D46A0F016FECDE9000184
:10552000B068A0F011FECDE9020122464846DBF842
:10553000206007492B46B0474046394604B0BDE8D5
:10554000F04B73F077BD00BF80180020F87F00207B
:1055500024860A08E9540008F8B50A4D06460F46A5
:1055600028467146744673F053FD0C2303FB076015
:105570009830FEF7EFFF21460646284673F05AFDA5
:105580003046F8BD5955000870B50B4E04467146BB
:105590003046754673F03CFD23682046DB6C984727
:1055A00001462046FFF7D8FF29460446304673F0EF
:1055B00041FD204670BD00BF89550008F8B50A4D71
:1055C00006460F4628467146744673F021FD0C23AB
:1055D00003FB07607430FEF7BDFF214606462846F0
:1055E00073F028FD3046F8BDBD55000870B50B4E70
:1055F000044671463046754673F00AFD236820461E
:10560000DB6C984701462046FFF7D8FF2946044641
:10561000304673F00FFD204670BD00BFED55000809
:105620002DE9F04BDFF89090204C8CB07146484645
:10563000F04673F0EDFC2046FFF7A6FF0746204634
:10564000FFF7D4FF1A4BD3F800B00646DBF8003062
:1056500038680B93A0F078FD044678680D46A0F0FA
:1056600073FDCDE90001B868A0F06EFDCDE902013F
:105670003068A0F069FDCDE904017068A0F064FD18
:10568000CDE90601B068A0F05FFDCDE908010B9BF4
:1056900008491E6A584622462B46B04748464146AE
:1056A0000CB0BDE8F04B73F0C5BC00BF8018002003
:1056B000F87F002040860A082156000870B5084D82
:1056C000714606462846744673F0A2FC3046FEF743
:1056D000FBFD06782146284673F0ACFC304670BDD1
:1056E000BD56000870B5084D7146064628467446FA
:1056F00073F08EFC701CFEF7E7FD06782146284605
:1057000073F098FC304670BDE556000870B5084D42
:10571000714606462846744673F07AFCF01CFEF784
:10572000D3FD06782146284673F084FC304670BDD0
:105730000D57000870B5084D714606462846744658
:1057400073F066FCB01CFEF7BFFD067821462846C4
:1057500073F070FC304670BD3557000870B5094DC8
:10576000714606462846744673F052FC064B986B09
:105770000268B1B25268904728462146BDE87040A1
:1057800073F058BC5D57000810DA002038B5714638
:1057900004460A48754673F03BFCB4F5966F05DB8A
:1057A000B4F5E16FD4BF0124022400E000240348D3
:1057B000294673F03FFC204638BD00BF8D570008D6
:1057C000F7B50A4D06460F4628467146744673F0F3
:1057D0001FFC02A9301D01F8017DFFF799FC284646
:1057E000214673F027FC03B0F0BD00BFC15700088D
:1057F00038B515487146754673F00AFC134BB3F97A
:10580000F03040F2CE42934211DDB3F5AA6F10DDC5
:1058100040F2D25293420EDD40F2546293420CDDCC
:1058200040F2D564A342CCBF0524042406E0002442
:1058300004E0012402E0022400E003240248294697
:1058400073F0F8FB204638BDF1570008141500200E
:10585000F8B5084D0F46064671462846744673F063
:10586000D7FB3B78337028462146BDE8F84073F0FB
:10587000E1BB00BF51580008F7B50A4D06460F4678
:1058800028467146744673F0C3FB02A906F1350041
:1058900001F8017DFFF7DCFF2846214673F0CAFBC3
:1058A00003B0F0BD7958000870B50A4D7146064640
:1058B0002846744673F0ACFB3046FEF705FD90F9C0
:1058C0000060003618BF01262846214673F0B2FB5F
:1058D000304670BDA958000870B5084D714606469F
:1058E0002846744673F094FBB01DFEF7FDFC068855
:1058F0002146284673F09EFB30B270BDD95800088F
:10590000F7B50A4D06460F4628467146744673F0B1
:105910007FFB02A906F1500001F8017DFFF7F8FBBB
:105920002846214673F086FB03B0F0BD01590008FC
:1059300070B5084D714606462846744673F068FBFC
:105940003046FEF7C1FC06782146284673F072FB0C
:1059500070B270BD3159000838B571462DED028B1B
:1059600004460C487546B0EE408A73F051FB04F5CE
:10597000A470FEF7A9FC90F900300648022B08BF7E
:1059800084ED5F8ABDEC028B2946BDE8384073F098
:1059900051BB00BF5959000838B571462DED028B37
:1059A00004460C487546B0EE408A73F031FB04F5AE
:1059B000A470FEF789FC90F900300648012B08BF5F
:1059C00084ED5F8ABDEC028B2946BDE8384073F058
:1059D00031BB00BF99590008F8B5094D7446064619
:1059E0000F462846714673F013FB2846214673F094
:1059F00021FB0C2303FB076000F5B270F8BD00BF6C
:105A0000D9590008F8B50F46074D064606EBC706FC
:105A100071462846744673F0FBFA366928462146DB
:105A200073F008FB3046F8BD055A000870B5084D04
:105A3000064671462846744673F0EAFA96F8946072
:105A40002846C6F38106214673F0F4FA304670BD4D
:105A50002D5A000870B5074D064671462846744613
:105A600073F0D6FA36692846214673F0E3FA3046D9
:105A700070BD00BF555A000870B50B4D0646714603
:105A80002846744673F0C4FA084B1A7866F3C302CA
:105A90001A70074B5A7866F304125A70284621464A
:105AA000BDE8704073F0C6BA795A00082020002083
:105AB000CCDB002038B5074D71462846744673F09C
:105AC000A7FA054B00221A7028462146BDE8384047
:105AD00073F0B0BAB55A00083A1A002070B5074DF5
:105AE000064671462846744673F092FAB36C9E8857
:105AF0002846214673F09EFA30B270BDDD5A000888
:105B000070B50D4D71462846744673F081FA0B4806
:105B1000FEF7EAFBB0F9000007EE900AFAEEEF7A22
:105B20002846FDEEE77A214617EE906AB6B273F08A
:105B300081FA30B270BD00BF015B0008641500201F
:105B400038B5074D71462846744673F061FA054B27
:105B5000054A1A6028462146BDE8384073F06ABA03
:105B6000415B0008AC0D002074DF0A0870B5094DD8
:105B700071462846744673F04BFA074B986B0368DE
:105B8000DB68984721460646284673F053FA3046AC
:105B900070BD00BF6D5B000810DA0020F8B5084D3D
:105BA0000F46064671462846744673F031FA3B8824
:105BB000338028462146BDE8F84073F03BBA00BF69
:105BC0009D5B0008F8B5074D064674460F4628460B
:105BD000714673F01DFAB78028462146BDE8F840AB
:105BE00073F028BAC55B0008F8B5094D06460F46A4
:105BF00028467146744673F00BFA3046B763FEF7D9
:105C00002DFB28462146BDE8F84073F013BA00BFCB
:105C1000E95B000838B5064D74462846714673F0B6
:105C2000F7F928462146BDE8384073F003BA00BFB3
:105C3000155C000870B50A4D064671462846744644
:105C400073F0E6F9B369D3ED067AF8EEE77A284601
:105C5000C6ED187A2146BDE8704073F0EBB900BF7D
:105C6000355C000870B50A4D2DED028B7146064675
:105C70002846744673F0CCF996ED2B8A28462146C7
:105C800073F0D8F9B0EE480ABDEC028B70BD00BFCE
:105C9000655C000838B50E4D2DED028B714608EE9F
:105CA000100A2846744673F0B3F90A48FEF7C0FD9F
:105CB000B8EEC88AD0ED007A28EE278A2846214619
:105CC00073F0B8F9B0EE480ABDEC028B38BD00BFE6
:105CD000955C00084C17002070B5094E04467146CB
:105CE0003046754673F094F9A0680368DB6A9847FC
:105CF000304684ED1C0A2946BDE8704073F09AB91D
:105D0000D95C000870B50A4D2DED028B7146064630
:105D10002846744673F07CF996ED168A284621468B
:105D200073F088F9B0EE480ABDEC028B70BD00BF7D
:105D3000055D000870B50A4D2DED028B71460646D3
:105D40002846744673F064F996ED178A2846214672
:105D500073F070F9B0EE480ABDEC028B70BD00BF65
:105D6000355D000870B50A4D2DED028B7146064673
:105D70002846744673F04CF996ED188A2846214659
:105D800073F058F9B0EE480ABDEC028B70BD00BF4D
:105D9000655D000870B50C4D06462DED028B714611
:105DA0002846744673F034F9F068FFF7DBFFB0EE75
:105DB000408ABDEEC88A2846214673F03BF918EEAA
:105DC000100ABDEC028B70BD955D000870B50A4DE0
:105DD0002DED028B714606462846744673F018F97D
:105DE00096ED198A2846214673F024F9B0EE480A48
:105DF000BDEC028B70BD00BFCD5D000870B50C4DD1
:105E000006462DED028B71462846744673F000F964
:105E1000F068FFF7DBFFB0EE408ABDEEC88A284687
:105E2000214673F007F918EE100ABDEC028B70BD25
:105E3000FD5D000870B50A4D2DED028B71460646DA
:105E40002846744673F0E4F896ED108A28462146F9
:105E500073F0F0F8B0EE480ABDEC028B70BD00BFE5
:105E6000355E000810B51D482DED028B7146744655
:105E700073F0CEF81A4B187810B11A48FFF7C4F92E
:105E8000194B5A789978DB7842EA012242EA0343B7
:105E900043F31703B3F57A7F0ADB18B1134B1B7872
:105EA000022B05D81248FFF7C5FFB0EE408A0BE081
:105EB0001048FEF719FAB0F90030002BC8BF5B425A
:105EC00007EE903AB8EEE78A0448214673F0B2F83C
:105ED000B0EE480ABDEC028B10BD00BF655E000845
:105EE000880D00200C81002078130020541300201E
:105EF000248000205415002070B50C4D06462DED71
:105F0000028B71462846744673F082F8F068FFF7FA
:105F100029FFB0EE408ABDEEC88A2846214673F0BC
:105F200089F818EE100ABDEC028B70BDF95E00080E
:105F300070B50C4D06462DED028B71462846744611
:105F400073F066F8F068FFF741FFB0EE408ABDEEEF
:105F5000C88A2846214673F06DF818EE100ABDEC89
:105F6000028B70BD315F000870B5094D7146064661
:105F70002846744673F04CF8D6ED0A7AFDEEE77ABF
:105F8000284617EE906A214673F054F8304670BDEB
:105F9000695F000870B5084D06467146284674468C
:105FA00073F036F80023F386338728462146BDE890
:105FB000704073F03FB800BF955F000870B5074DA3
:105FC000744671460646284673F022F82846214654
:105FD00073F030F806F15C0070BD00BFBD5F0008D3
:105FE00070B5084D064671462846744673F010F8A1
:105FF0003678284606F00106214673F01BF8304635
:1060000070BD00BFE15F000870B5064D7446714673
:106010000646284672F0FCFF2846214673F00AF82F
:10602000304670BD0960000870B50A4D2DED028B39
:106030000646B0EE408A28467146744672F0E8FF84
:1060400086ED1C8ABDEC028B28462146BDE87040D7
:1060500072F0F0BF2960000870B50A4D2DED028B7B
:106060000646B0EE408A28467146744672F0D0FF6C
:1060700086ED1D8ABDEC028B28462146BDE87040A6
:1060800072F0D8BF5960000870B504460D462DED7A
:10609000028B71466448764672F0BAFF2188B5F9E2
:1060A00000200BB2002B02DD002A03DA08E009B160
:1060B000002A05DC002AB8BF5242B2F5E16F01DDCB
:1060C0002B88A8E007EE103A002BF8EEC77A9FED78
:1060D000578A50DD564867EE888AFEF705F9B0F911
:1060E0000030032B0CDD5248FEF7FEF8B0F900201B
:1060F000042392FBF3F307EE903AB8EEE77A01E05F
:10610000B7EE007AF4EEC78AF1EE10FA08DDB4F9C2
:10611000003007EE903AF8EEE77A27EE888A15E02D
:106120004348FEF7E1F8B0F90030032B0CDD40489E
:10613000FEF7DAF8B0F90020042392FBF3F308EE3F
:10614000103AB8EEC88A01E0B7EE008AB4F9003020
:1061500007EE903AF8EEE77A37EEC88ABDEEC88AC5
:1061600018EE103A9BB22380B5F900201BB293427F
:10617000B8BF13464FE02E4867EEC88AFEF7B4F862
:10618000B0F90030032B0CDD2948FEF7ADF8B0F96B
:106190000020042392FBF3F307EE103AF8EEC77ADF
:1061A00001E0F7EE007AF4EEE78AF1EE10FA08DD8E
:1061B000B4F9003007EE903AF8EEE77A27EEC88A95
:1061C00015E01B48FEF790F8B0F90030032B0CDD0A
:1061D0001748FEF789F8B0F90020042392FBF3F387
:1061E00008EE103AB8EEC88A01E0B7EE008AB4F9BA
:1061F000003007EE903AF8EEE77A38EE278ABDEEE7
:10620000C88A18EE103A9BB22380B5F900201BB261
:106210009342A8BF1346BDEC028B2380314602484F
:10622000BDE8704072F006BF89600008CDCC4C3CE0
:106230004A15002038B50C4D71462846744672F058
:10624000E7FE0A4B1A78052161F302021A70C82290
:106250005A8300225A805A8EDA8328462146BDE8A6
:10626000384072F0E7BE00BF35620008141300200A
:1062700038B50C4D71462846744672F0C9FE0A4B7B
:106280001A78052161F3C5021A70C8229A83002288
:106290009A809A8E1A8428462146BDE8384072F0CA
:1062A000C9BE00BF716200081413002038B533481E
:1062B0002DED048B7146754672F0AAFE304B1A78AC
:1062C000C2F34102002A51D05978C8074ED52D4C4F
:1062D0006FF300015970B4F9723007EE103A012AD9
:1062E000B8EEC77A0AD1284BD3ED006AB4F99230E0
:1062F00008EE903A254BF8EEE88A09E0244BD3EDFE
:10630000006AB4F9923008EE903A224BF8EEE88A2F
:10631000D3ED007A204827EEE88A68EEA68AA7EE39
:10632000268AE7EE278AFFF73DF81B48B0EE409A31
:10633000FFF750F820EE280A1748A9EE080ABDEE2C
:10634000C00A10EE103AA4F87230FFF743F8124872
:10635000B0EE409AFFF726F820EE280AA8EE490A88
:10636000BDEEC00A10EE103AA4F89230BDEC048BDA
:1063700029460248BDE8384072F05CBEAD620008B4
:10638000BC1D0020141500208C0D00205082002020
:10639000840D0020F4C60020308500202DE9F04156
:1063A0000A4D80460F4628467146744672F030FE0C
:1063B0000748066841463A463668B04728462146AF
:1063C00072F038FE0020BDE8F08100BF9D63000838
:1063D00010DA002070B50B4D06467146284674460B
:1063E00072F016FE084B1A7866F382021A70074B99
:1063F0005A7866F3C3025A7028462146BDE87040B9
:1064000072F018BED563000820200020CCDB0020ED
:1064100038B5714604460C48754672F0F9FD0B4BD1
:106420001A78C2F30011A14207D064F304121A7063
:10643000074B1A7864F3C7121A7029460248BDE860
:10644000384072F0F7BD00BF11640008BC1D002089
:10645000CCDB002038B5714605460948744672F019
:10646000D7FD084B06481A78C2F3C001A9421CBFE9
:1064700065F3C3021A702146BDE8384072F0DABDF8
:1064800055640008BC1D002038B5104D2DED028B61
:1064900071462846744672F0BBFD0D48FDF714FFA7
:1064A00090F90000DFED0B7A07EE100AB8EEC77A1C
:1064B000B0EE008AA7EE278A2846214672F0BAFD80
:1064C000B0EE480ABDEC028B38BD00BF89640008FD
:1064D00049150020CDCCCC3D70B57146054610481D
:1064E000744672F095FDFEF759FB06460D48FDF720
:1064F000EBFE90F90030B3EB962F01D2002508E0B7
:1065000035B9094BD86A03681B6A98470028F5D14A
:1065100001250348214672F08DFD284670BD00BF5D
:10652000D96400082315002010DA0020F8B50F46C2
:10653000074D064606EBC70671462846744672F0BC
:1065400067FDF6682846214672F074FD3046F8BDB6
:106550002D65000870B50A4D0646714628467446FA
:1065600072F056FD96F89410304601F00301FFF7E3
:10657000DDFF21460646284672F05CFD304670BDC0
:1065800055650008F8B5094D744606460F4628467D
:10659000714672F03DFD2846214672F04BFD3823CE
:1065A00007FB0333F0180830F8BD00BF856500080D
:1065B00070B50A4D064671462846744672F028FDAD
:1065C00096F89410304601F00301FFF7DBFF2146F7
:1065D0000646284672F02EFD304670BDB1650008B3
:1065E000F8B50C4D2DED028B06460F462846714638
:1065F000744672F00DFD382303FB076696ED0D8A95
:106600002846214672F016FDB0EE480ABDEC028B1A
:10661000F8BD00BFE165000870B50D4D06462DEDD3
:10662000028B71462846744672F0F2FC96F894107C
:10663000304601F00301FFF7D3FF2846B0EE408A51
:10664000214672F0F7FCB0EE480ABDEC028B70BD3B
:106650001966000838B5054671460848744672F058
:10666000D7FC288B4FF6FF75A84214BF05460025BE
:106670002146024872F0DEFC284638BD5566000807
:10668000F8B50F46074D064606EBC7067146284685
:10669000744672F0BDFC768D2846214672F0CAFC25
:1066A0003046F8BD8166000870B50A4D0646714651
:1066B0002846744672F0ACFC96F84010304601F063
:1066C0000301FFF7DDFF21460646284672F0B2FCC3
:1066D000304670BDA966000870B50A4D7146064681
:1066E0002846744672F094FC301DFDF7EDFD90F9DC
:1066F0000060003618BF01262846214672F09AFC39
:10670000304670BDD966000870B5074D0646714623
:106710002846744672F07CFC96F82860284621468C
:1067200072F088FC304670BD0967000870B5074DEF
:10673000064671462846744672F06AFC368E284634
:10674000214672F077FC304670BD00BF2D6700080F
:1067500070B5074D064671462846744672F058FCDF
:10676000F66A2846214672F065FC304670BD00BFCF
:106770005167000870B5064D7446714606462846B6
:1067800072F046FC2846214672F054FC304670BD3B
:106790007567000870B50D46044671462448764674
:1067A00072F036FC082D3BD804EB45007230FFF741
:1067B000E1FF007807EE900A082DF8EE677A08D01E
:1067C00094F864300BB9236C1BB1B5EE007A67EE18
:1067D000877AF5EEC07AF1EE10FA21D9254495F8C2
:1067E0008430D3B99FED137A94F88D40F4EE477A54
:1067F000F1EE10FAC8BFF0EE477A87EE277A06EE80
:10680000904AF8EEE66A012477EE267AFCEEE77A03
:1068100017EE903A85F8843003E0013B85F8843028
:1068200000240348314672F005FC204670BD00BFCD
:10683000956700080000484270B50C4D2DED028BA5
:1068400006467146B0EE408A2846744672F0E0FB78
:10685000F068B0EE480AFEF7FDF9BDEC028B284661
:106860002146BDE8704072F0E5BB00BF3968000802
:1068700038B50C461D487146754672F0C9FB637900
:10688000DB071CD51A48FEF7EFFAA379E279817885
:1068900043EA0222237A42EA0342437843EA01238D
:1068A000C17843EA014342F3170243F31703134449
:1068B000C3F30722A371C3F30743E2712372E279A2
:1068C000A3790C4843EA0223227A43EA024343F3C2
:1068D000170300EE103AB8EEC00AFFF7ADFF2946E5
:1068E0000248BDE8384072F0A5BB00BF71680008DF
:1068F00030850020E41D002070B5094D7146064624
:106900002846744672F084FB06F13700FDF73CFC24
:1069100006782146284672F08DFB304670BD00BFD8
:10692000F968000870B5074D06467146284674465A
:1069300072F06EFB367D2846214672F07BFB3046B6
:1069400070BD00BF2569000870B5074E044671464A
:106950003046754672F05CFB044B23603046294696
:1069600072F068FB204670BD49690008B8740A08D7
:10697000F8B50A4E04460F4630467146754672F029
:1069800047FB2046FFF7E0FF054B236030462771A9
:10699000294672F04FFB2046F8BD00BF7169000820
:1069A00018CE0A0870B50D4C064671460C4875465F
:1069B00072F02EFB206803685B690EB1094900E0A4
:1069C000094998472068094903685B69984729463F
:1069D0000348BDE8704072F02DBB00BFF87F002077
:1069E000A5690008428E0A08BA720A08B6920A0817
:1069F00070B5094D714606462846744672F008FB8C
:106A000006F5A470FDF760FC06782146284672F072
:106A100011FB304670BD00BFF1690008F8B50B4DA1
:106A200006460F4628467146744672F0F1FA0C236A
:106A300003FB076000F5A670FDF78CFD21460646B6
:106A4000284672F0F7FA3046F8BD00BF1D6A00080C
:106A500070B5074D064671462846744672F0D8FA5E
:106A600076882846214672F0E5FA304670BD00BFB0
:106A7000516A000870B5094D71462846744672F097
:106A8000C7FA0748FFF7E4FF21460646284672F09A
:106A9000D1FA0F23B6FBF3F0C0B270BD756A0008DF
:106AA000DCDB002070B5084D71460646284674466A
:106AB00072F0AEFA301DFDF707FC06782146284635
:106AC00072F0B8FA304670BDA56A000838B5714654
:106AD00004460D48754672F09BFA0C48FDF7F4FB2E
:106AE00090F90030022B05D0032B06D01C1C18BFD8
:106AF000012403E084F0010400E004240248294654
:106B000072F098FA204638BDCD6A0008481500207A
:106B100070B50E4D2DED028B714606462846744623
:106B200072F076FA3046FFF777FD28462146B0EE40
:106B3000408A72F07FFADFED067A28EE278ABCEEF3
:106B4000C88A18EE100ABDEC028B70BD116B0008EC
:106B50000000C842F8B5094D0F4606467146284662
:106B6000744672F055FA382303FB07662846B66B65
:106B7000214672F05FFA3046F8BD00BF556B000841
:106B800070B50A4D064671462846744672F040FAC2
:106B900096F89410304601F00301FFF7DBFF214621
:106BA0000646284672F046FA304670BD816B0008F2
:106BB00038B51348134C2DED028B7146754672F0B3
:106BC00027FA1148FDF760FD01280DD90E48FFF79F
:106BD0009FFF642808D90C48FFF7D2FF07EE100A80
:106BE000F8EEC77AC4ED007A94ED008A044829468D
:106BF00072F020FAB0EE480ABDEC028B38BD00BF3F
:106C0000B16B0008548200205481002070B50A4DF9
:106C10002DED028B714606462846744672F0F8F94F
:106C200096ED398A2846214672F004FAB0EE480AF9
:106C3000BDEC028B70BD00BF0D6C000870B5084E36
:106C4000044671463046754672F0E2F9002330463C
:106C500063602360294672F0EDF9204670BD00BFE5
:106C60003D6C000870B5074D7446714606462846CF
:106C700072F0CEF92846214672F0DCF906F50B7069
:106C800070BD00BF656C000838B5094D71462846D7
:106C9000744672F0BDF9074B01221A70FEF766FFC9
:106CA000054B186021462846BDE8384072F0C2B94D
:106CB000896C00087C0D00202885002038B5074D20
:106CC00071462846744672F0A3F9054B00221A70EB
:106CD00028462146BDE8384072F0ACB9BD6C0008CA
:106CE0007C0D002070B50A4D2DED028B0646B0EEEE
:106CF000408A28467146744672F08AF986ED098A00
:106D0000BDEC028B28462146BDE8704072F092B976
:106D1000E56C000870B5084D714606462846744675
:106D200072F076F9B01DFDF72FFA06782146284655
:106D300072F080F9304670BD156D000838B5094D08
:106D400071462846744672F063F9074A002313809F
:106D5000064A1360064A138028462146BDE838409B
:106D600072F068B93D6D0008588200205013002071
:106D7000EC1E002038B5714604460D48754672F089
:106D800047F90C4B1A8801321A800B4B1A6894424F
:106D900088BF1C6040F6B8339C4203D9074B1A8861
:106DA00001321A8029460248BDE8384072F042B9E3
:106DB000756D00085882002050130020EC1E002042
:106DC00070B5074D71462846744672F021F9054B9F
:106DD0001E882846214672F02DF9304670BD00BF4E
:106DE000C16D00085882002070B5074D71462846D5
:106DF000744672F00DF9054B1E682846214672F064
:106E000019F9304670BD00BFE96D0008501300202D
:106E100070B5074D71462846744672F0F9F8054B77
:106E20001E882846214672F005F9304670BD00BF25
:106E3000116E0008EC1E0020F0B5234F8BB0044605
:106E400071463846764672F0E3F82048FEF70CF8B3
:106E500062684368DFED1E7AD31A06EE903A1D4B46
:106E6000A268D3ED000A8368D31AB8EEE60AA278C6
:106E700006EE903A637843EA0223E27843EA02435B
:106E800043F3170360EEA70AB8EEE67A01EE103A74
:106E900004AD20EE270A60EE870AB8EEC11A284634
:106EA000FEF762F995E807000AAB03E907003846E8
:106EB000314672F0BFF89DED070ADDED080A9DED41
:106EC000091A0BB0F0BD00BF396E000830850020F4
:106ED0002C7D8E3F980D002038B5064D744628460F
:106EE000714672F095F828462146BDE8384072F0A8
:106EF000A1B800BFD96E000838B5714605460A48EA
:106F0000744672F085F80023EA18043300211C2B24
:106F10005160F9D1002385F8203021460248BDE8B0
:106F2000384072F087B800BFF96E000838B50446E3
:106F30002DED028B71460F48B0EE408A754672F017
:106F400067F894F820200B48531CDBB2062B84F81A
:106F5000203004EB820288BF002382ED018A29469B
:106F600088BF84F8203072F065F8B0EE480ABDECB6
:106F7000028B38BD2D6F000870B5084D064671466E
:106F80002846744672F044F896F840602846C6F3E6
:106F90008106214672F04EF8304670BD796F0008C8
:106FA00038B5094D71462846744672F031F8074BE2
:106FB0000749186803681B6A984728462146BDE8B8
:106FC000384072F037B800BFA16F0008F87F00208A
:106FD00079860A0838B5094D71462846744672F01C
:106FE00017F8074B074AD86B116803681B68984766
:106FF0002846214672F01EF8002038BDD56F0008E3
:1070000010DA0020F87F002038B5064D744671462E
:10701000284671F0FDFF2846214672F00BF800204B
:1070200038BD00BF09700008F8B50A4D06460F4686
:1070300028467146744671F0EBFF96F8363067F3D8
:10704000820386F8363028462146BDE8F84071F0C4
:10705000F1BF00BF2970000870B50B4E04467146A1
:107060003046754671F0D4FF236820461B69984767
:1070700001462046FDF75AFA29460446304671F08B
:10708000D9FF204670BD00BF5970000838B5094DC2
:1070900071462846744671F0BBFF074B07491868D4
:1070A00003681B6A98472846214671F0C3FF0020F9
:1070B00038BD00BF8D700008F87F00208E860A085A
:1070C00038B5094D71462846744671F0A1FF074B4B
:1070D000986B03680021DB6B98472846214671F0C6
:1070E000A9FF002038BD00BFC170000810DA0020E1
:1070F000F8B5084D0F46064671462846744671F0AD
:1071000087FF3B68336028462146BDE8F84071F0B0
:1071100091BF00BFF17000082DE9F04B5D4F5E4D4F
:107120005E4C71463846764671F072FFD5F80080A5
:10713000D8F8003004F17A00D3F82090FDF7D4F8A5
:10714000B0F900B004F17E00FDF7CEF85A4654497C
:10715000B0F900304046C847D5F80080D8F8003074
:1071600004F19A00D3F82090FDF7BEF8B0F900B012
:1071700004F19E00FDF7B8F85A464A49B0F90030CC
:107180004046C847D5F80080D8F8003004F1BA006E
:10719000D3F82090FDF7A8F8B0F900B004F1BE00D4
:1071A000FDF7A2F85A464049B0F900304046C847BA
:1071B000D5F80080D8F8003004F1DA00D3F8209038
:1071C000FDF792F8B0F900B004F1DE00FDF78CF89D
:1071D0005A463649B0F900304046C847D5F80080D5
:1071E000D8F8003004F1FA00D3F82090FDF77CF8CD
:1071F000B0F900B004F1FE00FDF776F85A462C49CC
:10720000B0F900304046C847D5F80080D8F80030C3
:1072100004F58D70D3F82090FDF766F8B0F900B052
:1072200004F58F70FDF760F85A462249B0F9003036
:107230004046C847D5F80080D8F8003004F59D7066
:10724000D3F82090FDF750F8B0F900B004F59F7026
:10725000FDF74AF85A461849B0F900304046C84789
:107260002D682B6804F5AD70D3F82080FDF73CF84D
:10727000B0F9009004F5AF70FDF736F80F49B0F99A
:1072800000304A462846C04738463146BDE8F04BF4
:1072900071F0D0BE19710008F87F0020141500208D
:1072A000B9860A08C7860A08D5860A08E3860A0846
:1072B000F1860A08FF860A080D870A081B870A0854
:1072C00070B504460D462D487146764671F0A0FE15
:1072D0002368102D47D8DFE805F0090D12161A1E95
:1072E0002226462A2E3246363A3E42005B6924491F
:1072F000204602E05B6923492046984738E05B69F5
:1073000021492046F9E75B6920492046F5E75B699A
:107310001F492046F1E75B691E492046EDE75B699E
:107320001D492046E9E75B691C492046E5E75B69A2
:107330001B492046E1E75B691A492046DDE75B69A6
:1073400019492046D9E75B6918492046D5E75B69AA
:1073500017492046D1E75B6916492046CDE75B69AE
:1073600015492046C9E71B6A144920462A46984712
:1073700031460248BDE8704071F05CBEC172000841
:1073800029870A0833870A0838870A0841870A08C4
:1073900046870A0860870A084D870A0851870A0845
:1073A00058870A085D870A0867870A086D870A08F0
:1073B00073870A0878870A0881870A0889870A0874
:1073C0002DE9F843124C81468846124871467546AD
:1073D000164671F01DFE20680F4907684A463F6A4D
:1073E000B84720684146FFF76BFF20680B490368E8
:1073F0001B6A9847206803681B6A0EB1084900E0C1
:107400000849984729460348BDE8F84371F012BE81
:10741000F87F0020C173000892870A089B870A083A
:10742000A7870A08AB870A0870B5084D7146284639
:10743000744671F0EDFD0648FEF7D2FD2146064682
:10744000284671F0F7FD304670BD00BF2974000872
:10745000E41D002038B5064D74467146284671F08B
:10746000D7FD2846214671F0E5FD002038BD00BF5C
:107470005574000870B5074D744671460646284697
:1074800071F0C6FD2846214671F0D4FD06F11C00BE
:1074900070BD00BF7574000870B50A4D2DED028BEC
:1074A000714606462846744671F0B2FD96ED0C8A88
:1074B0002846214671F0BEFDB0EE480ABDEC028BB5
:1074C00070BD00BF9974000838B512487146754602
:1074D00071F09EFD1048FEF783FD044698B10F4CF5
:1074E000236813B9FDF75AFB2060FDF757FB2468AA
:1074F0004FF47A73001BB0FBF3F4094B1B889C42DA
:1075000034BF002401240348294671F093FD20462E
:1075100038BD00BFC9740008E41D0020C07E0020F3
:10752000D484002038B50B487146754671F070FD63
:10753000094B1C783CB1094B1C78033CE4B2012C8C
:107540008CBF002401240348294671F073FD2046B6
:1075500038BD00BF25750008EE1E0020881A0020E7
:1075600038B571460C48754671F052FDFDF716FBB3
:107570000A4B1B68C01A0A4B1A6822EAE272904250
:107580004FF0000488BF1C60034888BF01242946CF
:1075900071F050FD204638BD61750008B813002019
:1075A000DC7E002038B5064D74467146284671F0E1
:1075B0002FFD2846214671F03DFD012038BD00BF5A
:1075C000A5750008F8B50A4E07460C4630467146C8
:1075D000754671F01DFD94E8070007F11C0383E870
:1075E000070030462946BDE8F84071F023BD00BFD2
:1075F000C5750008F7B50A4E02AC24ED010A7146C4
:1076000007463046754671F003FD214607F110002C
:10761000FDF752FD3046294671F00CFD03B0F0BD78
:10762000F575000870B50C4D2DED028B71460646C0
:107630002846744671F0ECFC06F11000FDF7F8F8EE
:1076400090ED008A2146284671F0F4FCB0EE480A1D
:10765000BDEC028B70BD00BF2576000870B5074DEC
:10766000064671462846744671F0D2FC768F28464D
:10767000214671F0DFFC304670BD00BF5D7600082A
:1076800070B50F4D064671462846744671F0C0FC31
:10769000FDF784FAD6F805609FED0A7A0A4B07EEEB
:1076A000906A67EE877A1860FDEEE77A074BC3EDC4
:1076B000007A28462146BDE8704071F0BBBC00BF8F
:1076C0008176000800007A44B8130020DC7E002098
:1076D00070B50D4D064671462846744671F098FC0B
:1076E000D6F805609FED097A094B07EE906A67EEC0
:1076F000877A2846FDEEE77A2146C3ED007ABDE899
:10770000704071F097BC00BFD17600080000C842FD
:10771000DC7E002038B5064D74462846714671F06F
:1077200077FC28462146BDE8384071F083BC00BF95
:1077300015770008F7B50C4D06460F4628467146EA
:10774000744671F065FC07EE107AF8EE477A02A9EC
:1077500061ED017A06F10C00FDF7EEF828462146AE
:1077600071F068FC03B0F0BD3577000870B5064DC8
:10777000744671460646284671F04AFC2846214662
:1077800071F058FC304670BD6D77000870B5084E3A
:10779000714604463046754671F03AFC2046FFF7C4
:1077A000E5FF3046294671F045FC204670BD00BF1C
:1077B0008D77000870B5084E714604463046754610
:1077C00071F026FC2046FFF7E1FF3046294671F0B4
:1077D00031FC204670BD00BFB577000870B5084E7B
:1077E000714604463046754671F012FC2046FFF79C
:1077F000BDFF3046294671F01DFC204670BD00BF1C
:10780000DD77000870B5084E71460446304675466F
:1078100071F0FEFB2046FFF7A9FF3046294671F0C4
:1078200009FC204670BD00BF0578000870B5084E01
:10783000714604463046754671F0EAFB2046FFF774
:1078400095FF3046294671F0F5FB204670BD00BF1C
:107850002D78000870B5084E7146044630467546CE
:1078600071F0D6FB2046FFF7CDFF3046294671F078
:10787000E1FB204670BD00BF5578000870B5074E8B
:10788000044671463046754671F0C2FB044B2360D6
:107890003046294671F0CEFB204670BD7D78000849
:1078A00018750A0870B5094E04467146304675468B
:1078B00071F0AEFB2046FFF7E1FF054B2360304639
:1078C000294671F0B7FB204670BD00BFA5780008BF
:1078D00088D70A0870B5094E044671463046754689
:1078E00071F096FB002330466370A370E370237140
:1078F000294671F09FFB204670BD00BFD578000877
:1079000070B5094E044671463046754671F080FBED
:1079100000233046A370E3702371A360294671F001
:1079200089FB204670BD00BF0179000870B50C4E80
:10793000714604463046754671F06AFB201DFFF71C
:10794000B1FF04F11400FFF7C5FF04F11C00FFF7BD
:10795000D7FF3046294671F06DFB204670BD00BF51
:107960002D79000870B5084E7146044630467546BC
:1079700071F04EFB04F12400FDF7EAF93046294688
:1079800071F058FB204670BD6579000870B5074E50
:10799000044671463046754671F03AFB044B23604D
:1079A0003046294671F046FB204670BD8D790008AF
:1079B000C8740A0870B50C4E0446714630467546C8
:1079C00071F026FB2046FFF7E1FF084B2360002300
:1079D00084F820302046FFF78FFA3046294671F0B0
:1079E00029FB204670BD00BFB5790008D8740A088D
:1079F00070B5094E044671463046754671F008FB75
:107A00002046FFF7D7FF054B23603046294671F02B
:107A100011FB204670BD00BFF1790008E8740A0828
:107A200070B5094E714604463046754671F0F0FA5D
:107A30002046FFF79BFE2046FDF78AF9304629468F
:107A400071F0F8FA204670BD217A000870B50C4E2E
:107A50002DED028B0446F0EE408AB0EE608A75464A
:107A60007146304671F0D4FAC4ED008A84ED018A83
:107A70003046294671F0DEFABDEC028B204670BD1F
:107A80004D7A000870B50C4E044671463046754676
:107A900071F0BEFA4FF07E5323622361236000230E
:107AA000A36063606361E360E361A36130462946DC
:107AB000BDE8704071F0BEBA857A000870B50C4E12
:107AC000714604463046754671F0A2FA2046FDF72D
:107AD0003FF904F10C00FDF73BF904F11800FDF744
:107AE00037F93046294671F0A5FA204670BD00BF2F
:107AF000BD7A00082DE9F0410A4E04460F46304693
:107B000071467546904671F083FA00233046237122
:107B1000A760C4F80C80294671F08CFA2046BDE8B5
:107B2000F08100BFF57A000870B5084E0446714632
:107B30003046754671F06CFA00233046237063704E
:107B4000294671F077FA204670BD00BF297B0008F6
:107B500070B5084E044671463046754671F058FAC5
:107B60000023304623706370294671F063FA204683
:107B700070BD00BF517B0008F8B50B4E04460F46A0
:107B800030467146754671F043FA0023304627604F
:107B9000A380A371A360A381E38123746382294638
:107BA00071F048FA2046F8BD797B000870B5074DA2
:107BB000064671462846744671F02AFA36782846F9
:107BC000214671F037FA304670BD00BFAD7B00082A
:107BD00070B5074D064671462846744671F018FA8E
:107BE00036782846214671F025FA304670BD00BF30
:107BF000D17B000870B5074D06467146284674468D
:107C000071F006FA36782846214671F013FA3046AC
:107C100070BD00BFF57B000870B5074D0646714684
:107C20002846744671F0F4F936782846214671F0FA
:107C300001FA304670BD00BF197C000870B5074DD1
:107C4000064671462846744671F0E2F936782846B1
:107C5000214671F0EFF9304670BD00BF3D7C000851
:107C600070B5074D064671462846744671F0D0F946
:107C700036782846214671F0DDF9304670BD00BFE8
:107C8000617C000870B5074D06467146284674466B
:107C900071F0BEF936782846214671F0CBF93046AE
:107CA00070BD00BF857C000870B5074D0646714663
:107CB0002846744671F0ACF936782846214671F0B2
:107CC000B9F9304670BD00BFA97C000870B5074DFA
:107CD000064671462846744671F09AF93678284669
:107CE000214671F0A7F9304670BD00BFCD7C000879
:107CF00070B5074D064671462846744671F088F9FE
:107D000036782846214671F095F9304670BD00BF9F
:107D1000F17C000870B5074D06467146284674464A
:107D200071F076F936782846214671F083F93046AD
:107D300070BD00BF157D000870B5074D0646714641
:107D40002846744671F064F936782846214671F069
:107D500071F9304670BD00BF397D000870B5074D20
:107D6000064671462846744671F052F93678284620
:107D7000214671F05FF9304670BD00BF5D7D00089F
:107D800070B5074D064671462846744671F040F9B5
:107D900036782846214671F04DF9304670BD00BF57
:107DA000817D000870B5074D064671462846744629
:107DB00071F02EF936782846214671F03BF93046AD
:107DC00070BD00BFA57D000870B5074D0646714621
:107DD0002846744671F01CF936782846214671F021
:107DE00029F9304670BD00BFC97D00082DE9F0417A
:107DF0000E46804671460C48754671F009F90B4BEA
:107E000000241E60A7B21C2000FB0760FFF7CEFE17
:107E100001340028F6D1064B03481F70294671F043
:107E200009F94046BDE8F081ED7D0008D4DB002073
:107E3000D0DB002070B5084E7146044630467546CA
:107E400071F0E6F804F12400FEF7F8FE304629460A
:107E500071F0F0F8204670BD357E000870B5074E11
:107E6000044671463046754671F0D2F8044B2360E3
:107E70003046294671F0DEF8204670BD5D7E000870
:107E800098CD0A0870B5074E0446714630467546CF
:107E900071F0BEF8044B23603046294671F0CAF8F1
:107EA000204670BD857E000850B10A0870B5094EA5
:107EB000044671463046754671F0AAF8064B2360B9
:107EC0002046FFF7DFFF3046294671F0B3F8204621
:107ED00070BD00BFAD7E0008C0B10A0870B5074E86
:107EE000044671463046754671F092F8044B2360A3
:107EF0003046294671F09EF8204670BDDD7E0008B0
:107F000028AC0A0870B5094E0446714630467546DD
:107F100071F07EF8064B23602046FFF79FFF304646
:107F2000294671F087F8204670BD00BF057F000824
:107F300028CE0A0870B5094E04467146304675468B
:107F400071F066F8064B23602046FFF7AFFF30461E
:107F5000294671F06FF8204670BD00BF357F0008DC
:107F600030B20A0870B5094E71460446304675466F
:107F700071F04EF82046FFF771FF204671F050F97E
:107F80003046294671F056F8204670BD657F0008DE
:107F900070B5094E714604463046754671F038F8A2
:107FA0002046FFF76FFF204671F03AF93046294628
:107FB00071F040F8204670BD917F000870B5094E01
:107FC000714604463046754671F022F82046FFF7A8
:107FD0006DFF204671F024F93046294671F02AF8E9
:107FE000204670BDBD7F000870B5094E714604463D
:107FF0003046754671F00CF82046FFF76FFF2046BB
:1080000071F00EF93046294671F014F8204670BD23
:10801000E97F000870B5094E714604463046754642
:1080200070F0F6FF2046FFF76DFF204671F0F8F87C
:108030003046294670F0FEFF204670BD15800008CE
:1080400070B5094E714604463046754670F0E0FF43
:108050002046FFF76FFF204671F0E2F830462946D0
:1080600070F0E8FF204670BD4180000870B50B4DF0
:1080700071462846744670F0CBFF094B09481E78BC
:10808000FCF782F83146027807481AF015F92846BD
:108090002146BDE8704070F0CDBF00BF6D80000884
:1080A00088820020221500206013002038B5094D79
:1080B00071462846744670F0ABFF07482AF04AFE26
:1080C000064818F0B3FC28462146BDE8384070F059
:1080D000B1BF00BFAD80000864840020D01E002026
:1080E00070B5714606460B48754670F091FF002446
:1080F0000948225C1AB1204431464BF0D9FCCC34FB
:10810000B4F5197FF4D129460248BDE8704070F0FB
:1081100091BF00BFE18000082C1B002038B5074D3F
:1081200071462846744670F073FF1C20FFF7D8FF95
:1081300028462146BDE8384070F07CBF1D8100080C
:1081400038B5074D71462846744670F061FF00202F
:10815000FFF7C6FF28462146BDE8384070F06ABFE9
:108160004181000838B50B487146754670F050FFE4
:1081700000240948235C1BB1204408494BF044FE0D
:10818000CC34B4F5197FF4D129460248BDE8384013
:1081900070F050BF658100082C1B0020458200084C
:1081A00038B571461D48744670F032FF1C4B986B11
:1081B0000368DB6898471B4B1A881B4B1988914250
:1081C00006D01A80194B1860194B00221A7011E062
:1081D000184B1B7873B1154B17491A68821A8A42DB
:1081E0001D46134B01D901211970197811B1134B98
:1081F0009A4205D821460948BDE8384070F01ABFB8
:1082000028600F48FCF720F90028F3D00C48002123
:1082100029F074F90A4829F0ABFBEBE7A1810008CB
:1082200010DA0020301A0020DC840020288500208D
:10823000D01D00207C0D002080841E0040420F00D5
:10824000341F002010B571460446124870F0E0FE5D
:10825000114B20461C60FCF7E3F8236820461B6C9A
:10826000012198470D4B986B036800215B6905223B
:108270009847FEF723FD0A48FCF7E6F830B10848B6
:10828000002129F03BF9064829F072FB054827F048
:10829000C5FFFBE745820008F87F002010DA0020C8
:1082A000341F0020001F002038B5074D71462846B6
:1082B000744670F0ADFE054827F0B0FF2846214611
:1082C00070F0B8FE002038BDA9820008D8C6002092
:1082D00038B50A4D71462846744670F099FE084B31
:1082E0000849186803681B6A9847074827F096FFF3
:1082F0002846214670F09EFE002038BDD18200083D
:10830000F87F0020B0870A08CC13002038B5074D4D
:1083100071462846744670F07BFE054827F07EFFC4
:108320002846214670F086FE002038BD0D830008E7
:10833000D87F002070B5274C27482DED028B714661
:10834000754670F065FE6378A678244843EA0626F1
:10835000E37846EA0346FBF7C7FFB0F9003046F37F
:1083600017069E420DDDA278637843EA0223E27885
:1083700043EA024343F3170307EE903AB8EEE78A65
:1083800008E01648FBF7B0FFB0F9000008EE100A4D
:10839000B8EEC88A124812F08FFCC30710D51048F7
:1083A000DFED108AFCF73CFD20EE280AB4EEC08A0F
:1083B000F1EE10FA04D40A48FCF732FD20EE288AC8
:1083C0000548294670F036FEB0EE480ABDEC028B37
:1083D00070BD00BF781300203583000824150020ED
:1083E000EC7E00200000C84270B5324871467646E7
:1083F00070F00EFE304B1B781A0754D42F48FBF751
:1084000063FF90F90030012B05D02C48FBF75CFF8F
:1084100003785B0644D52A4844F0B6FC20B92948C5
:1084200044F0B2FC00283ED02748FBF75DFFB0F9CE
:10843000003040F21454A34235DC2448FBF754FFCB
:10844000B0F9003040F2A365AB422CDD2048FBF7C9
:108450004BFFB0F90030A34225DC1E48FBF744FF78
:10846000B0F90030AB421EDD1548FBF73DFFB0F917
:108470000030A34217DC1348FBF736FFB0F9003099
:10848000AB4210DD1448FBF72FFFB0F90030A342D8
:1084900009DC1248FBF728FFB0F90030AB4202DDDF
:1084A0000120FDF7D7FF31460248BDE8704070F06B
:1084B000C1BD00BFE9830008BC1D00207B15002062
:1084C000CE150020D21500208E1500209215002018
:1084D000AE150020B2150020EE150020F215002088
:1084E00070B5084D714606462846744670F090FDFA
:1084F00006F1370044F048FC28462146BDE87040AC
:1085000070F098BDE184000870B5094E71460446CC
:108510003046754670F07CFD204627F0C5FB2046AE
:1085200027F08AF930462946BDE8704070F082BDD8
:1085300009850008F8B506460F460C487146754691
:1085400070F066FD00240A48225C22B120443146C6
:108550003A464BF033FBCC34B4F5197FF3D12946BE
:108560000248BDE8F84070F065BD00BF35850008E1
:108570002C1B00202DE9F04171462DED028B0546A4
:108580002648764670F044FD254822F079FE27F013
:108590008BFB2448B0EE408AFCF74CF8074630B11C
:1085A0001DB121490320FFF7C5FF00242DE0FCF792
:1085B00083F8044630B9002DF7D003201B49FFF79C
:1085C000B9FF22E0B5EE408AF1EE10FA06D0DFEDF9
:1085D000187AB4EEE78AF1EE10FA04DD002DE4D04B
:1085E00003201449DFE71448FCF7AEF8804613482F
:1085F000FBF77AFEB0F90030984506DD002DD4D0A7
:1086000003200F49FFF796FF3C460448314670F0BF
:1086100011FDBDEC028B2046BDE8F0817585000898
:10862000E0130020941D0020BE870A08D1870A08A5
:1086300000004842E5870A08548100203A150020CE
:10864000FA870A082DE9F0412DED028BB74D8CB069
:1086500004467146B648774670F0DAFC2B78DA06A5
:1086600000F14181B348FBF72FFE90F9003033B998
:108670000120FDF7CDFE0120FDF7ECFE33E1FFF711
:10868000B3FE2B781B0705D4002C00F02C810320AF
:10869000A94915E0A748FBF717FE90F90030012B18
:1086A00005D0A448FBF710FE03789E071FD5A3480A
:1086B000FBF726FF38B9002C00F01581A0490320F4
:1086C000FFF738FF0FE19F4822F012FE9E4B9FED0F
:1086D0009F7AD3ED007AF8EEE77A30EE670AF0EE93
:1086E000C07AF4EEC77AF1EE10FA00F305819148F2
:1086F000FBF7EAFD90F90030012B05D08D48FBF720
:10870000E3FD03785D074BD591480021FBF70EFF91
:10871000002800F0F6808E4818F06EFF002800F068
:10872000F5808B48FBF73EFF07C88DE807006846D9
:1087300027F0BAFADFED877AB4EEE70AF1EE10FA25
:1087400000F3E9808248FBF75BFF27F0ADFADFED2D
:10875000827AB4EEE70AF1EE10FA00F3E180DFED81
:108760007F7AB4EEE70AF1EE10FA00F1D98078488A
:10877000FBF73AFD012813D97548FBF741FF07C8FD
:1087800003AD85E807002846FFF7BEFE4FF000085E
:108790006F48FBF729FD5FFA88F68642C0F0048136
:1087A0006448FBF791FD90F90030012B05D061483A
:1087B000FBF78AFD037818071AD5694B1878FBF781
:1087C000DBFD002840F018816648FBF77DFD90F93D
:1087D0000030032B00F01081634812F089FA002862
:1087E00000F08180604812F067FA810700F10B8188
:1087F0005048FBF769FD90F90030012B00F00A8129
:108800004C48FBF761FD0378DA0600F10381494823
:10881000FBF75AFD90F90030012B05D04548FBF7D6
:1088200053FD03789B065BD55048FBF74DFD90F94F
:108830000030002B40F06E814D48FBF745FD90F96C
:108840000030002B40F066814A48FBF73DFD90F96F
:108850000030BBB14848FBF747FDB0F9005047482E
:10886000FBF742FDB0F900300A339D4240F36381CB
:108870004248FBF739FDB0F9002040F28D339A42AF
:1088800040F359813E48FBF72FFDB0F90030B3F5B6
:108890007A7FC0F256813A48FBF726FDB0F90030E6
:1088A000B3F5FA5F00F34D813648FBF7C1FF90ED59
:1088B000008A3548FBF7DCFFB4EEC08AF1EE10FA0F
:1088C00000F345813148FBF7B3FF90ED008A304853
:1088D000FBF7CEFFB4EEC08AF1EE10FA00F3378159
:1088E0000120FDF795FD1248394670F0A3FB0CB04E
:1088F000BDEC028BBDE8F081002CF4D003202549AB
:10890000DEE6002CEFD003202349D9E6002CEAD084
:1089100003202249D4E6002CE5D003202049CFE6ED
:10892000002CE0D003201F49CAE600BFBC1D002078
:10893000458600087B15002010880A08287F002043
:108940002A880A08E0130020841300200000C8428F
:10895000908200200000FA4300A05A44008039436E
:108960008882002038150020EC7E00207915002038
:108970007A1500205E150020CE150020601500201D
:10898000188000205017002068180020541700207D
:108990006C18002043880A0859880A0875880A0854
:1089A00094880A08B5880A0831466C48FBF714FE1B
:1089B00007C806AE86E807003046FFF7A5FD30463B
:1089C000294627F04FF809A88DED090ACDED0A0ACE
:1089D0008DED0B1A27F068F9F6EE087AB4EEE70A87
:1089E000F1EE10FA08F101087FF7D2AE002C3FF447
:1089F0007AAF03205A4963E62046FFF7BBFD002803
:108A00007FF4EAAE6FE72046FFF7B4FD00283FF49D
:108A10006AAFEDE6534823F0EFF828B9002C3FF495
:108A200062AF032050494BE64E4822F03DFF28B983
:108A3000002C3FF458AF03204C4941E6494824F04C
:108A400045F9012804D8474822F006FF50B32FE02B
:108A50004448FBF7A5FE00258046424824F036F93D
:108A6000EEB28642EFD231463E48FBF785FE4146E4
:108A700026F0F8FF09A88DED090ACDED0A0A8DED63
:108A80000B1A27F011F9F7EE007AB4EEE70AF1EECF
:108A900010FA05F10105E0DD002C3FF424AF0320BE
:108AA00033490DE6002C3FF41EAF0320314907E6A1
:108AB0002C4824F0F9F801287FF6A9AE00252948B2
:108AC00024F0F2F8EEB28642BFF4A1AE314625485A
:108AD000FBF780FE06462348FBF790FE0146304632
:108AE00026F0C0FF09A88DED090ACDED0A0A8DED2B
:108AF0000B1A27F0D9F8DFED207AB4EEE70AF1EE91
:108B000010FA05F10105DADD002C3FF4ECAE03208C
:108B10001A49D5E51A48FBF7D7FB05781948FBF742
:108B2000D3FB03789D427FF48FAE002C3FF4DBAE85
:108B300003201549C4E5002C3FF4D5AE03201349AA
:108B4000BEE5002C3FF4CFAE03201149B8E5002C60
:108B50003FF4C9AE03200F49B2E500BF9082002068
:108B6000CD880A0880180020EC880A0807890A08BE
:108B700022890A083E890A083333B33E58890A0815
:108B8000791500207A15002073890A0896890A0849
:108B9000B1890A08C9890A08F8B5714604465A48D5
:108BA000764670F035FA5948FBF78EFB90F90030A5
:108BB0000BB90124A2E05548FBF786FB90F9003081
:108BC000012B05D05148FBF77FFB0378980712D59E
:108BD0004F4822F08DFB4F4B9FED4F7AD3ED007A3B
:108BE000F8EEE77A30EE670AF0EEC07AF4EEC77A74
:108BF000F1EE10FA6DDC4548FBF766FB90F90030AA
:108C0000012B05D04148FBF75FFB037819070CD512
:108C1000424B1878FBF7B0FB00285FD14048FBF7C8
:108C200053FB90F90030032B58D03848FBF74CFB2E
:108C300090F90030012B05D03448FBF745FB037851
:108C40009A0612D5374D05F14A00FBF73DFB90F926
:108C5000003053B105F14C00B5F8B070FBF744FBA0
:108C6000B0F900303FB2BB423EDC2848FBF72CFB9A
:108C700090F90030012B05D02448FBF725FB037841
:108C8000DB0617D5284D29482B6983EAE377A7EB44
:108C9000E377FBF729FBB0F900309F4229DC23483A
:108CA0006D69FBF721FBB0F90030002DB8BF6D42B4
:108CB0009D421EDC1E4BD86B03685B6898470128F9
:108CC0007FF477AF1CB11B490320FFF733FC00246E
:108CD00014E0002CFBD003201749F6E72046FFF7ED
:108CE00049FC0028F3D0A0E7002CF0D00320134962
:108CF000EBE7002CEBD003201149E6E702483146B0
:108D000070F098F92046F8BD998B00087B1500207B
:108D1000E0130020841300200000C8428882002055
:108D20003815002014150020308500201880002000
:108D300010DA0020048A0A0846880A08E5890A0829
:108D4000F7890A0838B5714605460E48744670F032
:108D50005FF9032D10D8DFE805F00205080B0320AA
:108D6000094907E00320094904E00320084901E01C
:108D700008490320FFF7DEFB21460248BDE83840E2
:108D800070F058B9458D0008178A0A08298A0A0820
:108D90003B8A0A084D8A0A0870B5714605461A488A
:108DA000764670F035F9FFF71FFB184B1B78C3F3BD
:108DB000C00434B9164B174ACC2000FB0530032100
:108DC00007E0DC0908D1124B134ACC2000FB053028
:108DD00003214AF0F3FE11E0104BD86B03685B6887
:108DE0009847012809D10A4B0D4ACC2000FB0530D9
:108DF00003214AF0E3FE002400E00124024831464A
:108E000070F018F9204670BD998D0008BC1D002037
:108E10002C1B00205E8A0A087C8A0A0810DA0020CF
:108E20009B8A0A082DE9F041124E04460F4630464F
:108E30007146754670F0ECF894ED007AD7ED007A43
:108E4000B4EE677AF1EE10FA0CBF4FF000084FF065
:108E5000010820463946FBF76FFD4146204643F0A6
:108E6000B9FE29460446304670F0E4F82046BDE8D5
:108E7000F08100BF258E00082DE9F041104E044618
:108E80000F4630467146754670F0C2F897F90030CB
:108E900094F90080B8EB030818BF4FF00108204692
:108EA0003946FCF7D5FC4146204643F093FE29465F
:108EB0000446304670F0BEF82046BDE8F08100BFA1
:108EC000798E00082DE9F041104E04460F463046D9
:108ED0007146754670F09CF8B7F90030B4F900801F
:108EE000B8EB030818BF4FF0010820463946FCF7DD
:108EF00055FE4146204643F06DFE29460446304665
:108F000070F098F82046BDE8F08100BFC58E0008DB
:108F10002DE9F0410F4E04460F4630467146754626
:108F200070F076F83B682168B1EB030818BF4FF08A
:108F3000010820463946FEF7DBF84146204643F05B
:108F400049FE29460446304670F074F82046BDE8D4
:108F5000F08100BF118F000838B5074D71462846D3
:108F6000744670F055F8054842F05EF928462146EF
:108F7000BDE8384070F05EB8598F0008F81F002037
:108F800010B50A487146744670F042F80848FBF77D
:108F90009BF990F9003013B1064818F07FF821468C
:108FA0000248BDE8104070F045B800BF818F00084E
:108FB0003C15002090820020F8B51E4E1E4F2DED6E
:108FC000028B714607F142043046754670F020F876
:108FD0002046FBF789F9B0F900305B4207EE903A82
:108FE0002046B8EEE78AFBF77FF9B0F90000134C92
:108FF00000EE900AB0EE480AF8EEE00A204610F0C3
:1090000043FB07F14400FBF76FF9B0F9000000EEF5
:10901000100A2046B8EEC00A10F072FB204611F08C
:1090200045F83046294670F005F8BDEC028B01206A
:10903000F8BD00BFB98F000814150020248000205F
:10904000F8B51E4E1E4F2DED028B714607F14204FE
:10905000304675466FF0DCFF2046FBF745F9B0F966
:1090600000305B4207EE903A2046B8EEE78AFBF705
:109070003BF9B0F90000134C00EE900AB0EE480A3C
:10908000F8EEE00A204610F0FFFA07F14400FBF783
:109090002BF9B0F9000000EE100A2046B8EEC00A25
:1090A00010F02EFB204611F001F8304629466FF0F3
:1090B000C1FFBDEC028B0120F8BD00BF419000084C
:1090C000141500202480002070B529482DED028B56
:1090D000714676466FF09CFF264B93F9003033F0D3
:1090E000020201D000253AE0234CB4F9B230002B43
:1090F000F8DD2248FBF7A8F905460028F2D0204BFE
:109100001B7803F0A003202BECD104F14200FBF705
:10911000EBF8B0F900305B4207EE903A04F1420000
:10912000B8EEE78AFBF7E0F8B0F9000000EE900A2D
:10913000B0EE480AF8EEE00A124810F0A5FA04F181
:109140004400FBF7D1F8B0F9000000EE100A0D481A
:10915000B8EEC00A10F0D4FA0A4810F0A7FF04488D
:1091600031466FF067FFBDEC028B284670BD00BF33
:10917000C99000088882002014150020341F0020A8
:10918000BC1D00202480002038B571462DED028BD7
:109190000546264874466FF03BFFFBF78DFA08B989
:1091A0002DB93BE0224822F047F90028F8D0214BA6
:1091B000214800221A70FBF793FD204810F0B6FBFF
:1091C0001D48FBF7A9FD1D4810F088FB1C48FBF764
:1091D0008BF8B0F900301A485B4207EE903AB8EECF
:1091E000E78AFBF781F8B0F9000000EE900AB0EED4
:1091F000480AF8EEE00A114810F046FA1148FBF769
:1092000073F8B0F9000000EE100A0C48B8EEC00A7E
:1092100010F076FA0C4812F0D1FB012503482146E4
:109220006FF008FFBDEC028B284638BD899100081D
:10923000E0130020221A0020E41D002024800020DA
:109240005615002058150020E884002070B571469E
:109250002DED028B06461E4875466FF0D9FEFBF7D2
:109260002BFA044600B956B31A4812F093FD1A4877
:10927000FBF73AF8B0F9003017485B4207EE903A36
:10928000B8EEE78AFBF730F8B0F9000000EE900A7C
:10929000B0EE480AF8EEE00A104810F0F5F9104870
:1092A000FBF722F8B0F9000000EE100A0B48B8EE08
:1092B000C00A10F025FA094810F0F8FE012404480D
:1092C00029466FF0B7FEBDEC028B204670BD00BF93
:1092D0004D920008E41D0020561500202480002037
:1092E0005815002070B571462DED028B06463948A1
:1092F00075466FF08DFEFBF7DFF9044608B9002EC6
:1093000060D03548354CFAF7EFFFB0F900303248FD
:109310005B4207EE903AB8EEE78AFAF7E5FFB0F95C
:10932000000000EE900AB0EE480AF8EEE00A2C4881
:1093300010F0AAF92B48FAF7D7FFB0F9000000EEB9
:10934000100A2748B8EEC00A10F0DAF9244810F0E5
:10935000ADFE002324486380A380FAF7C5FFB0F96F
:109360000000DFED227A224B06EE900AF8EEE66A64
:10937000B2EE0E7AE6EE877A1B789FED1E7A67EEE4
:10938000877ADA09C4ED027A237809D0042262F3DD
:10939000020362F3C5031848237012F0FBFC04E0DB
:1093A00062F3020362F3C50323706378134843F04A
:1093B00001036370FBF794FD0023A385E38584F824
:1093C00031300124034829466FF034FEBDEC028B96
:1093D000204670BDE59200085615002014130020A9
:1093E00024800020581500204A1500200000BE42AD
:1093F000BC1D00200AD7233CE41D002038130020A8
:1094000010B52DED028B1F4884B0714674466FF085
:10941000FFFDFBF751F91C4B187058B101A8FBF781
:1094200097FC1A4801A912F023FD184801A901224E
:1094300012F05EFC1548FBF79FFC1448B0EE408A22
:10944000FBF7B6FC1248F0EE400AB0EE480A10F006
:109450001BF90E48FBF7C8FC0D4810F051F90C48F9
:1094600010F024FEFBF79AFB0A4B18600A4B0548E4
:10947000002221461A706FF0DDFD012004B0BDEC22
:10948000028B10BD019400083A1A0020E41D002050
:1094900024800020C8130020708200202DE9F041B4
:1094A00071462DED068B80464B484C4D4C4E4D4C35
:1094B0007746F0EE408AB0EE609A6FF0A9FDFBF7B8
:1094C0006DFB494A1168411AB1F57A7F034618D9F4
:1094D000B6F90010A07807EE101A617841EA002171
:1094E000E07841EA004141F3170107EE901AB8EE27
:1094F000C77AF8EEE77A77EE677A77EEA87AC5ED65
:10950000007A07EE908AB8F1000F1360B8EEE78A90
:1095100004DA364B1B7B13F0040F04E00AD0334B04
:109520001B7B13F0080F05D1D5ED007AE8EE097A20
:10953000C5ED007AB6F900102D48D5ED009A09EE78
:10954000101AFCF7DFFBB6F900302948B8EEC99ACB
:109550000AEE103A39EE409AFCF7ECFBB8EECAAAD4
:10956000F0EE490A30EE0A1AB0EE690A24F072F8F9
:10957000A2786378B6F900601E4885ED000A43EAD8
:109580000223E27843EA024343F3170307EE903ADB
:10959000B8EEE77A07EE906AF8EEE77A77EE677A48
:1095A00077EEE88A78EE808AFBF742F990ED000AC0
:1095B000DFED110A9FED111A28EE800A24F04AF817
:1095C0000548F0EE408A39466FF034FD38EE880ADF
:1095D000BDEC068BBDE8F0819D940008341A002094
:1095E000C47E002078130020E47E0020341F002079
:1095F0002480002028150020000016C30000164318
:10960000F8B5194D2DED028B0646B0EE408A28467E
:109610000F46714674466FF0FBFCB0EE480ADFED72
:10962000130AB7EE001A24F015F828462146B0EECA
:10963000408A6FF0FFFC06EE907AB7EE007A37EEC4
:10964000487AF8EEE67A06EE906A67EE277AB8EE88
:10965000E67AE8EE077ABDEC028BFDEEE77A17EECC
:10966000900A00B2F8BD00BF01960008000000009B
:1096700030B52DED048B044683B0484871467546DD
:109680006FF0C6FC002C5AD04548FAF72DFEB0F911
:109690000030B3F5FA7F52D000214FF47A722046A1
:1096A00023F05EFF04463E48FAF71EFE4FF4967123
:1096B0004FF42F72B0F9000023F052FF02A921F8F5
:1096C000020D3748FBF7AAFCB4F5FA7F40DA3548BB
:1096D000FAF70AFEB0F9000008EE100A3148FAF76E
:1096E00003FEB0F900302E48E41A06EE904AB8EEB8
:1096F000E69AFAF7F9FDB0F900402A48FAF7F4FDC6
:10970000B0F900302748E31A08EE903AFAF7ECFD7A
:10971000B0F90030C3F5FA73F8EEE88A07EE103AB4
:1097200068EE898AF8EEC77AB8EEC88AC8EEA78ACA
:1097300038EE888ABDEEC88A18EE104AA4B21748DF
:1097400029466FF077FC20B203B0BDEC048B30BD2E
:1097500013481FD0FAF7C8FDB0F9000008EE100A50
:109760000F48FAF7C1FDA4F5FA74B0F90030DFED47
:109770000E7A07EE104AC3F57A73B8EEC77A06EE92
:10978000903A27EE277AB8EEC88AF8EEE67AA7EE86
:10979000278ACFE7FAF7A8FD0488D0E7719600087A
:1097A000641500205A1500206F12033B2DE9F04B81
:1097B00080460E46304871461D46744617466FF087
:1097C00027FC40462D4941F2941223F0C9FE41F294
:1097D00094122A498046304623F0C2FE06462848A5
:1097E000FAF782FDB0F9002041F294139A4203D1B6
:1097F000A7F800802E8039E02148DFF88CB0DFF830
:109800008C90FAF771FDBBF90030B0F900209A4254
:1098100014D01B48FAF768FD03881948ABF80030EC
:10982000FAF762FDB0F900009FED167A07EE900A94
:10983000F8EEE77A67EE877AC9ED007A06EE908A4D
:10984000D9ED007AB8EEE67A06EE906A27EE277A2E
:10985000BDEEC77A17EE103AB8EEE67A3B8067EEB7
:10986000277AFDEEE77A17EE903A2B8021460248E0
:10987000BDE8F04B6FF0DEBBAD9700086CEEFFFF6C
:109880001880002053046939201A0020800D002020
:10989000F7B505467146324876466FF0B9FB314B55
:1098A0001C78C4F34004002C52D121464FF47A7244
:1098B000284623F055FE05462B48FAF715FD4FF4D0
:1098C000C8722146B0F9000023F04AFE02A921F82F
:1098D000020D2548FBF7A2FB2348FAF705FDB0F976
:1098E0000030C3F5FA739D420EDA2048FAF7FCFC0B
:1098F000B0F900701C48FAF7F7FCB0F90040A4F585
:10990000FA7425447D4316E01748FAF7EDFCB0F9E8
:10991000003003F5FA739D4217DD1448FAF7E4FCB2
:10992000B0F900401048FAF7DFFC114BB0F9002005
:109930009B1A1D4465430C48FAF7D6FCB0F9004069
:10994000C4F5FA7495FBF4F4A4B20A4B1C8000E051
:109950000024034831466FF06DFB20B203B0F0BD28
:109960009198000820200020661500205615002040
:109970000CFEFFFFCA7F002070B52DED048B04465E
:1099800082B04048714675466FF042FB002C6FDD97
:1099900000214FF47A72204623F0E2FD04463A4853
:1099A000FAF7A2FC4FF42F724FF49671B0F9000051
:1099B00023F0D6FD02A921F8020D3348FBF72EFB58
:1099C0003248FAF791FC0688FCF79AF836B28642DC
:1099D00004DD2E48FAF788FC04884AE02C48FAF7A0
:1099E00083FCB0F9003003F2F313A3423CDB2748B9
:1099F000FAF77AFCB0F9000008EE100A2348FAF7EB
:109A000073FCB0F90030E41A07EE104AB8EEC79ABA
:109A1000FCF776F804461D48FAF766FCB0F900300A
:109A20001B48E31A08EE903AFAF75EFCB0F90040E2
:109A30001648FAF759FCB0F9003004F5FA74E41A44
:109A400007EE104AF8EEE88AF8EEC77A68EE898ADF
:109A5000B8EEC88AC8EEA78A38EE888ABDEEC88AF2
:109A600018EE104AA4B204E0FCF74AF8044600E0FD
:109A70000024044829466FF0DDFA20B202B0BDECA4
:109A8000048B70BD79990008641500205A150020D8
:109A900066150020F8B571462DED028B0446284866
:109AA000B0EE408A75466FF0B3FA2648FAF71CFC10
:109AB000B0F90020DFED246A9FED247A042392FBA5
:109AC000F3F39BB21AB2002A214AB5EEC08AD2ED56
:109AD000027A2288D8BF0123F1EE10FA67EEC87A25
